:0300000002641F78
:0C641F00787FE4F6D8FD758126026466E3
:104BE7009002977451F0A37446F0A37440F0A37435
:104BF70035F07B32E4FD7F041261639002977433D2
:104C0700F0A304F0A37401F0A3740AF0A37402F0F4
:104C1700A37433F0A37435F0A37402F0A37406F001
:104C2700A37403F0A37432F0A37434F0A37403F0F5
:104C3700A37401F0A3F0A37432F0A37434F0A37447
:104C470005F0A37434F0A304F07B047D07E4FF129E
:104C570044BC7F731247489002981233D8044CD251
:104C6700E27FBA7E387D237C0212001E7F741247D2
:104C7700487F7012474812689F7D327F471241FB79
:104C87007F3C1266997F4A1262E77F511267867FDF
:104C9700461262E77F341266F37F481262E77F505D
:104CA7001267867D327F461241FB7F481262E77F9B
:104CB700511267867F461262E77F711247487F3439
:104CC7001266F37F4A1262E77F501267867D327F52
:104CD700481241FB12689F7F4A1262E77F511267B1
:104CE700867D357F481241FB7F401266997F4A12C5
:104CF70062E77F501267867F461262E77D327F3C0C
:104D0700125BBE7F481262E77F511267867F4612A9
:104D170062E77F6E1247487F351266F37F4C126257
:104D2700E77F501267867D327F481241FB7F3C1236
:104D3700669912689F7F4A1262E77F511267867DE4
:104D4700357F481241FB7F401266997F4E1262E71A
:104D57007F501267867F461262E77D327F3C125B87
:104D6700BE7F481262E77F511267867F461262E76D
:104D77007F721247487F341266F37F4C1262E77FD7
:104D8700501267867D327F481241FB7F4012669939
:104D970012689F7F4A1262E77F511267867F481227
:104DA70062E77F6F1247487D347F3C125BBE7F4EC0
:104DB7001262E77F501267867D327F481241FB7F80
:104DC700331266F312689F7F511267867F6F12470F
:104DD700487B327D467F40123E6112689F7F4812B2
:104DE70062E77F501267867F461262E77F7212473B
:104DF700487F4012669912689F7F481262E77F5189
:104E07001267867F461262E77F751247480267443A
:03000300020006F2
:0100060032C7
:03000B000268BBCD
:1068BB00C0E0C0F0C083C082C0D075D00812681B86
:0B68CB00D0D0D082D083D0F0D0E032DB
:03001B000268D6A2
:1068D600C0E0C0F0C083C082C0D075D008126997EE
:0B68E600D0D0D082D083D0F0D0E032C0
:104E170066756E5F7761697428293B0A0025730AF6
:104E27000052656164792100456E64210066756EE4
:104E37005F737A2868616E5F73293B0A0066756E37
:104E47005F737A2868616E5F6A293B0A0066756E30
:104E57005F7079287472615F71293B0A0066756E0D
:104E67005F7079287472615F6B71293B0A00667500
:104E77006E5F7079287472615F7A293B0A006675E4
:104E87006E5F7079287472615F6B68293B0A0066F0
:104E9700756E5F7079287472615F68293B0A0066D6
:104EA700756E5F736A28736A705F31293B0A006603
:104EB700756E5F736A28736A705F3132293B0A0027
:104EC70066756E5F736A28736A705F32293B0A00E2
:104ED70066756E5F736A28736A705F3233293B0A9F
:104EE7000066756E5F736A28736A705F33293B0AC1
:104EF7000066756E5F736A28736A705F3334293B87
:104F07000A0066756E5F736A28736A705F34293B9F
:104F17000A0066756E5F736A28736A705F34352995
:104F27003B0A0066756E5F736A28736A705F35297E
:104F37003B0A0066756E5F687A286469725F7570F0
:104F4700293B0A0066756E5F687A286469725F6438
:104F57006F776E293B0A0066756E5F687A28646909
:104F6700725F6C656674293B0A0066756E5F687AC6
:104F7700286469725F7269676874293B0A0025644F
:104F8700202D2D3E2025640A00256420096E6F77A9
:104F97002E783D256420096E6F772E793D25642094
:104FA700096E6578742E783D256420096E657874DE
:104FB7002E793D256420095075626C6963593D253A
:104FC70064200A0025643A2564200925643A25648B
:104FD700200925643A2564200925643A25640A00D6
:104FE700656E75705B25642C25645D00656E646F66
:104FF700776E5B25642C25645D00656E6C65667451
:105007005B25642C25645D00656E72696768745B57
:0950170025642C25645D000A00EB
:1067C1006027026061A800C8003A03202D02580228
:1067D1000D020D021C048304420451041A06C7066B
:1067E10063001404B002BC07D007D00122004100AD
:0267F1000000A6
:066624007F017D167E00DF
:10662A008E168F17ED24EB601D14603C2402705EF9
:10663A00E5171517AE1670021516D39400EE9400DE
:10664A00404C000080EAE5171517AE1670021516C1
:08665A00D39400EE94004036D9
:0E666200000075110C7512A8D512FDD511FAA5
:1066700080DEE5171517AE1670021516D39400EEDE
:04668000940040142E
:1066840075132E7514997515F5D515FDD514FAD510
:0266940013F7FA
:0266960080DAA8
:0166980022DF
:10695100438780759850438E04759CD9438E0143BB
:036961008E102273
:0B698400E4F5D8F5F9F5E975D9082213
:1068F100EF75F019A4FFAEF07C007D0A1232288FEB
:0A690100EA8FFA75DA42E4F5F2229B
:10690B00EF75F019A4FFAEF07C007D0A1232288FD0
:0A691B00EB8FFB75DB42E4F5F3227D
:10692500438E805389F0438901758A20758CD1C2C5
:066935008DD2A9D2AF22B1
:10693B00538EBF53890F438910758BE0758DB1C290
:06694B008FD2ABD2AF2297
:10681B00758A20758CD1E5262401F526E43525F5FE
:10682B0025E43524F524E43523F523900047E0B423
:06683B000B03123487225A
:07699700758BE0758DB12244
:0D000E00E4F5C7F5C5F5C675C380F5C4223D
:1068620075C78375C5018FC4EEF5C375C65A75C663
:0F687200A57D147F0A7E0012662AAFC212000EA7
:0168810022F4
:1068410075C78375C5028FC4EEF5C3AF058FC275D9
:10685100C65A75C6A57D147F0A7E0012662A0200FB
:016861000E28
:1068820075C78375C5038FC4EEF5C375C65A75C641
:0D689200A57D147F0A7E0012662A02000E0A
:0E697600D2B21266247BFF7A4E7917023A499C
:10616300900294EFF0A3EDF0A3EBF0E4F5977593B1
:10617300FFF594F5917592FC7595F075960FD2A184
:10618300D2A3C2DEC297126951D2991269841269ED
:106193002512693BD28CD28EE4F526F525F524F53C
:1061A30023FE7F40FD7B017A00790112345B7E017F
:1061B3007FA47D0B7B017A0079B612345BE49002F5
:1061C3005EF0A37432F0900294E090005AF09002D3
:1061D30095E090005BF0900296E0900062F09002F0
:1061E30097E0900063F0900298E0900064F09002D2
:1061F30099E0900065F090029AE0900066F0E490D8
:106203000044F0FD7F2B1249B2E4FD7F2C1249B20A
:10621300E4FD7F2D1249B2E4FD7F2E1249B2E4FD65
:106223007F2A1249B27F0312662690030074FFF09F
:10623300A3744EF0A37428F07BFF7A4E7924023ABC
:016243004911
:10674400C2AFE4900044F0FD7F2B1249B2E4FD7F18
:106754002C1249B2E4FD7F2D1249B2E4FD7F2E12C2
:1067640049B2E4FD7F2A1249B290030074FFF0A3FA
:10677400744EF0A3742FF07BFF7A4E7924123A49B9
:0267840080FE95
:106786009002F5EFF0900063E06F602E9002F5E066
:106796007BFFB451067A4E793480047A4E794412DE
:1067A6003A497D157F147E0012662AE4FD7F2B127E
:0B67B60049B29002F5E0900063F02271
:106699009002F9EFF0900065E06F604D9002F9E02B
:1066A90024C3601514601A14601F14602424047034
:1066B900297BFF7A4E7954801E7BFF7A4E7964805C
:1066C900167BFF7A4E7975800E7BFF7A4E7985802D
:1066D900067BFF7A4E7996123A49E4FD7F2C1249DE
:0A66E900B29002F9E0900065F02283
:1062E7009002F7EFF0900064E06F7003026384C2DE
:1062F700969002F7E024BAB40900507290631175C2
:10630700F003A4C58325F0C5837302632C026334AD
:1063170002633C02634402634C02635402635C02FF
:10632700636402636C7BFF7A4E79A6803E7BFF7ABB
:106337004E79B680367BFF7A4E79C7802E7BFF7AFF
:106347004E79D780267BFF7A4E79E8801E7BFF7ACD
:106357004E79F880167BFF7A4F7909800E7BFF7A9A
:106367004F791980067BFF7A4F792A123A49E4FD63
:0E6377007F2D1249B29002F7E0900064F022F0
:1066F3009002F5EFF0900066E06F6044D29690024E
:10670300F5E024CD601214601714601C240370217B
:106713007BFF7A4F793A80167BFF7A4F794B800E55
:106723007BFF7A4F795E80067BFF7A4F7971123A4D
:1067330049E4FD7F2E1249B29002F5E0900066F025
:016743002233
:045BBA007D347F3E79
:105BBE009002F7EFF0A3EDF024CE6033146045248D
:105BCE00FE601804705C900066E024CE60091460DC
:105BDE000824FE704D803C803A803C900066E024A4
:105BEE00CE6008146007147039802C802A802490AF
:105BFE000066E024CD600B24FE600504702480173F
:105C0E008011800F900066E024CE600F24FD6007A7
:105C1E0004700F7D9C80067D6480027D647F2E1251
:105C2E0049B29002F7E0FF126699D296126624905E
:105C3E0002F8E024CD6034146055146077240360BC
:105C4E0003025CF1900066E024CC6015146017240A
:105C5E00026003025CF120A5FD30A5FD20A5FD80AC
:105C6E007520A5FD807020A5FD806B900066E02458
:105C7E00CC60121460142403706920A5FD30A5FDBC
:105C8E0020A5FD805120A5FD804C20A5FD804790CC
:105C9E000066E024CD600D24FE600E2403704420C7
:105CAE00A5FD803220A5FD802D20A5FD30A5FD206F
:105CBE00A5FD8022900066E024CD600C14600E24B9
:105CCE0002702020A5FD800E20A5FD800920A5FDD7
:105CDE0030A5FD20A5FD90027DE0FEA3E0FF7D1521
:105CEE0012662AE4FD7F2E1249B29002F8E090006F
:035CFE0066F0222B
:0941FB00900294EFF0A3EDF0FB3B
:10420400A31233D80000000090029A1233D80000A1
:10421400FFFFE490029EF0A3F0A3F0900066E0FF9D
:104224006B70030242C2900295E024CD601C1460BE
:104234002E1460432403706EEF24CC6009146008CC
:1042440024027062802D803E8040900066E024CC81
:1042540060091460082403704D803E802D802790EF
:104264000066E024CD600A24FE60082403703780D1
:104274001980137D9C8024900066E024CD600B148B
:104284006017240270207D6480027D9C7F2E124979
:10429400B290029F7401F0800D7D647F2E1249B2AA
:1042A40090029F7402F0E52624E8FFE5253403FE1E
:1042B400E43524FDE43523FC90029A1233CC9000BB
:1042C40064E0FF900294E0FE6F6016EEC39F50041A
:1042D4007D6480027D9C7F2D1249B290029E02442F
:1042E4008290005FE0700990005EE070030244BBBE
:1042F40090029EE0FB6401600302441A900294E081
:1043040024BAB40900400302444E90431C75F003E0
:10431400A4C58325F0C5837302433702434B02438C
:104324006602437902438F0243A20243B80243CB9D
:104334000243E6C2967D147F147E0012662A30A4DE
:104344000302444E0243F4C2967D147F147E00128D
:10435400662A900064E06446602F30A50302444E50
:10436400807BC2967D147F147E0012662A30A503DA
:1043740002444E807BC2967D147F147E0012662A0E
:1043840030A50630A60302444E8052C2967D147FA7
:10439400147E0012662A30A60302444E8052C2964E
:1043A4007D147F147E0012662A30A60630A703020D
:1043B400444E8029C2967D147F147E0012662A30F2
:1043C400A70302444E8029C2967D147F147E0012F6
:1043D400662A30A708900064E0644E706D9002660F
:1043E4008011D2967D147F147E0012662A20A45A6E
:1043F400900264E0FEA3E0FFEF2526FFEE3525FEE4
:10440400E43524FDE43523FC9002961233CC90026B
:104414009E7402F08034EBB40230AF26AE25AD2496
:10442400AC23900296E0F8A3E0F9A3E0FAA3E0FB42
:10443400D31233BB5014E4FD7F2D1249B2E4900231
:104444009EF0900294E0900064F0AF26AE25AD2477
:10445400AC2390029AE0F8A3E0F9A3E0FAA3E0FB0E
:10446400D31233BB40030242E590029FE0602CD29A
:10447400967D147F147E0012662A30A507A374016A
:10448400F00242E59002A0E0640160030242E5907C
:10449400029FE014F0E4A3F00242E5E4FD7F2E1253
:1044A40049B290029A1233D80000FFFF900295E0BF
:0744B400900066F00242E5F2
:0144BB0022DE
:0B3E6100900294EFF0A3EDF0A3EBF053
:103E6C00A31233D80000000090029B1233D800003C
:103E7C00FFFFE490029FF0A3F0A3F0C21090006645
:103E8C00E0FF6B7003023F2C900296E024CD601C87
:103E9C0014602E1460432403706EEF24CC6009145C
:103EAC00600824027062802D803E8040900066E0A5
:103EBC0024CC60091460082403704D803E802D8052
:103ECC0027900066E024CD600A24FE60082403706D
:103EDC0037801980137D9C8024900066E024CD608F
:103EEC000B146017240270207D6480027D9C7F2E51
:103EFC001249B29002A07401F0800D7D647F2E12E5
:103F0C0049B29002A07402F0E52624E8FFE52534BE
:103F1C0003FEE43524FDE43523FC90029B1233CCE4
:103F2C00900064E0FF900295E0FE6F6016EEC39F78
:103F3C0050047D6480027D9C7F2D1249B290029FBB
:103F4C000241C190005FE0700F90005EE07009903C
:103F5C00029FE070030241FA90029FE024FE70037E
:103F6C000240AB1470030240E414700302410614C7
:103F7C00700302415D2404600302418D900295E0C0
:103F8C0024BAB40900400302418D903FA475F0039C
:103F9C00A4C58325F0C58373023FBF023FD3023F04
:103FAC00EF02400302401902402C024042024055ED
:103FBC00024073C2967D147F147E0012662A30A4D0
:103FCC000302418D024084C2967D147F147E001240
:103FDC00662A900064E06446603130A50302418D8E
:103FEC0002406EC2967D147F147E0012662A30A5A4
:103FFC000302418D024084C2967D147F147E001210
:10400C00662A30A50630A60302418D8055C2967DE6
:10401C00147F147E0012662A30A60302418D80584C
:10402C00C2967D147F147E0012662A30A60630A735
:10403C000302418D802CC2967D147F147E00126683
:10404C002A30A70302418D802FC2967D147F147EE7
:10405C000012662A30A70B900064E0644E600302E5
:10406C00418D9002668014D2967D147F147E0012CE
:10407C00662A30A40302418D900264E0FEA3E0FFA7
:10408C00EF2526FFEE3525FEE43524FDE43523FC33
:10409C009002971233CC90029F7402F002418DAFC4
:1040AC0026AE25AD24AC23900297E0F8A3E0F9A34B
:1040BC00E0FAA3E0FBD31233BB400302418DE4FDD5
:1040CC007F2D1249B2E490029FF07403F090029598
:1040DC00E0900064F002418D900294E0B440047DC5
:1040EC009C8009900294E0B43C077D647F2C1249BB
:1040FC00B290029F7404F002418D900294E0FBB4E4
:10410C00402420B621900268E0FFEF2526FFE4351D
:10411C0025FEE43524FDE43523FC9002971233CCC4
:10412C0090029F7405F0EB643C705620B5539002DE
:10413C0068E0FFEF2526FFE43525FEE43524FDE499
:10414C003523FC9002971233CC90029F7405F080BB
:10415C0030AF26AE25AD24AC23900297E0F8A3E057
:10416C00F9A3E0FAA3E0FBD31233BB5014E4FD7FB8
:10417C002C1249B2E490029FF0900294E0900065FA
:10418C00F0AF26AE25AD24AC2390029BE0F8A3E063
:10419C00F9A3E0FAA3E0FBD31233BB4003023F4F79
:1041AC009002A0E0602CD2967D147F147E001266E3
:1041BC002A30A507A37401F0023F4F9002A1E064DE
:1041CC00016003023F4F9002A0E014F0E4A3F00260
:1041DC003F4FE4FD7F2E1249B290029B1233D80060
:0E41EC0000FFFF900296E0900066F0023F4F49
:0141FA0022A2
:10652E00E4F09002ECE0FFA3E09002F6F09002EEB1
:10653E00E09002F7F09002EFE09002F8F09002F097
:10654E00E09002F9F09002F1E09002FAF09002F27F
:10655E00E09002FBF09002F3E09002FCF0A3748254
:01656E00F03C
:05656F009002F5EFF0C1
:10657400E0FF90031E7401F0A37402F0A374F6F01C
:10658400800CEE6482601DEEC39F5002AF06900340
:106594001EE0FBA3E475F0011232C9A9F0FA12312E
:0465A40069FE80DE2E
:0165A80022D0
:0558C200EF14FD7F2D35
:1058C7009002F6EDF09002F5EFF0642F60030259B5
:1058D700F9A3E0B408004003025A449058E9F828B5
:1058E700287302590102591E02593B02595702599E
:1058F700730259950259B70259D9900065E0B4402F
:1059070009A3E064347003025A44900066E0B4359A
:1059170003125BBA0259F4900065E0B43F09A3E0B3
:1059270064347003025A44900066E0B43503125B96
:10593700BA0259D5900065E0B43D09A3E06434701C
:1059470003025A44900066E0B43503125BBA805CE8
:10595700900065E0B43C09A3E064347003025A4444
:10596700900066E0B43503125BBA801E900065E0D4
:10597700B43C09A3E064357003025A44900066E022
:10598700B434077D357F3E125BBE7F3C806190005B
:1059970065E0B43D09A3E064357003025A44900002
:1059A70066E0B434077D357F3E125BBE7F3D803FA6
:1059B700900065E0B43F09A3E064357003025A44E0
:1059C700900066E0B434077D357F3E125BBE7F3FB3
:1059D700801D900065E0B44006A3E06435605E90EA
:1059E7000066E0B434077D357F3E125BBE7F400220
:1059F70066999002F5E0642D7043A3E014600F14DC
:105A0700601014601114601224047012801B7F4808
:105A170080287F4A80247F4C80207F4E801C900204
:105A2700F6E0C36480948050047F46800D9002F6B0
:0E5A3700E0D36480948540057F4E1262E72222
:105F63009002F7EBF0A3EAF0A3E9F09002F5EFF06B
:105F7300A3EDF07BFF7A4F7985900300E4F0A3EF64
:105F8300F0EDFFA3E4F0A3EFF0123A499002F7E03B
:105F9300FBA3E0FAA3E0F99002F5E0F58275830034
:105FA300123182FD3395E0FC9002F5E075F005A413
:105FB300FF9002FAE0FBA3E0FAA3E02FF9EA35F041
:105FC300FAE92DF9EA3CFA123169FDC0059002F7AE
:105FD300E0FBA3E0FAA3E0F99002F6E0F582758313
:105FE30000123182FF3395E0FEEF24FFFDEE34FF14
:105FF300FC9002F6E075F005A4FF9002FAE0FBA323
:10600300E0FAA3E02FF9EA35F0FAE92DF9EA3CFAD0
:10601300D0E01231E29002F7E0FBA3E0FAA3E0F94B
:106023009002F5E0F582758300123182FD3395E02D
:10603300FC9002F5E075F005A4FF9002FAE0FBA3E3
:10604300E0FAA3E02FF9EA35F0FAE92DF9EA3CFA90
:10605300E41231E29002F7E0FBA3E0FAA3E0F99047
:1060630002F5E0F58275830074011231AF9002F6F8
:0B607300E0F58275830074FF0231AF7E
:105202007F3C1266997F40126699AF26AE25AD2487
:10521200AC2390035D1233CC7F3C1266997F40121F
:10522200669990035DE0F8A3E0F9A3E0FAA3E0FB3E
:10523200C3E5269BFFE5259AFEE52499FDE5239823
:10524200FC90035D1233CC90035DE0FCA3E0FDA370
:10525200E0FEA3E0FFE4122D60E4FBFAF9783F12CE
:105262002C5A122D9E90035D1233CC90035DE0FC0C
:10527200A3E0FDA3E0FEA3E0FFE4122D60E4FBFA4D
:10528200F9783F122C5A122D9E900273EEF0A3EF82
:10529200F0900271EEF0A3EFF090035DE0FCA3E06A
:1052A200FDA3E0FEA3E0FFE4122D60E4FBFA7940E7
:1052B200783F122C5A122D9E900279EEF0A3EFF055
:1052C20090035DE0FCA3E0FDA3E0FEA3E0FFE41297
:1052D2002D607B4E7A627910783F122C5A122D9EE5
:1052E20090027BEEF0A3EFF090035DE0FCA3E0FD03
:1052F200A3E0FEA3E0FFE4122D607B7B7A1479AE7B
:10530200783E122C5A122D9E900269EEF0A3EFF015
:1053120090035DE0FCA3E0FDA3E0FEA3E0FFE41246
:105322002D607B8C7A4A798A783E122C5A122D9EF5
:1053320090026FEEF0A3EFF090035DE0FCA3E0FDBE
:10534200A3E0FEA3E0FFE4122D607B377A89794166
:10535200783E122C5A122D9E90026BEEF0A3EFF0C3
:1053620090035DE0FCA3E0FDA3E0FEA3E0FFE412F6
:105372002D607BCD7ACC794C783E122C5A122D9E20
:1053820090026DEEF0A3EFF090035DE0FCA3E0FD70
:10539200A3E0FEA3E0FFE4122D60E4FBFAF9783FFC
:1053A200122C5A122D9E900275EEF0A3EFF0A3EE8E
:0453B200F0A3EFF085
:0153B60022D4
:06001E009002941233CCA5
:100024007E007F287D007B017A02799C12345B7EFE
:10003400007F287D007B017A0279C412345B7E0044
:100044007F087D057B017A0279EC12345B7B807A30
:100054009679987800900294E0FCA3E0FDA3E0FE7A
:10006400A3E0FF12331BE47B0AFAF9F812331B9066
:10007400029DEBF07B407A42790F7800900294E085
:10008400FCA3E0FDA3E0FEA3E0FF12331BE47B0A24
:10009400FAF9F812331B90029EEBF07BA07A867972
:1000A400017800900294E0FCA3E0FDA3E0FEA3E04D
:1000B400FF12331BE47B0AFAF9F812331B90029FF8
:1000C400EBF0E47B107A27F9F8900294E0FCA3E0CB
:1000D400FDA3E0FEA3E0FF12331BE47B0AFAF9F868
:1000E40012331B9002A0EBF0E47BE87A03F9F8905A
:1000F4000294E0FCA3E0FDA3E0FEA3E0FF12331BA7
:10010400E47B0AFAF9F812331B9002B1EBF0E47BBA
:1001140064FAF9F8900294E0FCA3E0FDA3E0FEA3E6
:10012400E0FF12331BE47B0AFAF9F812331B900246
:10013400B2EBF0E47B0AFAF9F8900294E0FCA3E055
:10014400FDA3E0FEA3E0FF12331BE47B0AFAF9F8F7
:1001540012331B9002B3EBF0E47B0AFAF9F8900235
:1001640094E0FCA3E0FDA3E0FEA3E0FF12331B90A8
:1001740002B4EBF07B807A9679987800900298E04C
:10018400FCA3E0FDA3E0FEA3E0FF12331BE47B0A23
:10019400FAF9F812331B9002ACEBF07B407A427907
:1001A4000F7800900298E0FCA3E0FDA3E0FEA3E03A
:1001B400FF12331BE47B0AFAF9F812331B9002ADE9
:1001C400EBF07BA07A8679017800900298E0FCA39A
:1001D400E0FDA3E0FEA3E0FF12331BE47B0AFAF97F
:1001E400F812331B9002AEEBF0E47B107A27F9F897
:1001F400900298E0FCA3E0FDA3E0FEA3E0FF12332D
:100204001BE47B0AFAF9F812331B9002AFEBF0E41B
:100214007BE87A03F9F8900298E0FCA3E0FDA3E000
:10022400FEA3E0FF12331BE47B0AFAF9F812331B36
:100234009002C0EBF0E47B64FAF9F8900298E0FCD9
:10024400A3E0FDA3E0FEA3E0FF12331BE47B0AFA64
:10025400F9F812331B9002C1EBF0E47B0AFAF9F8C7
:10026400900298E0FCA3E0FDA3E0FEA3E0FF1233BC
:100274001BE47B0AFAF9F812331B9002C2EBF0E498
:100284007B0AFAF9F8900298E0FCA3E0FDA3E0FEF3
:10029400A3E0FF12331B9002C3EBF07B807A9679C4
:1002A400987800900298E0FCA3E0FDA3E0FEA3E0B0
:1002B400FF12331BE47B0AFAF9F812331B9000682F
:1002C400EBF07B407A42790F7800900298E0FCA32F
:1002D400E0FDA3E0FEA3E0FF12331BE47B0AFAF97E
:1002E400F812331B900069EBF07BA07A86790178D1
:1002F40000900298E0FCA3E0FDA3E0FEA3E0FF125F
:10030400331BE47B0AFAF9F812331B90006AEBF012
:10031400E47B107A27F9F8900298E0FCA3E0FDA3AF
:10032400E0FEA3E0FF12331BE47B0AFAF9F8123370
:100334001B90006BEBF0E47BE87A03F9F8900298E9
:10034400E0FCA3E0FDA3E0FEA3E0FF12331BE47B8B
:100354000AFAF9F812331B90006DEBF0E47B64FAAF
:10036400F9F8900298E0FCA3E0FDA3E0FEA3E0FF0F
:1003740012331BE47B0AFAF9F812331B90006EEB7C
:10038400F0E47B0AFAF9F8900298E0FCA3E0FDA3FC
:10039400E0FEA3E0FF12331BE47B0AFAF9F8123300
:1003A4001B90006FEBF0E47B0AFAF9F8900298E0F6
:1003B400FCA3E0FDA3E0FEA3E0FF12331B9000705A
:1003C400EBF09002D47401F0A304F0A304F0A304AE
:1003D400F09002E804F0A304F0A304F0A304F09066
:1003E40002F47401F09002F4E0FFD3940440030299
:1003F40006E5749C2FF582E43402F583E0FF900255
:10040400ACE0FEEFB506259002F4E0FF249CF582F3
:10041400E43402F583E060149002D4E0FE74C42F47
:10042400F582E43402F583EEF00205709002F4E004
:10043400FF249CF582E43402F583E0FE9002ADE0F3
:10044400FDEEB50513749C2FF582E43402F583E0C8
:1004540060069002D502055F9002F4E0FF249CF54B
:1004640082E43402F583E0FE9002AEE0FDEEB505D1
:1004740013749C2FF582E43402F583E06006900245
:10048400D602055F9002F4E0FF249CF582E4340276
:10049400F583E0FE9002AFE0FDEEB50513749C2FEA
:1004A400F582E43402F583E060069002D702055F2A
:1004B4009002F4E0FF249CF582E43402F583E0FE2C
:1004C4009002C0E0FDEEB50513749C2FF582E43470
:1004D40002F583E060069002E802055F9002F4E012
:1004E400FF249CF582E43402F583E0FE9002C1E02F
:1004F400FDEEB50512749C2FF582E43402F583E019
:1005040060059002E980549002F4E0FF249CF58297
:10051400E43402F583E0FE9002C2E0FDEEB505127C
:10052400749C2FF582E43402F583E060059002EABE
:1005340080299002F4E0FF249CF582E43402F583E0
:10054400E0FE9002C3E0FDEEB50521749C2FF58218
:10055400E43402F583E060149002EBE0FF9002F4CF
:10056400E024C4F582E43402F583EFF09002F4E071
:10057400FF24B0F582E43402F583E0FE9002ACE09F
:10058400FDEEB5051374B02FF582E43402F583E073
:1005940060069002D40206CB9002F4E0FF24B0F58A
:1005A40082E43402F583E0FE9002ADE0FDEEB50591
:1005B4001374B02FF582E43402F583E060069002F0
:1005C400D50206CB9002F4E0FF24B0F582E43402B5
:1005D400F583E0FE9002AEE0FDEEB5051374B02F96
:1005E400F582E43402F583E060069002D60206CB7D
:1005F4009002F4E0FF24B0F582E43402F583E0FED7
:100604009002AFE0FDEEB5051374B02FF582E4342B
:1006140002F583E060069002D70206CB9002F4E074
:10062400FF24B0F582E43402F583E0FE9002C0E0DA
:10063400FDEEB5051374B02FF582E43402F583E0C2
:1006440060069002E80206CB9002F4E0FF24B0F5C5
:1006540082E43402F583E0FE9002C1E0FDEEB505CC
:100664001274B02FF582E43402F583E06005900241
:10067400E980549002F4E0FF24B0F582E43402F5FA
:1006840083E0FE9002C2E0FDEEB5051274B02FF5D2
:1006940082E43402F583E060059002EA8029900246
:1006A400F4E0FF24B0F582E43402F583E0FE900226
:1006B400C3E0FDEEB5052174B02FF582E43402F5F4
:1006C40083E060149002EBE0FF9002F4E024D8F59C
:1006D40082E43402F583EFF09002F4E004F00203C4
:1006E400E97E007F287D007B017A02799C12345BCD
:1006F4009002F47401F09002F4E0FF24C4F582E463
:100704003402F583E0FE749C2FF582E43402F58311
:10071400EEF09002F4E0FF24D8F582E43402F5838D
:10072400E0FE74B02FF582E43402F583EEF090021B
:10073400F4E004F0E0B405BE9002F47401F0900219
:10074400F4E0FFD39404502074C42FF582E43402FF
:10075400F583E4F074D82FF582E43402F583E4F0F1
:100764009002F4E004F080D69002F07401F090025C
:10077400ECF0E49002F4F09002D4E0FF9002ACE0DC
:100784006F600302080E9002D5E0FF9002ADE06FA7
:1007940070789002D6E0FF9002AEE06F706C900229
:1007A400D7E0FF9002AFE06F70609002E8E0FF9046
:1007B40002C0E06F70549002E9E0FF9002C1E06F64
:1007C40070489002EAE0FF9002C2E06F703C900231
:1007D400EBE0FF9002C3E06F7030900066E0B43449
:1007E400207F511267867F461262E77D077F2F12B2
:1007F40058C79002F3E0FD7F2D1258C77F5012674F
:10080400869000717401F0A3F022900066E06434D5
:100814006003020D089002F4E004F0E0C394644025
:100824000B12652E1258C27F351266F39002EDE06A
:10083400FFC36480948550429002EFE0FD3395E05D
:10084400FC74D22DF58274023CF583E0FEEFFD3397
:1008540095E0FC74A12DF58274023CF583E0B506A5
:10086400199002FA7401F0A37402F0A3749CF07B53
:10087400017A0279EC7D03020BFA9002EEE0FFC3E9
:10088400648094855040A3E0FD3395E0FC74D22D40
:10089400F58274023CF583E0FEEFFD3395E0FC74D1
:1008A400A62DF58274023CF583E0B506199002FA90
:1008B4007401F0A37402F0A3749CF07B017A0279B2
:1008C400EC7D03020C4B9002ECE0FFC36480948542
:1008D40040030209609002EFE0FD3395E0FC74D21E
:1008E4002DF58274023CF583E0FEEFFD3395E0FCC8
:1008F400749C2DF58274023CF583E0B506199002D0
:10090400FA7401F0A37402F0A3749CF07B017A02E0
:1009140079EC7D03020B919002F3E0FF3395E0FE46
:1009240074E62FF58274023EF583E0FF9002ECE05A
:10093400FD3395E0FC749C2DF58274023CF583E054
:10094400B507199002FA7401F0A37402F0A3749C21
:10095400F07B017A0279EC7D07020B919002ECE0C6
:10096400FFC3648094854003020B96EF3395E0FE49
:10097400749C2FF58274023EF583E0FD9002D4E06E
:10098400FCED6C604B749C2FF58274023EF583E0A1
:10099400FF9002D5E0FEEF6E60369002ECE0FF338C
:1009A40095E0FE749C2FF58274023EF583E0FD9081
:1009B40002D6E0FCED6C6018749C2FF58274023E44
:1009C400F583E0FF9002D7E0FEEF6E6003020A8039
:1009D4009002EDE0FF64056029EF3395E0FE74A119
:1009E4002FF58274023EF583E0FF9002ECE0FD33C4
:1009F40095E0FC749C2DF58274023CF583E0D39F52
:100A040040249002EDE0D36480948240199002FA6D
:100A14007401F0A37402F0A3749CF07B017A027950
:100A2400EC7D01020B919002EEE0FF64056029EF7A
:100A34003395E0FE74A62FF58274023EF583E0FF41
:100A44009002ECE0FD3395E0FC749C2DF582740279
:100A54003CF583E0D39F40249002EEE0D36480947D
:100A64008240199002FA7401F0A37402F0A3749CFA
:100A7400F07B017A0279EC7D02020B919002ECE0AA
:100A8400FF3395E0FE749C2FF58274023EF583E0FB
:100A9400FD9002E8E0FCED6C604B749C2FF58274D1
:100AA400023EF583E0FF9002E9E0FEEF6E603690CF
:100AB40002ECE0FF3395E0FE749C2FF58274023E55
:100AC400F583E0FD9002EAE0FCED6C6018749C2F65
:100AD400F58274023EF583E0FF9002EBE0FEEF6ED8
:100AE4006003020B969002F1E0FF64056029EF3386
:100AF40095E0FE74B52FF58274023EF583E0FF9015
:100B040002ECE0FD3395E0FC749C2DF58274023C0C
:100B1400F583E0D39F40239002F1E0D36480948274
:100B240040189002FA7401F0A37402F0A3749CF0CC
:100B34007B017A0279EC7D0580539002F2E0FF6438
:100B4400056029EF3395E0FE74BA2FF58274023EF6
:100B5400F583E0FF9002ECE0FD3395E0FC749C2DFE
:100B6400F58274023CF583E0D39F40269002F2E0C4
:100B7400D364809482401B9002FA7401F0A374023F
:100B8400F0A3749CF07B017A0279EC7D06E4FF0209
:100B940012139002EDE0FFC3648094854003020CBD
:100BA40050A3E0FEC3648094854003020C50EEFD24
:100BB4003395E0FC74A62DF58274023CF583E0FEC7
:100BC400EFFD3395E0FC74A12DF58274023CF583AE
:100BD400E0D39E40269002EEE0D364809481401BD3
:100BE4009002FA7401F0A37402F0A3749CF07B01E8
:100BF4007A0279EC7D027F010212139002EDE0FF8C
:100C0400FD3395E0FC74A12DF58274023CF583E07C
:100C1400FE9002EEE0FD3395E0FC74A62DF582749F
:100C2400023CF583E0D39E4023D3EF64809481405B
:100C34001B9002FA7401F0A37402F0A3749CF07B7D
:100C4400017A0279EC7D017F020212139002EDE039
:100C5400FFC3648094854003020D08A3E0C364804D
:100C640094854003020D089002ECE0FE64809481B8
:100C74004042EEFD3395E0FC749C2DF58274023CF9
:100C8400F583E0FEEFFD3395E0FC74A12DF582744D
:100C9400023CF583E0D39E401B9002FA7401F0A35A
:100CA4007402F0A3749CF07B017A0279ECE4FD7F7A
:100CB400010212139002ECE0FFD36480948140445B
:100CC400EF3395E0FE749C2FF58274023EF583E0C9
:100CD400FF9002EEE0FD3395E0FC74A62DF58274DE
:100CE400023CF583E0D39F401B9002FA7401F0A309
:100CF4007402F0A3749CF07B017A0279ECE4FD7F2A
:100D040002021213900066E06435600302077B90D0
:100D140002F4E004F0E0C39464400B12652E125810
:100D2400C27F341266F39002F1E0FFC364809485BD
:100D340050449002F3E0FD3395E0FC74E62DF58217
:100D440074023CF583E0FEEFFD3395E0FC74B52DB1
:100D5400F58274023CF583E0B5061B9002FA740137
:100D6400F0A37402F0A3749CF07B017A0279EC7D09
:100D7400077F050212139002F2E0FFC3648094859A
:100D84005042A3E0FD3395E0FC74E62DF582740235
:100D94003CF583E0FEEFFD3395E0FC74BA2DF5825B
:100DA40074023CF583E0B5061B9002FA7401F0A3CB
:100DB4007402F0A3749CF07B017A0279EC7D077FC6
:100DC400060212139002F0E0FFC36480948540038E
:100DD400020E629002F3E0FD3395E0FC74E62DF51B
:100DE4008274023CF583E0FEEFFD3395E0FC74B0C1
:100DF4002DF58274023CF583E0B5061B9002FA746B
:100E040001F0A37402F0A3749CF07B017A0279ECE4
:100E14007D077F040212139002EFE0FF3395E0FE9A
:100E240074D22FF58274023EF583E0FF9002F0E065
:100E3400FD3395E0FC74B02DF58274023CF583E03B
:100E4400B5071B9002FA7401F0A37402F0A3749C1A
:100E5400F07B017A0279EC7D037F04021213900285
:100E6400F0E0FFC364809485400302109FEF339544
:100E7400E0FE74B02FF58274023EF583E0FD90022B
:100E8400E8E0FCED6C604B74B02FF58274023EF523
:100E940083E0FF9002E9E0FEEF6E60369002F0E03E
:100EA400FF3395E0FE74B02FF58274023EF583E0C3
:100EB400FD9002EAE0FCED6C601874B02FF58274CA
:100EC400023EF583E0FF9002EBE0FEEF6E6003026A
:100ED4000F869002F1E0FF64056029EF3395E0FE90
:100EE40074B52FF58274023EF583E0FF9002F0E0C2
:100EF400FD3395E0FC74B02DF58274023CF583E07B
:100F0400D39F40269002F1E0D364809482401B90EA
:100F140002FA7401F0A37402F0A3749CF07B017ACA
:100F24000279EC7D057F040212139002F2E0FF6463
:100F3400056029EF3395E0FE74BA2FF58274023E02
:100F4400F583E0FF9002F0E0FD3395E0FC74B02DF2
:100F5400F58274023CF583E0D39F40269002F2E0D0
:100F6400D364809482401B9002FA7401F0A374024B
:100F7400F0A3749CF07B017A0279EC7D067F040275
:100F840012139002F0E0FF3395E0FE74B02FF58267
:100F940074023EF583E0FD9002D4E0FCED6C604BFE
:100FA40074B02FF58274023EF583E0FF9002D5E021
:100FB400FEEF6E60369002F0E0FF3395E0FE74B011
:100FC4002FF58274023EF583E0FD9002D6E0FCED3D
:100FD4006C601874B02FF58274023EF583E0FF90C4
:100FE40002D7E0FEEF6E600302109F9002EDE0FF77
:100FF40064056029EF3395E0FE74A12FF582740235
:101004003EF583E0FF9002F0E0FD3395E0FC74B020
:101014002DF58274023CF583E0D39F40269002EDC7
:10102400E0D364809482401B9002FA7401F0A374AC
:1010340002F0A3749CF07B017A0279EC7D017F04B9
:101044000212139002EEE0FF64056029EF3395E08D
:10105400FE74A62FF58274023EF583E0FF9002F041
:10106400E0FD3395E0FC74B02DF58274023CF58309
:10107400E0D39F40269002EEE0D364809482401B2C
:101084009002FA7401F0A37402F0A3749CF07B0143
:101094007A0279EC7D027F040212139002F1E0FFE0
:1010A400C3648094854003021159A3E0FEC36480A5
:1010B40094854003021159EEFD3395E0FC74BA2D7A
:1010C400F58274023CF583E0FEEFFD3395E0FC7499
:1010D400B52DF58274023CF583E0D39E4026900240
:1010E400F2E0D364809481401B9002FA7401F0A36F
:1010F4007402F0A3749CF07B017A0279EC7D067F84
:10110400050212139002F1E0FFFD3395E0FC74B583
:101114002DF58274023CF583E0FE9002F2E0FD338B
:1011240095E0FC74BA2DF58274023CF583E0D39EFD
:101134004023D3EF64809481401B9002FA7401F041
:10114400A37402F0A3749CF07B017A0279EC7D0510
:101154007F060212139002F1E0FFC364809485407D
:101164000302077BA3E0C364809485400302077BEA
:101174009002F0E0FE648094814041EEFD3395E0FE
:10118400FC74B02DF58274023CF583E0FEEFFD3370
:1011940095E0FC74B52DF58274023CF583E0D39E92
:1011A400401A9002FA7401F0A37402F0A3749CF044
:1011B4007B017A0279EC7D047F0580539002F0E094
:1011C400FFD364809481500302077BEF3395E0FEE4
:1011D40074B02FF58274023EF583E0FF9002F2E0D2
:1011E400FD3395E0FC74BA2DF58274023CF583E07E
:1011F400D39F500302077B9002FA7401F0A3740298
:10120400F0A3749CF07B017A0279EC7D047F0612D2
:051214005F6302077B8F
:0949A900900295E0F404FD7F2862
:1049B2009002FAEDF0D3648094E440057464F080D0
:1049C2000E9002FAE0C36480941C5003749CF0EFD2
:1049D20024D8B407004003024BE69049EA75F0037D
:1049E200A4C58325F0C583730249FF024A46024AE1
:1049F20084024AF9024B32024B6B024BA99002FA33
:104A0200E0FF900060E0B5070122900060EFF090B7
:104A120002FAE0FB7003024AAFD3EB648094804059
:104A220009D2DE9002FAE0024AAF9002FAE0FFC336
:104A3200648094804003024BE6D2DE12698F1269D1
:104A42000BD295229002FAE0FF900061E0B50701D7
:104A520022900061EFF09002FAE0FB7002806AD3CC
:104A6200EB648094804008D2DE9002FAE0805A9093
:104A720002FAE0FFC3648094804003024BE6D2DE78
:104A8200806C9002FAE0FF900060E0B50706A3E0B8
:104A9200B5070122900061EFF0900060F09002FAF9
:104AA200E0FB7010C2DEFF1268F1C292E4FF1269ED
:104AB2000BC29522D3EB648094804014D2DE900224
:104AC200FAE0FF12690BC295E0FF1268F1C292226E
:104AD2009002FAE0FFC3648094804003024BE6D266
:104AE200DE12698F12690BD2959002FAE0FF126909
:104AF2008F1268F1D292229002FAE0FF90005CE0FD
:104B0200B507012290005CEFF09002FAE0FF70041A
:104B1200D2978070D3EF648094804005D297024B85
:104B2200A4C3EF648094804003024BE6D297806373
:104B32009002FAE0FF90005DE0B507012290005D6F
:104B4200EFF09002FAE0FF7004D2978075D3EF6421
:104B52008094804005D297024BE2C3EF6480948038
:104B62004003024BE6D29780689002FAE0FF900081
:104B72005EE0B507012290005EEFF09002FAE0FFDE
:104B82007007C297C2A0D2A122D3EF648094804062
:104B920007C297C2A0C2A122C3EF6480948050448E
:104BA200C297D2A0C2A1229002FAE0FF90005FE079
:104BB200B507012290005FEFF09002FAE0FF700764
:104BC200C297C2A2D2A322D3EF648094804007C2CC
:104BD20097C2A2C2A322C3EF648094805006C297F8
:054BE200D2A2C2A322D3
:05556600900295EDF03C
:10556B00A3EFF0900296E0700302570D20870330F3
:10557B00802430862130851E30841BA2828283508A
:10558B0015308112900299740BF0900295E0FD7F1B
:10559B002A1249B280CD900299E0B40B0B740CF037
:1055AB00900296E014F080BB900295E0900298F088
:1055BB00900297F0308527208224A3E0FF75F00A34
:1055CB0084FEC3EF9EF0900297E0FFC374649FFFCD
:1055DB00E49400FE7C007D0A123228E02FF030822A
:1055EB0029208526900298E0FFC374649FFFE49402
:1055FB0000FE7C007D0A123228E02FF0900297E02B
:10560B00FF75F00A84FEC3EF9EF0308633208130A5
:10561B00900298E0FF75F00A8475F003A4FEC3EFC7
:10562B009EF0900297E0FFC374649FFFE49400FE2A
:10563B007C007D0A123228EF75F003A4FFE02FF0F7
:10564B00308133208630900298E0FFC374649FFF53
:10565B00E49400FE7C007D0A123228EF75F003A45F
:10566B00FFE02FF0900297E0FF75F00A8475F003CE
:10567B00A4FEC3EF9EF0308733208030900298E079
:10568B00FF75F00A8475F005A4FEC3EF9EF090023F
:10569B0097E0FFC374649FFFE49400FE7C007D0AD7
:1056AB00123228EF75F005A4FFE02FF03080332085
:1056BB008730900298E0FFC374649FFFE49400FE70
:1056CB007C007D0A123228EF75F005A4FFE02FF065
:1056DB00900297E0FF75F00A8475F005A4FEC3EF06
:1056EB009EF0900297E0FD7F291249B2900298E05C
:1056FB00FD7F281249B27D157F017E0012662A02BA
:09570B00556E7D287F2802502014
:1065A900900295EDF0EF24A6601D24FE604614606C
:1065B9002824027059900295E0FD7F281249B29073
:1065C9000295E0F40480071249A9900295E0FD7F45
:1065D900291249B290027F802B900295E0FD7F2815
:1065E9001249B2900295E0F404FD7F291249B29054
:1065F900028380101249A9900295E0FD7F29124972
:10660900B2900283E0FEA3E0FF7D1512662A208581
:0B661900FD2082FAE4FD7F2A0249B256
:0550200090029AEDF082
:10502500EF75F00AA4FFEF2526FFE5F03525FEE430
:105035003524FDE43523FC9000491233CCAF26AE70
:1050450025AD24AC23900049E0F8A3E0F9A3E0FAEC
:10505500A3E0FBD31233BB50030251FB90029AE04D
:1050650090029CF090029BF0308738208035A3E0B9
:10507500FCE4122D6A7433FBFAF9783F122C5A12AC
:105085002D9E90029CEFF090029BE0FCE4122D6AAD
:105095007B667A6679A6783F122C5A122D9E90026D
:1050A5009BEFF030803A20873790029CE0FCE412B9
:1050B5002D6A7B667A6679A6783F122C5A122D9E48
:1050C50090029CEFF090029BE0FCE4122D6A743391
:1050D500FBFAF9783F122C5A122D9E90029BEFF0A5
:1050E50030863B20813890029CE0FCE4122D6A7BDF
:1050F500CD7ACC794C783F122C5A122D9E90029C79
:10510500EFF090029BE0FCE4122D6A7B9A7A997984
:1051150099783F122C5A122D9E90029BEFF0308108
:105125003B20863890029CE0FCE4122D6A7B9A7A3B
:10513500997999783F122C5A122D9E90029CEFF086
:1051450090029BE0FCE4122D6A7BCD7ACC794C78F9
:105155003F122C5A122D9E90029BEFF030853A207B
:10516500823790029CE0FCE4122D6A7466FBFAF922
:10517500783F122C5A122D9E90029CEFF090029BC4
:10518500E0FCE4122D6A7BCD7ACC798C783F122C29
:105195005A122D9E90029BEFF030823A208537906F
:1051A500029CE0FCE4122D6A7BCD7ACC798C783FA9
:1051B500122C5A122D9E90029CEFF090029BE0FC5F
:1051C500E4122D6A7466FBFAF9783F122C5A122DF7
:1051D5009E90029BEFF090029BE0FD7F291249B261
:1051E50090029CE0FD7F281249B27D157F017E006B
:0D51F50012662A025042E4FD7F2A0249B2F0
:1062440020872B20862830842530832220811F201C
:10625400801C3085032082062085132082107D1542
:106264007F0A7E0012662AE4FD7F2A0249B2208456
:106274000B7D0C7F281249B27DF4800C20830E7DA7
:10628400F47F281249B27D0C7F291249B230820E64
:1062940020850B7D087F281249B27DF8800F308558
:1062A4001120820E7DF87F281249B27D087F2912C1
:1062B40049B220860330870B7DF07F281249B27DD6
:1062C40010800F20810330800E7D107F281249B288
:1062D4007DF07F291249B27D157F647E0012662A03
:0362E4000262440F
:10571400900045E0FF3395E0FEC3E49FFDE49EFC6A
:025724007F28DC
:1057260090032DECF0A3EDF0D39464EC64809480A8
:10573600400B90032DE4F0A37464F08018C390032B
:105746002EE0949C90032DE06480947F500774FFB4
:10575600F0A3749CF0EF24D7606C147003025825F4
:10576600240260030258C1900060E0FF3395E0FE1A
:1057760090032DE0FCA3E0FDB50705ECB50601227C
:10578600900060EDF090032DE0FAA3E0FB4A700371
:1057960002586ED3EB9400EA64809480400AD2DE0D
:1057A60090032DA3E002586E90032DE0FEA3E0FFC8
:1057B600C3EE6480948040030258C1D2DE12698F22
:1057C60012690BD29522900061E0FF3395E0FE90BE
:1057D600032DE0FCA3E0FDB50705ECB5060122901C
:1057E6000061EDF090032DE0FAA3E0FB4A7003029E
:1057F6005892D3EB9400EA64809480400AD2DE90FB
:10580600032DA3E002589290032DE0FEA3E0FFC310
:10581600EE6480948040030258C1D2DE0258B990EB
:105826000060E0FF3395E0FE90032DE0FCA3E0FD71
:10583600B50716ECB50612900061E0FF3395E0FE61
:10584600EDB50705ECB5060122AF05900061EFF056
:10585600900060F090032DE0FAA3E0FB4A7010C2BE
:10586600DEFF1268F1C292E4FF12690BC29522D3E1
:10587600EB9400EA648094804019D2DE90032DA355
:10588600E0FF12690BC29590032DA3E0FF1268F1A9
:10589600C2922290032DE0FEA3E0FFC3EE64809443
:1058A600805018D2DE12698F12690BD29590032DA3
:0C58B600A3E0FF12698F1268F1D2922269
:10348700900041E0FBA3E0FAA3E0F9123169249C24
:10349700603F1470030237E01470030236EC24E433
:1034A70060030239DDE4FDFC7F2A125726900047AE
:1034B700740CF07E007F407D007B017A0079011259
:1034C700345B9000417401F0A37400F0A37401F021
:1034D70022900041E0FBA3E0FAA3E0F9900001127B
:1034E700318270030236DA2087033080233086204A
:1034F70030851D30841AA282828350143081119046
:103507000048740BF0900044E0FD3395E00236E686
:10351700900048E0B40B16740CF0900041E0FBA358
:10352700E0FAA3E0F990000174FF0231AF90004484
:10353700E0FF3395E0F51A8F1BF5188F19308539A1
:10354700208236E5192415FFE43518FE7C007D0A34
:1035570012327DC3E5199FF519E5189EF518C37456
:1035670063951BFFE4951AFE7C007D0A12327DEFFE
:10357700251BF51BEE351AF51A308239208536C31F
:1035870074639519FFE49518FE7C007D0A12327D5D
:10359700EF2519F519EE3518F518E51B2415FFE485
:1035A700351AFE7C007D0A12327DC3E51B9FF51B91
:1035B700E51A9EF51A308643208140E5192415FF48
:1035C700E43518FE7C007D031232167D0A12327D27
:1035D700C3E5199FF519E5189EF518C37463951B84
:1035E700FFE4951AFE7C007D031232167D0A123223
:1035F7007DEF251BF51BEE351AF51A308143208622
:1036070040C374639519FFE49518FE7C007D03128F
:1036170032167D0A12327DEF2519F519EE3518F5A8
:1036270018E51B2415FFE4351AFE7C007D031232D2
:10363700167D0A12327DC3E51B9FF51BE51A9EF521
:103647001A308743208040E5192415FFE43518FE1A
:103657007C007D051232167D0A12327DC3E5199F63
:10366700F519E5189EF518C37463951BFFE4951AC1
:10367700FE7C007D051232167D0A12327DEF251B76
:10368700F51BEE351AF51A2080030239CB20874047
:10369700C374639519FFE49518FE7C007D0512320B
:1036A700167D0A12327DEF2519F519EE3518F51832
:1036B700E51B2415FFE4351AFE7C007D0512321642
:1036C7007D0A12327DC3E51B9FF51BE51A9EF51A8D
:1036D7000239CB900042E475F0021232B3E4FDFCEC
:1036E7007F2A0239DAE5221470030237B314700314
:1036F7000237D5240260030239DD900041E0FBA3C5
:10370700E0FAA3E0F990000112318224A6602D248B
:10371700FE606714603C240260030237B0900045E6
:10372700E0FD3395E0FC7F28125726900045E0FF27
:103737003395E0FEC3E49FFDE49E800B125714907F
:103747000045E0FD3395E0FC7F2912572690028162
:10375700803C900045E0FD3395E0FC7F281257261A
:10376700900045E0FF3395E0FEC3E49FFDE49EFC37
:103777007F2912572690028580141257149000450E
:10378700E0FD3395E0FC7F29125726900285E0FE85
:10379700A3E0FFEF2526FFEE3525FEE43524FDE403
:1037A7003523FC9000491233CC052222AF26AE25E3
:1037B700AD24AC23900049E0F8A3E0F9A3E0FAA315
:1037C700E0FBD31233BB40030239DD0522222085FB
:1037D7006B2082030239DD8063E5221460420460B6
:1037E700030239DD900041E0FBA3E0FAA3E0F99082
:1037F7000001123182FF3395E0FE7C007D0A123210
:1038070016EE3395E0FDFCEF2526FFEE3525FEEDA0
:103817003524FDEC3523FC9000491233CC052222D8
:10382700AF26AE25AD24AC23900049E0F8A3E0F91C
:10383700A3E0FAA3E0FBD31233BB5020E4FDFC7FE7
:103847002A125726900042E475F0021232B3900014
:10385700491233D800000000E4F52222900046E028
:10386700FF3395E0F51A8F1BF5188F19308736202F
:103877008033AC18AD19EC122D657433FBFAF97867
:103887003F122C5A122D9E8E188F19AC1AAD1BECB5
:10389700122D657B667A6679A6783F122C5A122D0F
:1038A7009E8E1A8F1B308036208733AC18AD19ECEB
:1038B700122D657B667A6679A6783F122C5A122DEF
:1038C7009E8E188F19AC1AAD1BEC122D657433FB45
:1038D700FAF9783F122C5A122D9E8E1A8F1B3086BA
:1038E70037208134AC18AD19EC122D657BCD7ACC1D
:1038F700794C783F122C5A122D9E8E188F19AC1ABC
:10390700AD1BEC122D657B9A7A997999783F122C29
:103917005A122D9E8E1A8F1B308137208634AC1891
:10392700AD19EC122D657B9A7A997999783F122C0B
:103937005A122D9E8E188F19AC1AAD1BEC122D65DD
:103947007BCD7ACC794C783F122C5A122D9E8E1A49
:103957008F1B308536208233AC18AD19EC122D65DC
:103967007466FBFAF9783F122C5A122D9E8E188F27
:1039770019AC1AAD1BEC122D657BCD7ACC798C78FE
:103987003F122C5A122D9E8E1A8F1B30823620859D
:1039970033AC18AD19EC122D657BCD7ACC798C78C8
:1039A7003F122C5A122D9E8E188F19AC1AAD1BEC94
:1039B700122D657466FBFAF9783F122C5A122D9E68
:1039C7008E1A8F1BAD1BAC1A7F29125726AD19AC67
:0639D700187F281257269C
:0139DD0022C7
:0B64AB0090032FEFF0A3EDF0A3EBF047
:1064B600E4FF90035A04F0A37403F0A3743280132C
:1064C600EE64826025AD070F74012DF582E4340079
:1064D600F583EEF090035AE0FBA3E475F001123267
:1064E600C9A9F0FA123169FE80D674012FF582E44B
:1064F6003400F5837482F0900048740CF0900041EB
:106506007401F0A37400F0A37401F090032FE090DF
:106516000044F0900330E0900045F0900331E090A5
:076526000046F0A3740BF026
:01652D00224B
:106964001266247E007F407D007B017A007901025B
:02697400345B92
:0A44BC00900294EFF0900296EBF0EE
:1044C600E0FF900294E0FE75F054A424BAF582E56C
:1044D600F03400F58375F006ED123409EFF0900222
:1044E6009BE0FF900299E075F054A424BAF582E5AA
:1044F600F03400F583C083C08290029AE0D082D067
:104506008375F006123409EFF09002A0E0FF9002E6
:104516009EE075F054A424BAF582E5F03400F583E4
:10452600C083C08290029FE0D082D08375F00612CD
:104536003409EFF09002A5E0FF9002A3E075F05475
:10454600A424BAF582E5F03400F583C083C08290D6
:1045560002A4E0D082D08375F006123409EFF09001
:1045660002A8E090025EF0900297E0FF75F054EE2C
:10457600A424BBF582E5F03400F58375F006ED1250
:104586003409EFF090029CE0FF900299E075F05438
:10459600A424BBF582E5F03400F583C083C0829085
:1045A600029AE0D082D08375F006123409EFF090BB
:1045B60002A1E0FF90029EE075F054A424BBF582B0
:1045C600E5F03400F583C083C08290029FE0D0827C
:1045D600D08375F006123409EFF09002A6E0FF9042
:1045E60002A3E075F054A424BBF582E5F03400F58F
:1045F60083C083C0829002A4E0D082D08375F00687
:10460600123409EFF09002A9E090025FF07F01906A
:104616000296E0B50705900298802E90029BE0B5C1
:10462600070590029D80229002A0E0B50705900242
:10463600A280169002A5E0B507059002A7800A9011
:1046460002A8E0B507159002AAE0FEEF75F00BA4EC
:104656002474F582E43400F583EEF00FEF640670FF
:10466600AE900158740CF090015BF090015AF090F6
:104676000159F09001ACF09001AFF09001AEF090CE
:1046860001ADF0900200F0900203F0900202F0906B
:104696000201F09002AAE0FFB434119002A9E0FEF4
:1046A600B435028023EE64347028800CEFB43522D2
:1046B6009002A9E0FFB4350C900107740CF090024B
:1046C60056F0800EEFB4340A900106740CF0900296
:1046D60057F09001A6740CF09001A9F09001A8F093
:1046E6009001A7F0900294E0FF9002971253B890C1
:1046F6000299E0FFA3E090029C1253B790029EE05D
:10470600FFA3E09002A11253B79002A3E0FFA3E03B
:10471600FD9002A61253B8900161740CF0900167E7
:10472600F090016DF09001B4F09001BAF09001C0E4
:10473600F090016BF09001BFF090015EF09001B235
:01474600F082
:01474700224F
:0953B700FDE0FBA3E09002AEF062
:1053C000EB643360030254919002AEE06434705B8E
:1053D00075F054EFA424B9F582E5F03400F5837537
:1053E000F006ED123409740CF075F054EFA4240C9F
:1053F000F582E5F03401F58375F006ED1234097499
:105400000CF075F054EFA424B3F582E5F03400F508
:105410008375F006ED123409740CF075F054EFA4A6
:105420002406F582E5F034010255599002AEE0649D
:1054300035600302556575F054EFA424B9F582E593
:10544000F03400F58375F006ED123409740CF07534
:10545000F054EFA42464F582E5F03400F58375F090
:1054600006ED123409740CF075F054EFA424B3F572
:1054700082E5F03400F58375F006ED123409740C02
:10548000F075F054EFA4245EF582E5F03400025587
:1054900059EB643260030255659002AEE0FE64345D
:1054A000705A75F054EFA424B8F582E5F03400F595
:1054B0008375F006ED123409740CF075F054EFA406
:1054C0002465F582E5F03400F58375F006ED1234BD
:1054D00009740CF075F054EFA424BEF582E5F034A5
:1054E00000F58375F006ED123409740CF075F05474
:1054F000EFA4246BF582E5F03400805DEE64357036
:105500006475F054EFA424B9F582E5F03400F58316
:1055100075F006ED123409740CF075F054EFA42404
:105520000CF582E5F03401F58375F006ED123409CF
:10553000740CF075F054EFA424BFF582E5F034004C
:10554000F58375F006ED123409740CF075F054EF24
:10555000A42412F582E5F03401F58375F006ED120E
:065560003409740CF02276
:05638500900295EFF00D
:10638A0090005AE090004DF090005BE090004EF0D3
:10639A00900062E0900055F090025EE0B50722A3FB
:1063AA00E0FFB43506E4900287800AEF6434706433
:1063BA009002877404F0A3740DF090028F7432F087
:1063CA0022E4FFE4FE75F054EFA424BAF582E5F066
:1063DA003400F58375F006EE123409E0FD9002955B
:1063EA00E0FCEDB50424900287EFF0A3EEF075F01F
:1063FA0054EFA424BBF582E5F03400F58375F0066A
:10640A00EE123409E090028FF0220EEEB40DB60FB0
:04641A00EFB405AF27
:01641E00225B
:045A45007D327F65CA
:105A4900900296EDF0900041E0FBA3E0FAA3E0F9A3
:105A5900123169FE700AEF64657003025BB980193F
:105A6900EF6E6019900042E475F0021232B39000B3
:105A790041E0FBA3E0FAA3E0F9EF1231E290004123
:105A8900E0FBA3E0FAA3E0F9123169249B70030259
:105A99005BA214605C24026003025BB9900296E089
:105AA900FF9000011231AF900055E024CD6012142F
:105AB900602114603024036003025BB990004E80BA
:105AC9002C90004EE0FF900296E0FEC3EF9E9000FE
:105AD9004EF02290004DE0FF900296E0FEC3EF9E4B
:105AE90090004DF022900296E0FF90004DE02FF0DB
:105AF90022900296E0FF900041E0FBA3E0FAA3E0C8
:105B0900F9900001EF1231F4900055E024CD60279F
:105B190014603E14605F24036003025BB9EF24A59F
:105B2900600F14600E14600D24036003025BB980DA
:105B390061803B802E802C900296E024A5600C1495
:105B4900600B14600A2403706780238045803880C5
:105B590036900296E024A5601114601014600F2499
:105B690003704D9000557433F022801B8000900023
:105B7900557435F022900296E024A5601114601046
:105B890014600F240370299000557432F0228002AA
:105B990080009000557434F022900296E0FF900046
:105BA90041E0FBA3E0FAA3E0F9900001EF1231AF65
:015BB90022C9
:0F121900900297EDF0900296EFF0900298EBF0B4
:10122800E490029BF0A3F0C3EF6480F8EB6480982D
:101238004003021A7E900297E0FF900299E0FCEFCB
:101248006480F8EC6480985003021559A3E0643276
:1012580060030213D4AE07900299E0C36480F8EEED
:10126800648098506E900296E0FD900298E0C36406
:1012780080F8ED648098403CEDFB3395E0FA9000EF
:10128800B875F054EB123409EA75F054A42583F5C7
:1012980083EEFB3395E0FA75F006EB123409EA7534
:1012A800F006A42583F583E0B40B0690029CE004C5
:1012B800F01D80B6900298E0FF900296E0C39FFF71
:1012C80090029CE014B50703AF0622E490029CF05C
:1012D8000E8084900297E0FEC3EE64809480406E96
:1012E800900296E0FD900298E0C36480F8ED648077
:1012F80098403CEDFB3395E0FA9000B875F054EB5C
:10130800123409EA75F054A42583F583EEFB33956E
:10131800E0FA75F006EB123409EA75F006A42583A5
:10132800F583E0B40B0690029CE004F01D80B690B3
:101338000298E0FF900296E0C39FFF90029CE014A1
:10134800B50703AF0622E490029CF01E808A900243
:1013580099E0FED3EE6480948C40030222DE900272
:1013680096E0FD900298E0C36480F8ED64809840B0
:101378003CEDFB3395E0FA9000B875F054EB12346D
:1013880009EA75F054A42583F583EEFB3395E0FA5A
:1013980075F006EB123409EA75F006A42583F58387
:1013A800E0B40B0690029CE004F01D80B690029811
:1013B800E0FF900296E0C39FFF90029CE014B507FF
:1013C80003AF0622E490029CF00E808790029AE018
:1013D800643360030222DE900299E0FED3EE64805B
:1013E800948C506E900296E0FD900298E0C3648061
:1013F800F8ED648098403CEDFB3395E0FA9000B836
:1014080075F054EB123409EA75F054A42583F5837A
:10141800EEFB3395E0FA75F006EB123409EA75F045
:1014280006A42583F583E0B40B0690029CE004F043
:101438001D80B6900298E0FF900296E0C39FFF904F
:10144800029CE014B50703AF0622E490029CF00E5C
:10145800808A900297E0FE900299E0C36480F8EEDB
:10146800648098506E900296E0FD900298E0C36404
:1014780080F8ED648098403CEDFB3395E0FA9000ED
:10148800B875F054EB123409EA75F054A42583F5C5
:1014980083EEFB3395E0FA75F006EB123409EA7532
:1014A800F006A42583F583E0B40B0690029CE004C3
:1014B800F01D80B6900298E0FF900296E0C39FFF6F
:1014C80090029CE014B50703AF0622E490029CF05A
:1014D8000E8084900297E0FEC3EE648094805003EF
:1014E8000222DE900296E0FD900298E0C36480F844
:1014F800ED648098403CEDFB3395E0FA9000B875B8
:10150800F054EB123409EA75F054A42583F583EE00
:10151800FB3395E0FA75F006EB123409EA75F0062C
:10152800A42583F583E0B40B0690029CE004F01D2B
:1015380080B6900298E0FF900296E0C39FFF900269
:101548009CE014B50703AF0622E490029CF01E80CD
:1015580087900297E0FF900299E0FCC3EF6480F85F
:10156800EC6480984003021876A3E06432600302BA
:1015780016F1AE04C3EE64809480406E900296E04B
:10158800FD900298E0C36480F8ED648098403CEDDB
:10159800FB3395E0FA9000B875F054EB123409EA81
:1015A80075F054A42583F583EEFB3395E0FA75F0C6
:1015B80006EB123409EA75F006A42583F583E0B436
:1015C8000B0690029CE004F01D80B6900298E0FFA4
:1015D800900296E0C39FFF90029CE014B50703AF0A
:1015E8000622E490029CF01E808A900297E0FE900A
:1015F8000299E0D36480F8EE648098406E90029679
:10160800E0FD900298E0C36480F8ED648098403C67
:10161800EDFB3395E0FA9000B875F054EB123409FD
:10162800EA75F054A42583F583EEFB3395E0FA754B
:10163800F006EB123409EA75F006A42583F583E079
:10164800B40B0690029CE004F01D80B6900298E06E
:10165800FF900296E0C39FFF90029CE014B5070339
:10166800AF0622E490029CF01E8084900297E0FE70
:10167800D3EE6480948C40030222DE900296E0FD53
:10168800900298E0C36480F8ED648098403CEDFBDC
:101698003395E0FA9000B875F054EB123409EA7506
:1016A800F054A42583F583EEFB3395E0FA75F00634
:1016B800EB123409EA75F006A42583F583E0B40B30
:1016C8000690029CE004F01D80B6900298E0FF901E
:1016D8000296E0C39FFF90029CE014B50703AF0693
:1016E80022E490029CF00E808790029AE0643360B6
:1016F800030222DE900297E0FE900299E0D3648014
:10170800F8EE648098406E900296E0FD900298E0B2
:10171800C36480F8ED648098403CEDFB3395E0FAB3
:101728009000B875F054EB123409EA75F054A4250A
:1017380083F583EEFB3395E0FA75F006EB12340976
:10174800EA75F006A42583F583E0B40B0690029CA5
:10175800E004F01D80B6900298E0FF900296E0C386
:101768009FFF90029CE014B50703AF0622E49002A5
:101778009CF01E8084900297E0FED3EE6480948CE7
:10178800506E900296E0FD900298E0C36480F8EDF8
:10179800648098403CEDFB3395E0FA9000B875F012
:1017A80054EB123409EA75F054A42583F583EEFB53
:1017B8003395E0FA75F006EB123409EA75F006A4E1
:1017C8002583F583E0B40B0690029CE004F01D80AD
:1017D800B6900298E0FF900296E0C39FFF90029CAB
:1017E800E014B50703AF0622E490029CF00E808A4D
:1017F800900299E0FEC3EE6480948050030222DEDA
:10180800900296E0FD900298E0C36480F8ED648051
:1018180098403CEDFB3395E0FA9000B875F054EB36
:10182800123409EA75F054A42583F583EEFB339549
:10183800E0FA75F006EB123409EA75F006A4258380
:10184800F583E0B40B0690029CE004F01D80B6908E
:101858000298E0FF900296E0C39FFF90029CE0147C
:10186800B50703AF0622E490029CF01E8087900221
:101878009AE06432600302197A900299E0FEC3EE9E
:1018880064809480406E900296E0FD900298E0C3D8
:101898006480F8ED648098403CEDFB3395E0FA9065
:1018A80000B875F054EB123409EA75F054A4258396
:1018B800F583EEFB3395E0FA75F006EB123409EA8E
:1018C80075F006A42583F583E0B40B0690029CE02E
:1018D80004F01D80B6900298E0FF900296E0C39F46
:1018E800FF90029CE014B507030222C9E490029C11
:1018F800F01E808A900299E0FED3EE6480948C40BA
:10190800030222DE900296E0FD900298E0C3648014
:10191800F8ED648098403CEDFB3395E0FA9000B810
:1019280075F054EB123409EA75F054A42583F58355
:10193800EEFB3395E0FA75F006EB123409EA75F020
:1019480006A42583F583E0B40B0690029CE004F01E
:101958001D80B6900298E0FF900296E0C39FFF902A
:10196800029CE014B507030222C9E490029CF00E21
:10197800808790029AE0643360030222DE90029925
:10198800E0FED3EE6480948C506E900296E0FD9059
:101998000298E0C36480F8ED648098403CEDFB3326
:1019A80095E0FA9000B875F054EB123409EA75F036
:1019B80054A42583F583EEFB3395E0FA75F006EB26
:1019C800123409EA75F006A42583F583E0B40B0602
:1019D80090029CE004F01D80B6900298E0FF90020F
:1019E80096E0C39FFF90029CE014B507030222C94A
:1019F800E490029CF00E808A900299E0FEC3EE64A7
:101A080080948050030222DE900296E0FD900298B6
:101A1800E0C36480F8ED648098403CEDFB3395E0CA
:101A2800FA9000B875F054EB123409EA75F054A432
:101A38002583F583EEFB3395E0FA75F006EB123457
:101A480009EA75F006A42583F583E0B40B06900235
:101A58009CE004F01D80B6900298E0FF900296E0AA
:101A6800C39FFF90029CE014B507030222C9E490CB
:101A7800029CF01E8087900296E0FF900298E0FC9E
:101A8800D3EF6480F8EC64809850030222D6900269
:101A980097E0FF900299E0FCD3EF6480F8EC648053
:101AA800985003021DB3A3E064326003021C2EAEFB
:101AB80007900299E0C36480F8EE648098506E90B5
:101AC8000296E0FD900298E0D36480F8ED64809877
:101AD800503CEDFB3395E0FA9000B975F054EB12E9
:101AE8003409EA75F054A42583F583EEFB3395E0B9
:101AF800FA75F006EB123409EA75F006A42583F5A9
:101B080083E0B40B0690029CE004F00D80B69002CE
:101B180096E0FF900298E0C39FFF90029CE014B506
:101B28000703AF0622E490029CF00E80849002978F
:101B3800E0FEC3EE64809480406E900296E0FD90D3
:101B48000298E0D36480F8ED648098503CEDFB3354
:101B580095E0FA9000B975F054EB123409EA75F083
:101B680054A42583F583EEFB3395E0FA75F006EB74
:101B7800123409EA75F006A42583F583E0B40B0650
:101B880090029CE004F00D80B6900296E0FF90026F
:101B980098E0C39FFF90029CE014B50703AF0622AC
:101BA800E490029CF01E808A900299E0FED3EE64D5
:101BB80080948C40030222DE900296E0FD90029809
:101BC800E0D36480F8ED648098503CEDFB3395E0F9
:101BD800FA9000B975F054EB123409EA75F054A480
:101BE8002583F583EEFB3395E0FA75F006EB1234A6
:101BF80009EA75F006A42583F583E0B40B06900284
:101C08009CE004F00D80B6900296E0FF900298E008
:101C1800C39FFF90029CE014B50703AF0622E4902F
:101C2800029CF00E808790029AE0643360030222DF
:101C3800DE900299E0FED3EE6480948C506E9002A0
:101C480096E0FD900298E0D36480F8ED64809850A7
:101C58003CEDFB3395E0FA9000B975F054EB123483
:101C680009EA75F054A42583F583EEFB3395E0FA71
:101C780075F006EB123409EA75F006A42583F5839E
:101C8800E0B40B0690029CE004F00D80B69002963A
:101C9800E0FF900298E0C39FFF90029CE014B50714
:101CA80003AF0622E490029CF00E808A900297E02F
:101CB800FE900299E0C36480F8EE648098506E90BC
:101CC8000296E0FD900298E0D36480F8ED64809875
:101CD800503CEDFB3395E0FA9000B975F054EB12E7
:101CE8003409EA75F054A42583F583EEFB3395E0B7
:101CF800FA75F006EB123409EA75F006A42583F5A7
:101D080083E0B40B0690029CE004F00D80B69002CC
:101D180096E0FF900298E0C39FFF90029CE014B504
:101D28000703AF0622E490029CF00E80849002978D
:101D3800E0FEC3EE6480948050030222DE90029697
:101D4800E0FD900298E0D36480F8ED648098503C00
:101D5800EDFB3395E0FA9000B975F054EB123409B5
:101D6800EA75F054A42583F583EEFB3395E0FA7504
:101D7800F006EB123409EA75F006A42583F583E032
:101D8800B40B0690029CE004F00D80B6900296E039
:101D9800FF900298E0C39FFF90029CE014B50703F0
:101DA800AF0622E490029CF01E8087900297E0FF25
:101DB800900299E0FCC3EF6480F8EC6480984003DB
:101DC8000220D0A3E064326003021F4BAE04C3EECE
:101DD80064809480406E900296E0FD900298E0D373
:101DE8006480F8ED648098503CEDFB3395E0FA9000
:101DF80000B975F054EB123409EA75F054A4258340
:101E0800F583EEFB3395E0FA75F006EB123409EA38
:101E180075F006A42583F583E0B40B0690029CE0D8
:101E280004F00D80B6900296E0FF900298E0C39F00
:101E3800FF90029CE014B50703AF0622E490029CD1
:101E4800F01E808A900297E0FE900299E0D36480A9
:101E5800F8EE648098406E900296E0FD900298E05B
:101E6800D36480F8ED648098503CEDFB3395E0FA3C
:101E78009000B975F054EB123409EA75F054A425B2
:101E880083F583EEFB3395E0FA75F006EB1234091F
:101E9800EA75F006A42583F583E0B40B0690029C4E
:101EA800E004F00D80B6900296E0FF900298E0C33F
:101EB8009FFF90029CE014B50703AF0622E490024E
:101EC8009CF01E8084900297E0FED3EE6480948C90
:101ED80040030222DE900296E0FD900298E0D3646F
:101EE80080F8ED648098503CEDFB3395E0FA900063
:101EF800B975F054EB123409EA75F054A42583F54A
:101F080083EEFB3395E0FA75F006EB123409EA75B7
:101F1800F006A42583F583E0B40B0690029CE00448
:101F2800F00D80B6900296E0FF900298E0C39FFF04
:101F380090029CE014B50703AF0622E490029CF0DF
:101F48000E808790029AE0643360030222DE9002DA
:101F580097E0FE900299E0D36480F8EE64809840A0
:101F68006E900296E0FD900298E0D36480F8ED64EC
:101F78008098503CEDFB3395E0FA9000B975F05429
:101F8800EB123409EA75F054A42583F583EEFB338C
:101F980095E0FA75F006EB123409EA75F006A42507
:101FA80083F583E0B40B0690029CE004F00D80B644
:101FB800900296E0FF900298E0C39FFF90029CE099
:101FC80014B50703AF0622E490029CF01E808490AB
:101FD8000297E0FED3EE6480948C506E900296E0F7
:101FE800FD900298E0D36480F8ED648098503CED51
:101FF800FB3395E0FA9000B975F054EB123409EA16
:1020080075F054A42583F583EEFB3395E0FA75F05B
:1020180006EB123409EA75F006A42583F583E0B4CB
:102028000B0690029CE004F00D80B6900296E0FF4B
:10203800900298E0C39FFF90029CE014B50703AF9D
:102048000622E490029CF00E808A900299E0FEC37A
:10205800EE6480948050030222DE900296E0FD90A8
:102068000298E0D36480F8ED648098503CEDFB332F
:1020780095E0FA9000B975F054EB123409EA75F05E
:1020880054A42583F583EEFB3395E0FA75F006EB4F
:10209800123409EA75F006A42583F583E0B40B062B
:1020A80090029CE004F00D80B6900296E0FF90024A
:1020B80098E0C39FFF90029CE014B50703AF062287
:1020C800E490029CF01E808790029AE064326003DC
:1020D8000221D4900299E0FEC3EE64809480406EA1
:1020E800900296E0FD900298E0D36480F8ED648059
:1020F80098503CEDFB3395E0FA9000B975F054EB3D
:10210800123409EA75F054A42583F583EEFB339560
:10211800E0FA75F006EB123409EA75F006A4258397
:10212800F583E0B40B0690029CE004F00D80B690B5
:102138000296E0FF900298E0C39FFF90029CE01493
:10214800B507030222C9E490029CF01E808A90021F
:1021580099E0FED3EE6480948C40030222DE900264
:1021680096E0FD900298E0D36480F8ED6480985082
:102178003CEDFB3395E0FA9000B975F054EB12345E
:1021880009EA75F054A42583F583EEFB3395E0FA4C
:1021980075F006EB123409EA75F006A42583F58379
:1021A800E0B40B0690029CE004F00D80B690029615
:1021B800E0FF900298E0C39FFF90029CE014B507EF
:1021C800030222C9E490029CF00E808790029AE0F4
:1021D800643360030222DE900299E0FED3EE64804D
:1021E800948C506D900296E0FD900298E0D3648044
:1021F800F8ED648098503CEDFB3395E0FA9000B917
:1022080075F054EB123409EA75F054A42583F5836C
:10221800EEFB3395E0FA75F006EB123409EA75F037
:1022280006A42583F583E0B40B0690029CE004F035
:102238000D80B6900296E0FF900298E0C39FFF9051
:10224800029CE014B507028078E490029CF00E80AE
:102258008B900299E0FEC3EE6480948040789002EF
:1022680096E0FD900298E0D36480F8ED6480985081
:102278003CEDFB3395E0FA9000B975F054EB12345D
:1022880009EA75F054A42583F583EEFB3395E0FA4B
:1022980075F006EB123409EA75F006A42583F58378
:1022A800E0B40B0690029CE004F00D80B690029614
:1022B800E0FF900298E0C39FFF90029CE014B507EE
:1022C80005EE2428FF22E490029CF01E80889002EC
:0822D80099E02414FF227FFFAE
:0122E00022DB
:1022E10090004DE0FFA3E0FD900287E0FBA3E090AA
:1022F1000299F090028FE090029AF0121219900266
:1023010095EFF07BFF7A4F7990900000E004F0FDAB
:10231100900300E4F0A3EDF090004DE0FC3395E074
:10232100900302F0A3CCF090004EE0FC3395E090D6
:102331000304F0A3CCF0900287E0FC3395E0900316
:1023410006F0A3CCF0900288E0FC3395E0900308FE
:10235100F0A3CCF0EF3395E0A3F0A3EFF0123A49EC
:10236100900295E0FFC3648094804007EF648094FD
:10237100944015C3EF648094A8500302286BEF6466
:102381008094BC400302286BC3EF648094A8400E84
:10239100EF648094BC5007900295E024D8F090003F
:1023A1004EE0FF900295E0FE6F70030225D5D3EF5A
:1023B1006480F8EE64809850030224A2900055E0F6
:1023C100FF64327003022497EF24CC70030224844B
:1023D10014700302248B240260030225D590004D62
:1023E100E0FFFD3395E0FC9000B875F054ED123438
:1023F10009EC75F054A42583F583C083C082900055
:102401004EE0FEFD3395E0FCD082D08375F006ED01
:10241100123409EC75F006A42583F583E0640B60A2
:1024210009EF6402700BEEB40C07125A457D5D8012
:102431005E90004DE0FF3395E0FE9000B975F054D9
:10244100EF123409EE75F054A42583F583C083C0DF
:102451008290004EE0FF3395E0FED082D08375F08C
:1024610006EF123409EE75F006A42583F583E0B476
:102471000B07125A457D5C80167D017F64125A4913
:102481000223DE125A457D5B8005125A457D5A7F33
:1024910066125A49800090004EE0FF900295022595
:1024A100CC90004EE0FF900295E0FEC3EF6480F80F
:1024B100EE64809840030225D5900055E0FF643317
:1024C10070030225C4EF24CC700302259C14700311
:1024D1000225B0240360030225D590004DE0FFFDE5
:1024E1003395E0FC9000B875F054ED123409EC75A9
:1024F100F054A42583F583C083C08290004EE0FE92
:10250100FD3395E0FCD082D08375F006ED123409DD
:10251100EC75F006A42583F583E0640B6009EF6494
:10252100027019EEB40C15125A457D5C7F66125A81
:1025310049900295E0FF90004E0225CC90004DE0BD
:10254100FF3395E0FE9000B975F054EF123409EEB7
:1025510075F054A42583F583C083C08290004EE0BA
:10256100FF3395E0FED082D08375F006EF12340977
:10257100EE75F006A42583F583E0B40B14125A45D9
:102581007D5D7F66125A49900295E0FF90004E8072
:102591003A7D017F64125A490224DB125A457D5A61
:1025A1007F66125A49900295E0FF90004E801C12FE
:1025B1005A457D5B7F66125A49900295E0FF900073
:1025C1004E8008900295E0FF90004EE0C39FFD7F92
:1025D10064125A4990004DE0FF900287E0FED3EF6C
:1025E1006480F8EE6480984014125A45900055E0DA
:1025F100FCB43202802FEC64337031802090004DA6
:10260100E0FF900287E0FEC3EF6480F8EE648098FB
:10261100501A125A45900055E0FCB432047D5A809C
:1026210006ECB433077D5B7F66125A4990004DE09A
:10263100FF900287E0FED3EF6480F8EE648098405B
:1026410004EE9F801890004DE0FF900287E0FEC3EA
:10265100EF6480F8EE6480985009C3EF9EFD7F64BB
:10266100125A4990004EE0FF900288E0FED3EF64D9
:1026710080F8EE6480984014125A45900055E0FCB1
:10268100B43402802FEC64357031802090004EE02C
:10269100FF900288E0FEC3EF6480F8EE64809850FA
:1026A1001A125A45900055E0FCB434047D5A800654
:1026B100ECB435077D5B7F66125A4990004EE0FF0E
:1026C100900288E0FED3EF6480F8EE6480984004C5
:1026D100EE9F801890004EE0FF900288E0FEC3EF6D
:1026E1006480F8EE6480985009C3EF9EFD7F641208
:1026F1005A4990028FE0FF900055E0FE6F7003028F
:102701002C50EF643260030227AFEE6433600302A2
:1027110027AF7D017F64125A49125A4590004DE05E
:10272100FC700302285AECB4040302282090004DE7
:10273100E0FF3395E0FE9000B875F054EF123409D4
:10274100EE75F054A42583F583C083C08290004EBA
:10275100E0FCFF3395E0FED082D08375F006EF12E6
:102761003409EE75F006A42583F583E0B40B03026A
:10277100285A90004DE0FF3395E0FE9000B975F0C6
:1027810054EF123409EE75F054A42583F583ECFF60
:102791003395E0FE75F006EF123409EE75F006A4EC
:1027A1002583F583E0640B6003022C508071900255
:1027B1008FE064336003022C50900055E064326076
:1027C10003022C507D017F64125A49125A45900030
:1027D1004DE0FC70028048ECB40402807C90004D16
:1027E100E0FF3395E0FE9000B875F054EF12340924
:1027F100EE75F054A42583F583C083C08290004E0A
:10280100E0FCFF3395E0FED082D08375F006EF1235
:102811003409EE75F006A42583F583E0B40B047D3D
:102821005C803890004DE0FF3395E0FE9000B97573
:10283100F054EF123409EE75F054A42583F583ECBE
:10284100FF3395E0FE75F006EF123409EE75F006E0
:10285100A42583F583E0B40B0E7D5D7F66125A4992
:102861007D017F64125A49022C50900295E0FFC30A
:10287100648094945003022C53EF648094A8400325
:10288100022C53E024ECF090004EE0FF900288E02F
:10289100FED3EF6480F8EE64809850030229A9907A
:1028A1000055E06432700302299E125A459000558A
:1028B100E024CC700302297A14700302298C2402CB
:1028C1006003022ADB90004DE0FFFD3395E0FC90B0
:1028D10000B875F054ED123409EC75F054A4258359
:1028E100F583C083C08290004EE0FEFD3395E0FC8D
:1028F100D082D08375F006ED123409EC75F006A490
:102901002583F583E0640B6009EF6402700BEEB47C
:102911000C07125A457D5D804690004DE0FF3395CE
:10292100E0FE9000B975F054EF123409EE75F054E1
:10293100A42583F583C083C08290004EE0FF3395C8
:10294100E0FED082D08375F006EF123409EE75F007
:1029510006A42583F583E0B40B15125A457D5C7FEF
:1029610066125A4990004EE0FF900295022AD27DEC
:10297100017F64125A490228C67D5B7F66125A495B
:1029810090004EE0FF900288022AD27D5A7F6612A3
:102991005A4990004EE0FF900288022AD290004EE0
:1029A100E0FF900288022AD290004EE0FF90028858
:1029B100E0FEC3EF6480F8EE6480984003022ADBF6
:1029C100900055E064337003022ACA125A45900000
:1029D10055E024CC7003022AA8147003022AB924FA
:1029E100036003022ADB90004DE0FFFD3395E0FC1C
:1029F1009000B875F054ED123409EC75F054A4252B
:102A010083F583C083C08290004EE0FEFD3395E0E4
:102A1100FCD082D08375F006ED123409EC75F00616
:102A2100A42583F583E0640B6009EF64027019EE5D
:102A3100B40C15125A457D5C7F66125A4990029575
:102A4100E0FF90004E022AD290004DE0FF3395E066
:102A5100FE9000B975F054EF123409EE75F054A4EC
:102A61002583F583C083C08290004EE0FF3395E05B
:102A7100FED082D08375F006EF123409EE75F006B0
:102A8100A42583F583E0B40B14125A457D5D7F665E
:102A9100125A49900295E0FF90004E80347D017FEB
:102AA10064125A490229E77D5A7F66125A499002F7
:102AB10088E0FF90004E80197D5B7F66125A499035
:102AC1000288E0FF90004E8008900288E0FF9000AD
:102AD1004EE0C39FFD7F64125A4990028FE0FF9040
:102AE1000055E0FE6F7003022C50EF643260030268
:102AF1002B97EE64336003022B977D017F64125A9A
:102B010049125A4590004DE0FC7003022C42ECB48E
:102B11000403022C0890004DE0FF3395E0FE900085
:102B2100B875F054EF123409EE75F054A42583F50D
:102B310083C083C08290004EE0FCFF3395E0FED05D
:102B410082D08375F006EF123409EE75F006A425E4
:102B510083F583E0B40B03022C4290004DE0FF3378
:102B610095E0FE9000B975F054EF123409EE75F05E
:102B710054A42583F583ECFF3395E0FE75F006EF51
:102B8100123409EE75F006A42583F583E0640B6029
:102B910003022C50807190028FE064336003022C99
:102BA10050900055E064326003022C507D017F6437
:102BB100125A49125A4590004DE0FC70028048ECCF
:102BC100B40402807C90004DE0FF3395E0FE90005C
:102BD100B875F054EF123409EE75F054A42583F55D
:102BE10083C083C08290004EE0FCFF3395E0FED0AD
:102BF10082D08375F006EF123409EE75F006A42534
:102C010083F583E0B40B047D5C803890004DE0FFD8
:102C11003395E0FE9000B975F054EF123409EE756A
:102C2100F054A42583F583ECFF3395E0FE75F0069F
:102C3100EF123409EE75F006A42583F583E0B40B99
:102C41000E7D5D7F66125A497D017F64125A4912D9
:082C51005A45900048740CF094
:012C59002258
:10474800900294EFF0900001E0600312689F9000DF
:10475800417401F0A37400F0A37401F0900294E096
:10476800248C700302485A14700302489E24026085
:10477800030248B87F511267867F461262E77F3C82
:10478800126699900066E0643560057F351266F31D
:104798007D3C7F021255667D287F5A1265A97D3CB3
:1047A8007F011255667D287F6402483A30841530AF
:1047B800831220870F20860C2085092082062081FD
:1047C8000330807420870920860620850320831BF8
:1047D8007DE27F2A1249B27D157F2C7E0112662A5E
:1047E8007DEC7F291249B27DE28025208209208153
:1047F800062080032084377DE27F2A1249B27D1586
:104808007F2C7E0112662A7DE27F291249B27DE360
:104818007F281249B27D157F2C7E0112662A7DE21F
:104828007F2A1249B27D157F2C7E0112662A7D28C7
:104838007FC81250200247B4E4FD7F2A1249B29083
:10484800005A7403F0A37401F09000627434F0020B
:1048580049907DE77F2A1249B21266247DD07F29CC
:104868001249B27DEC7F281249B27D167F037E0083
:1048780012662A7DDD7F2A1249B2126624E4FD7F82
:104888002A1249B290005A7404F0E4A3F09000622E
:104898007432F0024990E4900287F0A3F090028FFE
:1048A8007433F01222E17D017F64125A4902495E95
:1048B800900294E02493FF12638590005BE0640DFE
:1048C800600302495B900287E0D36480948250368B
:1048D80090005AE0FC701D900106E0B40B047D5C6A
:1048E8008009900107E0B40B077D5D7F66125A4985
:1048F8007D018006ECB404077D027F64125A49E406
:1049080090004DF08041900287E0C364809483401A
:104918003690005AE0FC70047D028020EC6404703C
:1049280020900257E0B40B047D5D8009900256E0A8
:10493800B40B077D5C7F66125A497D017F64125A69
:104948004990004D7404F090004E740CF09000559E
:104958007433F01222E1900042E475F0021232B38F
:10496800900041E0FBA3E0FAA3E0F974821231E27F
:10497800900287E090004DF0900288E090004EF0A1
:1049880090028FE0900055F09000417401F0A374FC
:1049980000F0A37401F0900047740BF07F200260D0
:0149A8007E90
:10689F0012696490004DE090005AF090004EE09025
:0C68AF00005BF0900055E0900062F022C9
:105E47007F501267861266247F5112678612662476
:105E57007F501267861266247F5112678612662466
:105E67009000657440F07F3C1266991266247F406B
:105E77001266991266247F3C1266991266247F4047
:105E87001266991266247F461262E71266247F48DB
:105E97001262E71266247F4A1262E71266247F4C79
:105EA7001262E71266247F4E1262E71266247F4C65
:105EB7001262E71266247F4A1262E71266247F485D
:105EC7001262E71266247F461262E7900066E0904E
:105ED7000059F09000667432F07F351266F312664F
:105EE700247F321266F31266247F351266F3126638
:105EF700247F321266F3126624900059E090006600
:105F0700F07D3C7F2A1249B2126624E4FD7F2A12F3
:105F170049B21266247DC47F2A1249B2126624E46C
:105F2700FD7F2A1249B21266247D287F291249B2C1
:105F37007DD87F281249B2126624E4FD7F2A1249D0
