:030000000227696B
:0C276900787FE4F6D8FD7581660227B089
:0B2BB90025730A005265616479210059
:0E2BAB00122B6D7D0B7FE87E031228F580F55E
:03000300020006F2
:0100060032C7
:03000B00022B03C2
:102B0300C0E0C0F0C083C082C0D075D008122A22B2
:0B2B1300D0D0D082D083D0F0D0E032D0
:03001B00022B1E97
:102B1E00C0E0C0F0C083C082C0D075D008122BD5E3
:0B2B2E00D0D0D082D083D0F0D0E032B5
:1025F10066756E5F64656C61792825642C64656C11
:102601005F7573293B0A0066756E5F64656C61795D
:102611002825642C64656C5F6D73293B0A0066751F
:102621006E5F64656C61792825642C64656C5F73E9
:10263100293B0A0066756E5F74696D657230696E5B
:10264100697428293B0A0066756E5F74696D65724D
:1026510031696E697428293B0A0066756E5F77617E
:10266100697428293B0A0066756E5F70776D696E23
:10267100697428293B0A00312D2D3E330A00322D81
:102681002D3E330A00302D2D3E330A00302D2D3ED4
:10269100370A00302D2D3E310A00302D2D3E320AF1
:1026A10000302D2D3E350A00302D2D3E360A0031E9
:1026B1002D2D3E320A00322D2D3E310A00312D2DB5
:0B26C1003E300A00322D2D3E300A0092
:1029A1006021006661A800C8003A032014029A025F
:1029B100AC02AC029A01F401F405C8084A084A00C5
:0E29C1001401F407D0041900000000011800F2
:0628EF007D0C7F017E005C
:0428F5008E228F237D
:1028F900852224852325ED24F5600F146014240214
:10290900701F7BFF7A2579F1800E7BFF7A26790883
:1029190080067BFF7A26791F85222985232A1215AD
:01292900AC01
:01292A00228A
:102A6C007BFF7A2679351215AC438E805389F0435F
:0F2A7C008901758A20758CD1C28DD2A9D2AF2263
:102A8B007BFF7A2679481215AC538EBF53890F43BF
:0F2A9B008910758BE0758DB1C28FD2ABD2AF228F
:102A2200758A20758CD1E51C2401F51CE4351BF553
:102A32001BE4351AF51AE43519F519900046E0B48D
:062A420001031210D7226F
:072BD500758BE0758DB12244
:092BC4007BFF7A26795B0215AC57
:102B97007BFF7A2679681215ACE4F5D8F5F9F5E9E3
:042BA70075D90822B2
:102B3900EF75F019A4FFAEF07C007D0A120EE08F4C
:0A2B4900EA8FFA75DA42E4F5F22291
:102B5300EF75F019A4FFAEF07C007D0A120EE08F32
:0A2B6300EB8FFB75DB42E4F5F32273
:0419B9007D647F22A8
:1019BD008D61D3E561648094E44005756164800CAC
:1019CD00C3E5616480941C500375619CEF24E2B4FF
:1019DD0007004003021BB59019F275F003A4C583EF
:1019ED0025F0C58373021A07021A44021A78021AE7
:1019FD00E1021B14021B44021B7D90005FE0B561E8
:101A0D00012290005FE561F0E5617003021A9DD33C
:101A1D00E561648094804006D2DEAF618073C3E5DA
:101A2D0061648094804003021BB5D2DEAF61122B3E
:101A3D00CD122B53D29522900060E0B5610122901A
:101A4D000060E561F0E5617003FF805FD3E56164DF
:101A5D008094804006D2DEAF618050C3E561648022
:101A6D0094804003021BB5D2DE805E90005FE0B52E
:101A7D006106A3E0B5610122AF61900060EFF090C7
:101A8D00005FF0E5617010C2DEFF122B39C292E4E7
:101A9D00FF122B53C29522D3E561648094804011CF
:101AAD00D2DEAF61122B53C295AF61122B39C292A8
:101ABD0022C3E561648094804003021BB5D2DEAF82
:101ACD0061122BCD122B53D295AF61122BCD122B50
:101ADD0039D2922290005BE0B561012290005BE566
:101AED0061F0E5617004D2978061D3E56164809403
:101AFD00804004D2978074C3E56164809480400374
:101B0D00021BB5D297805490005CE0B56101229024
:101B1D00005CE561F0E5617004D2978067D3E56103
:101B2D00648094804004D297807AC3E56164809488
:101B3D00805075D297805D90005DE0B56101229077
:101B4D00005DE561F0E5617007C297C2A0D2A122E8
:101B5D00D3E561648094804007C297C2A0C2A122E0
:101B6D00C3E56164809480503FC297D2A0C2A12288
:101B7D0090005EE0B561012290005EE561F0E561E7
:101B8D007007C297C2A2D2A322D3E561648094806C
:101B9D004007C297C2A2C2A322C3E56164809480AC
:091BAD005006C297D2A2C2A32285
:0924EA00900044E0F404FD7F1EA3
:1024F3008D44D3E544648094E44005754464800CC2
:10250300C3E5446480941C500375449CEF24E1604C
:1025130046146074240260030225F090005FE0B566
:1025230044012290005FE544F0E5447002807ED3CD
:10253300E544648094804006D2DEAF448070C3E5F6
:10254300446480948040030225F0D2DEAF44122B12
:10255300CD122B53D29522900060E0B54401229016
:102563000060E544F0E5447003FF805CD3E5446418
:102573008094804006D2DEAF44804DC3E54464803E
:1025830094805069D2DE805B90005FE0B54406A37F
:10259300E0B5440122AF44900060EFF090005FF09B
:1025A300E5447010C2DEFF122B39C292E4FF122BF6
:1025B30053C29522D3E544648094804011D2DEAFA8
:1025C30044122B53C295AF44122B39C29222C3E556
:1025D30044648094805016D2DEAF44122BCD122B6C
:0E25E30053D295AF44122BCD122B39D2922237
:10292B008F62900062E065626031E562B4470C7DB6
:10293B009C7F211219BD30B30C80FB7D647F21126B
:10294B0019BD20B4FD7D0B7F147E001228F5E4FD2C
:0C295B007F211219BD900062E562F0229D
:1023D5008F63900064E0656370030224E9E563247C
:1023E500CD601F1460591470030224821470030217
:1023F50024C6240460030224DC1219B920B5FD02A9
:1024050024D0900064E024CC601A14602014602667
:10241500240460030224DC7D9C7F221219BD9000F8
:102425006F0224BF1219B99000710224BF1219B9A5
:1024350090007B0224BF1219B990007F0224BF903F
:102445000064E024CD601A24FE6022146027240471
:1024550060030224DC7D9C7F221219BD90007780E9
:10246500597D9C7F221219BD900071804D1219B9BA
:1024750090007380451219B9900079803D900064F1
:10248500E024CD601714602024FE602824047047E2
:102495007D9C7F221219BD90007D801E7D9C7F2230
:1024A5001219BD90007B80127D9C7F221219BD9070
:1024B500007380061219B9900075E0FEA3E0FF8055
:1024C500117D9C7F221219BD20B6FD90006EE0FFA4
:1024D5007E007D0B1228F5E4FD7F221219BD9000C8
:0524E50064E563F02234
:102175008F64900063E0656470030222B8E564240F
:10218500C4B4090040030222AB90219C75F003A45E
:10219500C58325F0C583730221B70221C60221E05C
:1021A5000221FE02221B022238022255022272025D
:1021B50022927D647F231219BDC29620A4FD0222BE
:1021C5009E900063E0FFE564D39F40057D9C02225D
:1021D500887F3E1221757D64022288900063E0FFAE
:1021E500E564C39F50047D6480027D9C7F231219A2
:1021F500BDC29620A5FD02229E900063E0FFE56426
:10220500D39F40097F3E1221757D9C80077F401238
:1022150021757D64806D900063E0FFE564C39F5088
:10222500047D6480027D9C7F231219BDC29620A681
:10223500FD8066900063E0FFE564D39F40097F4021
:102245001221757D9C80077F421221757D64803344
:10225500900063E0FFE564C39F50047D6480027DC8
:102265009C7F231219BDC29620A7FD802C90006388
:10227500E0FFE564D39F40097F421221757D9C8074
:10228500027D647F231219BD90006C800F7D9C7FB9
:10229500231219BDD29620A4FD90006AE0FEA3E0AA
:1022A500FF7D0B1228F5E4FD7F231219BD90006315
:0422B500E564F022CA
:10201D008F65900065E0FF65657003022174D296AF
:10202D00E56524D760581470030220D314700302A1
:10203D00211A24036003022167EF24D66020146067
:10204D002D240260030221677D9C7F241219BD128D
:10205D0028EF20A5FD30A5FD20A5FD02215A7D64A8
:10206D007F241219BD1228EF20A5FD02215A7D9C57
:10207D007F241219BD1228EF20A5FD02215A9000D0
:10208D0065E024D6602014602D24036003022167CF
:10209D007D647F241219BD1228EF20A5FD30A5FD0A
:1020AD0020A5FD02215A7D9C7F241219BD1228EF17
:1020BD0020A5FD02215A7D647F241219BD1228EF3F
:1020CD0020A5FD02215A900065E024D7601B24FE57
:1020DD006026240360030221677D9C7F241219BDB5
:1020ED001228EF20A5FD02215A7D647F241219BD0F
:1020FD001228EF20A5FD80557D9C7F241219BD125D
:10210D0028EF20A5FD30A5FD20A5FD8040900065A0
:10211D00E024D760161460222402703E7D647F2473
:10212D001219BD1228EF20A5FD80227D9C7F24125F
:10213D0019BD1228EF20A5FD80137D647F2412198F
:10214D00BD1228EF20A5FD30A5FD20A5FD90008135
:10215D00E0FEA3E0FF7D0B1228F5E4FD7F241219AC
:08216D00BD900065E565F0225C
:102A4800A905E924D8600A14600924FE60050480F9
:102A5800028000E924D8600A14600824FE60040497
:042A680022222222E2
:1026CC0020872B20862830842530832220811F20D0
:1026DC00801C3085032082062085132082107D0B00
:1026EC007F0A7E001228F5E4FD7F200219BD2086AA
:1026FC000330870B7D107F1E1219BD7DF080562094
:10270C00810330800B7DF07F1E1219BD7D1080453A
:10271C0020840B7DF47F1E1219BD7D0C8037208325
:10272C000B7D0C7F1E1219BD7DF480293082112087
:10273C00850E7DF87F1E1219BD7D087F1F1219BDF5
:10274C002085030226CC3082030226CC7D087F1E16
:0D275C001219BD7DF87F1F1219BD0226CC99
:1010D700900040E0FBA3E0FAA3E0F9120E4324A638
:1010E700603E14700302138F1470030212BD245D57
:1010F7006003021549E4FD7F201224F39000467433
:1011070002F07E007F407D007B017A00790012109B
:10111700AB9000407401F0A37400F0A37400F022B8
:10112700900040E0FBA3E0FAA3E0F9900001120E63
:101137005C70030212AC20870330801F30861C309E
:101147008519308416A2828283501030810D900059
:10115700477401F0900043E00212B7900047E0B4F3
:1011670001167402F0900040E0FBA3E0FAA3E0F957
:1011770090000174FF020E89900043E0F543F542A9
:1011870030872C208029AC42E4120A54E4FBFAF998
:10119700783F120944120A888F42AC43E4120A547A
:1011A700E4FBFA79C0783F120944120A888F43306A
:1011B700802C208729AC42E4120A54E4FBFA79C058
:1011C700783F120944120A888F42AC43E4120A544A
:1011D700E4FBFAF9783F120944120A888F433086F4
:1011E7002E20812BAC42E4120A547433FBFAF978AF
:1011F7003F120944120A888F42AC43E4120A547B17
:10120700667A6679A6783F120944120A888F4330B6
:10121700812E20862BAC42E4120A547B667A6679CB
:10122700A6783F120944120A888F42AC43E4120A97
:10123700547433FBFAF9783F120944120A888F4332
:1012470030852E20822BAC42E4120A547466FBFAD6
:10125700F9783F120944120A888F42AC43E4120A14
:10126700547BCD7ACC798C783F120944120A888F47
:101277004330822E20852BAC42E4120A547BCD7A70
:10128700CC798C783F120944120A888F42AC43E428
:10129700120A547466FBFAF9783F120944120A8855
:1012A7008F4302153B900041E475F002120F35E4BD
:1012B700FD7F20021546E51814700302135F1470B2
:1012C7000302138124026003021549900040E0FBEA
:1012D700A3E0FAA3E0F9900001120E5C24B0601DB0
:1012E70024FE60461460282402706A900044E0FDE2
:1012F7007F1E1224F3900044E0F40480071224EACE
:10130700900044E0FD7F1F1224F3900083802B9010
:101317000044E0FD7F1E1224F3900044E0F404FD36
:101327007F1F1224F390008580101224EA90004456
:10133700E0FD7F1F1224F3900085E0FEA3E0FFEF9E
:10134700251CFFEE351BFEE4351AFDE43519FC902C
:101357000048121038051822AF1CAE1BAD1AAC1985
:10136700900048E0F8A3E0F9A3E0FAA3E0FBD3126A
:101377001027400302154905182220840302154946
:101387002083030215498063E51814604204600353
:10139700021549900040E0FBA3E0FAA3E0F99000B2
:1013A70001120E5CFF3395E0FE7C007D0A120ECE23
:1013B700EE3395E0FDFCEF251CFFEE351BFEED350A
:1013C7001AFDEC3519FC900048121038051822AFA9
:1013D7001CAE1BAD1AAC19900048E0F8A3E0F9A3C6
:1013E700E0FAA3E0FBD3121027501FE4FD7F201281
:1013F70024F3900041E475F002120F359000481273
:10140700104400000000E4F51822900045E0F54381
:10141700F54230872C208029AC42E4120A54E4FBC1
:10142700FAF9783F120944120A888F42AC43E41252
:101437000A54E4FBFA79C0783F120944120A888FEC
:101447004330802C208729AC42E4120A54E4FBFA8B
:1014570079C0783F120944120A888F42AC43E412DC
:101467000A54E4FBFAF9783F120944120A888F43B9
:1014770030862E20812BAC42E4120A547433FBFAD7
:10148700F9783F120944120A888F42AC43E4120AE2
:10149700547B667A6679A6783F120944120A888FC8
:1014A7004330812E20862BAC42E4120A547B667AA5
:1014B7006679A6783F120944120A888F42AC43E442
:1014C700120A547433FBFAF9783F120944120A8856
:1014D7008F4330852E20822BAC42E4120A54746667
:1014E700FBFAF9783F120944120A888F42AC43E4A9
:1014F700120A547BCD7ACC798C783F120944120AB0
:10150700888F4330822E20852BAC42E4120A547B0D
:10151700CD7ACC798C783F120944120A888F42AC75
:1015270043E4120A547466FBFAF9783F120944122D
:101537000A888F43AD437F1F1224F3AD427F1E12EB
:0215470024F38B
:01154900227F
:021D39008D58C3
:101D3B008F59E5597003021EB220870330801E3085
:101D4B00861B308518308415A2828283500F308118
:101D5B000C755C01AD587F201219BD80D5E55CB4C4
:101D6B000107755C02155980C9AF588F5B8F5A30CC
:101D7B00872C208029AC5BE4120A54E4FBFAF97837
:101D8B003F120944120A888F5BAC5AE4120A54E4DE
:101D9B00FBFA79C0783F120944120A888F5A3080B7
:101DAB002C208729AC5BE4120A54E4FBFA79C07847
:101DBB003F120944120A888F5BAC5AE4120A54E4AE
:101DCB00FBFAF9783F120944120A888F5A30862E93
:101DDB0020812BAC5BE4120A547433FBFAF9783F85
:101DEB00120944120A888F5BAC5AE4120A547B66C0
:101DFB007A6679A6783F120944120A888F5A308185
:101E0B002E20862BAC5BE4120A547B667A6679A68D
:101E1B00783F120944120A888F5BAC5AE4120A54B9
:101E2B007433FBFAF9783F120944120A888F5A303F
:101E3B00852E20822BAC5BE4120A547466FBFAF9F4
:101E4B00783F120944120A888F5BAC5AE4120A5489
:101E5B007BCD7ACC798C783F120944120A888F5A41
:101E6B0030822E20852BAC5BE4120A547BCD7ACCCE
:101E7B00798C783F120944120A888F5BAC5AE412B2
:101E8B000A547466FBFAF9783F120944120A888FD8
:101E9B005AAD5A7F1F1219BDAD5B7F1E1219BD7D46
:0E1EAB000B1228F1021D3D7D287F41021BB65F
:102878008D66EF24B0601924FE604114602824029C
:102888007058AD667F1E1219BDE566F404FD800C14
:10289800E566F404FD7F1E1219BDAD667F1F12198F
:1028A800BD900083802AAD667F1E1219BDE566F4CF
:1028B80004FD7F1F1219BD9000858014E566F4049D
:1028C800FD7F1E1219BDAD667F1F1219BD900085D0
:1028D800E0FEA3E0FF7D0B1228F53084FD3083FA7B
:0728E800E4FD7F200219BD91
:021BB6008D1D83
:101BB800EF75F00AA4FFEF251CFFE5F0351BFEE4E6
:101BC800351AFDE43519FC900048121038AF1CAEE8
:101BD8001BAD1AAC19900048E0F8A3E0F9A3E0FAAD
:101BE800A3E0FBD31210275003021D32AF1D8F1F35
:101BF8008F1E30872C208029AC1FE4120A54E4FB86
:101C0800FAF9783F120944120A888F1FAC1EE412B1
:101C18000A54E4FBFA79C0783F120944120A888F03
:101C28001E30802C208729AC1FE4120A54E4FBFAEA
:101C380079C0783F120944120A888F1FAC1EE4123B
:101C48000A54E4FBFAF9783F120944120A888F1EF5
:101C580030862E20812BAC1FE4120A547433FBFA11
:101C6800F9783F120944120A888F1FAC1EE4120A41
:101C7800547B667A6679A6783F120944120A888FDF
:101C88001E30812E20862BAC1FE4120A547B667A04
:101C98006679A6783F120944120A888F1FAC1EE4A1
:101CA800120A547433FBFAF9783F120944120A886D
:101CB8008F1E30852E20822BAC1FE4120A547466C6
:101CC800FBFAF9783F120944120A888F1FAC1EE408
:101CD800120A547BCD7ACC798C783F120944120AC7
:101CE800888F1E30822E20852BAC1FE4120A547B6D
:101CF800CD7ACC798C783F120944120A888F1FACB0
:101D08001EE4120A547466FBFAF9783F1209441269
:101D18000A888F1EAD1E7F1F1219BDAD1F7F1E12B0
:101D280019BD7D0B1228F1021BD5E4FD7F20021995
:011D3800BDED
:0D000E00E4F5C7F5C5F5C675C380F5C4223D
:102AAA0075C78375C5018FC48EC375C65A75C6A509
:0E2ABA007D0A7F0A7E001228F5AFC212000EC0
:012AC80022EB
:102AC90075C78375C5028FC48EC38DC275C65A7505
:0E2AD900C6A57D0A7F0A7E001228F502000EB7
:102AE70075C78375C5038FC48EC375C65A75C6A5CA
:0C2AF7007D0A7F0A7E001228F502000E06
:101EB9007F321223D57F361223D5851C60851B5F9F
:101EC900851A5E85195D7F321223D57F361223D597
:101ED900C3E51C9560F560E51B955FF55FE51A950F
:101EE9005EF55EE519955DF55DAF60AE5FAD5EFCD3
:101EF900E4120A4AE4FBFAF9783F120944120A8803
:101F09008F608E5F8D5E8C5DE4120A4AE4FBFAF9FC
:101F1900783F120944120A88900079EEF0A3EFF095
:101F2900900077EEF0A3EFF0AF60AE5FAD5EAC5D11
:101F3900E4120A4AE4FBFA7940783F120944120A8A
:101F49008890007DEEF0A3EFF0AF60AE5FAD5EACC0
:101F59005DE4120A4A7B4E7A627910783F1209448D
:101F6900120A8890007FEEF0A3EFF0AF60AE5FAD8C
:101F79005EAC5DE4120A4A7B7B7A1479AE783E1234
:101F89000944120A8890006FEEF0A3EFF0AF60AE3B
:101F99005FAD5EAC5DE4120A4A7B8C7A4A798A7835
:101FA9003E120944120A88900075EEF0A3EFF0AFD3
:101FB90060AE5FAD5EAC5DE4120A4A7B377A89791F
:101FC90041783E120944120A88900071EEF0A3EF9D
:101FD900F0AF60AE5FAD5EAC5DE4120A4A7BCD7ACC
:101FE900CC794C783E120944120A88900073EEF0BD
:101FF900A3EFF0AF60AE5FAD5EAC5DE4120A4AE4F8
:10200900FBFAF9783F120944120A8890007BEEF036
:03201900A3EFF042
:01201C0022A1
:102B6D00438780759850438E04759CD9438E0143DD
:052B7D008E10D2992228
:1022B9007F4612292B1228EF7F4712292B1228EF6C
:1022C9007F4612292B1228EF7F4712292B1228EF5C
:1022D9009000647436F07F321223D51228EF7F36CE
:1022E9001223D51228EF7F321223D51228EF7F3619
:1022F9001223D51228EF7F3C1221751228EF7F3E59
:102309001221751228EF7F401221751228EF7F42A2
:102319001221751228EF7F441221751228EF7F428E
:102329001221751228EF7F401221751228EF7F3E86
:102339001221751228EF7F3C122175900065E090FB
:102349000058F09000657428F07F2B12201D122888
:10235900EF7F2812201D1228EF7F2B12201D122833
:10236900EF7F2812201D1228EF900058E090006599
:10237900F07D3C7F201219BD1228EFE4FD7F201269
:1023890019BD1228EF7DC47F201219BD1228EFE470
:10239900FD7F201219BD1228EF7D287F1F1219BD5C
:1023A9007DD87F1E1219BD1228EFE4FD7F20121976
:1023B900BD1228EF7DD87F1F1219BD7D287F1E12FF
:0C23C90019BD1228EFE4FD7F200219BDB1
:022967008F459A
:10296900755500755600755746AB550557E557AA75
:10297900567002055614F9120E43FEEEC39F50021B
:10298900AF06AB550557E557AA567002055614F917
:07299900120E43FEBEFFE435
:0129A0002214
:0100070022D6
:08001E008F138E128D118C105E
:100026007E007F287D007B017A0079941210AB7EDA
:10003600007F287D007B017A0079BC1210AB7E0020
:100046007F087D057B017A0079E41210AB7B807A0C
:100056009679987800AF13AE12AD11AC10120F87D7
:10006600E47B0AFAF9F8120F87900095EBF07B40D3
:100076007A42790F7800AF13AE12AD11AC10120FA1
:1000860087E47B0AFAF9F8120F87900096EBF07B6B
:10009600A07A8679017800AF13AE12AD11AC1012BA
:1000A6000F87E47B0AFAF9F8120F87900097EBF0B6
:1000B600E47B107A27F9F8AF13AE12AD11AC10122B
:1000C6000F87E47B0AFAF9F8120F87900098EBF095
:1000D600E47BE87A03F9F8AF13AE12AD11AC101257
:1000E6000F87E47B0AFAF9F8120F879000A9EBF064
:1000F600E47B64FAF9F8AF13AE12AD11AC10120F2F
:1001060087E47B0AFAF9F8120F879000AAEBF0E46D
:100116007B0AFAF9F8AF13AE12AD11AC10120F87C5
:10012600E47B0AFAF9F8120F879000ABEBF0E47B58
:100136000AFAF9F8AF13AE12AD11AC10120F879090
:1001460000ACEBF07B807A9679987800AF17AE1604
:10015600AD15AC14120F87E47B0AFAF9F8120F8773
:100166009000A4EBF07B407A42790F7800AF17AE8F
:1001760016AD15AC14120F87E47B0AFAF9F8120FC4
:10018600879000A5EBF07BA07A8679017800AF17FF
:10019600AE16AD15AC14120F87E47B0AFAF9F81205
:1001A6000F879000A6EBF0E47B107A27F9F8AF17DB
:1001B600AE16AD15AC14120F87E47B0AFAF9F812E5
:1001C6000F879000A7EBF0E47BE87A03F9F8AF1706
:1001D600AE16AD15AC14120F87E47B0AFAF9F812C5
:1001E6000F879000B8EBF0E47B64FAF9F8AF17AE2E
:1001F60016AD15AC14120F87E47B0AFAF9F8120F44
:10020600879000B9EBF0E47B0AFAF9F8AF17AE165F
:10021600AD15AC14120F87E47B0AFAF9F8120F87B2
:100226009000BAEBF0E47B0AFAF9F8AF17AE16AD18
:1002360015AC14120F879000BBEBF09000CC740144
:10024600F0A304F0A304F0A304F09000E004F0A3EC
:1002560004F0A304F0A304F09000EC7401F0900005
:10026600ECE0FFD39404400302056074942FF582FA
:10027600E43400F583E0FF9000A4E0FEEFB5062528
:100286009000ECE0FF2494F582E43400F583E0600E
:10029600149000CCE0FE74BC2FF582E43400F583A4
:1002A600EEF00203EB9000ECE0FF2494F582E434D8
:1002B60000F583E0FE9000A5E0FDEEB5051374940D
:1002C6002FF582E43400F583E060069000CD02034A
:1002D600DA9000ECE0FF2494F582E43400F583E044
:1002E600FE9000A6E0FDEEB5051374942FF582E4AA
:1002F6003400F583E060069000CE0203DA9000EC4D
:10030600E0FF2494F582E43400F583E0FE9000A734
:10031600E0FDEEB5051374942FF582E43400F58301
:10032600E060069000CF0203DA9000ECE0FF249430
:10033600F582E43400F583E0FE9000B8E0FDEEB50A
:10034600051374942FF582E43400F583E06006907B
:1003560000E00203DA9000ECE0FF2494F582E43436
:1003660000F583E0FE9000B9E0FDEEB50512749449
:100376002FF582E43400F583E060059000E18054B7
:100386009000ECE0FF2494F582E43400F583E0FE6F
:100396009000BAE0FDEEB5051274942FF582E434B0
:1003A60000F583E060059000E280299000ECE0FF14
:1003B6002494F582E43400F583E0FE9000BBE0FD72
:1003C600EEB5052174942FF582E43400F583E060E0
:1003D600149000E3E0FF9000ECE024BCF582E434E6
:1003E60000F583EFF09000ECE0FF24A8F582E434FA
:1003F60000F583E0FE9000A4E0FDEEB5051374A8B9
:100406002FF582E43400F583E060069000CC020507
:10041600469000ECE0FF24A8F582E43400F583E082
:10042600FE9000A5E0FDEEB5051374A82FF582E455
:100436003400F583E060069000CD0205469000EC9E
:10044600E0FF24A8F582E43400F583E0FE9000A6E0
:10045600E0FDEEB5051374A82FF582E43400F583AC
:10046600E060069000CE0205469000ECE0FF24A86E
:10047600F582E43400F583E0FE9000A7E0FDEEB5DA
:10048600051374A82FF582E43400F583E060069026
:1004960000CF0205469000ECE0FF24A8F582E43484
:1004A60000F583E0FE9000B8E0FDEEB5051374A8F4
:1004B6002FF582E43400F583E060069000E0020543
:1004C600469000ECE0FF24A8F582E43400F583E0D2
:1004D600FE9000B9E0FDEEB5051274A82FF582E492
:1004E6003400F583E060059000E180549000ECE074
:1004F600FF24A8F582E43400F583E0FE9000BAE01C
:10050600FDEEB5051274A82FF582E43400F583E0FC
:1005160060059000E280299000ECE0FF24A8F582B7
:10052600E43400F583E0FE9000BBE0FDEEB5052166
:1005360074A82FF582E43400F583E060149000E39C
:10054600E0FF9000ECE024D0F582E43400F583EF80
:10055600F09000ECE004F00202647E007F287D004B
:100566007B017A0079941210AB9000EC7401F09044
:1005760000ECE0FF24BCF582E43400F583E0FE7471
:10058600942FF582E43400F583EEF09000ECE0FF62
:1005960024D0F582E43400F583E0FE74A82FF582BA
:1005A600E43400F583EEF09000ECE004F0E0B405EE
:1005B600BE9000EC7401F09000ECE0FFD394045080
:1005C6002074BC2FF582E43400F583E4F074D02F58
:1005D600F582E43400F583E4F09000ECE004F0806A
:1005E600D69000E87401F09000E4F0900065E064B5
:1005F6002A600302093B9000E5E0FFC394055026FC
:100606009000E7E024CBF582E43400F583E0FE7445
:10061600992FF582E43400F583E0B506097BFF7A6D
:100626002679780209359000E6E0FFC39405502448
:10063600A3E024CBF582E43400F583E0FE749E2F1C
:10064600F582E43400F583E0B506097BFF7A267966
:100656007F0209359000E4E0FFC39405504F9000F7
:10066600E7E024CBF582E43400F583E0FE74942FB2
:10067600F582E43400F583E0B506097BFF7A267936
:10068600860209359000EBE024DFF582E43400F5BC
:1006960083E0FF9000E4E02494F582E43400F583DF
:1006A600E0B507097BFF7A26798D0209359000E4CB
:1006B600E0FFC39405400302085B74942FF582E4BF
:1006C6003400F583E0FF9000CCE0FEEF6E604690CC
:1006D60000E4E0FF2494F582E43400F583E0FE9024
:1006E60000CDE0FDEE6D602D74942FF582E43400AC
:1006F600F583E0FF9000CEE0FEEF6E60189000E418
:10070600E02494F582E43400F583E0FF9000CFE026
:10071600FEEF6E70729000E5E0FF6405601E74994E
:100726002FF582E43400F583E0FF9000E4E02494A2
:10073600F582E43400F583E0D39F40129000E5E0B3
:10074600D3940240097BFF7A2679940209359000FA
:10075600E6E0FF6405601E749E2FF582E43400F522
:1007660083E0FF9000E4E02494F582E43400F5830E
:10077600E0D39F40129000E6E0D3940240097BFF4D
:100786007A26799B0209359000E4E0FF2494F582ED
:10079600E43400F583E0FE9000E0E0FDEE6D60439A
:1007A60074942FF582E43400F583E0FF9000E1E0D5
:1007B600FEEF6E602E9000E4E0FF2494F582E434B0
:1007C60000F583E0FE9000E2E0FDEE6D60157494A6
:1007D6002FF582E43400F583E0FF9000E3E0FEEFBE
:1007E6006E70729000E9E0FF6405601E74AD2FF52F
:1007F60082E43400F583E0FF9000E4E02494F5827F
:10080600E43400F583E0D39F40129000E9E0D394EE
:100816000240097BFF7A2679A20209359000EAE0B8
:10082600FF6405601E74B22FF582E43400F583E0A0
:10083600FF9000E4E02494F582E43400F583E0D3ED
:100846009F40129000EAE0D3940240097BFF7A268B
:1008560079A90209359000E5E0FFC394055065A328
:10086600E0FEC39405505D749E2EF582E43400F5D7
:1008760083E0FE74992FF582E43400F583E0D39E7D
:1008860040129000E6E0D3940140097BFF7A267976
:10089600B00209359000E5E0FF2499F582E43400C2
:1008A600F583E0FE9000E6E0249EF582E43400F550
:1008B60083E0D39E400EEFD3940140087BFF7A2657
:1008C60079B7806B9000E5E0FFC394055067A3E01D
:1008D600C3940550609000E4E0FE940140237494B4
:1008E6002EF582E43400F583E0FE74992FF582E458
:1008F6003400F583E0D39E40087BFF7A2679BE80DC
:100906002E9000E4E0FFD39401402A74942FF582E0
:10091600E43400F583E0FF9000E6E0249EF582E4EF
:100926003400F583E0D39F400C7BFF7A2679C5120D
:0E09360015AC0205F1900065E0642B0205F19E
:1027F500EFB40800507C902802F828287302281AA4
:1028050002282302282C02283502283E02284C02E1
:10281500285A0228687F341223D57F2A804C7F34BA
:102825001223D57F2A80357F341223D57F2A801E37
:102835007F341223D57F2A80077F341223D57F2B3F
:1028450012201D7F3280287F341223D57F2B122042
:102855001D7F33801A7F341223D57F2B12201D7FD5
:1028650035800C7F341223D57F2B12201D7F361225
:0328750023D52246
:102B82007D467F02121D397D287F501228787D28CC
:052B92007F01021D3966
:1029D0007DEC7F201219BD1228EF7DCE7F201219C9
:1029E000BD1228EF7DCE7F1F1219BD7DEC7F1E1218
:0B29F00019BD7D0C7F017E000228F560
:10094400EC4D6011E8497017ED33EC3304600DE4AD
:10095400FCFFFEFD22E933E8330470F8020AF412C6
:100964000ABF58046009E4CC2481500628500902C7
:100974000AFE284003020AFBC0E0EB4A7044B98037
:1009840006D0E0FB020AEAEF4E701CBD8008EBFFC4
:10099400EAFEE9FD80EBE98DF0A4FEE5F0020A2D04
:1009A400E9CDF9EAFEEBFFEF89F0A4FCE5F0CE898E
:1009B400F0A42EFFE435F0CD89F0A42DFEE435F04B
:1009C4008067EF4E7005BD80D780C3EF8BF0A4AC79
:1009D400F0EE8BF0A42CFCE435F0F8EF8AF0A42CB4
:1009E400E5F038FCE433CB8DF0A42CFCE5F03BF8C7
:1009F400EE8AF0A42CFCE5F038F8E433CF89F0A4B7
:100A04002CFCE5F038CF3400CE89F0A42FFFE5F0BC
:100A14003EFEE433C98DF0A42EFEE5F039CD8AF014
:100A2400A42FFFE5F03EFEE43DFD33D0E0FB50078C
:100A34000BBB000F020AFEEC2CFCEF33FFEE33FE7F
:060A4400ED33FD020AD6AD
:100A4A0075F020800E75F010800575F0087D007E27
:100A5A00007F003392D530D503121019EC334010C1
:100A6A00EF33FFEE33FEED33FDEC33FCD5F0ED2230
:0E0A7A00E5F0247EA2D513CC92E7CDCEFF226C
:100A8800EDD2E7CD33EC3392D524814006E4FFFE66
:100A9800FDFC22FCE4CFCECDCC24E0501174FF80C5
:100AA800EDC3CC13CCCD13CDCE13CECF13CF047062
:070AB800F030D5DE02101939
:10154A00E53D2429F8E6053D227826300702782968
:10155A00E475F001121075020E432000EB7F2ED2C3
:10156A00008018EF540F2490D43440D4FF30040B79
:10157A00EF24BFB41A0050032461FFE53E60021550
:10158A003E0541E5417002054030070D7826E475B5
:10159A00F001121075EF020EBC0229FB7403D20788
:1015AA008003E4C207F53D8B268A278928E4F53EA5
:1015BA00F540F541E53E60077F2012158580F575F7
:1015CA003FFFC201C200C202C203C205C206C2086C
:1015DA00121553FF700D3007057F00121596AF41A3
:1015EA00AE4022B4255FC2D5C204121553FF24D0DF
:1015FA00B40A00501A75F00A783E30D50508B6FFCD
:10160A000106C6A426F620D5047002D20380D92486
:10161A00CFB41A00EF5004C2E5D204021883D201F3
:10162A0080C6D20080C0D20280BCD2D580BAD20590
:10163A0080B47F201215852002077401B53E004050
:10164A00F112154AFF1215850215BED208D206807C
:10165A009512154AFB12154AFA12154AF94A4B70A5
:10166A0006797A7A197BFF20022EE53E602A7E00EF
:10167A008E82758300120E5C60060EEE653F70F076
:10168A00C2D5EBC0E0EAC0E0E9C0E0EE1218E3D050
:10169A00E0F9D0E0FAD0E0FB120E43FF60AAEBC0FB
:1016AA00E0EAC0E0E9C0E0121585D0E02401F9D0F3
:1016BA00E03400FAD0E0FBE53F0460DCD53FD98096
:1016CA0087D20280A21218C660F7E53F70010412A1
:1016DA000B09A93F600DE53F600914F53F12196D2A
:1016EA00EF60F3EA30E702F404C3995077EAF4258D
:1016FA003F0430E701E404F53F800D1218C660C1CB
:10170A00EA053F253F120B09EA783CF630E701E487
:10171A00253F04D53F04200501141218E3E4C0E074
:10172A0012196D783CE6601320E70714F612156D5E
:10173A00802204F6D0E014C0E07F0012156DE53F68
:10174A006007121564153F800B300503121564D02B
:10175A00E00215BED0E00480C51218C660A0E53FBD
:10176A0004120B09783CEAF6E53F20050260010401
:05177A0024041218E335
:10177F0074FF04C0E012196D12156DE53F200502CC
:10178F006003121564D0E0B53FE87F4512157778F6
:10179F003CE67F2B30E7047F2DF404C0E012158563
:1017AF00D0E075F00A84C0F012156ED0E012156EFD
:1017BF000215BE791080027908C206C2088008D2CD
:1017CF00D5790A8004790AC2D5E53F047002F53F46
:1017DF00E4FAFDFEFF12154AFC7B082001131215D7
:1017EF004AFD7B1030000A12154AFE12154AFF7B84
:1017FF0020EC3382D592D55013C3E43000069FFFFF
:10180F00E49EFEE42001039DFDE49CFCE4CBF8C2C2
:10181F0001EC700CCFCECDCCE824F8F870F3801724
:10182F00C3EF33FFEE33FEED33FDEC33FCEB33FB55
:10183F00994002FB0FD8E9EB300105F8D0E0C4481E
:10184F00B201C0E00AEC4D4E4F78207B0070C2EA27
:10185F00B53F0040BCC0E01218E5D0F0D0E0200149
:10186F0004C4C0E0C4B201C0F012156ED0F0D5F0C0
:10187F00EB0215BE121085165B5317C258162C4C6F
:10188F0016284217C64F17CE4417CE491641431795
:10189F00D45517054617634516CF47199A5016307A
:1018AF002D16342E16572B16382316552019832A2A
:1018BF0015F0480000164FE53FB4FF03753F0612C1
:1018CF00154AFC12154AFD12154AFE12154AFF78E9
:1018DF0035020B38790AA2D5200314300509B91047
:1018EF00020404B9080104A2D52006025001042005
:1018FF0002689202B53E005034C0E07F20300319D9
:10190F007F30A20272067205500F12193CC202C23A
:10191F0006C205C2087F30800F300503E9C0E01210
:10192F001585300503D0E0F9D0E0B53ECC30051772
:10193F007F30B9100C1215857F583004077F7880DF
:10194F0003B908031215853002057F2D0215857F17
:10195F00202008F87F2B2006F322920280CF7F00F1
:10196F00B4070050052435F8E6FF22286E756C6C1D
:10197F002900D20112154A3001F8C201783E30D544
:10198F000108F60215F02D5043495812154A240349
:10199F00B405004001E490199593121576743A122C
:0A19AF001576D203753E040217C23C
:100ABF00E9D2E7C933E833F892D5EDD2E7CD33EC7D
:070ACF0033FC5002B2D522F6
:100AD600EC30E7100FBF000C0EBE00080DBD000481
:100AE6000BEB6014A2D5EB13FCED92E7FD2274FF2D
:100AF600FCFDFEFF22E480F8A2D574FF13FC7D8086
:030B0600E480EF99
:100B0900F920E72824F950037907E4F42402FB18B3
:100B1900DBFDE624FB5014E9600DE4F618E604F663
:0F0B2900B40A08E4F6D9F57401F60A22C2D522FF
:100B3800ED33EC3392D5FA602AB4FF33EDC2E77B8C
:100B4800FF60067A0B795DE4227A0B796620D5047A
:100B58007A0B7961224E614E002B494E46002D4991
:100B68004E4600E47A08F608DAFC7B00740722E8AF
:100B7800C0E0ECC0E0EDC0E0EEC0E0EFC0E0EA7538
:100B8800F010A4CAABF075F04DA42BFBE435F0FCD3
:100B9800EA2410FAEB34C5FBEC34D9FCEDC2E7FFCC
:100BA80075F056A4F42411C5F0F434C58FF0A42AC6
:100BB800E5F03BE43CF620E714120E03D0E0FFD04A
:100BC800E0FED0E0FDD0E0FC120D368014F40412F3
:100BD8000E03D0E0FFD0E0FED0E0FDD0E0FC12092B
:100BE80044D0E0F8E6FAEDD2E7CD33EC332482FBCB
:100BF800E4C3CF33CFCE33CECD33CD33DBF37B0756
:100C080075F00A846004F6081B0AE5F0F6088FF010
:100C1800740AA4FFACF08EF0740AA42CFEACF05059
:100C2800010C8DF0740AA42CFDE435F0F608DBDE27
:030C38007407221C
:100C3B00020AF4E86480F8E933E83360110460F0E9
:100C4B00ED33EC337009E8FCE9FDEAFEEBFF22041F
:100C5B0060DED3EB9FEA9EE99DE8C2E78CF0C2F71A
:100C6B0095F0400CE8CCF8E9CDF9EACEFAEBCFFBE6
:100C7B00120ABF85D0F05804700320D5B3E8047076
:100C8B00075002B2D5020AFE92D5EC0460F7E4CC11
:100C9B00C0E0C398F8603B94186008400DD0E0FBAF
:100CAB00020AD6E4FBFAC9FC8028E830E406E4C962
:100CBB00FBE4CAFCE830E305E4C9CACBFCE8540703
:100CCB006010F8C3E913F9EA13FAEB13FBEC13FC0E
:100CDB00D8F130F52FC3E49CFCEF9BFFEE9AFEEDB1
:100CEB0099FDD0E0FBEF4E4D4C701222DB03020A54
:100CFB00FBEC2CFCEF33FFEE33FEED33FDED30E779
:100D0B00EB020AD6EF2BFFEE3AFEED39FDD0E0FBFE
:100D1B0050130BBB0003020AFEED13FDEE13FEEFA7
:080D2B0013FFEC13FC020AD6D1
:100D3300020AFEEC5D046005E859047003020AF43C
:100D4300120ABF580460F6EC4860F2EC7004FDFE32
:100D5300FF22C860DB2481C85009C3986002500693
:100D6300020AFB9850CAF582E9294B4A7005AB8207
:100D7300020AEA75F0007C1A7880C3EF9BEE9AEDC5
:100D830099400DC3EF9BFFEE9AFEED99FDE842F00B
:100D9300DC23ACF0D0E0FFD0E0FED0E0FDAB82205E
:100DA300E7101BEB60BAEC2CFCEF33FFEE33FEEDE8
:100DB30033FD020AD6E803F830E705C0F075F0000A
:100DC300EF2FFFEE33FEED33FD40B830E7C280AACC
:100DD3003F8000004120000042C80000447A000028
:100DE300461C400047C35000497424004B189680AA
:100DF3004CBEBC205A0E1BCA6753C21C749DC5AEA1
:100E0300FB60065407601C2323120E31EB54386039
:100E130009120E1D120E2C120944ECF8EDF9EEFA2C
:100E2300EFCB22EB120E2C80F1543803241C900DCF
:100E3300D3FE93FC0EEE93FD0EEE930ECE93FF22A4
:10277500022BABE493A3F8E493A34003F68001F2A4
:1027850008DFF48029E493A3F85407240CC8C33365
:10279500C4540F4420C8834004F456800146F6DF34
:1027A500E4800B01020408102040809029A1E47EFA
:1027B500019360BCA3FF543F30E509541FFEE49329
:1027C500A360010ECF54C025E060A840B8E493A3F0
:1027D500FAE493A3F8E493A3C8C582C8CAC583CA1B
:1027E500F0A3C8C582C8CAC583CADFE9DEE780BED3
:0129CF000007
:100E4300BB010689828A83E0225002E722BBFE02AD
:090E5300E32289828A83E49322E0
:100E5C00BB010CE58229F582E5833AF583E022504B
:100E6C0006E92582F8E622BBFE06E92582F8E22295
:0D0E7C00E58229F582E5833AF583E49322AF
:100E8900BB010FF8E58229F582E5833AF583E0286D
:100E9900F0225009C58229F8E58226F622BBFE090F
:100EA900C58229F8E22582F222F8EA2583F583E949
:030EB90093282259
:100EBC00BB010689828A83F0225002F722BBFE0115
:020ECC00F3220F
:100ECE00EF8DF0A4A8F0CF8CF0A428CE8DF0A42E38
:020EDE00FE22F2
:100EE000BC000BBE0029EF8DF084FFADF022E4CCF6
:100EF000F875F008EF2FFFEE33FEEC33FCEE9DECBF
:100F0000984005FCEE9DFE0FD5F0E9E4CEFD22ED04
:100F1000F8F5F0EE8420D21CFEADF075F008EF2F4E
:100F2000FFED33FD4007985006D5F0F222C398FD3F
:050F30000FD5F0EA22DC
:100F3500C5F0F8A3E028F0C5F0F8E5821582700247
:060F45001583E038F022E4
:100F4B0075F008758200EF2FFFEE33FECD33CDCC5D
:100F5B0033CCC58233C5829BED9AEC99E5829840E0
:100F6B000CF582EE9BFEED9AFDEC99FC0FD5F0D6BD
:100F7B00E4CEFBE4CDFAE4CCF9A88222B800C1B9E7
:100F8B000059BA002DEC8BF084CFCECDFCE5F0CB25
:100F9B00F97818EF2FFFEE33FEED33FDEC33FCEB5E
:100FAB0033FB10D703994004EB99FB0FD8E5E4F919
:100FBB00FA227818EF2FFFEE33FEED33FDEC33FC06
:100FCB00C933C910D7059BE99A4007EC9BFCE99AFA
:100FDB00F90FD8E0E4C9FAE4CCFB2275F010EF2F3F
:100FEB00FFEE33FEED33FDCC33CCC833C810D7073F
:100FFB009BEC9AE899400AED9BFDEC9AFCE899F87A
:0E100B000FD5F0DAE4CDFBE4CCFAE4C8F9220C
:0E101900C3E49FFFE49EFEE49DFDE49CFC22E8
:10102700EB9FF5F0EA9E42F0E99D42F0E89C45F01F
:011037002296
:0C103800ECF0A3EDF0A3EEF0A3EFF0222B
:10104400A8828583F0D083D08212105B12105B12C9
:10105400105B12105BE473E493A3C583C5F0C583EE
:10106400C8C582C8F0A3C583C5F0C583C8C582C8F6
:011074002259
:10107500FAE6FB0808E6F925F0F618E6CA3AF6227C
:10108500D083D082F8E4937012740193700DA3A3FA
:1010950093F8740193F5828883E47374029368600E
:0610A500EFA3A3A380DF0E
:1029FB00EFB40A07740D122A06740A309811A899BD
:102A0B00B8130CC2983098FDA899C298B811F6303B
:072A1B0099FDC299F5992213
:082BCD00EF30E703F404FF22DE
:1010AB00EF4E6012EF60010EEDBB010B89828A835C
:1010BB00F0A3DFFCDEFA2289F05007F709DFFCA969
:0C10CB00F022BBFEFCF309DFFCA9F022C0
:00000001FF
