:03000000022A0CC5
:0C2A0C00787FE4F6D8FD75814B022A5358
:102DA2002573200A00E5819CE6ADA2E794B5E69C76
:022DB200BA0065
:042C5F000242000528
:102B5200122C0EE4900064F0A3F0A3F0A304F0E4BE
:102B6200A3F0A3F0A37402F0FB7D3C7F051216BC18
:102B72007525FF75262D7527A77BFF7A2D79A21261
:102B82001BBC7F03122AFF7F04122AFF7F05122A31
:0F2B9200FF7F06122AFF7F02122AFFC2AF80FECA
:03000300022DF4D7
:012DF40032AC
:03000B00022CFCC8
:102CFC00C0E0C0F0C083C082C0D075D008122DB423
:0B2D0C00D0D0D082D083D0F0D0E032D5
:03001B00022D179C
:102D1700C0E0C0F0C083C082C0D075D008122DE4D7
:0B2D2700D0D0D082D083D0F0D0E032BA
:050006002564200A0042
:102C63005A006B61A800C8003A0320029A02AC0222
:102C7300AC029A01F401F405C8084A084A02460066
:012C83000050
:062A98007F197D017E00A4
:102A9E00ED14601A14603624027055EF1FAC0670E8
:102AAE00011ED39400EC94004046000080EDEF1F11
:0D2ABE00AC0670011ED39400EC9400403370
:0E2ACB000000752A0C752BA8D52BFDD52AFA14
:102AD90080E1EF1FAC0670011ED39400EC94004016
:012AE90014D8
:102AEA00752A2E752B99752CF5D52CFDD52BFAD573
:022AFA002AF7B9
:022AFC0080DD7B
:012AFE0022B5
:102D4D00438E805389F0438901758A20758CD1C2D9
:062D5D008DD2A9D2AF22C5
:102D6300538EBF53890F438910758BE0758DB1C2A4
:062D73008FD2ABD2AF22AB
:102DB400758A20758CD1000547E5477002054622C7
:082DE400758BE0758DB1002232
:102D8E0020B2FD7F14122A9A30B2FD7D017F007EA3
:042D9E0001022A9E66
:0C2DC400EF7003C29622BF0102D29622DB
:102C0E00E4F5977593FFF594F5917592FC7595F033
:102C1E0075960FD2A1D2A3C297122DD0122D4D129E
:0A2C2E002D63122D79D2B2022D8E13
:0A2DD000E4F5D8F5F9F5E9F5D9228C
:102C8500AC07E4121299E4FBFA792078401210E9B6
:0E2C95001212CD8FEA8FFA75DA42E4F5F222C0
:102CA300AC07E4121299E4FBFA792078401210E998
:0E2CB3001212CD8FEB8FFB75DB42E4F5F3229E
:04260C007D647F0466
:102610008D2AE52A700122D3E52A648094E44005DE
:10262000752A64800CC3E52A6480941C5003752AC3
:102630009CEFB407004003022749902641F8282860
:102640007302265602268002269B0226D60226F315
:1026500002271002272DD2DED3E52A648094804021
:1026600008AF2A122CA3C29522C3E52A6480948065
:102670004003022749AF2A122DEC122CA3D2952237
:10268000D2DED3E52A6480948040028020C3E52A0C
:102690006480948040030227498030D2DED3E52A4B
:1026A00064809480400FAF2A122CA3C295AF2A12E7
:1026B0002C85C29222C3E52A6480948040030227BD
:1026C00049AF2A122DEC122CA3D295AF2A122DEC71
:1026D000122C85D29222D297D3E52A64809480402E
:1026E00004D2A0800BC3E52A648094805002C2A06B
:1026F000C2A122D297D3E52A648094804004D2A25A
:10270000800BC3E52A648094805002C2A2C2A32237
:10271000C297D3E52A648094804004C2A0800BC392
:10272000E52A648094805002D2A0C2A122C297D32D
:10273000E52A648094804004C2A2800BC3E52A6429
:0A2740008094805002D2A2C2A322AE
:102AFF00EFB40700504C902B0CF8282873022B21B1
:102B0F00022B23022B2B022B3C022B40022B4402C5
:102B1F002B4B8011E4FF122C85C29222C2DEE4FF00
:102B2F00122C85C292E4FF122CA3C29522D2978059
:102B3F0006D2978009C297C2A0D2A122C297C2A281
:032B4F00D2A322EC
:102BA1008F48E548B401187D9C7F0312261020B39D
:102BB100FD7D017F147E00122A9E20B3EA80167DDE
:102BC100647F0312261020B4FD7D017F147E001264
:102BD1002A9E20B4EA7F03122AFF900067E548F09D
:012BE10022D1
:102413008F49900068E06549700302260BE549B4D3
:1024230009004003022600902431F828287302246F
:102433004C02247702249F0224DD02250A0225444C
:102443000225710225AA0225D17D647F051226107B
:10245300E4FF122DC47D017F327E00122A9E20A448
:10246300FD7D017F147E00122A9E20A4F17F147E3D
:10247300000225FD900068E0FFE549D39F40047DFD
:102483009C80077F021224137D647F05122610901F
:102493000071E0FEA3E0FF7D010225FD900068E0EE
:1024A300FFE549D39F40047D9C80027D647F051234
:1024B3002610E4FF122DC47D017F327E00122A9E76
:1024C30020A5FD7D017F147E00122A9E20A5F19098
:1024D300006FE0FEA3E0FF0225FD900068E0FFE54A
:1024E30049D39F40097F021224137D9C80077F04F8
:1024F3001224137D647F05122610900071E0FEA361
:10250300E0FF7D010225FD900068E0FFE549D39FD0
:1025130040047D9C80027D647F05122610E4FF1237
:102523002DC47D017F327E00122A9E20A6FD9000DD
:102533006FE0FEA3E0FF7D01122A9E20A6ED022696
:1025430000900068E0FFE549D39F40097F0412240F
:10255300137D9C80077F061224137D647F0512265A
:1025630010900071E0FEA3E0FF7D010225FD9000C5
:1025730068E0FFE549D39F40047D9C80027D647F32
:1025830005122610E4FF122DC47D017F327E001256
:102593002A9E20A7FD90006FE0FEA3E0FF7D0112BD
:1025A3002A9E20A7ED8056900068E0FFE549D39F5F
:1025B30040097F061224137D9C80027D647F0512EF
:1025C3002610900071E0FEA3E0FF7D01802C7D9C2E
:1025D3007F051226107F01122DC47D017F327E00FC
:1025E300122A9E20A4FD7D017F147E00122A9E20C4
:1025F300A4F190006FE0FEA3E0FF122A9E7F051274
:092603002AFF900068E549F0226D
:10274A008F4AE54A14602B1460651470030227F659
:10275A0014700302283B2404600302285812260C32
:10276A0020B5FD7D017F147E00122A9E20B5EE025F
:10277A002851900069E024FE601A14602014602633
:10278A00240460030228587D9C7F041226109000BE
:10279A007302283212260C90007502283212260C77
:1027AA0090007F02283212260C9000830228329071
:1027BA000069E014601A24FE602214602724046071
:1027CA00030228587D9C7F0412261090007B8058B3
:1027DA007D9C7F04122610900075804C12260C9066
:1027EA000077804412260C90007D803C900069E0BE
:1027FA0014601714602024FE6028240470507D9C05
:10280A007F04122610900081801E7D9C7F04122670
:10281A001090007F80127D9C7F0412261090007712
:10282A00800612260C900079E0FEA3E0FF7D01806D
:10283A001A7D9C7F0412261020B6FD7D017F147E2E
:10284A0000122A9E20B6EA7F147E00122A9E7F0476
:0A285A00122AFF900069E54AF022FF
:10220E008F4B7F01122DC4E54B1470030222A814CC
:10221E007003022320147003022398240360030228
:10222E00240790006AE024FE603814605124026096
:10223E00030224077D9C7F061226107D027F017EFD
:10224E0000122A9E20A5FD122A9820A5F730A5FD82
:10225E00122A9830A5F720A5FD122A9820A5F7027C
:10226E0024077D647F061226107D027F017E0012F8
:10227E002A9E20A5FD122A9820A5F70224077D9CF0
:10228E007F061226107D027F017E00122A9E20A557
:10229E00FD122A9820A5F702240790006AE024FE7A
:1022AE006038146051240360030224077D647F06A6
:1022BE001226107D027F017E00122A9E20A5FD129D
:1022CE002A9820A5F730A5FD122A9830A5F720A54B
:1022DE00FD122A9820A5F70224077D9C7F06122660
:1022EE00107D027F017E00122A9E20A5FD122A98E3
:1022FE0020A5F70224077D647F061226107D027F3B
:10230E00017E00122A9E20A5FD122A9820A5F70212
:10231E00240790006AE014602724FE603F240360C7
:10232E00030224077D9C7F061226107D027F017E0C
:10233E0000122A9E20A5FD122A9820A5F702240736
:10234E007D647F061226107D027F017E00122A9E7A
:10235E0020A5FD122A9820A5F70224077D9C7F0652
:10236E001226107D027F017E00122A9E20A5FD12EC
:10237E002A9820A5F730A5FD122A9830A5F720A59A
:10238E00FD122A9820A5F702240790006AE0146037
:10239E002214603A240270617D647F061226107D3D
:1023AE00027F017E00122A9E20A5FD122A9820A5EA
:1023BE00F780467D9C7F061226107D027F017E00EF
:1023CE00122A9E20A5FD122A9820A5F7802B7D6447
:1023DE007F061226107D027F017E00122A9E20A506
:1023EE00FD122A9820A5F730A5FD122A9830A5F7E0
:1023FE0020A5FD122A9820A5F77F06122AFF90002D
:05240E006AE54BF0221D
:041FC9007D02E4FFB2
:101FCD008F448D4590006AE06545606E7F02122753
:101FDD004AE54514601F1460311460432403705AA0
:101FED0090006AE024FE60091460082402704B80A2
:101FFD003E8040803A90006AE024FE60091460083B
:10200D0024037036802D8027802990006AE01460AB
:10201D000A24FE600824037021801480168010901D
:10202D00006AE014600914600A2402700D80047DBA
:10203D009C80027D647F06122610E54414601F24E7
:10204D00FE60231460332404704C12260C20B5FD61
:10205D007D017F147E00122A9E20B5EE803112265E
:10206D000C900075800A7D9C7F04122610900077DD
:10207D00E0FEA3E0FF7D01801A7D9C7F04122610F7
:10208D0020B6FD7D017F147E00122A9E20B6EA7FC8
:10209D00147E00122A9E7F04122AFF900069E544E7
:1020AD00F0A3E06545700302220D7F01122DC4E5FA
:1020BD00451460611470030221701470030221BD78
:1020CD002403600302220290006AE024FE602E14B5
:1020DD0060372402600302220220A5FD122A9820F7
:1020ED00A5F730A5FD7D027F017E00122A9E30A549
:1020FD00F120A5FD122A9820A5F702220220A5FDA8
:10210D00122A9820A5F702220220A5FD122A982056
:10211D00A5F702220290006AE024FE602E146037BB
:10212D002403600302220220A5FD122A9820A5F7A0
:10213D0030A5FD7D027F017E00122A9E30A5F12083
:10214D00A5FD122A9820A5F702220220A5FD122A2C
:10215D009820A5F702220220A5FD122A9820A5F7A6
:10216D0002220290006AE014601724FE601F24030F
:10217D00600302220220A5FD122A9820A5F7022253
:10218D000220A5FD122A9820A5F702220220A5FD06
:10219D00122A9820A5F730A5FD7D027F017E001241
:1021AD002A9E30A5F120A5FD122A9820A5F780457D
:1021BD0090006AE014601214601A2402703720A592
:1021CD00FD122A9820A5F7802C20A5FD122A982013
:1021DD00A5F7802120A5FD122A9820A5F730A5FD91
:1021ED007D027F017E00122A9E30A5F120A5FD12F1
:1021FD002A9820A5F77F06122AFF90006AE545F080
:01220D0022AE
:0616BC008F228D238B2418
:1016C200C200E523F5F0A47C002DFDEC35F0FCE42E
:1016D200121294E4FBFAF9783F1210E9C004C00533
:1016E200C006C00790006BE0FCA3E0FDE412129478
:1016F200D003D002D001D0001211F21212CD8E25E9
:101702008F26852328852329752701E527C395235D
:10171200400302184FAF2705278F288F2930852BCA
:10172200AC28E41212997466FBFAF9783F1210E9B8
:101732001212CD8F28AC29E41212997BCD7ACC7982
:101742008C783F1210E91212CD8F2930822BAC28EF
:10175200E41212997BCD7ACC798C783F1210E9127F
:1017620012CD8F28AC29E41212997466FBFAF9782B
:101772003F1210E91212CD8F2930862CAC28E412C8
:1017820012997BCD7ACC794C783F1210E91212CDA6
:101792008F28AC29E41212997B9A7A997999783F29
:1017A2001210E91212CD8F2930812CAC28E41212CA
:1017B200997B9A7A997999783F1210E91212CD8F12
:1017C20028AC29E41212997BCD7ACC794C783F125D
:1017D20010E91212CD8F2930872BAC28E41212990E
:1017E2007433FBFAF9783F1210E91212CD8F28AC4C
:1017F20029E41212997B667A6679A6783F1210E97B
:101802001212CD8F2930802BAC28E41212997B66FC
:101812007A6679A6783F1210E91212CD8F28AC2988
:10182200E41212997433FBFAF9783F1210E912129A
:10183200CD8F29AD297F01122610AD28E4FF122693
:10184200107D01AF26AE25122A9E02170DE4F52760
:10185200308703208106308608308005D200021AC4
:101862002D200003021A2D0527C200E527C3952269
:101872005003021A2DE52460686402702EAD237FA6
:10188200011226107DF6E4FF1226107D017FF47E00
:1018920001122A9E3084FD3083FAE4FD7F64FE1239
:1018A2002A9E3084EF3083EC021A28E52464036018
:1018B20003021A2DAD23FF1226107DF67F01122698
:1018C200107D017FF47E01122A9E3084FD3083FA5E
:1018D200E4FD7F64FE122A9E3084EF3083EC021A0C
:1018E20028852327E527D394005003021A28AF271F
:1018F20015278F288F2930852BAC28E41212997472
:1019020066FBFAF9783F1210E91212CD8F28AC2942
:10191200E41212997BCD7ACC798C783F1210E912BD
:1019220012CD8F2930822BAC28E41212997BCD7A0A
:10193200CC798C783F1210E91212CD8F28AC29E4B1
:101942001212997466FBFAF9783F1210E91212CD5D
:101952008F2930862CAC28E41212997BCD7ACC796F
:101962004C783F1210E91212CD8F28AC29E41212E2
:10197200997B9A7A997999783F1210E91212CD8F50
:101982002930812CAC28E41212997B9A7A997999A0
:10199200783F1210E91212CD8F28AC29E412129965
:1019A2007BCD7ACC794C783F1210E91212CD8F2977
:1019B20030872BAC28E41212997433FBFAF9783F82
:1019C2001210E91212CD8F28AC29E41212997B660B
:1019D2007A6679A6783F1210E91212CD8F293080EB
:1019E2002BAC28E41212997B667A6679A6783F12AC
:1019F20010E91212CD8F28AC29E41212997433FB2C
:101A0200FAF9783F1210E91212CD8F29AD297F0120
:101A1200122610AD28E4FF1226107D01AF26AE2556
:101A2200122A9E0218E67F02022AFFAF238F288F16
:101A32002930852BAC28E41212997466FBFAF978E6
:101A42003F1210E91212CD8F28AC29E41212997BB1
:101A5200CD7ACC798C783F1210E91212CD8F2930D1
:101A6200822BAC28E41212997BCD7ACC798C783F08
:101A72001210E91212CD8F28AC29E4121299746661
:101A8200FBFAF9783F1210E91212CD8F2930862C19
:101A9200AC28E41212997BCD7ACC794C783F1210A3
:101AA200E91212CD8F28AC29E41212997B9A7A9905
:101AB2007999783F1210E91212CD8F2930812CAC1E
:101AC20028E41212997B9A7A997999783F1210E94F
:101AD2001212CD8F28AC29E41212997BCD7ACC79DF
:101AE2004C783F1210E91212CD8F2930872BAC2887
:101AF200E41212997433FBFAF9783F1210E91212C8
:101B0200CD8F28AC29E41212997B667A6679A67881
:101B12003F1210E91212CD8F2930802BAC28E4122B
:101B220012997B667A6679A6783F1210E91212CD75
:101B32008F28AC29E41212997433FBFAF9783F1218
:101B420010E91212CD8F29AD28E4FF122610AD291B
:081B52007F0112261002185257
:0D000E00E4F5C7F5C5F5C675C380F5C4223D
:102CC10075C78375C5018FC48EC375C65A75C6A5F0
:0D2CD100E4FD7F0AFE122A9EAFC212000E23
:012CDE0022D3
:102CDF0075C78375C5028FC48EC38DC275C65A75ED
:0D2CEF00C6A5E4FD7F0AFE122A9E02000E1B
:102D320075C78375C5038FC48EC375C65A75C6A57C
:0B2D4200E4FD7F0AFE122A9E02000E34
:10286400E4FF12274A7F0412274AD28CE4FF12277E
:102874004A7F0412274AC28CAC46AD47E412129434
:102884007B147AAE79C7783E1210E91212CD8E46C7
:102894008F47AC46AD47E4121294E4FBFAF9783F53
:1028A4001210E91212CD90007BEEF0A3EFF0A3EE2C
:1028B400F0A3EFF0AC46AD47E4121294E4FBFA79CE
:1028C40040783F1210E91212CD900083EEF0A3EF8E
:1028D400F0900081EEF0A3EFF0AC46AD47E41212A5
:1028E40094E4FBFA7980783E1210E91212CD90003C
:1028F40079EEF0FDA3EFF0900073CDF0A3EDF0902E
:102904000077EEF0A3EFF0900075EEF0A3EFF0ACDB
:1029140046AD47E4121294E4FBFAF9783F1210E949
:102924001212CD90007FEEF0A3EFF0E4F546F547E8
:0F2934007BFF7A007906854625854726021BBC66
:102D7900438780759850438E04759CD9438E0143CF
:052D89008E10D299221A
:06001E008F108D118B1202
:100024007E007F507D007B017A007900121690904B
:100034000002E510F0900004E511F0900006E512CE
:10004400F0900008E513F090002AE514F090002CDD
:10005400E515F090002EE516F0900030E517F090CD
:100064000020E518F0900022E519F0900024E51A2C
:10007400F0900026E51BF0900048E51CF090004A43
:10008400E51DF090004CE51EF090004EE51FF09049
:1000940000217401F090002304F090002504F090F6
:1000A400002704F090004904F090004B04F0900005
:1000B4004D04F090004F04F090005B7404F0900045
:1000C4005BE0FFD394005003020404EF25E0240016
:1000D400F582E43400F583E0FF900020E0FEEFB504
:1000E400062990005BE0FF25E02400F582E434005B
:1000F400F583E06016900021E0FEEF25E02401F591
:1001040082E43400F583EEF002026D90005BE0FFC0
:1001140025E02400F582E43400F583E0FE9000221B
:10012400E0FDEEB50515EF25E02400F582E434008A
:10013400F583E0600690002302025A90005BE0FF22
:1001440025E02400F582E43400F583E0FE900024E9
:10015400E0FDEEB50515EF25E02400F582E434005A
:10016400F583E0600690002502025A90005BE0FFF0
:1001740025E02400F582E43400F583E0FE900026B7
:10018400E0FDEEB50515EF25E02400F582E434002A
:10019400F583E0600690002702025A90005BE0FFBE
:1001A40025E02400F582E43400F583E0FE90004865
:1001B400E0FDEEB50515EF25E02400F582E43400FA
:1001C400F583E0600690004902025A90005BE0FF6C
:1001D40025E02400F582E43400F583E0FE90004A33
:1001E400E0FDEEB50514EF25E02400F582E43400CB
:1001F400F583E0600590004B805C90005BE0FF2598
:10020400E02400F582E43400F583E0FE90004CE045
:10021400FDEEB50514EF25E02400F582E43400F585
:1002240083E0600590004D802D90005BE0FF25E0A9
:100234002400F582E43400F583E0FE90004EE0FDF6
:10024400EEB50525EF25E02400F582E43400F583BE
:10025400E0601690004FE0FF90005BE025E0240191
:10026400F582E43400F583EFF090005BE0FF25E0D5
:100274002428F582E43400F583E0FE900020E0FDBC
:10028400EEB50515EF25E02428F582E43400F58366
:10029400E060069000210203E890005BE0FF25E0A7
:1002A4002428F582E43400F583E0FE900022E0FD8A
:1002B400EEB50515EF25E02428F582E43400F58336
:1002C400E060069000230203E890005BE0FF25E075
:1002D4002428F582E43400F583E0FE900024E0FD58
:1002E400EEB50515EF25E02428F582E43400F58306
:1002F400E060069000250203E890005BE0FF25E043
:100304002428F582E43400F583E0FE900026E0FD25
:10031400EEB50515EF25E02428F582E43400F583D5
:10032400E060069000270203E890005BE0FF25E010
:100334002428F582E43400F583E0FE900048E0FDD3
:10034400EEB50515EF25E02428F582E43400F583A5
:10035400E060069000490203E890005BE0FF25E0BE
:100364002428F582E43400F583E0FE90004AE0FDA1
:10037400EEB50514EF25E02428F582E43400F58376
:10038400E0600590004B805C90005BE0FF25E0247A
:1003940028F582E43400F583E0FE90004CE0FDEEA5
:1003A400B50514EF25E02428F582E43400F583E054
:1003B400600590004D802D90005BE0FF25E024282F
:1003C400F582E43400F583E0FE90004EE0FDEEB5E6
:1003D4000525EF25E02428F582E43400F583E06068
:1003E4001690004FE0FF90005BE025E02429F582A1
:1003F400E43400F583EFF090005BE014F00200C2F7
:10040400E490005BF0E490005CF090005CE0FFD3CB
:100414009404502290005BE075F00AA42400F58255
:10042400E43400F58375F002EF12164EE4F0900008
:100434005CE004F080D490005BE004F0E0B408C514
:10044400E490005BF090005BE0FF25E02401F5827E
:10045400E43400F583E0FEEF25E02400F582E43483
:1004640000F583EEF090005BE0FF25E02429F5829F
:10047400E43400F583E0FEEF25E02428F582E4343B
:1004840000F583EEF090005BE004F0E0B405B6E420
:1004940090005BF090005BE0FFD39404505CEF2588
:1004A400E02401F582E43400F583E4F0EF25E02450
:1004B4000BF582E43400F583E4F0EF25E02415F530
:1004C40082E43400F583E4F0EF25E02429F582E4A6
:1004D4003400F583E4F0EF25E02433F582E43400BE
:1004E400F583E4F0EF25E0243DF582E43400F58360
:1004F400E4F090005BE004F0809AE490005BF090FC
:10050400005BE0FFD39407505C74502FF582E43411
:1005140000F5837404F0E490005CF090005CE0FF6C
:10052400D39404503890005BE0FE75F00AA42400D4
:10053400F582E43400F58375F002EF12164EE060A4
:100544001490005CE014FF74502EF582E43400F53E
:1005540083EFF0800890005CE004F080BE90005BC4
:10056400E004F0809AE4FF1224137F01122BA1907F
:100574000050122943900058EFF090005412294380
:10058400900059EFF0FD900058E0FF122DDA900032
:100594005AEFF090006AE064026003020B159000C9
:1005A40050E0FFC3940440030207BF900053E025CA
:1005B400E0241FF582E43400F583E0FEEF25E02417
:1005C40002F582E43400F583E06E7062122BE27D62
:1005D400027F04121FCD900050E004FF122BE7E4C9
:1005E400FF122BA1122BE2121FC9900053E0FF123D
:1005F4002BE77F01122BA1900050E0FF25E024029D
:10060400F582E43400F583E0FE900053E025E02415
:1006140020F582E43400F583EEF0EF25E02402F5C2
:1006240082E43400F583E4F090005002084C90001A
:1006340057E025E02447F582E43400F583E0FF9099
:100644000050E025E02402F582E43400F583E06FF5
:10065400706B122BE27D027F04121FCD900050E0DC
:1006640004FF122BE7E4FF122BA190005AE0FF12C3
:100674002BE77D037F04121FCD900057E0FF122B60
:10068400E77F01122BA1900050E0FF25E02402F542
:1006940082E43400F583E0FE900057E025E024482E
:1006A400F582E43400F583EEF0EF25E02402F582D0
:1006B400E43400F583E4F09000500208E190005126
:1006C400E0FFC394045022EF25E0240AF582E434C9
:1006D40000F583E0FF900050E025E02402F582E479
:1006E4003400F583E0D39F4066122BE27D027F0441
:1006F400121FCD900050E004FF122BE7E4FF122BF1
:10070400A1122BE27D027F03121FCD900051E0FF66
:10071400122BE77F01122BA1900050E0FF25E0246B
:1007240002F582E43400F583E0FE900051E025E018
:10073400240CF582E43400F583EEF0EF25E0240286
:10074400F582E43400F583E4F09000500209751258
:100754002BE27D027F04121FCD900050E004FF12B3
:100764002BE7E4FF122BA1122BE27D027F01121F63
:10077400CD900052E0FF122BE77F01122BA19000D5
:1007840050E0FF25E02402F582E43400F583E0FE26
:10079400900052E025E02416F582E43400F583EE5F
:1007A400F0EF25E02402F582E43400F583E4F090D0
:1007B4000050E004F0900052020AA0900051E0FFC3
:1007C400C39404400302097C900053E025E0241FF5
:1007D400F582E43400F583E0FEEF25E0240CF58295
:1007E400E43400F583E06E7068122BE27D027F032F
:1007F400121FCD900051E004FF122BE7E4FF122BEF
:10080400A1122BE2121FC9900053E0FF122BE77FC5
:1008140001122BA1900051E0FF25E0240CF582E4A5
:100824003400F583E0FE900053E025E02420F582B7
:10083400E43400F583EEF0EF25E0240CF582E43493
:1008440000F583E4F0900051E004F0900053020AB4
:10085400A0900057E025E02447F582E43400F583B6
:10086400E0FF900051E025E0240CF582E43400F52B
:1008740083E06F7071122BE27D027F03121FCD9013
:100884000051E004FF122BE7E4FF122BA190005A61
:10089400E0FF122BE77D037F04121FCD900057E089
:1008A400FF122BE77F01122BA1900051E0FF25E0FE
:1008B400240CF582E43400F583E0FE900057E02533
:1008C400E02448F582E43400F583EEF0EF25E024DB
:1008D4000CF582E43400F583E4F0900051E004F078
:1008E400900057020AA0900052E025E02414F582FB
:1008F400E43400F583E0FF900051E025E0240CF59A
:1009040082E43400F583E0D39F5003020AA3122B40
:10091400E27D027F03121FCD900051E004FF122BF1
:10092400E7E4FF122BA1122BE27D027F01121FCDFF
:10093400900052E0FF122BE77F01122BA19000518F
:10094400E0FF25E0240CF582E43400F583E0FE901A
:100954000052E025E02416F582E43400F583EEF03D
:10096400EF25E0240CF582E43400F583E4F09000F4
:1009740051E004F0A3020AA0900052E0FFC39404E3
:100984004003020AA3A3E025E0241FF582E4340017
:10099400F583E0FEEF25E02416F582E43400F583C8
:1009A400E06E7066122BE27D027F01121FCD900073
:1009B40052E004FF122BE7E4FF122BA1122BE212E8
:1009C4001FC9900052E0FF122BE77F01122BA19068
:1009D4000052E0FF25E02416F582E43400F583E0BC
:1009E400FE900053E025E02420F582E43400F583F2
:1009F400EEF0EF25E02416F582E43400F583E4F00C
:100A0400900052E004F0A3020AA0900057E025E011
:100A14002447F582E43400F583E0FF900052E0259A
:100A2400E02416F582E43400F583E06F7071122B34
:100A3400E27D027F01121FCD900052E004FF122BD1
:100A4400E7E4FF122BA190005AE0FF122BE77D038D
:100A54007F04121FCD900057E0FF122BE77F011295
:100A64002BA1900052E0FF25E02416F582E4340027
:100A7400F583E0FE900057E025E02448F582E43455
:100A840000F583EEF0EF25E02416F582E43400F55A
:100A940083E4F0900052E004F0900057E014F090EA
:100AA4000027E0FF900026E06F60030205739000CA
:100AB40025E0FF900024E06F60030205739000239B
:100AC400E0FF900022E06F6003020573900021E0D4
:100AD400FF900020E06F600302057390004FE0FF79
:100AE40090004EE06F702590004DE0FF90004CE0C8
:100AF400B5071990004BE0FF90004AE0B5070D9050
:100B04000049E0FF900048E0B50701227F0302108E
:100B1400E390006AE0640360030210E1900054E093
:100B2400FFC394044003020D64900057E025E024C1
:100B340047F582E43400F583E0FEEF25E0242AF54E
:100B440082E43400F583E06E7070900059E0FF1287
:100B54002BE77D03E4FF121FCD900054E004FF1245
:100B64002BE7E4FF122BA1900059E0FF122BE77D45
:100B7400037F04121FCD900057E0FF122BE77F0183
:100B8400122BA1900054E0FF25E0242AF582E434DE
:100B940000F583E0FE900057E025E02448F582E468
:100BA4003400F583EEF0EF25E0242AF582E43400E6
:100BB400F583E4F0900054020DFF900053E025E02B
:100BC400241FF582E43400F583E0FF900054E0250F
:100BD400E0242AF582E43400F583E06F706C900021
:100BE40059E0FF122BE77D03E4FF121FCD90005460
:100BF400E004FF122BE7E4FF122BA190005AE0FF60
:100C0400122BE7121FC9900053E0FF122BE77F015C
:100C1400122BA1900054E0FF25E0242AF582E4344D
:100C240000F583E0FE900053E025E02420F582E403
:100C34003400F583EEF0EF25E0242AF582E4340055
:100C4400F583E4F0900054020E95900056E0FFC343
:100C540094045022EF25E0243CF582E43400F5832B
:100C6400E0FF900054E025E0242AF582E43400F506
:100C740083E0D39F4076900059E0FF122BE77D0379
:100C8400E4FF121FCD900054E004FF122BE7E4FFB1
:100C9400122BA190005AE0FF122BE77D037F011273
:100CA4001FCD900056E0FF122BE77F01122BA1907D
:100CB4000054E0FF25E0242AF582E43400F583E0C3
:100CC400FE900056E025E0243EF582E43400F583EE
:100CD400EEF0EF25E0242AF582E43400F583E4F015
:100CE400900054E004F090005602106D900059E01A
:100CF400FF122BE77D03E4FF121FCD900054E004A4
:100D0400FF122BE7E4FF122BA1900059E0FF122BF6
:100D1400E77D037F01121FCD900055E0FF122BE702
:100D24007F01122BA1900054E0FF25E0242AF582D4
:100D3400E43400F583E0FE900055E025E02434F52A
:100D440082E43400F583EEF0EF25E0242AF582E412
:100D54003400F583E4F0900054E004F0A302106D35
:100D6400900055E0FFC394044003020F3A900057EB
:100D7400E025E02447F582E43400F583E0FEEF2526
:100D8400E02434F582E43400F583E06E707690005C
:100D940059E0FF122BE77D037F01121FCD90005510
:100DA400E004FF122BE7E4FF122BA1900059E0FFAF
:100DB400122BE77D037F04121FCD900057E0FF1232
:100DC4002BE77F01122BA1900055E0FF25E024348E
:100DD400F582E43400F583E0FE900057E025E0243A
:100DE40048F582E43400F583EEF0EF25E02434F591
:100DF40082E43400F583E4F0900055E004F09000C0
:100E04005702106D900053E025E0241FF582E4346E
:100E140000F583E0FF900055E025E02434F582E4FA
:100E24003400F583E06F7072900059E0FF122BE7F5
:100E34007D037F01121FCD900055E004FF122BE7C4
:100E4400E4FF122BA190005AE0FF122BE7121FC9F6
:100E5400900053E0FF122BE77F01122BA190005565
:100E6400E0FF25E02434F582E43400F583E0FE90CD
:100E74000053E025E02420F582E43400F583EEF00D
:100E8400EF25E02434F582E43400F583E4F09000A7
:100E940055E004F090005302106D900056E025E0F8
:100EA400243CF582E43400F583E0FF900055E0250E
:100EB400E02434F582E43400F583E0D39F50030248
:100EC4001070900059E0FF122BE77D037F01121F81
:100ED400CD900055E004FF122BE7E4FF122BA19004
:100EE4000059E0FF122BE77D037F03121FCD900012
:100EF40056E0FF122BE77F01122BA1900055E0FF73
:100F040025E02434F582E43400F583E0FE900056B5
:100F1400E025E0243EF582E43400F583EEF0EF258D
:100F2400E02434F582E43400F583E4F0900055E0E5
:100F340004F0A302106D900056E0FFC39404400334
:100F4400021070A3E025E02447F582E43400F58321
:100F5400E0FEEF25E0243EF582E43400F583E06E04
:100F64007074900059E0FF122BE77D037F03121F7A
:100F7400CD900056E004FF122BE7E4FF122BA19062
:100F84000059E0FF122BE77D037F04121FCD900070
:100F940057E0FF122BE77F01122BA1900056E0FFD0
:100FA40025E0243EF582E43400F583E0FE9000570A
:100FB400E025E02448F582E43400F583EEF0EF25E3
:100FC400E0243EF582E43400F583E4F0900056E03A
:100FD40004F0A302106D900053E025E0241FF58275
:100FE400E43400F583E0FF900056E025E0243EF56C
:100FF40082E43400F583E06F7072900059E0FF12D0
:101004002BE77D037F03121FCD900056E004FF12EF
:101014002BE7E4FF122BA1900059E0FF122BE712FB
:101024001FC9900053E0FF122BE77F01122BA19000
:101034000056E0FF25E0243EF582E43400F583E029
:10104400FE900053E025E02420F582E43400F5838B
:10105400EEF0EF25E0243EF582E43400F583E4F07D
:10106400900056E004F0900053E014F090004FE03C
:10107400FF90004EE06F600302057390004DE0FFA7
:1010840090004CE06F600302057390004BE0FF900A
:10109400004AE06F6003020573900049E0FF90008E
:1010A40048E06F6003020573900027E0FF9000267C
:1010B400E06F7025900025E0FF900024E0B507194B
:1010C400900023E0FF900022E0B5070D900021E09E
:1010D400FF900020E0B50701227F0280027F021208
:0510E400220E0205735D
:0C294300E0FFA3E0FDA3E0FBA3E0F541F2
:10294F00A907E9C39D5003022A0BEDC39D7E0050DA
:10295F00047F0180027F00EBF582C3EF95827480C4
:10296F00F86E985005AF05022A0BEB6049E9C39D3D
:10297F005005AF01022A0BEDC39B7E0050047F016F
:10298F0080027F00E541F582C3EF95827480F86E77
:10299F00985004AF03801DE541600DE9C39D5004BD
:1029AF00AF018010AF05800CEBC395415004AF030E
:1029BF008002AF418046EDC39B5004AF05803DEBD5
:1029CF00C39B7E0050047F0180027F00E541F582AA
:1029DF00C3EF95827480F86E985004AF03801DE5A5
:1029EF0041600DEDC39B5004AF058010AF03800C09
:0D29FF00EBC395415004AF038002AF4122AD
:0A2DDA00EFC39D50028002AF0522F6
:052BE200900058E0FF27
:102BE700EF1460111460121460131460142404703D
:102BF70015E4FF800E7F02800A7F0480067F06802F
:072C0700027F0812241322D2
:1010E900EC4D6011E8497017ED33EC3304600DE401
:1010F900FCFFFEFD22E933E8330470F802133912CC
:10110900130458046009E4CC2481500628500902CC
:101119001343284003021340C0E0EB4A7044B980EE
:1011290006D0E0FB02132FEF4E701CBD8008EBFFC9
:10113900EAFEE9FD80EBE98DF0A4FEE5F00211D2AB
:10114900E9CDF9EAFEEBFFEF89F0A4FCE5F0CE89E1
:10115900F0A42EFFE435F0CD89F0A42DFEE435F09E
:101169008067EF4E7005BD80D780C3EF8BF0A4ACCC
:10117900F0EE8BF0A42CFCE435F0F8EF8AF0A42C07
:10118900E5F038FCE433CB8DF0A42CFCE5F03BF81A
:10119900EE8AF0A42CFCE5F038F8E433CF89F0A40A
:1011A9002CFCE5F038CF3400CE89F0A42FFFE5F010
:1011B9003EFEE433C98DF0A42EFEE5F039CD8AF068
:1011C900A42FFFE5F03EFEE43DFD33D0E0FB5007E0
:1011D9000BBB000F021343EC2CFCEF33FFEE33FE85
:0611E900ED33FD02131BB3
:1011EF00021343EC5D046005E859047003021339E0
:1011FF00121304580460F6EC4860F2EC7004FDFE24
:10120F00FF22C860DB2481C85009C39860025006D2
:10121F000213409850CAF582E9294B4A7005AB82F8
:10122F0002132F75F0007C1A7880C3EF9BEE9AEDB6
:10123F0099400DC3EF9BFFEE9AFEED99FDE842F04A
:10124F00DC23ACF0D0E0FFD0E0FED0E0FDAB82209D
:10125F00E7101BEB60BAEC2CFCEF33FFEE33FEED27
:10126F0033FD02131BE803F830E705C0F075F000FB
:10127F00EF2FFFEE33FEED33FD40B830E7C280AA0B
:10128F0075F020800E75F010800575F0087D007EDA
:10129F00007F003392D530D503121640EC33401047
:1012AF00EF33FFEE33FEED33FDEC33FCD5F0ED22E3
:0E12BF00E5F0247EA2D513CC92E7CDCEFF221F
:1012CD00EDD2E7CD33EC3392D524814006E4FFFE19
:1012DD00FDFC22FCE4CFCECDCC24E0501174FF8078
:1012ED00EDC3CC13CCCD13CDCE13CECF13CF047015
:0712FD00F030D5DE021640BF
:101B5A00E5392425F8E60539227822300702782566
:101B6A00E475F00112165A0215E82000EB7F2ED216
:101B7A00008018EF540F2490D43440D4FF30040B63
:101B8A00EF24BFB41A0050032461FFE53A6002153E
:101B9A003A053DE53D7002053C30070D7822E475B3
:101BAA00F00112165AEF02162E022C387403D207CD
:101BBA008003E4C207F5398B228A238924E4F53AA3
:101BCA00F53CF53DE53A60077F20121B9580F575D7
:101BDA003BFFC201C200C202C203C205C206C2085A
:101BEA00121B63FF700D3007057F00121BA6AF3D65
:101BFA00AE3C22B4255FC2D5C204121B63FF24D0B7
:101C0A00B40A00501A75F00A783A30D50508B6FFBA
:101C1A000106C6A426F620D5047002D20380D92470
:101C2A00CFB41A00EF5004C2E5D204021E93D201C7
:101C3A0080C6D20080C0D20280BCD2D580BAD2057A
:101C4A0080B47F20121B952002077401B53A004028
:101C5A00F1121B5AFF121B95021BCED208D2068024
:101C6A0095121B5AFB121B5AFA121B5AF94A4B704D
:101C7A0006798A7A1F7BFF20022EE53A602A7E00C7
:101C8A008E8275830012160160060EEE653B70F0B7
:101C9A00C2D5EBC0E0EAC0E0E9C0E0EE121EF3D024
:101CAA00E0F9D0E0FAD0E0FB1215E8FF60AAEBC039
:101CBA00E0EAC0E0E9C0E0121B95D0E02401F9D0C7
:101CCA00E03400FAD0E0FBE53B0460DCD53BD98088
:101CDA0087D20280A2121ED660F7E53B7001041279
:101CEA00134EA93B600DE53B600914F53B121F7DBD
:101CFA00EF60F3EA30E702F404C3995077EAF42577
:101D0A003B0430E701E404F53B800D121ED660C1A6
:101D1A00EA053B253B12134EEA7838F630E701E430
:101D2A00253B04D53B0420050114121EF3E4C0E050
:101D3A00121F7D7838E6601320E70714F6121B7D20
:101D4A00802204F6D0E014C0E07F00121B7DE53B40
:101D5A006007121B74153B800B300503121B74D0ED
:101D6A00E0021BCED0E00480C5121ED660A0E53B7F
:101D7A000412134E7838EAF6E53B200502600104A6
:051D8A002404121EF309
:101D8F0074FF04C0E0121F7D121B7DE53B2005028E
:101D9F006003121B74D0E0B53BE87F45121B8778B8
:101DAF0038E67F2B30E7047F2DF404C0E0121B953B
:101DBF00D0E075F00A84C0F0121B7ED0E0121B7EBB
:101DCF00021BCE791080027908C206C2088008D2A1
:101DDF00D5790A8004790AC2D5E53B047002F53B38
:101DEF00E4FAFDFEFF121B5AFC7B08200113121BA5
:101DFF005AFD7B1030000A121B5AFE121B5AFF7B32
:101E0F0020EC3382D592D55013C3E43000069FFFE8
:101E1F00E49EFEE42001039DFDE49CFCE4CBF8C2AC
:101E2F0001EC700CCFCECDCCE824F8F870F380170E
:101E3F00C3EF33FFEE33FEED33FDEC33FCEB33FB3F
:101E4F00994002FB0FD8E9EB300105F8D0E0C44808
:101E5F00B201C0E00AEC4D4E4F78207B0070C2EA11
:101E6F00B53B0040BCC0E0121EF5D0F0D0E0200121
:101E7F0004C4C0E0C4B201C0F0121B7ED0F0D5F094
:101E8F00EB021BCE12166A1C6B531DD2581C3C4C16
:101E9F001C38421DD64F1DDE441DDE491C51431D0B
:101EAF00E4551D15461D73451CDF471FAA501C40E6
:101EBF002D1C442E1C672B1C48231C65201F932AA6
:101ECF001C004800001C5FE53BB4FF03753B061286
:101EDF001B5AFC121B5AFD121B5AFE121B5AFF787B
:101EEF003102137D790AA2D5200314300509B910E8
:101EFF00020404B9080104A2D520060250010420EF
:101F0F0002689202B53A005034C0E07F20300319C6
:101F1F007F30A20272067205500F121F4CC202C20E
:101F2F0006C205C2087F30800F300503E9C0E012FA
:101F3F001B95300503D0E0F9D0E0B53ACC3005174A
:101F4F007F30B9100C121B957F583004077F7880B3
:101F5F0003B90803121B953002057F2D021B957FD5
:101F6F00202008F87F2B2006F322920280CF7F00DB
:101F7F00B4070050052431F8E6FF22286E756C6C0B
:101F8F002900D201121B5A3001F8C201783A30D51C
:101F9F000108F6021C002D50434958121B5A240306
:101FAF00B405004001E4901FA593121B86743A12EA
:0A1FBF001B86D203753A04021DD2FE
:10130400E9D2E7C933E833F892D5EDD2E7CD33EC2F
:0713140033FC5002B2D522A8
:10131B00EC30E7100FBF000C0EBE00080DBD000433
:10132B000BEB6014A2D5EB13FCED92E7FD2274FFDF
:10133B00FCFDFEFF22E480F8A2D574FF13FC7D8038
:03134B00E480EF4C
:10134E00F920E72824F950037907E4F42402FB1866
:10135E00DBFDE624FB5014E9600DE4F618E604F616
:0F136E00B40A08E4F6D9F57401F60A22C2D522B2
:10137D00ED33EC3392D5FA602AB4FF33EDC2E77B3F
:10138D00FF60067A1379A2E4227A1379AB20D50493
:10139D007A1379A6224E614E002B494E46002D49F7
:1013AD004E4600E47A08F608DAFC7B00740722E862
:1013BD00C0E0ECC0E0EDC0E0EEC0E0EFC0E0EA75EB
:1013CD00F010A4CAABF075F04DA42BFBE435F0FC86
:1013DD00EA2410FAEB34C5FBEC34D9FCEDC2E7FF7F
:1013ED0075F056A4F42411C5F0F434C58FF0A42A79
:1013FD00E5F03BE43CF620E7141215A8D0E0FFD051
:10140D00E0FED0E0FDD0E0FC1211F28014F40412E5
:10141D0015A8D0E0FFD0E0FED0E0FDD0E0FC12102A
:10142D00E9D0E0F8E6FAEDD2E7CD33EC332482FBD8
:10143D00E4C3CF33CFCE33CECD33CD33DBF37B0708
:10144D0075F00A846004F6081B0AE5F0F6088FF0C3
:10145D00740AA4FFACF08EF0740AA42CFEACF0500C
:10146D00010C8DF0740AA42CFDE435F0F608DBDEDA
:03147D00740722CF
:10148000021339E86480F8E933E83360110460F04E
:10149000ED33EC337009E8FCE9FDEAFEEBFF2204D2
:1014A00060DED3EB9FEA9EE99DE8C2E78CF0C2F7CD
:1014B00095F0400CE8CCF8E9CDF9EACEFAEBCFFB99
:1014C00012130485D0F05804700320D5B3E80470DB
:1014D000075002B2D502134392D5EC0460F7E4CC76
:1014E000C0E0C398F8603B94186008400DD0E0FB62
:1014F00002131BE4FBFAC9FC8028E830E406E4C9C7
:10150000FBE4CAFCE830E305E4C9CACBFCE85407B5
:101510006010F8C3E913F9EA13FAEB13FBEC13FCC0
:10152000D8F130F52FC3E49CFCEF9BFFEE9AFEED63
:1015300099FDD0E0FBEF4E4D4C701222DB030213FD
:1015400040EC2CFCEF33FFEE33FEED33FDED30E7E6
:10155000EB02131BEF2BFFEE3AFEED39FDD0E0FB63
:1015600050130BBB0003021343ED13FDEE13FEEF0C
:0815700013FFEC13FC02131B36
:101578003F8000004120000042C80000447A00007B
:10158800461C400047C35000497424004B189680FD
:101598004CBEBC205A0E1BCA6753C21C749DC5AEF4
:1015A800FB60065407601C23231215D6EB543860E1
:1015B800091215C21215D11210E9ECF8EDF9EEFA7C
:1015C800EFCB22EB1215D180F1543803241C90156F
:1015D80078FE93FC0EEE93FD0EEE930ECE93FF2253
:102A1800022B52E493A3F8E493A34003F68001F257
:102A280008DFF48029E493A3F85407240CC8C333BF
:102A3800C4540F4420C8834004F456800146F6DF8E
:102A4800E4800B0102040810204080902C5FE47E93
:102A5800019360BCA3FF543F30E509541FFEE49383
:102A6800A360010ECF54C025E060A840B8E493A34A
:102A7800FAE493A3F8E493A3C8C582C8CAC583CA75
:102A8800F0A3C8C582C8CAC583CADFE9DEE780BE2D
:012C8400004F
:1015E800BB010689828A83E0225002E722BBFE0201
:0915F800E32289828A83E4932234
:10160100BB010CE58229F582E5833AF583E022509E
:1016110006E92582F8E622BBFE06E92582F8E222E8
:0D162100E58229F582E5833AF583E4932202
:10162E00BB010689828A83F0225002F722BBFE019B
:02163E00F32295
:0E164000C3E49FFFE49EFEE49DFDE49CFC22BB
:0C164E00A42582F582E5F03583F58322A7
:10165A00FAE6FB0808E6F925F0F618E6CA3AF62291
:10166A00D083D082F8E4937012740193700DA3A30F
:10167A0093F8740193F5828883E473740293686023
:06168A00EFA3A3A380DF23
:102C3800EFB40A07740D122C43740A309811A8993E
:102C4800B8130CC2983098FDA899C298B811F630FC
:072C580099FDC299F59922D4
:082DEC00EF30E703F404FF22BD
:10169000EF4E6012EF60010EEDBB010B89828A8371
:1016A000F0A3DFFCDEFA2289F05007F709DFFCA97E
:0C16B000F022BBFEFCF309DFFCA9F022D5
:00000001FF
