:03000000026D9FEF
:0C6D9F00787FE4F6D8FD758122026DE6D5
:106EAE009002F77451F0A37446F0A37440F0A374EB
:106EBE0035F07B32E4FD7F04126B9A9002F7743248
:106ECE00F0A37435F0A3E4F0A37402F0A3740AF0F7
:106EDE00A37402F0A37432F0A37434F0A3E4F0A30D
:106EEE007403F0A37409F0A37403F0A37432F0A337
:106EFE007434F0A3E4F0A37403F0A3740AF0A37443
:106F0E0001F0A37432F0A37435F0A37405F0A374EA
:106F1E0035F0A3F07B047D077F01124F900270992C
:03000300020006F2
:0100060032C7
:03000B0002723747
:10723700C0E0C0F0C083C082C0D075D0081271739F
:0B724700D0D0D082D083D0F0D0E03255
:03001B000272521C
:10725200C0E0C0F0C083C082C0D075D008127316DF
:0B726200D0D0D082D083D0F0D0E0323A
:0973050025730A00456E642100A5
:10711D006027025F61A800C8003A03202D025802C3
:10712D000D020D021C048304420451041A06C70605
:0E713D0063001404B002BC07D007D0011B0091
:067024007D167F017E00D5
:10702A008E158F16ED24EB601D14603C2402705EF1
:10703A00E5161516AE1570021515D39400EE9400D8
:10704A00404C000080EAE5161516AE1570021515BB
:08705A00D39400EE94004036CF
:0E706200000075100C7511A8D511FDD510FA9F
:1070700080DEE5161516AE1570021515D39400EED8
:047080009400401424
:1070840075122E7513997514F5D514FDD513FAD50B
:0270940012F7F1
:0270960080DA9E
:0170980022D5
:1072E700438780759850438E04759CD9438E01431C
:0372F7008E1022D4
:0B72FA00E4F5D8F5F9F5E975D9082294
:10726D00EF75F019A4FFAEF07C007D0A123FBD8FC3
:0A727D00EA8FFA75DA42E4F5F22216
:10728700EF75F019A4FFAEF07C007D0A123FBD8FA9
:0A729700EB8FFB75DB42E4F5F322F8
:1072BB00438E805389F0438901758A20758CD1C226
:0672CB008DD2A9D2AF2212
:1072D100538EBF53890F438910758BE0758DB1C2F1
:0672E1008FD2ABD2AF22F8
:10717300758A20758CD1E51F2401F51FE4351EF5B2
:107183001EE4351DF51DE4351CF51C900046E0B4E6
:067193000B0312421C2256
:07731600758BE0758DB122BB
:0D000E00E4F5C7F5C5F5C675C380F5C4223D
:1071DE0075C78375C5018FC4EEF5C375C65A75C6DE
:0F71EE00A57D147F0A7E0012702AAFC212000E18
:0171FD00226F
:1071BD0075C78375C5028FC4EEF5C3AF058FC27554
:1071CD00C65A75C6A57D147F0A7E0012702A02006C
:0171DD000EA3
:1071FE0075C78375C5038FC4EEF5C375C65A75C6BC
:0D720E00A57D147F0A7E0012702A02000E7A
:1072A100D2B220B2FD7D157F147E0012702A30B259
:0A72B100FD7D157F007E0102702AAA
:106B9A009002F4EFF0A3EDF0A3EBF0E4F597759310
:106BAA00FFF594F5917592FC7595F075960FD2A143
:106BBA00D2A3C2DEC2971272E7D2991272FA127285
:106BCA00BB1272D1D28CD28EE4F51FF51EF51DF5DB
:106BDA001CFE7F40FD7B017A0079001241F07E01A4
:106BEA007FA47D0B7B017A0079B51241F0E4900213
:106BFA005DF0A37432F09002F4E0900059F0900234
:106C0A00F5E090005AF09002F6E0900061F09002F0
:106C1A00F7E0900062F09002F8E0900063F09002D2
:106C2A00F9E0900064F09002FAE0900065F0E490D8
:106C3A000043F0FD7F2B125781E4FD7F2C12578110
:106C4A00E4FD7F2D125781E4FD7F2E125781E4FD6A
:086C5A007F2A1257810272A18A
:10709900C2AFE4900043F0FD7F2B125781E4FD7FDE
:1070A9002C125781E4FD7F2D125781E4FD7F2E12AA
:1070B9005781E4FD7F2A1257819002F774FFF0A3EC
:1070C9007473F0A37409F07BFF7A7379051247DEB4
:0270D90080FE37
:1070DB009003BBEFF0900062E06F60359003BBE074
:1070EB00B4510C7D9C7F2B12578130B30C80FB7DF0
:1070FB00647F2B12578120B4FD7D157F147E001207
:10710B00702AE4FD7F2B1257819003BBE090006245
:02711B00F02260
:106947009003BCEFF0900064E06F7003026A7D90E3
:1069570003BCE024C36023146069147003026A1047
:10696700147003026A5824046003026A6E7D647F10
:106977002C12578120B5FD026A62900064E024C2A0
:10698700601A14602414602E24046003026A6E7D6A
:106997009C7F2C125781900268026A517D647F2C7C
:1069A70012578190026A026A517D647F2C125781C7
:1069B700900276026A517D647F2C12578190027A89
:1069C700026A51900064E024C3601A24FE60221416
:1069D700602B24046003026A6E7D9C7F2C12578112
:1069E70090027080657D9C7F2C12578190026A808F
:1069F700597D647F2C12578190026C804D7D647F96
:106A07002C1257819002728041900064E024C36089
:106A17001714602024FE60282404704B7D9C7F2C73
:106A270012578190027880227D9C7F2C125781908B
:106A3700027480167D9C7F2C12578190026C800A0D
:106A47007D647F2C12578190026EE0FEA3E0FF80E9
:106A5700117D9C7F2C12578120B6FD900267E0FFC5
:106A67007E007D1512702AE4FD7F2C12578190035A
:076A7700BCE0900064F02276
:1066A6009003BDEFF0900063E06F70030267FFC2D6
:1066B600969003BDE024BAB4090040030267F09047
:1066C60066D375F003A4C58325F0C583730266EE11
:1066D6000266FD0267190267390267580267770288
:1066E60067960267B50267D77D647F2D125781C210
:1066F6009620A4FD0267E3900063E0FF9003BDE0EF
:10670600D39F40057D9C0267CD7F481266A67D64B7
:106716000267CD900063E0FF9003BDE0C39F500485
:106726007D6480027D9C7F2D125781C29620A5FD37
:106736000267E3900063E0FF9003BDE0D39F40094A
:106746007F481266A67D9C80077F4A1266A67D64F6
:106756008075900063E0FF9003BDE0C39F50047D09
:106766006480027D9C7F2D125781C29620A6FD80F3
:106776006C900063E0FF9003BDE0D39F40097F4A21
:106786001266A67D9C80077F4C1266A67D648037C4
:10679600900063E0FF9003BDE0C39F50047D6480DA
:1067A600027D9C7F2D125781C29620A7FD802E90D8
:1067B6000063E0FF9003BDE0D39F40097F4C126663
:1067C600A67D9C80027D647F2D1257819002658094
:1067D6000F7D9C7F2D125781D29620A4FD900263D7
:1067E600E0FEA3E0FF7D1512702AE4FD7F2D12570F
:0A67F600819003BDE0900063F022E3
:106548009003BEEFF0900065E0FE6F70030266A551
:10655800D2969003BEE024CD605814700302660200
:1065680014700302664924036003026696EE24CC85
:10657800602014602D240260030266967D9C7F2EA5
:1065880012578112702420A5FD30A5FD20A5FD021B
:1065980066897D647F2E12578112702420A5FD0222
:1065A80066897D9C7F2E12578112702420A5FD02DA
:1065B8006689900065E024CC602014602D24036077
:1065C800030266967D647F2E12578112702420A5DF
:1065D800FD30A5FD20A5FD0266897D9C7F2E125702
:1065E8008112702420A5FD0266897D647F2E1257D2
:1065F8008112702420A5FD026689900065E024CDF3
:10660800601B24FE6026240360030266967D9C7F3F
:106618002E12578112702420A5FD0266897D647FA1
:106628002E12578112702420A5FD80557D9C7F2E47
:1066380012578112702420A5FD30A5FD20A5FD80EC
:1066480040900065E024CD60161460222402703E5C
:106658007D647F2E12578112702420A5FD80227D33
:106668009C7F2E12578112702420A5FD80137D6413
:106678007F2E12578112702420A5FD30A5FD20A57C
:10668800FD90027CE0FEA3E0FF7D1512702AE4FD78
:0E6698007F2E1257819003BEE0900065F02225
:046800007D347F3E26
:106804009003B7EFF0A3EDF024CE60331460452479
:10681400FE601804705C900065E024CE600914608A
:106824000824FE704D803C803A803C900065E02452
:10683400CE6008146007147039802C802A8024905C
:106844000065E024CD600B24FE60050470248017ED
:106854008011800F900065E024CE600F24FD600756
:1068640004700F7D9C80067D6480027D647F2E12FF
:1068740057819003B7E0FF126947D29612702490B3
:1068840003B8E024CD6034146055146077240360A9
:1068940003026937900065E024CC60151460172466
:1068A40002600302693720A5FD30A5FD20A5FD8007
:1068B4007520A5FD807020A5FD806B900065E02407
:1068C400CC60121460142403706920A5FD30A5FD6A
:1068D40020A5FD805120A5FD804C20A5FD8047907A
:1068E4000065E024CD600D24FE600E240370442076
:1068F400A5FD803220A5FD802D20A5FD30A5FD201D
:10690400A5FD8022900065E024CD600C14600E2467
:1069140002702020A5FD800E20A5FD800920A5FD84
:1069240030A5FD20A5FD90027CE0FEA3E0FF7D15CF
:1069340012702AE4FD7F2E1257819003B8E0900074
:0369440065F022D9
:09525A0090038EEFF0A3EDF0FBD0
:10526300A312416D0000000090039412416D0000F1
:10527300FFFFE4900398F0A3F0A3F0900065E0FF34
:105283006B700302532190038FE024CD601C1460E4
:105293002E1460432403706EEF24CC60091460085D
:1052A30024027062802D803E8040900065E024CC13
:1052B30060091460082403704D803E802D80279080
:1052C3000065E024CD600A24FE6008240370378063
:1052D3001980137D9C8024900065E024CD600B141D
:1052E3006017240270207D6480027D9C7F2E1257FC
:1052F300819003997401F0800D7D647F2E12578194
:105303009003997402F0E51F24E8FFE51E3403FEC1
:10531300E4351DFDE4351CFC9003941241619000BB
:1053230063E0FF90038EE0FE6F6016EEC39F5004B0
:105333007D6480027D9C7F2D1257819003980254D7
:10534300E190005EE0700990005DE0700302551A81
:10535300900398E0FB6401600302547990038EE0AC
:1053630024BAB4090040030254AD90537B75F00393
:10537300A4C58325F0C583730253960253AA02532F
:10538300C50253D80253EE02540102541702542AA1
:10539300025445C2967D147F147E0012702A30A4F5
:1053A300030254AD025453C2967D147F147E00123F
:1053B300702A900063E06446602F30A5030254AD69
:1053C300807BC2967D147F147E0012702A30A50361
:1053D3000254AD807BC2967D147F147E0012702A26
:1053E30030A50630A6030254AD8052C2967D147FC9
:1053F300147E0012702A30A6030254AD8052C29666
:105403007D147F147E0012702A30A60630A7030293
:1054130054AD8029C2967D147F147E0012702A3009
:10542300A7030254AD8029C2967D147F147E001217
:10543300702A30A708900063E0644E706D90026597
:105443008011D2967D147F147E0012702A20A45AF4
:10545300900263E0FEA3E0FFEF251FFFEE351EFE83
:10546300E4351DFDE4351CFC90039012416190036B
:10547300987402F08034EBB40230AF1FAE1EAD1D42
:10548300AC1C900390E0F8A3E0F9A3E0FAA3E0FBDF
:10549300D31241505014E4FD7F2D125781E4900341
:1054A30098F090038EE0900063F0AF1FAE1EAD1D29
:1054B300AC1C900394E0F8A3E0F9A3E0FAA3E0FBAB
:1054C300D31241504003025344900399E0602CD21D
:1054D300967D147F147E0012702A30A507A37401F1
:1054E300F002534490039AE0640160030253449032
:1054F3000399E014F0E4A3F0025344E4FD7F2E1279
:10550300578190039412416D0000FFFF90038FE0D9
:07551300900065F002534413
:01551A00226E
:0B4BF600900380EFF0A3EDF0A3EBF0C4
:104C0100A312416D0000000090038712416D000066
:104C1100FFFFE490038BF0A3F0A3F0C222900065A4
:104C2100E0FF6B7003024CC1900382E024CD601C55
:104C310014602E1460432403706EEF24CC600914B9
:104C4100600824027062802D803E8040900065E003
:104C510024CC60091460082403704D803E802D80AF
:104C610027900065E024CD600A24FE6008240370CB
:104C710037801980137D9C8024900065E024CD60ED
:104C81000B146017240270207D6480027D9C7F2EAE
:104C910012578190038C7401F0800D7D647F2E1278
:104CA100578190038C7402F0E51F24E8FFE51E3460
:104CB10003FEE4351DFDE4351CFC900387124161C0
:104CC100900063E0FF900381E0FE6F6016EEC39FEA
:104CD10050047D6480027D9C7F2D12578190038B4F
:104CE100024F5690005EE0700F90005DE0700990F9
:104CF100038BE07003024F8F90038BE024FE70035F
:104D0100024E40147003024E79147003024E9B143C
:104D11007003024EF224046003024F22900381E0EB
:104D210024BAB409004003024F22904D3975F003B3
:104D3100A4C58325F0C58373024D54024D68024D0D
:104D410084024D98024DAE024DC1024DD7024DEA8B
:104D5100024E08C2967D147F147E0012702A30A480
:104D610003024F22024E19C2967D147F147E001257
:104D7100702A900063E06446603130A503024F223F
:104D8100024E03C2967D147F147E0012702A30A554
:104D910003024F22024E19C2967D147F147E001227
:104DA100702A30A50630A603024F228055C2967D97
:104DB100147F147E0012702A30A603024F228058FD
:104DC100C2967D147F147E0012702A30A60630A789
:104DD10003024F22802CC2967D147F147E00127034
:104DE1002A30A703024F22802FC2967D147F147EA2
:104DF1000012702A30A70B900063E0644E6003023A
:104E01004F229002658014D2967D147F147E001289
:104E1100702A30A403024F22900263E0FEA3E0FF58
:104E2100EF251FFFEE351EFEE4351DFDE4351CFCAC
:104E310090038312416190038B7402F0024F22AF01
:104E41001FAE1EAD1DAC1C900383E0F8A3E0F9A3D7
:104E5100E0FAA3E0FBD31241504003024F22E4FDEC
:104E61007F2D125781E490038BF07403F09003813E
:104E7100E0900063F0024F22900380E0B440047D93
:104E81009C8009900380E0B43C077D647F2C12571D
:104E91008190038B7404F0024F22900380E0FBB4F5
:104EA100402420B621900267E0FFEF251FFFE43583
:104EB1001EFEE4351DFDE4351CFC900383124161A7
:104EC10090038B7405F0EB643C705620B55390024F
:104ED10067E0FFEF251FFFE4351EFEE4351DFDE40D
:104EE100351CFC90038312416190038B7405F080A3
:104EF10030AF1FAE1EAD1DAC1C900383E0F8A3E0E4
:104F0100F9A3E0FAA3E0FBD31241505014E4FD7F72
:104F11002C125781E490038BF0900380E0900064A1
:104F2100F0AF1FAE1EAD1DAC1C900387E0F8A3E0EF
:104F3100F9A3E0FAA3E0FBD31241504003024CE491
:104F410090038CE0602CD2967D147F147E00127049
:104F51002A30A507A37401F0024CE490038DE064AC
:104F6100016003024CE490038CE014F0E4A3F0022E
:104F71004CE4E4FD7F2E12578190038712416D00AE
:0E4F810000FFFF900382E0900065F0024CE418
:014F8F0022FF
:106F2E00E4F09002EBE0FFA3E0900355F09002ED49
:106F3E00E0900356F09002EEE0900357F09002EFCF
:106F4E00E0900358F09002F0E0900359F09002F1B7
:106F5E00E090035AF09002F2E090035BF0A374828B
:016F6E00F032
:056F6F00900354EFF057
:106F7400E0FF90037D7401F0A37403F0A37455F053
:106F8400800CEE6482601DEEC39F5002AF06900336
:106F94007DE0FBA3E475F00112405EA9F0FA123E15
:046FA400FEFE80DE8F
:016FA80022C6
:05625000EF14FD7F2D9D
:106255009003BAEDF09003B9EFF0642F6003026389
:1062650087A3E0B4080040030263D2906277F82860
:10627500287302628F0262AC0262C90262E50263A0
:1062850001026323026345026367900064E0B44042
:1062950009A3E0643470030263D2900065E0B4356D
:1062A50003126800026382900064E0B43F09A3E032
:1062B500643470030263D2900065E0B4350312685C
:1062C50000026363900064E0B43D09A3E0643470A8
:1062D500030263D2900065E0B43503126800805C68
:1062E500900064E0B43C09A3E0643470030263D217
:1062F500900065E0B43503126800801E900064E0EC
:10630500B43C09A3E0643570030263D2900065E0F4
:10631500B434077D357F3E1268047F3C8061900070
:1063250064E0B43D09A3E0643570030263D29000D4
:1063350065E0B434077D357F3E1268047F3D803FBC
:10634500900064E0B43F09A3E0643570030263D2B2
:10635500900065E0B434077D357F3E1268047F3FC9
:10636500801D900064E0B44006A3E06435605E9053
:106375000065E0B434077D357F3E1268047F400236
:1063850069479003B9E0642D7043A3E014600F14CE
:10639500601014601114601224047012801B7F4871
:1063A50080287F4A80247F4C80207F4E801C90036C
:1063B500BAE0C36480948050047F46800D9003BA90
:0E63C500E0D36480948540057F4E1266A622C8
:1022E10090039BEFF0A3EDF0A3EBF0A3EAF0A3E9D9
:0122F100F0FC
:1022F200123EFEFF900001123F17900355F090002E
:1023020002123F17900356F0900003123F179003FA
:1023120057F0900004123F17900358F090000512F6
:102322003F17900359F0900006123F1790035AF09E
:10233200900007123F17126F679003A3EFF090030C
:102342009BE0FF600E6401600AEF64026005EF64C7
:1023520003703D900065E06434702890039DE0FBBB
:10236200A3E0FAA3E0F9123EFEFF900001123F172C
:10237200900355F0900002123F17900356F0900020
:10238200038059900065E064356003022448805C54
:1023920090039BE0FF64046012EF6405600DEF643C
:1023A200066008EF64076003022448900065E06459
:1023B20035703190039DE0FBA3E0FAA3E0F99000B1
:1023C20004123F17FF900005123F17900355F0903B
:1023D2000006123F17900356F0900007123F179025
:1023E2000357805C900065E06434705A90039DE06E
:1023F200FBA3E0FAA3E0F9123EFEFF900001123FB8
:1024020017900355F0900002123F17900356F09078
:102412000003123F17900357F0900004123F1790E9
:102422000358F0900005123F17900359F0900006F0
:10243200123F1790035AF0900007123F1790035B68
:10244200126F6A12625090039BE0FD7F2F12625559
:1024520090039DE0FBA3E0FAA3E0F990039BE0F573
:1024620082758300123F17FD7F2D1262557F501235
:1024720070DB90039BE0FEB408004003022FC6907D
:102482002488F82828730224A002259A0226FB0237
:1024920028380229A8022B18022C55022DDD9003A0
:1024A2009CE0FD14B407004003022FC69024BC75C3
:1024B200F003A4C58325F0C583730224D10224EA64
:1024C2000224EC02251702254202254402256F90C0
:1024D20003A3E02402FFC00790039DE0FBA3E0FA00
:1024E200A3E0F98E820225E080589003A3E0240243
:1024F200FFC00790039DE0FBA3E0FAA3E0F990037D
:102502009BE0F582758300123F1704900355F0900B
:102512000001022A7D9003A3E02402FFC00790037A
:102522009DE0FBA3E0FAA3E0F990039BE0F582753E
:102532008300123F1704900355F090000102291006
:1025420080009003A3E02402FFC00790039DE0FBFC
:10255200A3E0FAA3E0F990039BE0F58275830012F1
:102562003F1704900355F0900001022D399003A308
:10257200E02402FFC00790039DE0FBA3E0FAA3E082
:10258200F990039BE0F582758300123F17049003D4
:1025920055F090000102299B90039CE0FDB40800D5
:1025A2004003022FC69025AEF82828730225C602E2
:1025B2002FC60225F002261E022649022674022692
:1025C200A20226D09003A3E02402FFC00790039D3D
:1025D200E0FBA3E0FAA3E0F990039BE0F5827583A8
:1025E20000123F1704900355F08D82022FAA900328
:1025F200A3E02402FFC00790039DE0FBA3E0FAA33F
:10260200E0F990039BE0F582758300123F17049076
:102612000355F090039CE0F582022FAA9003A3E0F9
:102622002402FFC00790039DE0FBA3E0FAA3E0F9B8
:1026320090039BE0F582758300123F1704900355C7
:10264200F0900002022D399003A3E02402FFC0079C
:1026520090039DE0FBA3E0FAA3E0F990039BE0F571
:1026620082758300123F1704900355F09000050213
:102672002D399003A3E02402FFC00790039DE0FBE5
:10268200A3E0FAA3E0F990039BE0F58275830012C0
:102692003F1704900355F090039CE0F582022FAAA5
:1026A2009003A3E02402FFC00790039DE0FBA3E098
:1026B200FAA3E0F990039BE0F582758300123F17BD
:1026C20004900355F090039CE0F582022FAA900338
:1026D200A3E02402FFC00790039DE0FBA3E0FAA35E
:1026E200E0F990039BE0F582758300123F17049096
:1026F2000355F0900006022D3990039CE0FDB408CA
:10270200004003022FC690270FF8282873022727BC
:1027120002272A022FC60227580227860227B10261
:1027220027DF02280D022C819003A3E02402FFC0C0
:102732000790039DE0FBA3E0FAA3E0F990039BE07E
:10274200F582758300123F1704900355F090039CA5
:10275200E0F582022FAA9003A3E02402FFC00790B3
:10276200039DE0FBA3E0FAA3E0F990039BE0F5826E
:10277200758300123F1704900355F090039CE0F517
:1027820082022FAA9003A3E02402FFC00790039DB8
:10279200E0FBA3E0FAA3E0F990039BE0F5827583E6
:1027A20000123F1704900355F0900005022D399056
:1027B20003A3E02402FFC00790039DE0FBA3E0FA1D
:1027C200A3E0F990039BE0F582758300123F1704A2
:1027D200900355F090039CE0F582022FAA9003A388
:1027E200E02402FFC00790039DE0FBA3E0FAA3E010
:1027F200F990039BE0F582758300123F1704900362
:1028020055F090039CE0F582022FAA9003A3E024E6
:1028120002FFC00790039DE0FBA3E0FAA3E0F9905A
:10282200039BE0F582758300123F1704900355F075
:10283200900006022D3990039CE0FDB4080040038D
:10284200022FC690284CF828287302286402288F89
:102852000228BA022FC60228E802291D02294802CC
:1028620029739003A3E02402FFC00790039DE0FBBD
:10287200A3E0FAA3E0F990039BE0F58275830012CE
:102882003F1704900355F0900002022E2E9003A3EE
:10289200E02402FFC00790039DE0FBA3E0FAA3E05F
:1028A200F990039BE0F582758300123F17049003B1
:1028B20055F0900002022D399003A3E02402FFC0DC
:1028C2000790039DE0FBA3E0FAA3E0F990039BE0ED
:1028D200F582758300123F1704900355F090039C14
:1028E200E0F582022FAA9003A3E02402FFC0079022
:1028F200039DE0FBA3E0FAA3E0F990039BE0F582DD
:10290200758300123F1704900355F0900002123FA6
:1029120017900356F0900005022EE69003A3E024E0
:1029220002FFC00790039DE0FBA3E0FAA3E0F99049
:10293200039BE0F582758300123F1704900355F064
:10294200900002022D399003A3E02402FFC00790F9
:10295200039DE0FBA3E0FAA3E0F990039BE0F5827C
:10296200758300123F1704900355F0900002022D68
:10297200399003A3E02402FFC00790039DE0FBA36C
:10298200E0FAA3E0F990039BE0F582758300123F21
:102992001704900355F0900002123F17900356F06F
:1029A200900006022EE690039CE0FDB4080040036E
:1029B200022FC69029BCF82828730229D40229FFC5
:1029C200022A2A022A55022FC6022A8A022AB8029B
:1029D2002AE39003A3E02402FFC00790039DE0FBDB
:1029E200A3E0FAA3E0F990039BE0F582758300125D
:1029F2003F1704900355F0900005022E2E9003A37A
:102A0200E02402FFC00790039DE0FBA3E0FAA3E0ED
:102A1200F990039BE0F582758300123F170490033F
:102A220055F0900005022D399003A3E02402FFC067
:102A32000790039DE0FBA3E0FAA3E0F990039BE07B
:102A4200F582758300123F1704900355F09000053C
:102A5200022D399003A3E02402FFC00790039DE0FA
:102A6200FBA3E0FAA3E0F990039BE0F582758300F3
:102A7200123F1704900355F0900005123F17900380
:102A820056F0900002022EE69003A3E02402FFC05B
:102A92000790039DE0FBA3E0FAA3E0F990039BE01B
:102AA200F582758300123F1704900355F090039C42
:102AB200E0F582022FAA9003A3E02402FFC0079050
:102AC200039DE0FBA3E0FAA3E0F990039BE0F5820B
:102AD200758300123F1704900355F0900005022DF4
:102AE200399003A3E02402FFC00790039DE0FBA3FB
:102AF200E0FAA3E0F990039BE0F582758300123FB0
:102B02001704900355F0900005123F17900356F0FA
:102B1200900006022EE690039CE0FDB408004003FC
:102B2200022FC6902B2CF8282873022B44022B4725
:102B3200022B75022BA3022BCE022FC6022BFC0204
:102B42002C2A022C819003A3E02402FFC0079003E9
:102B52009DE0FBA3E0FAA3E0F990039BE0F5827508
:102B62008300123F1704900355F090039CE0F58216
:102B7200022FAA9003A3E02402FFC00790039DE066
:102B8200FBA3E0FAA3E0F990039BE0F582758300D2
:102B9200123F1704900355F090039CE0F582022F38
:102BA200AA9003A3E02402FFC00790039DE0FBA3C9
:102BB200E0FAA3E0F990039BE0F582758300123FEF
:102BC2001704900355F0900002022D399003A3E000
:102BD2002402FFC00790039DE0FBA3E0FAA3E0F903
:102BE20090039BE0F582758300123F170490035512
:102BF200F090039CE0F582022FAA9003A3E0240246
:102C0200FFC00790039DE0FBA3E0FAA3E0F9900365
:102C12009BE0F582758300123F1704900355F090F4
:102C2200039CE0F582022FAA9003A3E02402FFC0D6
:102C32000790039DE0FBA3E0FAA3E0F990039BE079
:102C4200F582758300123F1704900355F090000639
:102C5200022D3990039CE0FDB408004003022FC608
:102C6200902C69F8282873022C81022CB5022CE3DF
:102C7200022D11022D49022D81022FC6022DAF9085
:102C820003A3E02402FFC00790039DE0FBA3E0FA48
:102C9200A3E0F990039BE0F582758300123F1704CD
:102CA200900355F0900001123F17900356F08D8269
:102CB200022F749003A3E02402FFC00790039DE05B
:102CC200FBA3E0FAA3E0F990039BE0F58275830091
:102CD200123F1704900355F090039CE0F582022FF7
:102CE200AA9003A3E02402FFC00790039DE0FBA388
:102CF200E0FAA3E0F990039BE0F582758300123FAE
:102D02001704900355F090039CE0F582022FAA90DD
:102D120003A3E02402FFC00790039DE0FBA3E0FAB7
:102D2200A3E0F990039BE0F582758300123F17043C
:102D3200900355F0900002123F17900356F0900353
:102D42009CE0F582022F749003A3E02402FFC007E7
:102D520090039DE0FBA3E0FAA3E0F990039BE0F56A
:102D620082758300123F1704900355F090000512FC
:102D72003F17900356F090039CE0F582022F749067
:102D820003A3E02402FFC00790039DE0FBA3E0FA47
:102D9200A3E0F990039BE0F582758300123F1704CC
:102DA200900355F090039CE0F582022FAA9003A3B2
:102DB200E02402FFC00790039DE0FBA3E0FAA3E03A
:102DC200F990039BE0F582758300123F170490038C
:102DD20055F090039CE0F582022FAA90039CE0FD3F
:102DE200B407004003022FC6902DF1F82828730281
:102DF2002E06022E44022E7C022EB4022EF5022F43
:102E02003F022F7F9003A3E02402FFC00790039D9F
:102E1200E0FBA3E0FAA3E0F990039BE0F58275835F
:102E220000123F1704900355F0900006123F1790CE
:102E32000356F0900001123F17900357F08D820263
:102E42002F349003A3E02402FFC00790039DE0FB10
:102E5200A3E0FAA3E0F990039BE0F58275830012E8
:102E62003F1704900355F0900006123F1790035647
:102E7200F090039CE0F582022F749003A3E02402F9
:102E8200FFC00790039DE0FBA3E0FAA3E0F99003E3
:102E92009BE0F582758300123F1704900355F09072
:102EA2000006123F17900356F090039CE0F5820251
:102EB2002F749003A3E02402FFC00790039DE0FB60
:102EC200A3E0FAA3E0F990039BE0F5827583001278
:102ED2003F1704900355F0900006123F17900356D7
:102EE200F0900002123F17900357F090039CE0F518
:102EF20082803F9003A3E02402FFC00790039DE07D
:102F0200FBA3E0FAA3E0F990039BE0F5827583004E
:102F1200123F1704900355F0900005123F179003DB
:102F220056F0900006123F17900357F090039CE072
:102F3200F582758300123F1790035880749003A3A3
:102F4200E02402FFC00790039DE0FBA3E0FAA3E0A8
:102F5200F990039BE0F582758300123F17049003FA
:102F620055F0900006123F17900356F090039CE034
:102F7200F582758300123F1790035780349003A3A4
:102F8200E02402FFC00790039DE0FBA3E0FAA3E068
:102F9200F990039BE0F582758300123F17049003BA
:102FA20055F090039CE0F582758300123F17900361
:102FB20056F0A37482F0D007126F6FEF24FEFD7FEC
:102FC2002D12625590039CE0FD7F2F1262559003F3
:102FD2009DE0FBA3E0FAA3E0F990039CE0F5827583
:102FE2008300123F171262517F511270DB90039DD2
:102FF200E0FBA3E0FAA3E0F990039BE0F58275837E
:1030020000123F17FD3395E0FC90039BE075F0053D
:10301200A4FF9003A0E0FBA3E0FAA3E02FF9EA35B6
:10302200F0FAE92DF9EA3CFA123EFEFCC0049003E4
:103032009DE0FBA3E0FAA3E0F990039CE0F5827522
:103042008300123F17FF3395E0FEEF24FFFDEE34BD
:10305200FFFC90039CE075F005A4FF9003A0E0FB49
:10306200A3E0FAA3E02FF9EA35F0FAE92DF9EA3CF8
:10307200FAD0E0123F7790039DE0FBA3E0FAA3E0D1
:10308200F990039BE0F582758300123F17FD33959B
:10309200E0FC90039BE075F005A4FF9003A0E0FB29
:1030A200A3E0FAA3E02FF9EA35F0FAE92DF9EA3CB8
:1030B200FAE4123F7790039DE0FBA3E0FAA3E0F964
:1030C20090039BE0F5827583007401123F449003E4
:0C30D2009CE0F58275830074FF023F440F
:105B94007F3C1269477F40126947AF1FAE1EAD1D9F
:105BA400AC1C9003B01241617F3C1269477F4012E4
:105BB40069479003B0E0F8A3E0F9A3E0FAA3E0FB9F
:105BC400C3E51F9BFFE51E9AFEE51D99FDE51C98A4
:105BD400FC9003B01241619003B0E0FCA3E0FDA38C
:105BE400E0FEA3E0FFE4123AF5E4FBFAF9783F1291
:105BF40039EF123B339003B01241619003B0E0FCE3
:105C0400A3E0FDA3E0FEA3E0FFE4123AF5E4FBFA0F
:105C1400F9783F1239EF123B33900272EEF0A3EFA2
:105C2400F0900270EEF0A3EFF09003B0E0FCA3E07C
:105C3400FDA3E0FEA3E0FFE4123AF5E4FBFA7940A9
:105C4400783F1239EF123B33900278EEF0A3EFF075
:105C54009003B0E0FCA3E0FDA3E0FEA3E0FFE412A8
:105C64003AF57B4E7A627910783F1239EF123B3362
:105C740090027AEEF0A3EFF09003B0E0FCA3E0FD15
:105C8400A3E0FEA3E0FFE4123AF57B7B7A1479AE3D
:105C9400783E1239EF123B33900268EEF0A3EFF036
:105CA4009003B0E0FCA3E0FDA3E0FEA3E0FFE41258
:105CB4003AF57B8C7A4A798A783E1239EF123B3373
:105CC40090026EEEF0A3EFF09003B0E0FCA3E0FDD1
:105CD400A3E0FEA3E0FFE4123AF57B377A89794129
:105CE400783E1239EF123B3390026AEEF0A3EFF0E4
:105CF4009003B0E0FCA3E0FDA3E0FEA3E0FFE41208
:105D04003AF57BCD7ACC794C783E1239EF123B339D
:105D140090026CEEF0A3EFF09003B0E0FCA3E0FD82
:105D2400A3E0FEA3E0FFE4123AF5E4FBFAF9783FBE
:105D34001239EF123B33900274EEF0A3EFF0A3EEAE
:045D4400F0A3EFF0E9
:015D48002238
:06001E0090029312416103
:100024007E007F287D007B017A02799B1241F07E5D
:10003400007F287D007B017A0279C31241F07E00A3
:100044007F087D057B017A0279EB1241F07B807A8F
:100054009679987800900293E0FCA3E0FDA3E0FE7B
:10006400A3E0FF1240B0E47B0AFAF9F81240B09022
:10007400029CEBF07B407A42790F7800900293E087
:10008400FCA3E0FDA3E0FEA3E0FF1240B0E47B0A82
:10009400FAF9F81240B090029DEBF07BA07A8679D1
:1000A400017800900293E0FCA3E0FDA3E0FEA3E04E
:1000B400FF1240B0E47B0AFAF9F81240B090029EB5
:1000C400EBF0E47B107A27F9F8900293E0FCA3E0CC
:1000D400FDA3E0FEA3E0FF1240B0E47B0AFAF9F8C6
:1000E4001240B090029FEBF0E47BE87A03F9F890B9
:1000F4000293E0FCA3E0FDA3E0FEA3E0FF1240B006
:10010400E47B0AFAF9F81240B09002B0EBF0E47B19
:1001140064FAF9F8900293E0FCA3E0FDA3E0FEA3E7
:10012400E0FF1240B0E47B0AFAF9F81240B0900202
:10013400B1EBF0E47B0AFAF9F8900293E0FCA3E057
:10014400FDA3E0FEA3E0FF1240B0E47B0AFAF9F855
:100154001240B09002B2EBF0E47B0AFAF9F8900294
:1001640093E0FCA3E0FDA3E0FEA3E0FF1240B09007
:1001740002B3EBF07B807A9679987800900297E04E
:10018400FCA3E0FDA3E0FEA3E0FF1240B0E47B0A81
:10019400FAF9F81240B09002ABEBF07B407A427966
:1001A4000F7800900297E0FCA3E0FDA3E0FEA3E03B
:1001B400FF1240B0E47B0AFAF9F81240B09002ACA6
:1001C400EBF07BA07A8679017800900297E0FCA39B
:1001D400E0FDA3E0FEA3E0FF1240B0E47B0AFAF9DD
:1001E400F81240B09002ADEBF0E47B107A27F9F8F6
:1001F400900297E0FCA3E0FDA3E0FEA3E0FF124021
:10020400B0E47B0AFAF9F81240B09002AEEBF0E4E5
:100214007BE87A03F9F8900297E0FCA3E0FDA3E001
:10022400FEA3E0FF1240B0E47B0AFAF9F81240B0F2
:100234009002BFEBF0E47B64FAF9F8900297E0FCDB
:10024400A3E0FDA3E0FEA3E0FF1240B0E47B0AFAC2
:10025400F9F81240B09002C0EBF0E47B0AFAF9F826
:10026400900297E0FCA3E0FDA3E0FEA3E0FF1240B0
:10027400B0E47B0AFAF9F81240B09002C1EBF0E462
:100284007B0AFAF9F8900297E0FCA3E0FDA3E0FEF4
:10029400A3E0FF1240B09002C2EBF07B807A967923
:1002A400987800900297E0FCA3E0FDA3E0FEA3E0B1
:1002B400FF1240B0E47B0AFAF9F81240B0900067EC
:1002C400EBF07B407A42790F7800900297E0FCA330
:1002D400E0FDA3E0FEA3E0FF1240B0E47B0AFAF9DC
:1002E400F81240B0900068EBF07BA07A8679017830
:1002F40000900297E0FCA3E0FDA3E0FEA3E0FF1260
:1003040040B0E47B0AFAF9F81240B0900069EBF0CF
:10031400E47B107A27F9F8900297E0FCA3E0FDA3B0
:10032400E0FEA3E0FF1240B0E47B0AFAF9F81240C1
:10033400B090006AEBF0E47BE87A03F9F890029756
:10034400E0FCA3E0FDA3E0FEA3E0FF1240B0E47BE9
:100354000AFAF9F81240B090006CEBF0E47B64FA0E
:10036400F9F8900297E0FCA3E0FDA3E0FEA3E0FF10
:100374001240B0E47B0AFAF9F81240B090006DEB39
:10038400F0E47B0AFAF9F8900297E0FCA3E0FDA3FD
:10039400E0FEA3E0FF1240B0E47B0AFAF9F8124051
:1003A400B090006EEBF0E47B0AFAF9F8900297E063
:1003B400FCA3E0FDA3E0FEA3E0FF1240B090006FB9
:1003C400EBF09002D37401F0A304F0A304F0A304AF
:1003D400F09002E704F0A304F0A304F0A304F09067
:1003E40002F37401F09002F3E0FFD394044003029B
:1003F40006E5749B2FF582E43402F583E0FF900256
:10040400ABE0FEEFB506259002F3E0FF249BF582F6
:10041400E43402F583E060149002D3E0FE74C32F49
:10042400F582E43402F583EEF00205709002F3E005
:10043400FF249BF582E43402F583E0FE9002ACE0F5
:10044400FDEEB50513749B2FF582E43402F583E0C9
:1004540060069002D402055F9002F3E0FF249BF54E
:1004640082E43402F583E0FE9002ADE0FDEEB505D2
:1004740013749B2FF582E43402F583E06006900246
:10048400D502055F9002F3E0FF249BF582E4340279
:10049400F583E0FE9002AEE0FDEEB50513749B2FEC
:1004A400F582E43402F583E060069002D602055F2B
:1004B4009002F3E0FF249BF582E43402F583E0FE2E
:1004C4009002BFE0FDEEB50513749B2FF582E43472
:1004D40002F583E060069002E702055F9002F3E014
:1004E400FF249BF582E43402F583E0FE9002C0E031
:1004F400FDEEB50512749B2FF582E43402F583E01A
:1005040060059002E880549002F3E0FF249BF5829A
:10051400E43402F583E0FE9002C1E0FDEEB505127D
:10052400749B2FF582E43402F583E060059002E9C0
:1005340080299002F3E0FF249BF582E43402F583E2
:10054400E0FE9002C2E0FDEEB50521749B2FF5821A
:10055400E43402F583E060149002EAE0FF9002F3D1
:10056400E024C3F582E43402F583EFF09002F3E073
:10057400FF24AFF582E43402F583E0FE9002ABE0A1
:10058400FDEEB5051374AF2FF582E43402F583E074
:1005940060069002D30206CB9002F3E0FF24AFF58D
:1005A40082E43402F583E0FE9002ACE0FDEEB50592
:1005B4001374AF2FF582E43402F583E060069002F1
:1005C400D40206CB9002F3E0FF24AFF582E43402B8
:1005D400F583E0FE9002ADE0FDEEB5051374AF2F98
:1005E400F582E43402F583E060069002D50206CB7E
:1005F4009002F3E0FF24AFF582E43402F583E0FED9
:100604009002AEE0FDEEB5051374AF2FF582E4342D
:1006140002F583E060069002D60206CB9002F3E076
:10062400FF24AFF582E43402F583E0FE9002BFE0DC
:10063400FDEEB5051374AF2FF582E43402F583E0C3
:1006440060069002E70206CB9002F3E0FF24AFF5C8
:1006540082E43402F583E0FE9002C0E0FDEEB505CD
:100664001274AF2FF582E43402F583E06005900242
:10067400E880549002F3E0FF24AFF582E43402F5FD
:1006840083E0FE9002C1E0FDEEB5051274AF2FF5D4
:1006940082E43402F583E060059002E98029900247
:1006A400F3E0FF24AFF582E43402F583E0FE900228
:1006B400C2E0FDEEB5052174AF2FF582E43402F5F6
:1006C40083E060149002EAE0FF9002F3E024D7F59F
:1006D40082E43402F583EFF09002F3E004F00203C5
:1006E400E97E007F287D007B017A02799B1241F02C
:1006F4009002F37401F09002F3E0FF24C3F582E466
:100704003402F583E0FE749B2FF582E43402F58312
:10071400EEF09002F3E0FF24D7F582E43402F5838F
:10072400E0FE74AF2FF582E43402F583EEF090021C
:10073400F3E004F0E0B405BE9002F37401F090021B
:10074400F3E0FFD39404502074C32FF582E4340201
:10075400F583E4F074D72FF582E43402F583E4F0F2
:100764009002F3E004F080D69002EF7401F090025E
:10077400EBF0E49002F3F09002D3E0FF9002ABE0E0
:100784006F600302080E9002D4E0FF9002ACE06FA9
:1007940070789002D5E0FF9002ADE06F706C90022B
:1007A400D6E0FF9002AEE06F70609002E7E0FF9049
:1007B40002BFE06F70549002E8E0FF9002C0E06F67
:1007C40070489002E9E0FF9002C1E06F703C900233
:1007D400EAE0FF9002C2E06F7030900065E0B4344C
:1007E400207F511270DB7F461266A67D077F2F1291
:1007F40062559002F2E0FD7F2D1262557F50127017
:10080400DB9000707401F0A3F022900065E0643482
:100814006003020D089002F3E004F0E0C394644026
:100824000B126F2E1262507F351265489002ECE075
:10083400FFC36480948550429002EEE0FD3395E05E
:10084400FC74D12DF58274023CF583E0FEEFFD3398
:1008540095E0FC74A02DF58274023CF583E0B506A6
:10086400199003A07401F0A37402F0A3749BF07BAD
:10087400017A0279EB7D03020BFA9002EDE0FFC3EB
:10088400648094855040A3E0FD3395E0FC74D12D41
:10089400F58274023CF583E0FEEFFD3395E0FC74D1
:1008A400A52DF58274023CF583E0B506199003A0EA
:1008B4007401F0A37402F0A3749BF07B017A0279B3
:1008C400EB7D03020C4B9002EBE0FFC36480948544
:1008D40040030209609002EEE0FD3395E0FC74D120
:1008E4002DF58274023CF583E0FEEFFD3395E0FCC8
:1008F400749B2DF58274023CF583E0B506199003D0
:10090400A07401F0A37402F0A3749BF07B017A023B
:1009140079EB7D03020B919002F2E0FF3395E0FE48
:1009240074E52FF58274023EF583E0FF9002EBE05C
:10093400FD3395E0FC749B2DF58274023CF583E055
:10094400B507199003A07401F0A37402F0A3749B7B
:10095400F07B017A0279EB7D07020B919002EBE0C8
:10096400FFC3648094854003020B96EF3395E0FE49
:10097400749B2FF58274023EF583E0FD9002D3E070
:10098400FCED6C604B749B2FF58274023EF583E0A2
:10099400FF9002D4E0FEEF6E60369002EBE0FF338E
:1009A40095E0FE749B2FF58274023EF583E0FD9082
:1009B40002D5E0FCED6C6018749B2FF58274023E46
:1009C400F583E0FF9002D6E0FEEF6E6003020A803A
:1009D4009002ECE0FF64056029EF3395E0FE74A01B
:1009E4002FF58274023EF583E0FF9002EBE0FD33C5
:1009F40095E0FC749B2DF58274023CF583E0D39F53
:100A040040249002ECE0D36480948240199003A0C7
:100A14007401F0A37402F0A3749BF07B017A027951
:100A2400EB7D01020B919002EDE0FF64056029EF7C
:100A34003395E0FE74A52FF58274023EF583E0FF42
:100A44009002EBE0FD3395E0FC749B2DF58274027B
:100A54003CF583E0D39F40249002EDE0D36480947E
:100A64008240199003A07401F0A37402F0A3749B54
:100A7400F07B017A0279EB7D02020B919002EBE0AC
:100A8400FF3395E0FE749B2FF58274023EF583E0FC
:100A9400FD9002E7E0FCED6C604B749B2FF58274D3
:100AA400023EF583E0FF9002E8E0FEEF6E603690D0
:100AB40002EBE0FF3395E0FE749B2FF58274023E57
:100AC400F583E0FD9002E9E0FCED6C6018749B2F67
:100AD400F58274023EF583E0FF9002EAE0FEEF6ED9
:100AE4006003020B969002F0E0FF64056029EF3387
:100AF40095E0FE74B42FF58274023EF583E0FF9016
:100B040002EBE0FD3395E0FC749B2DF58274023C0E
:100B1400F583E0D39F40239002F0E0D36480948275
:100B240040189003A07401F0A37402F0A3749BF026
:100B34007B017A0279EB7D0580539002F1E0FF643A
:100B4400056029EF3395E0FE74B92FF58274023EF7
:100B5400F583E0FF9002EBE0FD3395E0FC749B2D00
:100B6400F58274023CF583E0D39F40269002F1E0C5
:100B7400D364809482401B9003A07401F0A3740298
:100B8400F0A3749BF07B017A0279EB7D06E4FF020B
:100B940012139002ECE0FFC3648094854003020CBE
:100BA40050A3E0FEC3648094854003020C50EEFD24
:100BB4003395E0FC74A52DF58274023CF583E0FEC8
:100BC400EFFD3395E0FC74A02DF58274023CF583AF
:100BD400E0D39E40269002EDE0D364809481401BD4
:100BE4009003A07401F0A37402F0A3749BF07B0142
:100BF4007A0279EB7D027F010212139002ECE0FF8E
:100C0400FD3395E0FC74A02DF58274023CF583E07D
:100C1400FE9002EDE0FD3395E0FC74A52DF58274A1
:100C2400023CF583E0D39E4023D3EF64809481405B
:100C34001B9003A07401F0A37402F0A3749BF07BD7
:100C4400017A0279EB7D017F020212139002ECE03B
:100C5400FFC3648094854003020D08A3E0C364804D
:100C640094854003020D089002EBE0FE64809481B9
:100C74004042EEFD3395E0FC749B2DF58274023CFA
:100C8400F583E0FEEFFD3395E0FC74A02DF582744E
:100C9400023CF583E0D39E401B9003A07401F0A3B3
:100CA4007402F0A3749BF07B017A0279EBE4FD7F7C
:100CB400010212139002EBE0FFD36480948140445C
:100CC400EF3395E0FE749B2FF58274023EF583E0CA
:100CD400FF9002EDE0FD3395E0FC74A52DF58274E0
:100CE400023CF583E0D39F401B9003A07401F0A362
:100CF4007402F0A3749BF07B017A0279EBE4FD7F2C
:100D040002021213900065E06435600302077B90D1
:100D140002F3E004F0E0C39464400B126F2E1262FD
:100D2400507F341265489002F0E0FFC364809485DC
:100D340050449002F2E0FD3395E0FC74E52DF58219
:100D440074023CF583E0FEEFFD3395E0FC74B42DB2
:100D5400F58274023CF583E0B5061B9003A0740190
:100D6400F0A37402F0A3749BF07B017A0279EB7D0B
:100D7400077F050212139002F1E0FFC3648094859B
:100D84005042A3E0FD3395E0FC74E52DF582740236
:100D94003CF583E0FEEFFD3395E0FC74B92DF5825C
:100DA40074023CF583E0B5061B9003A07401F0A324
:100DB4007402F0A3749BF07B017A0279EB7D077FC8
:100DC400060212139002EFE0FFC36480948540038F
:100DD400020E629002F2E0FD3395E0FC74E52DF51D
:100DE4008274023CF583E0FEEFFD3395E0FC74AFC2
:100DF4002DF58274023CF583E0B5061B9003A074C4
:100E040001F0A37402F0A3749BF07B017A0279EBE6
:100E14007D077F040212139002EEE0FF3395E0FE9B
:100E240074D12FF58274023EF583E0FF9002EFE067
:100E3400FD3395E0FC74AF2DF58274023CF583E03C
:100E4400B5071B9003A07401F0A37402F0A3749B74
:100E5400F07B017A0279EB7D037F04021213900286
:100E6400EFE0FFC364809485400302109FEF339545
:100E7400E0FE74AF2FF58274023EF583E0FD90022C
:100E8400E7E0FCED6C604B74AF2FF58274023EF525
:100E940083E0FF9002E8E0FEEF6E60369002EFE040
:100EA400FF3395E0FE74AF2FF58274023EF583E0C4
:100EB400FD9002E9E0FCED6C601874AF2FF58274CC
:100EC400023EF583E0FF9002EAE0FEEF6E6003026B
:100ED4000F869002F0E0FF64056029EF3395E0FE91
:100EE40074B42FF58274023EF583E0FF9002EFE0C4
:100EF400FD3395E0FC74AF2DF58274023CF583E07C
:100F0400D39F40269002F0E0D364809482401B90EB
:100F140003A07401F0A37402F0A3749BF07B017A24
:100F24000279EB7D057F040212139002F1E0FF6465
:100F3400056029EF3395E0FE74B92FF58274023E03
:100F4400F583E0FF9002EFE0FD3395E0FC74AF2DF4
:100F5400F58274023CF583E0D39F40269002F1E0D1
:100F6400D364809482401B9003A07401F0A37402A4
:100F7400F0A3749BF07B017A0279EB7D067F040277
:100F840012139002EFE0FF3395E0FE74AF2FF58269
:100F940074023EF583E0FD9002D3E0FCED6C604BFF
:100FA40074AF2FF58274023EF583E0FF9002D4E023
:100FB400FEEF6E60369002EFE0FF3395E0FE74AF13
:100FC4002FF58274023EF583E0FD9002D5E0FCED3E
:100FD4006C601874AF2FF58274023EF583E0FF90C5
:100FE40002D6E0FEEF6E600302109F9002ECE0FF79
:100FF40064056029EF3395E0FE74A02FF582740236
:101004003EF583E0FF9002EFE0FD3395E0FC74AF22
:101014002DF58274023CF583E0D39F40269002ECC8
:10102400E0D364809482401B9003A07401F0A37405
:1010340002F0A3749BF07B017A0279EB7D017F04BB
:101044000212139002EDE0FF64056029EF3395E08E
:10105400FE74A52FF58274023EF583E0FF9002EF43
:10106400E0FD3395E0FC74AF2DF58274023CF5830A
:10107400E0D39F40269002EDE0D364809482401B2D
:101084009003A07401F0A37402F0A3749BF07B019D
:101094007A0279EB7D027F040212139002F0E0FFE2
:1010A400C3648094854003021159A3E0FEC36480A5
:1010B40094854003021159EEFD3395E0FC74B92D7B
:1010C400F58274023CF583E0FEEFFD3395E0FC7499
:1010D400B42DF58274023CF583E0D39E4026900241
:1010E400F1E0D364809481401B9003A07401F0A3C9
:1010F4007402F0A3749BF07B017A0279EB7D067F86
:10110400050212139002F0E0FFFD3395E0FC74B485
:101114002DF58274023CF583E0FE9002F1E0FD338C
:1011240095E0FC74B92DF58274023CF583E0D39EFE
:101134004023D3EF64809481401B9003A07401F09A
:10114400A37402F0A3749BF07B017A0279EB7D0512
:101154007F060212139002F0E0FFC364809485407E
:101164000302077BA3E0C364809485400302077BEA
:101174009002EFE0FE648094814041EEFD3395E0FF
:10118400FC74AF2DF58274023CF583E0FEEFFD3371
:1011940095E0FC74B42DF58274023CF583E0D39E93
:1011A400401A9003A07401F0A37402F0A3749BF09E
:1011B4007B017A0279EB7D047F0580539002EFE096
:1011C400FFD364809481500302077BEF3395E0FEE4
:1011D40074AF2FF58274023EF583E0FF9002F1E0D4
:1011E400FD3395E0FC74B92DF58274023CF583E07F
:1011F400D39F500302077B9003A07401F0A37402F1
:10120400F0A3749BF07B017A0279EB7D047F0612D4
:0512140022E102077B4E
:095778009003BFE0F404FD7F285A
:105781009002FBEDF0D3648094E440057464F080F2
:105791000E9002FBE0C36480941C5003749CF0EFF4
:1057A10024D8B4070040030259B59057B975F003E6
:1057B100A4C58325F0C583730257CE02581502583C
:1057C100530258C802590102593A0259789002FB12
:1057D100E0FF90005FE0B507012290005FEFF090DD
:1057E10002FBE0FB700302587ED3EB64809480409F
:1057F10009D2DE9002FBE002587E9002FBE0FFC37B
:105801006480948040030259B5D2DE12730E127285
:1058110087D295229002FBE0FF900060E0B507017E
:1058210022900060EFF09002FBE0FB7002806AD3EF
:10583100EB648094804008D2DE9002FBE0805A90B5
:1058410002FBE0FFC36480948040030259B5D2DEBD
:10585100806C9002FBE0FF90005FE0B50706A3E0DB
:10586100B5070122900060EFF090005FF09002FB1D
:10587100E0FB7010C2DEFF12726DC292E4FF127281
:1058810087C29522D3EB648094804014D2DE9002CB
:10589100FBE0FF127287C295E0FF12726DC2922285
:1058A1009002FBE0FFC36480948040030259B5D2AB
:1058B100DE12730E127287D2959002FBE0FF127313
:1058C1000E12726DD292229002FBE0FF90005BE01B
:1058D100B507012290005BEFF09002FBE0FF70043E
:1058E100D2978070D3EF648094804005D29702599B
:1058F10073C3EF6480948040030259B5D2978063EB
:105901009002FBE0FF90005CE0B507012290005C93
:10591100EFF09002FBE0FF7004D2978075D3EF6443
:105921008094804005D2970259B1C3EF648094807E
:1059310040030259B5D29780689002FBE0FF9000C6
:105941005DE0B507012290005DEFF09002FBE0FF02
:105951007007C297C2A0D2A122D3EF648094804085
:1059610007C297C2A0C2A122C3EF648094805044B1
:10597100C297D2A0C2A1229002FBE0FF90005EE09C
:10598100B507012290005EEFF09002FBE0FF700787
:10599100C297C2A2D2A322D3EF648094804007C2EF
:1059A10097C2A2C2A322C3EF648094805006C2971B
:0559B100D2A2C2A322F6
:0560A6009003ABEDF0DA
:1060AB00A3EFF09003ACE07003026249208703304A
:1060BB00802430862130851E30841BA2828283503F
:1060CB00153081129003AF740BF09003ABE0FD7FA2
:1060DB002A12578180CD9003AFE0B40B0B740CF0F8
:1060EB009003ACE014F080BB9003ABE09003AEF0F8
:1060FB009003ADF0308527208224A3E0FF75F00AD2
:10610B0084FEC3EF9EF09003ADE0FFC374649FFF6A
:10611B00E49400FE7C007D0A123FBDE02FF030823C
:10612B00292085269003AEE0FFC374649FFFE4949F
:10613B0000FE7C007D0A123FBDE02FF09003ADE026
:10614B00FF75F00A84FEC3EF9EF03086332081305A
:10615B009003AEE0FF75F00A8475F003A4FEC3EF65
:10616B009EF09003ADE0FFC374649FFFE49400FEC8
:10617B007C007D0A123FBDEF75F003A4FFE02FF00A
:10618B003081332086309003AEE0FFC374649FFFF1
:10619B00E49400FE7C007D0A123FBDEF75F003A472
:1061AB00FFE02FF09003ADE0FF75F00A8475F0036C
:1061BB00A4FEC3EF9EF03087332080309003AEE017
:1061CB00FF75F00A8475F005A4FEC3EF9EF09003F3
:1061DB00ADE0FFC374649FFFE49400FE7C007D0A76
:1061EB00123FBDEF75F005A4FFE02FF03080332098
:1061FB0087309003AEE0FFC374649FFFE49400FE0E
:10620B007C007D0A123FBDEF75F005A4FFE02FF077
:10621B009003ADE0FF75F00A8475F005A4FEC3EFA3
:10622B009EF09003ADE0FD7F291257819003AEE005
:10623B00FD7F281257817D151270260260AE7D28D6
:05624B007F280259B696
:106FA9009003BFEDF0EF24A6601D24FE6046146037
:106FB90028240270599003BFE0FD7F281257819061
:106FC90003BFE0F40480071257789003BFE0FD7F08
:106FD9002912578190027E802B9003BFE0FD7F2804
:106FE9001257819003BFE0F404FD7F291257819065
:106FF900028280101257789003BFE0FD7F29125753
:1070090081900282E0FEA3E0FF7D1512702A20859F
:0B701900FD2082FAE4FD7F2A0257816F
:0559B6009003B4EDF0C8
:1059BB00EF75F00AA4FFEF251FFFE5F0351EFEE49F
:1059CB00351DFDE4351CFC900048124161AF1FAE44
:1059DB001EAD1DAC1C900048E0F8A3E0F9A3E0FA63
:1059EB00A3E0FBD31241505003025B8D9003B4E054
:1059FB009003B6F09003B5F0308738208035A3E0E4
:105A0B00FCE4123AFF7433FBFAF9783F1239EF12C8
:105A1B003B339003B6EFF09003B5E0FCE4123AFF92
:105A2B007B667A6679A6783F1239EF123B33900387
:105A3B00B5EFF030803A2087379003B6E0FCE412E4
:105A4B003AFF7B667A6679A6783F1239EF123B33C1
:105A5B009003B6EFF09003B5E0FCE4123AFF743319
:105A6B00FBFAF9783F1239EF123B339003B5EFF0A5
:105A7B0030863B2081389003B6E0FCE4123AFF7B82
:105A8B00CD7ACC794C783F1239EF123B339003B679
:105A9B00EFF09003B5E0FCE4123AFF7B9A7A997928
:105AAB0099783F1239EF123B339003B5EFF0308109
:105ABB003B2086389003B6E0FCE4123AFF7B9A7ADF
:105ACB00997999783F1239EF123B339003B6EFF087
:105ADB009003B5E0FCE4123AFF7BCD7ACC794C789D
:105AEB003F1239EF123B339003B5EFF030853A207C
:105AFB0082379003B6E0FCE4123AFF7466FBFAF9C6
:105B0B00783F1239EF123B339003B6EFF09003B5A9
:105B1B00E0FCE4123AFF7BCD7ACC798C783F1239DA
:105B2B00EF123B339003B5EFF030823A208537907C
:105B3B0003B6E0FCE4123AFF7BCD7ACC798C783F4C
:105B4B001239EF123B339003B6EFF09003B5E0FC44
:105B5B00E4123AFF7466FBFAF9783F1239EF123B05
:105B6B00339003B5EFF09003B5E0FD7F2912578119
:105B7B009003B6E0FD7F281257817D151270260227
:095B8B0059D8E4FD7F2A0257817C
:106C620020872B20862830842530832220811F20F4
:106C7200801C3085032082062085132082107D151A
:106C82007F0A7E0012702AE4FD7F2A025781208447
:106C92000B7D0C7F281257817DF4800C20830E7DA2
:106CA200F47F281257817D0C7F2912578130820E82
:106CB20020850B7D087F281257817DF8800F308553
:106CC2001120820E7DF87F281257817D087F2912BC
:106CD200578120860330870B7DF07F281257817DF4
:106CE20010800F20810330800E7D107F2812578183
:106CF2007DF07F291257817D157F647E0012702AF4
:036D0200026C62BE
:105EF800900044E0FF3395E0FEC3E49FFDE49EFC80
:025F08007F28F0
:105F0A00900324ECF0A3EDF0D39464EC64809480C5
:105F1A00400B900324E4F0A37464F08018C3900348
:105F2A0025E0949C900324E06480947F500774FFDA
:105F3A00F0A3749CF0EF24D7606C1470030260091C
:105F4A00240260030260A590005FE0FF3395E0FE43
:105F5A00900324E0FCA3E0FDB50705ECB506012299
:105F6A0090005FEDF0900324E0FAA3E0FB4A70038F
:105F7A00026052D3EB9400EA64809480400AD2DE35
:105F8A00900324A3E0026052900324E0FEA3E0FF02
:105F9A00C3EE6480948040030260A5D2DE12730EC1
:105FAA00127287D29522900060E0FF3395E0FE904E
:105FBA000324E0FCA3E0FDB50705ECB50601229039
:105FCA000060EDF0900324E0FAA3E0FB4A700302BC
:105FDA006076D3EB9400EA64809480400AD2DE9023
:105FEA000324A3E0026076900324E0FEA3E0FFC34B
:105FFA00EE6480948040030260A5D2DE02609D9028
:10600A00005FE0FF3395E0FE900324E0FCA3E0FD8F
:10601A00B50716ECB50612900060E0FF3395E0FE76
:10602A00EDB50705ECB5060122AF05900060EFF06B
:10603A0090005FF0900324E0FAA3E0FB4A7010C2DC
:10604A00DEFF12726DC292E4FF127287C29522D3EA
:10605A00EB9400EA648094804019D2DE900324A372
:10606A00E0FF127287C295900324A3E0FF12726DBB
:10607A00C29222900324E0FEA3E0FFC3EE64809460
:10608A00805018D2DE12730E127287D295900324B2
:0C609A00A3E0FF12730E12726DD292226E
:10421C00900040E0FBA3E0FAA3E0F9123EFE249CE0
:10422C00603F14700302457514700302448124E44A
:10423C006003024772E4FDFC7F2A125F0A9000467D
:10424C00740CF07E007F407D007B017A00790012B7
:10425C0041F09000407401F0A37400F0A37400F0DE
:10426C0022900040E0FBA3E0FAA3E0F990000112D9
:10427C003F17700302446F20870330802330862061
:10428C0030851D30841AA2828283501430811190A3
:10429C000047740BF0900043E0FD3395E002447B43
:1042AC00900047E0B40B16740CF0900040E0FBA3B8
:1042BC00E0FAA3E0F990000174FF023F4490004340
:1042CC00E0FF3395E0F5198F1AF5178F1830853903
:1042DC00208236E5182415FFE43517FE7C007D0A94
:1042EC00124012C3E5189FF518E5179EF517C37415
:1042FC0063951AFFE49519FE7C007D0A124012EFBB
:10430C00251AF51AEE3519F519308239208536C380
:10431C0074639518FFE49517FE7C007D0A12401219
:10432C00EF2518F518EE3517F517E51A2415FFE4E7
:10433C003519FE7C007D0A124012C3E51A9FF51A4E
:10434C00E5199EF519308643208140E5182415FFA8
:10435C00E43517FE7C007D03123FAB7D0A12401240
:10436C00C3E5189FF518E5179EF517C37463951AE6
:10437C00FFE49519FE7C007D03123FAB7D0A1240D1
:10438C0012EF251AF51AEE3519F5193081432086EE
:10439C0040C374639518FFE49517FE7C007D0312EF
:1043AC003FAB7D0A124012EF2518F518EE3517F5C4
:1043BC0017E51A2415FFE43519FE7C007D03123F26
:1043CC00AB7D0A124012C3E51A9FF51AE5199EF54A
:1043DC0019308743208040E5182415FFE43517FE7B
:1043EC007C007D05123FAB7D0A124012C3E5189F7D
:1043FC00F518E5179EF517C37463951AFFE4951924
:10440C00FE7C007D05123FAB7D0A124012EF251A8F
:10441C00F51AEE3519F51920800302476020874004
:10442C00C374639518FFE49517FE7C007D05123F5D
:10443C00AB7D0A124012EF2518F518EE3517F5175B
:10444C00E51A2415FFE43519FE7C007D05123FABFF
:10445C007D0A124012C3E51A9FF51AE5199EF5194B
:10446C00024760900041E475F002124048E4FDFC04
:10447C007F2A02476FE51B14700302454814700332
:10448C0002456A24026003024772900040E0FBA3DD
:10449C00E0FAA3E0F9900001123F1724A6602D2446
:1044AC00FE606714603C24026003024545900044A2
:1044BC00E0FD3395E0FC7F28125F0A900044E0FF9A
:1044CC003395E0FEC3E49FFDE49E800B125EF890F2
:1044DC000044E0FD3395E0FC7F29125F0A900280D6
:1044EC00803C900044E0FD3395E0FC7F28125F0A8D
:1044FC00900044E0FF3395E0FEC3E49FFDE49EFC96
:10450C007F29125F0A9002848014125EF890004496
:10451C00E0FD3395E0FC7F29125F0A900284E0FEF7
:10452C00A3E0FFEF251FFFEE351EFEE4351DFDE475
:10453C00351CFC900048124161051B22AF1FAE1EBA
:10454C00AD1DAC1C900048E0F8A3E0F9A3E0FAA381
:10455C00E0FBD31241504003024772051B22208519
:10456C006B2082030247728063E51B146042046077
:10457C0003024772900040E0FBA3E0FAA3E0F9903D
:10458C000001123F17FF3395E0FE7C007D0A123FBD
:10459C00ABEE3395E0FDFCEF251FFFEE351EFEED77
:1045AC00351DFDEC351CFC900048124161051B22A9
:1045BC00AF1FAE1EAD1DAC1C900048E0F8A3E0F997
:1045CC00A3E0FAA3E0FBD31241505020E4FDFC7FA2
:1045DC002A125F0A900041E475F0021240489000E4
:1045EC004812416D00000000E4F51B22900045E0EC
:1045FC00FF3395E0F5198F1AF5178F183087362091
:10460C008033AC17AD18EC123AFA7433FBFAF97824
:10461C003F1239EF123B338E178F18AC19AD1AECD1
:10462C00123AFA7B667A6679A6783F1239EF123B1A
:10463C00338E198F1A308036208733AC17AD18ECB7
:10464C00123AFA7B667A6679A6783F1239EF123BFA
:10465C00338E178F18AC19AD1AEC123AFA7433FB6F
:10466C00FAF9783F1239EF123B338E198F1A3086D4
:10467C0037208134AC17AD18EC123AFA7BCD7ACCDA
:10468C00794C783F1239EF123B338E178F18AC19D7
:10469C00AD1AEC123AFA7B9A7A997999783F1239D9
:1046AC00EF123B338E198F1A308137208634AC17BA
:1046BC00AD18EC123AFA7B9A7A997999783F1239BB
:1046CC00EF123B338E178F18AC19AD1AEC123AFA65
:1046DC007BCD7ACC794C783F1239EF123B338E1963
:1046EC008F1A308536208233AC17AD18EC123AFA9B
:1046FC007466FBFAF9783F1239EF123B338E178F41
:10470C0018AC19AD1AEC123AFA7BCD7ACC798C78BC
:10471C003F1239EF123B338E198F1A3082362085B7
:10472C0033AC17AD18EC123AFA7BCD7ACC798C7885
:10473C003F1239EF123B338E178F18AC19AD1AECB0
:10474C00123AFA7466FBFAF9783F1239EF123B33DE
:10475C008E198F1AAD1AAC197F29125F0AAD18ACDD
:06476C00177F28125F0A0E
:014772002224
:0B6E2B00900326EFF0A3EDF0A3EBF0C6
:106E3600E4FF90035104F0A37403F0A374298013B4
:106E4600EE64826025AD070F74002DF582E43400F0
:106E5600F583EEF0900351E0FBA3E475F0011240D8
:106E66005EA9F0FA123EFEFE80D674002FF582E48B
:106E76003400F5837482F0900047740CF090004063
:106E86007401F0A37400F0A37400F0900326E09060
:106E96000043F0900327E0900044F0900328E09030
:076EA6000045F0A3740BF09E
:016EAD0022C2
:10719900900046E0B40B0B7D157F327E0012702AF9
:1071A90080EE7E007F407D007B017A0079001241EC
:0471B900F0026C6212
:0D4F90009002F6EBF09002F4EFF0A3EDF0CC
:104F9D00A3E0FE75F054EFA424B9F582E5F03400DA
:104FAD00F58375F006ED12419EEEF09002FCE0FFE8
:104FBD009002F9E0FCA3E09000B975F05412419E07
:104FCD00EC75F054A42583F583C083C0829002FB59
:104FDD00E0D082D08375F00612419EEFF09003026F
:104FED00E0FF9002FFE0FCA3E09000B975F05412D1
:104FFD00419EEC75F054A42583F583C083C0829047
:10500D000301E0D082D08375F00612419EEFF0903F
:10501D000308E0FF900305E0FCA3E09000B975F0F4
:10502D005412419EEC75F054A42583F583C083C0C2
:10503D0082900307E0D082D08375F00612419EEF77
:10504D00F090030BE090025DF09002F7E0FF90020C
:10505D00F4E075F054A424BAF582E5F03400F5833C
:10506D00C083C0829002F5E0D082D08375F0061225
:10507D00419EEFF09002FDE0FF9002F9E0FCA3E00D
:10508D009000BA75F05412419EEC75F054A425832E
:10509D00F583C083C0829002FBE0D082D08375F08F
:1050AD000612419EEFF0900303E0FF9002FFE0FC3B
:1050BD00A3E09000BA75F05412419EEC75F054A423
:1050CD002583F583C083C082900301E0D082D08315
:1050DD0075F00612419EEFF0900309E0FF90030575
:1050ED00E0FCA3E09000BA75F05412419EEC75F00F
:1050FD0054A42583F583C083C082900307E0D0823A
:10510D00D08375F00612419EEFF090030CE09002F3
:10511D005EF07F019002F6E0B507059002F8802E53
:10512D009002FCE0B507059002FE8022900302E09C
:10513D00B507059003048016900308E0B5070590A8
:10514D00030A800A90030BE0B5071590030DE0FEEE
:10515D00EF75F00BA42473F582E43400F583EEF0C3
:10516D000FEF640670AE900157740CF090015AF079
:10517D00900159F0900158F09001ABF09001AEF014
:10518D009001ADF09001ACF09001FFF0900202F0B3
:10519D00900201F0900200F090030DE0FFB4341185
:1051AD0090030CE0FEB435028023EE643470288049
:1051BD000CEFB4352290030CE0FFB4350C900106D2
:1051CD00740CF0900255F0800EEFB4340A90010586
:1051DD00740CF0900256F09001A5740CF09001A89B
:1051ED00F09001A7F09001A6F09002F4E0FFA3E08B
:1051FD009002F7125D499002F9A3E0FFA3E090023F
:10520D00FD125D499002FFA3E0FFA3E0FD900303B3
:10521D00125D4A900305A3E0FFA3E0FD9003091280
:10522D005D4A900160740CF0900166F090016CF095
:10523D009001B3F09001B9F09001BFF090016AF0C8
:0C524D009001BEF090015DF09001B1F006
:015259002232
:095D4900FDE0FBA3E0900311F062
:105D5200EB64336003025E23900311E06434705BF2
:105D620075F054EFA424B8F582E5F03400F583759C
:105D7200F006ED12419E740CF075F054EFA4240B62
:105D8200F582E5F03401F58375F006ED12419E745B
:105D92000CF075F054EFA424B2F582E5F03400F56E
:105DA2008375F006ED12419E740CF075F054EFA469
:105DB2002405F582E5F03401025EEB900311E06404
:105DC200356003025EF775F054EFA424B8F582E55E
:105DD200F03400F58375F006ED12419E740CF075F7
:105DE200F054EFA42463F582E5F03400F58375F0F6
:105DF20006ED12419E740CF075F054EFA424B2F536
:105E020082E5F03400F58375F006ED12419E740CC4
:105E1200F075F054EFA4245DF582E5F03400025EE3
:105E2200EBEB64326003025EF7900311E0FE643430
:105E3200705A75F054EFA424B7F582E5F03400F5FA
:105E42008375F006ED12419E740CF075F054EFA4C8
:105E52002464F582E5F03400F58375F006ED124115
:105E62009E740CF075F054EFA424BDF582E5F03475
:105E720000F58375F006ED12419E740CF075F05436
:105E8200EFA4246AF582E5F03400805DEE6435709B
:105E92006475F054EFA424B8F582E5F03400F5837C
:105EA20075F006ED12419E740CF075F054EFA424C7
:105EB2000BF582E5F03401F58375F006ED12419E93
:105EC200740CF075F054EFA424BEF582E5F03400B2
:105ED200F58375F006ED12419E740CF075F054EFE7
:105EE200A42411F582E5F03401F58375F006ED1274
:065EF200419E740CF02239
:056D05009003C0EFF057
:106D0A00900059E090004CF090005AE090004DF04D
:106D1A00900061E0900054F090025DE0B50722A374
:106D2A00E0FFB43506E4900286800AEF64347064AA
:106D3A009002867404F0A3740DF090028E7432F0FF
:106D4A0022E4FFE4FE75F054EFA424B9F582E5F0DD
:106D5A003400F58375F006EE12419EE0FD9003C003
:106D6A00E0FCEDB50424900286EFF0A3EEF075F096
:106D7A0054EFA424BAF582E5F03400F58375F006E1
:106D8A00EE12419EE090028EF0220EEEB40DB60F86
:046D9A00EFB405AF9E
:016D9E0022D2
:0463D3007D327F6533
:1063D7009003C1EDF0900040E0FBA3E0FAA3E0F9E1
:1063E700123EFEFE700AEF6465700302654780196E
:1063F700EF6E6019900041E475F00212404890007A
:1064070040E0FBA3E0FAA3E0F9EF123F77900040EA
:10641700E0FBA3E0FAA3E0F9123EFE249B7003021F
:10642700653014605C240260030265479003C1E095
:10643700FF900001123F44900054E024CD601214F5
:1064470060211460302403600302654790004D808B
:106457002C90004DE0FF9003C1E0FEC3EF9E90003B
:106467004DF02290004CE0FF9003C1E0FEC3EF9E89
:1064770090004CF0229003C1E0FF90004CE02FF019
:10648700229003C1E0FF900040E0FBA3E0FAA3E005
:10649700F9900001EF123F89900054E024CD602766
:1064A70014603E14605F24036003026547EF24A570
:1064B700600F14600E14600D2403600302654780AB
:1064C70061803B802E802C9003C1E024A5600C14D2
:1064D700600B14600A24037067802380458038802E
:1064E700369003C1E024A5601114601014600F24D6
:1064F70003704D9000547433F022801B800090008D
:10650700547435F0229003C1E024A5601114601083
:1065170014600F240370299000547432F022800213
:1065270080009000547434F0229003C1E0FF900083
:1065370040E0FBA3E0FAA3E0F9900001EF123F442B
:016547002231
:0F1219009003A5EDF09003A4EFF09003A6EBF087
:10122800E49003A9F0A3F0C3EF6480F8EB6480981E
:101238004003021A7E9003A5E0FF9003A7E0FCEFAD
:101248006480F8EC6480985003021559A3E0643276
:1012580060030213D4AE079003A7E0C36480F8EEDE
:10126800648098506E9003A4E0FD9003A6E0C364E8
:1012780080F8ED648098403CEDFB3395E0FA9000EF
:10128800B775F054EB12419EEA75F054A42583F526
:1012980083EEFB3395E0FA75F006EB12419EEA7592
:1012A800F006A42583F583E0B40B069003AAE004B6
:1012B800F01D80B69003A6E0FF9003A4E0C39FFF53
:1012C8009003AAE014B50703AF0622E49003AAF03E
:1012D8000E80849003A5E0FEC3EE64809480406E87
:1012E8009003A4E0FD9003A6E0C36480F8ED648059
:1012F80098403CEDFB3395E0FA9000B775F054EB5D
:1013080012419EEA75F054A42583F583EEFB3395CC
:10131800E0FA75F006EB12419EEA75F006A4258303
:10132800F583E0B40B069003AAE004F01D80B690A4
:1013380003A6E0FF9003A4E0C39FFF9003AAE01474
:10134800B50703AF0622E49003AAF01E808A900333
:10135800A7E0FED3EE6480948C40030222DE900363
:10136800A4E0FD9003A6E0C36480F8ED6480984093
:101378003CEDFB3395E0FA9000B775F054EB124161
:101388009EEA75F054A42583F583EEFB3395E0FAC5
:1013980075F006EB12419EEA75F006A42583F583E5
:1013A800E0B40B069003AAE004F01D80B69003A6F3
:1013B800E0FF9003A4E0C39FFF9003AAE014B507E1
:1013C80003AF0622E49003AAF00E80879003A8E0FA
:1013D800643360030222DE9003A7E0FED3EE64804C
:1013E800948C506E9003A4E0FD9003A6E0C3648043
:1013F800F8ED648098403CEDFB3395E0FA9000B737
:1014080075F054EB12419EEA75F054A42583F583D8
:10141800EEFB3395E0FA75F006EB12419EEA75F0A3
:1014280006A42583F583E0B40B069003AAE004F034
:101438001D80B69003A6E0FF9003A4E0C39FFF9031
:1014480003AAE014B50703AF0622E49003AAF00E3E
:10145800808A9003A5E0FE9003A7E0C36480F8EEBD
:10146800648098506E9003A4E0FD9003A6E0C364E6
:1014780080F8ED648098403CEDFB3395E0FA9000ED
:10148800B775F054EB12419EEA75F054A42583F524
:1014980083EEFB3395E0FA75F006EB12419EEA7590
:1014A800F006A42583F583E0B40B069003AAE004B4
:1014B800F01D80B69003A6E0FF9003A4E0C39FFF51
:1014C8009003AAE014B50703AF0622E49003AAF03C
:1014D8000E80849003A5E0FEC3EE648094805003E0
:1014E8000222DE9003A4E0FD9003A6E0C36480F826
:1014F800ED648098403CEDFB3395E0FA9000B775B9
:10150800F054EB12419EEA75F054A42583F583EE5E
:10151800FB3395E0FA75F006EB12419EEA75F0068A
:10152800A42583F583E0B40B069003AAE004F01D1C
:1015380080B69003A6E0FF9003A4E0C39FFF90034A
:10154800AAE014B50703AF0622E49003AAF01E80B0
:10155800879003A5E0FF9003A7E0FCC3EF6480F841
:10156800EC6480984003021876A3E06432600302BA
:1015780016F1AE04C3EE64809480406E9003A4E03C
:10158800FD9003A6E0C36480F8ED648098403CEDCC
:10159800FB3395E0FA9000B775F054EB12419EEAE0
:1015A80075F054A42583F583EEFB3395E0FA75F0C6
:1015B80006EB12419EEA75F006A42583F583E0B494
:1015C8000B069003AAE004F01D80B69003A6E0FF86
:1015D8009003A4E0C39FFF9003AAE014B50703AFEC
:1015E8000622E49003AAF01E808A9003A5E0FE90EC
:1015F80003A7E0D36480F8EE648098406E9003A45B
:10160800E0FD9003A6E0C36480F8ED648098403C58
:10161800EDFB3395E0FA9000B775F054EB12419E5C
:10162800EA75F054A42583F583EEFB3395E0FA754B
:10163800F006EB12419EEA75F006A42583F583E0D7
:10164800B40B069003AAE004F01D80B69003A6E050
:10165800FF9003A4E0C39FFF9003AAE014B507031B
:10166800AF0622E49003AAF01E80849003A5E0FE52
:10167800D3EE6480948C40030222DE9003A4E0FD44
:101688009003A6E0C36480F8ED648098403CEDFBCD
:101698003395E0FA9000B775F054EB12419EEA7565
:1016A800F054A42583F583EEFB3395E0FA75F00634
:1016B800EB12419EEA75F006A42583F583E0B40B8E
:1016C800069003AAE004F01D80B69003A6E0FF9000
:1016D80003A4E0C39FFF9003AAE014B50703AF0675
:1016E80022E49003AAF00E80879003A8E064336098
:1016F800030222DE9003A5E0FE9003A7E0D36480F6
:10170800F8EE648098406E9003A4E0FD9003A6E094
:10171800C36480F8ED648098403CEDFB3395E0FAB3
:101728009000B775F054EB12419EEA75F054A42569
:1017380083F583EEFB3395E0FA75F006EB12419ED4
:10174800EA75F006A42583F583E0B40B069003AA96
:10175800E004F01D80B69003A6E0FF9003A4E0C368
:101768009FFF9003AAE014B50703AF0622E4900395
:10177800AAF01E80849003A5E0FED3EE6480948CCA
:10178800506E9003A4E0FD9003A6E0C36480F8EDDA
:10179800648098403CEDFB3395E0FA9000B775F013
:1017A80054EB12419EEA75F054A42583F583EEFBB1
:1017B8003395E0FA75F006EB12419EEA75F006A43F
:1017C8002583F583E0B40B069003AAE004F01D809E
:1017D800B69003A6E0FF9003A4E0C39FFF9003AA7E
:1017E800E014B50703AF0622E49003AAF00E808A3E
:1017F8009003A7E0FEC3EE6480948050030222DECB
:101808009003A4E0FD9003A6E0C36480F8ED648033
:1018180098403CEDFB3395E0FA9000B775F054EB37
:1018280012419EEA75F054A42583F583EEFB3395A7
:10183800E0FA75F006EB12419EEA75F006A42583DE
:10184800F583E0B40B069003AAE004F01D80B6907F
:1018580003A6E0FF9003A4E0C39FFF9003AAE0144F
:10186800B50703AF0622E49003AAF01E8087900311
:10187800A8E06432600302197A9003A7E0FEC3EE81
:1018880064809480406E9003A4E0FD9003A6E0C3BA
:101898006480F8ED648098403CEDFB3395E0FA9065
:1018A80000B775F054EB12419EEA75F054A42583F5
:1018B800F583EEFB3395E0FA75F006EB12419EEAEC
:1018C80075F006A42583F583E0B40B069003AAE01F
:1018D80004F01D80B69003A6E0FF9003A4E0C39F28
:1018E800FF9003AAE014B507030222C9E49003AAF3
:1018F800F01E808A9003A7E0FED3EE6480948C40AB
:10190800030222DE9003A4E0FD9003A6E0C36480F6
:10191800F8ED648098403CEDFB3395E0FA9000B711
:1019280075F054EB12419EEA75F054A42583F583B3
:10193800EEFB3395E0FA75F006EB12419EEA75F07E
:1019480006A42583F583E0B40B069003AAE004F00F
:101958001D80B69003A6E0FF9003A4E0C39FFF900C
:1019680003AAE014B507030222C9E49003AAF00E03
:1019780080879003A8E0643360030222DE9003A707
:10198800E0FED3EE6480948C506E9003A4E0FD904A
:1019980003A6E0C36480F8ED648098403CEDFB3317
:1019A80095E0FA9000B775F054EB12419EEA75F095
:1019B80054A42583F583EEFB3395E0FA75F006EB26
:1019C80012419EEA75F006A42583F583E0B40B0660
:1019D8009003AAE004F01D80B69003A6E0FF9003F0
:1019E800A4E0C39FFF9003AAE014B507030222C92D
:1019F800E49003AAF00E808A9003A7E0FEC3EE6489
:101A080080948050030222DE9003A4E0FD9003A698
:101A1800E0C36480F8ED648098403CEDFB3395E0CA
:101A2800FA9000B775F054EB12419EEA75F054A491
:101A38002583F583EEFB3395E0FA75F006EB12414A
:101A48009EEA75F006A42583F583E0B40B0690039F
:101A5800AAE004F01D80B69003A6E0FF9003A4E07E
:101A6800C39FFF9003AAE014B507030222C9E490BC
:101A780003AAF01E80879003A4E0FF9003A6E0FC71
:101A8800D3EF6480F8EC64809850030222D6900368
:101A9800A5E0FF9003A7E0FCD3EF6480F8EC648036
:101AA800985003021DB3A3E064326003021C2EAEFB
:101AB800079003A7E0C36480F8EE648098506E90A6
:101AC80003A4E0FD9003A6E0D36480F8ED64809859
:101AD800503CEDFB3395E0FA9000B875F054EB12EA
:101AE800419EEA75F054A42583F583EEFB3395E017
:101AF800FA75F006EB12419EEA75F006A42583F507
:101B080083E0B40B069003AAE004F00D80B69003BE
:101B1800A4E0FF9003A6E0C39FFF9003AAE014B5DA
:101B28000703AF0622E49003AAF00E80849003A571
:101B3800E0FEC3EE64809480406E9003A4E0FD90C4
:101B480003A6E0D36480F8ED648098503CEDFB3345
:101B580095E0FA9000B875F054EB12419EEA75F0E2
:101B680054A42583F583EEFB3395E0FA75F006EB74
:101B780012419EEA75F006A42583F583E0B40B06AE
:101B88009003AAE004F00D80B69003A4E0FF900350
:101B9800A6E0C39FFF9003AAE014B50703AF06228F
:101BA800E49003AAF01E808A9003A7E0FED3EE64B7
:101BB80080948C40030222DE9003A4E0FD9003A6EB
:101BC800E0D36480F8ED648098503CEDFB3395E0F9
:101BD800FA9000B875F054EB12419EEA75F054A4DF
:101BE8002583F583EEFB3395E0FA75F006EB124199
:101BF8009EEA75F006A42583F583E0B40B069003EE
:101C0800AAE004F00D80B69003A4E0FF9003A6E0DC
:101C1800C39FFF9003AAE014B50703AF0622E49020
:101C280003AAF00E80879003A8E0643360030222C1
:101C3800DE9003A7E0FED3EE6480948C506E900390
:101C4800A4E0FD9003A6E0D36480F8ED648098508A
:101C58003CEDFB3395E0FA9000B875F054EB124177
:101C68009EEA75F054A42583F583EEFB3395E0FADC
:101C780075F006EB12419EEA75F006A42583F583FC
:101C8800E0B40B069003AAE004F00D80B69003A41C
:101C9800E0FF9003A6E0C39FFF9003AAE014B507F6
:101CA80003AF0622E49003AAF00E808A9003A5E011
:101CB800FE9003A7E0C36480F8EE648098506E90AD
:101CC80003A4E0FD9003A6E0D36480F8ED64809857
:101CD800503CEDFB3395E0FA9000B875F054EB12E8
:101CE800419EEA75F054A42583F583EEFB3395E015
:101CF800FA75F006EB12419EEA75F006A42583F505
:101D080083E0B40B069003AAE004F00D80B69003BC
:101D1800A4E0FF9003A6E0C39FFF9003AAE014B5D8
:101D28000703AF0622E49003AAF00E80849003A56F
:101D3800E0FEC3EE6480948050030222DE9003A488
:101D4800E0FD9003A6E0D36480F8ED648098503CF1
:101D5800EDFB3395E0FA9000B875F054EB12419E14
:101D6800EA75F054A42583F583EEFB3395E0FA7504
:101D7800F006EB12419EEA75F006A42583F583E090
:101D8800B40B069003AAE004F00D80B69003A4E01B
:101D9800FF9003A6E0C39FFF9003AAE014B50703D2
:101DA800AF0622E49003AAF01E80879003A5E0FF07
:101DB8009003A7E0FCC3EF6480F8EC6480984003CC
:101DC8000220D0A3E064326003021F4BAE04C3EECE
:101DD80064809480406E9003A4E0FD9003A6E0D355
:101DE8006480F8ED648098503CEDFB3395E0FA9000
:101DF80000B875F054EB12419EEA75F054A425839F
:101E0800F583EEFB3395E0FA75F006EB12419EEA96
:101E180075F006A42583F583E0B40B069003AAE0C9
:101E280004F00D80B69003A4E0FF9003A6E0C39FE2
:101E3800FF9003AAE014B50703AF0622E49003AAB3
:101E4800F01E808A9003A5E0FE9003A7E0D364808B
:101E5800F8EE648098406E9003A4E0FD9003A6E03D
:101E6800D36480F8ED648098503CEDFB3395E0FA3C
:101E78009000B875F054EB12419EEA75F054A42511
:101E880083F583EEFB3395E0FA75F006EB12419E7D
:101E9800EA75F006A42583F583E0B40B069003AA3F
:101EA800E004F00D80B69003A4E0FF9003A6E0C321
:101EB8009FFF9003AAE014B50703AF0622E490033E
:101EC800AAF01E80849003A5E0FED3EE6480948C73
:101ED80040030222DE9003A4E0FD9003A6E0D36451
:101EE80080F8ED648098503CEDFB3395E0FA900063
:101EF800B875F054EB12419EEA75F054A42583F5A9
:101F080083EEFB3395E0FA75F006EB12419EEA7515
:101F1800F006A42583F583E0B40B069003AAE00439
:101F2800F00D80B69003A4E0FF9003A6E0C39FFFE6
:101F38009003AAE014B50703AF0622E49003AAF0C1
:101F48000E80879003A8E0643360030222DE9003CA
:101F5800A5E0FE9003A7E0D36480F8EE6480984083
:101F68006E9003A4E0FD9003A6E0D36480F8ED64CE
:101F78008098503CEDFB3395E0FA9000B875F0542A
:101F8800EB12419EEA75F054A42583F583EEFB33EA
:101F980095E0FA75F006EB12419EEA75F006A42565
:101FA80083F583E0B40B069003AAE004F00D80B635
:101FB8009003A4E0FF9003A6E0C39FFF9003AAE06C
:101FC80014B50703AF0622E49003AAF01E8084909C
:101FD80003A5E0FED3EE6480948C506E9003A4E0D9
:101FE800FD9003A6E0D36480F8ED648098503CED42
:101FF800FB3395E0FA9000B875F054EB12419EEA75
:1020080075F054A42583F583EEFB3395E0FA75F05B
:1020180006EB12419EEA75F006A42583F583E0B429
:102028000B069003AAE004F00D80B69003A4E0FF2D
:102038009003A6E0C39FFF9003AAE014B50703AF7F
:102048000622E49003AAF00E808A9003A7E0FEC35C
:10205800EE6480948050030222DE9003A4E0FD9099
:1020680003A6E0D36480F8ED648098503CEDFB3320
:1020780095E0FA9000B875F054EB12419EEA75F0BD
:1020880054A42583F583EEFB3395E0FA75F006EB4F
:1020980012419EEA75F006A42583F583E0B40B0689
:1020A8009003AAE004F00D80B69003A4E0FF90032B
:1020B800A6E0C39FFF9003AAE014B50703AF06226A
:1020C800E49003AAF01E80879003A8E064326003BE
:1020D8000221D49003A7E0FEC3EE64809480406E92
:1020E8009003A4E0FD9003A6E0D36480F8ED64803B
:1020F80098503CEDFB3395E0FA9000B875F054EB3E
:1021080012419EEA75F054A42583F583EEFB3395BE
:10211800E0FA75F006EB12419EEA75F006A42583F5
:10212800F583E0B40B069003AAE004F00D80B690A6
:1021380003A4E0FF9003A6E0C39FFF9003AAE01466
:10214800B507030222C9E49003AAF01E808A90030F
:10215800A7E0FED3EE6480948C40030222DE900355
:10216800A4E0FD9003A6E0D36480F8ED6480985065
:102178003CEDFB3395E0FA9000B875F054EB124152
:102188009EEA75F054A42583F583EEFB3395E0FAB7
:1021980075F006EB12419EEA75F006A42583F583D7
:1021A800E0B40B069003AAE004F00D80B69003A4F7
:1021B800E0FF9003A6E0C39FFF9003AAE014B507D1
:1021C800030222C9E49003AAF00E80879003A8E0D6
:1021D800643360030222DE9003A7E0FED3EE64803E
:1021E800948C506D9003A4E0FD9003A6E0D3648026
:1021F800F8ED648098503CEDFB3395E0FA9000B818
:1022080075F054EB12419EEA75F054A42583F583CA
:10221800EEFB3395E0FA75F006EB12419EEA75F095
:1022280006A42583F583E0B40B069003AAE004F026
:102238000D80B69003A4E0FF9003A6E0C39FFF9033
:1022480003AAE014B507028078E49003AAF00E8090
:102258008B9003A7E0FEC3EE6480948040789003DF
:10226800A4E0FD9003A6E0D36480F8ED6480985064
:102278003CEDFB3395E0FA9000B875F054EB124151
:102288009EEA75F054A42583F583EEFB3395E0FAB6
:1022980075F006EB12419EEA75F006A42583F583D6
:1022A800E0B40B069003AAE004F00D80B69003A4F6
:1022B800E0FF9003A6E0C39FFF9003AAE014B507D0
:1022C80005EE2428FF22E49003AAF01E80889003DC
:0822D800A7E02414FF227FFFA0
:0122E00022DB
:1030DE0090004CE0FFA3E0FD900286E0FBA3E090A1
:1030EE0003A7F090028EE09003A8F0121219AC071D
:1030FE00C3EC648094804007EC648094944015C3C4
:10310E00EC648094A85003023609EC648094BC40B1
:10311E0003023609C3EC648094A8400BEC648094DF
:10312E00BC500474D82CFC90004DE0FF6C70030270
:10313E003352D3EF6480F8EC64809850030232333C
:10314E00900054E0FF64327003023228EF24CC70FA
:10315E000302321514700302321C24026003023380
:10316E005290004CE0FFFB3395E0FA9000B775F0FB
:10317E0054EB12419EEA75F054A42583F583C08367
:10318E00C08290004DE0FEFB3395E0FAD082D083F2
:10319E0075F006EB12419EEA75F006A42583F583C1
:1031AE00E0640B6009EF6402700BEEB40C0712635F
:1031BE00D37D5D805E90004CE0FF3395E0FE900085
