:0300000002292EA4
:0C292E00787FE4F6D8FD7581550229750C
:0A2CD4002573200A0073746F70006E
:042B75000250000505
:102A7400122B24E4900064F0A3F0A3F0A3F0A37459
:102A840008F0A37401F0A37403F0E4FF1223357D6E
:102A9400027F04121EEF7F03122A217F04122A21CF
:102AA4007F05122A217F06122A217F02122A21C2BF
:032AB400AF80FEF2
:03000300022D02C9
:012D0200329E
:03000B00022C12B2
:102C1200C0E0C0F0C083C082C0D075D008122CB80A
:0B2C2200D0D0D082D083D0F0D0E032C0
:03001B00022C2D87
:102C2D00C0E0C0F0C083C082C0D075D008122CF2B5
:0B2C3D00D0D0D082D083D0F0D0E032A5
:050006002564200A0042
:102B79005A006B01F400C8003A0320029A02AC0221
:102B8900AC029A01F401F405C8084A084A02520045
:012B9900003B
:0629BA007F197D017E0083
:1029C000ED14601A14603624027055EF1FAC0670C7
:1029D000011ED39400EC94004046000080EDEF1FF0
:0D29E000AC0670011ED39400EC940040334F
:0E29ED00000075490C754AA8D54AFDD549FA77
:1029FB0080E1EF1FAC0670011ED39400EC940040F5
:012A0B0014B6
:102A0C0075492E754A99754BF5D54BFDD54AFAD5B6
:022A1C0049F778
:022A1E0080DD59
:012A20002293
:102C6300438E805389F0438901758A20758CD1C2C4
:062C73008DD2A9D2AF22B0
:102C7900538EBF53890F438910758BE0758DB1C28F
:062C89008FD2ABD2AF2296
:102CB800758A20758CD1000553E5537002055222A0
:082CF200758BE0758DB1002225
:102CA40020B2FD7F141229BC30B2FD7D017F007E6D
:042CB400010229C030
:0C2CC800EF7003C29622BF0102D29622D8
:102B2400E4F5977593FFF594F5917592FC7595F01E
:102B340075960FD2A1D2A3C297122CDE122C631267
:0A2B44002C79122C8FD2B2022CA4BF
:0A2CDE00E4F5D8F5F9F5E9F5D9227F
:102B9B00AC07E41211F9E4FBFA792078401210E942
:0E2BAB0012122D8FEA8FFA75DA42E4F5F2224B
:102BB900AC07E41211F9E4FBFA792078401210E924
:0E2BC90012122D8FEB8FFB75DB42E4F5F32229
:04252E007D647F0445
:102532008D49E549700122D3E549648094E4400560
:10254200754964800CC3E5496480941C5003754945
:102552009CEFB40700400302266B902563F82828FD
:10256200730225780225A20225BD0225F80226154E
:1025720002263202264FD2DED3E54964809480409F
:1025820008AF49122BB9C29522C3E54964809480F1
:10259200400302266BAF49122CFA122BB9D29522B4
:1025A200D2DED3E5496480948040028020C3E549AD
:1025B20064809480400302266B8030D2DED3E549EA
:1025C20064809480400FAF49122BB9C295AF491273
:1025D2002B9BC29222C3E549648094804003022669
:1025E2006BAF49122CFA122BB9D295AF49122CFAC1
:1025F200122B9BD29222D297D3E5496480948040D9
:1026020004D2A0800BC3E549648094805002C2A02A
:10261200C2A122D297D3E549648094804004D2A219
:10262200800BC3E549648094805002C2A2C2A322F7
:10263200C297D3E549648094804004C2A0800BC352
:10264200E549648094805002D2A0C2A122C297D3ED
:10265200E549648094804004C2A2800BC3E54964CA
:0A2662008094805002D2A2C2A3228D
:102A2100EFB40700504C902A2EF8282873022A434D
:102A3100022A45022A4D022A5E022A62022A6602FF
:102A41002A6D8011E4FF122B9BC29222C2DEE4FFA9
:102A5100122B9BC292E4FF122BB9C29522D297800E
:102A610006D2978009C297C2A0D2A122C297C2A260
:032A7100D2A322CB
:102AB7008F54E554B401187D9C7F0312253220B34F
:102AC700FD7D017F147E001229C020B3EA80167DA8
:102AD700647F0312253220B4FD7D017F147E00122E
:102AE70029C020B4EA7F03122A21900067E554F039
:012AF70022BC
:102335008F46900068E06546700302252DE546B49A
:1023450009004003022522902353F828287302230D
:102355006E0223990223C10223FF02242C02246664
:102365000224930224CC0224F37D647F05122532D6
:10237500E4FF122CC87D017F327E001229C020A403
:10238500FD7D017F147E001229C020A4F17F147EFB
:102395000002251F900068E0FFE546D39F40047DBD
:1023A5009C80077F021223357D647F0512253290BC
:1023B5000071E0FEA3E0FF7D0102251F900068E0AB
:1023C500FFE546D39F40047D9C80027D647F051216
:1023D5002532E4FF122CC87D017F327E001229C010
:1023E50020A5FD7D017F147E001229C020A5F19056
:1023F500006FE0FEA3E0FF02251F900068E0FFE507
:1024050046D39F40097F021223357D9C80077F04B8
:102415001223357D647F05122532900071E0FEA3FD
:10242500E0FF7D0102251F900068E0FFE546D39F90
:1024350040047D9C80027D647F05122532E4FF12F5
:102445002CC87D017F327E001229C020A6FD900098
:102455006FE0FEA3E0FF7D011229C020A6ED022555
:1024650022900068E0FFE546D39F40097F041223D0
:10247500357D9C80077F061223357D647F051225F7
:1024850032900071E0FEA3E0FF7D0102251F900060
:1024950068E0FFE546D39F40047D9C80027D647F14
:1024A50005122532E4FF122CC87D017F327E001211
:1024B50029C020A7FD90006FE0FEA3E0FF7D01127B
:1024C50029C020A7ED8056900068E0FFE546D39F20
:1024D50040097F061223357D9C80027D647F0512AD
:1024E5002532900071E0FEA3E0FF7D01802C7D9CEC
:1024F5007F051225327F01122CC87D017F327E00B7
:102505001229C020A4FD7D017F147E001229C02060
:10251500A4F190006FE0FEA3E0FF1229C07F051231
:092525002A21900068E546F0222D
:10266C008F48E54814602B1460651470030227181A
:10267C0014700302275D2404600302277A12252EAE
:10268C0020B5FD7D017F147E001229C020B5EE021D
:10269C002773900069E024FE601A146020146026F1
:1026AC002404600302277A7D9C7F0412253290005B
:1026BC007302275412252E90007502275412252ED2
:1026CC0090007F02275412252E90008302275490ED
:1026DC000069E014601A24FE602214602724046050
:1026EC000302277A7D9C7F0412253290007B805850
:1026FC007D9C7F04122532900075804C12252E9003
:10270C000077804412252E90007D803C900069E07B
:10271C0014601714602024FE6028240470507D9CE3
:10272C007F04122532900081801E7D9C7F0412252F
:10273C003290007F80127D9C7F04122532900077AE
:10274C00800612252E900079E0FEA3E0FF7D01802B
:10275C001A7D9C7F0412253220B6FD7D017F147EEC
:10276C00001229C020B6EA7F147E001229C07F0413
:0A277C00122A21900069E548F022BE
:102130008F557F01122CC8E5551470030221CA1473
:1021400070030222421470030222BA2403600302C5
:10215000232990006AE024FE603814605124026054
:10216000030223297D9C7F061225327D027F017E9A
:10217000001229C020A5FD1229BA20A5F730A5FD1F
:102180001229BA30A5F720A5FD1229BA20A5F70219
:1021900023297D647F061225327D027F017E001295
:1021A00029C020A5FD1229BA20A5F70223297D9C6C
:1021B0007F061225327D027F017E001229C020A5F4
:1021C000FD1229BA20A5F702232990006AE024FE17
:1021D0006038146051240360030223297D647F0664
:1021E0001225327D027F017E001229C020A5FD123A
:1021F00029BA20A5F730A5FD1229BA30A5F720A5E8
:10220000FD1229BA20A5F70223297D9C7F061225FD
:10221000327D027F017E001229C020A5FD1229BA5D
:1022200020A5F70223297D647F061225327D027FD7
:10223000017E001229C020A5FD1229BA20A5F702AF
:10224000232990006AE014602724FE603F24036085
:10225000030223297D9C7F061225327D027F017EA9
:10226000001229C020A5FD1229BA20A5F7022329B2
:102270007D647F061225327D027F017E001229C017
:1022800020A5FD1229BA20A5F70223297D9C7F06EF
:102290001225327D027F017E001229C020A5FD1289
:1022A00029BA20A5F730A5FD1229BA30A5F720A537
:1022B000FD1229BA20A5F702232990006AE01460D4
:1022C0002214603A240270617D647F061225327DFB
:1022D000027F017E001229C020A5FD1229BA20A587
:1022E000F780467D9C7F061225327D027F017E00AD
:1022F0001229C020A5FD1229BA20A5F7802B7D64E4
:102300007F061225327D027F017E001229C020A5A2
:10231000FD1229BA20A5F730A5FD1229BA30A5F77C
:1023200020A5FD1229BA20A5F77F06122A219000C8
:052330006AE555F022F2
:041EEB007D02E4FF91
:101EEF008F468D4790006AE06547606E7F0212262D
:101EFF006CE54714601F1460311460432403705A5B
:101F0F0090006AE024FE60091460082402704B8080
:101F1F003E8040803A90006AE024FE600914600819
:101F2F0024037036802D8027802990006AE014608A
:101F3F000A24FE60082403702180148016801090FC
:101F4F00006AE014600914600A2402700D80047D99
:101F5F009C80027D647F06122532E54614601F24A3
:101F6F00FE60231460332404704C12252E20B5FD1F
:101F7F007D017F147E001229C020B5EE803112251D
:101F8F002E900075800A7D9C7F0412253290007779
:101F9F00E0FEA3E0FF7D01801A7D9C7F04122532B5
:101FAF0020B6FD7D017F147E001229C020B6EA7F86
:101FBF00147E001229C07F04122A21900069E54681
:101FCF00F0A3E06547700302212F7F01122CC8E5B3
:101FDF00471460611470030220921470030220DF13
:101FEF002403600302212490006AE024FE602E1473
:101FFF0060372402600302212420A5FD1229BA2094
:10200F00A5F730A5FD7D027F017E001229C030A506
:10201F00F120A5FD1229BA20A5F702212420A5FD44
:10202F001229BA20A5F702212420A5FD1229BA20D2
:10203F00A5F702212490006AE024FE602E14603779
:10204F002403600302212420A5FD1229BA20A5F73D
:10205F0030A5FD7D027F017E001229C030A5F12041
:10206F00A5FD1229BA20A5F702212420A5FD1229CA
:10207F00BA20A5F702212420A5FD1229BA20A5F721
:10208F0002212490006AE014601724FE601F2403CD
:10209F00600302212420A5FD1229BA20A5F70221F1
:1020AF002420A5FD1229BA20A5F702212420A5FD81
:1020BF001229BA20A5F730A5FD7D027F017E0012FF
:1020CF0029C030A5F120A5FD1229BA20A5F780451A
:1020DF0090006AE014601214601A2402703720A571
:1020EF00FD1229BA20A5F7802C20A5FD1229BA20B0
:1020FF00A5F7802120A5FD1229BA20A5F730A5FD4F
:10210F007D027F017E001229C030A5F120A5FD12AE
:10211F0029BA20A5F77F06122A2190006AE547F019
:01212F00228D
:061B80008F3E8D3F8B40FB
:101B8600C209E4F543853F44853F45F54175420268
:101B9600E53FFD7C00C3E5429DE5419C5021900058
:101BA6006BE0FEA3E0FF1216407D011229C005423C
:101BB600E5427002054114FD7F0212253280D1856F
:101BC6003F44853F4530870320810630866B308051
:101BD60068D209E543C3953E5003021DC4E540643F
:101BE6000270267DECFF1225327D017FF47E011204
:101BF60029C03084FD3083FAE4FD7F64FE1229C0DB
:101C06003084EF3083EC021DBDE5406403600302BF
:101C16001DC47DEC7F011225327D017FF47E011209
:101C260029C03084FD3083FAE4FD7F64FE1229C0AA
:101C36003084EF3083EC021DBD200903021DC4056C
:101C460043E543C3953E5003021DC2E540600302CF
:101C56001DC2F541F542D390006EE0954290006DAD
:101C6600E095415003021DBDAC3FE41211F97433F7
:101C7600FBFAF9783F1210E912122D8F448F453086
:101C8600852BAC44E41211F97466FBFAF9783F121D
:101C960010E912122D8F44AC45E41211F97BCD7A6E
:101CA600CC798C783F1210E912122D8F4530822B99
:101CB600AC44E41211F97BCD7ACC798C783F1210C2
:101CC600E912122D8F44AC45E41211F97466FBFA41
:101CD600F9783F1210E912122D8F4530862CAC444C
:101CE600E41211F97BCD7ACC794C783F1210E912C7
:101CF600122D8F44AC45E41211F97B9A7A997999A1
:101D0600783F1210E912122D8F4530812CAC44E435
:101D16001211F97B9A7A997999783F1210E9121281
:101D26002D8F44AC45E41211F97BCD7ACC794C78F1
:101D36003F1210E912122D8F4530872BAC44E41266
:101D460011F97433FBFAF9783F1210E912122D8F4C
:101D560044AC45E41211F97B667A6679A6783F129F
:101D660010E912122D8F4530802BAC44E41211F984
:101D76007B667A6679A6783F1210E912122D8F4497
:101D8600AC45E41211F97433FBFAF9783F1210E905
:101D960012122D8F45AD44E4FF122532AD457F0169
:101DA6001225327D017F017E001229C00542E542DF
:101DB60070020541021C5C7F02022A21C20930859D
:101DC6002BAC44E41211F97466FBFAF9783F121051
:101DD600E912122D8F44AC45E41211F97BCD7ACC71
:101DE600798C783F1210E912122D8F4530822BAC78
:101DF60044E41211F97BCD7ACC798C783F1210E944
:101E060012122D8F44AC45E41211F97466FBFAF9EF
:101E1600783F1210E912122D8F4530862CAC44E41F
:101E26001211F97BCD7ACC794C783F1210E9121257
:101E36002D8F44AC45E41211F97B9A7A99799978F9
:101E46003F1210E912122D8F4530812CAC44E4125A
:101E560011F97B9A7A997999783F1210E912122D25
:101E66008F44AC45E41211F97BCD7ACC794C783F9E
:101E76001210E912122D8F4530872BAC44E4121153
:101E8600F97433FBFAF9783F1210E912122D8F44D8
:101E9600AC45E41211F97B667A6679A6783F121092
:101EA600E912122D8F4530802BAC44E41211F97BD8
:101EB600667A6679A6783F1210E912122D8F44AC25
:101EC60045E41211F97433FBFAF9783F1210E9125E
:101ED600122D8F45AD44E4FF122532AD457F011228
:051EE6002532021BC5BE
:0D000E00E4F5C7F5C5F5C675C380F5C4223D
:102BD70075C78375C5018FC48EC375C65A75C6A5DB
:0D2BE700E4FD7F0AFE1229C0AFC212000EED
:012BF40022BE
:102BF50075C78375C5028FC48EC38DC275C65A75D8
:0D2C0500C6A5E4FD7F0AFE1229C002000EE4
:102C480075C78375C5038FC48EC375C65A75C6A567
:0B2C5800E4FD7F0AFE1229C002000EFE
:10278600E4FF12266C7F0412266CD28CE4FF12261C
:102796006C7F0412266CC28CAC52AD53E41211F459
:1027A6007B147AAE79C7783E1210E912122D8E523A
:1027B6008F53AC52AD53E41211F4E4FBFAF9783FAF
:1027C6001210E912122D90007BEEF0A3EFF0A3EEAB
:1027D600F0A3EFF0AC52AD53E41211F4E4FBFA7936
:1027E60040783F1210E912122D900083EEF0A3EF0D
:1027F600F0900081EEF0A3EFF0AC52AD53E412116D
:10280600F4E4FBFA7980783E1210E912122D90005A
:1028160079EEF0FDA3EFF0900073CDF0A3EDF0900C
:102826000077EEF0A3EFF0900075EEF0A3EFF0ACBA
:1028360052AD53E41211F4E4FBFAF9783F1210E9B1
:1028460012122D90007FEEF0A3EFF0E4F552F5534F
:0F2856007BFF7A0079068552258553260217737A
:102C8F00438780759850438E04759CD9438E0143BA
:052C9F008E10D2992205
:06001E008F108D118B1202
:100024007E007F507D007B017A0079001216E590F6
:100034000002E510F0900004E511F0900006E512CE
:10004400F0900008E513F090002AE514F090002CDD
:10005400E515F090002EE516F0900030E517F090CD
:100064000020E518F0900022E519F0900024E51A2C
:10007400F0900026E51BF0900048E51CF090004A43
:10008400E51DF090004CE51EF090004EE51FF09049
:1000940000217401F090002304F090002504F090F6
:1000A400002704F090004904F090004B04F0900005
:1000B4004D04F090004F04F090005B7404F0900045
:1000C4005BE0FFD394005003020404EF25E0240016
:1000D400F582E43400F583E0FF900020E0FEEFB504
:1000E400062990005BE0FF25E02400F582E434005B
:1000F400F583E06016900021E0FEEF25E02401F591
:1001040082E43400F583EEF002026D90005BE0FFC0
:1001140025E02400F582E43400F583E0FE9000221B
:10012400E0FDEEB50515EF25E02400F582E434008A
:10013400F583E0600690002302025A90005BE0FF22
:1001440025E02400F582E43400F583E0FE900024E9
:10015400E0FDEEB50515EF25E02400F582E434005A
:10016400F583E0600690002502025A90005BE0FFF0
:1001740025E02400F582E43400F583E0FE900026B7
:10018400E0FDEEB50515EF25E02400F582E434002A
:10019400F583E0600690002702025A90005BE0FFBE
:1001A40025E02400F582E43400F583E0FE90004865
:1001B400E0FDEEB50515EF25E02400F582E43400FA
:1001C400F583E0600690004902025A90005BE0FF6C
:1001D40025E02400F582E43400F583E0FE90004A33
:1001E400E0FDEEB50514EF25E02400F582E43400CB
:1001F400F583E0600590004B805C90005BE0FF2598
:10020400E02400F582E43400F583E0FE90004CE045
:10021400FDEEB50514EF25E02400F582E43400F585
:1002240083E0600590004D802D90005BE0FF25E0A9
:100234002400F582E43400F583E0FE90004EE0FDF6
:10024400EEB50525EF25E02400F582E43400F583BE
:10025400E0601690004FE0FF90005BE025E0240191
:10026400F582E43400F583EFF090005BE0FF25E0D5
:100274002428F582E43400F583E0FE900020E0FDBC
:10028400EEB50515EF25E02428F582E43400F58366
:10029400E060069000210203E890005BE0FF25E0A7
:1002A4002428F582E43400F583E0FE900022E0FD8A
:1002B400EEB50515EF25E02428F582E43400F58336
:1002C400E060069000230203E890005BE0FF25E075
:1002D4002428F582E43400F583E0FE900024E0FD58
:1002E400EEB50515EF25E02428F582E43400F58306
:1002F400E060069000250203E890005BE0FF25E043
:100304002428F582E43400F583E0FE900026E0FD25
:10031400EEB50515EF25E02428F582E43400F583D5
:10032400E060069000270203E890005BE0FF25E010
:100334002428F582E43400F583E0FE900048E0FDD3
:10034400EEB50515EF25E02428F582E43400F583A5
:10035400E060069000490203E890005BE0FF25E0BE
:100364002428F582E43400F583E0FE90004AE0FDA1
:10037400EEB50514EF25E02428F582E43400F58376
:10038400E0600590004B805C90005BE0FF25E0247A
:1003940028F582E43400F583E0FE90004CE0FDEEA5
:1003A400B50514EF25E02428F582E43400F583E054
:1003B400600590004D802D90005BE0FF25E024282F
:1003C400F582E43400F583E0FE90004EE0FDEEB5E6
:1003D4000525EF25E02428F582E43400F583E06068
:1003E4001690004FE0FF90005BE025E02429F582A1
:1003F400E43400F583EFF090005BE014F00200C2F7
:10040400E490005BF0E490005CF090005CE0FFD3CB
:100414009404502290005BE075F00AA42400F58255
:10042400E43400F58375F002EF1216A3E4F09000B3
:100434005CE004F080D490005BE004F0E0B408C514
:10044400E490005BF090005BE0FF25E02401F5827E
:10045400E43400F583E0FEEF25E02400F582E43483
:1004640000F583EEF090005BE0FF25E02429F5829F
:10047400E43400F583E0FEEF25E02428F582E4343B
:1004840000F583EEF090005BE004F0E0B405B6E420
:1004940090005BF090005BE0FFD39404505CEF2588
:1004A400E02401F582E43400F583E4F0EF25E02450
:1004B4000BF582E43400F583E4F0EF25E02415F530
:1004C40082E43400F583E4F0EF25E02429F582E4A6
:1004D4003400F583E4F0EF25E02433F582E43400BE
:1004E400F583E4F0EF25E0243DF582E43400F58360
:1004F400E4F090005BE004F0809AE490005BF090FC
:10050400005BE0FFD39407505C74502FF582E43411
:1005140000F5837404F0E490005CF090005CE0FF6C
:10052400D39404503890005BE0FE75F00AA42400D4
:10053400F582E43400F58375F002EF1216A3E0604F
:100544001490005CE014FF74502EF582E43400F53E
:1005540083EFF0800890005CE004F080BE90005BC4
:10056400E004F0809AE4FF1223357F01122AB79049
:100574000050122865900058EFF09000541228653E
:10058400900059EFF0FD900058E0FF122CE8900025
:100594005AEFF090006AE064026003020B159000C9
:1005A40050E0FFC3940440030207BF900053E025CA
:1005B400E0241FF582E43400F583E0FEEF25E02417
:1005C40002F582E43400F583E06E7062122AF87D4D
:1005D400027F04121EEF900050E004FF122AFDE493
:1005E400FF122AB7122AF8121EEB900053E0FF12F2
:1005F4002AFD7F01122AB7900050E0FF25E0240273
:10060400F582E43400F583E0FE900053E025E02415
:1006140020F582E43400F583EEF0EF25E02402F5C2
:1006240082E43400F583E4F090005002084C90001A
:1006340057E025E02447F582E43400F583E0FF9099
:100644000050E025E02402F582E43400F583E06FF5
:10065400706B122AF87D027F04121EEF900050E0A6
:1006640004FF122AFDE4FF122AB790005AE0FF1299
:100674002AFD7D037F04121EEF900057E0FF122A2B
:10068400FD7F01122AB7900050E0FF25E02402F517
:1006940082E43400F583E0FE900057E025E024482E
:1006A400F582E43400F583EEF0EF25E02402F582D0
:1006B400E43400F583E4F09000500208E190005126
:1006C400E0FFC394045022EF25E0240AF582E434C9
:1006D40000F583E0FF900050E025E02402F582E479
:1006E4003400F583E0D39F4066122AF87D027F042C
:1006F400121EEF900050E004FF122AFDE4FF122ABC
:10070400B7122AF87D027F03121EEF900051E0FF1A
:10071400122AFD7F01122AB7900050E0FF25E02441
:1007240002F582E43400F583E0FE900051E025E018
:10073400240CF582E43400F583EEF0EF25E0240286
:10074400F582E43400F583E4F09000500209751258
:100754002AF87D027F04121EEF900050E004FF127D
:100764002AFDE4FF122AB7122AF87D027F01121E25
:10077400EF900052E0FF122AFD7F01122AB7900089
:1007840050E0FF25E02402F582E43400F583E0FE26
:10079400900052E025E02416F582E43400F583EE5F
:1007A400F0EF25E02402F582E43400F583E4F090D0
:1007B4000050E004F0900052020AA0900051E0FFC3
:1007C400C39404400302097C900053E025E0241FF5
:1007D400F582E43400F583E0FEEF25E0240CF58295
:1007E400E43400F583E06E7068122AF87D027F031A
:1007F400121EEF900051E004FF122AFDE4FF122ABA
:10080400B7122AF8121EEB900053E0FF122AFD7F64
:1008140001122AB7900051E0FF25E0240CF582E490
:100824003400F583E0FE900053E025E02420F582B7
:10083400E43400F583EEF0EF25E0240CF582E43493
:1008440000F583E4F0900051E004F0900053020AB4
:10085400A0900057E025E02447F582E43400F583B6
:10086400E0FF900051E025E0240CF582E43400F52B
:1008740083E06F7071122AF87D027F03121EEF90DD
:100884000051E004FF122AFDE4FF122AB790005A37
:10089400E0FF122AFD7D037F04121EEF900057E053
:1008A400FF122AFD7F01122AB7900051E0FF25E0D4
:1008B400240CF582E43400F583E0FE900057E02533
:1008C400E02448F582E43400F583EEF0EF25E024DB
:1008D4000CF582E43400F583E4F0900051E004F078
:1008E400900057020AA0900052E025E02414F582FB
:1008F400E43400F583E0FF900051E025E0240CF59A
:1009040082E43400F583E0D39F5003020AA3122A41
:10091400F87D027F03121EEF900051E004FF122ABB
:10092400FDE4FF122AB7122AF87D027F01121EEF9E
:10093400900052E0FF122AFD7F01122AB790005165
:10094400E0FF25E0240CF582E43400F583E0FE901A
:100954000052E025E02416F582E43400F583EEF03D
:10096400EF25E0240CF582E43400F583E4F09000F4
:1009740051E004F0A3020AA0900052E0FFC39404E3
:100984004003020AA3A3E025E0241FF582E4340017
:10099400F583E0FEEF25E02416F582E43400F583C8
:1009A400E06E7066122AF87D027F01121EEF90003D
:1009B40052E004FF122AFDE4FF122AB7122AF812A9
:1009C4001EEB900052E0FF122AFD7F01122AB7901D
:1009D4000052E0FF25E02416F582E43400F583E0BC
:1009E400FE900053E025E02420F582E43400F583F2
:1009F400EEF0EF25E02416F582E43400F583E4F00C
:100A0400900052E004F0A3020AA0900057E025E011
:100A14002447F582E43400F583E0FF900052E0259A
:100A2400E02416F582E43400F583E06F7071122A35
:100A3400F87D027F01121EEF900052E004FF122A9B
:100A4400FDE4FF122AB790005AE0FF122AFD7D034D
:100A54007F04121EEF900057E0FF122AFD7F01125F
:100A64002AB7900052E0FF25E02416F582E4340012
:100A7400F583E0FE900057E025E02448F582E43455
:100A840000F583EEF0EF25E02416F582E43400F55A
:100A940083E4F0900052E004F0900057E014F090EA
:100AA4000027E0FF900026E06F60030205739000CA
:100AB40025E0FF900024E06F60030205739000239B
:100AC400E0FF900022E06F6003020573900021E0D4
:100AD400FF900020E06F600302057390004FE0FF79
:100AE40090004EE06F702590004DE0FF90004CE0C8
:100AF400B5071990004BE0FF90004AE0B5070D9050
:100B04000049E0FF900048E0B50701227F0302108E
:100B1400E390006AE0640360030210E1900054E093
:100B2400FFC394044003020D64900057E025E024C1
:100B340047F582E43400F583E0FEEF25E0242AF54E
:100B440082E43400F583E06E7070900059E0FF1287
:100B54002AFD7D03E4FF121EEF900054E004FF120F
:100B64002AFDE4FF122AB7900059E0FF122AFD7D06
:100B7400037F04121EEF900057E0FF122AFD7F014D
:100B8400122AB7900054E0FF25E0242AF582E434C9
:100B940000F583E0FE900057E025E02448F582E468
:100BA4003400F583EEF0EF25E0242AF582E43400E6
:100BB400F583E4F0900054020DFF900053E025E02B
:100BC400241FF582E43400F583E0FF900054E0250F
:100BD400E0242AF582E43400F583E06F706C900021
:100BE40059E0FF122AFD7D03E4FF121EEF9000542A
:100BF400E004FF122AFDE4FF122AB790005AE0FF36
:100C0400122AFD121EEB900053E0FF122AFD7F0111
:100C1400122AB7900054E0FF25E0242AF582E43438
:100C240000F583E0FE900053E025E02420F582E403
:100C34003400F583EEF0EF25E0242AF582E4340055
:100C4400F583E4F0900054020E95900056E0FFC343
:100C540094045022EF25E0243CF582E43400F5832B
:100C6400E0FF900054E025E0242AF582E43400F506
:100C740083E0D39F4076900059E0FF122AFD7D0364
:100C8400E4FF121EEF900054E004FF122AFDE4FF7B
:100C9400122AB790005AE0FF122AFD7D037F011249
:100CA4001EEF900056E0FF122AFD7F01122AB79032
:100CB4000054E0FF25E0242AF582E43400F583E0C3
:100CC400FE900056E025E0243EF582E43400F583EE
:100CD400EEF0EF25E0242AF582E43400F583E4F015
:100CE400900054E004F090005602106D900059E01A
:100CF400FF122AFD7D03E4FF121EEF900054E0046E
:100D0400FF122AFDE4FF122AB7900059E0FF122ACD
:100D1400FD7D037F01121EEF900055E0FF122AFDB6
:100D24007F01122AB7900054E0FF25E0242AF582BF
:100D3400E43400F583E0FE900055E025E02434F52A
:100D440082E43400F583EEF0EF25E0242AF582E412
:100D54003400F583E4F0900054E004F0A302106D35
:100D6400900055E0FFC394044003020F3A900057EB
:100D7400E025E02447F582E43400F583E0FEEF2526
:100D8400E02434F582E43400F583E06E707690005C
:100D940059E0FF122AFD7D037F01121EEF900055DA
:100DA400E004FF122AFDE4FF122AB7900059E0FF85
:100DB400122AFD7D037F04121EEF900057E0FF12FC
:100DC4002AFD7F01122AB7900055E0FF25E0243464
:100DD400F582E43400F583E0FE900057E025E0243A
:100DE40048F582E43400F583EEF0EF25E02434F591
:100DF40082E43400F583E4F0900055E004F09000C0
:100E04005702106D900053E025E0241FF582E4346E
:100E140000F583E0FF900055E025E02434F582E4FA
:100E24003400F583E06F7072900059E0FF122AFDE0
:100E34007D037F01121EEF900055E004FF122AFD8E
:100E4400E4FF122AB790005AE0FF122AFD121EEBAB
:100E5400900053E0FF122AFD7F01122AB79000553B
:100E6400E0FF25E02434F582E43400F583E0FE90CD
:100E74000053E025E02420F582E43400F583EEF00D
:100E8400EF25E02434F582E43400F583E4F09000A7
:100E940055E004F090005302106D900056E025E0F8
:100EA400243CF582E43400F583E0FF900055E0250E
:100EB400E02434F582E43400F583E0D39F50030248
:100EC4001070900059E0FF122AFD7D037F01121E6D
:100ED400EF900055E004FF122AFDE4FF122AB790B8
:100EE4000059E0FF122AFD7D037F03121EEF9000DC
:100EF40056E0FF122AFD7F01122AB7900055E0FF49
:100F040025E02434F582E43400F583E0FE900056B5
:100F1400E025E0243EF582E43400F583EEF0EF258D
:100F2400E02434F582E43400F583E4F0900055E0E5
:100F340004F0A302106D900056E0FFC39404400334
:100F4400021070A3E025E02447F582E43400F58321
:100F5400E0FEEF25E0243EF582E43400F583E06E04
:100F64007074900059E0FF122AFD7D037F03121E66
:100F7400EF900056E004FF122AFDE4FF122AB79016
:100F84000059E0FF122AFD7D037F04121EEF90003A
:100F940057E0FF122AFD7F01122AB7900056E0FFA6
:100FA40025E0243EF582E43400F583E0FE9000570A
:100FB400E025E02448F582E43400F583EEF0EF25E3
:100FC400E0243EF582E43400F583E4F0900056E03A
:100FD40004F0A302106D900053E025E0241FF58275
:100FE400E43400F583E0FF900056E025E0243EF56C
:100FF40082E43400F583E06F7072900059E0FF12D0
:101004002AFD7D037F03121EEF900056E004FF12B9
:101014002AFDE4FF122AB7900059E0FF122AFD12BC
:101024001EEB900053E0FF122AFD7F01122AB790B5
:101034000056E0FF25E0243EF582E43400F583E029
:10104400FE900053E025E02420F582E43400F5838B
:10105400EEF0EF25E0243EF582E43400F583E4F07D
:10106400900056E004F0900053E014F090004FE03C
:10107400FF90004EE06F600302057390004DE0FFA7
:1010840090004CE06F600302057390004BE0FF900A
:10109400004AE06F6003020573900049E0FF90008E
:1010A40048E06F6003020573900027E0FF9000267C
:1010B400E06F7025900025E0FF900024E0B507194B
:1010C400900023E0FF900022E0B5070D900021E09E
:1010D400FF900020E0B50701227F0280027F021208
:0510E40021300205733C
:0C286500E0FFA3E0FDA3E0FBA3E0F54FC3
:10287100A907E9C39D500302292DEDC39D7E005098
:10288100047F0180027F00EBF582C3EF95827480A3
:10289100F86E985005AF0502292DEB6049E9C39DFB
:1028A1005005AF0102292DEDC39B7E0050047F012D
:1028B10080027F00E54FF582C3EF95827480F86E48
:1028C100985004AF03801DE54F600DE9C39D50048E
:1028D100AF018010AF05800CEBC3954F5004AF03DF
:1028E1008002AF4F8046EDC39B5004AF05803DEBA6
:1028F100C39B7E0050047F0180027F00E54FF5827B
:10290100C3EF95827480F86E985004AF03801DE583
:102911004F600DEDC39B5004AF058010AF03800CD9
:0D292100EBC3954F5004AF038002AF4F226F
:0A2CE800EFC39D50028002AF0522E9
:052AF800900058E0FF12
:102AFD00EF14601114601214601314601424047028
:102B0D0015E4FF800E7F02800A7F0480067F068019
:072B1D00027F08122335229C
:1010E900EC4D6011E8497017ED33EC3304600DE401
:1010F900FCFFFEFD22E933E8330470F8021299126D
:10110900126458046009E4CC24815006285009026D
:1011190012A32840030212A0C0E0EB4A7044B98030
:1011290006D0E0FB02128FEF4E701CBD8008EBFF6A
:10113900EAFEE9FD80EBE98DF0A4FEE5F00211D2AB
:10114900E9CDF9EAFEEBFFEF89F0A4FCE5F0CE89E1
:10115900F0A42EFFE435F0CD89F0A42DFEE435F09E
:101169008067EF4E7005BD80D780C3EF8BF0A4ACCC
:10117900F0EE8BF0A42CFCE435F0F8EF8AF0A42C07
:10118900E5F038FCE433CB8DF0A42CFCE5F03BF81A
:10119900EE8AF0A42CFCE5F038F8E433CF89F0A40A
:1011A9002CFCE5F038CF3400CE89F0A42FFFE5F010
:1011B9003EFEE433C98DF0A42EFEE5F039CD8AF068
:1011C900A42FFFE5F03EFEE43DFD33D0E0FB5007E0
:1011D9000BBB000F0212A3EC2CFCEF33FFEE33FE26
:0611E900ED33FD02127B54
:1011EF0075F020800E75F010800575F0087D007E7B
:1011FF00007F003392D530D503121695EC33401093
:10120F00EF33FFEE33FEED33FDEC33FCD5F0ED2283
:0E121F00E5F0247EA2D513CC92E7CDCEFF22BF
:10122D00EDD2E7CD33EC3392D524814006E4FFFEB9
:10123D00FDFC22FCE4CFCECDCC24E0501174FF8018
:10124D00EDC3CC13CCCD13CDCE13CECF13CF0470B5
:07125D00F030D5DE0216950A
:10171100E5392425F8E605392278223007027825B3
:10172100E475F0011216AF0215E82000EB7F2ED20E
:10173100008018EF540F2490D43440D4FF30040BB0
:10174100EF24BFB41A0050032461FFE53A6002158B
:101751003A053DE53D7002053C30070D7822E47500
:10176100F0011216AFEF02162E022B4E7403D207B0
:101771008003E4C207F5398B228A238924E4F53AF0
:10178100F53CF53DE53A60077F2012174C80F57571
:101791003BFFC201C200C202C203C205C206C208A7
:1017A10012171AFF700D3007057F0012175DAF3D4C
:1017B100AE3C22B4255FC2D5C20412171AFF24D051
:1017C100B40A00501A75F00A783A30D50508B6FF08
:1017D1000106C6A426F620D5047002D20380D924BE
:1017E100CFB41A00EF5004C2E5D204021A4AD20162
:1017F10080C6D20080C0D20280BCD2D580BAD205C8
:1018010080B47F2012174C2002077401B53A0040C2
:10181100F1121711FF12174C021785D208D2068058
:1018210095121711FB121711FA121711F94A4B7081
:101831000679417A1B7BFF20022EE53A602A7E0061
:101841008E8275830012160160060EEE653B70F004
:10185100C2D5EBC0E0EAC0E0E9C0E0EE121AAAD0BE
:10186100E0F9D0E0FAD0E0FB1215E8FF60AAEBC086
:10187100E0EAC0E0E9C0E012174CD0E02401F9D061
:10188100E03400FAD0E0FBE53B0460DCD53BD980D5
:1018910087D20280A2121A8D60F7E53B7001041213
:1018A10012AEA93B600DE53B600914F53B121B34F8
:1018B100EF60F3EA30E702F404C3995077EAF425C4
:1018C1003B0430E701E404F53B800D121A8D60C141
:1018D100EA053B253B1212AEEA7838F630E701E41F
:1018E100253B04D53B0420050114121AAAE4C0E0EB
:1018F100121B347838E6601320E70714F612173408
:10190100802204F6D0E014C0E07F00121734E53BDA
:10191100600712172B153B800B30050312172BD0D4
:10192100E0021785D0E00480C5121A8D60A0E53B66
:10193100041212AE7838EAF6E53B20050260010494
:051941002404121AAAA3
:1019460074FF04C0E0121B34121734E53B20050275
:10195600600312172BD0E0B53BE87F4512173E789F
:1019660038E67F2B30E7047F2DF404C0E012174CD5
:10197600D0E075F00A84C0F0121735D0E0121735A2
:10198600021785791080027908C206C2088008D23B
:10199600D5790A8004790AC2D5E53B047002F53B85
:1019A600E4FAFDFEFF121711FC7B08200113121743
:1019B60011FD7B1030000A121711FE121711FF7B62
:1019C60020EC3382D592D55013C3E43000069FFF36
:1019D600E49EFEE42001039DFDE49CFCE4CBF8C2FA
:1019E60001EC700CCFCECDCCE824F8F870F380175C
:1019F600C3EF33FFEE33FEED33FDEC33FCEB33FB8D
:101A0600994002FB0FD8E9EB300105F8D0E0C44855
:101A1600B201C0E00AEC4D4E4F78207B0070C2EA5E
:101A2600B53B0040BCC0E0121AACD0F0D0E02001BB
:101A360004C4C0E0C4B201C0F0121735D0F0D5F02E
:101A4600EB0217851216BF18225319895817F34C43
:101A560017EF42198D4F19954419954918084319DE
:101A66009B5518CC46192A451896471B615017F7FF
:101A76002D17FB2E181E2B17FF23181C201B4A2A76
:101A860017B74800001816E53BB4FF03753B06126E
:101A96001711FC121711FD121711FE121711FF78FC
:101AA600310212DD790AA2D5200314300509B910D6
:101AB600020404B9080104A2D5200602500104203C
:101AC60002689202B53A005034C0E07F2030031914
:101AD6007F30A20272067205500F121B03C202C2A9
:101AE60006C205C2087F30800F300503E9C0E01248
:101AF600174C300503D0E0F9D0E0B53ACC300517E5
:101B06007F30B9100C12174C7F583004077F78804D
:101B160003B9080312174C3002057F2D02174C7FBC
:101B2600202008F87F2B2006F322920280CF7F0028
:101B3600B4070050052431F8E6FF22286E756C6C58
:101B46002900D2011217113001F8C201783A30D5B6
:101B56000108F60217B72D504349581217112403EE
:101B6600B405004001E4901B5C9312173D743A12D1
:0A1B7600173DD203753A04021989E5
:10126400E9D2E7C933E833F892D5EDD2E7CD33ECD0
:0712740033FC5002B2D52249
:10127B00EC30E7100FBF000C0EBE00080DBD0004D4
:10128B000BEB6014A2D5EB13FCED92E7FD2274FF80
:10129B00FCFDFEFF22E480F8A2D574FF13FC7D80D9
:0312AB00E480EFED
:1012AE00F920E72824F950037907E4F42402FB1807
:1012BE00DBFDE624FB5014E9600DE4F618E604F6B7
:0F12CE00B40A08E4F6D9F57401F60A22C2D52253
:1012DD00ED33EC3392D5FA602AB4FF33EDC2E77BE0
:1012ED00FF60067A137902E4227A13790B20D50474
:1012FD007A137906224E614E002B494E46002D4938
:10130D004E4600E47A08F608DAFC7B00740722E802
:10131D00C0E0ECC0E0EDC0E0EEC0E0EFC0E0EA758B
:10132D00F010A4CAABF075F04DA42BFBE435F0FC26
:10133D00EA2410FAEB34C5FBEC34D9FCEDC2E7FF1F
:10134D0075F056A4F42411C5F0F434C58FF0A42A19
:10135D00E5F03BE43CF620E7141215A8D0E0FFD0F1
:10136D00E0FED0E0FDD0E0FC1214DB8014F404129A
:10137D0015A8D0E0FFD0E0FED0E0FDD0E0FC1210CB
:10138D00E9D0E0F8E6FAEDD2E7CD33EC332482FB79
:10139D00E4C3CF33CFCE33CECD33CD33DBF37B07A9
:1013AD0075F00A846004F6081B0AE5F0F6088FF064
:1013BD00740AA4FFACF08EF0740AA42CFEACF050AD
:1013CD00010C8DF0740AA42CFDE435F0F608DBDE7B
:0313DD0074072270
:1013E000021299E86480F8E933E83360110460F090
:1013F000ED33EC337009E8FCE9FDEAFEEBFF220473
:1014000060DED3EB9FEA9EE99DE8C2E78CF0C2F76D
:1014100095F0400CE8CCF8E9CDF9EACEFAEBCFFB39
:1014200012126485D0F05804700320D5B3E804701C
:10143000075002B2D50212A392D5EC0460F7E4CCB7
:10144000C0E0C398F8603B94186008400DD0E0FB02
:1014500002127BE4FBFAC9FC8028E830E406E4C908
:10146000FBE4CAFCE830E305E4C9CACBFCE8540756
:101470006010F8C3E913F9EA13FAEB13FBEC13FC61
:10148000D8F130F52FC3E49CFCEF9BFFEE9AFEED04
:1014900099FDD0E0FBEF4E4D4C701222DB0302129F
:1014A000A0EC2CFCEF33FFEE33FEED33FDED30E727
:1014B000EB02127BEF2BFFEE3AFEED39FDD0E0FBA5
:1014C00050130BBB00030212A3ED13FDEE13FEEF4E
:0814D00013FFEC13FC02127B78
:1014D8000212A3EC5D046005E85904700302129936
:1014E800121264580460F6EC4860F2EC7004FDFED9
:1014F800FF22C860DB2481C85009C39860025006E7
:101508000212A09850CAF582E9294B4A7005AB82AD
:1015180002128F75F0007C1A7880C3EF9BEE9AED6B
:1015280099400DC3EF9BFFEE9AFEED99FDE842F05E
:10153800DC23ACF0D0E0FFD0E0FED0E0FDAB8220B1
:10154800E7101BEB60BAEC2CFCEF33FFEE33FEED3B
:1015580033FD02127BE803F830E705C0F075F000B0
:10156800EF2FFFEE33FEED33FD40B830E7C280AA1F
:101578003F8000004120000042C80000447A00007B
:10158800461C400047C35000497424004B189680FD
:101598004CBEBC205A0E1BCA6753C21C749DC5AEF4
:1015A800FB60065407601C23231215D6EB543860E1
:1015B800091215C21215D11210E9ECF8EDF9EEFA7C
:1015C800EFCB22EB1215D180F1543803241C90156F
:1015D80078FE93FC0EEE93FD0EEE930ECE93FF2253
:10293A00022A74E493A3F8E493A34003F68001F215
:10294A0008DFF48029E493A3F85407240CC8C3339E
:10295A00C4540F4420C8834004F456800146F6DF6D
:10296A00E4800B0102040810204080902B75E47E5D
:10297A00019360BCA3FF543F30E509541FFEE49362
:10298A00A360010ECF54C025E060A840B8E493A329
:10299A00FAE493A3F8E493A3C8C582C8CAC583CA54
:1029AA00F0A3C8C582C8CAC583CADFE9DEE780BE0C
:012B9A00003A
:1015E800BB010689828A83E0225002E722BBFE0201
:0915F800E32289828A83E4932234
:10160100BB010CE58229F582E5833AF583E022509E
:1016110006E92582F8E622BBFE06E92582F8E222E8
:0D162100E58229F582E5833AF583E4932202
:10162E00BB010689828A83F0225002F722BBFE019B
:02163E00F32295
:10164000BC000BBE0029EF8DF084FFADF022E4CC8E
:10165000F875F008EF2FFFEE33FEEC33FCEE9DEC57
:10166000984005FCEE9DFE0FD5F0E9E4CEFD22ED9D
:10167000F8F5F0EE8420D21CFEADF075F008EF2FE7
:10168000FFED33FD4007985006D5F0F222C398FDD8
:051690000FD5F0EA2275
:0E169500C3E49FFFE49EFEE49DFDE49CFC2266
:0C16A300A42582F582E5F03583F5832252
:1016AF00FAE6FB0808E6F925F0F618E6CA3AF6223C
:1016BF00D083D082F8E4937012740193700DA3A3BA
:1016CF0093F8740193F5828883E4737402936860CE
:0616DF00EFA3A3A380DFCE
:102B4E00EFB40A07740D122B59740A309811A89914
:102B5E00B8130CC2983098FDA899C298B811F630E7
:072B6E0099FDC299F59922BF
:082CFA00EF30E703F404FF22B0
:1016E500EF4E6012EF60010EEDBB010B89828A831C
:1016F500F0A3DFFCDEFA2289F05007F709DFFCA929
:0C170500F022BBFEFCF309DFFCA9F0227F
:00000001FF
