:0300000002060FE6
:0C060F00787FE4F6D8FD75810D02057AB5
:10057A00120549E4FF1204C17D027F017E001204C4
:10058A000D7F041204C17D027F017E0012040D80DA
:01059A00E27E
:0B040200E4FF12061B7F327D017E002C
:10040D00ED14601A14603624027055EF1FAC06709F
:10041D00011ED39400EC94004046000080EDEF1FC8
:0D042D00AC0670011ED39400EC9400403327
:0E043A00000075090C750AA8D50AFDD509FA4F
:1004480080E1EF1FAC0670011ED39400EC940040CD
:01045800148F
:1004590075092E750A99750BF5D50BFDD50AFAD5CF
:0204690009F791
:02046B0080DD32
:01046D00226C
:1005EB00538E7F5389F0438901758AB0758C3CC259
:0205FB008D224F
:1005FD00538EBF53890F438910758BE0758DB1C232
:02060D008F223A
:08063100758AB0758C3C0022B3
:08063900758BE0758DB1002204
:1005D70020B2FD7F1412040930B2FD7D017F007E39
:0405E7000102040DFC
:0C061B00EF7003C29622BF0102D29622AB
:10054900E4F5977593FFF594F5917592FC7595F01F
:1005590075960FD2A1D2A3D2977D017F01FE120415
:100569000DC2971206271205EB1205FDD2B202053C
:01057900D7AA
:0A062700E4F5D8F5F9F5E9F5D9225C
:10059B00AC07E4120113E4FBFA7920784012000354
:0E05AB001201478FEA8FFA75DA42E4F5F22268
:1005B900AC07E4120113E4FBFA7920784012000336
:0E05C9001201478FEB8FFB75DB42E4F5F32246
:0401D6007D647F05C0
:1001DA008D09E509700122D3E509648094E440059C
:1001EA00750964800CC3E5096480941C5003750981
:1001FA009CEFB40700400302031390020BF828286F
:10020A007302022002024A0202650202A00202BD31
:10021A000202DA0202F7D2DED3E509648094804052
:10022A0008AF091205B9C29522C3E5096480948012
:10023A004003020313AF091206411205B9D29522EF
:10024A00D2DED3E5096480948040028020C3E509A8
:10025A006480948040030203138030D2DED3E50920
:10026A0064809480400FAF091205B9C295AF091294
:10027A00059BC29222C3E50964809480400302036D
:10028A0013AF091206411205B9D295AF09120641F8
:10029A0012059BD29222D297D3E5096480948040BA
:1002AA0004D2A0800BC3E509648094805002C2A0E6
:1002BA00C2A122D297D3E509648094804004D2A2D5
:1002CA00800BC3E509648094805002C2A2C2A322B3
:1002DA00C297D3E509648094804004C2A0800BC30E
:1002EA00E509648094805002D2A0C2A122C297D3A9
:1002FA00E509648094804004C2A2800BC3E50964C6
:0A030A008094805002D2A2C2A32208
:10046E00EFB40700504C90047BF8282873020490D8
:10047E0002049202049A0204AB0204AF0204B30215
:10048E0004BA8011E4FF12059BC29222C2DEE4FF81
:10049E0012059BC292E4FF1205B9C29522D2978033
:1004AE0006D2978009C297C2A0D2A122C297C2A239
:0304BE00D2A322A4
:100507008F0CE50C640170187D9C7F031201DA20C3
:10051700B3FD7D017F147E0012040D20B3EA80161F
:100527007D647F031201DA20B4FD7D017F147E0014
:1005370012040D20B4EA7F0312046E90000AE50C42
:02054700F022A0
:100314008F0DE50D24FE602B24FE605A24FE70032D
:100324000203AB24FE70030203E12408600302030A
:10033400FB1201D612040220A4FD12040720A4F12A
:100344000203DA90000BE0FFE50DD39F40167D9C7D
:100354007F051201DA12040220A5FD12040720A56C
:10036400ED0203DA1201D612040220A5FD120407DD
:1003740020A5F10203DA90000BE0FFE50DD39F40C6
:10038400157D9C7F051201DA12040220A6FD1204D9
:100394000720A6ED80401201D612040220A6FD1209
:1003A400040720A6F1802F90000BE0FFE50DD39FFA
:1003B40040157D9C7F051201DA12040220A7FD126C
:1003C400040720A7ED800F1201D612040220A7FD16
:1003D40012040720A7F17F0512046E801A7D9C7F0A
:1003E400051201DA7F0112040420A4FD120407207F
:0E03F400A4EB7F0502046E90000BE50DF022D5
:1004C1008F08E50824FC601C240470337D647F04DC
:1004D1001201DA20B5FD7D017F147E0012040D208A
:1004E100B5EA80167D9C7F041201DA20B6FD7D01FC
:1004F1007F147E0012040D20B6EA7F0412046E9070
:06050100000CE508F022E9
:10000300EC4D6011E8497017ED33EC3304600DE4F7
:10001300FCFFFEFD22E933E8330470F80201B3125A
:10002300017E58046009E4CC24815006285009025B
:1000330001BD2840030201BAC0E0EB4A7044B98015
:1000430006D0E0FB0201A9EF4E701CBD8008EBFF58
:10005300EAFEE9FD80EBE98DF0A4FEE5F00200EC99
:10006300E9CDF9EAFEEBFFEF89F0A4FCE5F0CE89D8
:10007300F0A42EFFE435F0CD89F0A42DFEE435F095
:100083008067EF4E7005BD80D780C3EF8BF0A4ACC3
:10009300F0EE8BF0A42CFCE435F0F8EF8AF0A42CFE
:1000A300E5F038FCE433CB8DF0A42CFCE5F03BF811
:1000B300EE8AF0A42CFCE5F038F8E433CF89F0A401
:1000C3002CFCE5F038CF3400CE89F0A42FFFE5F007
:1000D3003EFEE433C98DF0A42EFEE5F039CD8AF05F
:1000E300A42FFFE5F03EFEE43DFD33D0E0FB5007D7
:1000F3000BBB000F0201BDEC2CFCEF33FFEE33FE14
:06010300ED33FD02019541
:1001090075F020800E75F010800575F0087D007E71
:10011900007F003392D530D5031201C8EC3340106B
:10012900EF33FFEE33FEED33FDEC33FCD5F0ED227A
:0E013900E5F0247EA2D513CC92E7CDCEFF22B6
:10014700EDD2E7CD33EC3392D524814006E4FFFEB0
:10015700FDFC22FCE4CFCECDCC24E0501174FF800F
:10016700EDC3CC13CCCD13CDCE13CECF13CF0470AC
:07017700F030D5DE0201C8E3
:10017E00E9D2E7C933E833F892D5EDD2E7CD33ECC7
:07018E0033FC5002B2D52240
:10019500EC30E7100FBF000C0EBE00080DBD0004CB
:1001A5000BEB6014A2D5EB13FCED92E7FD2274FF77
:1001B500FCFDFEFF22E480F8A2D574FF13FC7D80D0
:0301C500E480EFE4
:0E01C800C3E49FFFE49EFEE49DFDE49CFC2248
:08064100EF30E703F404FF228F
:00000001FF
