:0300000002145D8A
:0C145D00787FE4F6D8FD75813E0214A4EF
:0A1837002573200A0073746F70001F
:10166C001216A6E4900007F0A3F0A3F0A3F0A37465
:10167C0008F0E4A3F0A304F07F0612100C7F031211
:10168C0015D87F041215D87F051215D87F061215B0
:0A169C00D87F021215D8C2AF80FEFD
:0300030002185B85
:01185B00325A
:03000B0002179049
:10179000C0E0C0F0C083C082C0D075D00812181B52
:0B17A000D0D0D082D083D0F0D0E03257
:03001B0002185C6C
:01185C003259
:050006002564200A0042
:1016F7005A000E01F400C8003A0320029A02AC0215
:10170700AC029A01F401F405C8084A084A021C0011
:0117170000D1
:061571007F197D017E00E0
:10157700ED14601A14603624027055EF1FAC067024
:10158700011ED39400EC94004046000080EDEF1F4D
:0D159700AC0670011ED39400EC94004033AC
:0E15A400000075190C751AA8D51AFDD519FA94
:1015B20080E1EF1FAC0670011ED39400EC94004052
:0115C2001414
:1015C30075192E751A99751BF5D51BFDD51AFAD504
:0215D30019F706
:0215D50080DDB7
:0115D70022F1
:1017C600438E805389F0438901758A20758CD1C276
:0617D6008DD2A9D2AF2262
:1017DC00538EBF53890F438910758BE0758DB1C241
:0617EC008FD2ABD2AF2248
:10181B00758A20758CD100051DE51D7002051C22F3
:08184B00758BE0758DB10022E0
:1018070020B2FD7F1412157330B2FD7D017F007E7B
:04181700010215773E
:0C182B00EF7003C29622BF0102D2962289
:1016A600E4F5977593FFF594F5917592FC7595F0B1
:1016B60075960FD2A1D2A3C2971218411217C6125D
:0A16C60017DC1217F2D2B202180767
:0A184100E4F5D8F5F9F5E9F5D92230
:10171900AC07E412012EE4FBFA7920784012001E8E
:0E1729001201628FEA8FFA75DA42E4F5F222BD
:10173700AC07E412012EE4FBFA7920784012001E70
:0E1747001201628FEB8FFB75DB42E4F5F3229B
:041205007D647F0481
:101209008D19E519700122D3E519648094E440052C
:10121900751964800CC3E5196480941C5003751911
:101229009CEFB40700400302134290123AF82828B1
:101239007302124F0212790212940212CF0212ECB7
:10124900021309021326D2DED3E519648094804083
:1012590008AF19121737C29522C3E5196480948023
:101269004003021342AF19121853121737D29522AD
:10127900D2DED3E5196480948040028020C3E51949
:101289006480948040030213428030D2DED3E51992
:1012990064809480400FAF19121737C295AF1912A5
:1012A9001719C29222C3E51964809480400302137E
:1012B90042AF19121853121737D295AF1912185392
:1012C900121719D29222D297D3E5196480948040DB
:1012D90004D2A0800BC3E519648094805002C2A097
:1012E900C2A122D297D3E519648094804004D2A286
:1012F900800BC3E519648094805002C2A2C2A32264
:10130900C297D3E519648094804004C2A0800BC3BE
:10131900E519648094805002D2A0C2A122C297D359
:10132900E519648094804004C2A2800BC3E5196466
:0A1339008094805002D2A2C2A322C9
:1015D800EFB40700504C9015E5F82828730215FA67
:1015E8000215FC02160402161502161902161D022F
:1015F80016248011E4FF121719C29222C2DEE4FFFA
:10160800121719C292E4FF121737C29522D2978097
:1016180006D2978009C297C2A0D2A122C297C2A2BD
:03162800D2A32228
:10162B008F1EE51EB401187D9C7F0312120920B397
:10163B00FD7D017F147E0012157720B3EA80167DA5
:10164B00647F0312120920B4FD7D017F147E00120A
:10165B00157720B4EA7F031215D890000AE51EF027
:01166B00225C
:10100C008F1890000BE065187003021204E518B4F9
:10101C00090040030211F990102AF82828730210D5
:10102C00450210700210980210D602110302113DF5
:10103C0002116A0211A30211CA7D647F0512120902
:10104C00E4FF12182B7D017F327E0012157720A44D
:10105C00FD7D017F147E0012157720A4F17F147E94
:10106C00000211F690000BE0FFE518D39F40047DC1
:10107C009C80077F0212100C7D647F051212099070
:10108C000014E0FEA3E0FF7D010211F690000BE0DE
:10109C00FFE518D39F40047D9C80027D647F051280
:1010AC001209E4FF12182B7D017F327E0012157796
:1010BC0020A5FD7D017F147E0012157720A5F190EF
:1010CC000012E0FEA3E0FF0211F690000BE0FFE53A
:1010DC0018D39F40097F0212100C7D9C80077F045F
:1010EC0012100C7D647F05121209900014E0FEA30F
:1010FC00E0FF7D010211F690000BE0FFE518D39F95
:10110C0040047D9C80027D647F05121209E4FF126D
:10111C00182B7D017F327E0012157720A6FD9000E2
:10112C0012E0FEA3E0FF7D0112157720A6ED02115F
:10113C00F990000BE0FFE518D39F40097F041210D3
:10114C000C7D9C80077F0612100C7D647F051212AB
:10115C0009900014E0FEA3E0FF7D010211F690005F
:10116C000BE0FFE518D39F40047D9C80027D647FDB
:10117C0005121209E4FF12182B7D017F327E00123A
:10118C00157720A7FD900012E0FEA3E0FF7D011271
:10119C00157720A7ED805690000BE0FFE518D39F44
:1011AC0040097F0612100C7D9C80027D647F051225
:1011BC001209900014E0FEA3E0FF7D01802C7D9CC1
:1011CC007F051212097F0112182B7D017F327E00E0
:1011DC0012157720A4FD7D017F147E001215772057
:1011EC00A4F1900012E0FEA3E0FF1215777F051228
:0911FC0015D890000BE518F02253
:101343008F1FE51F14602B1460651470030213EFE5
:10135300147003021434240460030214511212059E
:1013630020B5FD7D017F147E0012157720B5EE02B6
:10137300144A90000CE024FE601A146020146026C6
:10138300240460030214517D9C7F0412120990000F
:101393001602142B12120590001802142B121205B8
:1013A30090002202142B12120590002602142B9097
:1013B300000CE014601A24FE6022146027240460E9
:1013C300030214517D9C7F0412120990001E805861
:1013D3007D9C7F04121209900018804C1212059014
:1013E300001A8044121205900020803C90000CE00B
:1013F30014601714602024FE6028240470507D9C20
:101403007F04121209900024801E7D9C7F04121217
:101413000990002280127D9C7F0412120990001A09
:10142300800612120590001CE0FEA3E0FF7D018000
:101433001A7D9C7F0412120920B6FD7D017F147E64
:101443000012157720B6EA7F147E001215777F0409
:0A1453001215D890000CE51FF022DE
:100DE8008F3EE53E147003020E86147003020F074F
:100DF800147003020F882403600302100090000D92
:100E0800E024FE603B146057240260030210007D5A
:100E18009C7F061212097F0112182B7D027E001298
:100E2800157720A5FD12157120A5F730A5FD12151F
:100E38007130A5F720A5FD12157120A5F702100045
:100E48007D647F061212097F0112182B7D027E0035
:100E580012157720A5FD12157120A5F70210007D47
:100E68009C7F061212097F0112182B7D027E001248
:100E7800157720A5FD12157120A5F7021000900026
:100E88000DE024FE603B1460572403600302100049
:100E98007D647F061212097F0112182B7D027E00E5
:100EA80012157720A5FD12157120A5F730A5FD12A2
:100EB800157130A5F720A5FD12157120A5F70210B0
:100EC800007D9C7F061212097F0112182B7D027E7D
:100ED8000012157720A5FD12157120A5F702100044
:100EE8007D647F061212097F0112182B7D027E0095
:100EF80012157720A5FD12157120A5F70210009094
:100F0800000DE014602A24FE6045240360030210EB
:100F1800007D9C7F061212097F0112182B7D027E2C
:100F28000012157720A5FD12157120A5F7021000F3
:100F38007D647F061212097F0112182B7D027E0044
:100F480012157720A5FD12157120A5F70210007D56
:100F58009C7F061212097F0112182B7D027E001257
:100F6800157720A5FD12157120A5F730A5FD1215DE
:100F78007130A5F720A5FD12157120A5F702100004
:100F880090000DE01460251460402402706A7D64AE
:100F98007F061212097F0112182B7D027E0012159E
:100FA8007720A5FD12157120A5F7804C7D9C7F0642
:100FB8001212097F0112182B7D027E00121577206C
:100FC800A5FD12157120A5F7802E7D647F061212EB
:100FD800097F0112182B7D027E0012157720A5FDCE
:100FE80012157120A5F730A5FD12157130A5F7204F
:100FF800A5FD12157120A5F77F061215D890000DD2
:04100800E53EF022AF
:060A7D008F108D118B1299
:100A8300C209E4F515851116851117F513751402BE
:100A9300E511FD7C00C3E5149DE5139C50219000F6
:100AA3000EE0FEA3E0FF1205757D01121577051414
:100AB300E5147002051314FD7F0212120980D1851B
:100AC300111685111730870320810630866B30801D
:100AD30068D209E515C395105003020CC1E51264F1
:100AE3000270267DECFF1212097D017FF47E011254
:100AF30015773084FD3083FAE4FD7F64FE121577A9
:100B03003084EF3083EC020CBAE512640360030215
:100B13000CC17DEC7F011212097D017FF47E01126D
:100B230015773084FD3083FAE4FD7F64FE12157778
:100B33003084EF3083EC020CBA200903020CC105A8
:100B430015E515C395105003020CBFE512600302AF
:100B53000CBFF513F514D3900011E0951490001019
:100B6300E095135003020CBAAC11E412012E743356
:100B7300FBFAF9783F12001E1201628F168F1730AD
:100B8300852BAC16E412012E7466FBFAF9783F123A
:100B9300001E1201628F16AC17E412012E7BCD7A70
:100BA300CC798C783F12001E1201628F1730822B92
:100BB300AC16E412012E7BCD7ACC798C783F1200EF
:100BC3001E1201628F16AC17E412012E7466FBFA33
:100BD300F9783F12001E1201628F1730862CAC1673
:100BE300E412012E7BCD7ACC794C783F12001E1291
:100BF30001628F16AC17E412012E7B9A7A997999C8
:100C0300783F12001E1201628F1730812CAC16E45C
:100C130012012E7B9A7A997999783F12001E12015C
:100C2300628F16AC17E412012E7BCD7ACC794C7807
:100C33003F12001E1201628F1730872BAC16E4128D
:100C4300012E7433FBFAF9783F12001E1201628FF2
:100C530016AC17E412012E7B667A6679A6783F12EA
:100C6300001E1201628F1730802BAC16E412012E86
:100C73007B667A6679A6783F12001E1201628F1690
:100C8300AC17E412012E7433FBFAF9783F12001EFD
:100C93001201628F17AD16E4FF121209AD177F011F
:100CA3001212097D017F017E001215770514E514E8
:100CB30070020513020B597F020215D8C209308551
:100CC3002BAC16E412012E7466FBFAF9783F12007E
:100CD3001E1201628F16AC17E412012E7BCD7ACC63
:100CE300798C783F12001E1201628F1730822BAC71
:100CF30016E412012E7BCD7ACC798C783F12001E3C
:100D03001201628F16AC17E412012E7466FBFAF916
:100D1300783F12001E1201628F1730862CAC16E446
:100D230012012E7BCD7ACC794C783F12001E120132
:100D3300628F16AC17E412012E7B9A7A997999780F
:100D43003F12001E1201628F1730812CAC16E41281
:100D5300012E7B9A7A997999783F12001E120162CB
:100D63008F16AC17E412012E7BCD7ACC794C783FE9
:100D730012001E1201628F1730872BAC16E412018A
:100D83002E7433FBFAF9783F12001E1201628F169C
:100D9300AC17E412012E7B667A6679A6783F1200BF
:100DA3001E1201628F1730802BAC16E412012E7BCA
:100DB300667A6679A6783F12001E1201628F16AC1E
:100DC30017E412012E7433FBFAF9783F12001E1256
:100DD30001628F17AD16E4FF121209AD177F0112DE
:050DE3001209020AC222
:0D000E00E4F5C7F5C5F5C675C380F5C4223D
:1017550075C78375C5018FC48EC375C65A75C6A571
:0D176500E4FD7F0AFE121577AFC212000EE0
:011772002254
:1017730075C78375C5028FC48EC38DC275C65A756E
:0D178300C6A5E4FD7F0AFE12157702000ED8
:1017AB0075C78375C5038FC48EC375C65A75C6A519
:0B17BB00E4FD7F0AFE12157702000E0D
:1014E900E4FF1213437F04121343D28CE4FF121357
:1014F900437F04121343C28CAC1CAD1DE4120129B5
:101509007B147AAE79C7783E12001E1201628E1CD6
:101519008F1DAC1CAD1DE4120129E4FBFAF9783FDB
:1015290012001E12016290001EEEF0A3EFF0A3EE6E
:10153900F0A3EFF0AC1CAD1DE4120129E4FBFA792C
:1015490040783F12001E120162900026EEF0A3EFD0
:10155900F0900024EEF0A3EFF07BFF7A0079068586
:081569001C25851D26020670F9
:1017F200438780759850438E04759CD9438E01436C
:051802008E10D29922B6
:10001E00EC4D6011E8497017ED33EC3304600DE4DC
:10002E00FCFFFEFD22E933E8330470F80201CE1224
:10003E00019958046009E4CC248150062850090225
:10004E0001D82840030201D5C0E0EB4A7044B980C4
:10005E0006D0E0FB0201C4EF4E701CBD8008EBFF22
:10006E00EAFEE9FD80EBE98DF0A4FEE5F002010762
:10007E00E9CDF9EAFEEBFFEF89F0A4FCE5F0CE89BD
:10008E00F0A42EFFE435F0CD89F0A42DFEE435F07A
:10009E008067EF4E7005BD80D780C3EF8BF0A4ACA8
:1000AE00F0EE8BF0A42CFCE435F0F8EF8AF0A42CE3
:1000BE00E5F038FCE433CB8DF0A42CFCE5F03BF8F6
:1000CE00EE8AF0A42CFCE5F038F8E433CF89F0A4E6
:1000DE002CFCE5F038CF3400CE89F0A42FFFE5F0EC
:1000EE003EFEE433C98DF0A42EFEE5F039CD8AF044
:1000FE00A42FFFE5F03EFEE43DFD33D0E0FB5007BC
:10010E000BBB000F0201D8EC2CFCEF33FFEE33FEDD
:06011E00ED33FD0201B00B
:1001240075F020800E75F010800575F0087D007E56
:10013400007F003392D530D5031205CAEC3340104A
:10014400EF33FFEE33FEED33FDEC33FCD5F0ED225F
:0E015400E5F0247EA2D513CC92E7CDCEFF229B
:10016200EDD2E7CD33EC3392D524814006E4FFFE95
:10017200FDFC22FCE4CFCECDCC24E0501174FF80F4
:10018200EDC3CC13CCCD13CDCE13CECF13CF047091
:07019200F030D5DE0205CAC2
:10060E00E5392425F8E605392278223007027825C7
:10061E00E475F0011205D802051D2000EB7F2ED2E5
:10062E00008018EF540F2490D43440D4FF30040BC4
:10063E00EF24BFB41A0050032461FFE53A6002159F
:10064E003A053DE53D7002053C30070D7822E47514
:10065E00F0011205D8EF0205630216D07403D2071B
:10066E008003E4C207F5398B228A238924E4F53A04
:10067E00F53CF53DE53A60077F2012064980F57599
:10068E003BFFC201C200C202C203C205C206C208BB
:10069E00120617FF700D3007057F0012065AAF3D88
:1006AE00AE3C22B4255FC2D5C204120617FF24D079
:1006BE00B40A00501A75F00A783A30D50508B6FF1C
:1006CE000106C6A426F620D5047002D20380D924D2
:1006DE00CFB41A00EF5004C2E5D204020947D2018A
:1006EE0080C6D20080C0D20280BCD2D580BAD205DC
:1006FE0080B47F201206492002077401B53A0040EB
:10070E00F112060EFF120649020682D208D20680A8
:10071E009512060EFB12060EFA12060EF94A4B70D1
:10072E0006793E7A0A7BFF20022EE53A602A7E0089
:10073E008E8275830012053660060EEE653B70F0F4
:10074E00C2D5EBC0E0EAC0E0E9C0E0EE1209A7D0E6
:10075E00E0F9D0E0FAD0E0FB12051DFF60AAEBC075
:10076E00E0EAC0E0E9C0E0120649D0E02401F9D089
:10077E00E03400FAD0E0FBE53B0460DCD53BD980E9
:10078E0087D20280A212098A60F7E53B700104123B
:10079E0001E3A93B600DE53B600914F53B120A31FC
:1007AE00EF60F3EA30E702F404C3995077EAF425D8
:1007BE003B0430E701E404F53B800D12098A60C169
:1007CE00EA053B253B1201E3EA7838F630E701E40F
:1007DE00253B04D53B04200501141209A7E4C0E013
:1007EE00120A317838E6601320E70714F612063144
:1007FE00802204F6D0E014C0E07F00120631E53B03
:10080E006007120628153B800B300503120628D010
:10081E00E0020682D0E00480C512098A60A0E53BA2
:10082E00041201E37838EAF6E53B20050260010484
:05083E0024041209A7CB
:1008430074FF04C0E0120A31120631E53B200502B1
:100853006003120628D0E0B53BE87F4512063B78DB
:1008630038E67F2B30E7047F2DF404C0E0120649FD
:10087300D0E075F00A84C0F0120632D0E0120632DE
:10088300020682791080027908C206C2088008D263
:10089300D5790A8004790AC2D5E53B047002F53B99
:1008A300E4FAFDFEFF12060EFC7B0820011312067C
:1008B3000EFD7B1030000A12060EFE12060EFF7BA1
:1008C30020EC3382D592D55013C3E43000069FFF4A
:1008D300E49EFEE42001039DFDE49CFCE4CBF8C20E
:1008E30001EC700CCFCECDCCE824F8F870F3801770
:1008F300C3EF33FFEE33FEED33FDEC33FCEB33FBA1
:10090300994002FB0FD8E9EB300105F8D0E0C44869
:10091300B201C0E00AEC4D4E4F78207B0070C2EA72
:10092300B53B0040BCC0E01209A9D0F0D0E02001E3
:1009330004C4C0E0C4B201C0F0120632D0F0D5F056
:10094300EB0206821205E8071F5308865806F04C8F
:1009530006EC42088A4F0892440892490705430867
:10096300985507C9460827450793470A5E5006F47A
:100973002D06F82E071B2B06FC230719200A472AEE
:1009830006B44800000713E53BB4FF03753B0612AA
:10099300060EFC12060EFD12060EFE12060EFF7860
:1009A30031020212790AA2D5200314300509B910C5
:1009B300020404B9080104A2D52006025001042050
:1009C30002689202B53A005034C0E07F2030031928
:1009D3007F30A20272067205500F120A00C202C2D1
:1009E30006C205C2087F30800F300503E9C0E0125C
:1009F3000649300503D0E0F9D0E0B53ACC3005170D
:100A03007F30B9100C1206497F583004077F788075
:100A130003B908031206493002057F2D0206497FF8
:100A2300202008F87F2B2006F322920280CF7F003C
:100A3300B4070050052431F8E6FF22286E756C6C6C
:100A43002900D20112060E3001F8C201783A30D5DE
:100A53000108F60206B42D5043495812060E24032A
:100A6300B405004001E4900A599312063A743A120D
:0A0A7300063AD203753A0402088621
:10019900E9D2E7C933E833F892D5EDD2E7CD33ECAC
:0701A90033FC5002B2D52225
:1001B000EC30E7100FBF000C0EBE00080DBD0004B0
:1001C0000BEB6014A2D5EB13FCED92E7FD2274FF5C
:1001D000FCFDFEFF22E480F8A2D574FF13FC7D80B5
:0301E000E480EFC9
:1001E300F920E72824F950037907E4F42402FB18E3
:1001F300DBFDE624FB5014E9600DE4F618E604F693
:0F020300B40A08E4F6D9F57401F60A22C2D5222E
:10021200ED33EC3392D5FA602AB4FF33EDC2E77BBB
:10022200FF60067A027937E4227A02794020D50407
:100232007A02793B224E614E002B494E46002D49EF
:100242004E4600E47A08F608DAFC7B00740722E8DE
:10025200C0E0ECC0E0EDC0E0EEC0E0EFC0E0EA7567
:10026200F010A4CAABF075F04DA42BFBE435F0FC02
:10027200EA2410FAEB34C5FBEC34D9FCEDC2E7FFFB
:1002820075F056A4F42411C5F0F434C58FF0A42AF5
:10029200E5F03BE43CF620E7141204DDD0E0FFD0A9
:1002A200E0FED0E0FDD0E0FC1204108014F4041251
:1002B20004DDD0E0FFD0E0FED0E0FDD0E0FC120093
:1002C2001ED0E0F8E6FAEDD2E7CD33EC332482FB20
:1002D200E4C3CF33CFCE33CECD33CD33DBF37B0785
:1002E20075F00A846004F6081B0AE5F0F6088FF040
:1002F200740AA4FFACF08EF0740AA42CFEACF05089
:10030200010C8DF0740AA42CFDE435F0F608DBDE56
:030312007407224B
:100315000201CEE86480F8E933E83360110460F047
:10032500ED33EC337009E8FCE9FDEAFEEBFF22044E
:1003350060DED3EB9FEA9EE99DE8C2E78CF0C2F749
:1003450095F0400CE8CCF8E9CDF9EACEFAEBCFFB15
:1003550012019985D0F05804700320D5B3E80470D4
:10036500075002B2D50201D892D5EC0460F7E4CC6F
:10037500C0E0C398F8603B94186008400DD0E0FBDE
:100385000201B0E4FBFAC9FC8028E830E406E4C9C0
:10039500FBE4CAFCE830E305E4C9CACBFCE8540732
:1003A5006010F8C3E913F9EA13FAEB13FBEC13FC3D
:1003B500D8F130F52FC3E49CFCEF9BFFEE9AFEEDE0
:1003C50099FDD0E0FBEF4E4D4C701222DB0302018C
:1003D500D5EC2CFCEF33FFEE33FEED33FDED30E7CE
:1003E500EB0201B0EF2BFFEE3AFEED39FDD0E0FB5D
:1003F50050130BBB00030201D8ED13FDEE13FEEF06
:0804050013FFEC13FC0201B02F
:10040D000201D8EC5D046005E8590470030201CEC9
:10041D00120199580460F6EC4860F2EC7004FDFE90
:10042D00FF22C860DB2481C85009C39860025006C2
:10043D000201D59850CAF582E9294B4A7005AB8265
:10044D000201C475F0007C1A7880C3EF9BEE9AED23
:10045D0099400DC3EF9BFFEE9AFEED99FDE842F03A
:10046D00DC23ACF0D0E0FFD0E0FED0E0FDAB82208D
:10047D00E7101BEB60BAEC2CFCEF33FFEE33FEED17
:10048D0033FD0201B0E803F830E705C0F075F00068
:10049D00EF2FFFEE33FEED33FD40B830E7C280AAFB
:1004AD003F8000004120000042C80000447A000057
:1004BD00461C400047C35000497424004B189680D9
:1004CD004CBEBC205A0E1BCA6753C21C749DC5AED0
:1004DD00FB60065407601C232312050BEB54386098
:1004ED00091204F712050612001EECF8EDF9EEFAEA
:1004FD00EFCB22EB12050680F1543803241C900437
:10050D00ADFE93FC0EEE93FD0EEE930ECE93FF22F9
:1014690002166CE493A3F8E493A34003F68001F217
:1014790008DFF48029E493A3F85407240CC8C33384
:10148900C4540F4420C8834004F456800146F6DF53
:10149900E4800B01020408102040809016F7E47ED6
:1014A900019360BCA3FF543F30E509541FFEE49348
:1014B900A360010ECF54C025E060A840B8E493A30F
:1014C900FAE493A3F8E493A3C8C582C8CAC583CA3A
:1014D900F0A3C8C582C8CAC583CADFE9DEE780BEF2
:0117180000D0
:10051D00BB010689828A83E0225002E722BBFE02DC
:09052D00E32289828A83E493220F
:10053600BB010CE58229F582E5833AF583E022507A
:1005460006E92582F8E622BBFE06E92582F8E222C4
:0D055600E58229F582E5833AF583E49322DE
:10056300BB010689828A83F0225002F722BBFE0177
:02057300F32271
:10057500BC000BBE0029EF8DF084FFADF022E4CC6A
:10058500F875F008EF2FFFEE33FEEC33FCEE9DEC33
:10059500984005FCEE9DFE0FD5F0E9E4CEFD22ED79
:1005A500F8F5F0EE8420D21CFEADF075F008EF2FC3
:1005B500FFED33FD4007985006D5F0F222C398FDB4
:0505C5000FD5F0EA2251
:0E05CA00C3E49FFFE49EFEE49DFDE49CFC2242
:1005D800FAE6FB0808E6F925F0F618E6CA3AF62224
:1005E800D083D082F8E4937012740193700DA3A3A2
:1005F80093F8740193F5828883E4737402936860B6
:06060800EFA3A3A380DFB5
:1016D000EFB40A07740D1216DB740A309811A8993A
:1016E000B8130CC2983098FDA899C298B811F6307A
:0716F00099FDC299F5992252
:08185300EF30E703F404FF226B
:00000001FF
