:0300000002189C47
:0C189C00787FE4F6D8FD7581520218E355
:0B1BD60025730A00526561647921004C
:1010D600E4F5977593FFF594F5917592FC7595F087
:1010E60075960FD2A1D2A3C297121BE1121B9512BD
:1010F6001BAB121BC1D28CE4900038F0A3F0900019
:10110600407428F0A37447F0A37440F0A37436F03B
:10111600A3742BF0E4900023F0FD7F21120B017DD8
:10112600007F22120B017D007F23120B017D007FC1
:1011360024120B017D007F20120B01D2B27525FF10
:1011460075261B7527DA7BFF7A1B79D61206F012F5
:101156001B7D7F3C12122212149E7F421212227FA6
:10116600321216EA7F441212227F321216EA7F36B4
:101176001216EA7D0B7FD07E0712192E7F351216C6
:10118600EA7D0B7FD07E0712192E7F341216EA7D78
:101196000B7FD07E0712192E7F331216EA7D0B7F46
:1011A600D07E0712192E7F321216EA7D0B7FD07E73
:1011B6000712192E7F321216EA7D0B7FD07E071298
:1011C600192E7F331216EA7D0B7FD07E0712192E59
:1011D6007F341216EA7D0B7FD07E0712192E7F35DB
:1011E6001216EA7D0B7FD07E0712192E7F36121655
:1011F600EAC2AFE4900023F0FD7F21120B017D00CF
:101206007F22120B017D007F23120B017D007F24BC
:0C121600120B017D007F20120B0180FEF6
:03000300020006F2
:0100060032C7
:03000B00021B478E
:101B4700C0E0C0F0C083C082C0D075D008121A8A26
:0B1B5700D0D0D082D083D0F0D0E0329C
:03001B00021B6263
:101B6200C0E0C0F0C083C082C0D075D008121A3560
:0B1B7200D0D0D082D083D0F0D0E03281
:101A06006021004561A800C8003A032014029A022A
:101A1600AC02AC029A01F401F405C8084A084A006F
:0E1A26001401F407D0041100000000011000AC
:061928007D0C7F017E0032
:10192E00ED24F5601A14603624027055EF1FAC06D4
:10193E0070011ED39400EC94004046000080EDEF41
:0E194E001FAC0670011ED39400EC94004033D1
:0E195C00000075270C7528A8D528FDD527FAA0
:10196A0080E1EF1FAC0670011ED39400EC94004096
:01197A001458
:10197B0075272E7528997529F5D529FDD528FAD502
:02198B0027F73C
:02198D0080DDFB
:01198F002235
:101B9500438E805389F0438901758A20758CD1C2A3
:061BA5008DD2A9D2AF228F
:101BAB00538EBF53890F438910758BE0758DB1C26E
:061BBB008FD2ABD2AF2275
:101A8A00758A20758CD1E5142401F514E43513F513
:101A9A0013E43512F512E43511F511900025E0B47E
:061AAA000103120D67228A
:101A3500758BE0758DB1900020E0FBA3E0FAA3E083
:101A4500F912051DFF645A6004EFB45B109000267F
:0E1A5500E0B4020930840320830312136622DA
:101B7D0020B2FD7D0B7F147E0012192E30B2FD7D3B
:081B8D000B7F007E0102192EFE
:0B1BE100E4F5D8F5F9F5E975D9082204
:101AB000AC07E412012E7B337A337923784012008D
:0F1AC0001E1201628FEA8FFA75DA42E4F5F22204
:101ACF00AC07E412012E7B337A337923784012006E
:0F1ADF001E1201628FEB8FFB75DB42E4F5F322E1
:040AFD007D647F2273
:100B01001517A817A6051517A817A607A81708E609
:100B1100FFD3648094E44007A817087664800DC36E
:100B2100EF6480941C5005A81708769CA817E6244A
:100B3100E2B407004003020D62900B4875F003A474
:100B4100C58325F0C58373020B5D020BA9020BEA75
:100B5100020C6A020CA5020CE0020D22A81708E69D
:100B6100FF90003EE0B50703020D6290003EEFF0FA
:100B7100A81708A900E77003020C18A81708E6FFD8
:100B8100D3648094804005D2DE020C19A81708E6D0
:100B9100FFC3648094804003020D62D2DE121BEC1D
:100BA100121ACFD295020D62A81708E6FF90003FF6
:100BB100E0B50703020D6290003FEFF0A81708A906
:100BC10000E770028071A81708E6FFD36480948063
:100BD1004004D2DE8062A81708E6FFC364809480D7
:100BE1004003020D62D2DE8075A81708E6FF90006F
:100BF1003EE0B50708A3E0B50703020D6290003F90
:100C0100EFF090003EF0A81708A900E77012C2DECD
:100C1100FF121AB0C292E4FF121ACFC295020D62FE
:100C2100A81708E6FFD3648094804014D2DE121A1C
:100C3100CFC295A81708E6FF121AB0C292020D6240
:100C4100A81708E6FFC3648094804003020D62D2B6
:100C5100DE121BEC121ACFD295A81708E6FF121B61
:100C6100EC121AB0D292020D62A81708E6FF9000AA
:100C71003AE0B50703020D6290003AEFF0A81708B9
:100C8100E6FF7004D2978073D3EF648094804005AF
:100C9100D297020D1CC3EF648094804003020D6261
:100CA100D2978067A81708E6FF90003BE0B50703DD
:100CB100020D6290003BEFF0A81708E6FF7004D226
:100CC10097807AD3EF648094804005D297020D5EBD
:100CD100C3EF648094804003020D62D297806EA8B6
:100CE1001708E6FF90003CE0B50702807490003CD5
:100CF100EFF0A81708E6FF7008C297C2A0D2A18042
:100D010060D3EF648094804008C297C2A0C2A180E2
:100D110050C3EF648094805048C297D2A0C2A18092
:100D210040A81708E6FF90003DE0B5070280329029
:100D3100003DEFF0A81708E6FF7008C297C2A2D2E3
:100D4100A3801ED3EF648094804008C297C2A2C2E0
:100D5100A3800EC3EF648094805006C297D2A2C2D2
:060D6100A305170517228F
:101990008F15900041E065156031E515B4470C7D69
:1019A0009C7F21120B0130B30C80FB7D647F2112E0
:1019B0000B0120B4FD7D0B7F147E0012192E7D00DB
:0C19C0007F21120B01900041E515F02280
:1016EA008F26900043E0652670030217FEE5262444
:1016FA00CD601F1460591470030217971470030207
:10170A0017DB240460030217F1120AFD20B5FD025B
:10171A0017E5900043E024CC601A14602014602678
:10172A00240460030217F17D9C7F22120B019000B2
:10173A004E0217D4120AFD9000500217D4120AFD65
:10174A0090005A0217D4120AFD90005E0217D49034
:10175A000043E024CD601A24FE602214602724048A
:10176A0060030217F17D9C7F22120B0190005680C4
:10177A00597D9C7F22120B01900050804D120AFD68
:10178A009000528045120AFD900058803D90004317
:10179A00E024CD601714602024FE602824047047DA
:1017AA007D9C7F22120B0190005C801E7D9C7F2213
:1017BA00120B0190005A80127D9C7F22120B01901D
:1017CA0000528006120AFD900054E0FEA3E0FF805A
:1017DA00117D9C7F22120B0120B6FD90004DE0FF87
:1017EA007E007D0B12192E7D007F22120B019000C4
:0517FA0043E526F0228A
:101222008F22900042E065227003021365E52224BA
:10123200C4B40900400302135890124975F003A484
:10124200C58325F0C5837302126402127302128DE4
:101252000212AB0212C80212E502130202131F02AB
:10126200133F7D647F23120B01C29620A4FD02135B
:101272004B900042E0FFE522D39F40057D9C021384
:10128200357F3E1212227D64021335900042E0FF48
:10129200E522C39F50047D6480027D9C7F23120B54
:1012A20001C29620A5FD02134B900042E0FFE52209
:1012B200D39F40097F3E1212227D9C80077F4012FD
:1012C20012227D64806D900042E0FFE522C39F50B0
:1012D200047D6480027D9C7F23120B01C29620A6AE
:1012E200FD8066900042E0FFE522D39F40097F40E7
:1012F2001212227D9C80077F421212227D6480336B
:10130200900042E0FFE522C39F50047D6480027D8D
:101312009C7F23120B01C29620A7FD802C900042D5
:10132200E0FFE522D39F40097F421212227D9C807A
:10133200027D647F23120B0190004B800F7D9C7F06
:1013420023120B01D29620A4FD900049E0FEA3E0F7
:10135200FF7D0B12192E7D007F23120B019000429C
:04136200E522F0226E
:100F7E008F16900044E0FF651670030210D5D296CE
:100F8E00E51624D76058147003021034147003024F
:100F9E00107B240360030210C8EF24D66020146077
:100FAE002D240260030210C87D9C7F24120B0112B7
:100FBE00192820A5FD30A5FD20A5FD0210BB7D64DE
:100FCE007F24120B0112192820A5FD0210BB7D9C57
:100FDE007F24120B0112192820A5FD0210BB9000D0
:100FEE0044E024D6602014602D240360030210C850
:100FFE007D647F24120B0112192820A5FD30A5FD5A
:10100E0020A5FD0210BB7D9C7F24120B0112192816
:10101E0020A5FD0210BB7D647F24120B011219283E
:10102E0020A5FD0210BB900044E024D7601B24FED7
:10103E006026240360030210C87D9C7F24120B01DE
:10104E0012192820A5FD0210BB7D647F24120B010E
:10105E0012192820A5FD80557D9C7F24120B0112AC
:10106E00192820A5FD30A5FD20A5FD804090004447
:10107E00E024D760161460222402703E7D647F2423
:10108E00120B0112192820A5FD80227D9C7F2412AF
:10109E000B0112192820A5FD80137D647F24120BED
:1010AE000112192820A5FD30A5FD20A5FD90006098
:1010BE00E0FEA3E0FF7D0B12192E7D007F24120BA4
:0810CE0001900044E516F02238
:10136600900023E0F53EF53F30872C208029AC3EE7
:10137600E412012EE4FBFAF9783F12001E12016214
:101386008F3EAC3FE412012EE4FBFA79C0783F129F
:10139600001E1201628F3F30802C208729AC3EE46C
:1013A60012012EE4FBFA79C0783F12001E12016288
:1013B6008F3EAC3FE412012EE4FBFAF9783F1200AF
:1013C6001E1201628F3F30862E20812BAC3EE41226
:1013D600012E7433FBFAF9783F12001E1201628F58
:1013E6003EAC3FE412012E7B667A6679A6783F1200
:1013F600001E1201628F3F30812E20862BAC3EE408
:1014060012012E7B667A6679A6783F12001E1201BB
:10141600628F3EAC3FE412012E7433FBFAF9783F3B
:1014260012001E1201628F3F30852E20822BAC3EA9
:10143600E412012E7466FBFAF9783F12001E1201BF
:10144600628F3EAC3FE412012E7BCD7ACC798C784C
:101456003F12001E1201628F3F30822E20852BAC78
:101466003EE412012E7BCD7ACC798C783F12001E99
:101476001201628F3EAC3FE412012E7466FBFAF94C
:10148600783F12001E1201628F3FAD3E7F1F120B86
:0814960001AD3F7F1E020B01B6
:1017FF0020872B20862830842530832220811F20AC
:10180F00801C3085032082062085132082107D0BDB
:10181F007F0A7E0012192E7D007F20020B01208689
:10182F000330870B7D107F1E120B017DF080562039
:10183F00810330800B7DF07F1E120B017D108045E0
:10184F0020840B7DF47F1E120B017D0C80372083CB
:10185F000B7D0C7F1E120B017DF48029308211202D
:10186F00850E7DF87F1E120B017D087F1F120B0165
:10187F002085030217FF3082030217FF7D087F1EAA
:0D188F00120B017DF87F1F120B010217FFE5
:100D6700900020E0FBA3E0FAA3E0F912051D24A6FA
:100D7700603E147003020EFF147003020E1B245D05
:100D87006003020F7D7D007F20120B019000257408
:100D970002F07E007F207D007B017A007900120639
:100DA700629000207401F0A37400F0A37400F02295
:100DB700900020E0FBA3E0FAA3E0F9900001120500
:100DC700366040208703308019308616308513300F
:100DD7008410A2828283500A308107900026740112
:100DE700F022900026E064016003020F7D7402F098
:100DF700900020E0FBA3E0FAA3E0F990000174FF64
:100E0700020563900021E475F0021205BA7D007FA8
:100E170020020B01E510147003020ECF14700302B9
:100E27000EF124026003020F7D900020E0FBA3E097
:100E3700FAA3E0F990000112053624B0601D24FEE4
:100E4700604F1460312402707C900024E0FD7F1E07
:100E5700120B01900024E0F4048010900024E0F4C9
:100E670004FD7F1E120B01900024E0FD7F1F120B73
:100E7700019000628034900024E0FD7F1E120B0178
:100E8700900024E0F404FD7F1F120B0190006480A2
:100E970019900024E0F404FD7F1E120B019000243A
:100EA700E0FD7F1F120B01900064E0FEA3E0FFEF5F
:100EB7002514FFEE3513FEE43512FDE43511FC90E1
:100EC70000271205EF051022AF14AE13AD12AC11B7
:100ED700900027E0F8A3E0F9A3E0FAA3E0FBC31230
:100EE70005DE5003020F7D051022208403020F7DCB
:100EF700208303020F7D8060E51014603F04707645
:100F0700900020E0FBA3E0FAA3E0F99000011205AE
:100F170036FF3395E0FE7C007D0A1205A8EE339577
:100F2700E0FDFCEF2514FFEE3513FEED3512FDEC69
:100F37003511FC9000271205EF051022AF14AE13F0
:100F4700AD12AC11900027E0F8A3E0F9A3E0FAA3F3
:100F5700E0FBD31205DE501E7D007F20120B0190AF
:100F67000021E475F0021205BA9000271205FB0074
:060F7700000000E4F5108B
:010F7D002251
:0D000E00E4F5C7F5C5F5C675C380F5C4223D
:101AEE0075C78375C5018FC48EC375C65A75C6A5D5
:0E1AFE007D0A7F0A7E0012192EAFC212000E62
:011B0C0022B6
:101B0D0075C78375C5028FC48EC38DC275C65A75D0
:0E1B1D00C6A57D0A7F0A7E0012192E02000E58
:101B2B0075C78375C5038FC48EC375C65A75C6A595
:0C1B3B007D0A7F0A7E0012192E02000EA7
:10149E007F321216EA7F361216EA8514258513243A
:1014AE008512238511227F321216EA7F361216EA32
:1014BE00C3E5149525F525E5139524F524E5129538
:1014CE0023F523E5119522F522AF25AE24AD23FC9D
:1014DE00E41201247B0A7AD779A3783E12001E12F9
:1014EE0001628F258E248D238C22E4120124E4FBCD
:1014FE00FAF9783F12001E120162900058EEF0A326
:10150E00EFF0900056EEF0A3EFF0AF25AE24AD2332
:10151E00AC22E4120124E4FBFA7940783F12001E5B
:10152E0012016290005CEEF0A3EFF0A3EEF0A3EFD9
:10153E00F0AF25AE24AD23AC22E41201247B7B7ADE
:10154E001479AE783E12001E12016290004EEEF03B
:10155E00A3EFF0AF25AE24AD23AC22E41201247B21
:10156E00297A5C798F783E12001E12016290005427
:10157E00EEF0A3EFF0900050EEF0A3EFF0AF25AE3B
:10158E0024AD23AC22E41201247B9A7A99799978BE
:10159E003E12001E120162900052EEF0A3EFF0AF69
:1015AE0025AE24AD23AC22E4120124E4FBFAF97833
:0F15BE003F12001E12016290005AEEF0A3EFF0F0
:0115CD0022FB
:101BC100438780759850438E04759CD9438E014399
:051BD1008E10D29922E4
:1015CE007F461219901219287F4712199012192866
:1015DE007F461219901219287F4712199012192856
:1015EE009000437436F07F321216EA1219287F36B5
:1015FE001216EA1219287F321216EA1219287F36AD
:10160E001216EA1219287F3C1212221219287F3E56
:10161E001212221219287F401212221219287F420A
:10162E001212221219287F441212221219287F42F6
:10163E001212221219287F401212221219287F3EEE
:10164E001212221219287F3C121222900044E090AE
:10165E000037F09000447428F07F2B120F7E121981
:10166E00287F28120F7E1219287F2B120F7E121937
:10167E00287F28120F7E121928900037E090004420
:10168E00F07D3C7F20120B011219287D007F201265
:10169E000B011219287DC47F20120B011219287D0F
:1016AE00007F20120B011219287D287F1F120B01BB
:1016BE007DD87F1E120B011219287D007F20120B80
:1016CE00011219287DD87F1F120B017D287F1E1253
:0C16DE000B011219287D007F20020B0177
:0219CC008F404A
:1019CE00755000755100755241AB500552E552AA43
:1019DE00517002055114F912051DFEEEC39F5002FF
:1019EE00AF06AB500552E552AA517002055114F9DB
:0719FE0012051DFEBEFFE40F
:011A050022BE
:0100070022D6
:10001E00EC4D6011E8497017ED33EC3304600DE4DC
:10002E00FCFFFEFD22E933E8330470F80201CE1224
:10003E00019958046009E4CC248150062850090225
:10004E0001D82840030201D5C0E0EB4A7044B980C4
:10005E0006D0E0FB0201C4EF4E701CBD8008EBFF22
:10006E00EAFEE9FD80EBE98DF0A4FEE5F002010762
:10007E00E9CDF9EAFEEBFFEF89F0A4FCE5F0CE89BD
:10008E00F0A42EFFE435F0CD89F0A42DFEE435F07A
:10009E008067EF4E7005BD80D780C3EF8BF0A4ACA8
:1000AE00F0EE8BF0A42CFCE435F0F8EF8AF0A42CE3
:1000BE00E5F038FCE433CB8DF0A42CFCE5F03BF8F6
:1000CE00EE8AF0A42CFCE5F038F8E433CF89F0A4E6
:1000DE002CFCE5F038CF3400CE89F0A42FFFE5F0EC
:1000EE003EFEE433C98DF0A42EFEE5F039CD8AF044
:1000FE00A42FFFE5F03EFEE43DFD33D0E0FB5007BC
:10010E000BBB000F0201D8EC2CFCEF33FFEE33FEDD
:06011E00ED33FD0201B00B
:1001240075F020800E75F010800575F0087D007E56
:10013400007F003392D530D5031205D0EC33401044
:10014400EF33FFEE33FEED33FDEC33FCD5F0ED225F
:0E015400E5F0247EA2D513CC92E7CDCEFF229B
:10016200EDD2E7CD33EC3392D524814006E4FFFE95
:10017200FDFC22FCE4CFCECDCC24E0501174FF80F4
:10018200EDC3CC13CCCD13CDCE13CECF13CF047091
:07019200F030D5DE0205D0BC
:10068E00E5392425F8E60539227822300702782547
:10069E00E475F00112062C02051D2000EB7F2ED210
:1006AE00008018EF540F2490D43440D4FF30040B44
:1006BE00EF24BFB41A0050032461FFE53A6002151F
:1006CE003A053DE53D7002053C30070D7822E47594
:1006DE00F00112062CEF020596021A637403D2077C
:1006EE008003E4C207F5398B228A238924E4F53A84
:1006FE00F53CF53DE53A60077F201206C980F57599
:10070E003BFFC201C200C202C203C205C206C2083A
:10071E00120697FF700D3007057F001206DAAF3D07
:10072E00AE3C22B4255FC2D5C204120697FF24D078
:10073E00B40A00501A75F00A783A30D50508B6FF9B
:10074E000106C6A426F620D5047002D20380D92451
:10075E00CFB41A00EF5004C2E5D2040209C7D20189
:10076E0080C6D20080C0D20280BCD2D580BAD2055B
:10077E0080B47F201206C92002077401B53A0040EA
:10078E00F112068EFF1206C9020702D208D20680A7
:10079E009512068EFB12068EFA12068EF94A4B70D1
:1007AE000679BE7A0A7BFF20022EE53A602A7E0089
:1007BE008E8275830012053660060EEE653B70F074
:1007CE00C2D5EBC0E0EAC0E0E9C0E0EE120A27D0E5
:1007DE00E0F9D0E0FAD0E0FB12051DFF60AAEBC0F5
:1007EE00E0EAC0E0E9C0E01206C9D0E02401F9D089
:1007FE00E03400FAD0E0FBE53B0460DCD53BD98069
:10080E0087D20280A2120A0A60F7E53B7001041239
:10081E0001E3A93B600DE53B600914F53B120AB1FB
:10082E00EF60F3EA30E702F404C3995077EAF42557
:10083E003B0430E701E404F53B800D120A0A60C167
:10084E00EA053B253B1201E3EA7838F630E701E48E
:10085E00253B04D53B0420050114120A27E4C0E011
:10086E00120AB17838E6601320E70714F61206B1C3
:10087E00802204F6D0E014C0E07F001206B1E53B02
:10088E0060071206A8153B800B3005031206A8D090
:10089E00E0020702D0E00480C5120A0A60A0E53B20
:1008AE00041201E37838EAF6E53B20050260010404
:0508BE002404120A27CA
:1008C30074FF04C0E0120AB11206B1E53B20050231
:1008D30060031206A8D0E0B53BE87F451206BB785B
:1008E30038E67F2B30E7047F2DF404C0E01206C9FD
:1008F300D0E075F00A84C0F01206B2D0E01206B25E
:10090300020702791080027908C206C2088008D261
:10091300D5790A8004790AC2D5E53B047002F53B18
:10092300E4FAFDFEFF12068EFC7B0820011312067B
:100933008EFD7B1030000A12068EFE12068EFF7BA0
:1009430020EC3382D592D55013C3E43000069FFFC9
:10095300E49EFEE42001039DFDE49CFCE4CBF8C28D
:1009630001EC700CCFCECDCCE824F8F870F38017EF
:10097300C3EF33FFEE33FEED33FDEC33FCEB33FB20
:10098300994002FB0FD8E9EB300105F8D0E0C448E9
:10099300B201C0E00AEC4D4E4F78207B0070C2EAF2
:1009A300B53B0040BCC0E0120A29D0F0D0E02001E2
:1009B30004C4C0E0C4B201C0F01206B2D0F0D5F056
:1009C300EB02070212063C079F5309065807704CB7
:1009D300076C42090A4F0912440912490785430962
:1009E300185508494608A7450813470ADE500774F7
:1009F3002D07782E079B2B077C230799200AC72AEC
:100A030007344800000793E53BB4FF03753B061228
:100A1300068EFC12068EFD12068EFE12068EFF78DF
:100A230031020212790AA2D5200314300509B91044
:100A3300020404B9080104A2D520060250010420CF
:100A430002689202B53A005034C0E07F20300319A7
:100A53007F30A20272067205500F120A80C202C2D0
:100A630006C205C2087F30800F300503E9C0E012DB
:100A730006C9300503D0E0F9D0E0B53ACC3005170C
:100A83007F30B9100C1206C97F583004077F788075
:100A930003B908031206C93002057F2D0206C97F78
:100AA300202008F87F2B2006F322920280CF7F00BC
:100AB300B4070050052431F8E6FF22286E756C6CEC
:100AC3002900D20112068E3001F8C201783A30D5DE
:100AD3000108F60207342D5043495812068E2403A9
:100AE300B405004001E4900AD9931206BA743A128D
:0A0AF30006BAD203753A04020906A0
:10019900E9D2E7C933E833F892D5EDD2E7CD33ECAC
:0701A90033FC5002B2D52225
:1001B000EC30E7100FBF000C0EBE00080DBD0004B0
:1001C0000BEB6014A2D5EB13FCED92E7FD2274FF5C
:1001D000FCFDFEFF22E480F8A2D574FF13FC7D80B5
:0301E000E480EFC9
:1001E300F920E72824F950037907E4F42402FB18E3
:1001F300DBFDE624FB5014E9600DE4F618E604F693
:0F020300B40A08E4F6D9F57401F60A22C2D5222E
:10021200ED33EC3392D5FA602AB4FF33EDC2E77BBB
:10022200FF60067A027937E4227A02794020D50407
:100232007A02793B224E614E002B494E46002D49EF
:100242004E4600E47A08F608DAFC7B00740722E8DE
:10025200C0E0ECC0E0EDC0E0EEC0E0EFC0E0EA7567
:10026200F010A4CAABF075F04DA42BFBE435F0FC02
:10027200EA2410FAEB34C5FBEC34D9FCEDC2E7FFFB
:1002820075F056A4F42411C5F0F434C58FF0A42AF5
:10029200E5F03BE43CF620E7141204DDD0E0FFD0A9
:1002A200E0FED0E0FDD0E0FC1204108014F4041251
:1002B20004DDD0E0FFD0E0FED0E0FDD0E0FC120093
:1002C2001ED0E0F8E6FAEDD2E7CD33EC332482FB20
:1002D200E4C3CF33CFCE33CECD33CD33DBF37B0785
:1002E20075F00A846004F6081B0AE5F0F6088FF040
:1002F200740AA4FFACF08EF0740AA42CFEACF05089
:10030200010C8DF0740AA42CFDE435F0F608DBDE56
:030312007407224B
:100315000201CEE86480F8E933E83360110460F047
:10032500ED33EC337009E8FCE9FDEAFEEBFF22044E
:1003350060DED3EB9FEA9EE99DE8C2E78CF0C2F749
:1003450095F0400CE8CCF8E9CDF9EACEFAEBCFFB15
:1003550012019985D0F05804700320D5B3E80470D4
:10036500075002B2D50201D892D5EC0460F7E4CC6F
:10037500C0E0C398F8603B94186008400DD0E0FBDE
:100385000201B0E4FBFAC9FC8028E830E406E4C9C0
:10039500FBE4CAFCE830E305E4C9CACBFCE8540732
:1003A5006010F8C3E913F9EA13FAEB13FBEC13FC3D
:1003B500D8F130F52FC3E49CFCEF9BFFEE9AFEEDE0
:1003C50099FDD0E0FBEF4E4D4C701222DB0302018C
:1003D500D5EC2CFCEF33FFEE33FEED33FDED30E7CE
:1003E500EB0201B0EF2BFFEE3AFEED39FDD0E0FB5D
:1003F50050130BBB00030201D8ED13FDEE13FEEF06
:0804050013FFEC13FC0201B02F
:10040D000201D8EC5D046005E8590470030201CEC9
:10041D00120199580460F6EC4860F2EC7004FDFE90
:10042D00FF22C860DB2481C85009C39860025006C2
:10043D000201D59850CAF582E9294B4A7005AB8265
:10044D000201C475F0007C1A7880C3EF9BEE9AED23
:10045D0099400DC3EF9BFFEE9AFEED99FDE842F03A
:10046D00DC23ACF0D0E0FFD0E0FED0E0FDAB82208D
:10047D00E7101BEB60BAEC2CFCEF33FFEE33FEED17
:10048D0033FD0201B0E803F830E705C0F075F00068
:10049D00EF2FFFEE33FEED33FD40B830E7C280AAFB
:1004AD003F8000004120000042C80000447A000057
:1004BD00461C400047C35000497424004B189680D9
:1004CD004CBEBC205A0E1BCA6753C21C749DC5AED0
:1004DD00FB60065407601C232312050BEB54386098
:1004ED00091204F712050612001EECF8EDF9EEFAEA
:1004FD00EFCB22EB12050680F1543803241C900437
:10050D00ADFE93FC0EEE93FD0EEE930ECE93FF22F9
:1018A8000210D6E493A3F8E493A34003F68001F270
:1018B80008DFF48029E493A3F85407240CC8C33341
:1018C800C4540F4420C8834004F456800146F6DF10
:1018D800E4800B0102040810204080901A06E47E80
:1018E800019360BCA3FF543F30E509541FFEE49305
:1018F800A360010ECF54C025E060A840B8E493A3CC
:10190800FAE493A3F8E493A3C8C582C8CAC583CAF6
:10191800F0A3C8C582C8CAC583CADFE9DEE780BEAE
:011A340000B1
:10051D00BB010689828A83E0225002E722BBFE02DC
:09052D00E32289828A83E493220F
:10053600BB010CE58229F582E5833AF583E022507A
:1005460006E92582F8E622BBFE06E92582F8E222C4
:0D055600E58229F582E5833AF583E49322DE
:10056300BB010FF8E58229F582E5833AF583E0289C
:10057300F0225009C58229F8E58226F622BBFE093E
:10058300C58229F8E22582F222F8EA2583F583E978
:0305930093282288
:10059600BB010689828A83F0225002F722BBFE0144
:0205A600F3223E
:1005A800EF8DF0A4A8F0CF8CF0A428CE8DF0A42E67
:0205B800FE2221
:1005BA00C5F0F8A3E028F0C5F0F8E58215827002CC
:0605CA001583E038F02269
:0E05D000C3E49FFFE49EFEE49DFDE49CFC223C
:1005DE00EB9FF5F0EA9E42F0E99D42F0E89C45F073
:0105EE0022EA
:0C05EF00ECF0A3EDF0A3EEF0A3EFF0227F
:1005FB00A8828583F0D083D08212061212061212C3
:10060B000612120612E473E493A3C583C5F0C583E7
:10061B00C8C582C8F0A3C583C5F0C583C8C582C849
:01062B0022AC
:10062C00FAE6FB0808E6F925F0F618E6CA3AF622CF
:10063C00D083D082F8E4937012740193700DA3A34D
:10064C0093F8740193F5828883E473740293686061
:06065C00EFA3A3A380DF61
:101A6300EFB40A07740D121A6E740A309811A8990C
:101A7300B8130CC2983098FDA899C298B811F630E3
:071A830099FDC299F59922BB
:081BEC00EF30E703F404FF22CF
:10066200EF4E6012EF60010EEDBB010B89828A83AF
:10067200F0A3DFFCDEFA2289F05007F709DFFCA9BC
:0C068200F022BBFEFCF309DFFCA9F02213
:00000001FF
