:030000000218CE15
:0C18CE00787FE4F6D8FD758153021915EF
:0B1BD30025730A00526561647921004F
:10177800E4F5977593FFF594F5917592FC7595F0DE
:1017880075960FD2A1D2A3C2DEC297121BDE121B1E
:1017980092121BA8121BBEE4900038F0A3F0900030
:1017A800407428F0A37447F0A37440F0A37436F093
:1017B800A37428F0E4900023F090003AF0A3F0A37B
:1017C800F0A3F090003FF090003EF0D28CD28ED281
:1017D800B27525FF75261B7527D77BFF7A1B79D332
:1017E800120745121B7A900000745AF0A37403F094
:1017F800A3745BF0A37450F0A3745CF0A37451F06D
:10180800A3745AF0A37402F0A374FFF09000267436
:1018180002F090002014F0A37400F0A37400F0A369
:0B1828007428F0A3F0A37401F080FE10
:03000300020006F2
:0100060032C7
:03000B00021B10C5
:101B1000C0E0C0F0C083C082C0D075D008121A9156
:0B1B2000D0D0D082D083D0F0D0E032D3
:03001B00021B2B9A
:101B2B00C0E0C0F0C083C082C0D075D008121BF1DA
:0B1B3B00D0D0D082D083D0F0D0E032B8
:101A3B006021004561A800C8003A032014029A02F5
:101A4B00AC02AC029A01F401F405C8084A084A003A
:0E1A5B001401F407D004110000000001100077
:0D195A007D9C7F241216887D0C7F017E008D
:10196700ED24F5601A14603624027055EF1FAC069B
:1019770070011ED39400EC94004046000080EDEF08
:0E1987001FAC0670011ED39400EC9400403398
:0E199500000075220C7523A8D523FDD522FA7B
:1019A30080E1EF1FAC0670011ED39400EC9400405D
:0119B300141F
:1019B40075222E7523997524F5D524FDD523FAD5E2
:0219C40022F708
:0219C60080DDC2
:0119C80022FC
:101B9200438E805389F0438901758A20758CD1C2A6
:061BA2008DD2A9D2AF2292
:101BA800538EBF53890F438910758BE0758DB1C271
:061BB8008FD2ABD2AF2278
:101A9100758A20758CD1E5142401F514E43513F50C
:101AA10013E43512F512E43511F511900025E0B477
:061AB1000103120B52229A
:071BF100758BE0758DB12238
:101B7A0020B2FD7D0B7F147E0012196730B2FD7D05
:081B8A000B7F007E01021967C8
:0B1BDE00E4F5D8F5F9F5E975D9082207
:101B4600EF75F019A4FFAEF07C007D0A1205BA8F7E
:0A1B5600EA8FFA75DA42E4F5F22294
:101B6000EF75F019A4FFAEF07C007D0A1205BA8F64
:0A1B7000EB8FFB75DB42E4F5F32276
:041684007D647F22E0
:10168800D3ED648094E440047D64800AC3ED6480F3
:10169800941C50027D9CEF24DE603F146068147037
:1016A800030217432403600302177790003AE0B55A
:1016B80005012290003AEDF0ED7004D2978059D3DD
:1016C800ED648094804004D297806BC3ED6480946D
:1016D800804003021777D297804D90003BE0B50514
:1016E800012290003BEDF0ED7004D297805FD3EDBE
:1016F800648094804004D2978071C3ED64809480A4
:10170800506DD297805690003CE0B50501229000BC
:101718003CEDF0ED7007C297C2A0D2A122D3ED64D0
:101728008094804007C297C2A0C2A122C3ED648002
:101738009480503BC297D2A0C2A12290003DE0B550
:1017480005012290003DEDF0ED7007C297C2A2D2CC
:10175800A322D3ED648094804007C297C2A2C2A39B
:1017680022C3ED648094805006C297D2A2C2A322FD
:09137100900024E0F404FD7F1E4D
:10137A008D40D3E540648094E44005754064800C58
:10138A00C3E5406480941C500375409CEF24E160DF
:10139A00461460742402600302147790003EE0B59C
:1013AA0040012290003EE540F0E5407002807ED385
:1013BA00E540648094804006D2DEAF408070C3E589
:1013CA0040648094804003021477D2DEAF40121B3F
:1013DA00E9121B60D2952290003FE0B540012290AD
:1013EA00003FE540F0E5407003FF805CD3E54064D0
:1013FA008094804006D2DEAF40804DC3E5406480D1
:10140A0094805069D2DE805B90003EE0B54006A32E
:10141A00E0B5400122AF4090003FEFF090003EF06F
:10142A00E5407010C2DEFF121B46C292E4FF121B97
:10143A0060C29522D3E540648094804011D2DEAF29
:10144A0040121B60C295AF40121B46C29222C3E5EE
:10145A0040648094805016D2DEAF40121BE9121B02
:0E146A0060D295AF40121BE9121B46D29222AF
:101A0300AB07900041E06B602EBB470C7D9C7F21B0
:101A130012168830B30C80FB7D647F211216882058
:101A2300B4FD7D0B7F147E00121967E4FD7F211244
:081A33001688900041EBF0223F
:10126100A907900043E0FB697003021370E924CDE4
:10127100601F14605614700302130A1470030213E2
:101281004E2404600302136412168420B5FD021378
:1012910058EB24CC601A14602014602624046003E7
:1012A1000213647D9C7F2212168890004E02134720
:1012B10012168490005002134712168490005A02AD
:1012C100134712168490005E021347900043E024F6
:1012D100CD601A24FE6022146027240460030213E7
:1012E100647D9C7F2212168890005680597D9C7FD8
:1012F10022121688900050804D1216849000528060
:1013010045121684900058803D900043E024CD6042
:101311001714602024FE6028240470477D9C7F22DE
:1013210012168890005C801E7D9C7F221216889088
:10133100005A80127D9C7F221216889000528006EE
:10134100121684900054E0FEA3E0FF80117D9C7F83
:101351002212168820B6FD90004DE0FF7E007D0B25
:10136100121967E4FD7F22121688900043E9F022EA
:101121008F19900042E0FB65197003021260E51906
:1011310024C4B40900400302125390114975F0030D
:10114100A4C58325F0C583730211640211730211D2
:10115100880211A60211C30211E00211FD02121A46
:1011610002123A7D647F23121688C29620A4FD02E2
:101171001246E519D39B40057D9C0212307F3E1239
:1011810011217D64021230900042E0FFE519C39FF6
:1011910050047D6480027D9C7F23121688C29620B4
:1011A100A5FD021246900042E0FFE519D39F4009D8
:1011B1007F3E1211217D9C80077F401211217D64A9
:1011C100806D900042E0FFE519C39F50047D64806B
:1011D100027D9C7F23121688C29620A6FD80669010
:1011E1000042E0FFE519D39F40097F401211217DA4
:1011F1009C80077F421211217D648033900042E080
:10120100FFE519C39F50047D6480027D9C7F2312FA
:101211001688C29620A7FD802C900042E0FFE519B8
:10122100D39F40097F421211217D9C80027D647F02
:101231002312168890004B800F7D9C7F2312168805
:10124100D29620A4FD900049E0FEA3E0FF7D0B12A1
:101251001967E4FD7F23121688900042E519F022F8
:10147800AB07900044E0FF6B700302157ED296EB39
:1014880024D7604214607614700302153624036072
:1014980003021572EF24D660191460212402600338
:1014A80002157212195A20A5FD30A5FD20A5FD02CE
:1014B80015657D6412195C20A5FD02156512195A7F
:1014C80020A5FD021565900044E024D6601B146039
:1014D80021240360030215727D6412195C20A5FDA6
:1014E80030A5FD20A5FD02156512195A20A5FD029B
:1014F80015657D6412195C20A5FD021565900044F0
:10150800E024D7601124FE60172403705D12195A75
:1015180020A5FD0215657D6412195C20A5FD803D9E
:1015280012195A20A5FD30A5FD20A5FD802F900099
:1015380044E024D760111460162402702D7D6412D3
:10154800195C20A5FD801612195A20A5FD800E7D74
:101558006412195C20A5FD30A5FD20A5FD90006052
:10156800E0FEA3E0FF7D0B121967E4FD7F2412164D
:0715780088900044EBF02213
:1018330020872B20862830842530832220811F2077
:10184300801C3085032082062085132082107D0BA7
:101853007F0A7E00121967E4FD7F20021688208626
:101863000330870B7D107F1E1216887DF080552074
:10187300810330800B7DF07F1E1216887D1080441B
:1018830020840B7DF47F1E1216887D0C8036208306
:101893000B7D0C7F1E1216887DF480283082102069
:1018A300850D7DF87F1E1216887D080F121688207D
:1018B30085030218333082030218337D087F1E121A
:0B18C30016887DF80F121688021833FB
:100B5200900023E0F53EF53F900020E0FBA3E0FA91
:100B6200A3E0F912051D24A6603E147003020E0ACA
:100B7200147003020D38245D6003020FBCE4FD7F94
:100B82002012137A9000257402F07E007F207D00EF
:100B92007B017A0079001206B79000207401F0A35D
:100BA2007400F0A37400F022900020E0FBA3E0FAAE
:100BB200A3E0F99000011205367003020D27208789
:100BC2000330801F30861C308519308416A2828241
:100BD20083501030810D9000267401F0900023E0C4
:100BE200020D32900026E0B401167402F09000204B
:100BF200E0FBA3E0FAA3E0F990000174FF020563B1
:100C020030872C208029AC3EE412012EE4FBFAF955
:100C1200783F12001E1201628F3EAC3FE412012E99
:100C2200E4FBFA79C0783F12001E1201628F3F3056
:100C3200802C208729AC3EE412012EE4FBFA79C015
:100C4200783F12001E1201628F3EAC3FE412012E69
:100C5200E4FBFAF9783F12001E1201628F3F3086E0
:100C62002E20812BAC3EE412012E7433FBFAF9786C
:100C72003F12001E1201628F3EAC3FE412012E7B36
:100C8200667A6679A6783F12001E1201628F3F30A3
:100C9200812E20862BAC3EE412012E7B667A667989
:100CA200A6783F12001E1201628F3EAC3FE4120191
:100CB2002E7433FBFAF9783F12001E1201628F3F45
:100CC20030852E20822BAC3EE412012E7466FBFA94
:100CD200F9783F12001E1201628F3EAC3FE412010E
:100CE2002E7BCD7ACC798C783F12001E1201628F56
:100CF2003F30822E20852BAC3EE412012E7BCD7A32
:100D0200CC798C783F12001E1201628F3EAC3FE418
:100D120012012E7466FBFAF9783F12001E1201626C
:100D22008F3F020FAE900021E475F00212060FE42D
:100D3200FD7F20020FB9E510147003020DDA147062
:100D420003020DFC24026003020FBC900020E0FBB2
:100D5200A3E0FAA3E0F990000112053624B0601D69
:100D620024FE60461460282402706A900024E0FD8C
:100D72007F1E12137A900024E0F40480071213718C
:100D8200900024E0FD7F1F12137A900062802B9066
:100D92000024E0FD7F1E12137A900024E0F404FD8B
:100DA2007F1F12137A900064801012137190002436
:100DB200E0FD7F1F12137A900064E0FEA3E0FFEFD4
:100DC2002514FFEE3513FEE43512FDE43511FC90D7
:100DD2000027120644051022AF14AE13AD12AC1157
:100DE200900027E0F8A3E0F9A3E0FAA3E0FBD31216
:100DF20006334003020FBC051022208403020FBCFD
:100E0200208303020FBC8063E51014604204600378
:100E1200020FBC900020E0FBA3E0FAA3E0F99000EF
:100E220001120536FF3395E0FE7C007D0A1205A80B
:100E3200EE3395E0FDFCEF2514FFEE3513FEED35A4
:100E420012FDEC3511FC900027120644051022AF6A
:100E520014AE13AD12AC11900027E0F8A3E0F9A391
:100E6200E0FAA3E0FBD3120633501FE4FD7F201209
:100E7200137A900021E475F00212060F90002712F7
:100E8200065000000000E4F5102230872C20802953
:100E9200AC3EE412012EE4FBFAF9783F12001E1276
:100EA20001628F3EAC3FE412012EE4FBFA79C07876
:100EB2003F12001E1201628F3F30802C208729AC26
:100EC2003EE412012EE4FBFA79C0783F12001E12B2
:100ED20001628F3EAC3FE412012EE4FBFAF9783F47
:100EE20012001E1201628F3F30862E20812BAC3EF3
:100EF200E412012E7433FBFAF9783F12001E12013C
:100F0200628F3EAC3FE412012E7B667A6679A67848
:100F12003F12001E1201628F3F30812E20862BACC1
:100F22003EE412012E7B667A6679A6783F12001E95
:100F32001201628F3EAC3FE412012E7433FBFAF9C8
:100F4200783F12001E1201628F3F30852E20822BC5
:100F5200AC3EE412012E7466FBFAF9783F12001ED1
:100F62001201628F3EAC3FE412012E7BCD7ACC7926
:100F72008C783F12001E1201628F3F30822E208534
:100F82002BAC3EE412012E7BCD7ACC798C783F12C9
:100F9200001E1201628F3EAC3FE412012E7466FB0A
:100FA200FAF9783F12001E1201628F3FAD3F7F1F98
:0A0FB20012137AAD3E7F1E12137A6F
:010FBC002212
:0D000E00E4F5C7F5C5F5C675C380F5C4223D
:101AB70075C78375C5018FC48EC375C65A75C6A50C
:0E1AC7007D0A7F0A7E00121967AFC212000E60
:011AD50022EE
:101AD60075C78375C5028FC48EC38DC275C65A7508
:0E1AE600C6A57D0A7F0A7E0012196702000E57
:101AF40075C78375C5038FC48EC375C65A75C6A5CD
:0C1B04007D0A7F0A7E0012196702000EA5
:100FBD007F321212617F3612126185141885131754
:100FCD008512168511157F321212617F361212614C
:100FDD00C3E5149518F518E5139517F517E5129552
:100FED0016F516E5119515F515AF18AE17AD16FCDE
:100FFD00E4120124E4FBFAF9783F12001E1201629B
:10100D008F188E178D168C15E4120124E4FBFAF956
:10101D00783F12001E120162900058EEF0A3EFF01F
:10102D00900056EEF0A3EFF0AF18AE17AD16AC155D
:10103D00E4120124E4FBFA7940783F12001E1201FC
:10104D006290005CEEF0A3EFF0AF18AE17AD16ACEA
:10105D0015E41201247B4E7A627910783F12001E3E
:10106D0012016290005EEEF0A3EFF0AF18AE17AD77
:10107D0016AC15E41201247B7B7A1479AE783E12FE
:10108D00001E12016290004EEEF0A3EFF0AF18AE0D
:10109D0017AD16AC15E41201247B8C7A4A798A7847
:1010AD003E12001E120162900054EEF0A3EFF0AF5D
:1010BD0018AE17AD16AC15E41201247B377A897979
:1010CD0041783E12001E120162900050EEF0A3EF27
:1010DD00F0AF18AE17AD16AC15E41201247BCD7A26
:1010ED00CC794C783E12001E120162900052EEF047
:1010FD00A3EFF0AF18AE17AD16AC15E4120124E452
:10110D00FBFAF9783F12001E12016290005AEEF0C0
:03111D00A3EFF04D
:0111200022AC
:101BBE00438780759850438E04759CD9438E01439C
:051BCE008E10D29922E7
:10157F007F46121A031219617F47121A031219615B
:10158F007F46121A031219617F47121A031219614B
:10159F009000437436F07F321212611219617F3658
:1015AF001212611219617F321212611219617F36A4
:1015BF001212611219617F3C1211211219617F3EC3
:1015CF001211211219617F401211211219617F42EC
:1015DF001211211219617F441211211219617F42D8
:1015EF001211211219617F401211211219617F3ED0
:1015FF001211211219617F3C121121900044E090C9
:10160F000037F09000447428F07F2B1214781219D1
:10161F00617F281214781219617F2B121478121916
:10162F00617F28121478121961900037E0900044FE
:10163F00F07D3C7F2012195EE4FD7F2012195E7D44
:10164F00C47F2012195EE4FD7F2012195E7D287F72
:10165F001F1216887DD81F12195EE4FD7F20121904
:10166F005E7DD87F1F1216887D281F12195EE4FD3C
:05167F007F2002168827
:0219C9008F414C
:1019CB00755100755200755342AB510553E553AA3F
:1019DB00527002055214F912051DFEEEC39F500200
:1019EB00AF06AB510553E553AA527002055214F9D9
:0719FB0012051DFEBEFFE412
:011A020022C1
:0100070022D6
:10001E00EC4D6011E8497017ED33EC3304600DE4DC
:10002E00FCFFFEFD22E933E8330470F80201CE1224
:10003E00019958046009E4CC248150062850090225
:10004E0001D82840030201D5C0E0EB4A7044B980C4
:10005E0006D0E0FB0201C4EF4E701CBD8008EBFF22
:10006E00EAFEE9FD80EBE98DF0A4FEE5F002010762
:10007E00E9CDF9EAFEEBFFEF89F0A4FCE5F0CE89BD
:10008E00F0A42EFFE435F0CD89F0A42DFEE435F07A
:10009E008067EF4E7005BD80D780C3EF8BF0A4ACA8
:1000AE00F0EE8BF0A42CFCE435F0F8EF8AF0A42CE3
:1000BE00E5F038FCE433CB8DF0A42CFCE5F03BF8F6
:1000CE00EE8AF0A42CFCE5F038F8E433CF89F0A4E6
:1000DE002CFCE5F038CF3400CE89F0A42FFFE5F0EC
:1000EE003EFEE433C98DF0A42EFEE5F039CD8AF044
:1000FE00A42FFFE5F03EFEE43DFD33D0E0FB5007BC
:10010E000BBB000F0201D8EC2CFCEF33FFEE33FEDD
:06011E00ED33FD0201B00B
:1001240075F020800E75F010800575F0087D007E56
:10013400007F003392D530D503120625EC334010EE
:10014400EF33FFEE33FEED33FDEC33FCD5F0ED225F
:0E015400E5F0247EA2D513CC92E7CDCEFF229B
:10016200EDD2E7CD33EC3392D524814006E4FFFE95
:10017200FDFC22FCE4CFCECDCC24E0501174FF80F4
:10018200EDC3CC13CCCD13CDCE13CECF13CF047091
:07019200F030D5DE02062566
:1006E300E5392425F8E605392278223007027825F2
:1006F300E475F00112068102051D2000EB7F2ED266
:10070300008018EF540F2490D43440D4FF30040BEE
:10071300EF24BFB41A0050032461FFE53A600215C9
:100723003A053DE53D7002053C30070D7822E4753E
:10073300F001120681EF020596021A6A7403D207CA
:100743008003E4C207F5398B228A238924E4F53A2E
:10075300F53CF53DE53A60077F2012071E80F575ED
:100763003BFFC201C200C202C203C205C206C208E5
:100773001206ECFF700D3007057F0012072FAF3D07
:10078300AE3C22B4255FC2D5C2041206ECFF24D0CE
:10079300B40A00501A75F00A783A30D50508B6FF46
:1007A3000106C6A426F620D5047002D20380D924FC
:1007B300CFB41A00EF5004C2E5D204020A1CD201DE
:1007C30080C6D20080C0D20280BCD2D580BAD20506
:1007D30080B47F2012071E2002077401B53A00403F
:1007E300F11206E3FF12071E020757D208D2068052
:1007F300951206E3FB1206E3FA1206E3F94A4B707D
:100803000679137A0B7BFF20022EE53A602A7E00DD
:100813008E8275830012053660060EEE653B70F01E
:10082300C2D5EBC0E0EAC0E0E9C0E0EE120A7CD03A
:10083300E0F9D0E0FAD0E0FB12051DFF60AAEBC09F
:10084300E0EAC0E0E9C0E012071ED0E02401F9D0DD
:10085300E03400FAD0E0FBE53B0460DCD53BD98013
:1008630087D20280A2120A5F60F7E53B700104128F
:1008730001E3A93B600DE53B600914F53B120B0650
:10088300EF60F3EA30E702F404C3995077EAF42502
:100893003B0430E701E404F53B800D120A5F60C1BD
:1008A300EA053B253B1201E3EA7838F630E701E439
:1008B300253B04D53B0420050114120A7CE4C0E067
:1008C300120B067838E6601320E70714F6120706C2
:1008D300802204F6D0E014C0E07F00120706E53B57
:1008E30060071206FD153B800B3005031206FDD091
:1008F300E0020757D0E00480C5120A5F60A0E53B21
:10090300041201E37838EAF6E53B200502600104AE
:050913002404120A7C1F
:1009180074FF04C0E0120B06120706E53B2005022F
:1009280060031206FDD0E0B53BE87F45120710785A
:1009380038E67F2B30E7047F2DF404C0E012071E51
:10094800D0E075F00A84C0F0120707D0E01207075C
:10095800020757791080027908C206C2088008D2B7
:10096800D5790A8004790AC2D5E53B047002F53BC3
:10097800E4FAFDFEFF1206E3FC7B082001131206D1
:10098800E3FD7B1030000A1206E3FE1206E3FF7B4C
:1009980020EC3382D592D55013C3E43000069FFF74
:1009A800E49EFEE42001039DFDE49CFCE4CBF8C238
:1009B80001EC700CCFCECDCCE824F8F870F380179A
:1009C800C3EF33FFEE33FEED33FDEC33FCEB33FBCB
:1009D800994002FB0FD8E9EB300105F8D0E0C44894
:1009E800B201C0E00AEC4D4E4F78207B0070C2EA9D
:1009F800B53B0040BCC0E0120A7ED0F0D0E0200138
:100A080004C4C0E0C4B201C0F0120707D0F0D5F0AA
:100A1800EB02075712069107F453095B5807C54CB8
:100A280007C142095F4F09674409674907DA430963
:100A38006D55089E4608FC450868470B335007C9A2
:100A48002D07CD2E07F02B07D12307EE200B1C2AEC
:100A5800078948000007E8E53BB4FF03753B061229
:100A680006E3FC1206E3FD1206E3FE1206E3FF7836
:100A780031020212790AA2D5200314300509B910EF
:100A8800020404B9080104A2D5200602500104207A
:100A980002689202B53A005034C0E07F2030031952
:100AA8007F30A20272067205500F120AD5C202C226
:100AB80006C205C2087F30800F300503E9C0E01286
:100AC800071E300503D0E0F9D0E0B53ACC30051761
:100AD8007F30B9100C12071E7F583004077F7880CA
:100AE80003B9080312071E3002057F2D02071E7F77
:100AF800202008F87F2B2006F322920280CF7F0067
:100B0800B4070050052431F8E6FF22286E756C6C96
:100B18002900D2011206E33001F8C201783A30D533
:100B28000108F60207892D504349581206E32403A9
:100B3800B405004001E4900B2E9312070F743A128B
:0A0B4800070FD203753A0402095B9F
:10019900E9D2E7C933E833F892D5EDD2E7CD33ECAC
:0701A90033FC5002B2D52225
:1001B000EC30E7100FBF000C0EBE00080DBD0004B0
:1001C0000BEB6014A2D5EB13FCED92E7FD2274FF5C
:1001D000FCFDFEFF22E480F8A2D574FF13FC7D80B5
:0301E000E480EFC9
:1001E300F920E72824F950037907E4F42402FB18E3
:1001F300DBFDE624FB5014E9600DE4F618E604F693
:0F020300B40A08E4F6D9F57401F60A22C2D5222E
:10021200ED33EC3392D5FA602AB4FF33EDC2E77BBB
:10022200FF60067A027937E4227A02794020D50407
:100232007A02793B224E614E002B494E46002D49EF
:100242004E4600E47A08F608DAFC7B00740722E8DE
:10025200C0E0ECC0E0EDC0E0EEC0E0EFC0E0EA7567
:10026200F010A4CAABF075F04DA42BFBE435F0FC02
:10027200EA2410FAEB34C5FBEC34D9FCEDC2E7FFFB
:1002820075F056A4F42411C5F0F434C58FF0A42AF5
:10029200E5F03BE43CF620E7141204DDD0E0FFD0A9
:1002A200E0FED0E0FDD0E0FC1204108014F4041251
:1002B20004DDD0E0FFD0E0FED0E0FDD0E0FC120093
:1002C2001ED0E0F8E6FAEDD2E7CD33EC332482FB20
:1002D200E4C3CF33CFCE33CECD33CD33DBF37B0785
:1002E20075F00A846004F6081B0AE5F0F6088FF040
:1002F200740AA4FFACF08EF0740AA42CFEACF05089
:10030200010C8DF0740AA42CFDE435F0F608DBDE56
:030312007407224B
:100315000201CEE86480F8E933E83360110460F047
:10032500ED33EC337009E8FCE9FDEAFEEBFF22044E
:1003350060DED3EB9FEA9EE99DE8C2E78CF0C2F749
:1003450095F0400CE8CCF8E9CDF9EACEFAEBCFFB15
:1003550012019985D0F05804700320D5B3E80470D4
:10036500075002B2D50201D892D5EC0460F7E4CC6F
:10037500C0E0C398F8603B94186008400DD0E0FBDE
:100385000201B0E4FBFAC9FC8028E830E406E4C9C0
:10039500FBE4CAFCE830E305E4C9CACBFCE8540732
:1003A5006010F8C3E913F9EA13FAEB13FBEC13FC3D
:1003B500D8F130F52FC3E49CFCEF9BFFEE9AFEEDE0
:1003C50099FDD0E0FBEF4E4D4C701222DB0302018C
:1003D500D5EC2CFCEF33FFEE33FEED33FDED30E7CE
:1003E500EB0201B0EF2BFFEE3AFEED39FDD0E0FB5D
:1003F50050130BBB00030201D8ED13FDEE13FEEF06
:0804050013FFEC13FC0201B02F
:10040D000201D8EC5D046005E8590470030201CEC9
:10041D00120199580460F6EC4860F2EC7004FDFE90
:10042D00FF22C860DB2481C85009C39860025006C2
:10043D000201D59850CAF582E9294B4A7005AB8265
:10044D000201C475F0007C1A7880C3EF9BEE9AED23
:10045D0099400DC3EF9BFFEE9AFEED99FDE842F03A
:10046D00DC23ACF0D0E0FFD0E0FED0E0FDAB82208D
:10047D00E7101BEB60BAEC2CFCEF33FFEE33FEED17
:10048D0033FD0201B0E803F830E705C0F075F00068
:10049D00EF2FFFEE33FEED33FD40B830E7C280AAFB
:1004AD003F8000004120000042C80000447A000057
:1004BD00461C400047C35000497424004B189680D9
:1004CD004CBEBC205A0E1BCA6753C21C749DC5AED0
:1004DD00FB60065407601C232312050BEB54386098
:1004ED00091204F712050612001EECF8EDF9EEFAEA
:1004FD00EFCB22EB12050680F1543803241C900437
:10050D00ADFE93FC0EEE93FD0EEE930ECE93FF22F9
:1018DA00021778E493A3F8E493A34003F68001F295
:1018EA0008DFF48029E493A3F85407240CC8C3330F
:1018FA00C4540F4420C8834004F456800146F6DFDE
:10190A00E4800B0102040810204080901A3BE47E18
:10191A00019360BCA3FF543F30E509541FFEE493D2
:10192A00A360010ECF54C025E060A840B8E493A399
:10193A00FAE493A3F8E493A3C8C582C8CAC583CAC4
:10194A00F0A3C8C582C8CAC583CADFE9DEE780BE7C
:011A6900007C
:10051D00BB010689828A83E0225002E722BBFE02DC
:09052D00E32289828A83E493220F
:10053600BB010CE58229F582E5833AF583E022507A
:1005460006E92582F8E622BBFE06E92582F8E222C4
:0D055600E58229F582E5833AF583E49322DE
:10056300BB010FF8E58229F582E5833AF583E0289C
:10057300F0225009C58229F8E58226F622BBFE093E
:10058300C58229F8E22582F222F8EA2583F583E978
:0305930093282288
:10059600BB010689828A83F0225002F722BBFE0144
:0205A600F3223E
:1005A800EF8DF0A4A8F0CF8CF0A428CE8DF0A42E67
:0205B800FE2221
:1005BA00BC000BBE0029EF8DF084FFADF022E4CC25
:1005CA00F875F008EF2FFFEE33FEEC33FCEE9DECEE
:1005DA00984005FCEE9DFE0FD5F0E9E4CEFD22ED34
:1005EA00F8F5F0EE8420D21CFEADF075F008EF2F7E
:1005FA00FFED33FD4007985006D5F0F222C398FD6F
:05060A000FD5F0EA220B
:10060F00C5F0F8A3E028F0C5F0F8E5821582700276
:06061F001583E038F02213
:0E062500C3E49FFFE49EFEE49DFDE49CFC22E6
:10063300EB9FF5F0EA9E42F0E99D42F0E89C45F01D
:010643002294
:0C064400ECF0A3EDF0A3EEF0A3EFF02229
:10065000A8828583F0D083D08212066712066712C3
:100660000667120667E473E493A3C583C5F0C583E8
:10067000C8C582C8F0A3C583C5F0C583C8C582C8F4
:010680002257
:10068100FAE6FB0808E6F925F0F618E6CA3AF6227A
:10069100D083D082F8E4937012740193700DA3A3F8
:1006A10093F8740193F5828883E47374029368600C
:0606B100EFA3A3A380DF0C
:101A6A00EFB40A07740D121A75740A309811A899FE
:101A7A00B8130CC2983098FDA899C298B811F630DC
:071A8A0099FDC299F59922B4
:081BE900EF30E703F404FF22D2
:1006B700EF4E6012EF60010EEDBB010B89828A835A
:1006C700F0A3DFFCDEFA2289F05007F709DFFCA967
:0C06D700F022BBFEFCF309DFFCA9F022BE
:00000001FF
