:0300000002451B9B
:0C451B00787FE4F6D8FD75812602456229
:1048230090012A7451F0A3744CF0A37440F0A37464
:1048330034F07B32E4FDFF1246B290012A7464F037
:10484300A37401F0A37465F0A37428F0A37466F055
:10485300A3745AF0A374FFF07B287D287F281246A7
:034863003080FEA4
:03000300020006F2
:0100060032C7
:03000B000249F7B0
:1049F700C0E0C0F0C083C082C0D075D00812497330
:0B4A0700D0D0D082D083D0F0D0E032BD
:03001B00024A1284
:104A1200C0E0C0F0C083C082C0D075D008124AE0A6
:0B4A2200D0D0D082D083D0F0D0E032A2
:094ACF0025730A00456E64210004
:10491B006023006661A800C8003A03202D025802EC
:10492B000D020D021C048304420451041A06C7062F
:10493B0063001401F407D0041C00000000011B00ED
:0647AE007D167F017E0074
:1047B4008E158F16ED24EB601D14603C2402705E90
:1047C400E5161516AE1570021515D39400EE940077
:1047D400404C000080EAE5161516AE15700215155A
:0847E400D39400EE940040366E
:0E47EC00000075100C7511A8D511FDD510FA3E
:1047FA0080DEE5161516AE1570021515D39400EE77
:04480A0094004014C2
:10480E0075122E7513997514F5D514FDD513FAD5A9
:02481E0012F78F
:0248200080DA3C
:014822002273
:104A7900438E805389F0438901758A20758CD1C290
:064A89008DD2A9D2AF227C
:104A8F00538EBF53890F438910758BE0758DB1C25B
:064A9F008FD2ABD2AF2262
:10497300758A20758CD1E51F2401F51FE4351EF5DA
:104983001EE4351DF51DE4351CF51C900046E0B40E
:064993000B031226EA22CC
:074AE000758BE0758DB1221A
:104A610020B2FD7D157F147E001247B430B2FD7D6A
:084A7100157F007E010247B42D
:0B4AC400E4F5D8F5F9F5E975D90822F2
:104A2D00EF75F019A4FFAEF07C007D0A1224978F6C
:0A4A3D00EA8FFA75DA42E4F5F2227E
:104A4700EF75F019A4FFAEF07C007D0A1224978F52
:0A4A5700EB8FFB75DB42E4F5F32260
:093338009001AFE0F404FD7F28D0
:1033410090012EEDF0D3648094E440057464F08024
:103351000E90012EE0C36480941C5003749CF0EF26
:1033610024D8B40700400302357590337975F00312
:10337100A4C58325F0C5837302338E0233D502348D
:10338100130234880234C10234FA02353890012E16
:10339100E0FF90005FE0B507012290005FEFF09041
:1033A100012EE0FB700302343ED3EB648094804035
:1033B10009D2DE90012EE002343E90012EE0FFC3DF
:1033C100648094804003023575D2DE124AD8124AD5
:1033D10047D2952290012EE0FF900060E0B50701F1
:1033E10022900060EFF090012EE0FB7002806AD322
:1033F100EB648094804008D2DE90012EE0805A90E8
:10340100012EE0FFC3648094804003023575D2DE53
:10341100806C90012EE0FF90005FE0B50706A3E00D
:10342100B5070122900060EFF090005FF090012E4F
:10343100E0FB7010C2DEFF124A2DC292E4FF124A75
:1034410047C29522D3EB648094804014D2DE900170
:103451002EE0FF124A47C295E0FF124A2DC2922286
:1034610090012EE0FFC3648094804003023575D241
:10347100DE124AD8124A47D29590012EE0FF124A35
:10348100D8124A2DD2922290012EE0FF90005BE0EB
:10349100B507012290005BEFF090012EE0FF700470
:1034A100D2978070D3EF648094804005D297023523
:1034B10033C3EF648094804003023575D2978063F3
:1034C10090012EE0FF90005CE0B507012290005CC6
:1034D100EFF090012EE0FF7004D2978075D3EF6476
:1034E1008094804005D297023571C3EF6480948047
:1034F1004003023575D297806890012EE0FF90005D
:103501005DE0B507012290005DEFF090012EE0FF34
:103511007007C297C2A0D2A122D3EF6480948040E9
:1035210007C297C2A0C2A122C3EF64809480504415
:10353100C297D2A0C2A12290012EE0FF90005EE0CE
:10354100B507012290005EEFF090012EE0FF7007B9
:10355100C297C2A2D2A322D3EF648094804007C253
:1035610097C2A2C2A322C3EF648094805006C2977F
:05357100D2A2C2A3225A
:09416900900044E0F404FD7F28FD
:10417200900155EDF0D3648094E440057464F080BE
:104182000E900155E0C36480941C5003749CF0EFC0
:1041920024D76054147003024225240260030242B1
:1041A20096900155E0FF90005FE0B5070122900074
:1041B2005FEFF0900155E0FB7003024250D3EB64D5
:1041C2008094804009D2DE900155E0024250900175
:1041D20055E0FFC3648094804003024296D2DE120F
:1041E2004AD8124A47D29522900155E0FF900060CA
:1041F200E0B5070122900060EFF0900155E0FB70FE
:10420200028067D3EB648094804008D2DE9001552F
:10421200E08057900155E0FFC3648094805075D2CE
:10422200DE8069900155E0FF90005FE0B50706A3CC
:10423200E0B5070122900060EFF090005FF090017E
:1042420055E0FB7010C2DEFF124A2DC292E4FF124B
:104252004A47C29522D3EB648094804014D2DE9008
:104262000155E0FF124A47C295E0FF124A2DC29261
:1042720022900155E0FFC3648094805017D2DE1271
:104282004AD8124A47D295900155E0FF124AD812F5
:054292004A2DD292222A
:104866009001ABEFF0900062E06F60359001ABE035
:10487600B4510C7D9C7F2B12334130B30C80FB7DF1
:10488600647F2B12334120B4FD7D157F147E001208
:1048960047B4E4FD7F2B1233419001ABE0900062F8
:0248A600F022FE
:104032009001ACEFF0900064E06F70030241689071
:1040420001ACE024C360231460691470030240FBD6
:10405200147003024143240460030241597D647FCA
:104062002C12334120B5FD02414D900064E024C280
:10407200601A14602414602E240460030241597DE6
:104082009C7F2C12334190006F02413C7D647F2C57
:1040920012334190007102413C7D647F2C12334106
:1040A20090007D02413C7D647F2C1233419000815F
:1040B20002413C900064E024C3601A24FE60221492
:1040C200602B240460030241597D9C7F2C123341F2
:1040D20090007780657D9C7F2C1233419000718027
:1040E200597D647F2C123341900073804D7D647F33
:1040F2002C1233419000798041900064E024C36027
:104102001714602024FE60282404704B7D9C7F2CB1
:1041120012334190007F80227D9C7F2C123341908C
:10412200007B80167D9C7F2C123341900073800AA5
:104132007D647F2C123341900075E0FEA3E0FF8086
:10414200117D9C7F2C12334120B6FD90006EE0FF62
:104152007E007D151247B4E4FD7F2C12334190019D
:07416200ACE0900064F022C4
:103D94009001ADEFF0900063E06F7003023EEDC25E
:103DA400969001ADE024BAB409004003023EDE90CF
:103DB4003DC175F003A4C58325F0C58373023DDCC2
:103DC400023DEB023E07023E27023E46023E6502EA
:103DD4003E84023EA3023EC57D647F2D123341C260
:103DE4009620A4FD023ED1900063E0FF9001ADE077
:103DF400D39F40057D9C023EBB7F48123D947D6469
:103E0400023EBB900063E0FF9001ADE0C39F50040D
:103E14007D6480027D9C7F2D123341C29620A5FDD6
:103E2400023ED1900063E0FF9001ADE0D39F4009D2
:103E34007F48123D947D9C80077F4A123D947D64A7
:103E44008075900063E0FF9001ADE0C39F50047D56
:103E54006480027D9C7F2D123341C29620A6FD8092
:103E64006C900063E0FF9001ADE0D39F40097F4A6E
:103E7400123D947D9C80077F4C123D947D64803775
:103E8400900063E0FF9001ADE0C39F50047D648027
:103E9400027D9C7F2D123341C29620A7FD802E9077
:103EA4000063E0FF9001ADE0D39F40097F4C123DD9
:103EB400947D9C80027D647F2D12334190006C8040
:103EC4000F7D9C7F2D123341D29620A4FD90006A71
:103ED400E0FEA3E0FF7D151247B4E4FD7F2D12330D
:0A3EE400419001ADE0900063F02270
:103C36009001AEEFF0900065E0FE6F7003023D93D9
:103C4600D2969001AEE024CD6058147003023CF089
:103C5600147003023D3724036003023D84EE24CC36
:103C6600602014602D24026003023D847D9C7F2E1B
:103C76001233411247AE20A5FD30A5FD20A5FD0259
:103C86003D777D647F2E1233411247AE20A5FD029B
:103C96003D777D9C7F2E1233411247AE20A5FD0253
:103CA6003D77900065E024CC602014602D240360ED
:103CB60003023D847D647F2E1233411247AE20A558
:103CC600FD30A5FD20A5FD023D777D9C7F2E12339C
:103CD600411247AE20A5FD023D777D647F2E12334B
:103CE600411247AE20A5FD023D77900065E024CD48
:103CF600601B24FE602624036003023D847D9C7FB6
:103D06002E1233411247AE20A5FD023D777D647F1A
:103D16002E1233411247AE20A5FD80557D9C7F2E85
:103D26001233411247AE20A5FD30A5FD20A5FD802A
:103D360040900065E024CD60161460222402703E97
:103D46007D647F2E1233411247AE20A5FD80227D71
:103D56009C7F2E1233411247AE20A5FD80137D6451
:103D66007F2E1233411247AE20A5FD30A5FD20A5BA
:103D7600FD900083E0FEA3E0FF7D151247B4E4FD4D
:0E3D86007F2E1233419001AEE0900065F022D6
:043EEE007D347F3E62
:103EF2009001A7EFF0A3EDF024CE603314604524C7
:103F0200FE601804705C900065E024CE60091460C5
:103F12000824FE704D803C803A803C900065E0248D
:103F2200CE6008146007147039802C802A80249097
:103F32000065E024CD600B24FE6005047024801728
:103F42008011800F900065E024CE600F24FD600791
:103F520004700F7D9C80067D6480027D647F2E123A
:103F620033419001A7E0FF124032D2969001A8E0BF
:103F720024CD60341460551460772403600302403A
:103F820022900065E024CC601514601724026003BF
:103F920002402220A5FD30A5FD20A5FD807520A5AB
:103FA200FD807020A5FD806B900065E024CC60123E
:103FB2001460142403706920A5FD30A5FD20A5FD21
:103FC200805120A5FD804C20A5FD8047900065E032
:103FD20024CD600D24FE600E2403704420A5FD80D4
:103FE2003220A5FD802D20A5FD30A5FD20A5FD8058
:103FF20022900065E024CD600C14600E2402702033
:1040020020A5FD800E20A5FD800920A5FD30A5FD7F
:1040120020A5FD900083E0FEA3E0FF7D151247B4CA
:10402200E4FD7F2E1233419001A8E0900065F0225A
:09307700900182EFF0A3EDF0FBE3
:10308000A312264700000000900188122647000086
:10309000FFFFE490018CF0A3F0A3F0900065E0FF47
:1030A0006B700302313E900183E024CD601C1460FC
:1030B0002E1460432403706EEF24CC600914600862
:1030C00024027062802D803E8040900065E024CC18
:1030D00060091460082403704D803E802D80279085
:1030E0000065E024CD600A24FE6008240370378068
:1030F0001980137D9C8024900065E024CD600B1422
:103100006017240270207D6480027D9C7F2E123324
:103110004190018D7401F0800D7D647F2E1233414A
:1031200090018D7402F0E51F24E8FFE51E3403FED4
:10313000E4351DFDE4351CFC90018812263B90000F
:1031400063E0FF900182E0FE6F6016EEC39F5004C3
:103150007D6480027D9C7F2D12334190018C023270
:10316000FE90005EE0700990005DE070030233376E
:1031700090018CE0FB64016003023296900182E0D2
:1031800024BAB4090040030232CA90319875F003A2
:10319000A4C58325F0C583730231B30231C7023160
:1031A000E20231F502320B02321E023234023247A1
:1031B000023262C2967D147F147E001247B430A49E
:1031C000030232CA023270C2967D147F147E00124E
:1031D00047B4900063E06446602F30A5030232CA12
:1031E000807BC2967D147F147E001247B430A50305
:1031F0000232CA807BC2967D147F147E001247B4CF
:1032000030A50630A6030232CA8052C2967D147FD2
:10321000147E001247B430A6030232CA8052C2960E
:103220007D147F147E001247B430A60630A7030237
:1032300032CA8029C2967D147F147E001247B430B2
:10324000A7030232CA8029C2967D147F147E001221
:1032500047B430A708900063E0644E706D90006C36
:103260008011D2967D147F147E001247B420A45A98
:1032700090006AE0FEA3E0FFEF251FFFEE351EFE83
:10328000E4351DFDE4351CFC90018412263B9001C1
:103290008C7402F08034EBB40230AF1FAE1EAD1D53
:1032A000AC1C900184E0F8A3E0F9A3E0FAA3E0FBF2
:1032B000D312262A5014E4FD7F2D123341E49001ED
:1032C0008CF0900182E0900063F0AF1FAE1EAD1D48
:1032D000AC1C900188E0F8A3E0F9A3E0FAA3E0FBBE
:1032E000D312262A400302316190018DE0602CD276
:1032F000967D147F147E001247B430A507A3740195
:10330000F002316190018EE064016003023161904E
:10331000018DE014F0E4A3F0023161E4FD7F2E1290
:1033200033419001881226470000FFFF900183E09F
:07333000900065F00231611D
:013337002273
:0C4AB8009001A1EFF0A3EDF0A3EBF022C1
:10447E0020872B20862830842530832220811F2000
:10448E00801C3085032082062085132082107D1526
:10449E007F0A7E001247B4E4FD7F2A023341208654
:1044AE000330870B7D107F281233417DF08056201C
:1044BE00810330800B7DF07F281233417D108045C3
:1044CE0020840B7DF47F281233417D0C80372083AE
:1044DE000B7D0C7F281233417DF480293082112010
:1044EE00850E7DF87F281233417D087F29123341D6
:1044FE0020850302447E30820302447E7D087F289D
:0D450E001233417DF87F2912334102447EB3
:1026EA00900040E0FBA3E0FAA3E0F91223FA249C4D
:1026FA00603E147003022A0114700302292F246712
:10270A006003022BF3E4FD7F2A12417290004674A3
:10271A000CF07E007F407D007B017A007900122652
:10272A00BE9000407401F0A37400F0A37400F0227C
:10273A00900040E0FBA3E0FAA3E0F9900001122424
:10274A0013700302291E20870330801F30861C3035
:10275A008519308416A2828283501030810D900030
:10276A0047740BF0900043E0022929900047E0B437
:10277A000B16740CF0900040E0FBA3E0FAA3E0F91A
:10278A0090000174FF022440751900751A28751704
:10279A0000751828308534208231AE17AF187C00B6
:1027AA007D0A1224ECC3E5189FF518E5179EF51764
:1027BA00C37464951AFFE49519FE7C007D0A1224FD
:1027CA00ECEF251AF51AEE3519F519308234208501
:1027DA0031C374649518FFE49517FE7C007D0A12D4
:1027EA0024ECEF2518F518EE3517F517AE19AF1AC0
:1027FA007C007D0A1224ECC3E51A9FF51AE5199E9E
:10280A00F51930864020813DAE17AF187C007D0A4D
:10281A001224EC7C007D03122485C3E5189FF51869
:10282A00E5179EF517C37464951AFFE49519FE7DA2
:10283A000A1224EC7C007D03122485EF251AF51A6E
:10284A00EE3519F51930814020863DC37464951818
:10285A00FFE49517FE7C007D0A1224EC7C007D03C0
:10286A00122485EF2518F518EE3517F517AE19AFAE
:10287A001A7D0A1224EC7C007D03122485C3E51A12
:10288A009FF51AE5199EF51930874020803DAE174D
:10289A00AF187C007D0A1224EC7C007D0512248589
:1028AA00C3E5189FF518E5179EF517C37464951AC2
:1028BA00FFE49519FE7D0A1224EC7C007D051224A2
:1028CA0085EF251AF51AEE3519F519208003022B22
:1028DA00E520873DC374649518FFE49517FE7C00D4
:1028EA007D0A1224EC7C007D05122485EF2518F55B
:1028FA0018EE3517F517AE19AF1A7D0A1224EC7CBB
:10290A00007D05122485C3E51A9FF51AE5199EF57F
:10291A0019022BE5900041E475F002122522E4FD2C
:10292A007F2A022BF0E51B1470030229D1147003CD
:10293A000229F324026003022BF3900040E0FBA378
:10294A00E0FAA3E0F990000112241324A6601D24E2
:10295A00FE60461460282402706A900044E0FD7FFD
:10296A0028124172900044E0F404800712416990F1
:10297A000044E0FD7F29124172900085802B90006F
:10298A0044E0FD7F28124172900044E0F404FD7F88
:10299A00291241729000878010124169900044E028
:1029AA00FD7F29124172900087E0FEA3E0FFEF2528
:1029BA001FFFEE351EFEE4351DFDE4351CFC9000BC
:1029CA004812263B051B22AF1FAE1EAD1DAC1C9044
:1029DA000048E0F8A3E0F9A3E0FAA3E0FBD312264B
:1029EA002A4003022BF3051B22208403022BF32027
:1029FA008303022BF38063E51B1460420460030225
:102A0A002BF3900040E0FBA3E0FAA3E0F990000169
:102A1A00122413FF3395E0FE7C007D0A122485EE12
:102A2A003395E0FDFCEF251FFFEE351EFEED351D4B
:102A3A00FDEC351CFC90004812263B051B22AF1FFB
:102A4A00AE1EAD1DAC1C900048E0F8A3E0F9A3E06F
:102A5A00FAA3E0FBD312262A501FE4FD7F2A124173
:102A6A0072900041E475F002122522900048122665
:102A7A004700000000E4F51B22900045E0FF339573
:102A8A00E0F5198F1AF5178F18308734208031AC8A
:102A9A0017AD18EC121FF6E4FBFAF9783F121EEB99
:102AAA0012202F8E178F18AC19AD1AEC121FF6E4EC
:102ABA00FBFA79C0783F121EEB12202F8E198F1A5B
:102ACA00308034208731AC17AD18EC121FF6E4FBC6
:102ADA00FA79C0783F121EEB12202F8E178F18AC8E
:102AEA0019AD1AEC121FF6E4FBFAF9783F121EEB45
:102AFA0012202F8E198F1A308636208133AC17ADEB
:102B0A0018EC121FF67433FBFAF9783F121EEB1217
:102B1A00202F8E178F18AC19AD1AEC121FF67B6690
:102B2A007A6679A6783F121EEB12202F8E198F1A19
:102B3A00308136208633AC17AD18EC121FF67B664F
:102B4A007A6679A6783F121EEB12202F8E178F18FD
:102B5A00AC19AD1AEC121FF67433FBFAF9783F126E
:102B6A001EEB12202F8E198F1A308536208233AC35
:102B7A0017AD18EC121FF67466FBFAF9783F121EAD
:102B8A00EB12202F8E178F18AC19AD1AEC121FF604
:102B9A007BCD7ACC798C783F121EEB12202F8E19BE
:102BAA008F1A308236208533AC17AD18EC121FF617
:102BBA007BCD7ACC798C783F121EEB12202F8E17A0
:102BCA008F18AC19AD1AEC121FF67466FBFAF97875
:102BDA003F121EEB12202F8E198F1AAD1A7F29125F
:092BEA004172AD187F28124172FE
:012BF30022BF
:0B463000900127EFF0A3EDF0A3EBF0EA
:10463B00E4FF90015204F0A37401F0A3742A8012DA
:10464B00EEF46025AD070F74002DF582E43400F510
:10465B0083EEF0900152E0FBA3E475F001122538D4
:10466B00A9F0FA1223FAFE80D774002FF582E434F6
:10467B0000F58374FFF0900047740CF090004074C9
:10468B0001F0A37400F0A37400F0900127E09000F8
:10469B0043F0900128E0900044F0900129E0900055
:0646AB0045F0A3740BF0C2
:0146B10022E6
:05390900900198EDF0B3
:10390E00A3EFF0900199E07003023AAC20870330E8
:10391E00802430862130851E30841BA28282835003
:10392E001530811290019C740BF0900198E0FD7F90
:10393E002A12334180CD90019CE0B40B0B740CF035
:10394E00900199E014F080BB900198E090019BF0FB
:10395E0090019AF0308527208224A3E0FF75F00AAB
:10396E0084FEC3EF9EF090019AE0FFC374649FFF44
:10397E00E49400FE7C007D0A122497E02FF0308242
:10398E002920852690019BE0FFC374649FFFE49479
:10399E0000FE7C007D0A122497E02FF090019AE041
:1039AE00FF75F00A84FEC3EF9EF03086332081301F
:1039BE0090019BE0FF75F00A8475F003A4FEC3EF3F
:1039CE009EF090019AE0FFC374649FFFE49400FEA2
:1039DE007C007D0A122497EF75F003A4FFE02FF010
:1039EE0030813320863090019BE0FFC374649FFFCB
:1039FE00E49400FE7C007D0A122497EF75F003A478
:103A0E00FFE02FF090019AE0FF75F00A8475F00345
:103A1E00A4FEC3EF9EF030873320803090019BE0F0
:103A2E00FF75F00A8475F005A4FEC3EF9EF09001B9
:103A3E009AE0FFC374649FFFE49400FE7C007D0A4D
:103A4E00122497EF75F005A4FFE02FF0308033209D
:103A5E00873090019BE0FFC374649FFFE49400FEE7
:103A6E007C007D0A122497EF75F005A4FFE02FF07D
:103A7E0090019AE0FF75F00A8475F005A4FEC3EF7D
:103A8E009EF090019AE0FD7F2912334190019BE058
:103A9E00FD7F281233417D151247B00239117D2862
:053AAE007F3C023576AB
:104733009001AFEDF0EF24A6601D24FE60461460E7
:1047430028240270599001AFE0FD7F281233419075
:1047530001AFE0F40480071233389001AFE0FD7F2E
:1047630029123341900085802B9001AFE0FD7F2813
:104773001233419001AFE0F404FD7F2912334190DD
:10478300008780101233389001AFE0FD7F29123388
:1047930041900087E0FEA3E0FF7D151247B430840B
:0B47A300FD3083FAE4FD7F2A02334161
:053576009001A4EDF03E
:10357B00EF75F00AA4FFEF251FFFE5F0351EFEE403
:10358B00351DFDE4351CFC90004812263BAF1FAEE9
:10359B001EAD1DAC1C900048E0F8A3E0F9A3E0FAC7
:1035AB00A3E0FBD312262A500302374D9001A4E06F
:1035BB009001A6F09001A5F0308738208035A3E06C
:1035CB00FCE4121FFB7433FBFAF9783F121EEB126B
:1035DB00202F9001A6EFF09001A5E0FCE4121FFB59
:1035EB007B667A6679A6783F121EEB12202F90012C
:1035FB00A5EFF030803A2087379001A6E0FCE4126B
:10360B001FFB7B667A6679A6783F121EEB12202F82
:10361B009001A6EFF09001A5E0FCE4121FFB7433C0
:10362B00FBFAF9783F121EEB12202F9001A5EFF059
:10363B0030863B2081389001A6E0FCE4121FFB7B17
:10364B00CD7ACC794C783F121EEB12202F9001A62D
:10365B00EFF09001A5E0FCE4121FFB7B9A7A9979BD
:10366B0099783F121EEB12202F9001A5EFF03081BD
:10367B003B2086389001A6E0FCE4121FFB7B9A7A74
:10368B00997999783F121EEB12202F9001A6EFF03B
:10369B009001A5E0FCE4121FFB7BCD7ACC794C7832
:1036AB003F121EEB12202F9001A5EFF030853A2030
:1036BB0082379001A6E0FCE4121FFB7466FBFAF95B
:1036CB00783F121EEB12202F9001A6EFF09001A570
:1036DB00E0FCE4121FFB7BCD7ACC798C783F121E79
:1036EB00EB12202F9001A5EFF030823A2085379016
:1036FB0001A6E0FCE4121FFB7BCD7ACC798C783FE2
:10370B00121EEB12202F9001A6EFF09001A5E0FC0A
:10371B00E4121FFB7466FBFAF9783F121EEB1220C2
:10372B002F9001A5EFF09001A5E0FD7F2912334109
:10373B009001A6E0FD7F281233417D151247B002A0
:09374B003598E4FD7F2A023341A8
:0D000E00E4F5C7F5C5F5C675C380F5C4223D
:1049BA0075C78375C5018FC4EEF5C375C65A75C62A
:0F49CA00A57D147F0A7E001247B4AFC212000E03
:0149D90022BB
:1049990075C78375C5028FC4EEF5C3AF058FC275A0
:1049A900C65A75C6A57D147F0A7E001247B4020057
:0149B9000EEF
:1049DA0075C78375C5038FC4EEF5C375C65A75C608
:0D49EA00A57D147F0A7E001247B402000E66
:103754007F3C1240327F40124032AF1FAE1EAD1D7F
:10376400AC1C90019D12263B7F3C1240327F4012DC
:10377400403290019DE0F8A3E0F9A3E0FAA3E0FB56
:10378400C3E51F9BFFE51E9AFEE51D99FDE51C9808
:10379400FC90019D12263B90019DE0FCA3E0FDA35B
:1037A400E0FEA3E0FFE4121FF1E4FBFAF9783F1214
:1037B4001EEB12202F90019D12263B90019DE0FCF0
:1037C400A3E0FDA3E0FEA3E0FFE4121FF1E4FBFA93
:1037D400F9783F121EEB12202F900079EEF0A3EF40
:1037E400F0900077EEF0A3EFF090019DE0FCA3E0F1
:1037F400FDA3E0FEA3E0FFE4121FF1E4FBFA79402D
:10380400783F121EEB12202F90007FEEF0A3EFF012
:1038140090019DE0FCA3E0FDA3E0FEA3E0FFE41221
:103824001FF17B4E7A627910783F121EEB12202F23
:10383400900081EEF0A3EFF090019DE0FCA3E0FD89
:10384400A3E0FEA3E0FFE4121FF17B7B7A1479AEC0
:10385400783E121EEB12202F90006FEEF0A3EFF0D3
:1038640090019DE0FCA3E0FDA3E0FEA3E0FFE412D1
:103874001FF17B8C7A4A798A783E121EEB12202F34
:10388400900075EEF0A3EFF090019DE0FCA3E0FD45
:10389400A3E0FEA3E0FFE4121FF17B377A897941AC
:1038A400783E121EEB12202F900071EEF0A3EFF081
:1038B40090019DE0FCA3E0FDA3E0FEA3E0FFE41281
:1038C4001FF17BCD7ACC794C783E121EEB12202F5F
:1038D400900073EEF0A3EFF090019DE0FCA3E0FDF7
:1038E400A3E0FEA3E0FFE4121FF1E4FBFAF9783F42
:1038F400121EEB12202F90007BEEF0A3EFF0A3EE4C
:04390400F0A3EFF04D
:01390800229C
:104AA500438780759850438E04759CD9438E014386
:034AB5008E10223E
:104297007F501248661247AE7F511248661247AEEA
:1042A7007F501248661247AE7F511248661247AEDA
:1042B7009000647440F07F3C1240321247AE7F405A
:1042C7001240321247AE7F3C1240321247AE7F4057
:1042D7001240321247AE7F46123D941247AE7F48D6
:1042E700123D941247AE7F4A123D941247AE7F4C5F
:1042F700123D941247AE7F4E123D941247AE7F4C4B
:10430700123D941247AE7F4A123D941247AE7F4842
:10431700123D941247AE7F46123D94900065E0909F
:104327000058F09000657432F07F35123C36124722
:10433700AE7F32123C361247AE7F35123C361247FB
:10434700AE7F32123C361247AE900058E0900065BF
:10435700F07D3C7F2A1233411247AEE4FD7F2A12DB
:1043670033411247AE7DC47F2A1233411247AEE470
:10437700FD7F2A1233411247AE7D287F2912334130
:104387007DD87F281233411247AEE4FD7F2A1233CE
:10439700411247AE7DD87F291233417D287F2812ED
:0C43A70033411247AEE4FD7F2A0233418F
:1045A700E4F09000EEE0FFA3E0900157F09000F0F8
:1045B700E0900158F09000F1E0900159F09000F27E
:1045C700E090015AF09000F3E090015BF09000F466
:1045D700E090015CF09000F5E090015DF0A374FFBE
:0145E700F0E3
:0545E800900156EFF008
:1045ED00E0FF90017F7401F0A37401F0A37457F004
:1045FD0090017FE0FBA3E475F001122538A9F0FAD4
:10460D001223FAFEEEC39F5002AF0690017FE0FB2E
:10461D00A3E475F001122538A9F0FA1223FAFEB4BD
:02462D00FFE2AA
:01462F002268
:0100070022D6
:06001E0090009612263B43
:100024007E007F287D007B017A00799E1226BE7EA9
:10003400007F287D007B017A0079C61226BE7E00EF
:100044007F087D057B017A0079EE1226BE7B807ADB
:100054009679987800900096E0FCA3E0FDA3E0FE7A
:10006400A3E0FF12258AE47B0AFAF9F812258A90A4
:10007400009FEBF07B407A42790F7800900096E085
:10008400FCA3E0FDA3E0FEA3E0FF12258AE47B0AC3
:10009400FAF9F812258A9000A0EBF07BA07A867911
:1000A400017800900096E0FCA3E0FDA3E0FEA3E04D
:1000B400FF12258AE47B0AFAF9F812258A9000A136
:1000C400EBF0E47B107A27F9F8900096E0FCA3E0CB
:1000D400FDA3E0FEA3E0FF12258AE47B0AFAF9F807
:1000E40012258A9000A2EBF0E47BE87A03F9F890F9
:1000F4000096E0FCA3E0FDA3E0FEA3E0FF12258A46
:10010400E47B0AFAF9F812258A9000B3EBF0E47B59
:1001140064FAF9F8900096E0FCA3E0FDA3E0FEA3E6
:10012400E0FF12258AE47B0AFAF9F812258A900086
:10013400B4EBF0E47B0AFAF9F8900096E0FCA3E053
:10014400FDA3E0FEA3E0FF12258AE47B0AFAF9F896
:1001540012258A9000B5EBF0E47B0AFAF9F89000D6
:1001640096E0FCA3E0FDA3E0FEA3E0FF12258A9045
:1001740000B6EBF07B807A967998780090009AE04C
:10018400FCA3E0FDA3E0FEA3E0FF12258AE47B0AC2
:10019400FAF9F812258A9000AEEBF07B407A4279A6
:1001A4000F780090009AE0FCA3E0FDA3E0FEA3E03A
:1001B400FF12258AE47B0AFAF9F812258A9000AF27
:1001C400EBF07BA07A867901780090009AE0FCA39A
:1001D400E0FDA3E0FEA3E0FF12258AE47B0AFAF91E
:1001E400F812258A9000B0EBF0E47B107A27F9F836
:1001F40090009AE0FCA3E0FDA3E0FEA3E0FF12253B
:100204008AE47B0AFAF9F812258A9000B1EBF0E44B
:100214007BE87A03F9F890009AE0FCA3E0FDA3E000
:10022400FEA3E0FF12258AE47B0AFAF9F812258A74
:100234009000C2EBF0E47B64FAF9F890009AE0FCD9
:10024400A3E0FDA3E0FEA3E0FF12258AE47B0AFA03
:10025400F9F812258A9000C3EBF0E47B0AFAF9F866
:1002640090009AE0FCA3E0FDA3E0FEA3E0FF1225CA
:100274008AE47B0AFAF9F812258A9000C4EBF0E4C8
:100284007B0AFAF9F890009AE0FCA3E0FDA3E0FEF3
:10029400A3E0FF12258A9000C5EBF09000D674010C
:1002A400F0A304F0A304F0A304F09000EA04F0A384
:1002B40004F0A304F0A304F09000F67401F090009D
:1002C400F6E0FFD3940440030205BE749E2FF5822A
:1002D400E43400F583E0FF9000AEE0FEEFB50625C0
:1002E4009000F6E0FF249EF582E43400F583E0609C
:1002F400149000D6E0FE74C62FF582E43400F58332
:10030400EEF00204499000F6E0FF249EF582E43406
:1003140000F583E0FE9000AFE0FDEEB50513749E9A
:100324002FF582E43400F583E060069000D70204E0
:10033400389000F6E0FF249EF582E43400F583E073
:10034400FE9000B0E0FDEEB50513749E2FF582E437
:100354003400F583E060069000D80204389000F67B
:10036400E0FF249EF582E43400F583E0FE9000B1C2
:10037400E0FDEEB50513749E2FF582E43400F58399
:10038400E060069000D90204389000F6E0FF249E55
:10039400F582E43400F583E0FE9000C2E0FDEEB5A2
:1003A4000513749E2FF582E43400F583E060069013
:1003B40000EA0204389000F6E0FF249EF582E4345B
:1003C40000F583E0FE9000C3E0FDEEB50512749ED7
:1003D4002FF582E43400F583E060059000EB80544F
:1003E4009000F6E0FF249EF582E43400F583E0FEFD
:1003F4009000C4E0FDEEB50512749E2FF582E4343E
:1004040000F583E060059000EC80299000F6E0FFA1
:10041400249EF582E43400F583E0FE9000C5E0FDFF
:10042400EEB50521749E2FF582E43400F583E06077
:10043400149000EDE0FF9000F6E024C6F582E43469
:1004440000F583EFF09000F6E0FF24B2F582E43487
:1004540000F583E0FE9000AEE0FDEEB5051374B246
:100464002FF582E43400F583E060069000D602059F
:10047400A49000F6E0FF24B2F582E43400F583E0B2
:10048400FE9000AFE0FDEEB5051374B22FF582E4E3
:100494003400F583E060069000D70205A49000F6CE
:1004A400E0FF24B2F582E43400F583E0FE9000B06E
:1004B400E0FDEEB5051374B22FF582E43400F58344
:1004C400E060069000D80205A49000F6E0FF24B294
:1004D400F582E43400F583E0FE9000B1E0FDEEB572
:1004E400051374B22FF582E43400F583E0600690BE
:1004F40000D90205A49000F6E0FF24B2F582E434AA
:1005040000F583E0FE9000C2E0FDEEB5051374B281
:100514002FF582E43400F583E060069000EA0205DA
:10052400A49000F6E0FF24B2F582E43400F583E001
:10053400FE9000C3E0FDEEB5051274B22FF582E41F
:100544003400F583E060059000EB80549000F6E001
:10055400FF24B2F582E43400F583E0FE9000C4E0A9
:10056400FDEEB5051274B22FF582E43400F583E094
:1005740060059000EC80299000F6E0FF24B2F5823B
:10058400E43400F583E0FE9000C5E0FDEEB50521FE
:1005940074B22FF582E43400F583E060149000ED2A
:1005A400E0FF9000F6E024DAF582E43400F583EF0E
:1005B400F09000F6E004F00202C27E007F287D0085
:1005C4007B017A00799E1226BE9000F67401F090A9
:1005D40000F6E0FF24C6F582E43400F583E0FE74FF
:1005E4009E2FF582E43400F583EEF09000F6E0FFF0
:1005F40024DAF582E43400F583E0FE74B22FF58248
:10060400E43400F583EEF09000F6E004F0E0B40585
:10061400BE9000F67401F09000F6E0FFD39404500D
:100624002074C62FF582E43400F583E4F074DA2FE5
:10063400F582E43400F583E4F09000F6E004F08001
:10064400D69000F27401F09000EEF0E49000F6F021
:100654009000D6E0FF9000AEE06F60030206E290E7
:1006640000D7E0FF9000AFE06F70739000D8E0FF18
:100674009000B0E06F70679000D9E0FF9000B1E0A7
:100684006F705B9000EAE0FF9000C2E06F704F90E3
:1006940000EBE0FF9000C3E06F70439000ECE0FFDC
:1006A4009000C4E06F70379000EDE0FF9000C5E06B
:1006B4006F702B900065E0643460030210ED7F518D
:1006C4001248667F46123D947D077F2F123AB890F8
:1006D40000F5E0FD7F2D123AB87F50024866900085
:1006E40065E064346003020BDC9000F6E004F0E0A3
:1006F400C39464400B1245A7123AB37F35123C36BB
:100704009000EFE0FFC36480948550429000F1E0D4
:10071400FD3395E0FC74D42DF58274003CF583E040
:10072400FEEFFD3395E0FC74A32DF58274003CF5D7
:1007340083E0B506199001947401F0A37400F0A34A
:10074400749EF07B017A0079EE7D03020ACE90005C
:10075400F0E0FFC3648094855040A3E0FD3395E04E
:10076400FC74D42DF58274003CF583E0FEEFFD3378
:1007740095E0FC74A82DF58274003CF583E0B50681
:10078400199001947401F0A37400F0A3749EF07B9B
:10079400017A0079EE7D03020B1F9000EEE0FFC3A7
:1007A4006480948540030208349000F1E0FD3395A1
:1007B400E0FC74D42DF58274003CF583E0FEEFFD7B
:1007C4003395E0FC749E2DF58274003CF583E0B50E
:1007D40006199001947401F0A37400F0A3749EF0C0
:1007E4007B017A0079EE7D03020A659000F5E0FF53
:1007F4003395E0FE74E82FF58274003EF583E0FF44
:100804009000EEE0FD3395E0FC749E2DF5827400BB
:100814003CF583E0B507199001947401F0A37400CA
:10082400F0A3749EF07B017A0079EE7D07020A65DD
:100834009000EEE0FFC3648094854003020A6AEFEF
:100844003395E0FE749E2FF58274003EF583E0FD3F
:100854009000D6E0FCED6C604B749E2FF582740022
:100864003EF583E0FF9000D7E0FEEF6E6036900027
:10087400EEE0FF3395E0FE749E2FF58274003EF5A2
:1008840083E0FD9000D8E0FCED6C6018749E2FF5B9
:100894008274003EF583E0FF9000D9E0FEEF6E60C5
:1008A400030209549000EFE0FF64056029EF3395DB
:1008B400E0FE74A32FF58274003EF583E0FF900000
:1008C400EEE0FD3395E0FC749E2DF58274003CF55A
:1008D40083E0D39F40249000EFE0D364809482406F
:1008E400199001947401F0A37400F0A3749EF07B3A
:1008F400017A0079EE7D01020A659000F0E0FF6460
:10090400056029EF3395E0FE74A82FF58274003E4C
:10091400F583E0FF9000EEE0FD3395E0FC749E2D3E
:10092400F58274003CF583E0D39F40249000F0E00E
:10093400D36480948240199001947401F0A37400EC
:10094400F0A3749EF07B017A0079EE7D02020A65C1
:100954009000EEE0FF3395E0FE749E2FF582740064
:100964003EF583E0FD9000EAE0FCED6C604B749E84
:100974002FF58274003EF583E0FF9000EBE0FEEF7C
:100984006E60369000EEE0FF3395E0FE749E2FF526
:100994008274003EF583E0FD9000ECE0FCED6C60B9
:1009A40018749E2FF58274003EF583E0FF9000EDED
:1009B400E0FEEF6E6003020A6A9000F3E0FF640554
:1009C4006029EF3395E0FE74B72FF58274003EF58D
:1009D40083E0FF9000EEE0FD3395E0FC749E2DF57E
:1009E4008274003CF583E0D39F40239000F3E0D36E
:1009F4006480948240189001947401F0A37400F010
:100A0400A3749EF07B017A0079EE7D0580539000FB
:100A1400F4E0FF64056029EF3395E0FE74BC2FF524
:100A24008274003EF583E0FF9000EEE0FD3395E034
:100A3400FC749E2DF58274003CF583E0D39F402620
:100A44009000F4E0D364809482401B90019474017C
:100A5400F0A37400F0A3749EF07B017A0079EE7D1C
:100A640006E4FF0210E79000EFE0FFC36480948582
:100A74004003020B24A3E0FEC36480948540030278
:100A84000B24EEFD3395E0FC74A82DF58274003C34
:100A9400F583E0FEEFFD3395E0FC74A32DF582743D
:100AA400003CF583E0D39E40269000F0E0D36480C0
:100AB4009481401B9001947401F0A37400F0A3741A
:100AC4009EF07B017A0079EE7D027F010210E790AF
:100AD40000EFE0FFFD3395E0FC74A32DF582740074
:100AE4003CF583E0FE9000F0E0FD3395E0FC74A853
:100AF4002DF58274003CF583E0D39E4023D3EF644C
:100B0400809481401B9001947401F0A37400F0A3BD
:100B1400749EF07B017A0079EE7D017F020210E77A
:100B24009000EFE0FFC3648094854003020BDCA3D4
:100B3400E0C3648094854003020BDC9000EEE0FE89
:100B4400648094814042EEFD3395E0FC749E2DF563
:100B54008274003CF583E0FEEFFD3395E0FC74A362
:100B64002DF58274003CF583E0D39E401B900194E4
:100B74007401F0A37400F0A3749EF07B017A0079F1
:100B8400EEE4FD7F010210E79000EEE0FFD3648005
:100B940094814044EF3395E0FE749E2FF5827400F7
:100BA4003EF583E0FF9000F0E0FD3395E0FC74A88F
:100BB4002DF58274003CF583E0D39F401B90019493
:100BC4007401F0A37400F0A3749EF07B017A0079A1
:100BD400EEE4FD7F020210E7900065E064356003F7
:100BE4000206549000F6E004F0E0C39464400B1253
:100BF40045A7123AB37F34123C369000F3E0FFC3AA
:100C04006480948550449000F5E0FD3395E0FC74D5
:100C1400E82DF58274003CF583E0FEEFFD3395E0AA
:100C2400FC74B72DF58274003CF583E0B5061B9087
:100C340001947401F0A37400F0A3749EF07B017A14
:100C44000079EE7D077F050210E79000F4E0FFC312
:100C5400648094855042A3E0FD3395E0FC74E82D54
:100C6400F58274003CF583E0FEEFFD3395E0FC74FF
:100C7400BC2DF58274003CF583E0B5061B9001940D
:100C84007401F0A37400F0A3749EF07B017A0079E0
:100C9400EE7D077F060210E79000F2E0FFC3648058
:100CA40094854003020D369000F5E0FD3395E0FC99
:100CB40074E82DF58274003CF583E0FEEFFD339576
:100CC400E0FC74B22DF58274003CF583E0B5061B9C
:100CD4009001947401F0A37400F0A3749EF07B015E
:100CE4007A0079EE7D077F040210E79000F1E0FFBF
:100CF4003395E0FE74D42FF58274003EF583E0FF53
:100D04009000F2E0FD3395E0FC74B22DF58274009E
:100D14003CF583E0B5071B9001947401F0A37400C3
:100D2400F0A3749EF07B017A0079EE7D037F0402C8
:100D340010E79000F2E0FFC3648094854003020F43
:100D440073EF3395E0FE74B22FF58274003EF583A1
:100D5400E0FD9000EAE0FCED6C604B74B22FF5828C
:100D640074003EF583E0FF9000EBE0FEEF6E60362A
:100D74009000F2E0FF3395E0FE74B22FF582740028
:100D84003EF583E0FD9000ECE0FCED6C601874B27D
:100D94002FF58274003EF583E0FF9000EDE0FEEF56
:100DA4006E6003020E5A9000F3E0FF64056029EFC1
:100DB4003395E0FE74B72FF58274003EF583E0FFAF
:100DC4009000F2E0FD3395E0FC74B22DF5827400DE
:100DD4003CF583E0D39F40269000F3E0D3648094F5
:100DE40082401B9001947401F0A37400F0A3749EDC
:100DF400F07B017A0079EE7D057F040210E7900014
:100E0400F4E0FF64056029EF3395E0FE74BC2FF530
:100E14008274003EF583E0FF9000F2E0FD3395E03C
:100E2400FC74B22DF58274003CF583E0D39F402618
:100E34009000F4E0D364809482401B900194740188
:100E4400F0A37400F0A3749EF07B017A0079EE7D28
:100E5400067F040210E79000F2E0FF3395E0FE7491
:100E6400B22FF58274003EF583E0FD9000D6E0FCDD
:100E7400ED6C604B74B22FF58274003EF583E0FF95
:100E84009000D7E0FEEF6E60369000F2E0FF3395FD
:100E9400E0FE74B22FF58274003EF583E0FD90000D
:100EA400D8E0FCED6C601874B22FF58274003EF546
:100EB40083E0FF9000D9E0FEEF6E6003020F7390B1
:100EC40000EFE0FF64056029EF3395E0FE74A32F83
:100ED400F58274003EF583E0FF9000F2E0FD339567
:100EE400E0FC74B22DF58274003CF583E0D39F409E
:100EF400269000EFE0D364809482401B90019474A8
:100F040001F0A37400F0A3749EF07B017A0079EEE3
:100F14007D017F040210E79000F0E0FF6405602982
:100F2400EF3395E0FE74A82FF58274003EF583E05C
:100F3400FF9000F2E0FD3395E0FC74B22DF582746D
:100F4400003CF583E0D39F40269000F0E0D364801A
:100F54009482401B9001947401F0A37400F0A37474
:100F64009EF07B017A0079EE7D027F040210E79007
:100F740000F3E0FFC364809485400302102DA3E0D6
:100F8400FEC364809485400302102DEEFD3395E08A
:100F9400FC74BC2DF58274003CF583E0FEEFFD3358
:100FA40095E0FC74B72DF58274003CF583E0D39E84
:100FB40040269000F4E0D364809481401B90019417
:100FC4007401F0A37400F0A3749EF07B017A00799D
:100FD400EE7D067F050210E79000F3E0FFFD3395F8
:100FE400E0FC74B72DF58274003CF583E0FE9000BC
:100FF400F4E0FD3395E0FC74BC2DF58274003CF5FF
:1010040083E0D39E4023D3EF64809481401B9001FE
:10101400947401F0A37400F0A3749EF07B017A0031
:1010240079EE7D057F060210E79000F3E0FFC364CC
:101034008094854003020654A3E0C36480948540F1
:10104400030206549000F2E0FE648094814041EE75
:10105400FD3395E0FC74B22DF58274003CF583E019
:10106400FEEFFD3395E0FC74B72DF58274003CF57A
:1010740083E0D39E401A9001947401F0A37400F0AD
:10108400A3749EF07B017A0079EE7D047F05805382
:101094009000F2E0FFD3648094815003020654EF81
:1010A4003395E0FE74B22FF58274003EF583E0FFC1
:1010B4009000F4E0FD3395E0FC74BC2DF5827400DF
:1010C4003CF583E0D39F50030206549001947401CD
:1010D400F0A37400F0A3749EF07B017A0079EE7D96
:0910E400047F061210EE0206540E
:0110ED0022E0
:053AB300EF14FD7F2D62
:103AB8009001AAEDF09001A9EFF0642F6003023B9A
:103AC800EAA3E0B408004003023C35903ADAF8284B
:103AD8002873023AF2023B0F023B2C023B48023B9E
:103AE80064023B86023BA8023BCA900064E0B440F3
:103AF80009A3E064347003023C35900065E0B435F6
:103B080003123EEE023BE5900064E0B43F09A3E0F7
:103B180064347003023C35900065E0B43503123E0E
:103B2800EE023BC6900064E0B43D09A3E064347043
:103B380003023C35900065E0B43503123EEE805C2C
:103B4800900064E0B43C09A3E064347003023C359F
:103B5800900065E0B43503123EEE801E900064E0EC
:103B6800B43C09A3E064357003023C35900065E07D
:103B7800B434077D357F3E123EF27F3C8061900071
:103B880064E0B43D09A3E064357003023C3590005D
:103B980065E0B434077D357F3E123EF27F3D803FBD
:103BA800900064E0B43F09A3E064357003023C353B
:103BB800900065E0B434077D357F3E123EF27F3FCA
:103BC800801D900064E0B44006A3E06435605E9018
:103BD8000065E0B434077D357F3E123EF27F400237
:103BE80040329001A9E0642D7043A3E014600F14E3
:103BF800601014601114601224047012801B7F4836
:103C080080287F4A80247F4C80207F4E801C900132
:103C1800AAE0C36480948050047F46800D9001AA76
:0E3C2800E0D36480948540057F4E123D9422C7
:1010EE0090018FEFF0A3EDF0A3EBF0A3EAF0A3E9EC
:0110FE00F001
:1010FF001223FAFF900001122413900157F0900071
:10110F0002122413900158F090000312241390013F
:10111F0059F090000412241390015AF09000051218
:10112F00241390015BF090000612241390015CF0E1
:10113F009000071224131245E0900197EFF09001F1
:10114F008FE0FF600E6401600AEF64026005EF64D8
:10115F0003703D900065E064347028900191E0FBCE
:10116F00A3E0FAA3E0F91223FAFF9000011224136F
:10117F00900157F0900002122413900158F0900044
:10118F00038059900065E064356003021255805C5E
:10119F0090018FE0FF64046012EF6405600DEF644F
:1011AF00066008EF64076003021255900065E06463
:1011BF00357031900191E0FBA3E0FAA3E0F99000C4
:1011CF0004122413FF900005122413900157F0907E
:1011DF000006122413900158F09000071224139068
:1011EF000159805C900065E06434705A900191E081
:1011FF00FBA3E0FAA3E0F91223FAFF9000011224F7
:10120F0013900157F0900002122413900158F090A0
:10121F000003122413900159F0900004122413902C
:10122F00015AF090000512241390015BF090000614
:10123F0012241390015CF090000712241390015DAB
:10124F001245E3123AB390018FE0FD7F2F123AB8A7
:10125F00900191E0FBA3E0FAA3E0F990018FE0F594
:10126F0082758300122413FD7F2D123AB87F50121E
:10127F00486690018FE0FEB408004003021DD39032
:10128F001295F82828730212AD0213A7021508024F
:10129F0016450217B5021925021A62021BEA9001C0
:1012AF0090E0FD14B407004003021DD39012C975DE
:1012BF00F003A4C58325F0C583730212DE0212F773
:1012CF000212F902132402134F02135102137C90DE
:1012DF000197E02402FFC007900191E0FBA3E0FA21
:1012EF00A3E0F98E820213ED8058900197E024025B
:1012FF00FFC007900191E0FBA3E0FAA3E0F9900192
:10130F008FE0F58275830012241304900157F0903B
:10131F00000102188A900197E02402FFC007900194
:10132F0091E0FBA3E0FAA3E0F990018FE0F582755D
:10133F00830012241304900157F090000102171D2F
:10134F008000900197E02402FFC007900191E0FB1D
:10135F00A3E0FAA3E0F990018FE0F5827583001204
:10136F00241304900157F0900001021B469001973F
:10137F00E02402FFC007900191E0FBA3E0FAA3E095
:10138F00F990018FE0F58275830012241304900108
:10139F0057F09000010217A8900190E0FDB40800EB
:1013AF004003021DD39013BBF82828730213D302F6
:1013BF001DD30213FD02142B0214560214810214C2
:1013CF00AF0214DD900197E02402FFC00790019156
:1013DF00E0FBA3E0FAA3E0F990018FE0F5827583BB
:1013EF000012241304900157F08D82021DB7900153
:1013FF0097E02402FFC007900191E0FBA3E0FAA35E
:10140F00E0F990018FE0F5827583001224130490A8
:10141F000157F0900190E0F582021DB7900197E01F
:10142F002402FFC007900191E0FBA3E0FAA3E0F9CB
:10143F0090018FE0F58275830012241304900157F9
:10144F00F0900002021B46900197E02402FFC007B4
:10145F00900191E0FBA3E0FAA3E0F990018FE0F592
:10146F008275830012241304900157F09000050237
:10147F001B46900197E02402FFC007900191E0FB0B
:10148F00A3E0FAA3E0F990018FE0F58275830012D3
:10149F00241304900157F0900190E0F582021DB7DC
:1014AF00900197E02402FFC007900191E0FBA3E0B9
:1014BF00FAA3E0F990018FE0F582758300122413EF
:1014CF0004900157F0900190E0F582021DB7900152
:1014DF0097E02402FFC007900191E0FBA3E0FAA37D
:1014EF00E0F990018FE0F5827583001224130490C8
:1014FF000157F0900006021B46900190E0FDB408E2
:10150F00004003021DD390151CF8282873021534D0
:10151F00021537021DD30215650215930215BE027F
:10152F0015EC02161A021A8E900197E02402FFC0E2
:10153F0007900191E0FBA3E0FAA3E0F990018FE09F
:10154F00F58275830012241304900157F0900190D7
:10155F00E0F582021DB7900197E02402FFC00790CB
:10156F000191E0FBA3E0FAA3E0F990018FE0F5828F
:10157F0075830012241304900157F0900190E0F549
:10158F0082021DB7900197E02402FFC007900191DE
:10159F00E0FBA3E0FAA3E0F990018FE0F5827583F9
:1015AF000012241304900157F0900005021B46907F
:1015BF000197E02402FFC007900191E0FBA3E0FA3E
:1015CF00A3E0F990018FE0F58275830012241304D4
:1015DF00900157F0900190E0F582021DB7900197AE
:1015EF00E02402FFC007900191E0FBA3E0FAA3E023
:1015FF00F990018FE0F58275830012241304900196
:10160F0057F0900190E0F582021DB7900197E0240A
:10161F0002FFC007900191E0FBA3E0FAA3E0F9906D
:10162F00018FE0F58275830012241304900157F0A7
:10163F00900006021B46900190E0FDB408004003A5
:10164F00021DD3901659F828287302167102169CA2
:10165F000216C7021DD30216F502172A02175502EA
:10166F001780900197E02402FFC007900191E0FBE3
:10167F00A3E0FAA3E0F990018FE0F58275830012E1
:10168F00241304900157F0900002021C3B90019725
:10169F00E02402FFC007900191E0FBA3E0FAA3E072
:1016AF00F990018FE0F582758300122413049001E5
:1016BF0057F0900002021B46900197E02402FFC0F2
:1016CF0007900191E0FBA3E0FAA3E0F990018FE00E
:1016DF00F58275830012241304900157F090019046
:1016EF00E0F582021DB7900197E02402FFC007903A
:1016FF000191E0FBA3E0FAA3E0F990018FE0F582FE
:10170F0075830012241304900157F09000021224E5
:10171F0013900158F0900005021CF3900197E024FC
:10172F0002FFC007900191E0FBA3E0FAA3E0F9905C
:10173F00018FE0F58275830012241304900157F096
:10174F00900002021B46900197E02402FFC0079011
:10175F000191E0FBA3E0FAA3E0F990018FE0F5829D
:10176F0075830012241304900157F0900002021B9E
:10177F0046900197E02402FFC007900191E0FBA380
:10178F00E0FAA3E0F990018FE0F58275830012244F
:10179F001304900157F0900002122413900158F097
:1017AF00900006021CF3900190E0FDB40800400386
:1017BF00021DD39017C9F82828730217E102180CDD
:1017CF00021837021862021DD30218970218C502B9
:1017DF0018F0900197E02402FFC007900191E0FB01
:1017EF00A3E0FAA3E0F990018FE0F5827583001270
:1017FF00241304900157F0900005021C3B900197B1
:10180F00E02402FFC007900191E0FBA3E0FAA3E000
:10181F00F990018FE0F58275830012241304900173
:10182F0057F0900005021B46900197E02402FFC07D
:10183F0007900191E0FBA3E0FAA3E0F990018FE09C
:10184F00F58275830012241304900157F090000560
:10185F00021B46900197E02402FFC007900191E020
:10186F00FBA3E0FAA3E0F990018FE0F58275830006
:10187F0012241304900157F09000051224139001C5
:10188F0058F0900002021CF3900197E02402FFC071
:10189F0007900191E0FBA3E0FAA3E0F990018FE03C
:1018AF00F58275830012241304900157F090019074
:1018BF00E0F582021DB7900197E02402FFC0079068
:1018CF000191E0FBA3E0FAA3E0F990018FE0F5822C
:1018DF0075830012241304900157F0900005021B2A
:1018EF0046900197E02402FFC007900191E0FBA30F
:1018FF00E0FAA3E0F990018FE0F5827583001224DE
:10190F001304900157F0900005122413900158F022
:10191F00900006021CF3900190E0FDB40800400314
:10192F00021DD3901939F82828730219510219543E
:10193F000219820219B00219DB021DD3021A090221
:10194F001A37021A8E900197E02402FFC007900108
:10195F0091E0FBA3E0FAA3E0F990018FE0F5827527
:10196F00830012241304900157F0900190E0F58248
:10197F00021DB7900197E02402FFC007900191E08C
:10198F00FBA3E0FAA3E0F990018FE0F582758300E5
:10199F0012241304900157F0900190E0F582021D7C
:1019AF00B7900197E02402FFC007900191E0FBA3DD
:1019BF00E0FAA3E0F990018FE0F58275830012241D
:1019CF001304900157F0900002021B46900197E01C
:1019DF002402FFC007900191E0FBA3E0FAA3E0F916
:1019EF0090018FE0F5827583001224130490015744
:1019FF00F0900190E0F582021DB7900197E024026C
:101A0F00FFC007900191E0FBA3E0FAA3E0F990017A
:101A1F008FE0F58275830012241304900157F09024
:101A2F000190E0F582021DB7900197E02402FFC0FC
:101A3F0007900191E0FBA3E0FAA3E0F990018FE09A
:101A4F00F58275830012241304900157F09000065D
:101A5F00021B46900190E0FDB408004003021DD325
:101A6F00901A76F8282873021A8E021AC2021AF0F8
:101A7F00021B1E021B56021B8E021DD3021BBC90A3
:101A8F000197E02402FFC007900191E0FBA3E0FA69
:101A9F00A3E0F990018FE0F58275830012241304FF
:101AAF00900157F0900001122413900158F08D828D
:101ABF00021D81900197E02402FFC007900191E081
:101ACF00FBA3E0FAA3E0F990018FE0F582758300A4
:101ADF0012241304900157F0900190E0F582021D3B
:101AEF00B7900197E02402FFC007900191E0FBA39C
:101AFF00E0FAA3E0F990018FE0F5827583001224DC
:101B0F001304900157F0900190E0F582021DB790F9
:101B1F000197E02402FFC007900191E0FBA3E0FAD8
:101B2F00A3E0F990018FE0F582758300122413046E
:101B3F00900157F0900002122413900158F0900179
:101B4F0090E0F582021D81900197E02402FFC0070B
:101B5F00900191E0FBA3E0FAA3E0F990018FE0F58B
:101B6F008275830012241304900157F09000051220
:101B7F002413900158F0900190E0F582021D81909E
:101B8F000197E02402FFC007900191E0FBA3E0FA68
:101B9F00A3E0F990018FE0F58275830012241304FE
:101BAF00900157F0900190E0F582021DB7900197D8
:101BBF00E02402FFC007900191E0FBA3E0FAA3E04D
:101BCF00F990018FE0F582758300122413049001C0
:101BDF0057F0900190E0F582021DB7900190E0FD63
:101BEF00B407004003021DD3901BFEF82828730290
:101BFF001C13021C51021C89021CC1021D02021D72
:101C0F004C021D8C900197E02402FFC007900191B8
:101C1F00E0FBA3E0FAA3E0F990018FE0F582758372
:101C2F000012241304900157F09000061224139011
:101C3F000158F0900001122413900159F08D820287
:101C4F001D41900197E02402FFC007900191E0FB36
:101C5F00A3E0FAA3E0F990018FE0F58275830012FB
:101C6F00241304900157F09000061224139001588A
:101C7F00F0900190E0F582021D81900197E024021F
:101C8F00FFC007900191E0FBA3E0FAA3E0F99001F8
:101C9F008FE0F58275830012241304900157F090A2
:101CAF000006122413900158F0900190E0F5820283
:101CBF001D81900197E02402FFC007900191E0FB86
:101CCF00A3E0FAA3E0F990018FE0F582758300128B
:101CDF00241304900157F09000061224139001581A
:101CEF00F0900002122413900159F0900190E0F54A
:101CFF0082803F900197E02402FFC007900191E09E
:101D0F00FBA3E0FAA3E0F990018FE0F58275830061
:101D1F0012241304900157F0900005122413900120
:101D2F0058F0900006122413900159F0900190E0A2
:101D3F00F58275830012241390015A8074900197D5
:101D4F00E02402FFC007900191E0FBA3E0FAA3E0BB
:101D5F00F990018FE0F5827583001224130490012E
:101D6F0057F0900006122413900158F0900190E064
:101D7F00F5827583001224139001598034900197D6
:101D8F00E02402FFC007900191E0FBA3E0FAA3E07B
:101D9F00F990018FE0F582758300122413049001EE
:101DAF0057F0900190E0F582758300122413900193
:101DBF0058F0A374FFF0D0071245E8EF24FEFD7F23
:101DCF002D123AB8900190E0FD7F2F123AB8900192
:101DDF0091E0FBA3E0FAA3E0F9900190E0F58275A2
:101DEF008300122413123AB47F5112486690019166
:101DFF00E0FBA3E0FAA3E0F990018FE0F582758391
:101E0F0000122413FD3395E0FC90018FE075F0056F
:101E1F00A4FF900194E0FBA3E0FAA3E02FF9EA35C9
:101E2F00F0FAE92DF9EA3CFA1223FAFCC00490010A
:101E3F0091E0FBA3E0FAA3E0F9900190E0F5827541
:101E4F008300122413FF3395E0FEEF24FFFDEE34E1
:101E5F00FFFC900190E075F005A4FF900194E0FB6A
:101E6F00A3E0FAA3E02FF9EA35F0FAE92DF9EA3CFD
:101E7F00FAD0E0122473900191E0FBA3E0FAA3E003
:101E8F00F990018FE0F582758300122413FD3395CD
:101E9F00E0FC90018FE075F005A4FF900194E0FB4A
:101EAF00A3E0FAA3E02FF9EA35F0FAE92DF9EA3CBD
:101EBF00FAE4122473900191E0FBA3E0FAA3E0F996
:101ECF0090018FE0F5827583007401122440900118
:0C1EDF0090E0F58275830074FF0224403F
:1043B3007F511248667F46123D947F3C12403290F3
:1043C3000065E0643560057F35123C367D3C7F0235
:1043D3001239097D287F5A1247337D3C7F011239F8
:1043E300097D287F6402447130841530831220874D
:1043F3000F20860C208509208206208103308074DB
:1044030020870920860620850320831B7DE27F2ADF
:104413001233417D157F2C7E011247B47DEC7F2939
:104423001233417DE280252082092081062080030A
:104433002084377DE27F2A1233417D157F2C7E0154
:104443001247B47DE27F291233417DE37F28123383
:10445300417D157F2C7E011247B47DE27F2A123302
:10446300417D157F2C7E011247B47D287F9612353E
:0B447300760243EBE4FD7F2A02334198
:1048EA007DE77F2A1233411247AE7DD07F291233EA
:1048FA00417DEC7F281233417D167F037E001247EB
:10490A00B47DDD7F2A1233417D167F017E00024786
:01491A00B4E8
:1046B200E4F5977593FFF594F5917592FC7595F075
:1046C20075960FD2A1D2A3C2DEC297124AC4124A71
:1046D20079124A8FD28CD28ED2B2900059EFF0A3C7
:1046E200EDF0900061EBF090012AE0900062F09012
:1046F200012BE0900063F090012CE0900064F090B8
:10470200012DE0900065F0E4900043F0FD7F2B1254
:104712003341E4FD7F2C123341E4FD7F2D123341FE
:10472200E4FD7F2E123341E4FD7F2A123341024A17
:014732006125
:1048A800C2AFE4900043F0FD7F2B123341E4FD7F5B
:1048B8002C123341E4FD7F2D123341E4FD7F2E128B
:1048C8003341E4FD7F2A1233419000FA74FFF0A3CC
:1048D800744AF0A374D3F07BFF7A4A79CF122C5F25
:0248E80080FE50
:101EEB00EC4D6011E8497017ED33EC3304600DE4F1
:101EFB00FCFFFEFD22E933E8330470F802209B124D
:101F0B00206658046009E4CC24815006285009024D
:101F1B0020A52840030220A2C0E0EB4A7044B98000
:101F2B0006D0E0FB022091EF4E701CBD8008EBFF4A
:101F3B00EAFEE9FD80EBE98DF0A4FEE5F0021FD48B
:101F4B00E9CDF9EAFEEBFFEF89F0A4FCE5F0CE89D1
:101F5B00F0A42EFFE435F0CD89F0A42DFEE435F08E
:101F6B008067EF4E7005BD80D780C3EF8BF0A4ACBC
:101F7B00F0EE8BF0A42CFCE435F0F8EF8AF0A42CF7
:101F8B00E5F038FCE433CB8DF0A42CFCE5F03BF80A
:101F9B00EE8AF0A42CFCE5F038F8E433CF89F0A4FA
:101FAB002CFCE5F038CF3400CE89F0A42FFFE5F000
:101FBB003EFEE433C98DF0A42EFEE5F039CD8AF058
:101FCB00A42FFFE5F03EFEE43DFD33D0E0FB5007D0
:101FDB000BBB000F0220A5EC2CFCEF33FFEE33FE06
:061FEB00ED33FD02207D34
:101FF10075F020800E75F010800575F0087D007E6B
:10200100007F003392D530D50312261CEC334010EB
:10201100EF33FFEE33FEED33FDEC33FCD5F0ED2273
:0E202100E5F0247EA2D513CC92E7CDCEFF22AF
:10202F00EDD2E7CD33EC3392D524814006E4FFFEA9
:10203F00FDFC22FCE4CFCECDCC24E0501174FF8008
:10204F00EDC3CC13CCCD13CDCE13CECF13CF0470A5
:07205F00F030D5DE02261C63
:102BF400E52224FAF582E43400F583E005222290EC
:102C040000F73007039000FAE475F0011226780209
:102C140023FA2000E97F2ED2008018EF540F24906D
:102C2400D43440D4FF30040BEF24BFB41A00500353
:102C34002461FFE523600215230526E526700205BD
:102C44002530070E9000F7E475F001122678EF02A4
:102C5400247302494C7403D2078003E4C207F522AB
:102C64009000F712268FE4F523F525F526E5236079
:102C7400077F20122C3780F57524FFC201C200C2E1
:102C840002C203C205C206C208122C03FF700D3033
:102C940007057F00122C48AF26AE2522B4255FC25B
:102CA400D5C204122C03FF24D0B40A00501A75F0C4
:102CB4000A782330D50508B6FF0106C6A426F620F7
:102CC400D5047002D20380D924CFB41A00EF500483
:102CD400C2E5D204022F3AD20180C6D20080C0D20B
:102CE4000280BCD2D580BAD20580B47F20122C37A2
:102CF4002002077401B5230040F1122BF4FF122CBB
:102D040037022C71D208D2068095122BF4FB122BB9
:102D1400F4FA122BF4F94A4B700679387A307BFFB7
:102D240020022EE523602A7E008E82758300122401
:102D34001360060EEE652470F0C2D5EBC0E0EAC065
:102D4400E0E9C0E0EE122F9BD0E0F9D0E0FAD0E049
:102D5400FB1223FAFF60AAEBC0E0EAC0E0E9C0E09E
:102D6400122C37D0E02401F9D0E03400FAD0E0FB93
:102D7400E5240460DCD524D98087D20280A2122FF6
:102D84007D60F7E5247001041220B0A924600DE5EC
:102D940024600914F524123025EF60F3EA30E702C9
:102DA400F404C3995079EAF425240430E701E404D7
:102DB400F524800D122F7D60C1EA052425241220FC
:102DC400B0EA900126F030E701E4252404D5240478
:102DD40020050114122F9BE4C0E012302590012637
:102DE400E0601320E70714F0122C1F802204F0D0B7
:102DF400E014C0E07F00122C1FE5246007122C169B
:102E04001524800B300503122C16D0E0022C71D04F
:102E1400E00480C4122F7D609EE524041220B0904B
:102E24000126EAF0E5242005026001042404122F9F
:012E34009B02
:102E350074FF04C0E0123025122C1FE52420050282
:102E45006003122C16D0E0B524E87F45122C29909A
:102E55000126E07F2B30E7047F2DF404C0E0122C1F
:102E650037D0E075F00A84C0F0122C20D0E0122C87
:102E750020022C71791080027908C206C2088008E8
:102E8500D2D5790A8004790AC2D5E524047002F501
:102E950024E4FAFDFEFF122BF4FC7B08200113123B
:102EA5002BF4FD7B1030000A122BF4FE122BF4FFDD
:102EB5007B20EC3382D592D55013C3E43000069FB6
:102EC500FFE49EFEE42001039DFDE49CFCE4CBF8B9
:102ED500C201EC700CCFCECDCCE824F8F870F380AD
:102EE50017C3EF33FFEE33FEED33FDEC33FCEB336D
:102EF500FB994002FB0FD8E9EB300105F8D0E0C49F
:102F050048B201C0E00AEC4D4E4F78207B0070C2FC
:102F1500EAB5240040BCC0E0122F9DD0F0D0E020DF
:102F25000104C4C0E0C4B201C0F0122C20D0F0D519
:102F3500F0EB022C711226982D0E532E79582CDFAA
:102F45004C2CDB422E7D4F2E85442E85492CF44397
:102F55002E8B552DB8462E18452D82473058502CAE
:102F6500E32D2CE72E2D0A2B2CEB232D08203041A9
:102F75002A2CA34800002D02E524B4FF037524067E
:102F8500122BF4FC122BF4FD122BF4FE122BF4FF82
:102F950090011F0220ED790AA2D5200314300509FE
:102FA500B910020404B9080104A2D5200602500193
:102FB500042002689202B523005034C0E07F20301F
:102FC50003197F30A20272067205500F122FF4C248
:102FD50002C206C205C2087F30800F300503E9C072
:102FE500E0122C37300503D0E0F9D0E0B523CC3022
:102FF50005177F30B9100C122C377F583004077F26
:10300500788003B90803122C373002057F2D022C76
:10301500377F202008F87F2B2006F322920280CFED
:103025007F00B40700500B241FF582E43401F583BB
:10303500E0FF22286E756C6C2900D201122BF4304A
:1030450001F8C201782330D50108F6022CA32D50D2
:10305500434958122BF42403B405004001E4903091
:103065005393122C28743A122C28D2037523040288
:023075002E79B2
:10206600E9D2E7C933E833F892D5EDD2E7CD33ECC0
:0720760033FC5002B2D52239
:10207D00EC30E7100FBF000C0EBE00080DBD0004C4
:10208D000BEB6014A2D5EB13FCED92E7FD2274FF70
:10209D00FCFDFEFF22E480F8A2D574FF13FC7D80C9
:0320AD00E480EFDD
:1020B000F920E73624F950037907E4F42402FBE51C
:1020C00082158270021583DBF6E024FB501BE96069
:1020D00014E4F0E582158270021583E004F0B40A7E
:0D20E00008E4F0D9EE7401F00A22C2D52206
:1020ED00ED33EC3392D5FA602AB4FF33EDC2E77BC2
:1020FD00FF60067A217912E4227A21791B20D5041A
:10210D007A217916224E614E002B494E46002D49FB
:10211D004E4600E47A08F0A3DAFC7B00740722C077
:10212D0083C082ECC0E0EDC0E0EEC0E0EFC0E0EABD
:10213D0075F010A4CAABF075F04DA42BFBE435F08F
:10214D00FCEA2410FAEB34C5FBEC34D9FCEDC2E704
:10215D00FF75F056A4F42411C5F0F434C58FF0A426
:10216D002AE5F03BE43CF020E7141223BAD0E0FF5F
:10217D00D0E0FED0E0FDD0E0FC1222ED8014F4049E
:10218D001223BAD0E0FFD0E0FED0E0FDD0E0FC128B
:10219D001EEBD082D083E0FAEDD2E7CD33EC3324C1
:1021AD0082FBE4C3CF33CFCE33CECD33CD33DBF390
:1021BD007B0775F00A846004F0A31B0AE5F0F0A319
:1021CD008FF0740AA4FFACF08EF0740AA42CFEAC50
:1021DD00F050010C8DF0740AA42CFDE435F0F0A341
:0521ED00DBDE74072297
:1021F20002209BE86480F8E933E83360110460F060
:10220200ED33EC337009E8FCE9FDEAFEEBFF220452
:1022120060DED3EB9FEA9EE99DE8C2E78CF0C2F74D
:1022220095F0400CE8CCF8E9CDF9EACEFAEBCFFB19
:1022320012206685D0F05804700320D5B3E80470EC
:10224200075002B2D50220A592D5EC0460F7E4CC87
:10225200C0E0C398F8603B94186008400DD0E0FBE2
:1022620002207DE4FBFAC9FC8028E830E406E4C9D8
:10227200FBE4CAFCE830E305E4C9CACBFCE8540736
:102282006010F8C3E913F9EA13FAEB13FBEC13FC41
:10229200D8F130F52FC3E49CFCEF9BFFEE9AFEEDE4
:1022A20099FDD0E0FBEF4E4D4C701222DB03022071
:1022B200A2EC2CFCEF33FFEE33FEED33FDED30E705
:1022C200EB02207DEF2BFFEE3AFEED39FDD0E0FB75
:1022D20050130BBB00030220A5ED13FDEE13FEEF1E
:0822E20013FFEC13FC02207D48
:1022EA000220A5EC5D046005E85904700302209BF6
:1022FA00122066580460F6EC4860F2EC7004FDFEA9
:10230A00FF22C860DB2481C85009C39860025006C6
:10231A000220A29850CAF582E9294B4A7005AB827D
:10232A0002209175F0007C1A7880C3EF9BEE9AED3B
:10233A0099400DC3EF9BFFEE9AFEED99FDE842F03E
:10234A00DC23ACF0D0E0FFD0E0FED0E0FDAB822091
:10235A00E7101BEB60BAEC2CFCEF33FFEE33FEED1B
:10236A0033FD02207DE803F830E705C0F075F00080
:10237A00EF2FFFEE33FEED33FD40B830E7C280AAFF
:10238A003F8000004120000042C80000447A00005B
:10239A00461C400047C35000497424004B189680DD
:1023AA004CBEBC205A0E1BCA6753C21C749DC5AED4
:1023BA00FB60065407601C23231223E8EB543860A1
:1023CA00091223D41223E3121EEBECF8EDF9EEFA0C
:1023DA00EFCB22EB1223E380F1543803241C902321
:1023EA008AFE93FC0EEE93FD0EEE930ECE93FF2221
:10452700024823E493A3F8E493A34003F68001F23F
:1045370008DFF48029E493A3F85407240CC8C33395
:10454700C4540F4420C8834004F456800146F6DF64
:10455700E4800B010204081020408090491BE47E90
:10456700019360BCA3FF543F30E509541FFEE49359
:10457700A360010ECF54C025E060A840B8E493A320
:10458700FAE493A3F8E493A3C8C582C8CAC583CA4B
:10459700F0A3C8C582C8CAC583CADFE9DEE780BE03
:01494B00006B
:1023FA00BB010689828A83E0225002E722BBFE02E1
:09240A00E32289828A83E4932213
:10241300BB010CE58229F582E5833AF583E022507E
:1024230006E92582F8E622BBFE06E92582F8E222C8
:0D243300E58229F582E5833AF583E49322E2
:10244000BB010FF8E58229F582E5833AF583E028A0
:10245000F0225009C58229F8E58226F622BBFE0942
:10246000C58229F8E22582F222F8EA2583F583E97C
:032470009328228C
:10247300BB010689828A83F0225002F722BBFE0148
:02248300F32242
:10248500EF8DF0A4A8F0CF8CF0A428CE8DF0A42E6B
:02249500FE2225
:10249700BC000BBE0029EF8DF084FFADF022E4CC29
:1024A700F875F008EF2FFFEE33FEEC33FCEE9DECF2
:1024B700984005FCEE9DFE0FD5F0E9E4CEFD22ED38
:1024C700F8F5F0EE8420D21CFEADF075F008EF2F82
:1024D700FFED33FD4007985006D5F0F222C398FD73
:0524E7000FD5F0EA2210
:1024EC00C2D5EC30E709B2D5E4C39DFDE49CFCEE0B
:1024FC0030E715B2D5E4C39FFFE49EFE122497C3C8
:10250C00E49DFDE49CFC800312249730D507C3E4C2
:06251C009FFFE49EFE2279
:10252200C5F0F8A3E028F0C5F0F8E5821582700244
:062532001583E038F022E1
:10253800A3F8E0C5F025F0F0E58215827002158356
:06254800E0C838F0E822B3
:10254E0075F008758200EF2FFFEE33FECD33CDCC44
:10255E0033CCC58233C5829BED9AEC99E5829840C7
:10256E000CF582EE9BFEED9AFDEC99FC0FD5F0D6A4
:10257E00E4CEFBE4CDFAE4CCF9A88222B800C1B9CE
:10258E000059BA002DEC8BF084CFCECDFCE5F0CB0C
:10259E00F97818EF2FFFEE33FEED33FDEC33FCEB45
:1025AE0033FB10D703994004EB99FB0FD8E5E4F900
:1025BE00FA227818EF2FFFEE33FEED33FDEC33FCED
:1025CE00C933C910D7059BE99A4007EC9BFCE99AE1
:1025DE00F90FD8E0E4C9FAE4CCFB2275F010EF2F26
:1025EE00FFEE33FEED33FDCC33CCC833C810D70726
:1025FE009BEC9AE899400AED9BFDEC9AFCE899F861
:0E260E000FD5F0DAE4CDFBE4CCFAE4C8F922F3
:0E261C00C3E49FFFE49EFEE49DFDE49CFC22CF
:10262A00EB9FF5F0EA9E42F0E99D42F0E89C45F006
:01263A00227D
:0C263B00ECF0A3EDF0A3EEF0A3EFF02212
:10264700A8828583F0D083D08212265E12265E127E
:10265700265E12265EE473E493A3C583C5F0C583A3
:10266700C8C582C8F0A3C583C5F0C583C8C582C8DD
:012677002240
:10267800F8E0FBA3A3E0F925F0F0E58215827002EB
:072688001583E0FA38F0228F
:09268F00EBF0A3EAF0A3E9F0224C
:10269800D083D082F8E4937012740193700DA3A3D1
:1026A80093F8740193F5828883E4737402936860E5
:0626B800EFA3A3A380DFE5
:10494C00EFB40A07740D124957740A309811A899DC
:10495C00B8130CC2983098FDA899C298B811F630CB
:07496C0099FDC299F59922A3
:084AD800EF30E703F404FF22B4
:1026BE00EF4E6012EF60010EEDBB010B89828A8333
:1026CE00F0A3DFFCDEFA2289F05007F709DFFCA940
:0C26DE00F022BBFEFCF309DFFCA9F02297
:00000001FF
