:0300000002238454
:0C238400787FE4F6D8FD7581590223CB68
:0B27E40025730A005265616479210032
:10221C001227BA7529B175287F7527397526057F60
:10222C004E7E617DBC7C001207B1E4F5977593FF7F
:10223C00F594F5917592FC7595F075960FD2A1D227
:10224C00A3C2DEC2971227EF12278E1227A41227E1
:10225C00BAE4900059F0A3F09000617428F0A374D4
:10226C0047F0A37440F0A37436F0A37428F0E49004
:10227C000043F0FD7F211215E8E4FD7F221215E8E2
:10228C00E4FD7F231215E8E4FD7F241215E8E4FD3C
:10229C007F201215E8D28CD28ED2B27525FF75260E
:1022AC00277527E87BFF7A2779E41211D712277656
:1022BC00C2AFE4900043F0FD7F211215E8E4FD7FEE
:1022CC00221215E8E4FD7F231215E8E4FD7F2412A9
:0B22DC0015E8E4FD7F201215E880FEED
:03000300020006F2
:0100060032C7
:03000B0002270CBD
:10270C00C0E0C0F0C083C082C0D075D0081226696A
:0B271C00D0D0D082D083D0F0D0E032CB
:03001B0002272792
:10272700C0E0C0F0C083C082C0D075D008122802B4
:0B273700D0D0D082D083D0F0D0E032B0
:1025E8006021006661A800C8003A032014029A021C
:1025F800AC02AC029A01F401F405C8084A084A0082
:0E2608001401F407D0041100000000011000BE
:06250A007D0C7F017E0044
:10251000ED24F5601A14603624027055EF1FAC06E6
:1025200070011ED39400EC94004046000080EDEF53
:0E2530001FAC0670011ED39400EC94004033E3
:0E253E00000075220C7523A8D523FDD522FAC6
:10254C0080E1EF1FAC0670011ED39400EC940040A8
:01255C00146A
:10255D0075222E7523997524F5D524FDD523FAD52D
:02256D0022F753
:02256F0080DD0D
:012571002247
:10278E00438E805389F0438901758A20758CD1C29E
:06279E008DD2A9D2AF228A
:1027A400538EBF53890F438910758BE0758DB1C269
:0627B4008FD2ABD2AF2270
:10266900758A20758CD1E5142401F514E43513F528
:1026790013E43512F512E43511F511900046E0B472
:062689000103120D022204
:07280200758BE0758DB1221A
:1027760020B2FD7D0B7F147E0012251030B2FD7D48
:082786000B7F007E010225100B
:0B27EF00E4F5D8F5F9F5E975D90822EA
:10274200EF75F019A4FFAEF07C007D0A1205BA8F76
:0A275200EA8FFA75DA42E4F5F2228C
:10275C00EF75F019A4FFAEF07C007D0A1205BA8F5C
:0A276C00EB8FFB75DB42E4F5F3226E
:0415E4007D647F2281
:1015E8008D22D3E522648094E44005752264800C42
:1015F800C3E5226480941C500375229CEF24E2B456
:10160800070040030217E090161D75F003A4C58378
:1016180025F0C5837302163202166F0216A302174D
:101628000C02173F02176F0217A890005FE0B5225F
:10163800012290005FE522F0E52270030216C8D36C
:10164800E522648094804006D2DEAF228073C3E531
:10165800226480948040030217E0D2DEAF22122772
:10166800FA12275CD29522900060E0B52201229000
:101678000060E522F0E5227003FF805FD3E5226475
:101688008094804006D2DEAF228050C3E522648079
:10169800948040030217E0D2DE805E90005FE0B5E0
:1016A8002206A3E0B5220122AF22900060EFF0905D
:1016B800005FF0E5227010C2DEFF122742C292E4FA
:1016C800FF12275CC29522D3E522648094804011E2
:1016D800D2DEAF2212275CC295AF22122742C292F5
:1016E80022C3E5226480948040030217E0D2DEAF73
:1016F800221227FA12275CD295AF221227FA122754
:1017080042D2922290005BE0B522012290005BE574
:1017180022F0E5227004D2978061D3E52264809498
:10172800804004D2978074C3E5226480948040038B
:101738000217E0D297805490005CE0B52201229015
:10174800005CE522F0E5227004D2978067D3E52299
:10175800648094804004D297807AC3E522648094A0
:10176800805075D297805D90005DE0B5220122908F
:10177800005DE522F0E5227007C297C2A0D2A1223F
:10178800D3E522648094804007C297C2A0C2A122F8
:10179800C3E52264809480503FC297D2A0C2A122A0
:1017A80090005EE0B522012290005EE522F0E5227D
:1017B8007007C297C2A2D2A322D3E5226480948084
:1017C8004007C297C2A2C2A322C3E52264809480C4
:0917D8005006C297D2A2C2A3225E
:09211500900044E0F404FD7F1E7B
:10211E008D40D3E540648094E44005754064800CA6
:10212E00C3E5406480941C500375409CEF24E1602D
:10213E00461460742402600302221B90005FE0B517
:10214E0040012290005FE540F0E5407002807ED3B2
:10215E00E540648094804006D2DEAF408070C3E5D7
:10216E004064809480400302221BD2DEAF401227CF
:10217E00FA12275CD29522900060E0B540012290C1
:10218E000060E540F0E5407003FF805CD3E54064FD
:10219E008094804006D2DEAF40804DC3E54064801F
:1021AE0094805069D2DE805B90005FE0B54006A35C
:1021BE00E0B5400122AF40900060EFF090005FF07C
:1021CE00E5407010C2DEFF122742C292E4FF1227D2
:1021DE005CC29522D3E540648094804011D2DEAF7C
:1021EE004012275CC295AF40122742C29222C3E52D
:1021FE0040648094805016D2DEAF401227FA122728
:0E220E005CD295AF401227FA122742D29222DC
:102572008F1E900062E0651E6031E51EB4470C7D3F
:102582009C7F211215E830B30C80FB7D647F211201
:1025920015E820B4FD7D0B7F147E00122510E4FDAA
:0C25A2007F211215E8900062E51EF02277
:102000008F1F900064E0651F7003022114E51F24F8
:10201000CD601F1460591470030220AD14700302C8
:1020200020F1240460030221071215E420B5FD020B
:1020300020FB900064E024CC601A14602014602619
:10204000240460030221077D9C7F221215E8900082
:102050006F0220EA1215E49000710220EA1215E4E2
:1020600090007B0220EA1215E490007F0220EA90A3
:102070000064E024CD601A24FE602214602724044A
:1020800060030221077D9C7F221215E89000778073
:10209000597D9C7F221215E8900071804D1215E445
:1020A00090007380451215E4900079803D900064A3
:1020B000E024CD601714602024FE602824047047BB
:1020C0007D9C7F221215E890007D801E7D9C7F22E2
:1020D0001215E890007B80127D9C7F221215E890FB
:1020E000007380061215E4900075E0FEA3E0FF8007
:1020F000117D9C7F221215E820B6FD90006EE0FF56
:102100007E007D0B122510E4FD7F221215E8900061
:0521100064E51FF02250
:101DA0008F57900063E065577003021EE3E55724E8
:101DB000C4B409004003021ED6901DC775F003A4E9
:101DC000C58325F0C58373021DE2021DF1021E0BBF
:101DD000021E29021E46021E63021E80021E9D0272
:101DE0001EBD7D647F231215E8C29620A4FD021E4D
:101DF000C9900063E0FFE557D39F40057D9C021E1C
:101E0000B37F3E121DA07D64021EB3900063E0FF0D
:101E1000E557C39F50047D6480027D9C7F2312158B
:101E2000E8C29620A5FD021EC9900063E0FFE557B9
:101E3000D39F40097F3E121DA07D9C80077F4012EA
:101E40001DA07D64806D900063E0FFE557C39F5047
:101E5000047D6480027D9C7F231215E8C29620A633
:101E6000FD8066900063E0FFE557D39F40097F4007
:101E7000121DA07D9C80077F42121DA07D648033CF
:101E8000900063E0FFE557C39F50047D6480027DAE
:101E90009C7F231215E8C29620A7FD802C9000633A
:101EA000E0FFE557D39F40097F42121DA07D9C8033
:101EB000027D647F231215E890006C800F7D9C7F6B
:101EC000231215E8D29620A4FD90006AE0FEA3E05C
:101ED000FF7D0B122510E4FD7F231215E8900063AF
:041EE000E557F022B0
:101C48008F58900065E0FF65587003021D9FD2967B
:101C5800E55824D76058147003021CFE1470030260
:101C68001D4524036003021D92EF24D660201460F2
:101C78002D24026003021D927D9C7F241215E81218
:101C8800250A20A5FD30A5FD20A5FD021D857D6442
:101C98007F241215E812250A20A5FD021D857D9CCA
:101CA8007F241215E812250A20A5FD021D85900043
:101CB80065E024D6602014602D24036003021D9281
:101CC8007D647F241215E812250A20A5FD30A5FDA4
:101CD80020A5FD021D857D9C7F241215E812250A8A
:101CE80020A5FD021D857D647F241215E812250AB2
:101CF80020A5FD021D85900065E024D7601B24FE09
:101D0800602624036003021D927D9C7F241215E83F
:101D180012250A20A5FD021D857D647F241215E881
:101D280012250A20A5FD80557D9C7F241215E812F6
:101D3800250A20A5FD30A5FD20A5FD804090006561
:101D4800E024D760161460222402703E7D647F244C
:101D58001215E812250A20A5FD80227D9C7F2412F9
:101D680015E812250A20A5FD80137D647F2412152D
:101D7800E812250A20A5FD30A5FD20A5FD900081CB
:101D8800E0FEA3E0FF7D0B122510E4FD7F24121571
:081D9800E8900065E558F02217
:10268F00A905E924D8600A14600924FE60050480B6
:10269F00028000E924D8600A14600824FE60040454
:0426AF00222222229F
:1022E70020872B20862830842530832220811F20B9
:1022F700801C3085032082062085132082107D0BE9
:102307007F0A7E00122510E4FD7F200215E8208653
:102317000330870B7D107F1E1215E87DF080562055
:10232700810330800B7DF07F1E1215E87D108045FC
:1023370020840B7DF47F1E1215E87D0C80372083E7
:102347000B7D0C7F1E1215E87DF480293082112049
:10235700850E7DF87F1E1215E87D087F1F1215E890
:102367002085030222E73082030222E77D087F1ED1
:0D2377001215E87DF87F1F1215E80222E71D
:100D0200900040E0FBA3E0FAA3E0F912051D24A63F
:100D1200603E147003020FBA147003020EE8245DE1
:100D22006003021174E4FD7F2012211E90004674BC
:100D320002F07E007F407D007B017A00790012077D
:100D4200859000407401F0A37400F0A37400F022B7
:100D5200900040E0FBA3E0FAA3E0F9900001120545
:100D6200367003020ED720870330801F30861C3076
:100D72008519308416A2828283501030810D900032
:100D8200477401F0900043E0020EE2900047E0B4A5
:100D920001167402F0900040E0FBA3E0FAA3E0F930
:100DA20090000174FF020563900043E0F53FF53EB9
:100DB20030872C208029AC3EE412012EE4FBFAF9A4
:100DC200783F12001E1201628F3EAC3FE412012EE8
:100DD200E4FBFA79C0783F12001E1201628F3F30A5
:100DE200802C208729AC3EE412012EE4FBFA79C064
:100DF200783F12001E1201628F3EAC3FE412012EB8
:100E0200E4FBFAF9783F12001E1201628F3F30862E
:100E12002E20812BAC3EE412012E7433FBFAF978BA
:100E22003F12001E1201628F3EAC3FE412012E7B84
:100E3200667A6679A6783F12001E1201628F3F30F1
:100E4200812E20862BAC3EE412012E7B667A6679D7
:100E5200A6783F12001E1201628F3EAC3FE41201DF
:100E62002E7433FBFAF9783F12001E1201628F3F93
:100E720030852E20822BAC3EE412012E7466FBFAE2
:100E8200F9783F12001E1201628F3EAC3FE412015C
:100E92002E7BCD7ACC798C783F12001E1201628FA4
:100EA2003F30822E20852BAC3EE412012E7BCD7A80
:100EB200CC798C783F12001E1201628F3EAC3FE467
:100EC20012012E7466FBFAF9783F12001E120162BB
:100ED2008F3F021166900041E475F00212060FE4A2
:100EE200FD7F20021171E510147003020F8A147045
:100EF20003020FAC24026003021174900040E0FB75
:100F0200A3E0FAA3E0F990000112053624B0601DB7
:100F120024FE60461460282402706A900044E0FDBA
:100F22007F1E12211E900044E0F404800712211556
:100F3200900044E0FD7F1F12211E900083802B90C1
:100F42000044E0FD7F1E12211E900044E0F404FDE7
:100F52007F1F12211E9000858010122115900044DF
:100F6200E0FD7F1F12211E900085E0FEA3E0FFEF4F
:100F72002514FFEE3513FEE43512FDE43511FC9025
:100F82000048120712051022AF14AE13AD12AC11B5
:100F9200900048E0F8A3E0F9A3E0FAA3E0FBD31243
:100FA2000701400302117405102220840302117408
:100FB2002083030211748063E5101460420460030D
:100FC200021174900040E0FBA3E0FAA3E0F9900064
:100FD20001120536FF3395E0FE7C007D0A1205A85A
:100FE200EE3395E0FDFCEF2514FFEE3513FEED35F3
:100FF20012FDEC3511FC900048120712051022AFC9
:1010020014AE13AD12AC11900048E0F8A3E0F9A3BE
:10101200E0FAA3E0FBD3120701501FE4FD7F201288
:10102200211E900041E475F00212060F9000481252
:10103200071E00000000E4F51022900045E0F53F95
:10104200F53E30872C208029AC3EE412012EE4FBD1
:10105200FAF9783F12001E1201628F3EAC3FE41291
:10106200012EE4FBFA79C0783F12001E1201628F52
:101072003F30802C208729AC3EE412012EE4FBFA9B
:1010820079C0783F12001E1201628F3EAC3FE4121B
:10109200012EE4FBFAF9783F12001E1201628F3F23
:1010A20030862E20812BAC3EE412012E7433FBFAE3
:1010B200F9783F12001E1201628F3EAC3FE412012A
:1010C2002E7B667A6679A6783F12001E1201628F25
:1010D2003F30812E20862BAC3EE412012E7B667AB5
:1010E2006679A6783F12001E1201628F3EAC3FE481
:1010F20012012E7433FBFAF9783F12001E120162BC
:101102008F3F30852E20822BAC3EE412012E746676
:10111200FBFAF9783F12001E1201628F3EAC3FE4E7
:1011220012012E7BCD7ACC798C783F12001E1201EF
:10113200628F3F30822E20852BAC3EE412012E7B43
:10114200CD7ACC798C783F12001E1201628F3EACB0
:101152003FE412012E7466FBFAF9783F12001E1268
:1011620001628F3FAD3F7F1F12211EAD3E7F1E12D7
:02117200211E3C
:011174002258
:021964008D15DF
:101966008F16E5167003021ADD20870330801E30BD
:10197600861B308518308415A2828283500F3081F1
:101986000C751901AD157F201215E880D5E519B43F
:101996000107751902151680C9AF158F188F1730F4
:1019A600872C208029AC18E412012EE4FBFAF97882
:1019B6003F12001E1201628F18AC17E412012EE4CA
:1019C600FBFA79C0783F12001E1201628F17308031
:1019D6002C208729AC18E412012EE4FBFA79C07892
:1019E6003F12001E1201628F18AC17E412012EE49A
:1019F600FBFAF9783F12001E1201628F1730862E0D
:101A060020812BAC18E412012E7433FBFAF9783FCF
:101A160012001E1201628F18AC17E412012E7B66AB
:101A26007A6679A6783F12001E1201628F173081FE
:101A36002E20862BAC18E412012E7B667A6679A6D8
:101A4600783F12001E1201628F18AC17E412012EA5
:101A56007433FBFAF9783F12001E1201628F1730B9
:101A6600852E20822BAC18E412012E7466FBFAF93F
:101A7600783F12001E1201628F18AC17E412012E75
:101A86007BCD7ACC798C783F12001E1201628F17BB
:101A960030822E20852BAC18E412012E7BCD7ACC19
:101AA600798C783F12001E1201628F18AC17E4126F
:101AB600012E7466FBFAF9783F12001E1201628F3E
:101AC60017AD177F1F1215E8AD187F1E1215E87D9A
:0E1AD6000B12250C0219687D287F410217E1D2
:102493008D59EF24B0601924FE6041146028240292
:1024A3007058AD597F1E1215E8E559F404FD800CF0
:1024B300E559F404FD7F1E1215E8AD597F1F12156F
:1024C300E8900083802AAD597F1E1215E8E559F480
:1024D30004FD7F1F1215E89000858014E559F4046C
:1024E300FD7F1E1215E8AD597F1F1215E890008578
:1024F300E0FEA3E0FF7D0B1225103084FD3083FA4C
:07250300E4FD7F200215E852
:0217E1008D5425
:1017E300EF75F00AA4FFEF2514FFE5F03513FEE4CF
:1017F3003512FDE43511FC900048120712AF14AE08
:1018030013AD12AC11900048E0F8A3E0F9A3E0FA9D
:10181300A3E0FBD3120701500302195DAF548F56A7
:101823008F5530872C208029AC56E412012EE4FB1F
:10183300FAF9783F12001E1201628F56AC55E4127A
:10184300012EE4FBFA79C0783F12001E1201628F69
:101853005530802C208729AC56E412012EE4FBFA84
:1018630079C0783F12001E1201628F56AC55E41204
:10187300012EE4FBFAF9783F12001E1201628F5524
:1018830030862E20812BAC56E412012E7433FBFAE2
:10189300F9783F12001E1201628F56AC55E4120113
:1018A3002E7B667A6679A6783F12001E1201628F3C
:1018B3005530812E20862BAC56E412012E7B667A9E
:1018C3006679A6783F12001E1201628F56AC55E46A
:1018D30012012E7433FBFAF9783F12001E120162D3
:1018E3008F5530852E20822BAC56E412012E746660
:1018F300FBFAF9783F12001E1201628F56AC55E4D1
:1019030012012E7BCD7ACC798C783F12001E120106
:10191300628F5530822E20852BAC56E412012E7B2C
:10192300CD7ACC798C783F12001E1201628F56ACAF
:1019330055E412012E7466FBFAF9783F12001E1269
:1019430001628F55AD557F1F1215E8AD567F1E12EC
:1019530015E87D0B12250C021800E4FD7F2002150B
:01196300E89B
:0D000E00E4F5C7F5C5F5C675C380F5C4223D
:1026B30075C78375C5018FC48EC375C65A75C6A504
:0E26C3007D0A7F0A7E00122510AFC212000EA3
:0126D10022E6
:1026D20075C78375C5028FC48EC38DC275C65A7500
:0E26E200C6A57D0A7F0A7E0012251002000E9A
:1026F00075C78375C5038FC48EC375C65A75C6A5C5
:0C2700007D0A7F0A7E0012251002000EE8
:101AE4007F321220007F3612200085141D85131CBE
:101AF40085121B85111A7F321220007F36122000B6
:101B0400C3E514951DF51DE513951CF51CE512950B
:101B14001BF51BE511951AF51AAF1DAE1CAD1BFC88
:101B2400E4120124E4FBFAF9783F12001E12016268
:101B34008F1D8E1C8D1B8C1AE4120124E4FBFAF910
:101B4400783F12001E120162900079EEF0A3EFF0CC
:101B5400900077EEF0A3EFF0AF1DAE1CAD1BAC1AF6
:101B6400E4120124E4FBFA7940783F12001E1201CA
:101B74006290007DEEF0A3EFF0AF1DAE1CAD1BAC88
:101B84001AE41201247B4E7A627910783F12001E07
:101B940012016290007FEEF0A3EFF0AF1DAE1CAD1A
:101BA4001BAC1AE41201247B7B7A1479AE783E12C2
:101BB400001E12016290006FEEF0A3EFF0AF1DAEB5
:101BC4001CAD1BAC1AE41201247B8C7A4A798A7806
:101BD4003E12001E120162900075EEF0A3EFF0AF0A
:101BE4001DAE1CAD1BAC1AE41201247B377A897933
:101BF40041783E12001E120162900071EEF0A3EFD4
:101C0400F0AF1DAE1CAD1BAC1AE41201247BCD7ADF
:101C1400CC794C783E12001E120162900073EEF0F3
:101C2400A3EFF0AF1DAE1CAD1BAC1AE4120124E40B
:101C3400FBFAF9783F12001E12016290007BEEF06D
:031C4400A3EFF01B
:011C4700227A
:1027BA00438780759850438E04759CCF438E01439E
:0527CA008E10D29922DF
:101EE4007F4612257212250A7F4712257212250A8F
:101EF4007F4612257212250A7F4712257212250A7F
:101F04009000647436F07F3212200012250A7F3666
:101F140012200012250A7F3212200012250A7F3671
:101F240012200012250A7F3C121DA012250A7F3EB2
:101F3400121DA012250A7F40121DA012250A7F42FD
:101F4400121DA012250A7F44121DA012250A7F42E9
:101F5400121DA012250A7F40121DA012250A7F3EE1
:101F6400121DA012250A7F3C121DA0900065E0906E
:101F74000058F09000657428F07F2B121C4812253D
:101F84000A7F28121C4812250A7F2B121C4812258E
:101F94000A7F28121C4812250A900058E090006518
:101FA400F07D3C7F201215E812250AE4FD7F201203
:101FB40015E812250A7DC47F201215E812250AE4CB
:101FC400FD7F201215E812250A7D287F1F1215E8CF
:101FD4007DD87F1E1215E812250AE4FD7F20121514
:101FE400E812250A7DD87F1F1215E87D287F1E126E
:0C1FF40015E812250AE4FD7F200215E824
:0225AE008F415B
:1025B000755100755200755342AB510553E553AA4E
:1025C000527002055214F912051DFEEEC39F50020F
:1025D000AF06AB510553E553AA527002055214F9E8
:0725E00012051DFEBEFFE421
:0125E70022D1
:0100070022D6
:0807B1008F258E248D238C227C
:1007B9007E007F287D007B017A0079941207857E6F
:1007C900007F287D007B017A0079BC1207857E00B5
:1007D9007F087D007B017A0079E41207857B807AA6
:1007E9009679987800AF25AE24AD23AC2212066124
:1007F900E47B0AFAF9F8120661900095EBF07B4068
:100809007A42790F7800AF25AE24AD23AC221206C7
:1008190061E47B0AFAF9F8120661900096EBF07B25
:10082900A07A8679017800AF25AE24AD23AC2212D7
:100839000661E47B0AFAF9F8120661900097EBF079
:10084900E47B107A27F9F8AF25AE24AD23AC221248
:100859000661E47B0AFAF9F8120661900098EBF058
:10086900E47BE87A03F9F8AF25AE24AD23AC221274
:100879000661E47B0AFAF9F81206619000A9EBF027
:10088900E47B64FAF9F8AF25AE24AD23AC22120655
:1008990061E47B0AFAF9F81206619000AAEBF0E428
:1008A9007B0AFAF9F8AF25AE24AD23AC2212066112
:1008B900E47B0AFAF9F81206619000ABEBF0E47BED
:1008C9000AFAF9F8AF25AE24AD23AC2212066190DD
:1008D90000ACEBF07B807A9679987800AF29AE2846
:1008E900AD27AC26120661E47B0AFAF9F812066113
:1008F9009000A4EBF07B407A42790F7800AF29AEE3
:1009090028AD27AC26120661E47B0AFAF9F812062B
:10091900619000A5EBF07BA07A8679017800AF2978
:10092900AE28AD27AC26120661E47B0AFAF9F81263
:1009390006619000A6EBF0E47B107A27F9F8AF295D
:10094900AE28AD27AC26120661E47B0AFAF9F81243
:1009590006619000A7EBF0E47BE87A03F9F8AF2988
:10096900AE28AD27AC26120661E47B0AFAF9F81223
:1009790006619000B8EBF0E47B64FAF9F8AF29AEB0
:1009890028AD27AC26120661E47B0AFAF9F81206AB
:10099900619000B9EBF0E47B0AFAF9F8AF29AE28C7
:1009A900AD27AC26120661E47B0AFAF9F812066152
:1009B9009000BAEBF0E47B0AFAF9F8AF29AE28AD5A
:1009C90027AC261206619000BBEBF09000CC7401B5
:1009D900F0A304F0A304F0A304F09000E004F0A352
:1009E90004F0A304F0A304F09000EC7401F090006B
:1009F900ECE0FFD394044003020CF374942FF582C6
:100A0900E43400F583E0FF9000A4E0FEEFB506258D
:100A19009000ECE0FF2494F582E43400F583E06073
:100A2900149000CCE0FE74BC2FF582E43400F58309
:100A3900EEF0020B7E9000ECE0FF2494F582E434A2
:100A490000F583E0FE9000A5E0FDEEB50513749472
:100A59002FF582E43400F583E060069000CD020BA7
:100A69006D9000ECE0FF2494F582E43400F583E016
:100A7900FE9000A6E0FDEEB5051374942FF582E40F
:100A89003400F583E060069000CE020B6D9000EC17
:100A9900E0FF2494F582E43400F583E0FE9000A79A
:100AA900E0FDEEB5051374942FF582E43400F58367
:100AB900E060069000CF020B6D9000ECE0FF2494FB
:100AC900F582E43400F583E0FE9000B8E0FDEEB570
:100AD900051374942FF582E43400F583E0600690E1
:100AE90000E0020B6D9000ECE0FF2494F582E43401
:100AF90000F583E0FE9000B9E0FDEEB505127494AF
:100B09002FF582E43400F583E060059000E180541C
:100B19009000ECE0FF2494F582E43400F583E0FED4
:100B29009000BAE0FDEEB5051274942FF582E43415
:100B390000F583E060059000E280299000ECE0FF79
:100B49002494F582E43400F583E0FE9000BBE0FDD7
:100B5900EEB5052174942FF582E43400F583E06045
:100B6900149000E3E0FF9000ECE024BCF582E4344B
:100B790000F583EFF09000ECE0FF24A8F582E4345F
:100B890000F583E0FE9000A4E0FDEEB5051374A81E
:100B99002FF582E43400F583E060069000CC020C66
:100BA900D99000ECE0FF24A8F582E43400F583E055
:100BB900FE9000A5E0FDEEB5051374A82FF582E4BB
:100BC9003400F583E060069000CD020CD99000EC6A
:100BD900E0FF24A8F582E43400F583E0FE9000A646
:100BE900E0FDEEB5051374A82FF582E43400F58312
:100BF900E060069000CE020CD99000ECE0FF24A83A
:100C0900F582E43400F583E0FE9000A7E0FDEEB53F
:100C1900051374A82FF582E43400F583E06006908B
:100C290000CF020CD99000ECE0FF24A8F582E4344F
:100C390000F583E0FE9000B8E0FDEEB5051374A859
:100C49002FF582E43400F583E060069000E0020CA1
:100C5900D99000ECE0FF24A8F582E43400F583E0A4
:100C6900FE9000B9E0FDEEB5051274A82FF582E4F7
:100C79003400F583E060059000E180549000ECE0D9
:100C8900FF24A8F582E43400F583E0FE9000BAE081
:100C9900FDEEB5051274A82FF582E43400F583E062
:100CA90060059000E280299000ECE0FF24A8F5821D
:100CB900E43400F583E0FE9000BBE0FDEEB50521CC
:100CC90074A82FF582E43400F583E060149000E302
:100CD900E0FF9000ECE024D0F582E43400F583EFE6
:100CE900F09000ECE004F00209F77E007F287D0017
:090CF9007B017A00799402078561
:10241000EFB40800507C90241DF82828730224355E
:1024200002243E0224470224500224590224670257
:1024300024750224837F341220007F2A804C7F344D
:102440001220007F2A80357F341220007F2A801ED0
:102450007F341220007F2A80077F341220007F2BD8
:10246000121C487F3280287F341220007F2B121CE0
:10247000487F33801A7F341220007F2B121C487F44
:1024800035800C7F341220007F2B121C487F3612BF
:0324900020002207
:1027CF007D467F021219647D287F501224937D2845
:0527DF007F01021964F6
:102617007DEC7F201215E812250A7DCE7F2012154A
:10262700E812250A7DCE7F1F1215E87DEC7F1E126A
:0B26370015E87D0C7F017E00022510DD
:10001E00EC4D6011E8497017ED33EC3304600DE4DC
:10002E00FCFFFEFD22E933E8330470F80201CE1224
:10003E00019958046009E4CC248150062850090225
:10004E0001D82840030201D5C0E0EB4A7044B980C4
:10005E0006D0E0FB0201C4EF4E701CBD8008EBFF22
:10006E00EAFEE9FD80EBE98DF0A4FEE5F002010762
:10007E00E9CDF9EAFEEBFFEF89F0A4FCE5F0CE89BD
:10008E00F0A42EFFE435F0CD89F0A42DFEE435F07A
:10009E008067EF4E7005BD80D780C3EF8BF0A4ACA8
:1000AE00F0EE8BF0A42CFCE435F0F8EF8AF0A42CE3
:1000BE00E5F038FCE433CB8DF0A42CFCE5F03BF8F6
:1000CE00EE8AF0A42CFCE5F038F8E433CF89F0A4E6
:1000DE002CFCE5F038CF3400CE89F0A42FFFE5F0EC
:1000EE003EFEE433C98DF0A42EFEE5F039CD8AF044
:1000FE00A42FFFE5F03EFEE43DFD33D0E0FB5007BC
:10010E000BBB000F0201D8EC2CFCEF33FFEE33FEDD
:06011E00ED33FD0201B00B
:1001240075F020800E75F010800575F0087D007E56
:10013400007F003392D530D5031206F3EC33401020
:10014400EF33FFEE33FEED33FDEC33FCD5F0ED225F
:0E015400E5F0247EA2D513CC92E7CDCEFF229B
:10016200EDD2E7CD33EC3392D524814006E4FFFE95
:10017200FDFC22FCE4CFCECDCC24E0501174FF80F4
:10018200EDC3CC13CCCD13CDCE13CECF13CF047091
:07019200F030D5DE0206F398
:10117500E5392425F8E60539227822300702782555
:10118500E475F00112074F02051D2000EB7F2ED2FA
:10119500008018EF540F2490D43440D4FF30040B52
:1011A500EF24BFB41A0050032461FFE53A6002152D
:1011B5003A053DE53D7002053C30070D7822E475A2
:1011C500F00112074FEF0205960226427403D2077B
:1011D5008003E4C207F5398B228A238924E4F53A92
:1011E500F53CF53DE53A60077F201211B080F575B5
:1011F5003BFFC201C200C202C203C205C206C20849
:1012050012117EFF700D3007057F001211C1AF3D31
:10121500AE3C22B4255FC2D5C20412117EFF24D094
:10122500B40A00501A75F00A783A30D50508B6FFA9
:101235000106C6A426F620D5047002D20380D9245F
:10124500CFB41A00EF5004C2E5D2040214AED201A5
:1012550080C6D20080C0D20280BCD2D580BAD20569
:1012650080B47F201211B02002077401B53A004006
:10127500F1121175FF1211B00211E9D208D20680E0
:1012850095121175FB121175FA121175F94A4B7009
:101295000679A57A157BFF20022EE53A602A7E00A5
:1012A5008E8275830012053660060EEE653B70F082
:1012B500C2D5EBC0E0EAC0E0E9C0E0EE12150ED001
:1012C500E0F9D0E0FAD0E0FB12051DFF60AAEBC003
:1012D500E0EAC0E0E9C0E01211B0D0E02401F9D0A5
:1012E500E03400FAD0E0FBE53B0460DCD53BD98077
:1012F50087D20280A21214F160F7E53B7001041257
:1013050001E3A93B600DE53B600914F53B12159817
:10131500EF60F3EA30E702F404C3995077EAF42565
:101325003B0430E701E404F53B800D1214F160C184
:10133500EA053B253B1201E3EA7838F630E701E49C
:10134500253B04D53B042005011412150EE4C0E02D
:101355001215987838E6601320E70714F6121198ED
:10136500802204F6D0E014C0E07F00121198E53B1E
:10137500600712118F153B800B30050312118FD0BA
:10138500E00211E9D0E00480C51214F160A0E53B4C
:10139500041201E37838EAF6E53B20050260010412
:0513A500240412150EE6
:1013AA0074FF04C0E0121598121198E53B2005025B
:1013BA00600312118FD0E0B53BE87F451211A27885
:1013CA0038E67F2B30E7047F2DF404C0E01211B019
:1013DA00D0E075F00A84C0F0121199D0E012119988
:1013EA000211E9791080027908C206C2088008D27F
:1013FA00D5790A8004790AC2D5E53B047002F53B27
:10140A00E4FAFDFEFF121175FC7B0820011312118C
:10141A0075FD7B1030000A121175FE121175FF7BE3
:10142A0020EC3382D592D55013C3E43000069FFFD7
:10143A00E49EFEE42001039DFDE49CFCE4CBF8C29B
:10144A0001EC700CCFCECDCCE824F8F870F38017FD
:10145A00C3EF33FFEE33FEED33FDEC33FCEB33FB2E
:10146A00994002FB0FD8E9EB300105F8D0E0C448F7
:10147A00B201C0E00AEC4D4E4F78207B0070C2EA00
:10148A00B53B0040BCC0E0121510D0F0D0E02001FE
:10149A0004C4C0E0C4B201C0F0121199D0F0D5F072
:1014AA00EB0211E912075F12865313ED5812574CDB
:1014BA0012534213F14F13F94413F949126C4313AF
:1014CA00FF55133046138E4512FA4715C550125B65
:1014DA002D125F2E12822B12632312802015AE2A40
:1014EA00121B480000127AE53BB4FF03753B061253
:1014FA001175FC121175FD121175FE121175FF7826
:10150A0031020212790AA2D5200314300509B91052
:10151A00020404B9080104A2D520060250010420DD
:10152A0002689202B53A005034C0E07F20300319B5
:10153A007F30A20272067205500F121567C202C2EC
:10154A0006C205C2087F30800F300503E9C0E012E9
:10155A0011B0300503D0E0F9D0E0B53ACC30051728
:10156A007F30B9100C1211B07F583004077F788091
:10157A0003B908031211B03002057F2D0211B07FA2
:10158A00202008F87F2B2006F322920280CF7F00CA
:10159A00B4070050052431F8E6FF22286E756C6CFA
:1015AA002900D2011211753001F8C201783A30D5FA
:1015BA000108F602121B2D504349581211752403D3
:1015CA00B405004001E49015C0931211A1743A12B7
:0A15DA0011A1D203753A040213EDCB
:10019900E9D2E7C933E833F892D5EDD2E7CD33ECAC
:0701A90033FC5002B2D52225
:1001B000EC30E7100FBF000C0EBE00080DBD0004B0
:1001C0000BEB6014A2D5EB13FCED92E7FD2274FF5C
:1001D000FCFDFEFF22E480F8A2D574FF13FC7D80B5
:0301E000E480EFC9
:1001E300F920E72824F950037907E4F42402FB18E3
:1001F300DBFDE624FB5014E9600DE4F618E604F693
:0F020300B40A08E4F6D9F57401F60A22C2D5222E
:10021200ED33EC3392D5FA602AB4FF33EDC2E77BBB
:10022200FF60067A027937E4227A02794020D50407
:100232007A02793B224E614E002B494E46002D49EF
:100242004E4600E47A08F608DAFC7B00740722E8DE
:10025200C0E0ECC0E0EDC0E0EEC0E0EFC0E0EA7567
:10026200F010A4CAABF075F04DA42BFBE435F0FC02
:10027200EA2410FAEB34C5FBEC34D9FCEDC2E7FFFB
:1002820075F056A4F42411C5F0F434C58FF0A42AF5
:10029200E5F03BE43CF620E7141204DDD0E0FFD0A9
:1002A200E0FED0E0FDD0E0FC1204108014F4041251
:1002B20004DDD0E0FFD0E0FED0E0FDD0E0FC120093
:1002C2001ED0E0F8E6FAEDD2E7CD33EC332482FB20
:1002D200E4C3CF33CFCE33CECD33CD33DBF37B0785
:1002E20075F00A846004F6081B0AE5F0F6088FF040
:1002F200740AA4FFACF08EF0740AA42CFEACF05089
:10030200010C8DF0740AA42CFDE435F0F608DBDE56
:030312007407224B
:100315000201CEE86480F8E933E83360110460F047
:10032500ED33EC337009E8FCE9FDEAFEEBFF22044E
:1003350060DED3EB9FEA9EE99DE8C2E78CF0C2F749
:1003450095F0400CE8CCF8E9CDF9EACEFAEBCFFB15
:1003550012019985D0F05804700320D5B3E80470D4
:10036500075002B2D50201D892D5EC0460F7E4CC6F
:10037500C0E0C398F8603B94186008400DD0E0FBDE
:100385000201B0E4FBFAC9FC8028E830E406E4C9C0
:10039500FBE4CAFCE830E305E4C9CACBFCE8540732
:1003A5006010F8C3E913F9EA13FAEB13FBEC13FC3D
:1003B500D8F130F52FC3E49CFCEF9BFFEE9AFEEDE0
:1003C50099FDD0E0FBEF4E4D4C701222DB0302018C
:1003D500D5EC2CFCEF33FFEE33FEED33FDED30E7CE
:1003E500EB0201B0EF2BFFEE3AFEED39FDD0E0FB5D
:1003F50050130BBB00030201D8ED13FDEE13FEEF06
:0804050013FFEC13FC0201B02F
:10040D000201D8EC5D046005E8590470030201CEC9
:10041D00120199580460F6EC4860F2EC7004FDFE90
:10042D00FF22C860DB2481C85009C39860025006C2
:10043D000201D59850CAF582E9294B4A7005AB8265
:10044D000201C475F0007C1A7880C3EF9BEE9AED23
:10045D0099400DC3EF9BFFEE9AFEED99FDE842F03A
:10046D00DC23ACF0D0E0FFD0E0FED0E0FDAB82208D
:10047D00E7101BEB60BAEC2CFCEF33FFEE33FEED17
:10048D0033FD0201B0E803F830E705C0F075F00068
:10049D00EF2FFFEE33FEED33FD40B830E7C280AAFB
:1004AD003F8000004120000042C80000447A000057
:1004BD00461C400047C35000497424004B189680D9
:1004CD004CBEBC205A0E1BCA6753C21C749DC5AED0
:1004DD00FB60065407601C232312050BEB54386098
:1004ED00091204F712050612001EECF8EDF9EEFAEA
:1004FD00EFCB22EB12050680F1543803241C900437
:10050D00ADFE93FC0EEE93FD0EEE930ECE93FF22F9
:1023900002221CE493A3F8E493A34003F68001F225
:1023A00008DFF48029E493A3F85407240CC8C3334E
:1023B000C4540F4420C8834004F456800146F6DF1D
:1023C000E4800B01020408102040809025E8E47EA0
:1023D000019360BCA3FF543F30E509541FFEE49312
:1023E000A360010ECF54C025E060A840B8E493A3D9
:1023F000FAE493A3F8E493A3C8C582C8CAC583CA04
:10240000F0A3C8C582C8CAC583CADFE9DEE780BEBB
:0126160000C3
:10051D00BB010689828A83E0225002E722BBFE02DC
:09052D00E32289828A83E493220F
:10053600BB010CE58229F582E5833AF583E022507A
:1005460006E92582F8E622BBFE06E92582F8E222C4
:0D055600E58229F582E5833AF583E49322DE
:10056300BB010FF8E58229F582E5833AF583E0289C
:10057300F0225009C58229F8E58226F622BBFE093E
:10058300C58229F8E22582F222F8EA2583F583E978
:0305930093282288
:10059600BB010689828A83F0225002F722BBFE0144
:0205A600F3223E
:1005A800EF8DF0A4A8F0CF8CF0A428CE8DF0A42E67
:0205B800FE2221
:1005BA00BC000BBE0029EF8DF084FFADF022E4CC25
:1005CA00F875F008EF2FFFEE33FEEC33FCEE9DECEE
:1005DA00984005FCEE9DFE0FD5F0E9E4CEFD22ED34
:1005EA00F8F5F0EE8420D21CFEADF075F008EF2F7E
:1005FA00FFED33FD4007985006D5F0F222C398FD6F
:05060A000FD5F0EA220B
:10060F00C5F0F8A3E028F0C5F0F8E5821582700276
:06061F001583E038F02213
:1006250075F008758200EF2FFFEE33FECD33CDCC8C
:1006350033CCC58233C5829BED9AEC99E58298400F
:100645000CF582EE9BFEED9AFDEC99FC0FD5F0D6EC
:10065500E4CEFBE4CDFAE4CCF9A88222B800C1B916
:100665000059BA002DEC8BF084CFCECDFCE5F0CB54
:10067500F97818EF2FFFEE33FEED33FDEC33FCEB8D
:1006850033FB10D703994004EB99FB0FD8E5E4F948
:10069500FA227818EF2FFFEE33FEED33FDEC33FC35
:1006A500C933C910D7059BE99A4007EC9BFCE99A29
:1006B500F90FD8E0E4C9FAE4CCFB2275F010EF2F6E
:1006C500FFEE33FEED33FDCC33CCC833C810D7076E
:1006D5009BEC9AE899400AED9BFDEC9AFCE899F8A9
:0E06E5000FD5F0DAE4CDFBE4CCFAE4C8F9223C
:0E06F300C3E49FFFE49EFEE49DFDE49CFC2218
:10070100EB9FF5F0EA9E42F0E99D42F0E89C45F04E
:0107110022C5
:0C071200ECF0A3EDF0A3EEF0A3EFF0225A
:10071E00A8828583F0D083D0821207351207351256
:10072E000735120735E473E493A3C583C5F0C5837B
:10073E00C8C582C8F0A3C583C5F0C583C8C582C825
:01074E002288
:10074F00FAE6FB0808E6F925F0F618E6CA3AF622AB
:10075F00D083D082F8E4937012740193700DA3A329
:10076F0093F8740193F5828883E47374029368603D
:06077F00EFA3A3A380DF3D
:10264200EFB40A07740D12264D740A309811A89936
:10265200B8130CC2983098FDA899C298B811F630F8
:0726620099FDC299F59922D0
:0827FA00EF30E703F404FF22B5
:10078500EF4E6012EF60010EEDBB010B89828A838B
:10079500F0A3DFFCDEFA2289F05007F709DFFCA998
:0C07A500F022BBFEFCF309DFFCA9F022EF
:00000001FF
