:03000000020BD020
:0C0BD000787FE4F6D8FD758120020C1738
:100DC500120DF7E4900007F0A3F0A3F0A3F0A3F051
:100DD500A3F0A304F07F03120CE57F04120CE57F5A
:100DE50005120CE57F06120CE57F02120CE5C2AF79
:020DF50080FE7E
:100E99005A000E01F4012C025803E8029A02AC022E
:0D0EA900AC029A051E051E05C8084A084A3D
:060C5C007F197D017E00FE
:100C6200ED14601A14604424027077EF1FAC067012
:100C7200011ED39400EC94004068000080EDEF1F49
:0D0C8200AC0670011ED39400EC94004055A8
:100C8F000000900037740CF0A374A8F0900038E0C7
:0C0C9F0014F070F8900037E014F070F0D2
:100CAB0080D3EF1FAC0670011ED39400EC94004070
:010CBB002810
:100CBC00900037742EF0A37499F0A374F5F09000A3
:100CCC0039E014F070F8900038E014F070F09000F7
:060CDC0037E014F070E89F
:020CE20080C9C7
:010CE40022ED
:100EE700538E7F5389F0438901758AB0758C3CC254
:020EF7008D224A
:100EF900538EBF53890F438910758BE0758DB1C22D
:020F09008F2235
:080F2F00758AB0758C3C0022AC
:080F3700758BE0758DB10022FD
:100ED30020B2FD7F14120C5E30B2FD7D017F007ED7
:040EE30001020C629A
:0D0F0B00EF7003C29622EFB40102D29622CD
:100DF700E4F5977593FFF594F5917592FC7595F069
:100E070075960FD2A1D2A3C297120F25120EE71221
:070E17000EF9D2B2020ED366
:0A0F2500E4F5D8F5F9F5E9F5D92255
:100E5D00AC07E4120540E4FBFA7920784012043027
:0E0E6D001205748FEA8FFA75DA42E4F5F2226C
:100E7B00AC07E4120540E4FBFA7920784012043009
:0E0E8B001205748FEB8FFB75DB42E4F5F3224A
:070A71001208957D647F056A
:100A780090003AEDF070012290003AE0FED36480D5
:100A880094E440057464F0800EC3EE6480941C50B6
:100A98000690003A749CF0EFB407004003020BCFB5
:100AA800900AAFF8282873020AC4020AF0020B1150
:100AB800020B54020B73020B92020BB1D2DE9000B0
:100AC8003AE0FFD3648094804006120E7BC29522E0
:100AD80090003AE0FFC3648094804003020BCF1279
:100AE8000F3F120E7BD29522D2DE90003AE0FFD360
:100AF800648094804002802990003AE0FFC36480BB
:100B080094804003020BCF803AD2DE90003AE0FF97
:100B1800D3648094804010120E7BC29590003AE016
:100B2800FF120E5DC2922290003AE0FFC3648094E7
:100B3800804003020BCF120F3F120E7BD29590001C
:100B48003AE0FF120F3F120E5DD29222D297900028
:100B58003AE0FFD3648094804004D2A0800AC3EFB7
:100B6800648094805002C2A0C2A122D29790003A19
:100B7800E0FFD3648094804004D2A2800AC3EF646B
:100B88008094805002C2A2C2A322C29790003AE089
:100B9800FFD3648094804004C2A0800AC3EF6480BD
:100BA80094805002D2A0C2A122C29790003AE0FFDE
:100BB800D3648094804004C2A2800AC3EF64809406
:080BC800805002D2A2C2A32258
:100CE500EFB40700504C900CF2F8282873020D075A
:100CF500020D09020D11020D22020D26020D2A0216
:100D05000D318011E4FF120E5DC29222C2DEE4FFB6
:100D1500120E5DC292E4FF120E7BC29522D297801D
:100D250006D2978009C297C2A0D2A122C297C2A2B9
:030D3500D2A32224
:100D810090003BEFF0BF01187D9C7F03120A782091
:100D9100B3FD7D017F147E00120C6220B3EA801640
:100DA1007D647F03120A7820B4FD7D017F147E00EB
:100DB100120C6220B4EA7F03120CE590003BE09034
:040DC100000AF02212
:1008950090003CEFF090000BE06F7003020A70903F
:1008A500003CE0B409004003020A639008B7F82849
:1008B50028730208D20208F502091A020952020930
:1008C5007B0209B30209DB020A12020A3F120A740B
:1008D500E4FF120F0B7D017F327E00120C6220A413
:1008E500FD7D017F147E00120C6220A4F1020A63D3
:1008F50090000BE0FF90003CE0D39F400D7D9C7F76
:1009050005120A78900012020A2E7F02120A7190CF
:100915000014020A2E90000BE0FF90003CE0D39FEC
:1009250040047D9C80027D647F05120A78E4FF12F5
:100935000F0B7D017F327E00120C6220A5FD7D012B
:100945007F147E00120C6220A5F1020A6390000B51
:10095500E0FF90003CE0D39F40117F021208957D97
:100965009C7F05120A7890001280087F04120A7194
:10097500900014020A2E90000BE0FF90003CE0D39B
:100985009F40047D9C80027D647F05120A78E4FF08
:10099500120F0B7D017F327E00120C6220A6FD7DB9
:1009A500017F147E00120C6220A6F1020A639000FA
:1009B5000BE0FF90003CE0D39F40117F04120895A7
:1009C5007D9C7F05120A7890001280087F06120A26
:1009D50071900014805390000BE0FF90003CE0D331
:1009E5009F40047D9C80027D647F05120A78E4FFA8
:1009F500120F0B7D017F327E00120C6220A7FD7D58
:100A0500017F147E00120C6220A7F1805190000B2B
:100A1500E0FF90003CE0D39F401B7F061208957DC8
:100A25009C7F05120A78900012E0FEA3E0FF7D018D
:100A3500120C628029120A7480247D9C7F05120A9B
:100A4500787F01120F0B7D017F327E00120C622030
:100A5500A4FD7D017F147E00120C6220A4F17F05A8
:0C0A6500120CE590003CE090000BF02229
:100D380090003DEFF024FC601C2404702E7D647F3D
:100D480004120A7820B5FD7D017F147E00120C6222
:100D580020B5EA80167D9C7F04120A7820B6FD7DB6
:100D6800017F147E00120C6220B6EA7F04120CE5A3
:090D780090003DE090000CF02217
:10066E0090003EEFF014700302070D1470030207A2
:10067E008E14700302080F24036003020887900093
:10068E000DE024FE603B14605724026003020887CD
:10069E007D9C7F06120A787F01120F0B7D027E0071
:1006AE00120C6220A5FD120C5C20A5F730A5FD12E0
:1006BE000C5C30A5F720A5FD120C5C20A5F70208F6
:1006CE00877D647F06120A787F01120F0B7D027EF2
:1006DE0000120C6220A5FD120C5C20A5F702088703
:1006EE007D9C7F06120A787F01120F0B7D027E0021
:1006FE00120C6220A5FD120C5C20A5F70208879053
:10070E00000DE024FE603B146057240360030208D2
:10071E00877D647F06120A787F01120F0B7D027EA1
:10072E0000120C6220A5FD120C5C20A5F730A5FD71
:10073E00120C5C30A5F720A5FD120C5C20A5F7026B
:10074E0008877D9C7F06120A787F01120F0B7D02AF
:10075E007E00120C6220A5FD120C5C20A5F702088B
:10076E00877D647F06120A787F01120F0B7D027E51
:10077E0000120C6220A5FD120C5C20A5F702088762
:10078E0090000DE014602A24FE60452403600302ED
:10079E0008877D9C7F06120A787F01120F0B7D025F
:1007AE007E00120C6220A5FD120C5C20A5F702083B
:1007BE00877D647F06120A787F01120F0B7D027E01
:1007CE0000120C6220A5FD120C5C20A5F702088712
:1007DE007D9C7F06120A787F01120F0B7D027E0030
:1007EE00120C6220A5FD120C5C20A5F730A5FD129F
:1007FE000C5C30A5F720A5FD120C5C20A5F70208B5
:10080E008790000DE01460251460402402706A7D0C
:10081E00647F06120A787F01120F0B7D027E001292
:10082E000C6220A5FD120C5C20A5F7804C7D9C7FF0
:10083E0006120A787F01120F0B7D027E00120C62E7
:10084E0020A5FD120C5C20A5F7802E7D647F06127C
:10085E000A787F01120F0B7D027E00120C6220A51A
:10086E00FD120C5C20A5F730A5FD120C5C30A5F72F
:10087E0020A5FD120C5C20A5F77F06120CE590005A
:07088E003EE090000DF02296
:0F00030090002FEFF0900031EBF0900030EDF017
:10001200C200E4900034F0A3EDF0A3F0900032E4CB
:10002200F0A37402F0900030E0FD7C00C390003336
:10003200E09D900032E09C502390000EE0FEA3E091
:10004200FF1205F57D01120C62900032E475F00199
:1000520012064AADF07F02120A7880C9900030E0A1
:10006200900035F0A3F0308703208106308675308A
:100072008072D20090002FE0FF900034E0C39F50C6
:10008200030202C7900031E0640270267DECFF1289
:100092000A787D017FF47E01120C623084FD308388
:1000A200FAE4FD7F64FE120C623084EF3083EC02CE
:1000B20002C0900031E0640360030202C77DEC7F5E
:1000C20001120A787D017FF47E01120C623084FDF8
:1000D2003083FAE4FD7F64FE120C623084EF3083D9
:1000E200EC0202C02000030202C790002FE0FF9042
:1000F2000034E004F0C39F50030202C5900031E0D7
:1001020060030202C5A3F0A3F0900010E0FEA3E09A
:10011200FFC3900033E09F900032E09E4003020252
:10012200C0900030E0FCE41205407433FBFAF97829
:100132003F120430120574900035EFF0A3F03085C1
:1001420035900035E0FCE41205407466FBFAF9785C
:100152003F120430120574900035EFF0A3E0FCE486
:100162001205407BCD7ACC798C783F12043012058F
:1001720074900036EFF0308235900035E0FCE412E6
:1001820005407BCD7ACC798C783F1204301205740D
:10019200900035EFF0A3E0FCE41205407466FBFA30
:1001A200F9783F120430120574900036EFF0308671
:1001B20036900035E0FCE41205407BCD7ACC794CD8
:1001C200783F120430120574900035EFF0A3E0FC82
:1001D200E41205407B9A7A997999783F1204301299
:1001E2000574900036EFF0308136900035E0FCE483
:1001F2001205407B9A7A997999783F120430120558
:1002020074900035EFF0A3E0FCE41205407BCD7A58
:10021200CC794C783F120430120574900036EFF01E
:10022200308735900035E0FCE41205407433FBFA68
:10023200F9783F120430120574900035EFF0A3E014
:10024200FCE41205407B667A6679A6783F12043098
:10025200120574900036EFF0308035900035E0FCE6
:10026200E41205407B667A6679A6783F1204301262
:100272000574900035EFF0A3E0FCE41205407433FE
:10028200FBFAF9783F120430120574900036EFF051
:10029200900035E0FDE4FF120A78900036E0FD7F21
:1002A20001120A787D017F017E00120C62900033F8
:1002B200E004F07006900032E004F002010B7F02CD
:1002C200020CE5C200308535900035E0FCE41205F1
:1002D200407466FBFAF9783F1204301205749000FC
:1002E20035EFF0A3E0FCE41205407BCD7ACC798CAB
:1002F200783F120430120574900036EFF0308235E8
:10030200900035E0FCE41205407BCD7ACC798C7804
:100312003F120430120574900035EFF0A3E0FCE4C4
:100322001205407466FBFAF9783F12043012057424
:10033200900036EFF0308636900035E0FCE412058E
:10034200407BCD7ACC794C783F1204301205749000
:100352000035EFF0A3E0FCE41205407B9A7A99792C
:1003620099783F120430120574900036EFF0308114
:1003720036900035E0FCE41205407B9A7A9979992F
:10038200783F120430120574900035EFF0A3E0FCC0
:10039200E41205407BCD7ACC794C783F12043012BE
:1003A2000574900036EFF0308735900035E0FCE4BC
:1003B2001205407433FBFAF9783F120430120574C7
:1003C200900035EFF0A3E0FCE41205407B667A660C
:1003D20079A6783F120430120574900036EFF0309F
:1003E2008035900035E0FCE41205407B667A667940
:1003F200A6783F120430120574900035EFF0A3E0A6
:10040200FCE41205407433FBFAF9783F120430120F
:100412000574900036EFF0900035E0FDE4FF120A1B
:0E04220078900036E0FD7F01120A7802005E3D
:0D0F1800E4F5C7F5C5F5C675C380F5C42224
:100E3E0075C78375C5018FC4EEF5C375C65A75C6E1
:0E0E4E00A5E4FD7F0AFE120C62AFC2120F185F
:010E5C002273
:100E1E0075C78375C5028FC4EEF5C3AF058FC27556
:100E2E00C65A75C6A5E4FD7F0AFE120C62020F18A3
:100EB70075C78375C5038FC4EEF5C375C65A75C666
:0C0EC700A5E4FD7F0AFE120C62020F1869
:10043000EC4D6011E8497017ED33EC3304600DE4C6
:10044000FCFFFEFD22E933E8330470F80205E012F8
:1004500005AB58046009E4CC2481500628500902F9
:1004600005EA2840030205E7C0E0EB4A7044B98082
:1004700006D0E0FB0205D6EF4E701CBD8008EBFFF6
:10048000EAFEE9FD80EBE98DF0A4FEE5F002051936
:10049000E9CDF9EAFEEBFFEF89F0A4FCE5F0CE89A7
:1004A000F0A42EFFE435F0CD89F0A42DFEE435F064
:1004B0008067EF4E7005BD80D780C3EF8BF0A4AC92
:1004C000F0EE8BF0A42CFCE435F0F8EF8AF0A42CCD
:1004D000E5F038FCE433CB8DF0A42CFCE5F03BF8E0
:1004E000EE8AF0A42CFCE5F038F8E433CF89F0A4D0
:1004F0002CFCE5F038CF3400CE89F0A42FFFE5F0D6
:100500003EFEE433C98DF0A42EFEE5F039CD8AF02D
:10051000A42FFFE5F03EFEE43DFD33D0E0FB5007A5
:100520000BBB000F0205EAEC2CFCEF33FFEE33FEB1
:06053000ED33FD0205C2DF
:1005360075F020800E75F010800575F0087D007E40
:10054600007F003392D530D503120660EC3340109D
:10055600EF33FFEE33FEED33FDEC33FCD5F0ED2249
:0E056600E5F0247EA2D513CC92E7CDCEFF2285
:10057400EDD2E7CD33EC3392D524814006E4FFFE7F
:10058400FDFC22FCE4CFCECDCC24E0501174FF80DE
:10059400EDC3CC13CCCD13CDCE13CECF13CF04707B
:0705A400F030D5DE02066015
:1005AB00E9D2E7C933E833F892D5EDD2E7CD33EC96
:0705BB0033FC5002B2D5220F
:1005C200EC30E7100FBF000C0EBE00080DBD00049A
:1005D2000BEB6014A2D5EB13FCED92E7FD2274FF46
:1005E200FCFDFEFF22E480F8A2D574FF13FC7D809F
:0305F200E480EFB3
:100BDC00020DC5E493A3F8E493A34003F68001F25D
:100BEC0008DFF48029E493A3F85407240CC8C3331A
:100BFC00C4540F4420C8834004F456800146F6DFE9
:100C0C00E4800B0102040810204080900E99E47ED1
:100C1C00019360BCA3FF543F30E509541FFEE493DD
:100C2C00A360010ECF54C025E060A840B8E493A3A4
:100C3C00FAE493A3F8E493A3C8C582C8CAC583CACF
:100C4C00F0A3C8C582C8CAC583CADFE9DEE780BE87
:010EB600003B
:1005F500BC000BBE0029EF8DF084FFADF022E4CCEA
:10060500F875F008EF2FFFEE33FEEC33FCEE9DECB2
:10061500984005FCEE9DFE0FD5F0E9E4CEFD22EDF8
:10062500F8F5F0EE8420D21CFEADF075F008EF2F42
:10063500FFED33FD4007985006D5F0F222C398FD33
:050645000FD5F0EA22D0
:10064A00A3F8E0C5F025F0F0E58215827002158363
:06065A00E0C838F0E822C0
:0E066000C3E49FFFE49EFEE49DFDE49CFC22AB
:080F3F00EF30E703F404FF2288
:00000001FF
