:03000000026A3160
:0C6A3100787FE4F6D8FD758122026A78B7
:106154009002A87451F0A37446F0A37440F0A374A1
:1061640035F07B32E4FD7F0412682C9002A874336E
:10617400F0A304F0A3E4F0A304F0A3740AF0A3745E
:1061840001F0A37432F0A37435F0A3E4F0A3740314
:10619400F0A37407F0A37402F0A37432F0A3743470
:1061A400F0A3E4F0A37404F0A3740AF0A37403F05E
:1061B400A37432F0A37434F0A37405F0A37435F01F
:1061C400A37433F07B047D057F01124E7B90004362
:1061D400742DF0A37428F0A3F07F6E126519126F6A
:1061E4000F7D157FC47E09126C3C7F6F12651912F6
:1061F4006F0F7D157FC47E09126C3C7F7012651988
:10620400126F0F7D157FC47E09126C3C7F7112657D
:1062140019126F0F7D157FC47E09126C3C7F7212B8
:106224006519126F0F7D157FC47E09126C3C7F6E59
:10623400126519126F0F7D157FC47E09126C3C7FA5
:106244006F126519126F0F7D157FC47E09126C3CA5
:106254007F70126519126F0F7D157FC47E09126C51
:106264003C7F71126519126F0F7D157FC47E091270
:106274006C3C7F72126519126F0F7D157FC47E0905
:10628400126C3C7F75126519126F0F7D157FC47EE9
:0762940009126C3C026CEDE5
:03000300020006F2
:0100060032C7
:03000B00026E5F23
:106E5F00C0E0C0F0C083C082C0D075D008126DB73B
:0B6E6F00D0D0D082D083D0F0D0E03231
:03001B00026E7AF8
:106E7A00C0E0C0F0C083C082C0D075D008126F5481
:0B6E8A00D0D0D082D083D0F0D0E03216
:096F430025730A00456E6421006B
:106D61006027021061A800C8003A03202D025802D2
:106D71000D020D021C048304420451041A06C706C5
:0E6D810063001404B002BC07D007D0011B0051
:066C36007D167F017E00C7
:106C3C008E158F16ED24EB601D14603C2402705EE3
:106C4C00E5161516AE1570021515D39400EE9400CA
:106C5C00404C000080EAE5161516AE1570021515AD
:086C6C00D39400EE94004036C1
:0E6C7400000075100C7511A8D511FDD510FA91
:106C820080DEE5161516AE1570021515D39400EECA
:046C92009400401416
:106C960075122E7513997514F5D514FDD513FAD5FD
:026CA60012F7E3
:026CA80080DA90
:016CAA0022C7
:106EE300438E805389F0438901758A20758CD1C202
:066EF3008DD2A9D2AF22EE
:106EF900538EBF53890F438910758BE0758DB1C2CD
:066F09008FD2ABD2AF22D3
:106DB700758A20758CD1E51F2401F51FE4351EF572
:106DC7001EE4351DF51DE4351CF51C900046E0B4A6
:066DD7000B03123E4622F0
:076F5400758BE0758DB12281
:106E9500D2B220B2FD7D157F147E00126C3C30B25B
:0A6EA500FD7D157F007E01026C3CAC
:0B6F3800E4F5D8F5F9F5E975D9082259
:106EAF00EF75F019A4FFAEF07C007D0A1236778FD4
:0A6EBF00EA8FFA75DA42E4F5F222D8
:106EC900EF75F019A4FFAEF07C007D0A1236778FBA
:0A6ED900EB8FFB75DB42E4F5F322BA
:0950CC00900369E0F404FD7F2863
:1050D5009002ACEDF0D3648094E440057464F080F4
:1050E5000E9002ACE0C36480941C5003749CF0EFF6
:1050F50024D8B40700400302530990510D75F003FD
:10510500A4C58325F0C5837302512202516902515A
:10511500A702521C02525502528E0252CC9002AC8A
:10512500E0FF90005FE0B507012290005FEFF0908F
:1051350002ACE0FB70030251D2D3EB648094804053
:1051450009D2DE9002ACE00251D29002ACE0FFC37E
:10515500648094804003025309D2DE126F4C126EB4
:10516500C9D295229002ACE0FF900060E0B507013E
:1051750022900060EFF09002ACE0FB7002806AD3F1
:10518500EB648094804008D2DE9002ACE0805A90B7
:1051950002ACE0FFC3648094804003025309D2DE71
:1051A500806C9002ACE0FF90005FE0B50706A3E0DD
:1051B500B5070122900060EFF090005FF09002AC1F
:1051C500E0FB7010C2DEFF126EAFC292E4FF126EFA
:1051D500C9C29522D3EB648094804014D2DE90023C
:1051E500ACE0FF126EC9C295E0FF126EAFC292220B
:1051F5009002ACE0FFC3648094804003025309D25F
:10520500DE126F4C126EC9D2959002ACE0FF126FA0
:105215004C126EAFD292229002ACE0FF90005BE0A0
:10522500B507012290005BEFF09002ACE0FF70043F
:10523500D2978070D3EF648094804005D297025254
:10524500C7C3EF648094804003025309D2978063FB
:105255009002ACE0FF90005CE0B507012290005C95
:10526500EFF09002ACE0FF7004D2978075D3EF6445
:105275008094804005D297025305C3EF64809480E3
:105285004003025309D29780689002ACE0FF90007A
:105295005DE0B507012290005DEFF09002ACE0FF04
:1052A5007007C297C2A0D2A122D3EF648094804038
:1052B50007C297C2A0C2A122C3EF64809480504464
:1052C500C297D2A0C2A1229002ACE0FF90005EE09E
:1052D500B507012290005EEFF09002ACE0FF700789
:1052E500C297C2A2D2A322D3EF648094804007C2A2
:1052F50097C2A2C2A322C3EF648094805006C297CE
:05530500D2A2C2A322A8
:10584C00900044E0FF3395E0FEC3E49FFDE49EFC32
:02585C007F28A3
:10585E009002D5ECF0A3EDF0D39464EC64809480C8
:10586E00400B9002D5E4F0A37464F08018C390024C
:10587E00D6E0949C9002D5E06480947F500774FF2C
:10588E00F0A3749CF0EF24D7606C14700302595D82
:10589E00240260030259F990005FE0FF3395E0FEA9
:1058AE009002D5E0FCA3E0FDB50705ECB50601229C
:1058BE0090005FEDF09002D5E0FAA3E0FB4A700392
:1058CE000259A6D3EB9400EA64809480400AD2DE9B
:1058DE009002D5A3E00259A69002D5E0FEA3E0FF08
:1058EE00C3EE6480948040030259F9D2DE126F4CED
:1058FE00126EC9D29522900060E0FF3395E0FE90C3
:10590E0002D5E0FCA3E0FDB50705ECB5060122903B
:10591E000060EDF09002D5E0FAA3E0FB4A700302BE
:10592E0059CAD3EB9400EA64809480400AD2DE9088
:10593E0002D5A3E00259CA9002D5E0FEA3E0FFC350
:10594E00EE6480948040030259F9D2DE0259F19040
:10595E00005FE0FF3395E0FE9002D5E0FCA3E0FD92
:10596E00B50716ECB50612900060E0FF3395E0FE29
:10597E00EDB50705ECB5060122AF05900060EFF01E
:10598E0090005FF09002D5E0FAA3E0FB4A7010C2DF
:10599E00DEFF126EAFC292E4FF126EC9C29522D321
:1059AE00EB9400EA648094804019D2DE9002D5A375
:1059BE00E0FF126EC9C2959002D5A3E0FF126EAF42
:1059CE00C292229002D5E0FEA3E0FFC3EE64809463
:1059DE00805018D2DE126F4C126EC9D2959002D53D
:0C59EE00A3E0FF126F4C126EAFD29222A9
:106CAB00900365EFF0900062E06F6035900365E054
:106CBB00B4510C7D9C7F2B1250D530B30C80FB7DD7
:106CCB00647F2B1250D520B4FD7D157F147E0012EE
:106CDB006C3CE4FD7F2B1250D5900365E090006275
:026CEB00F02295
:1063E200900366EFF0900064E06F7003026518900E
:1063F2000366E024C360231460691470030264AB73
:106402001470030264F3240460030265097D647F4F
:106412002C1250D520B5FD0264FD900064E024C228
:10642200601A14602414602E240460030265097D3E
:106432009C7F2C1250D59002190264EC7D647F2C53
:106442001250D590021B0264EC7D647F2C1250D551
:106452009002270264EC7D647F2C1250D590022BAF
:106462000264EC900064E024C3601A24FE602214EB
:10647200602B240460030265097D9C7F2C1250D599
:1064820090022180657D9C7F2C1250D590021B804A
:10649200597D647F2C1250D590021D804D7D647F02
:1064A2002C1250D59002238041900064E024C360F6
:1064B2001714602024FE60282404704B7D9C7F2CDE
:1064C2001250D590022980227D9C7F2C1250D590AB
:1064D200022580167D9C7F2C1250D590021D800AC9
:1064E2007D647F2C1250D590021FE0FEA3E0FF8056
:1064F200117D9C7F2C1250D520B6FD900218E0FF32
:106502007E007D15126C3CE4FD7F2C1250D5900369
:0765120066E0900064F02236
:105FFA00900367EFF0900063E06F7003026153C291
:10600A0096900367E024BAB4090040030261449001
:10601A00602775F003A4C58325F0C5837302604227
:10602A0002605102606D02608D0260AC0260CB02B8
:10603A0060EA02610902612B7D647F2D1250D5C28C
:10604A009620A4FD026137900063E0FF900367E0A9
:10605A00D39F40057D9C0261217F48125FFA7D64CF
:10606A00026121900063E0FF900367E0C39F500440
:10607A007D6480027D9C7F2D1250D5C29620A5FD9D
:10608A00026137900063E0FF900367E0D39F400905
:10609A007F48125FFA7D9C80077F4A125FFA7D640F
:1060AA008075900063E0FF900367E0C39F50047D12
:1060BA006480027D9C7F2D1250D5C29620A6FD8059
:1060CA006C900063E0FF900367E0D39F40097F4A2A
:1060DA00125FFA7D9C80077F4C125FFA7D648037DD
:1060EA00900063E0FF900367E0C39F50047D6480E3
:1060FA00027D9C7F2D1250D5C29620A7FD802E903E
:10610A000063E0FF900367E0D39F40097F4C125F72
:10611A00FA7D9C80027D647F2D1250D590021680F4
:10612A000F7D9C7F2D1250D5D29620A4FD9002148B
:10613A00E0FEA3E0FF7D15126C3CE4FD7F2D1250BA
:0A614A00D5900367E0900063F02297
:105E9C00900368EFF0900065E0FE6F7003025FF90D
:105EAC00D296900368E024CD6058147003025F56BC
:105EBC00147003025F9D24036003025FEAEE24CC9E
:105ECC00602014602D24026003025FEA7D9C7F2E0B
:105EDC001250D5126C3620A5FD30A5FD20A5FD0273
:105EEC005FDD7D647F2E1250D5126C3620A5FD022D
:105EFC005FDD7D9C7F2E1250D5126C3620A5FD02E5
:105F0C005FDD900065E024CC602014602D240360DC
:105F1C0003025FEA7D647F2E1250D5126C3620A5E9
:105F2C00FD30A5FD20A5FD025FDD7D9C7F2E12506E
:105F3C00D5126C3620A5FD025FDD7D647F2E1250DC
:105F4C00D5126C3620A5FD025FDD900065E024CDF6
:105F5C00601B24FE602624036003025FEA7D9C7FA5
:105F6C002E1250D5126C3620A5FD025FDD7D647FAC
:105F7C002E1250D5126C3620A5FD80557D9C7F2E9F
:105F8C001250D5126C3620A5FD30A5FD20A5FD8044
:105F9C0040900065E024CD60161460222402703E0F
:105FAC007D647F2E1250D5126C3620A5FD80227D8B
:105FBC009C7F2E1250D5126C3620A5FD80137D646B
:105FCC007F2E1250D5126C3620A5FD30A5FD20A5D4
:105FDC00FD90022DE0FEA3E0FF7D15126C3CE4FD6C
:0E5FEC007F2E1250D5900368E0900065F022E1
:04629B007D347F3E91
:10629F00900361EFF0A3EDF024CE6033146045243A
:1062AF00FE601804705C900065E024CE60091460F5
:1062BF000824FE704D803C803A803C900065E024BD
:1062CF00CE6008146007147039802C802A802490C7
:1062DF000065E024CD600B24FE6005047024801758
:1062EF008011800F900065E024CE600F24FD6007C1
:1062FF0004700F7D9C80067D6480027D647F2E126A
:10630F0050D5900361E0FF1263E2D296126C369083
:10631F000362E024CD603414605514607724036069
:10632F00030263D2900065E024CC6015146017243B
:10633F000260030263D220A5FD30A5FD20A5FD80DC
:10634F007520A5FD807020A5FD806B900065E02471
:10635F00CC60121460142403706920A5FD30A5FDD4
:10636F0020A5FD805120A5FD804C20A5FD804790E4
:10637F000065E024CD600D24FE600E2403704420E0
:10638F00A5FD803220A5FD802D20A5FD30A5FD2087
:10639F00A5FD8022900065E024CD600C14600E24D2
:1063AF0002702020A5FD800E20A5FD800920A5FDEF
:1063BF0030A5FD20A5FD90022DE0FEA3E0FF7D1589
:1063CF00126C3CE4FD7F2E1250D5900362E09000DA
:0363DF0065F02244
:094BBA0090033FEFF0A3EDF0FBC6
:104BC300A312382700000000900345123827000085
:104BD300FFFFE4900349F0A3F0A3F0900065E0FF2A
:104BE3006B7003024C81900340E024CD601C146081
:104BF3002E1460432403706EEF24CC600914600804
:104C030024027062802D803E8040900065E024CCB9
:104C130060091460082403704D803E802D80279026
:104C23000065E024CD600A24FE6008240370378009
:104C33001980137D9C8024900065E024CD600B14C3
:104C43006017240270207D6480027D9C7F2E1250A9
:104C5300D590034A7401F0800D7D647F2E1250D5E8
:104C630090034A7402F0E51F24E8FFE51E3403FEB7
:104C7300E4351DFDE4351CFC90034512381B900000
:104C830063E0FF90033FE0FE6F6016EEC39F5004A6
:104C93007D6480027D9C7F2D1250D5900349024E86
:104CA3004190005EE0700990005DE07003024E7A6F
:104CB300900349E0FB64016003024DD990033FE098
:104CC30024BAB409004003024E0D904CDB75F00387
:104CD300A4C58325F0C58373024CF6024D0A024D29
:104CE30025024D38024D4E024D61024D77024D8A29
:104CF300024DA5C2967D147F147E00126C3C30A435
:104D030003024E0D024DB3C2967D147F147E001232
:104D13006C3C900063E06446602F30A503024E0DA7
:104D2300807BC2967D147F147E00126C3C30A503F9
:104D3300024E0D807BC2967D147F147E00126C3C64
:104D430030A50630A603024E0D8052C2967D147F15
:104D5300147E00126C3C30A603024E0D8052C296A4
:104D63007D147F147E00126C3C30A60630A703022C
:104D73004E0D8029C2967D147F147E00126C3C3048
:104D8300A703024E0D8029C2967D147F147E001264
:104D93006C3C30A708900063E0644E706D9002167F
:104DA3008011D2967D147F147E00126C3C20A45A8D
:104DB300900214E0FEA3E0FFEF251FFFEE351EFE79
:104DC300E4351DFDE4351CFC90034112381B9003B0
:104DD300497402F08034EBB40230AF1FAE1EAD1D38
:104DE300AC1C900341E0F8A3E0F9A3E0FAA3E0FBD5
:104DF300D312380A5014E4FD7F2D1250D5E49003EA
:104E030049F090033FE0900063F0AF1FAE1EAD1D6D
:104E1300AC1C900345E0F8A3E0F9A3E0FAA3E0FBA0
:104E2300D312380A4003024CA490034AE0602CD208
:104E3300967D147F147E00126C3C30A507A3740189
:104E4300F0024CA490034BE064016003024CA49075
:104E5300034AE014F0E4A3F0024CA4E4FD7F2E1215
:104E630050D59003451238270000FFFF900340E020
:074E7300900065F0024CA461
:014E7A002215
:0B482000900331EFF0A3EDF0A3EBF0EC
:10482B00A31238270000000090033812382700002D
:10483B00FFFFE490033CF0A3F0A3F0C222900065CD
:10484B00E0FF6B70030248EB900333E024CD601C58
:10485B0014602E1460432403706EEF24CC60091493
:10486B00600824027062802D803E8040900065E0DD
:10487B0024CC60091460082403704D803E802D8089
:10488B0027900065E024CD600A24FE6008240370A5
:10489B0037801980137D9C8024900065E024CD60C7
:1048AB000B146017240270207D6480027D9C7F2E88
:1048BB001250D590033D7401F0800D7D647F2E1254
:1048CB0050D590033D7402F0E51F24E8FFE51E343C
:1048DB0003FEE4351DFDE4351CFC90033812381B38
:1048EB00900063E0FF900332E0FE6F6016EEC39F13
:1048FB0050047D6480027D9C7F2D1250D590033C2B
:10490B00024B8090005EE0700F90005DE0700990AC
:10491B00033CE07003024BB990033CE024FE7003B0
:10492B00024A6A147003024AA3147003024AC514A4
:10493B007003024B1C24046003024B4C900332E0C7
:10494B0024BAB409004003024B4C90496375F00341
:10495B00A4C58325F0C5837302497E02499202499F
:10496B00AE0249C20249D80249EB024A01024A147B
:10497B00024A32C2967D147F147E00126C3C30A426
:10498B0003024B4C024A43C2967D147F147E0012E5
:10499B006C3C900063E06446603130A503024B4CE5
:1049AB00024A2DC2967D147F147E00126C3C30A5FA
:1049BB0003024B4C024A43C2967D147F147E0012B5
:1049CB006C3C30A50630A603024B4C8055C2967D3D
:1049DB00147F147E00126C3C30A603024B4C8058A3
:1049EB00C2967D147F147E00126C3C30A60630A755
:1049FB0003024B4C802CC2967D147F147E00126CEC
:104A0B003C30A703024B4C802FC2967D147F147E43
:104A1B0000126C3C30A70B900063E0644E60030205
:104A2B004B4C9002168014D2967D147F147E00128C
:104A3B006C3C30A403024B4C900214E0FEA3E0FF4D
:104A4B00EF251FFFEE351EFEE4351DFDE4351CFC86
:104A5B0090033412381B90033C7402F0024B4CAFA2
:104A6B001FAE1EAD1DAC1C900334E0F8A3E0F9A300
:104A7B00E0FAA3E0FBD312380A4003024B4CE4FDEF
:104A8B007F2D1250D5E490033CF07403F090033269
:104A9B00E0900063F0024B4C900331E0B440047D96
:104AAB009C8009900331E0B43C077D647F2C12504D
:104ABB00D590033C7404F0024B4C900331E0FBB4F3
:104ACB00402420B621900218E0FFEF251FFFE435AC
:104ADB001EFEE4351DFDE4351CFC90033412381B1F
:104AEB0090033C7405F0EB643C705620B553900278
:104AFB0018E0FFEF251FFFE4351EFEE4351DFDE436
:104B0B00351CFC90033412381B90033C7405F08069
:104B1B0030AF1FAE1EAD1DAC1C900334E0F8A3E00C
:104B2B00F9A3E0FAA3E0FBD312380A5014E4FD7F9B
:104B3B002C1250D5E490033CF0900331E0900064CC
:104B4B00F0AF1FAE1EAD1DAC1C900338E0F8A3E018
:104B5B00F9A3E0FAA3E0FBD312380A400302490E93
:104B6B0090033DE0602CD2967D147F147E00126C76
:104B7B003C30A507A37401F002490E90033EE0649C
:104B8B0001600302490E90033DE014F0E4A3F00230
:104B9B00490EE4FD7F2E1250D590033812382700B2
:0E4BAB0000FFFF900333E0900065F002490E1A
:014BB90022D9
:1068F40020872B20862830842530832220811F2066
:10690400801C3085032082062085132082107D158B
:106914007F0A7E00126C3CE4FD7F2A0250D520845D
:106924000B7D0C7F281250D57DF4800C20830E7DC6
:10693400F47F281250D57D0C7F291250D530820E59
:1069440020850B7D087F281250D57DF8800F308577
:106954001120820E7DF87F281250D57D087F2912E0
:1069640050D520860330870B7DF07F281250D57DCB
:1069740010800F20810330800E7D107F281250D5A7
:106984007DF07F291250D57D157F647E00126C3C0A
:036994000268F4A2
:103E4600900040E0FBA3E0FAA3E0F91235B8249C09
:103E5600603F14700302419F1470030240AB24E4D8
:103E6600600302439CE4FDFC7F2A12585E900046E4
:103E7600740CF07E007F407D007B017A0079001291
:103E860038AA9000407401F0A37400F0A37400F007
:103E960022900040E0FBA3E0FAA3E0F990000112B3
:103EA60035D1700302409920870330802330862065
:103EB60030851D30841AA28282835014308111907D
:103EC6000047740BF0900043E0FD3395E00240A5F7
:103ED600900047E0B40B16740CF0900040E0FBA392
:103EE600E0FAA3E0F990000174FF0235FE9000436A
:103EF600E0FF3395E0F5198F1AF5178F18308539DD
:103F0600208236E5182415FFE43517FE7C007D0A6D
:103F16001236CCC3E5189FF518E5179EF517C3743E
:103F260063951AFFE49519FE7C007D0A1236CCEFE4
:103F3600251AF51AEE3519F519308239208536C35A
:103F460074639518FFE49517FE7C007D0A1236CC43
:103F5600EF2518F518EE3517F517E51A2415FFE4C1
:103F66003519FE7C007D0A1236CCC3E51A9FF51A78
:103F7600E5199EF519308643208140E5182415FF82
:103F8600E43517FE7C007D031236657D0A1236CCB9
:103F9600C3E5189FF518E5179EF517C37463951AC0
:103FA600FFE49519FE7C007D031236657D0A123604
:103FB600CCEF251AF51AEE3519F51930814320860E
:103FC60040C374639518FFE49517FE7C007D0312C9
:103FD60036657D0A1236CCEF2518F518EE3517F53D
:103FE60017E51A2415FFE43519FE7C007D03123609
:103FF600657D0A1236CCC3E51A9FF51AE5199EF5BA
:1040060019308743208040E5182415FFE43517FE54
:104016007C007D051236657D0A1236CCC3E5189FF5
:10402600F518E5179EF517C37463951AFFE49519FD
:10403600FE7C007D051236657D0A1236CCEF251A08
:10404600F51AEE3519F51920800302438A208740B8
:10405600C374639518FFE49517FE7C007D05123640
:10406600657D0A1236CCEF2518F518EE3517F517CB
:10407600E51A2415FFE43519FE7C007D0512366528
:104086007D0A1236CCC3E51A9FF51AE5199EF51975
:1040960002438A900041E475F002123702E4FDFC07
:1040A6007F2A024399E51B147003024172147003C0
:1040B6000241942402600302439C900040E0FBA36B
:1040C600E0FAA3E0F99000011235D124A6602D2470
:1040D600FE606714603C2402600302416F90004456
:1040E600E0FD3395E0FC7F2812585E900044E0FF27
:1040F6003395E0FEC3E49FFDE49E800B12584C907E
:104106000044E0FD3395E0FC7F2912585E900231B1
:10411600803C900044E0FD3395E0FC7F2812585E19
:10412600900044E0FF3395E0FEC3E49FFDE49EFC6F
:104136007F2912585E900235801412584C90004424
:10414600E0FD3395E0FC7F2912585E900235E0FED3
:10415600A3E0FFEF251FFFEE351EFEE4351DFDE44F
:10416600351CFC90004812381B051B22AF1FAE1EE3
:10417600AD1DAC1C900048E0F8A3E0F9A3E0FAA35B
:10418600E0FBD312380A400302439C051B2220851C
:104196006B20820302439C8063E51B14604204602B
:1041A6000302439C900040E0FBA3E0FAA3E0F990F1
:1041B60000011235D1FF3395E0FE7C007D0A1236F0
:1041C60065EE3395E0FDFCEF251FFFEE351EFEED97
:1041D600351DFDEC351CFC90004812381B051B22D2
:1041E600AF1FAE1EAD1DAC1C900048E0F8A3E0F971
:1041F600A3E0FAA3E0FBD312380A5020E4FDFC7FCB
:104206002A12585E900041E475F0021237029000BF
:104216004812382700000000E4F51B22900045E014
:10422600FF3395E0F5198F1AF5178F18308736206A
:104236008033AC17AD18EC1230BE7433FBFAF97844
:104246003F122FB31230F78E178F18AC19AD1AEC38
:104256001230BE7B667A6679A6783F122FB312308B
:10426600F78E198F1A308036208733AC17AD18ECCD
:104276001230BE7B667A6679A6783F122FB312306B
:10428600F78E178F18AC19AD1AEC1230BE7433FBCB
:10429600FAF9783F122FB31230F78E198F1A30863B
:1042A60037208134AC17AD18EC1230BE7BCD7ACCFA
:1042B600794C783F122FB31230F78E178F18AC193E
:1042C600AD1AEC1230BE7B9A7A997999783F122F03
:1042D600B31230F78E198F1A308137208634AC1717
:1042E600AD18EC1230BE7B9A7A997999783F122FE5
:1042F600B31230F78E178F18AC19AD1AEC1230BE08
:104306007BCD7ACC794C783F122FB31230F78E19C9
:104316008F1A308536208233AC17AD18EC1230BEBA
:104326007466FBFAF9783F122FB31230F78E178FA7
:1043360018AC19AD1AEC1230BE7BCD7ACC798C78DC
:104346003F122FB31230F78E198F1A30823620851E
:1043560033AC17AD18EC1230BE7BCD7ACC798C78A5
:104366003F122FB31230F78E178F18AC19AD1AEC17
:104376001230BE7466FBFAF9783F122FB31230F78B
:104386008E198F1AAD1AAC197F2912585EAD18AC6A
:06439600177F2812585E9B
:01439C0022FE
:0B6ABD009002D7EFF0A3EDF0A3EBF088
:106AC800E4FF90030204F0A37402F0A374DA8013C5
:106AD800EE64826025AD070F74002DF582E4340062
:106AE800F583EEF0900302E0FBA3E475F0011237A2
:106AF80018A9F0FA1235B8FE80D674002FF582E492
:106B08003400F5837482F0900047740CF0900040D4
:106B18007401F0A37400F0A37400F09002D7E09021
:106B28000043F09002D8E0900044F09002D9E09041
:076B38000045F0A3740BF00F
:016B3F002233
:0559FA00900355EDF0E3
:1059FF00A3EFF0900356E07003025B9D2087033006
:105A0F00802430862130851E30841BA282828350F1
:105A1F0015308112900359740BF0900355E0FD7F00
:105A2F002A1250D580CD900359E0B40B0B740CF0B3
:105A3F00900356E014F080BB900355E0900358F0AC
:105A4F00900357F0308527208224A3E0FF75F00ADA
:105A5F0084FEC3EF9EF0900357E0FFC374649FFF73
:105A6F00E49400FE7C007D0A123677E02FF030823E
:105A7F0029208526900358E0FFC374649FFFE494A8
:105A8F0000FE7C007D0A123677E02FF0900357E07E
:105A9F00FF75F00A84FEC3EF9EF03086332081300D
:105AAF00900358E0FF75F00A8475F003A4FEC3EF6E
:105ABF009EF0900357E0FFC374649FFFE49400FED1
:105ACF007C007D0A123677EF75F003A4FFE02FF00C
:105ADF00308133208630900358E0FFC374649FFFFA
:105AEF00E49400FE7C007D0A123677EF75F003A474
:105AFF00FFE02FF0900357E0FF75F00A8475F00375
:105B0F00A4FEC3EF9EF0308733208030900358E01F
:105B1F00FF75F00A8475F005A4FEC3EF9EF09003A5
:105B2F0057E0FFC374649FFFE49400FE7C007D0A7E
:105B3F00123677EF75F005A4FFE02FF03080332099
:105B4F008730900358E0FFC374649FFFE49400FE16
:105B5F007C007D0A123677EF75F005A4FFE02FF079
:105B6F00900357E0FF75F00A8475F005A4FEC3EFAC
:105B7F009EF0900357E0FD7F291250D5900358E017
:105B8F00FD7F281250D57D15126C38025A027D28E0
:055B9F007F2802530AFB
:106B4000900369EDF0EF24A6601D24FE60461460FA
:106B50002824027059900369E0FD7F281250D590D7
:106B60000369E0F40480071250CC900369E0FD7FD4
:106B7000291250D590022F802B900369E0FD7F28C9
:106B80001250D5900369E0F404FD7F291250D5908E
:106B9000023380101250CC900369E0FD7F2912501F
:106BA000D5900233E0FEA3E0FF7D15126C3C2085FA
:0B6BB000FD2082FAE4FD7F2A0250D590
:05530A0090035EEDF0D0
:10530F00EF75F00AA4FFEF251FFFE5F0351EFEE451
:10531F00351DFDE4351CFC90004812381BAF1FAE45
:10532F001EAD1DAC1C900048E0F8A3E0F9A3E0FA15
:10533F00A3E0FBD312380A50030254E190035EE05E
:10534F00900360F090035FF0308738208035A3E042
:10535F00FCE41230C37433FBFAF9783F122FB31207
:10536F0030F7900360EFF090035FE0FCE41230C37E
:10537F007B667A6679A6783F122FB31230F79003C7
:10538F005FEFF030803A208737900360E0FCE41243
:10539F0030C37B667A6679A6783F122FB31230F747
:1053AF00900360EFF090035FE0FCE41230C37433BE
:1053BF00FBFAF9783F122FB31230F790035FEFF03B
:1053CF0030863B208138900360E0FCE41230C37BD1
:1053DF00CD7ACC794C783F122FB31230F79003600F
:1053EF00EFF090035FE0FCE41230C37B9A7A997977
:1053FF0099783F122FB31230F790035FEFF030819F
:10540F003B208638900360E0FCE41230C37B9A7A2D
:10541F00997999783F122FB31230F7900360EFF01C
:10542F0090035FE0FCE41230C37BCD7ACC794C78EB
:10543F003F122FB31230F790035FEFF030853A2011
:10544F008237900360E0FCE41230C37466FBFAF914
:10545F00783F122FB31230F7900360EFF090035F95
:10546F00E0FCE41230C37BCD7ACC798C783F122FDD
:10547F00B31230F790035FEFF030823A2085379008
:10548F000360E0FCE41230C37BCD7ACC798C783F9B
:10549F00122FB31230F7900360EFF090035FE0FC30
:1054AF00E41230C37466FBFAF9783F122FB312304F
:1054BF00F790035FEFF090035FE0FD7F291250D567
:1054CF00900360E0FD7F281250D57D15126C3802D5
:0954DF00532CE4FD7F2A0250D594
:0D000E00E4F5C7F5C5F5C675C380F5C4223D
:106E220075C78375C5018FC4EEF5C375C65A75C69D
:0F6E3200A57D147F0A7E00126C3CAFC212000EC9
:016E4100222E
:106E010075C78375C5028FC4EEF5C3AF058FC27513
:106E1100C65A75C6A57D147F0A7E00126C3C02001D
:016E21000E62
:106E420075C78375C5038FC4EEF5C375C65A75C67B
:0D6E5200A57D147F0A7E00126C3C02000E2C
:1054E8007F3C1263E27F401263E2AF1FAE1EAD1D28
:1054F800AC1C90035A12381B7F3C1263E27F4012A7
:1055080063E290035AE0F8A3E0F9A3E0FAA3E0FB12
:10551800C3E51F9BFFE51E9AFEE51D99FDE51C9856
:10552800FC90035A12381B90035AE0FCA3E0FDA339
:10553800E0FEA3E0FFE41230B9E4FBFAF9783F1289
:105548002FB31230F790035A12381B90035AE0FC1D
:10555800A3E0FDA3E0FEA3E0FFE41230B9E4FBFA08
:10556800F9783F122FB31230F7900223EEF0A3EF31
:10557800F0900221EEF0A3EFF090035AE0FCA3E0D4
:10558800FDA3E0FEA3E0FFE41230B9E4FBFA7940A2
:10559800783F122FB31230F7900229EEF0A3EFF004
:1055A80090035AE0FCA3E0FDA3E0FEA3E0FFE412B1
:1055B80030B97B4E7A627910783F122FB31230F7E8
:1055C80090022BEEF0A3EFF090035AE0FCA3E0FD6D
:1055D800A3E0FEA3E0FFE41230B97B7B7A1479AE36
:1055E800783E122FB31230F7900219EEF0A3EFF0C5
:1055F80090035AE0FCA3E0FDA3E0FEA3E0FFE41261
:1056080030B97B8C7A4A798A783E122FB31230F7F8
:1056180090021FEEF0A3EFF090035AE0FCA3E0FD28
:10562800A3E0FEA3E0FFE41230B97B377A89794121
:10563800783E122FB31230F790021BEEF0A3EFF072
:1056480090035AE0FCA3E0FDA3E0FEA3E0FFE41210
:1056580030B97BCD7ACC794C783E122FB31230F723
:1056680090021DEEF0A3EFF090035AE0FCA3E0FDDA
:10567800A3E0FEA3E0FFE41230B9E4FBFAF9783FB7
:10568800122FB31230F7900225EEF0A3EFF0A3EE3D
:04569800F0A3EFF09C
:01569C0022EB
:106F2500438780759850438E04759CD9438E0143E1
:036F35008E102299
:106645007F50126CAB126C367F51126CAB126C36EC
:106655007F50126CAB126C367F51126CAB126C36DC
:106665009000647440F07F3C1263E2126C367F4008
:106675001263E2126C367F3C1263E2126C367F4085
:106685001263E2126C367F46125FFA126C367F484F
:10669500125FFA126C367F4A125FFA126C367F4C23
:1066A500125FFA126C367F4E125FFA126C367F4C0F
:1066B500125FFA126C367F4A125FFA126C367F4807
:1066C500125FFA126C367F46125FFA900065E09011
:1066D5000058F09000657432F07F35125E9C126CA4
:1066E500367F32125E9C126C367F35125E9C126CC0
:1066F500367F32125E9C126C36900058E090006531
:10670500F07D3C7F2A1250D5126C36E4FD7F2A12AB
:1067150050D5126C367DC47F2A1250D5126C36E4E2
:10672500FD7F2A1250D5126C367D287F291250D54F
:106735007DD87F281250D5126C36E4FD7F2A125081
:10674500D5126C367DD87F291250D57D287F281229
:0C67550050D5126C36E4FD7F2A0250D5AE
:106BBB00E4F090029CE0FFA3E0900306F090029EAD
:106BCB00E0900307F090029FE0900308F09002A082
:106BDB00E0900309F09002A1E090030AF09002A26A
:106BEB00E090030BF09002A3E090030CF0A37482EF
:016BFB00F0A9
:056BFC00900305EFF01D
:106C0100E0FF90032E7401F0A37403F0A37406F067
:106C1100800CEE6482601DEEC39F5002AF069003AC
:106C21002EE0FBA3E475F001123718A9F0FA123532
:046C3100B8FE80DE4B
:016C3500223C
:104E7B009002A5EFF0A3EDF075F054EFA4246AF5C2
:104E8B0082E5F03400F58375F006ED123858EBF03F
:104E9B009002ADE0FF9002AAE0FCA3E090006A75DF
:104EAB00F054123858EC75F054A42583F583C08365
:104EBB00C0829002ACE0D082D08375F006123858D5
:104ECB00EFF09002B3E0FF9002B0E0FCA3E09000A3
:104EDB006A75F054123858EC75F054A42583F58399
:104EEB00C083C0829002B2E0D082D08375F00612EC
:104EFB003858EFF09002B9E0FF9002B6E0FCA3E067
:104F0B0090006A75F054123858EC75F054A4258350
:104F1B00F583C083C0829002B8E0D082D08375F055
:104F2B0006123858EFF09002BCE090020EF090029F
:104F3B00A8E0FF9002A5E075F054A4246BF582E580
:104F4B00F03400F583C083C0829002A6E0D082D0FB
:104F5B008375F006123858EFF09002AEE0FF900226
:104F6B00AAE0FCA3E090006B75F054123858EC7576
:104F7B00F054A42583F583C083C0829002ACE0D0AB
:104F8B0082D08375F006123858EFF09002B4E0FF30
:104F9B009002B0E0FCA3E090006B75F0541238580F
:104FAB00EC75F054A42583F583C083C0829002B2C4
:104FBB00E0D082D08375F006123858EFF09002BA29
:104FCB00E0FF9002B6E0FCA3E090006B75F054128A
:104FDB003858EC75F054A42583F583C083C08290B8
:104FEB0002B8E0D082D08375F006123858EFF090FB
:104FFB0002BDE090020FF0900108740CF090010BD1
:10500B00F090010AF0900109F090015CF090015FC3
:10501B00F090015EF090015DF09001B0F09001B363
:10502B00F09001B2F09001B1F09002BEE0FFB4320B
:10503B000C9000B6740CF0900207F0800EEFB433B6
:10504B000A9000B7740CF0900206F0900156740CA5
:10505B00F0900159F0900158F0900157F09002A593
:10506B00E0FFA3E09002A812569D9002AAA3E0FFD6
:10507B00A3E09002AE12569D9002B0A3E0FFA3E016
:10508B00FD9002B412569E9002B6A3E0FFA3E0FD82
:10509B009002BA12569E900111740CF0900117F009
:1050AB0090011DF0900164F090016AF0900170F096
:1050BB0090011BF090016FF090010EF0900162F0E7
:0150CB0022C2
:09569D00FDE0FBA3E09002C2F065
:1056A600EB643360030257779002C2E06434705BA8
:1056B60075F054EFA42469F582E5F03400F583759E
:1056C600F006ED123858740CF075F054EFA424BCB3
:1056D600F582E5F03400F58375F006ED123858745E
:1056E6000CF075F054EFA42463F582E5F03400F570
:1056F6008375F006ED123858740CF075F054EFA46B
:1057060024B6F582E5F0340002583F9002C2E06408
:1057160035600302584B75F054EFA42469F582E511
:10572600F03400F58375F006ED123858740CF075F8
:10573600F054EFA42414F582E5F03400F58375F0F7
:1057460006ED123858740CF075F054EFA42463F586
:1057560082E5F03400F58375F006ED123858740CC6
:10576600F075F054EFA4240EF582E5F034000258EB
:105776003FEB6432600302584B9002C2E0FE643491
:10578600705A75F054EFA42468F582E5F03400F5FC
:105796008375F006ED123858740CF075F054EFA4CA
:1057A6002415F582E5F03400F58375F006ED123820
:1057B60058740CF075F054EFA4246EF582E5F034BD
:1057C60000F58375F006ED123858740CF075F05438
:1057D600EFA4241BF582E5F03400805DEE6435709D
:1057E6006475F054EFA42469F582E5F03400F5837E
:1057F60075F006ED123858740CF075F054EFA424C9
:10580600BCF582E5F03400F58375F006ED123858E4
:10581600740CF075F054EFA4246FF582E5F03400B3
:10582600F58375F006ED123858740CF075F054EFE8
:10583600A424C2F582E5F03400F58375F006ED1276
:065846003858740CF0223A
:056997009002A6EFF0E4
:10699C00900059E090004CF090005AE090004DF0BF
:1069AC00900061E0900054F090020EE0B50722A335
:1069BC00E0FFB43506E4900237800AEF643470646B
:1069CC009002377404F0A3740DF090023F7432F00F
:1069DC0022E4FFE4FE75F054EFA4246AF582E5F09E
:1069EC003400F58375F006EE123858E0FD9002A6DF
:1069FC00E0FCEDB50424900237EFF0A3EEF075F057
:106A0C0054EFA4246BF582E5F03400F58375F006A1
:106A1C00EE123858E090023FF0220EEEB40DB60F95
:046A2C00EFB405AF0F
:016A30002243
:045D27007D287F65EF
:105D2B009002A6EDF0900040E0FBA3E0FAA3E0F9AF
:105D3B001235B8FE700AEF64657003025E9B801922
:105D4B00EF6E6019900041E475F00212370290007B
:105D5B0040E0FBA3E0FAA3E0F9EF123631900040EC
:105D6B00E0FBA3E0FAA3E0F91235B8249B70030221
:105D7B005E8414605C24026003025E9B9002A6E0CA
:105D8B00FF9000011235FE900054E024CD601214F8
:105D9B00602114603024036003025E9B90004D80F1
:105DAB002C90004DE0FF9002A6E0FEC3EF9E90000A
:105DBB004DF02290004CE0FF9002A6E0FEC3EF9E58
:105DCB0090004CF0229002A6E0FF90004CE02FF0E8
:105DDB00229002A6E0FF900040E0FBA3E0FAA3E0D4
:105DEB00F9900001EF123643900054E024CD602768
:105DFB0014603E14605F24036003025E9BEF24A5D6
:105E0B00600F14600E14600D24036003025E9B8010
:105E1B0061803B802E802C9002A6E024A5600C14A0
:105E2B00600B14600A2403706780238045803880E0
:105E3B00369002A6E024A5601114601014600F24A4
:105E4B0003704D9000547433F022801B800090003F
:105E5B00547435F0229002A6E024A5601114601052
:105E6B0014600F240370299000547432F0228002C6
:105E7B0080009000547434F0229002A6E0FF900052
:105E8B0040E0FBA3E0FAA3E0F9900001EF1235FE2E
:015E9B0022E4
:0F10EE009002A7EDF09002A6EFF09002A8EBF0B1
:1010FD00E49002ABF0A3F0C3EF6480F8EB6480984A
:10110D0040030219539002A7E0FF9002A9E0FCEF03
:10111D006480F8EC648098500302142EA3E06432CE
:10112D0060030212A9AE079002A9E0C36480F8EE35
:10113D00648098506E9002A6E0FD9002A8E0C36412
:10114D0080F8ED648098403CEDFB3395E0FA90001B
:10115D006875F054EB123858EA75F054A42583F5F0
:10116D0083EEFB3395E0FA75F006EB123858EA750D
:10117D00F006A42583F583E0B40B069002ACE004E1
:10118D00F01D80B69002A8E0FF9002A6E0C39FFF7D
:10119D009002ACE014B50703AF0622E49002ACF068
:1011AD000E80849002A7E0FEC3EE64809480406EB2
:1011BD009002A6E0FD9002A8E0C36480F8ED648083
:1011CD0098403CEDFB3395E0FA90006875F054EBD8
:1011DD00123858EA75F054A42583F583EEFB339548
:1011ED00E0FA75F006EB123858EA75F006A425837F
:1011FD00F583E0B40B069002ACE004F01D80B690D0
:10120D0002A8E0FF9002A6E0C39FFF9002ACE0149D
:10121D00B50703AF0622E49002ACF01E808A90025F
:10122D00A9E0FED3EE6480948C40030221B39002BA
:10123D00A6E0FD9002A8E0C36480F8ED64809840BC
:10124D003CEDFB3395E0FA90006875F054EB1238E5
:10125D0058EA75F054A42583F583EEFB3395E0FA37
:10126D0075F006EB123858EA75F006A42583F58360
:10127D00E0B40B069002ACE004F01D80B69002A81D
:10128D00E0FF9002A6E0C39FFF9002ACE014B5070B
:10129D0003AF0622E49002ACF00E80879002AAE024
:1012AD00643360030221B39002A9E0FED3EE6480A3
:1012BD00948C506E9002A6E0FD9002A8E0C364806D
:1012CD00F8ED648098403CEDFB3395E0FA900068B2
:1012DD0075F054EB123858EA75F054A42583F58354
:1012ED00EEFB3395E0FA75F006EB123858EA75F01F
:1012FD0006A42583F583E0B40B069002ACE004F060
:10130D001D80B69002A8E0FF9002A6E0C39FFF905B
:10131D0002ACE014B50703AF0622E49002ACF00E68
:10132D00808A9002A7E0FE9002A9E0C36480F8EEE7
:10133D00648098506E9002A6E0FD9002A8E0C36410
:10134D0080F8ED648098403CEDFB3395E0FA900019
:10135D006875F054EB123858EA75F054A42583F5EE
:10136D0083EEFB3395E0FA75F006EB123858EA750B
:10137D00F006A42583F583E0B40B069002ACE004DF
:10138D00F01D80B69002A8E0FF9002A6E0C39FFF7B
:10139D009002ACE014B50703AF0622E49002ACF066
:1013AD000E80849002A7E0FEC3EE6480948050030B
:1013BD000221B39002A6E0FD9002A8E0C36480F87C
:1013CD00ED648098403CEDFB3395E0FA9000687534
:1013DD00F054EB123858EA75F054A42583F583EEDA
:1013ED00FB3395E0FA75F006EB123858EA75F00606
:1013FD00A42583F583E0B40B069002ACE004F01D48
:10140D0080B69002A8E0FF9002A6E0C39FFF900275
:10141D00ACE014B50703AF0622E49002ACF01E80D9
:10142D00879002A7E0FF9002A9E0FCC3EF6480F86B
:10143D00EC648098400302174BA3E0643260030212
:10144D0015C6AE04C3EE64809480406E9002A6E093
:10145D00FD9002A8E0C36480F8ED648098403CEDF7
:10146D00FB3395E0FA90006875F054EB123858EAAA
:10147D0075F054A42583F583EEFB3395E0FA75F0F2
:10148D0006EB123858EA75F006A42583F583E0B40F
:10149D000B069002ACE004F01D80B69002A8E0FFB0
:1014AD009002A6E0C39FFF9002ACE014B50703AF16
:1014BD000622E49002ACF01E808A9002A7E0FE9016
:1014CD0002A9E0D36480F8EE648098406E9002A685
:1014DD00E0FD9002A8E0C36480F8ED648098403C84
:1014ED00EDFB3395E0FA90006875F054EB12385827
:1014FD00EA75F054A42583F583EEFB3395E0FA7578
:10150D00F006EB123858EA75F006A42583F583E052
:10151D00B40B069002ACE004F01D80B69002A8E07A
:10152D00FF9002A6E0C39FFF9002ACE014B5070345
:10153D00AF0622E49002ACF01E80849002A7E0FE7C
:10154D00D3EE6480948C40030221B39002A6E0FD9B
:10155D009002A8E0C36480F8ED648098403CEDFBF8
:10156D003395E0FA90006875F054EB123858EA752F
:10157D00F054A42583F583EEFB3395E0FA75F00660
:10158D00EB123858EA75F006A42583F583E0B40B09
:10159D00069002ACE004F01D80B69002A8E0FF902A
:1015AD0002A6E0C39FFF9002ACE014B50703AF069F
:1015BD0022E49002ACF00E80879002AAE0643360C2
:1015CD00030221B39002A7E0FE9002A9E0D364804C
:1015DD00F8EE648098406E9002A6E0FD9002A8E0BF
:1015ED00C36480F8ED648098403CEDFB3395E0FAE0
:1015FD0090006875F054EB123858EA75F054A42534
:10160D0083F583EEFB3395E0FA75F006EB1238584F
:10161D00EA75F006A42583F583E0B40B069002ACC1
:10162D00E004F01D80B69002A8E0FF9002A6E0C392
:10163D009FFF9002ACE014B50703AF0622E49002C1
:10164D00ACF01E80849002A7E0FED3EE6480948CF3
:10165D00506E9002A6E0FD9002A8E0C36480F8ED04
:10166D00648098403CEDFB3395E0FA90006875F08E
:10167D0054EB123858EA75F054A42583F583EEFB2C
:10168D003395E0FA75F006EB123858EA75F006A4BA
:10169D002583F583E0B40B069002ACE004F01D80C9
:1016AD00B69002A8E0FF9002A6E0C39FFF9002ACA7
:1016BD00E014B50703AF0622E49002ACF00E808A69
:1016CD009002A9E0FEC3EE6480948050030221B322
:1016DD009002A6E0FD9002A8E0C36480F8ED64805E
:1016ED0098403CEDFB3395E0FA90006875F054EBB3
:1016FD00123858EA75F054A42583F583EEFB339523
:10170D00E0FA75F006EB123858EA75F006A4258359
:10171D00F583E0B40B069002ACE004F01D80B690AA
:10172D0002A8E0FF9002A6E0C39FFF9002ACE01478
:10173D00B50703AF0622E49002ACF01E808790023D
:10174D00AAE06432600302184F9002A7E0FEC3EED8
:10175D0064809480406E9002A6E0FD9002A8E0C3E4
:10176D006480F8ED648098403CEDFB3395E0FA9091
:10177D00006875F054EB123858EA75F054A42583BF
:10178D00F583EEFB3395E0FA75F006EB123858EA67
:10179D0075F006A42583F583E0B40B069002ACE04A
:1017AD0004F01D80B69002A8E0FF9002A6E0C39F52
:1017BD00FF9002ACE014B5070302219EE49002AC49
:1017CD00F01E808A9002A9E0FED3EE6480948C40D6
:1017DD00030221B39002A6E0FD9002A8E0C364804D
:1017ED00F8ED648098403CEDFB3395E0FA9000688D
:1017FD0075F054EB123858EA75F054A42583F5832F
:10180D00EEFB3395E0FA75F006EB123858EA75F0F9
:10181D0006A42583F583E0B40B069002ACE004F03A
:10182D001D80B69002A8E0FF9002A6E0C39FFF9036
:10183D0002ACE014B5070302219EE49002ACF00E59
:10184D0080879002AAE0643360030221B39002A95D
:10185D00E0FED3EE6480948C506E9002A6E0FD9075
:10186D0002A8E0C36480F8ED648098403CEDFB3342
:10187D0095E0FA90006875F054EB123858EA75F05F
:10188D0054A42583F583EEFB3395E0FA75F006EB52
:10189D00123858EA75F006A42583F583E0B40B06DB
:1018AD009002ACE004F01D80B69002A8E0FF90021B
:1018BD00A6E0C39FFF9002ACE014B5070302219E82
:1018CD00E49002ACF00E808A9002A7E0FEC3EE64B5
:1018DD0080948050030221B39002A6E0FD9002A8EF
:1018ED00E0C36480F8ED648098403CEDFB3395E0F7
:1018FD00FA90006875F054EB123858EA75F054A45C
:10190D002583F583EEFB3395E0FA75F006EB12387F
:10191D0058EA75F006A42583F583E0B40B06900212
:10192D00ACE004F01D80B69002A8E0FF9002A6E0A6
:10193D00C39FFF9002ACE014B5070302219EE49013
:10194D0002ACF01E80879002A6E0FF9002A8E0FC9A
:10195D00D3EF6480F8EC64809850030221AB9002C1
:10196D00A7E0FF9002A9E0FCD3EF6480F8EC64805F
:10197D00985003021C88A3E064326003021B03AE7F
:10198D00079002A9E0C36480F8EE648098506E90D1
:10199D0002A6E0FD9002A8E0D36480F8ED64809883
:1019AD00503CEDFB3395E0FA90006975F054EB1265
:1019BD003858EA75F054A42583F583EEFB3395E092
:1019CD00FA75F006EB123858EA75F006A42583F582
:1019DD0083E0B40B069002ACE004F00D80B69002EB
:1019ED00A6E0FF9002A8E0C39FFF9002ACE014B503
:1019FD000703AF0622E49002ACF00E80849002A79C
:101A0D00E0FEC3EE64809480406E9002A6E0FD90EF
:101A1D0002A8E0D36480F8ED648098503CEDFB3370
:101A2D0095E0FA90006975F054EB123858EA75F0AC
:101A3D0054A42583F583EEFB3395E0FA75F006EBA0
:101A4D00123858EA75F006A42583F583E0B40B0629
:101A5D009002ACE004F00D80B69002A6E0FF90027B
:101A6D00A8E0C39FFF9002ACE014B50703AF0622B8
:101A7D00E49002ACF01E808A9002A9E0FED3EE64E1
:101A8D0080948C40030221B39002A6E0FD9002A841
:101A9D00E0D36480F8ED648098503CEDFB3395E025
:101AAD00FA90006975F054EB123858EA75F054A4A9
:101ABD002583F583EEFB3395E0FA75F006EB1238CE
:101ACD0058EA75F006A42583F583E0B40B06900261
:101ADD00ACE004F00D80B69002A6E0FF9002A8E005
:101AED00C39FFF9002ACE014B50703AF0622E4904C
:101AFD0002ACF00E80879002AAE0643360030221ED
:101B0D00B39002A9E0FED3EE6480948C506E9002E7
:101B1D00A6E0FD9002A8E0D36480F8ED64809850B3
:101B2D003CEDFB3395E0FA90006975F054EB1238FB
:101B3D0058EA75F054A42583F583EEFB3395E0FA4E
:101B4D0075F006EB123858EA75F006A42583F58377
:101B5D00E0B40B069002ACE004F00D80B69002A646
:101B6D00E0FF9002A8E0C39FFF9002ACE014B50720
:101B7D0003AF0622E49002ACF00E808A9002A7E03B
:101B8D00FE9002A9E0C36480F8EE648098506E90D8
:101B9D0002A6E0FD9002A8E0D36480F8ED64809881
:101BAD00503CEDFB3395E0FA90006975F054EB1263
:101BBD003858EA75F054A42583F583EEFB3395E090
:101BCD00FA75F006EB123858EA75F006A42583F580
:101BDD0083E0B40B069002ACE004F00D80B69002E9
:101BED00A6E0FF9002A8E0C39FFF9002ACE014B501
:101BFD000703AF0622E49002ACF00E80849002A79A
:101C0D00E0FEC3EE6480948050030221B39002A6DF
:101C1D00E0FD9002A8E0D36480F8ED648098503C1C
:101C2D00EDFB3395E0FA90006975F054EB123858DE
:101C3D00EA75F054A42583F583EEFB3395E0FA7530
:101C4D00F006EB123858EA75F006A42583F583E00B
:101C5D00B40B069002ACE004F00D80B69002A6E045
:101C6D00FF9002A8E0C39FFF9002ACE014B50703FC
:101C7D00AF0622E49002ACF01E80879002A7E0FF31
:101C8D009002A9E0FCC3EF6480F8EC6480984003F7
:101C9D00021FA5A3E064326003021E20AE04C3EE52
:101CAD0064809480406E9002A6E0FD9002A8E0D37F
:101CBD006480F8ED648098503CEDFB3395E0FA902C
:101CCD00006975F054EB123858EA75F054A4258369
:101CDD00F583EEFB3395E0FA75F006EB123858EA12
:101CED0075F006A42583F583E0B40B069002ACE0F5
:101CFD0004F00D80B69002A6E0FF9002A8E0C39F0D
:101D0D00FF9002ACE014B50703AF0622E49002ACDD
:101D1D00F01E808A9002A7E0FE9002A9E0D36480B5
:101D2D00F8EE648098406E9002A6E0FD9002A8E067
:101D3D00D36480F8ED648098503CEDFB3395E0FA68
:101D4D0090006975F054EB123858EA75F054A425DB
:101D5D0083F583EEFB3395E0FA75F006EB123858F8
:101D6D00EA75F006A42583F583E0B40B069002AC6A
:101D7D00E004F00D80B69002A6E0FF9002A8E0C34B
:101D8D009FFF9002ACE014B50703AF0622E490026A
:101D9D00ACF01E80849002A7E0FED3EE6480948C9C
:101DAD0040030221B39002A6E0FD9002A8E0D364A7
:101DBD0080F8ED648098503CEDFB3395E0FA90008F
:101DCD006975F054EB123858EA75F054A42583F573
:101DDD0083EEFB3395E0FA75F006EB123858EA7591
:101DED00F006A42583F583E0B40B069002ACE00465
:101DFD00F00D80B69002A6E0FF9002A8E0C39FFF11
:101E0D009002ACE014B50703AF0622E49002ACF0EB
:101E1D000E80879002AAE0643360030221B3900222
:101E2D00A7E0FE9002A9E0D36480F8EE64809840AC
:101E3D006E9002A6E0FD9002A8E0D36480F8ED64F8
:101E4D008098503CEDFB3395E0FA90006975F054A5
:101E5D00EB123858EA75F054A42583F583EEFB3365
:101E6D0095E0FA75F006EB123858EA75F006A425E0
:101E7D0083F583E0B40B069002ACE004F00D80B660
:101E8D009002A6E0FF9002A8E0C39FFF9002ACE095
:101E9D0014B50703AF0622E49002ACF01E808490C7
:101EAD0002A7E0FED3EE6480948C506E9002A6E003
:101EBD00FD9002A8E0D36480F8ED648098503CED6D
:101ECD00FB3395E0FA90006975F054EB123858EA3F
:101EDD0075F054A42583F583EEFB3395E0FA75F088
:101EED0006EB123858EA75F006A42583F583E0B4A5
:101EFD000B069002ACE004F00D80B69002A6E0FF58
:101F0D009002A8E0C39FFF9002ACE014B50703AFA9
:101F1D000622E49002ACF00E808A9002A9E0FEC386
:101F2D00EE6480948050030221B39002A6E0FD90F0
:101F3D0002A8E0D36480F8ED648098503CEDFB334B
:101F4D0095E0FA90006975F054EB123858EA75F087
:101F5D0054A42583F583EEFB3395E0FA75F006EB7B
:101F6D00123858EA75F006A42583F583E0B40B0604
:101F7D009002ACE004F00D80B69002A6E0FF900256
:101F8D00A8E0C39FFF9002ACE014B50703AF062293
:101F9D00E49002ACF01E80879002AAE064326003E8
:101FAD000220A99002A7E0FEC3EE64809480406EEB
:101FBD009002A6E0FD9002A8E0C36480F8ED648075
:101FCD0098403CEDFB3395E0FA90006975F054EBC9
:101FDD00123858EA75F054A42583F583EEFB33953A
:101FED00E0FA75F006EB123858EA75F006A4258371
:101FFD00F583E0B40B069002ACE004F01D80B690C2
:10200D0002A8E0FF9002A6E0C39FFF9002ACE0148F
:10201D00B5070302219EE49002ACF01E808A900267
:10202D00A9E0FED3EE6480948C40030221B39002AC
:10203D00A6E0FD9002A8E0C36480F8ED64809840AE
:10204D003CEDFB3395E0FA90006975F054EB1238D6
:10205D0058EA75F054A42583F583EEFB3395E0FA29
:10206D0075F006EB123858EA75F006A42583F58352
:10207D00E0B40B069002ACE004F01D80B69002A80F
:10208D00E0FF9002A6E0C39FFF9002ACE014B507FD
:10209D000302219EE49002ACF00E80879002AAE02C
:1020AD00643360030221B39002A9E0FED3EE648095
:1020BD00948C506D9002A6E0FD9002A8E0C3648060
:1020CD00F8ED648098403CEDFB3395E0FA900069A3
:1020DD0075F054EB123858EA75F054A42583F58346
:1020ED00EEFB3395E0FA75F006EB123858EA75F011
:1020FD0006A42583F583E0B40B069002ACE004F052
:10210D001D80B69002A8E0FF9002A6E0C39FFF904D
:10211D0002ACE014B507028078E49002ACF00E80BA
:10212D008B9002A7E0FEC3EE64809480407890020D
:10213D00A6E0FD9002A8E0C36480F8ED64809840AD
:10214D003CEDFB3395E0FA90006975F054EB1238D5
:10215D0058EA75F054A42583F583EEFB3395E0FA28
:10216D0075F006EB123858EA75F006A42583F58351
:10217D00E0B40B069002ACE004F01D80B69002A80E
:10218D00E0FF9002A6E0C39FFF9002ACE014B507FC
:10219D0005EE2428FF22E49002ACF01E8088900208
:0821AD00A9E02414FF227FFFCA
:0121B5002207
:1038D60090004CE0FFA3E0FD900237E0FBA3E090F0
:1038E60002A9F090023FE09002AAF01210EEAC0797
:1038F600C3EC648094804007EC648094944015C3C4
:10390600EC648094A85003023C3DEC648094BC4077
:1039160003023C3DC3EC648094A8400BEC648094A5
:10392600BC500474D82CFC90004DE0FF6C70030270
:103936003B14D3EF6480F8EC6480985003023A128B
:10394600900054E064327003023A07125D2790003B
:1039560054E024CC70030239FA1470030239FE24B1
:10396600026003023B1490004CE0FF3395E0FE90AA
:10397600006875F054EF123858EE75F054A425839C
:10398600F583C083C08290004DE0FF3395E0FED002
:1039960082D08375F006EF123858EE75F006A4252E
:1039A60083F583E0B40B047D5D804F90004CE0FF0F
:1039B6003395E0FE90006975F054EF123858EE75B5
:1039C600F054A42583F583C083C08290004DE0FFA8
:1039D6003395E0FED082D08375F006EF123858EEAC
:1039E60075F006A42583F583E0640B6003023B149F
:1039F6007D5C80067D5B80027D5A7F66125D2B8032
:103A06000090004DE0FFC3EC9F023B0E90004DE09E
:103A1600C36480F8EC6480984003023B1490005421
:103A2600E064337003023B08125D27900054E024E3
:103A3600CC7003023AEA147003023AF924036003D5
:103A4600023B1490004CE0FF3395E0FE9000687551
:103A5600F054EF123858EE75F054A42583F583C060
:103A660083C08290004DE0FF3395E0FED082D08384
:103A760075F006EF123858EE75F006A42583F58327
:103A8600E0B40B0F7D5C7F66125D2B90004DE0C3AA
:103A96009C807590004CE0FF3395E0FE90006975C0
:103AA600F054EF123858EE75F054A42583F583C010
:103AB60083C08290004DE0FF3395E0FED082D08334
:103AC60075F006EF123858EE75F006A42583F583D7
:103AD600E0640B70397D5D7F66125D2B90004DE0D2
:103AE600C39C80247D5A7F66125D2B90004DE0C3F7
:103AF6009C80157D5B7F66125D2B90004DE0C39C1C
:103B0600800690004DE0C39CFD7F64125D2B900003
:103B16004CE0FF900237E0FED3EF6480F8EE64805D
:103B2600984016125D27900054E0B432028034901B
:103B36000054E064337033801F90004CE0FF900225
:103B460037E0FEC3EF6480F8EE648098501C125D87
:103B560027900054E0B432047D5A8009900054E066
:103B6600B433077D5B7F66125D2B90004CE0FF90BF
:103B76000237E0FED3EF6480F8EE6480984004EEEE
:103B86009F801890004CE0FF900237E0FEC3EF6480
:103B960080F8EE6480985009C3EF9EFD7F64125D45
:103BA6002B90004DE0FF900238E0FED3EF6480F8E2
:103BB600EE6480984016125D27900054E0B43402FB
:103BC6008034900054E064357033801F90004DE0DF
:103BD600FF900238E0FEC3EF6480F8EE64809850F0
:103BE6001C125D27900054E0B434047D5A8009907D
:103BF6000054E0B435077D5B7F66125D2B90004D67
:103C0600E0FF900238E0FED3EF6480F8EE6480981F
:103C16004004EE9F801890004DE0FF900238E0FED1
:103C2600C3EF6480F8EE6480985009C3EF9EFD7F71
:103C360064125D2B023E3CC3EC64809494500302F4
:103C46003E3FEC648094A84003023E3F74EC2CFC9B
:103C560090004DE0FF900238E0FED3EF6480F8EE6E
:103C66006480985003023D30900054E06432700343
:103C7600023D25125D27900054E024CC7003023DDE
:103C860018147003023D1C24026003023E3C90009F
:103C96004CE0FF3395E0FE90006875F054EF123863
:103CA60058EE75F054A42583F583C083C082900036
:103CB6004DE0FCFF3395E0FED082D08375F006EF31
:103CC600123858EE75F006A42583F583E0B40B048C
:103CD6007D5D804490004CE0FF3395E0FE900069E6
:103CE60075F054EF123858EE75F054A42583F58319
:103CF600ECFF3395E0FE75F006EF123858EE75F0DE
:103D060006A42583F583E0640B6003023E3C7D5CDC
:103D160080067D5B80027D5A7F66125D2B80009057
:103D2600004DE0FF900238023E3390004DE0FF90D8
:103D36000238E0FEC3EF6480F8EE64809840030228
:103D46003E3C900054E064337003023E2B125D2724
:103D5600900054E024CC7003023E09147003023E26
:103D66001A24036003023E3C90004CE0FF3395E0CA
:103D7600FE90006875F054EF123858EE75F054A4B2
:103D86002583F583C083C08290004DE0FCFF339508
:103D9600E0FED082D08375F006EF123858EE75F04B
:103DA60006A42583F583E0B40B117D5C7F66125D66
:103DB6002B900238E0FF90004D807290004CE0FF9F
:103DC6003395E0FE90006975F054EF123858EE75A1
:103DD600F054A42583F583ECFF3395E0FE75F006D9
:103DE600EF123858EE75F006A42583F583E0640BD0
:103DF60070447D5D7F66125D2B900238E0FF900077
:103E06004D802A7D5A7F66125D2B900238E0FF9026
:103E1600004D80197D5B7F66125D2B900238E0FFB6
:103E260090004D8008900238E0FF90004DE0C39F5F
:0F3E3600FD7F64125D2B125D27900047740CF026
:013E4500225A
:106519009002A5EFF09000407401F0A37400F0A37D
:106529007400F0EF248C70030266301460072402B3
:10653900701D026630E4900237F0A3F090023F74B8
:1065490033F01238D67D017F64125D2B0265FE900F
:1065590002A5E02493FF12699790005AE0640D6048
:10656900030265FB900237E0D36480948250369031
:106579000059E0FC701D9000B6E0B40B047D5C800E
:10658900099000B7E0B40B077D5D7F66125D2B7D36
:10659900018006ECB404077D027F64125D2BE49050
:1065A900004CF08041900237E0C364809483403608
:1065B900900059E0FC70047D028020EC6404702096
:1065C900900207E0B40B047D5D8009900206E0B4F7
:1065D9000B077D5C7F66125D2B7D017F64125D2B4D
:1065E90090004C7404F090004D740CF090005474B9
:1065F90033F01238D6900041E475F0021237029058
:106609000040E0FBA3E0FAA3E0F97482123631906E
:106619000237E090004CF0900238E090004DF09085
:10662900023FE0900054F09000407401F0A3740020
:0C663900F0A37400F0900046740BF022F7
:106DDD00900046E0B40B0B7D157F327E00126C3CAB
:106DED0080EE7E007F407D007B017A0079001238B5
:046DFD00AA0268F48A
:106F0F00126DDD78597C007D017B017A00794C7E12
:066F1F00007F0D02359217
:06001E0090024412381BA1
:100024007E007F287D007B017A02794C1238AA7EFB
:10003400007F287D007B017A0279741238AA7E0041
:100044007F087D057B017A02799C1238AA7B807A2D
:100054009679987800900244E0FCA3E0FDA3E0FECA
:10006400A3E0FF12376AE47B0AFAF9F812376A90C0
:10007400024DEBF07B407A42790F7800900244E025
:10008400FCA3E0FDA3E0FEA3E0FF12376AE47B0AD1
:10009400FAF9F812376A90024EEBF07BA07A86796F
:1000A400017800900244E0FCA3E0FDA3E0FEA3E09D
:1000B400FF12376AE47B0AFAF9F812376A90024FA2
:1000C400EBF0E47B107A27F9F8900244E0FCA3E01B
:1000D400FDA3E0FEA3E0FF12376AE47B0AFAF9F815
:1000E40012376A900250EBF0E47BE87A03F9F89057
:1000F4000244E0FCA3E0FDA3E0FEA3E0FF12376AA4
:10010400E47B0AFAF9F812376A900261EBF0E47BB7
:1001140064FAF9F8900244E0FCA3E0FDA3E0FEA336
:10012400E0FF12376AE47B0AFAF9F812376A9002A0
:1001340062EBF0E47B0AFAF9F8900244E0FCA3E0F5
:10014400FDA3E0FEA3E0FF12376AE47B0AFAF9F8A4
:1001540012376A900263EBF0E47B0AFAF9F8900232
:1001640044E0FCA3E0FDA3E0FEA3E0FF12376A90A5
:100174000264EBF07B807A9679987800900248E0EC
:10018400FCA3E0FDA3E0FEA3E0FF12376AE47B0AD0
:10019400FAF9F812376A90025CEBF07B407A427904
:1001A4000F7800900248E0FCA3E0FDA3E0FEA3E08A
:1001B400FF12376AE47B0AFAF9F812376A90025D93
:1001C400EBF07BA07A8679017800900248E0FCA3EA
:1001D400E0FDA3E0FEA3E0FF12376AE47B0AFAF92C
:1001E400F812376A90025EEBF0E47B107A27F9F894
:1001F400900248E0FCA3E0FDA3E0FEA3E0FF123779
:100204006AE47B0AFAF9F812376A90025FEBF0E4C9
:100214007BE87A03F9F8900248E0FCA3E0FDA3E050
:10022400FEA3E0FF12376AE47B0AFAF9F812376A90
:10023400900270EBF0E47B64FAF9F8900248E0FC79
:10024400A3E0FDA3E0FEA3E0FF12376AE47B0AFA11
:10025400F9F812376A900271EBF0E47B0AFAF9F8C4
:10026400900248E0FCA3E0FDA3E0FEA3E0FF123708
:100274006AE47B0AFAF9F812376A900272EBF0E446
:100284007B0AFAF9F8900248E0FCA3E0FDA3E0FE43
:10029400A3E0FF12376A900273EBF09002847401BA
:1002A400F0A304F0A304F0A304F090029804F0A3D4
:1002B40004F0A304F0A304F09002A47401F09002EB
:1002C400A4E0FFD3940440030205BE744C2FF582CE
:1002D400E43402F583E0FF90025CE0FEEFB506250E
:1002E4009002A4E0FF244CF582E43402F583E0603C
:1002F40014900284E0FE74742FF582E43402F583D2
:10030400EEF00204499002A4E0FF244CF582E434A8
:1003140002F583E0FE90025DE0FDEEB50513744C3A
:100324002FF582E43402F583E0600690028502042E
:10033400389002A4E0FF244CF582E43402F583E013
:10034400FE90025EE0FDEEB50513744C2FF582E4D9
:100354003402F583E060069002860204389002A419
:10036400E0FF244CF582E43402F583E0FE90025F62
:10037400E0FDEEB50513744C2FF582E43402F583E9
:10038400E060069002870204389002A4E0FF244C47
:10039400F582E43402F583E0FE900270E0FDEEB5F0
:1003A4000513744C2FF582E43402F583E060069063
:1003B40002980204389002A4E0FF244CF582E4344D
:1003C40002F583E0FE900271E0FDEEB50512744C77
:1003D4002FF582E43402F583E0600590029980549D
:1003E4009002A4E0FF244CF582E43402F583E0FE9D
:1003F400900272E0FDEEB50512744C2FF582E434E0
:1004040002F583E0600590029A80299002A4E0FF3F
:10041400244CF582E43402F583E0FE900273E0FD9F
:10042400EEB50521744C2FF582E43402F583E060C7
:100434001490029BE0FF9002A4E02474F582E4345B
:1004440002F583EFF09002A4E0FF2460F582E43427
:1004540002F583E0FE90025CE0FDEEB505137460E6
:100464002FF582E43402F583E060069002840205ED
:10047400A49002A4E0FF2460F582E43402F583E052
:10048400FE90025DE0FDEEB5051374602FF582E485
:100494003402F583E060069002850205A49002A46C
:1004A400E0FF2460F582E43402F583E0FE90025E0E
:1004B400E0FDEEB5051374602FF582E43402F58394
:1004C400E060069002860205A49002A4E0FF246086
:1004D400F582E43402F583E0FE90025FE0FDEEB5C0
:1004E400051374602FF582E43402F583E06006900E
:1004F40002870205A49002A4E0FF2460F582E4349C
:1005040002F583E0FE900270E0FDEEB50513746021
:100514002FF582E43402F583E06006900298020528
:10052400A49002A4E0FF2460F582E43402F583E0A1
:10053400FE900271E0FDEEB5051274602FF582E4C1
:100544003402F583E0600590029980549002A4E09F
:10055400FF2460F582E43402F583E0FE900272E049
:10056400FDEEB5051274602FF582E43402F583E0E4
:10057400600590029A80299002A4E0FF2460F5822D
:10058400E43402F583E0FE900273E0FDEEB505214C
:1005940074602FF582E43402F583E0601490029BCA
:1005A400E0FF9002A4E02488F582E43402F583EFAE
:1005B400F09002A4E004F00202C27E007F287D00D5
:1005C4007B017A02794C1238AA9002A47401F0904B
:1005D40002A4E0FF2474F582E43402F583E0FE749F
:1005E4004C2FF582E43402F583EEF09002A4E0FF90
:1005F4002488F582E43402F583E0FE74602FF582EA
:10060400E43402F583EEF09002A4E004F0E0B405D3
:10061400BE9002A47401F09002A4E0FFD3940450AD
:100624002074742FF582E43402F583E4F074882F87
:10063400F582E43402F583E4F09002A4E004F0804F
:10064400D69002A07401F090029CF0E49002A4F011
:10065400900284E0FF90025CE06F60030206E29087
:100664000285E0FF90025DE06F7073900286E0FF08
:1006740090025EE06F7067900287E0FF90025FE097
:100684006F705B900298E0FF900270E06F704F9083
:100694000299E0FF900271E06F704390029AE0FFCC
:1006A400900272E06F703790029BE0FF900273E05B
:1006B4006F702B900065E0643460030210ED7F518D
:1006C400126CAB7F46125FFA7D077F2F125BA990F5
:1006D40002A3E0FD7F2D125BA97F50026CAB90005A
:1006E40065E064346003020BDC9002A4E004F0E0F3
:1006F400C39464400B126BBB125BA47F35125E9CE7
:1007040090029DE0FFC364809485504290029FE074
:10071400FD3395E0FC74822DF58274023CF583E090
:10072400FEEFFD3395E0FC74512DF58274023CF527
:1007340083E0B506199003517401F0A37402F0A389
:10074400744CF07B017A02799C7D03020ACE9002FC
:100754009EE0FFC3648094855040A3E0FD3395E0A0
:10076400FC74822DF58274023CF583E0FEEFFD33C8
:1007740095E0FC74562DF58274023CF583E0B506D1
:10078400199003517401F0A37402F0A3744CF07B2C
:10079400017A02799C7D03020B1F90029CE0FFC347
:1007A40064809485400302083490029FE0FD3395F1
:1007B400E0FC74822DF58274023CF583E0FEEFFDCB
:1007C4003395E0FC744C2DF58274023CF583E0B55E
:1007D40006199003517401F0A37402F0A3744CF051
:1007E4007B017A02799C7D03020A659002A3E0FFF3
:1007F4003395E0FE74962FF58274023EF583E0FF94
:1008040090029CE0FD3395E0FC744C2DF58274025B
:100814003CF583E0B507199003517401F0A3740209
:10082400F0A3744CF07B017A02799C7D07020A657F
:1008340090029CE0FFC3648094854003020A6AEF3F
:100844003395E0FE744C2FF58274023EF583E0FD8F
:10085400900284E0FCED6C604B744C2FF5827402C2
:100864003EF583E0FF900285E0FEEF6E6036900275
:100874009CE0FF3395E0FE744C2FF58274023EF544
:1008840083E0FD900286E0FCED6C6018744C2FF55B
:100894008274023EF583E0FF900287E0FEEF6E6013
:1008A4000302095490029DE0FF64056029EF33952B
:1008B400E0FE74512FF58274023EF583E0FF90024E
:1008C4009CE0FD3395E0FC744C2DF58274023CF5FC
:1008D40083E0D39F402490029DE0D36480948240BF
:1008E400199003517401F0A37402F0A3744CF07BCB
:1008F400017A02799C7D01020A6590029EE0FF6400
:10090400056029EF3395E0FE74562FF58274023E9C
:10091400F583E0FF90029CE0FD3395E0FC744C2DE0
:10092400F58274023CF583E0D39F402490029EE05C
:10093400D36480948240199003517401F0A374022B
:10094400F0A3744CF07B017A02799C7D02020A6563
:1009540090029CE0FF3395E0FE744C2FF582740204
:100964003EF583E0FD900298E0FCED6C604B744C26
:100974002FF58274023EF583E0FF900299E0FEEFCA
:100984006E603690029CE0FF3395E0FE744C2FF5C8
:100994008274023EF583E0FD90029AE0FCED6C6007
:1009A40018744C2FF58274023EF583E0FF90029B8D
:1009B400E0FEEF6E6003020A6A9002A1E0FF6405A4
:1009C4006029EF3395E0FE74652FF58274023EF5DD
:1009D40083E0FF90029CE0FD3395E0FC744C2DF520
:1009E4008274023CF583E0D39F40239002A1E0D3BC
:1009F4006480948240189003517401F0A37402F04F
:100A0400A3744CF07B017A02799C7D05805390029B
:100A1400A2E0FF64056029EF3395E0FE746A2FF5C8
:100A24008274023EF583E0FF90029CE0FD3395E082
:100A3400FC744C2DF58274023CF583E0D39F402670
:100A44009002A2E0D364809482401B90035174010D
:100A5400F0A37402F0A3744CF07B017A02799C7DBC
:100A640006E4FF0210E790029DE0FFC364809485D2
:100A74004003020B24A3E0FEC36480948540030278
:100A84000B24EEFD3395E0FC74562DF58274023C84
:100A9400F583E0FEEFFD3395E0FC74512DF582748F
:100AA400023CF583E0D39E402690029EE0D364800E
:100AB4009481401B9003517401F0A37402F0A37459
:100AC4004CF07B017A02799C7D027F010210E79051
:100AD400029DE0FFFD3395E0FC74512DF582740214
:100AE4003CF583E0FE90029EE0FD3395E0FC7456F5
:100AF4002DF58274023CF583E0D39E4023D3EF644A
:100B0400809481401B9003517401F0A37402F0A3FC
:100B1400744CF07B017A02799C7D017F020210E71C
:100B240090029DE0FFC3648094854003020BDCA324
:100B3400E0C3648094854003020BDC90029CE0FED9
:100B4400648094814042EEFD3395E0FC744C2DF5B5
:100B54008274023CF583E0FEEFFD3395E0FC7451B2
:100B64002DF58274023CF583E0D39E401B90035123
:100B74007401F0A37402F0A3744CF07B017A02793F
:100B84009CE4FD7F010210E790029CE0FFD36480A7
:100B940094814044EF3395E0FE744C2FF582740247
:100BA4003EF583E0FF90029EE0FD3395E0FC745631
:100BB4002DF58274023CF583E0D39F401B900351D2
:100BC4007401F0A37402F0A3744CF07B017A0279EF
:100BD4009CE4FD7F020210E7900065E06435600349
:100BE4000206549002A4E004F0E0C39464400B12A3
:100BF4006BBB125BA47F34125E9C9002A1E0FFC326
:100C04006480948550449002A3E0FD3395E0FC7425
:100C1400962DF58274023CF583E0FEEFFD3395E0FA
:100C2400FC74652DF58274023CF583E0B5061B90D7
:100C340003517401F0A37402F0A3744CF07B017AA5
:100C440002799C7D077F050210E79002A2E0FFC3B2
:100C5400648094855042A3E0FD3395E0FC74962DA6
:100C6400F58274023CF583E0FEEFFD3395E0FC74FD
:100C74006A2DF58274023CF583E0B5061B9003519E
:100C84007401F0A37402F0A3744CF07B017A02792E
:100C94009C7D077F060210E79002A0E0FFC36480FA
:100CA40094854003020D369002A3E0FD3395E0FCE9
:100CB40074962DF58274023CF583E0FEEFFD3395C6
:100CC400E0FC74602DF58274023CF583E0B5061BEC
:100CD4009003517401F0A37402F0A3744CF07B01EF
:100CE4007A02799C7D077F040210E790029FE0FF5F
:100CF4003395E0FE74822FF58274023EF583E0FFA3
:100D04009002A0E0FD3395E0FC74602DF58274023E
:100D14003CF583E0B5071B9003517401F0A3740202
:100D2400F0A3744CF07B017A02799C7D037F04026A
:100D340010E79002A0E0FFC3648094854003020F93
:100D440073EF3395E0FE74602FF58274023EF583F1
:100D5400E0FD900298E0FCED6C604B74602FF5822E
:100D640074023EF583E0FF900299E0FEEF6E603678
:100D74009002A0E0FF3395E0FE74602FF5827402C8
:100D84003EF583E0FD90029AE0FCED6C601874601F
:100D94002FF58274023EF583E0FF90029BE0FEEFA4
:100DA4006E6003020E5A9002A1E0FF64056029EF11
:100DB4003395E0FE74652FF58274023EF583E0FFFF
:100DC4009002A0E0FD3395E0FC74602DF58274027E
:100DD4003CF583E0D39F40269002A1E0D364809445
:100DE40082401B9003517401F0A37402F0A3744C6D
:100DF400F07B017A02799C7D057F040210E7900262
:100E0400A2E0FF64056029EF3395E0FE746A2FF5D4
:100E14008274023EF583E0FF9002A0E0FD3395E08A
:100E2400FC74602DF58274023CF583E0D39F402668
:100E34009002A2E0D364809482401B900351740119
:100E4400F0A37402F0A3744CF07B017A02799C7DC8
:100E5400067F040210E79002A0E0FF3395E0FE74E1
:100E6400602FF58274023EF583E0FD900284E0FC7D
:100E7400ED6C604B74602FF58274023EF583E0FFE5
:100E8400900285E0FEEF6E60369002A0E0FF33959D
:100E9400E0FE74602FF58274023EF583E0FD90025B
:100EA40086E0FCED6C601874602FF58274023EF5E8
:100EB40083E0FF900287E0FEEF6E6003020F739001
:100EC400029DE0FF64056029EF3395E0FE74512F25
:100ED400F58274023EF583E0FF9002A0E0FD3395B5
:100EE400E0FC74602DF58274023CF583E0D39F40EE
:100EF4002690029DE0D364809482401B9003517439
:100F040001F0A37402F0A3744CF07B017A02799C83
:100F14007D017F040210E790029EE0FF64056029D2
:100F2400EF3395E0FE74562FF58274023EF583E0AC
:100F3400FF9002A0E0FD3395E0FC74602DF582740F
:100F4400023CF583E0D39F402690029EE0D3648068
:100F54009482401B9003517401F0A37402F0A374B3
:100F64004CF07B017A02799C7D027F040210E790A9
:100F740002A1E0FFC364809485400302102DA3E026
:100F8400FEC364809485400302102DEEFD3395E08A
:100F9400FC746A2DF58274023CF583E0FEEFFD33A8
:100FA40095E0FC74652DF58274023CF583E0D39ED4
:100FB40040269002A2E0D364809481401B900351A8
:100FC4007401F0A37402F0A3744CF07B017A0279EB
:100FD4009C7D067F050210E79002A1E0FFFD33959A
:100FE400E0FC74652DF58274023CF583E0FE90020A
:100FF400A2E0FD3395E0FC746A2DF58274023CF5A1
:1010040083E0D39E4023D3EF64809481401B9003FC
:10101400517401F0A37402F0A3744CF07B017A02C2
:10102400799C7D057F060210E79002A1E0FFC3646E
:101034008094854003020654A3E0C36480948540F1
:10104400030206549002A0E0FE648094814041EEC5
:10105400FD3395E0FC74602DF58274023CF583E069
:10106400FEEFFD3395E0FC74652DF58274023CF5CA
:1010740083E0D39E401A9003517401F0A37402F0EC
:10108400A3744CF07B017A02799C7D047F05805324
:101094009002A0E0FFD3648094815003020654EFD1
:1010A4003395E0FE74602FF58274023EF583E0FF11
:1010B4009002A2E0FD3395E0FC746A2DF58274027F
:1010C4003CF583E0D39F500302065490035174010E
:1010D400F0A37402F0A3744CF07B017A02799C7D36
:0910E400047F061221B602065435
:0110ED0022E0
:055BA400EF14FD7F2D50
:105BA900900364EDF0900363EFF0642F6003025CEF
:105BB900DBA3E0B408004003025D26905BCBF82824
:105BC9002873025BE3025C00025C1D025C39025C23
:105BD90055025C77025C99025CBB900064E0B440BA
:105BE90009A3E064347003025D26900065E0B435D2
:105BF9000312629B025CD6900064E0B43F09A3E003
:105C090064347003025D26900065E0B435031262C6
:105C19009B025CB7900064E0B43D09A3E064347072
:105C290003025D26900065E0B4350312629B805C37
:105C3900900064E0B43C09A3E064347003025D267B
:105C4900900065E0B4350312629B801E900064E009
:105C5900B43C09A3E064357003025D26900065E059
:105C6900B434077D357F3E12629F7F3C806190008E
:105C790064E0B43D09A3E064357003025D26900039
:105C890065E0B434077D357F3E12629F7F3D803FDA
:105C9900900064E0B43F09A3E064357003025D2617
:105CA900900065E0B434077D357F3E12629F7F3FE7
:105CB900801D900064E0B44006A3E06435605E9006
:105CC9000065E0B434077D357F3E12629F7F400254
:105CD90063E2900363E0642D7043A3E014600F1442
:105CE900601014601114601224047012801B7F4824
:105CF90080287F4A80247F4C80207F4E801C90031F
:105D090064E0C36480948050047F46800D900364EE
:0E5D1900E0D36480948540057F4E125FFA222D
:1021B60090034CEFF0A3EDF0A3EBF0A3EAF0A3E954
:0121C600F028
:1021C7001235B8FF9000011235D1900306F0900048
:1021D700021235D1900307F09000031235D1900316
:1021E70008F09000041235D1900309F09000051211
:1021F70035D190030AF09000061235D190030BF009
:102207009000071235D1126BF4900354EFF090034E
:102217004CE0FF600E6401600AEF64026005EF6442
:1022270003703D900065E06434702890034EE0FB36
:10223700A3E0FAA3E0F91235B8FF9000011235D1F7
:10224700900306F09000021235D1900307F090003A
:10225700038059900065E06435600302231D805CAC
:1022670090034CE0FF64046012EF6405600DEF64B7
:10227700066008EF6407600302231D900065E064B1
:1022870035703190034EE0FBA3E0FAA3E0F990002C
:10229700041235D1FF9000051235D1900306F09056
:1022A70000061235D1900307F09000071235D19040
:1022B7000308805C900065E06434705A90034EE038
:1022C700FBA3E0FAA3E0F91235B8FF90000112353D
:1022D700D1900306F09000021235D1900307F090D9
:1022E70000031235D1900308F09000041235D19005
:1022F7000309F09000051235D190030AF09000060B
:102307001235D190030BF09000071235D190030CD2
:10231700126BF7125BA490034CE0FD7F2F125BA9B1
:1023270090034EE0FBA3E0FAA3E0F990034CE0F53D
:10233700827583001235D1FD7F2D125BA97F501264
:102347006CAB90034CE0FEB408004003022E9B9058
:10235700235DF828287302237502246F0225D00213
:10236700270D02287D0229ED022B2A022CB29003A9
:102377004DE0FD14B407004003022E9B9023917596
:10238700F003A4C58325F0C583730223A60223BFE8
:102397000223C10223EC02241702241902244490C9
:1023A7000354E02402FFC00790034EE0FBA3E0FACA
:1023B700A3E0F98E820224B58058900354E02402EA
:1023C700FFC00790034EE0FBA3E0FAA3E0F99003F8
:1023D7004CE0F5827583001235D104900306F09026
:1023E7000001022952900354E02402FFC007900322
:1023F7004EE0FBA3E0FAA3E0F990034CE0F5827509
:1024070083001235D104900306F09000010227E5FE
:102417008000900354E02402FFC00790034EE0FBC6
:10242700A3E0FAA3E0F990034CE0F582758300126C
:1024370035D104900306F0900001022C0E9003544E
:10244700E02402FFC00790034EE0FBA3E0FAA3E0FD
:10245700F990034CE0F5827583001235D10490039F
:1024670006F090000102287090034DE0FDB40800CB
:102477004003022E9B902483F828287302249B0292
:102487002E9B0224C50224F302251E02254902259C
:10249700770225A5900354E02402FFC00790034E5E
:1024A700E0FBA3E0FAA3E0F990034CE0F582758323
:1024B700001235D104900306F08D82022E7F90031F
:1024C70054E02402FFC00790034EE0FBA3E0FAA309
:1024D700E0F990034CE0F5827583001235D1049042
:1024E7000306F090034DE0F582022E7F900354E03F
:1024F7002402FFC00790034EE0FBA3E0FAA3E0F934
:1025070090034CE0F5827583001235D104900306E1
:10251700F0900002022C0E900354E02402FFC00743
:1025270090034EE0FBA3E0FAA3E0F990034CE0F53B
:10253700827583001235D104900306F090000502DE
:102547002C0E900354E02402FFC00790034EE0FBDB
:10255700A3E0FAA3E0F990034CE0F582758300123B
:1025670035D104900306F090034DE0F582022E7FEB
:10257700900354E02402FFC00790034EE0FBA3E062
:10258700FAA3E0F990034CE0F5827583001235D188
:1025970004900306F090034DE0F582022E7F90032E
:1025A70054E02402FFC00790034EE0FBA3E0FAA328
:1025B700E0F990034CE0F5827583001235D1049061
:1025C7000306F0900006022C0E90034DE0FDB408C0
:1025D700004003022E9B9025E4F82828730225FC6F
:1025E7000225FF022E9B02262D02265B022686026B
:1025F70026B40226E2022B56900354E02402FFC0C1
:102607000790034EE0FBA3E0FAA3E0F990034CE048
:10261700F5827583001235D104900306F090034DBF
:10262700E0F582022E7F900354E02402FFC007905A
:10263700034EE0FBA3E0FAA3E0F990034CE0F58238
:102647007583001235D104900306F090034DE0F531
:1026570082022E7F900354E02402FFC00790034EAE
:10266700E0FBA3E0FAA3E0F990034CE0F582758361
:10267700001235D104900306F0900005022C0E904D
:102687000354E02402FFC00790034EE0FBA3E0FAE7
:10269700A3E0F990034CE0F5827583001235D1046D
:1026A700900306F090034DE0F582022E7F900354CD
:1026B700E02402FFC00790034EE0FBA3E0FAA3E08B
:1026C700F990034CE0F5827583001235D10490032D
:1026D70006F090034DE0F582022E7F900354E0242C
:1026E70002FFC00790034EE0FBA3E0FAA3E0F990D6
:1026F700034CE0F5827583001235D104900306F090
:10270700900006022C0E90034DE0FDB40800400334
:10271700022E9B902721F828287302273902276465
:1027270002278F022E9B0227BD0227F202281D02D5
:102737002848900354E02402FFC00790034EE0FBB3
:10274700A3E0FAA3E0F990034CE0F5827583001249
:1027570035D104900306F0900002022D0390035434
:10276700E02402FFC00790034EE0FBA3E0FAA3E0DA
:10277700F990034CE0F5827583001235D10490037C
:1027870006F0900002022C0E900354E02402FFC0D2
:102797000790034EE0FBA3E0FAA3E0F990034CE0B7
:1027A700F5827583001235D104900306F090034D2E
:1027B700E0F582022E7F900354E02402FFC00790C9
:1027C700034EE0FBA3E0FAA3E0F990034CE0F582A7
:1027D7007583001235D104900306F090000212357C
:1027E700D1900307F0900005022DBB900354E0241D
:1027F70002FFC00790034EE0FBA3E0FAA3E0F990C5
:10280700034CE0F5827583001235D104900306F07E
:10281700900002022C0E900354E02402FFC00790A0
:10282700034EE0FBA3E0FAA3E0F990034CE0F58246
:102837007583001235D104900306F0900002022C34
:102847000E900354E02402FFC00790034EE0FBA361
:10285700E0FAA3E0F990034CE0F5827583001235A6
:10286700D104900306F09000021235D1900307F0CF
:10287700900006022DBB90034DE0FDB40800400315
:10288700022E9B902891F82828730228A90228D4A1
:102897000228FF02292A022E9B02295F02298D02A4
:1028A70029B8900354E02402FFC00790034EE0FBD1
:1028B700A3E0FAA3E0F990034CE0F58275830012D8
:1028C70035D104900306F0900005022D03900354C0
:1028D700E02402FFC00790034EE0FBA3E0FAA3E069
:1028E700F990034CE0F5827583001235D10490030B
:1028F70006F0900005022C0E900354E02402FFC05E
:102907000790034EE0FBA3E0FAA3E0F990034CE045
:10291700F5827583001235D104900306F090000507
:10292700022C0E900354E02402FFC00790034EE0F0
:10293700FBA3E0FAA3E0F990034CE0F5827583006E
:102947001235D104900306F09000051235D190039B
:1029570007F0900002022DBB900354E02402FFC051
:102967000790034EE0FBA3E0FAA3E0F990034CE0E5
:10297700F5827583001235D104900306F090034D5C
:10298700E0F582022E7F900354E02402FFC00790F7
:10299700034EE0FBA3E0FAA3E0F990034CE0F582D5
:1029A7007583001235D104900306F0900005022CC0
:1029B7000E900354E02402FFC00790034EE0FBA3F0
:1029C700E0FAA3E0F990034CE0F582758300123535
:1029D700D104900306F09000051235D1900307F05B
:1029E700900006022DBB90034DE0FDB408004003A4
:1029F700022E9B902A01F8282873022A19022A1C02
:102A0700022A4A022A78022AA3022E9B022AD1020C
:102A17002AFF022B56900354E02402FFC0079003BD
:102A27004EE0FBA3E0FAA3E0F990034CE0F58275D2
:102A370083001235D104900306F090034DE0F58230
:102A4700022E7F900354E02402FFC00790034EE05C
:102A5700FBA3E0FAA3E0F990034CE0F5827583004D
:102A67001235D104900306F090034DE0F582022E53
:102A77007F900354E02402FFC00790034EE0FBA3BE
:102A8700E0FAA3E0F990034CE0F582758300123574
:102A9700D104900306F0900002022C0E900354E03C
:102AA7002402FFC00790034EE0FBA3E0FAA3E0F97E
