:0300000002171EC6
:0C171E00787FE4F6D8FD75815202176553
:0B1AD90025730A00526561647921004A
:10181200121914E4900038F0A3F09000407428F0FC
:10182200A37447F0A37440F0A37436F0A3742BF0B2
:101832007525FF75261A7527DD7BFF7A1A79D9126D
:1018420006F0C2AFE4900023F0FD7F21120B017D70
:10185200007F22120B017D007F23120B017D007F8E
:0D18620024120B017D007F20120B0180FE7F
:03000300020006F2
:0100060032C7
:03000B00021A4A8C
:101A4A00C0E0C0F0C083C082C0D075D00812198D22
:0B1A5A00D0D0D082D083D0F0D0E0329A
:03001B00021A6561
:101A6500C0E0C0F0C083C082C0D075D00812193E56
:0B1A7500D0D0D082D083D0F0D0E0327F
:1018E5006021004561A800C8003A032014029A024D
:1018F500AC02AC029A01F401F405C8084A084A0092
:0E1905001401F407D0041100000000011000CE
:0617AA007D0C7F017E00B2
:1017B000ED24F5601A14603624027055EF1FAC0654
:1017C00070011ED39400EC94004046000080EDEFC1
:0E17D0001FAC0670011ED39400EC9400403351
:0E17DE00000075220C7523A8D523FDD522FA34
:1017EC0080E1EF1FAC0670011ED39400EC94004016
:0117FC0014D8
:1017FD0075222E7523997524F5D524FDD523FAD59B
:02180D0022F7C0
:02180F0080DD7A
:0118110022B4
:101A9800438E805389F0438901758A20758CD1C2A1
:061AA8008DD2A9D2AF228D
:101AAE00538EBF53890F438910758BE0758DB1C26C
:061ABE008FD2ABD2AF2273
:10198D00758A20758CD1E5142401F514E43513F511
:10199D0013E43512F512E43511F511900025E0B47C
:0619AD000103120D692286
:10193E00758BE0758DB1900020E0FBA3E0FAA3E07B
:10194E00F912051DFF645A6004EFB45B0A9000267D
:08195E00E0B4020312121C2286
:101A800020B2FD7D0B7F147E001217B030B2FD7DB9
:081A90000B7F007E010217B07C
:10191400E4F5977593FFF594F5917592FC7595F040
:1019240075960FD2A1D2A3C297121AE4121A981272
:0A1934001AAE121AC4D2B2021A80D1
:0B1AE400E4F5D8F5F9F5E975D9082202
:1019B300AC07E412012E7B337A337923784012008B
:0F19C3001E1201628FEA8FFA75DA42E4F5F22202
:1019D200AC07E412012E7B337A337923784012006C
:0F19E2001E1201628FEB8FFB75DB42E4F5F322DF
:040AFD007D647F2273
:100B0100151DA81DA605151DA81DA607A81D08E6EB
:100B1100FFD3648094E44007A81D087664800DC368
:100B2100EF6480941C5005A81D08769CA81DE6FF63
:100B310024E2B407004003020D64900B4975F003F1
:100B4100A4C58325F0C58373020B5E020BA7020BBC
:100B5100E8020C6C020CA7020CE2020D2490003E8C
:100B6100E0B50703020D64A81DE690003EF0A81D44
:100B710008A900E77003020C1AA81D08E6FFD36458
:100B81008094804005D2DE020C1BA81D08E6FFC33D
:100B9100648094804003020D64D2DE121AEF1219B0
:100BA100D2D295020D6490003FE0FFA81DE6FEB58C
:100BB1000703020D6490003FEEF0A81D08A900E7AD
:100BC10070028075A81D08E6FFD3648094804004FC
:100BD100D2DE8066A81D08E6FFC3648094804003CE
:100BE100020D64D2DE807990003EE0FFA81DE6FE92
:100BF100B5070AA3E0FFEEB50703020D64A81DE6E1
:100C010090003FF090003EF0A81D08A900E7701287
:100C1100C2DEFF1219B3C292E4FF1219D2C29502C9
:100C21000D64A81D08E6FFD3648094804014D2DED1
:100C31001219D2C295A81D08E6FF1219B3C2920279
:100C41000D64A81D08E6FFC3648094804003020D73
:100C510064D2DE121AEF1219D2D295A81D08E6FF4E
:100C6100121AEF1219B3D292020D6490003AE0FF0A
:100C7100A81DE6FEB50703020D6490003AEEF0A848
:100C81001D08E6FF7004D2978073D3EF64809480CF
:100C91004005D297020D1EC3EF6480948040030289
:100CA1000D64D297806790003BE0FFA81DE6FEB57A
:100CB1000703020D6490003BEEF0A81D08E6FF70EB
:100CC10004D297807AD3EF648094804005D2970252
:100CD1000D60C3EF648094804003020D64D297805D
:100CE1006E90003CE0FFA81DE6FEB50702807490FF
:100CF100003CEEF0A81D08E6FF7008C297C2A0D222
:100D0100A18060D3EF648094804008C297C2A0C2E2
:100D1100A18050C3EF648094805048C297D2A0C292
:100D2100A1804090003DE0FFA81DE6FEB5070280CE
:100D31003290003DEEF0A81D08E6FF7008C297C290
:100D4100A2D2A3801ED3EF648094804008C297C2D0
:100D5100A2C2A3800EC3EF648094805006C297D2D2
:080D6100A2C2A3051D051D221D
:10186F008F19900041E065196031E519B4470C7D7F
:10187F009C7F21120B0130B30C80FB7D647F211202
:10188F000B0120B4FD7D0B7F147E001217B07D007D
:0C189F007F21120B01900041E519F0229E
:101470008F1A900043E0651A7003021584E51A2460
:10148000CD601F14605914700302151D14700302FF
:10149000156124046003021577120AFD20B5FD02D0
:1014A000156B900043E024CC601A14602014602671
:1014B000240460030215777D9C7F22120B019000AB
:1014C0004E02155A120AFD90005002155A120AFDDA
:1014D00090005A02155A120AFD90005E02155A90A9
:1014E0000043E024CD601A24FE6022146027240407
:1014F00060030215777D9C7F22120B0190005680BD
:10150000597D9C7F22120B01900050804D120AFDE4
:101510009000528045120AFD900058803D90004393
:10152000E024CD601714602024FE60282404704756
:101530007D9C7F22120B0190005C801E7D9C7F228F
:10154000120B0190005A80127D9C7F22120B019099
:1015500000528006120AFD900054E0FEA3E0FF80D6
:10156000117D9C7F22120B0120B6FD90004DE0FF03
:101570007E007D0B1217B07D007F22120B019000C0
:0515800043E51AF02212
:1010D8008F1B900042E0651B700302121BE51B2466
:1010E800C4B40900400302120E9010FF75F003A467
:1010F800C58325F0C5837302111A02112902114311
:1011080002116102117E02119B0211B80211D5026F
:1011180011F57D647F23120B01C29620A4FD0212F3
:1011280001900042E0FFE51BD39F40057D9C021122
:10113800EB7F3E1210D87D640211EB900042E0FF75
:10114800E51BC39F50047D6480027D9C7F23120BA6
:1011580001C29620A5FD021201900042E0FFE51BA6
:10116800D39F40097F3E1210D87D9C80077F401294
:1011780010D87D64806D900042E0FFE51BC39F504E
:10118800047D6480027D9C7F23120B01C29620A6F9
:10119800FD8066900042E0FFE51BD39F40097F4039
:1011A8001210D87D9C80077F421210D87D6480334E
:1011B800900042E0FFE51BC39F50047D6480027DE0
:1011C8009C7F23120B01C29620A7FD802C90004221
:1011D800E0FFE51BD39F40097F421210D87D9C8019
:1011E800027D647F23120B0190004B800F7D9C7F52
:1011F80023120B01D29620A4FD900049E0FEA3E043
:10120800FF7D0B1217B07D007F23120B0190004267
:04121800E51BF022C0
:100F80008F1C900044E0FF651C70030210D7D296BE
:100F9000E51C24D760581470030210361470030245
:100FA000107D240360030210CAEF24D66020146071
:100FB0002D240260030210CA7D9C7F24120B0112B3
:100FC00017AA20A5FD30A5FD20A5FD0210BD7D645A
:100FD0007F24120B011217AA20A5FD0210BD7D9CD3
:100FE0007F24120B011217AA20A5FD0210BD90004C
:100FF00044E024D6602014602D240360030210CA4C
:101000007D647F24120B011217AA20A5FD30A5FDD7
:1010100020A5FD0210BD7D9C7F24120B011217AA92
:1010200020A5FD0210BD7D647F24120B011217AABA
:1010300020A5FD0210BD900044E024D7601B24FED3
:101040006026240360030210CA7D9C7F24120B01DA
:101050001217AA20A5FD0210BD7D647F24120B018A
:101060001217AA20A5FD80557D9C7F24120B01122A
:1010700017AA20A5FD30A5FD20A5FD8040900044C5
:10108000E024D760161460222402703E7D647F2421
:10109000120B011217AA20A5FD80227D9C7F24122D
:1010A0000B011217AA20A5FD80137D647F24120B6B
:1010B000011217AA20A5FD30A5FD20A5FD90006016
:1010C000E0FEA3E0FF7D0B1217B07D007F24120B22
:0810D00001900044E51CF02230
:10121C00900023E0F53EF53F30872C208029AC3E32
:10122C00E412012EE4FBFAF9783F12001E1201625F
:10123C008F3EAC3FE412012EE4FBFA79C0783F12EA
:10124C00001E1201628F3F30802C208729AC3EE4B7
:10125C0012012EE4FBFA79C0783F12001E120162D3
:10126C008F3EAC3FE412012EE4FBFAF9783F1200FA
:10127C001E1201628F3F30862E20812BAC3EE41271
:10128C00012E7433FBFAF9783F12001E1201628FA3
:10129C003EAC3FE412012E7B667A6679A6783F124B
:1012AC00001E1201628F3F30812E20862BAC3EE453
:1012BC0012012E7B667A6679A6783F12001E120107
:1012CC00628F3EAC3FE412012E7433FBFAF9783F87
:1012DC0012001E1201628F3F30852E20822BAC3EF5
:1012EC00E412012E7466FBFAF9783F12001E12010B
:1012FC00628F3EAC3FE412012E7BCD7ACC798C7898
:10130C003F12001E1201628F3F30822E20852BACC3
:10131C003EE412012E7BCD7ACC798C783F12001EE4
:10132C001201628F3EAC3FE412012E7466FBFAF997
:10133C00783F12001E1201628F3FAD3E7F1F120BD1
:08134C0001AD3F7F1E020B0101
:1016810020872B20862830842530832220811F202B
:10169100801C3085032082062085132082107D0B5B
:1016A1007F0A7E001217B07D007F20020B01208689
:1016B1000330870B7D107F1E120B017DF0805620B9
:1016C100810330800B7DF07F1E120B017D10804560
:1016D10020840B7DF47F1E120B017D0C803720834B
:1016E1000B7D0C7F1E120B017DF4802930821120AD
:1016F100850E7DF87F1E120B017D087F1F120B01E5
:101701002085030216813082030216817D087F1E27
:0D171100120B017DF87F1F120B01021681E3
:100D6900900020E0FBA3E0FAA3E0F912051D24A6F8
:100D7900603E147003020F01147003020E1D245DFE
:100D89006003020F7F7D007F20120B019000257404
:100D990002F07E007F207D007B017A007900120637
:100DA900629000207401F0A37400F0A37400F02293
:100DB900900020E0FBA3E0FAA3E0F99000011205FE
:100DC900366040208703308019308616308513300D
:100DD9008410A2828283500A308107900026740110
:100DE900F022900026E064016003020F7F7402F094
:100DF900900020E0FBA3E0FAA3E0F990000174FF62
:100E0900020563900021E475F0021205BA7D007FA6
:100E190020020B01E510147003020ED114700302B5
:100E29000EF324026003020F7F900020E0FBA3E091
:100E3900FAA3E0F990000112053624B0601D24FEE2
:100E4900604F1460312402707C900024E0FD7F1E05
:100E5900120B01900024E0F4048010900024E0F4C7
:100E690004FD7F1E120B01900024E0FD7F1F120B71
:100E7900019000628034900024E0FD7F1E120B0176
:100E8900900024E0F404FD7F1F120B0190006480A0
:100E990019900024E0F404FD7F1E120B0190002438
:100EA900E0FD7F1F120B01900064E0FEA3E0FFEF5D
:100EB9002514FFEE3513FEE43512FDE43511FC90DF
:100EC90000271205EF051022AF14AE13AD12AC11B5
:100ED900900027E0F8A3E0F9A3E0FAA3E0FBC3122E
:100EE90005DE5003020F7F051022208403020F7FC5
:100EF900208303020F7F8060E51014603F04707641
:100F0900900020E0FBA3E0FAA3E0F99000011205AC
:100F190036FF3395E0FE7C007D0A1205A8EE339575
:100F2900E0FDFCEF2514FFEE3513FEED3512FDEC67
:100F39003511FC9000271205EF051022AF14AE13EE
:100F4900AD12AC11900027E0F8A3E0F9A3E0FAA3F1
:100F5900E0FBD31205DE501E7D007F20120B0190AD
:100F69000021E475F0021205BA9000271205FB0072
:060F7900000000E4F51089
:010F7F00224F
:0D000E00E4F5C7F5C5F5C675C380F5C4223D
:1019F10075C78375C5018FC48EC375C65A75C6A5D3
:0E1A01007D0A7F0A7E001217B0AFC212000EDF
:011A0F0022B4
:101A100075C78375C5028FC48EC38DC275C65A75CE
:0E1A2000C6A57D0A7F0A7E001217B002000ED6
:101A2E0075C78375C5038FC48EC375C65A75C6A593
:0C1A3E007D0A7F0A7E001217B002000E25
:101585007F321214707F3612147085141885131764
:101595008512168511157F321214707F361214705C
:1015A500C3E5149518F518E5139517F517E5129584
:1015B50016F516E5119515F515AF18AE17AD16FC10
:1015C500E41201247B147AAE79C7783E12001E120C
:1015D50001628F188E178D168C15E4120124E4FB19
:1015E500FAF9783F12001E120162900056EEF0A340
:1015F500EFF0A3EEF0A3EFF0AF18AE17AD16AC15F4
:10160500E4120124E4FBFA7940783F12001E12012E
:101615006290005EEEF0A3EFF090005CEEF0A3EFB9
:10162500F0AF18AE17AD16AC15E4120124E4FBFAC1
:101635007980783E12001E120162900054EEF0FD92
:10164500A3EFF090004ECDF0A3EDF0900052EEF038
:10165500A3EFF0900050EEF0A3EFF0AF18AE17AD8A
:1016650016AC15E4120124E4FBFAF9783F12001ECA
:0B16750012016290005AEEF0A3EFF0AB
:011680002247
:101AC400438780759850438E04759CD9438E014397
:051AD4008E10D29922E2
:101354007F4612186F1217AA7F4712186F1217AA26
:101364007F4612186F1217AA7F4712186F1217AA16
:101374009000437436F07F321214701217AA7F362D
:101384001214701217AA7F321214701217AA7F3621
:101394001214701217AA7F3C1210D81217AA7F3E9B
:1013A4001210D81217AA7F401210D81217AA7F421F
:1013B4001210D81217AA7F441210D81217AA7F420B
:1013C4001210D81217AA7F401210D81217AA7F3E03
:1013D4001210D81217AA7F3C1210D8900044E09043
:1013E4000037F09000447428F07F2B120F801217FE
:1013F400AA7F28120F801217AA7F2B120F801217B0
:10140400AA7F28120F801217AA900037E090004498
:10141400F07D3C7F20120B011217AA7D007F201261
:101424000B011217AA7DC47F20120B011217AA7D8B
:10143400007F20120B011217AA7D287F1F120B01B7
:101444007DD87F1E120B011217AA7D007F20120B7C
:10145400011217AA7DD87F1F120B017D287F1E124F
:0C1464000B011217AA7D007F20020B0173
:0218AB008F406C
:1018AD00755000755100755241AB500552E552AA65
:1018BD00517002055114F912051DFEEEC39F500221
:1018CD00AF06AB500552E552AA517002055114F9FD
:0718DD0012051DFEBEFFE431
:0118E40022E1
:0100070022D6
:10001E00EC4D6011E8497017ED33EC3304600DE4DC
:10002E00FCFFFEFD22E933E8330470F80201CE1224
:10003E00019958046009E4CC248150062850090225
:10004E0001D82840030201D5C0E0EB4A7044B980C4
:10005E0006D0E0FB0201C4EF4E701CBD8008EBFF22
:10006E00EAFEE9FD80EBE98DF0A4FEE5F002010762
:10007E00E9CDF9EAFEEBFFEF89F0A4FCE5F0CE89BD
:10008E00F0A42EFFE435F0CD89F0A42DFEE435F07A
:10009E008067EF4E7005BD80D780C3EF8BF0A4ACA8
:1000AE00F0EE8BF0A42CFCE435F0F8EF8AF0A42CE3
:1000BE00E5F038FCE433CB8DF0A42CFCE5F03BF8F6
:1000CE00EE8AF0A42CFCE5F038F8E433CF89F0A4E6
:1000DE002CFCE5F038CF3400CE89F0A42FFFE5F0EC
:1000EE003EFEE433C98DF0A42EFEE5F039CD8AF044
:1000FE00A42FFFE5F03EFEE43DFD33D0E0FB5007BC
:10010E000BBB000F0201D8EC2CFCEF33FFEE33FEDD
:06011E00ED33FD0201B00B
:1001240075F020800E75F010800575F0087D007E56
:10013400007F003392D530D5031205D0EC33401044
:10014400EF33FFEE33FEED33FDEC33FCD5F0ED225F
:0E015400E5F0247EA2D513CC92E7CDCEFF229B
:10016200EDD2E7CD33EC3392D524814006E4FFFE95
:10017200FDFC22FCE4CFCECDCC24E0501174FF80F4
:10018200EDC3CC13CCCD13CDCE13CECF13CF047091
:07019200F030D5DE0205D0BC
:10068E00E5392425F8E60539227822300702782547
:10069E00E475F00112062C02051D2000EB7F2ED210
:1006AE00008018EF540F2490D43440D4FF30040B44
:1006BE00EF24BFB41A0050032461FFE53A6002151F
:1006CE003A053DE53D7002053C30070D7822E47594
:1006DE00F00112062CEF0205960219667403D2077A
:1006EE008003E4C207F5398B228A238924E4F53A84
:1006FE00F53CF53DE53A60077F201206C980F57599
:10070E003BFFC201C200C202C203C205C206C2083A
:10071E00120697FF700D3007057F001206DAAF3D07
:10072E00AE3C22B4255FC2D5C204120697FF24D078
:10073E00B40A00501A75F00A783A30D50508B6FF9B
:10074E000106C6A426F620D5047002D20380D92451
:10075E00CFB41A00EF5004C2E5D2040209C7D20189
:10076E0080C6D20080C0D20280BCD2D580BAD2055B
:10077E0080B47F201206C92002077401B53A0040EA
:10078E00F112068EFF1206C9020702D208D20680A7
:10079E009512068EFB12068EFA12068EF94A4B70D1
:1007AE000679BE7A0A7BFF20022EE53A602A7E0089
:1007BE008E8275830012053660060EEE653B70F074
:1007CE00C2D5EBC0E0EAC0E0E9C0E0EE120A27D0E5
:1007DE00E0F9D0E0FAD0E0FB12051DFF60AAEBC0F5
:1007EE00E0EAC0E0E9C0E01206C9D0E02401F9D089
:1007FE00E03400FAD0E0FBE53B0460DCD53BD98069
:10080E0087D20280A2120A0A60F7E53B7001041239
:10081E0001E3A93B600DE53B600914F53B120AB1FB
:10082E00EF60F3EA30E702F404C3995077EAF42557
:10083E003B0430E701E404F53B800D120A0A60C167
:10084E00EA053B253B1201E3EA7838F630E701E48E
:10085E00253B04D53B0420050114120A27E4C0E011
:10086E00120AB17838E6601320E70714F61206B1C3
:10087E00802204F6D0E014C0E07F001206B1E53B02
:10088E0060071206A8153B800B3005031206A8D090
:10089E00E0020702D0E00480C5120A0A60A0E53B20
:1008AE00041201E37838EAF6E53B20050260010404
:0508BE002404120A27CA
:1008C30074FF04C0E0120AB11206B1E53B20050231
:1008D30060031206A8D0E0B53BE87F451206BB785B
:1008E30038E67F2B30E7047F2DF404C0E01206C9FD
:1008F300D0E075F00A84C0F01206B2D0E01206B25E
:10090300020702791080027908C206C2088008D261
:10091300D5790A8004790AC2D5E53B047002F53B18
:10092300E4FAFDFEFF12068EFC7B0820011312067B
:100933008EFD7B1030000A12068EFE12068EFF7BA0
:1009430020EC3382D592D55013C3E43000069FFFC9
:10095300E49EFEE42001039DFDE49CFCE4CBF8C28D
:1009630001EC700CCFCECDCCE824F8F870F38017EF
:10097300C3EF33FFEE33FEED33FDEC33FCEB33FB20
:10098300994002FB0FD8E9EB300105F8D0E0C448E9
:10099300B201C0E00AEC4D4E4F78207B0070C2EAF2
:1009A300B53B0040BCC0E0120A29D0F0D0E02001E2
:1009B30004C4C0E0C4B201C0F01206B2D0F0D5F056
:1009C300EB02070212063C079F5309065807704CB7
:1009D300076C42090A4F0912440912490785430962
:1009E300185508494608A7450813470ADE500774F7
:1009F3002D07782E079B2B077C230799200AC72AEC
:100A030007344800000793E53BB4FF03753B061228
:100A1300068EFC12068EFD12068EFE12068EFF78DF
:100A230031020212790AA2D5200314300509B91044
:100A3300020404B9080104A2D520060250010420CF
:100A430002689202B53A005034C0E07F20300319A7
:100A53007F30A20272067205500F120A80C202C2D0
:100A630006C205C2087F30800F300503E9C0E012DB
:100A730006C9300503D0E0F9D0E0B53ACC3005170C
:100A83007F30B9100C1206C97F583004077F788075
:100A930003B908031206C93002057F2D0206C97F78
:100AA300202008F87F2B2006F322920280CF7F00BC
:100AB300B4070050052431F8E6FF22286E756C6CEC
:100AC3002900D20112068E3001F8C201783A30D5DE
:100AD3000108F60207342D5043495812068E2403A9
:100AE300B405004001E4900AD9931206BA743A128D
:0A0AF30006BAD203753A04020906A0
:10019900E9D2E7C933E833F892D5EDD2E7CD33ECAC
:0701A90033FC5002B2D52225
:1001B000EC30E7100FBF000C0EBE00080DBD0004B0
:1001C0000BEB6014A2D5EB13FCED92E7FD2274FF5C
:1001D000FCFDFEFF22E480F8A2D574FF13FC7D80B5
:0301E000E480EFC9
:1001E300F920E72824F950037907E4F42402FB18E3
:1001F300DBFDE624FB5014E9600DE4F618E604F693
:0F020300B40A08E4F6D9F57401F60A22C2D5222E
:10021200ED33EC3392D5FA602AB4FF33EDC2E77BBB
:10022200FF60067A027937E4227A02794020D50407
:100232007A02793B224E614E002B494E46002D49EF
:100242004E4600E47A08F608DAFC7B00740722E8DE
:10025200C0E0ECC0E0EDC0E0EEC0E0EFC0E0EA7567
:10026200F010A4CAABF075F04DA42BFBE435F0FC02
:10027200EA2410FAEB34C5FBEC34D9FCEDC2E7FFFB
:1002820075F056A4F42411C5F0F434C58FF0A42AF5
:10029200E5F03BE43CF620E7141204DDD0E0FFD0A9
:1002A200E0FED0E0FDD0E0FC1204108014F4041251
:1002B20004DDD0E0FFD0E0FED0E0FDD0E0FC120093
:1002C2001ED0E0F8E6FAEDD2E7CD33EC332482FB20
:1002D200E4C3CF33CFCE33CECD33CD33DBF37B0785
:1002E20075F00A846004F6081B0AE5F0F6088FF040
:1002F200740AA4FFACF08EF0740AA42CFEACF05089
:10030200010C8DF0740AA42CFDE435F0F608DBDE56
:030312007407224B
:100315000201CEE86480F8E933E83360110460F047
:10032500ED33EC337009E8FCE9FDEAFEEBFF22044E
:1003350060DED3EB9FEA9EE99DE8C2E78CF0C2F749
:1003450095F0400CE8CCF8E9CDF9EACEFAEBCFFB15
:1003550012019985D0F05804700320D5B3E80470D4
:10036500075002B2D50201D892D5EC0460F7E4CC6F
:10037500C0E0C398F8603B94186008400DD0E0FBDE
:100385000201B0E4FBFAC9FC8028E830E406E4C9C0
:10039500FBE4CAFCE830E305E4C9CACBFCE8540732
:1003A5006010F8C3E913F9EA13FAEB13FBEC13FC3D
:1003B500D8F130F52FC3E49CFCEF9BFFEE9AFEEDE0
:1003C50099FDD0E0FBEF4E4D4C701222DB0302018C
:1003D500D5EC2CFCEF33FFEE33FEED33FDED30E7CE
:1003E500EB0201B0EF2BFFEE3AFEED39FDD0E0FB5D
:1003F50050130BBB00030201D8ED13FDEE13FEEF06
:0804050013FFEC13FC0201B02F
:10040D000201D8EC5D046005E8590470030201CEC9
:10041D00120199580460F6EC4860F2EC7004FDFE90
:10042D00FF22C860DB2481C85009C39860025006C2
:10043D000201D59850CAF582E9294B4A7005AB8265
:10044D000201C475F0007C1A7880C3EF9BEE9AED23
:10045D0099400DC3EF9BFFEE9AFEED99FDE842F03A
:10046D00DC23ACF0D0E0FFD0E0FED0E0FDAB82208D
:10047D00E7101BEB60BAEC2CFCEF33FFEE33FEED17
:10048D0033FD0201B0E803F830E705C0F075F00068
:10049D00EF2FFFEE33FEED33FD40B830E7C280AAFB
:1004AD003F8000004120000042C80000447A000057
:1004BD00461C400047C35000497424004B189680D9
:1004CD004CBEBC205A0E1BCA6753C21C749DC5AED0
:1004DD00FB60065407601C232312050BEB54386098
:1004ED00091204F712050612001EECF8EDF9EEFAEA
:1004FD00EFCB22EB12050680F1543803241C900437
:10050D00ADFE93FC0EEE93FD0EEE930ECE93FF22F9
:10172A00021812E493A3F8E493A34003F68001F2AB
:10173A0008DFF48029E493A3F85407240CC8C333C0
:10174A00C4540F4420C8834004F456800146F6DF8F
:10175A00E4800B01020408102040809018E5E47E22
:10176A00019360BCA3FF543F30E509541FFEE49384
:10177A00A360010ECF54C025E060A840B8E493A34B
:10178A00FAE493A3F8E493A3C8C582C8CAC583CA76
:10179A00F0A3C8C582C8CAC583CADFE9DEE780BE2E
:0119130000D3
:10051D00BB010689828A83E0225002E722BBFE02DC
:09052D00E32289828A83E493220F
:10053600BB010CE58229F582E5833AF583E022507A
:1005460006E92582F8E622BBFE06E92582F8E222C4
:0D055600E58229F582E5833AF583E49322DE
:10056300BB010FF8E58229F582E5833AF583E0289C
:10057300F0225009C58229F8E58226F622BBFE093E
:10058300C58229F8E22582F222F8EA2583F583E978
:0305930093282288
:10059600BB010689828A83F0225002F722BBFE0144
:0205A600F3223E
:1005A800EF8DF0A4A8F0CF8CF0A428CE8DF0A42E67
:0205B800FE2221
:1005BA00C5F0F8A3E028F0C5F0F8E58215827002CC
:0605CA001583E038F02269
:0E05D000C3E49FFFE49EFEE49DFDE49CFC223C
:1005DE00EB9FF5F0EA9E42F0E99D42F0E89C45F073
:0105EE0022EA
:0C05EF00ECF0A3EDF0A3EEF0A3EFF0227F
:1005FB00A8828583F0D083D08212061212061212C3
:10060B000612120612E473E493A3C583C5F0C583E7
:10061B00C8C582C8F0A3C583C5F0C583C8C582C849
:01062B0022AC
:10062C00FAE6FB0808E6F925F0F618E6CA3AF622CF
:10063C00D083D082F8E4937012740193700DA3A34D
:10064C0093F8740193F5828883E473740293686061
:06065C00EFA3A3A380DF61
:10196600EFB40A07740D121971740A309811A89908
:10197600B8130CC2983098FDA899C298B811F630E1
:0719860099FDC299F59922B9
:081AEF00EF30E703F404FF22CD
:10066200EF4E6012EF60010EEDBB010B89828A83AF
:10067200F0A3DFFCDEFA2289F05007F709DFFCA9BC
:0C068200F022BBFEFCF309DFFCA9F02213
:00000001FF
