:03000000025E9508
:0C5E9500787FE4F6D8FD758122025EDC07
:106475006D61696E206F7574707574203A25640AB4
:016485000016
:105D55009002A87451F0A37446F0A37440F0A374A4
:105D650035F07B32E4FDFF1259799002A87433F0C7
:105D7500A304F0A3E4F0A304F0A37408F0A3740152
:105D8500F0A37432F0A37435F0A3E4F0A37403F028
:105D9500A37408F0A37405F0A37433F0A37435F06D
:105DA500A3E4F0A37403F0A3740AF0A37402F0A3B0
:105DB5007432F0A37435F0A37403F0A37435F07B4B
:105DC500047D08E4FF12444E9002A87408F0A37401
:105DD50033F0E4FB7D0A7F031210EEEF3395E0907C
:105DE50002AFF0A3EFF07BFF7A6479751236B40247
:025DF500621832
:03000300020006F2
:0100060032C7
:03000B000263A1EC
:1063A100C0E0C0F0C083C082C0D075D00812631DA8
:0B63B100D0D0D082D083D0F0D0E032FA
:03001B000263BCC1
:1063BC00C0E0C0F0C083C082C0D075D0081264A702
:0B63CC00D0D0D082D083D0F0D0E032DF
:1051670066756E5F7761697428293B0A0066756EFC
:105177005F737A2868616E5F73293B0A0066756EF4
:105187005F737A2868616E5F6A293B0A0066756EED
:105197005F7079287472615F71293B0A0066756ECA
:1051A7005F7079287472615F6B71293B0A006675BD
:1051B7006E5F7079287472615F7A293B0A006675A1
:1051C7006E5F7079287472615F6B68293B0A0066AD
:1051D700756E5F7079287472615F68293B0A006693
:1051E700756E5F736A28736A705F31293B0A0066C0
:1051F700756E5F736A28736A705F3132293B0A00E4
:1052070066756E5F736A28736A705F32293B0A009E
:1052170066756E5F736A28736A705F3233293B0A5B
:105227000066756E5F736A28736A705F33293B0A7D
:105237000066756E5F736A28736A705F3334293B43
:105247000A0066756E5F736A28736A705F34293B5C
:105257000A0066756E5F736A28736A705F34352952
:105267003B0A0066756E5F736A28736A705F35293B
:105277003B0A0066756E5F687A286469725F7570AD
:10528700293B0A0066756E5F687A286469725F64F5
:105297006F776E293B0A0066756E5F687A286469C6
:1052A700725F6C656674293B0A0066756E5F687A83
:1052B700286469725F7269676874293B0A0025640C
:1052C7000A002564202D2D3E2025640A0025730A37
:1052D7000052656164792100456E64210025643AB6
:1052E7002564202C2025643A2564202C2025643A47
:0C52F7002564202C2025643A25640A0060
:1062C7006027021061A800C8003A03202D02580277
:1062D7000D020D021C048304420451041A06C7066A
:0E62E70063001404B002BC07D007D0011B00F6
:06609A007D167F017E006F
:1060A0008E158F16ED24EB601D14603C2402705E8B
:1060B000E5161516AE1570021515D39400EE940072
:1060C000404C000080EAE5161516AE157002151555
:0860D000D39400EE9400403669
:0E60D800000075100C7511A8D511FDD510FA39
:1060E60080DEE5161516AE1570021515D39400EE72
:0460F60094004014BE
:1060FA0075122E7513997514F5D514FDD513FAD5A5
:02610A0012F78A
:02610C0080DA37
:01610E00226E
:10640B00438E805389F0438901758A20758CD1C2E4
:06641B008DD2A9D2AF22D0
:10642100538EBF53890F438910758BE0758DB1C2AF
:066431008FD2ABD2AF22B6
:10631D00758A20758CD1E51F2401F51FE4351EF516
:10632D001EE4351DF51DE4351CF51C900046E0B44A
:06633D000B031230F222F6
:0764A700758BE0758DB12239
:0E648600D2B212609A7BFF7A5179670236B467
:0B649400E4F5D8F5F9F5E975D9082208
:1063D700EF75F019A4FFAEF07C007D0A12287A8FC2
:0A63E700EA8FFA75DA42E4F5F222BB
:1063F100EF75F019A4FFAEF07C007D0A12287A8FA8
:0A640100EB8FFB75DB42E4F5F3229C
:09468F0090037DE0F404FD7F2896
:104698009002ACEDF0D3648094E440057464F0803B
:1046A8000E9002ACE0C36480941C5003749CF0EF3D
:1046B80024D8B4070040030248CC9046D075F003D4
:1046C800A4C58325F0C583730246E502472C02473B
:1046D8006A0247DF02481802485102488F9002AC2C
:1046E800E0FF90005FE0B507012290005FEFF090D7
:1046F80002ACE0FB7003024795D3EB6480948040E2
:1047080009D2DE9002ACE00247959002ACE0FFC30C
:104718006480948040030248CCD2DE12649F126306
:10472800F1D295229002ACE0FF900060E0B507015D
:1047380022900060EFF09002ACE0FB7002806AD338
:10474800EB648094804008D2DE9002ACE0805A90FE
:1047580002ACE0FFC36480948040030248CCD2DE00
:10476800806C9002ACE0FF90005FE0B50706A3E024
:10477800B5070122900060EFF090005FF09002AC66
:10478800E0FB7010C2DEFF1263D7C292E4FF12632F
:10479800F1C29522D3EB648094804014D2DE90025B
:1047A800ACE0FF1263F1C295E0FF1263D7C2922218
:1047B8009002ACE0FFC36480948040030248CCD2EE
:1047C800DE12649F1263F1D2959002ACE0FF12648E
:1047D8009F1263D7D292229002ACE0FF90005BE078
:1047E800B507012290005BEFF09002ACE0FF700487
:1047F800D2978070D3EF648094804005D2970248A6
:104808008AC3EF6480948040030248CCD2978063C7
:104818009002ACE0FF90005CE0B507012290005CDC
:10482800EFF09002ACE0FF7004D2978075D3EF648C
:104838008094804005D2970248C8C3EF6480948072
:1048480040030248CCD29780689002ACE0FF900009
:104858005DE0B507012290005DEFF09002ACE0FF4B
:104868007007C297C2A0D2A122D3EF64809480407F
:1048780007C297C2A0C2A122C3EF648094805044AB
:10488800C297D2A0C2A1229002ACE0FF90005EE0E5
:10489800B507012290005EEFF09002ACE0FF7007D0
:1048A800C297C2A2D2A322D3EF648094804007C2E9
:1048B80097C2A2C2A322C3EF648094805006C29715
:0548C800D2A2C2A322F0
:104E0F00900044E0FF3395E0FEC3E49FFDE49EFC79
:024E1F007F28EA
:104E21009002DCECF0A3EDF0D39464EC6480948008
:104E3100400B9002DCE4F0A37464F08018C390028C
:104E4100DDE0949C9002DCE06480947F500774FF65
:104E5100F0A3749CF0EF24D7606C147003024F2010
:104E610024026003024FBC90005FE0FF3395E0FE37
:104E71009002DCE0FCA3E0FDB50705ECB5060122DC
:104E810090005FEDF09002DCE0FAA3E0FB4A7003D2
:104E9100024F69D3EB9400EA64809480400AD2DE29
:104EA1009002DCA3E0024F699002DCE0FEA3E0FF88
:104EB100C3EE648094804003024FBCD2DE12649F33
:104EC1001263F1D29522900060E0FF3395E0FE90ED
:104ED10002DCE0FCA3E0FDB50705ECB5060122907C
:104EE1000060EDF09002DCE0FAA3E0FB4A700302FF
:104EF1004F8DD3EB9400EA64809480400AD2DE9017
:104F010002DCA3E0024F8D9002DCE0FEA3E0FFC3D0
:104F1100EE648094804003024FBCD2DE024FB49015
:104F2100005FE0FF3395E0FE9002DCE0FCA3E0FDD2
:104F3100B50716ECB50612900060E0FF3395E0FE70
:104F4100EDB50705ECB5060122AF05900060EFF065
:104F510090005FF09002DCE0FAA3E0FB4A7010C21F
:104F6100DEFF1263D7C292E4FF1263F1C29522D32E
:104F7100EB9400EA648094804019D2DE9002DCA3B5
:104F8100E0FF1263F1C2959002DCA3E0FF1263D748
:104F9100C292229002DCE0FEA3E0FFC3EE648094A3
:104FA100805018D2DE12649F1263F1D2959002DC18
:0C4FB100A3E0FF12649F1263D7D292228B
:10625A00900379EFF0900062E06F602E900379E08E
:10626A007BFFB451067A51797480047A5179841289
:10627A0036B47D157F147E001260A0E4FD7F2B12D8
:0B628A004698900379E0900062F0223B
:10616D0090037AEFF0900064E06F604D90037AE059
:10617D0024C3601514601A14601F14602424047065
:10618D00297BFF7A517994801E7BFF7A5179A48007
:10619D00167BFF7A5179B5800E7BFF7A5179C580D8
:1061AD00067BFF7A5179D61236B4E4FD7F2C124668
:0A61BD009890037AE0900064F0224D
:105DF70090037BEFF0900063E06F7003025E94C244
:105E07009690037BE024BAB409005072905E217526
:105E1700F003A4C58325F0C58373025E3C025E448C
:105E2700025E4C025E54025E5C025E64025E6C02BD
:105E37005E74025E7C7BFF7A5179E6803E7BFF7A57
:105E47005179F680367BFF7A527907802E7BFF7A6D
:105E570052791780267BFF7A527928801E7BFF7A3A
:105E670052793880167BFF7A527949800E7BFF7A08
:105E770052795980067BFF7A52796A1236B4E4FD6B
:0E5E87007F2D12469890037BE0900063F0227E
:1061C70090037CEFF0900065E06F6044D2969003F7
:1061D7007CE024CD601214601714601C2403702126
:1061E7007BFF7A52797A80167BFF7A52798B800E01
:1061F7007BFF7A52799E80067BFF7A5279B11236FD
:10620700B4E4FD7F2E12469890037CE0900065F081
:016217002264
:0455FB007D347F3E3E
:1055FF00900373EFF0A3EDF024CE603314604524D5
:10560F00FE601804705C900065E024CE60091460A1
:10561F000824FE704D803C803A803C900065E02469
:10562F00CE6008146007147039802C802A80249073
:10563F000065E024CD600B24FE6005047024801704
:10564F008011800F900065E024CE600F24FD60076D
:10565F0004700F7D9C80067D6480027D647F2E1216
:10566F004698900373E0FF12616DD29612609A9084
:10567F000374E024CD603414605514607724036004
:10568F0003025732900065E024CC60151460172494
:10569F0002600302573220A5FD30A5FD20A5FD8035
:1056AF007520A5FD807020A5FD806B900065E0241E
:1056BF00CC60121460142403706920A5FD30A5FD81
:1056CF0020A5FD805120A5FD804C20A5FD80479091
:1056DF000065E024CD600D24FE600E24037044208D
:1056EF00A5FD803220A5FD802D20A5FD30A5FD2034
:1056FF00A5FD8022900065E024CD600C14600E247F
:10570F0002702020A5FD800E20A5FD800920A5FD9B
:10571F0030A5FD20A5FD90022DE0FEA3E0FF7D1535
:10572F001260A0E4FD7F2E124698900374E0900063
:03573F0065F022F0
:09418D00900346EFF0A3EDF0FBF6
:10419600A3122A2A0000000090034C122A2A0000CB
:1041A600FFFFE4900350F0A3F0A3F0900065E0FF5A
:1041B6006B7003024254900347E024CD601C1460E8
:1041C6002E1460432403706EEF24CC60091460083B
:1041D60024027062802D803E8040900065E024CCF1
:1041E60060091460082403704D803E802D8027905E
:1041F6000065E024CD600A24FE6008240370378041
:104206001980137D9C8024900065E024CD600B14FA
:104216006017240270207D6480027D9C7F2E1246EA
:10422600989003517401F0800D7D647F2E1246989C
:104236009003517402F0E51F24E8FFE51E3403FEE7
:10424600E4351DFDE4351CFC90034C122A1E90003B
:1042560063E0FF900346E0FE6F6016EEC39F5004D6
:104266007D6480027D9C7F2D124698900350024407
:104276001490005EE0700990005DE0700302444D0A
:10428600900350E0FB640160030243AC900346E0F8
:1042960024BAB4090040030243E09042AE75F0032D
:1042A600A4C58325F0C583730242C90242DD0242DA
:1042B600F802430B02432102433402434A02435DA0
:1042C600024378C2967D147F147E001260A030A44B
:1042D600030243E0024386C2967D147F147E0012D9
:1042E60060A0900063E06446602F30A5030243E0BF
:1042F600807BC2967D147F147E001260A030A503D9
:104306000243E0807BC2967D147F147E001260A07B
:1043160030A50630A6030243E08052C2967D147F84
:10432600147E001260A030A6030243E08052C296BB
:104336007D147F147E001260A030A60630A703020B
:1043460043E08029C2967D147F147E001260A0305F
:10435600A7030243E08029C2967D147F147E0012D3
:1043660060A030A708900063E0644E706D9002165E
:104376008011D2967D147F147E001260A020A45A6C
:10438600900214E0FEA3E0FFEF251FFFEE351EFEB0
:10439600E4351DFDE4351CFC900348122A1E9003EB
:1043A600507402F08034EBB40230AF1FAE1EAD1D68
:1043B600AC1C900348E0F8A3E0F9A3E0FAA3E0FB05
:1043C600D3122A0D5014E4FD7F2D124698E4900373
:1043D60050F0900346E0900063F0AF1FAE1EAD1D97
:1043E600AC1C90034CE0F8A3E0F9A3E0FAA3E0FBD1
:1043F600D3122A0D4003024277900351E0602CD27B
:10440600967D147F147E001260A030A507A3740168
:10441600F0024277900352E0640160030242779013
:104426000351E014F0E4A3F0024277E4FD7F2E127C
:10443600469890034C122A2A0000FFFF900347E09B
:07444600900065F0024277CF
:01444D00224C
:0B3ACC00900338EFF0A3EDF0A3EBF047
:103AD700A3122A2A0000000090033F122A2A00009E
:103AE700FFFFE4900343F0A3F0A3F0C22290006528
:103AF700E0FF6B7003023B9790033AE024CD601C14
:103B070014602E1460432403706EEF24CC600914F4
:103B1700600824027062802D803E8040900065E03E
:103B270024CC60091460082403704D803E802D80EA
:103B370027900065E024CD600A24FE600824037006
:103B470037801980137D9C8024900065E024CD6028
:103B57000B146017240270207D6480027D9C7F2EE9
:103B67001246989003447401F0800D7D647F2E12F5
:103B770046989003447402F0E51F24E8FFE51E34DD
:103B870003FEE4351DFDE4351CFC90033F122A1E9D
:103B9700900063E0FF900339E0FE6F6016EEC39F6D
:103BA70050047D6480027D9C7F2D124698900343CC
:103BB700023E2C90005EE0700F90005DE07009906F
:103BC7000343E07003023E65900343E024FE700365
:103BD700023D16147003023D4F147003023D711429
:103BE7007003023DC824046003023DF8900339E0E6
:103BF70024BAB409004003023DF8903C0F75F00366
:103C0700A4C58325F0C58373023C2A023C3E023CCF
:103C17005A023C6E023C84023C97023CAD023CC017
:103C2700023CDEC2967D147F147E001260A030A491
:103C370003023DF8023CEFC2967D147F147E00120A
:103C470060A0900063E06446603130A503023DF850
:103C5700023CD9C2967D147F147E001260A030A565
:103C670003023DF8023CEFC2967D147F147E0012DA
:103C770060A030A50630A603023DF88055C2967DA8
:103C8700147F147E001260A030A603023DF880580E
:103C9700C2967D147F147E001260A030A60630A75E
:103CA70003023DF8802CC2967D147F147E001260BB
:103CB700A030A703023DF8802FC2967D147F147EA3
:103CC700001260A030A70B900063E0644E6003020F
:103CD7003DF89002168014D2967D147F147E001250
:103CE70060A030A403023DF8900214E0FEA3E0FFB9
:103CF700EF251FFFEE351EFEE4351DFDE4351CFCE8
:103D070090033B122A1E9003437402F0023DF8AF62
:103D17001FAE1EAD1DAC1C90033BE0F8A3E0F9A35A
:103D2700E0FAA3E0FBD3122A0D4003023DF8E4FDBD
:103D37007F2D124698E4900343F07403F090033903
:103D4700E0900063F0023DF8900338E0B440047D52
:103D57009C8009900338E0B43C077D647F2C1246B1
:103D6700989003437404F0023DF8900338E0FBB4E5
:103D7700402420B621900218E0FFEF251FFFE4350D
:103D87001EFEE4351DFDE4351CFC90033B122A1E84
:103D97009003437405F0EB643C705620B5539002D2
:103DA70018E0FFEF251FFFE4351EFEE4351DFDE497
:103DB700351CFC90033B122A1E9003437405F080C8
:103DC70030AF1FAE1EAD1DAC1C90033BE0F8A3E067
:103DD700F9A3E0FAA3E0FBD3122A0D5014E4FD7F08
:103DE7002C124698E4900343F0900338E090006467
:103DF700F0AF1FAE1EAD1DAC1C90033FE0F8A3E073
:103E0700F9A3E0FAA3E0FBD3122A0D4003023BBA61
:103E1700900344E0602CD2967D147F147E001260DC
:103E2700A030A507A37401F0023BBA900345E064F4
:103E3700016003023BBA900344E014F0E4A3F002EC
:103E47003BBAE4FD7F2E12469890033F122A2A00C0
:0E3E570000FFFF90033AE0900065F0023BBAD6
:013E6500223A
:105CB20020872B20862830842530832220811F20B4
:105CC200801C3085032082062085132082107D15DA
:105CD2007F0A7E001260A0E4FD7F2A02469820849B
:105CE2000B7D0C7F281246987DF4800C20830E7D5C
:105CF200F47F281246987D0C7F2912469830820E36
:105D020020850B7D087F281246987DF8800F30850C
:105D12001120820E7DF87F281246987D087F291275
:105D2200469820860330870B7DF07F281246987DA7
:105D320010800F20810330800E7D107F281246983C
:105D42007DF07F291246987D157F647E001260A047
:035D5200025CB23E
:1030F200900040E0FBA3E0FAA3E0F91227BB249C76
:10310200603F14700302344B14700302335724E4FB
:103112006003023648E4FDFC7F2A124E21900046ED
:10312200740CF07E007F407D007B017A00790012F2
:103132002AAD9000407401F0A37400F0A37400F073
:1031420022900040E0FBA3E0FAA3E0F99000011214
:1031520027D4700302334520870330802330862032
:1031620030851D30841AA2828283501430811190DE
:103172000047740BF0900043E0FD3395E0023351B9
:10318200900047E0B40B16740CF0900040E0FBA3F3
:10319200E0FAA3E0F990000174FF022801900043D5
:1031A200E0FF3395E0F5198F1AF5178F183085393E
:1031B200208236E5182415FFE43517FE7C007D0ACF
:1031C2001228CFC3E5189FF518E5179EF517C374AB
:1031D20063951AFFE49519FE7C007D0A1228CFEF51
:1031E200251AF51AEE3519F519308239208536C3BC
:1031F20074639518FFE49517FE7C007D0A1228CFB0
:10320200EF2518F518EE3517F517E51A2415FFE422
:103212003519FE7C007D0A1228CFC3E51A9FF51AE4
:10322200E5199EF519308643208140E5182415FFE3
:10323200E43517FE7C007D031228687D0A1228CF30
:10324200C3E5189FF518E5179EF517C37463951A21
:10325200FFE49519FE7C007D031228687D0A12287E
:10326200CFEF251AF51AEE3519F51930814320866C
:1032720040C374639518FFE49517FE7C007D03122A
:1032820028687D0A1228CFEF2518F518EE3517F5B4
:1032920017E51A2415FFE43519FE7C007D03122878
:1032A200687D0A1228CFC3E51A9FF51AE5199EF523
:1032B20019308743208040E5182415FFE43517FEB6
:1032C2007C007D051228687D0A1228CFC3E5189F6D
:1032D200F518E5179EF517C37463951AFFE495195F
:1032E200FE7C007D051228687D0A1228CFEF251A80
:1032F200F51AEE3519F5192080030236362087407B
:10330200C374639518FFE49517FE7C007D051228AF
:10331200687D0A1228CFEF2518F518EE3517F51734
:10332200E51A2415FFE43519FE7C007D0512286894
:103332007D0A1228CFC3E51A9FF51AE5199EF519E1
:10334200023636900041E475F002122905E4FDFCD4
:103352007F2A023645E51B14700302341E147003E3
:1033620002344024026003023648900040E0FBA38E
:10337200E0FAA3E0F99000011227D424A6602D24DC
:10338200FE606714603C2402600302341B90004418
:10339200E0FD3395E0FC7F28124E21900044E0FFCF
:1033A2003395E0FEC3E49FFDE49E800B124E0F9026
:1033B2000044E0FD3395E0FC7F29124E219002315A
:1033C200803C900044E0FD3395E0FC7F28124E21C2
:1033D200900044E0FF3395E0FEC3E49FFDE49EFCD1
:1033E2007F29124E219002358014124E0F90004414
:1033F200E0FD3395E0FC7F29124E21900235E0FE7C
:10340200A3E0FFEF251FFFEE351EFEE4351DFDE4B0
:10341200351CFC900048122A1E051B22AF1FAE1E4F
:10342200AD1DAC1C900048E0F8A3E0F9A3E0FAA3BC
:10343200E0FBD3122A0D4003023648051B222085E9
:103442006B2082030236488063E51B1460420460ED
:1034520003023648900040E0FBA3E0FAA3E0F990B3
:1034620000011227D4FF3395E0FE7C007D0A12286A
:1034720068EE3395E0FDFCEF251FFFEE351EFEEDF5
:10348200351DFDEC351CFC900048122A1E051B223E
:10349200AF1FAE1EAD1DAC1C900048E0F8A3E0F9D2
:1034A200A3E0FAA3E0FBD3122A0D5020E4FDFC7F37
:1034B2002A124E21900041E475F002122905900073
:1034C20048122A2A00000000E4F51B22900045E081
:1034D200FF3395E0F5198F1AF5178F1830873620CC
:1034E2008033AC17AD18EC1222C17433FBFAF978B1
:1034F2003F1221B61222FA8E178F18AC19AD1AECB0
:103502001222C17B667A6679A6783F1221B6122210
:10351200FA8E198F1A308036208733AC17AD18EC2B
:103522001222C17B667A6679A6783F1221B61222F0
:10353200FA8E178F18AC19AD1AEC1222C17433FB34
:10354200FAF9783F1221B61222FA8E198F1A3086B2
:1035520037208134AC17AD18EC1222C17BCD7ACC66
:10356200794C783F1221B61222FA8E178F18AC19B5
:10357200AD1AEC1222C17B9A7A997999783F12217D
:10358200B61222FA8E198F1A308137208634AC1780
:10359200AD18EC1222C17B9A7A997999783F12215F
:1035A200B61222FA8E178F18AC19AD1AEC1222C17C
:1035B2007BCD7ACC794C783F1221B61222FA8E1941
:1035C2008F1A308536208233AC17AD18EC1222C127
:1035D2007466FBFAF9783F1221B61222FA8E178F1F
:1035E20018AC19AD1AEC1222C17BCD7ACC798C7849
:1035F2003F1221B61222FA8E198F1A308236208596
:1036020033AC17AD18EC1222C17BCD7ACC798C7811
:103612003F1221B61222FA8E178F18AC19AD1AEC8E
:103622001222C17466FBFAF9783F1221B61222FA0D
:103632008E198F1AAD1AAC197F29124E21AD18AC12
:06364200177F28124E2143
:01364800225F
:0B5F21009002DEEFF0A3EDF0A3EBF028
:105F2C00E4FF90030904F0A37402F0A374E180135E
:105F3C00EE64826025AD070F74002DF582E4340009
:105F4C00F583EEF0900309E0FBA3E475F001122950
:105F5C001BA9F0FA1227BBFE80D674002FF582E441
:105F6C003400F5837482F0900047740CF09000407C
:105F7C007401F0A37400F0A37400F09002DEE090C2
:105F8C000043F09002DFE0900044F09002E0E090DB
:075F9C000045F0A3740BF0B7
:015FA30022DB
:054FBD00900364EDF01B
:104FC200A3EFF0900365E070030251602087033085
:104FD200802430862130851E30841BA28282835039
:104FE20015308112900368740BF0900364E0FD7F2A
:104FF2002A12469880CD900368E0B40B0B740CF033
:10500200900365E014F080BB900364E0900367F0C6
:10501200900366F0308527208224A3E0FF75F00A12
:1050220084FEC3EF9EF0900366E0FFC374649FFFAB
:10503200E49400FE7C007D0A12287AE02FF0308290
:1050420029208526900367E0FFC374649FFFE494E0
:1050520000FE7C007D0A12287AE02FF0900366E0C1
:10506200FF75F00A84FEC3EF9EF030863320813054
:10507200900367E0FF75F00A8475F003A4FEC3EFA6
:105082009EF0900366E0FFC374649FFFE49400FE09
:105092007C007D0A12287AEF75F003A4FFE02FF05E
:1050A200308133208630900367E0FFC374649FFF32
:1050B200E49400FE7C007D0A12287AEF75F003A4C6
:1050C200FFE02FF0900366E0FF75F00A8475F003AD
:1050D200A4FEC3EF9EF0308733208030900367E058
:1050E200FF75F00A8475F005A4FEC3EF9EF09003ED
:1050F20066E0FFC374649FFFE49400FE7C007D0AB7
:1051020012287AEF75F005A4FFE02FF030803320EB
:105112008730900367E0FFC374649FFFE49400FE4E
:105122007C007D0A12287AEF75F005A4FFE02FF0CB
:10513200900366E0FF75F00A8475F005A4FEC3EFE4
:105142009EF0900366E0FD7F29124698900367E087
:10515200FD7F281246987D1512609C024FC57D285E
:055162007F280248CD8A
:105FA40090037DEDF0EF24A6601D24FE604614608E
:105FB400282402705990037DE0FD7F2812469890B2
:105FC400037DE0F404800712468F90037DE0FD7F9B
:105FD4002912469890022F802B90037DE0FD7F28A4
:105FE40012469890037DE0F404FD7F2912469890B0
:105FF4000233801012468F90037DE0FD7F29124604
:1060040098900233E0FEA3E0FF7D151260A0208586
:0B601400FD2082FAE4FD7F2A0246987E
:0548CD0090036DEDF009
:1048D200EF75F00AA4FFEF251FFFE5F0351EFEE499
:1048E200351DFDE4351CFC900048122A1EAF1FAE98
:1048F2001EAD1DAC1C900048E0F8A3E0F9A3E0FA5D
:10490200A3E0FBD3122A0D5003024AA490036DE0E8
:1049120090036FF090036EF0308738208035A3E06B
:10492200FCE41222C67433FBFAF9783F1221B61264
:1049320022FA90036FEFF090036EE0FCE41222C6BD
:104942007B667A6679A6783F1221B61222FA900324
:104952006EEFF030803A20873790036FE0FCE4126C
:1049620022C67B667A6679A6783F1221B61222FAAF
:1049720090036FEFF090036EE0FCE41222C67433F2
:10498200FBFAF9783F1221B61222FA90036EEFF089
:1049920030863B20813890036FE0FCE41222C67B14
:1049A200CD7ACC794C783F1221B61222FA90036F5D
:1049B200EFF090036EE0FCE41222C67B9A7A9979BA
:1049C20099783F1221B61222FA90036EEFF03081ED
:1049D2003B20863890036FE0FCE41222C67B9A7A71
:1049E200997999783F1221B61222FA90036FEFF06B
:1049F20090036EE0FCE41222C67BCD7ACC794C782F
:104A02003F1221B61222FA90036EEFF030853A205F
:104A1200823790036FE0FCE41222C67466FBFAF957
:104A2200783F1221B61222FA90036FEFF090036ED4
:104A3200E0FCE41222C67BCD7ACC798C783F12213D
:104A4200B61222FA90036EEFF030823A2085379048
:104A5200036FE0FCE41222C67BCD7ACC798C783FDE
:104A62001221B61222FA90036FEFF090036EE0FC6F
:104A7200E41222C67466FBFAF9783F1221B61222BA
:104A8200FA90036EEFF090036EE0FD7F29124698D4
:104A920090036FE0FD7F281246987D1512609C02FC
:094AA20048EFE4FD7F2A0246986A
:0D000E00E4F5C7F5C5F5C675C380F5C4223D
:1063640075C78375C5018FC4EEF5C375C65A75C666
:0F637400A57D147F0A7E001260A0AFC212000E3A
:0163830022F7
:1063430075C78375C5028FC4EEF5C3AF058FC275DC
:10635300C65A75C6A57D147F0A7E001260A002008E
:016363000E2B
:1063840075C78375C5038FC4EEF5C375C65A75C644
:0D639400A57D147F0A7E001260A002000E9D
:104AAB007F3C12616D7F4012616DAF1FAE1EAD1D5D
:104ABB00AC1C900369122A1E7F3C12616D7F401261
:104ACB00616D900369E0F8A3E0F9A3E0FAA3E0FBC2
:104ADB00C3E51F9BFFE51E9AFEE51D99FDE51C989E
:104AEB00FC900369122A1E900369E0FCA3E0FDA36E
:104AFB00E0FEA3E0FFE41222BCE4FBFAF9783F12DC
:104B0B0021B61222FA900369122A1E900369E0FC67
:104B1B00A3E0FDA3E0FEA3E0FFE41222BCE4FBFA5A
:104B2B00F9783F1221B61222FA900223EEF0A3EF8E
:104B3B00F0900221EEF0A3EFF0900369E0FCA3E00C
:104B4B00FDA3E0FEA3E0FFE41222BCE4FBFA7940F4
:104B5B00783F1221B61222FA900229EEF0A3EFF061
:104B6B00900369E0FCA3E0FDA3E0FEA3E0FFE412E9
:104B7B0022BC7B4E7A627910783F1221B61222FA50
:104B8B0090022BEEF0A3EFF0900369E0FCA3E0FDA5
:104B9B00A3E0FEA3E0FFE41222BC7B7B7A1479AE88
:104BAB00783E1221B61222FA900219EEF0A3EFF022
:104BBB00900369E0FCA3E0FDA3E0FEA3E0FFE41299
:104BCB0022BC7B8C7A4A798A783E1221B61222FA61
:104BDB0090021FEEF0A3EFF0900369E0FCA3E0FD61
:104BEB00A3E0FEA3E0FFE41222BC7B377A89794174
:104BFB00783E1221B61222FA90021BEEF0A3EFF0D0
:104C0B00900369E0FCA3E0FDA3E0FEA3E0FFE41248
:104C1B0022BC7BCD7ACC794C783E1221B61222FA8B
:104C2B0090021DEEF0A3EFF0900369E0FCA3E0FD12
:104C3B00A3E0FEA3E0FFE41222BCE4FBFAF9783F09
:104C4B001221B61222FA900225EEF0A3EFF0A3EE9A
:044C5B00F0A3EFF0E3
:014C5F002232
:10646200438780759850438E04759CD9438E0143AF
:036472008E102267
:105742007F5012625A12609A7F5112625A12609A04
:105752007F5012625A12609A7F5112625A12609AF4
:105762009000647440F07F3C12616D12609A7F4039
:1057720012616D12609A7F3C12616D12609A7F40D5
:1057820012616D12609A7F46125DF712609A7F482D
:10579200125DF712609A7F4A125DF712609A7F4C8F
:1057A200125DF712609A7F4E125DF712609A7F4C7B
:1057B200125DF712609A7F4A125DF712609A7F4873
:1057C200125DF712609A7F46125DF7900065E090D5
:1057D2000058F09000657432F07F351261C7126094
:1057E2009A7F321261C712609A7F351261C71260C6
:1057F2009A7F321261C712609A900058E090006559
:10580200F07D3C7F2A12469812609AE4FD7F2A12AC
:10581200469812609A7DC47F2A12469812609AE4D2
:10582200FD7F2A12469812609A7D287F2912469897
:105832007DD87F2812469812609AE4FD7F2A12468C
:105842009812609A7DD87F291246987D287F281267
:0C585200469812609AE4FD7F2A024698F6
:10601F00E4F090029CE0FFA3E090030DF090029E4D
:10602F00E090030EF090029FE090030FF09002A01B
:10603F00E0900310F09002A1E0900311F09002A203
:10604F00E0900312F09002A3E0900313F0A3748288
:01605F00F050
:0560600090030CEFF0BD
:10606500E0FF9003357401F0A37403F0A3740DF001
:10607500800CEE6482601DEEC39F5002AF06900354
:1060850035E0FBA3E475F00112291BA9F0FA1227EC
:04609500BBFE80DEF0
:0160990022E4
:10444E009002A5EFF0A3EDF075F054EFA4246AF5F9
:10445E0082E5F03400F58375F006ED122A5BEBF081
:10446E009002ADE0FF9002AAE0FCA3E090006A7516
:10447E00F054122A5BEC75F054A42583F583C083A7
:10448E00C0829002ACE0D082D08375F006122A5B17
:10449E00EFF09002B3E0FF9002B0E0FCA3E09000DA
:1044AE006A75F054122A5BEC75F054A42583F583DB
:1044BE00C083C0829002B2E0D082D08375F0061223
:1044CE002A5BEFF09002B9E0FF9002B6E0FCA3E0A9
:1044DE0090006A75F054122A5BEC75F054A4258393
:1044EE00F583C083C0829002B8E0D082D08375F08D
:1044FE0006122A5BEFF09002BCE090020EF09002E2
:10450E00A8E0FF9002A5E075F054A4246BF582E5B7
:10451E00F03400F583C083C0829002A6E0D082D032
:10452E008375F006122A5BEFF09002AEE0FF900268
:10453E00AAE0FCA3E090006B75F054122A5BEC75B8
:10454E00F054A42583F583C083C0829002ACE0D0E2
:10455E0082D08375F006122A5BEFF09002B4E0FF72
:10456E009002B0E0FCA3E090006B75F054122A5B51
:10457E00EC75F054A42583F583C083C0829002B2FB
:10458E00E0D082D08375F006122A5BEFF09002BA6B
:10459E00E0FF9002B6E0FCA3E090006B75F05412C1
:1045AE002A5BEC75F054A42583F583C083C08290FA
:1045BE0002B8E0D082D08375F006122A5BEFF0903D
:1045CE0002BDE090020FF09000B7740CF09000B6B0
:1045DE00F0900108F090010BF090010AF0900109A3
:1045EE00F090015CF090015FF090015EF090015D43
:1045FE00F09001B0F09001B3F09001B2F09001B1E3
:10460E00F0900207F0900206F0900156F0900159DA
:10461E00F0900158F0900157F0900150F09002A5E3
:10462E00E0FFA3E09002A8124C609002AAA3E0FF64
:10463E00A3E09002AE124C609002B0A3E0FFA3E0A4
:10464E00FD9002B4124C619002B6A3E0FFA3E0FD10
:10465E009002BA124C61900111740CF0900117F097
:10466E0090011DF0900164F090016AF0900170F0DD
:10467E0090011BF090016FF090010EF0900162F02E
:01468E002209
:094C6000FDE0FBA3E09002C1F0AD
:104C6900EB64336003024D3A9002C1E06434705B37
:104C790075F054EFA42469F582E5F03400F58375E5
:104C8900F006ED122A5B740CF075F054EFA424BC05
:104C9900F582E5F03400F58375F006ED122A5B74B0
:104CA9000CF075F054EFA42463F582E5F03400F5B7
:104CB9008375F006ED122A5B740CF075F054EFA4BD
:104CC90024B6F582E5F03400024E029002C1E06498
:104CD900356003024E0E75F054EFA42469F582E5A0
:104CE900F03400F58375F006ED122A5B740CF0754B
:104CF900F054EFA42414F582E5F03400F58375F03F
:104D090006ED122A5B740CF075F054EFA42463F5D8
:104D190082E5F03400F58375F006ED122A5B740C18
:104D2900F075F054EFA4240EF582E5F03400024E3C
:104D390002EB64326003024E0E9002C1E0FE64345D
:104D4900705A75F054EFA42469F582E5F03400F542
:104D59008375F006ED122A5B740CF075F054EFA41C
:104D69002414F582E5F03400F58375F006ED122A76
:104D79005B740CF075F054EFA4246FF582E5F03400
:104D890000F58375F006ED122A5B740CF075F0548A
:104D9900EFA4241AF582E5F03400805DEE643570E5
:104DA9006475F054EFA42469F582E5F03400F583C5
:104DB90075F006ED122A5B740CF075F054EFA4241B
:104DC900BCF582E5F03400F58375F006ED122A5B37
:104DD900740CF075F054EFA4246FF582E5F03400FB
:104DE900F58375F006ED122A5B740CF075F054EF3B
:104DF900A424C2F582E5F03400F58375F006ED12BE
:064E09002A5B740CF0228C
:055C0E0090037EEFF0A1
:105C1300900059E090004CF090005AE090004DF055
:105C2300900061E0900054F090020EE0B5072CA3C1
:105C3300E0FFB43510E4900237F0A3740CF0900247
:105C43003F7435F022EF643470649002377404F0CB
:105C5300A3740CF090023F7434F022E4FFE4FE7569
:105C6300F054EFA4246AF582E5F03400F58375F06F
:105C730006EE122A5BE0FD90037EE0FCEDB5042402
:105C8300900237EFF0A3EEF075F054EFA4246BF518
:105C930082E5F03400F58375F006EE122A5BE0909E
:0E5CA300023FF0220EEEB40DB60FEFB405AFC7
:015CB10022D0
:045486007D287F6599
:10548A0090037FEDF0900040E0FBA3E0FAA3E0F97F
:10549A001227BBFE700AEF646570030255FA801981
:1054AA00EF6E6019900041E475F002122905900030
:1054BA0040E0FBA3E0FAA3E0F9EF122834900040A1
:1054CA00E0FBA3E0FAA3E0F91227BB249B700302D6
:1054DA0055E314605C240260030255FA90037FE0EE
:1054EA00FF900001122801900054E024CD601214AC
:1054FA006021146030240360030255FA90004D8045
:10550A002C90004DE0FF90037FE0FEC3EF9E9000D9
:10551A004DF02290004CE0FF90037FE0FEC3EF9E27
:10552A0090004CF02290037FE0FF90004CE02FF0B7
:10553A002290037FE0FF900040E0FBA3E0FAA3E0A3
:10554A00F9900001EF122846900054E024CD60271C
:10555A0014603E14605F240360030255FAEF24A529
:10556A00600F14600E14600D240360030255FA8064
:10557A0061803B802E802C90037FE024A5600C1470
:10558A00600B14600A24037067802380458038808A
:10559A003690037FE024A5601114601014600F2474
:1055AA0003704D9000547433F022801B80009000E9
:1055BA00547435F02290037FE024A5601114601022
:1055CA0014600F240370299000547432F022800270
:1055DA0080009000547434F02290037FE0FF900022
:1055EA0040E0FBA3E0FAA3E0F9900001EF122801E2
:0155FA00228E
:0F10EE009002A6EDF09002A5EFF09002A7EBF0B4
:1010FD00E49002AAF0A3F0C3EF6480F8EB6480984B
:10110D0040030219539002A6E0FF9002A8E0FCEF05
:10111D006480F8EC648098500302142EA3E06432CE
:10112D0060030212A9AE079002A8E0C36480F8EE36
:10113D00648098506E9002A5E0FD9002A7E0C36414
:10114D0080F8ED648098403CEDFB3395E0FA90001B
:10115D006875F054EB122A5BEA75F054A42583F5FB
:10116D0083EEFB3395E0FA75F006EB122A5BEA7518
:10117D00F006A42583F583E0B40B069002ABE004E2
:10118D00F01D80B69002A7E0FF9002A5E0C39FFF7F
:10119D009002ABE014B50703AF0622E49002ABF06A
:1011AD000E80849002A6E0FEC3EE64809480406EB3
:1011BD009002A5E0FD9002A7E0C36480F8ED648085
:1011CD0098403CEDFB3395E0FA90006875F054EBD8
:1011DD00122A5BEA75F054A42583F583EEFB339553
:1011ED00E0FA75F006EB122A5BEA75F006A425838A
:1011FD00F583E0B40B069002ABE004F01D80B690D1
:10120D0002A7E0FF9002A5E0C39FFF9002ABE014A0
:10121D00B50703AF0622E49002ABF01E808A900260
:10122D00A8E0FED3EE6480948C40030221B39002BB
:10123D00A5E0FD9002A7E0C36480F8ED64809840BE
:10124D003CEDFB3395E0FA90006875F054EB122AF3
:10125D005BEA75F054A42583F583EEFB3395E0FA34
:10126D0075F006EB122A5BEA75F006A42583F5836B
:10127D00E0B40B069002ABE004F01D80B69002A71F
:10128D00E0FF9002A5E0C39FFF9002ABE014B5070D
:10129D0003AF0622E49002ABF00E80879002A9E026
:1012AD00643360030221B39002A8E0FED3EE6480A4
:1012BD00948C506E9002A5E0FD9002A7E0C364806F
:1012CD00F8ED648098403CEDFB3395E0FA900068B2
:1012DD0075F054EB122A5BEA75F054A42583F5835F
:1012ED00EEFB3395E0FA75F006EB122A5BEA75F02A
:1012FD0006A42583F583E0B40B069002ABE004F061
:10130D001D80B69002A7E0FF9002A5E0C39FFF905D
:10131D0002ABE014B50703AF0622E49002ABF00E6A
:10132D00808A9002A6E0FE9002A8E0C36480F8EEE9
:10133D00648098506E9002A5E0FD9002A7E0C36412
:10134D0080F8ED648098403CEDFB3395E0FA900019
:10135D006875F054EB122A5BEA75F054A42583F5F9
:10136D0083EEFB3395E0FA75F006EB122A5BEA7516
:10137D00F006A42583F583E0B40B069002ABE004E0
:10138D00F01D80B69002A7E0FF9002A5E0C39FFF7D
:10139D009002ABE014B50703AF0622E49002ABF068
:1013AD000E80849002A6E0FEC3EE6480948050030C
:1013BD000221B39002A5E0FD9002A7E0C36480F87E
:1013CD00ED648098403CEDFB3395E0FA9000687534
:1013DD00F054EB122A5BEA75F054A42583F583EEE5
:1013ED00FB3395E0FA75F006EB122A5BEA75F00611
:1013FD00A42583F583E0B40B069002ABE004F01D49
:10140D0080B69002A7E0FF9002A5E0C39FFF900277
:10141D00ABE014B50703AF0622E49002ABF01E80DB
:10142D00879002A6E0FF9002A8E0FCC3EF6480F86D
:10143D00EC648098400302174BA3E0643260030212
:10144D0015C6AE04C3EE64809480406E9002A5E094
:10145D00FD9002A7E0C36480F8ED648098403CEDF8
:10146D00FB3395E0FA90006875F054EB122A5BEAB5
:10147D0075F054A42583F583EEFB3395E0FA75F0F2
:10148D0006EB122A5BEA75F006A42583F583E0B41A
:10149D000B069002ABE004F01D80B69002A7E0FFB2
:1014AD009002A5E0C39FFF9002ABE014B50703AF18
:1014BD000622E49002ABF01E808A9002A6E0FE9018
:1014CD0002A8E0D36480F8EE648098406E9002A587
:1014DD00E0FD9002A7E0C36480F8ED648098403C85
:1014ED00EDFB3395E0FA90006875F054EB122A5B32
:1014FD00EA75F054A42583F583EEFB3395E0FA7578
:10150D00F006EB122A5BEA75F006A42583F583E05D
:10151D00B40B069002ABE004F01D80B69002A7E07C
:10152D00FF9002A5E0C39FFF9002ABE014B5070347
:10153D00AF0622E49002ABF01E80849002A6E0FE7E
:10154D00D3EE6480948C40030221B39002A5E0FD9C
:10155D009002A7E0C36480F8ED648098403CEDFBF9
:10156D003395E0FA90006875F054EB122A5BEA753A
:10157D00F054A42583F583EEFB3395E0FA75F00660
:10158D00EB122A5BEA75F006A42583F583E0B40B14
:10159D00069002ABE004F01D80B69002A7E0FF902C
:1015AD0002A5E0C39FFF9002ABE014B50703AF06A1
:1015BD0022E49002ABF00E80879002A9E0643360C4
:1015CD00030221B39002A6E0FE9002A8E0D364804E
:1015DD00F8EE648098406E9002A5E0FD9002A7E0C1
:1015ED00C36480F8ED648098403CEDFB3395E0FAE0
:1015FD0090006875F054EB122A5BEA75F054A4253F
:10160D0083F583EEFB3395E0FA75F006EB122A5B5A
:10161D00EA75F006A42583F583E0B40B069002ABC2
:10162D00E004F01D80B69002A7E0FF9002A5E0C394
:10163D009FFF9002ABE014B50703AF0622E49002C2
:10164D00ABF01E80849002A6E0FED3EE6480948CF5
:10165D00506E9002A5E0FD9002A7E0C36480F8ED06
:10166D00648098403CEDFB3395E0FA90006875F08E
:10167D0054EB122A5BEA75F054A42583F583EEFB37
:10168D003395E0FA75F006EB122A5BEA75F006A4C5
:10169D002583F583E0B40B069002ABE004F01D80CA
:1016AD00B69002A7E0FF9002A5E0C39FFF9002ABAA
:1016BD00E014B50703AF0622E49002ABF00E808A6A
:1016CD009002A8E0FEC3EE6480948050030221B323
:1016DD009002A5E0FD9002A7E0C36480F8ED648060
:1016ED0098403CEDFB3395E0FA90006875F054EBB3
:1016FD00122A5BEA75F054A42583F583EEFB33952E
:10170D00E0FA75F006EB122A5BEA75F006A4258364
:10171D00F583E0B40B069002ABE004F01D80B690AB
:10172D0002A7E0FF9002A5E0C39FFF9002ABE0147B
:10173D00B50703AF0622E49002ABF01E808790023E
:10174D00A9E06432600302184F9002A6E0FEC3EEDA
:10175D0064809480406E9002A5E0FD9002A7E0C3E6
:10176D006480F8ED648098403CEDFB3395E0FA9091
:10177D00006875F054EB122A5BEA75F054A42583CA
:10178D00F583EEFB3395E0FA75F006EB122A5BEA72
:10179D0075F006A42583F583E0B40B069002ABE04B
:1017AD0004F01D80B69002A7E0FF9002A5E0C39F54
:1017BD00FF9002ABE014B5070302219EE49002AB4B
:1017CD00F01E808A9002A8E0FED3EE6480948C40D7
:1017DD00030221B39002A5E0FD9002A7E0C364804F
:1017ED00F8ED648098403CEDFB3395E0FA9000688D
:1017FD0075F054EB122A5BEA75F054A42583F5833A
:10180D00EEFB3395E0FA75F006EB122A5BEA75F004
:10181D0006A42583F583E0B40B069002ABE004F03B
:10182D001D80B69002A7E0FF9002A5E0C39FFF9038
:10183D0002ABE014B5070302219EE49002ABF00E5B
:10184D0080879002A9E0643360030221B39002A85F
:10185D00E0FED3EE6480948C506E9002A5E0FD9076
:10186D0002A7E0C36480F8ED648098403CEDFB3343
:10187D0095E0FA90006875F054EB122A5BEA75F06A
:10188D0054A42583F583EEFB3395E0FA75F006EB52
:10189D00122A5BEA75F006A42583F583E0B40B06E6
:1018AD009002ABE004F01D80B69002A7E0FF90021D
:1018BD00A5E0C39FFF9002ABE014B5070302219E84
:1018CD00E49002ABF00E808A9002A6E0FEC3EE64B7
:1018DD0080948050030221B39002A5E0FD9002A7F1
:1018ED00E0C36480F8ED648098403CEDFB3395E0F7
:1018FD00FA90006875F054EB122A5BEA75F054A467
:10190D002583F583EEFB3395E0FA75F006EB122A8D
:10191D005BEA75F006A42583F583E0B40B0690020F
:10192D00ABE004F01D80B69002A7E0FF9002A5E0A9
:10193D00C39FFF9002ABE014B5070302219EE49014
:10194D0002ABF01E80879002A5E0FF9002A7E0FC9D
:10195D00D3EF6480F8EC64809850030221AB9002C1
:10196D00A6E0FF9002A8E0FCD3EF6480F8EC648061
:10197D00985003021C88A3E064326003021B03AE7F
:10198D00079002A8E0C36480F8EE648098506E90D2
:10199D0002A5E0FD9002A7E0D36480F8ED64809885
:1019AD00503CEDFB3395E0FA90006975F054EB1265
:1019BD002A5BEA75F054A42583F583EEFB3395E09D
:1019CD00FA75F006EB122A5BEA75F006A42583F58D
:1019DD0083E0B40B069002ABE004F00D80B69002EC
:1019ED00A5E0FF9002A7E0C39FFF9002ABE014B506
:1019FD000703AF0622E49002ABF00E80849002A69E
:101A0D00E0FEC3EE64809480406E9002A5E0FD90F0
:101A1D0002A7E0D36480F8ED648098503CEDFB3371
:101A2D0095E0FA90006975F054EB122A5BEA75F0B7
:101A3D0054A42583F583EEFB3395E0FA75F006EBA0
:101A4D00122A5BEA75F006A42583F583E0B40B0634
:101A5D009002ABE004F00D80B69002A5E0FF90027D
:101A6D00A7E0C39FFF9002ABE014B50703AF0622BA
:101A7D00E49002ABF01E808A9002A8E0FED3EE64E3
:101A8D0080948C40030221B39002A5E0FD9002A743
:101A9D00E0D36480F8ED648098503CEDFB3395E025
:101AAD00FA90006975F054EB122A5BEA75F054A4B4
:101ABD002583F583EEFB3395E0FA75F006EB122ADC
:101ACD005BEA75F006A42583F583E0B40B0690025E
:101ADD00ABE004F00D80B69002A5E0FF9002A7E008
:101AED00C39FFF9002ABE014B50703AF0622E4904D
:101AFD0002ABF00E80879002A9E0643360030221EF
:101B0D00B39002A8E0FED3EE6480948C506E9002E8
:101B1D00A5E0FD9002A7E0D36480F8ED64809850B5
:101B2D003CEDFB3395E0FA90006975F054EB122A09
:101B3D005BEA75F054A42583F583EEFB3395E0FA4B
:101B4D0075F006EB122A5BEA75F006A42583F58382
:101B5D00E0B40B069002ABE004F00D80B69002A548
:101B6D00E0FF9002A7E0C39FFF9002ABE014B50722
:101B7D0003AF0622E49002ABF00E808A9002A6E03D
:101B8D00FE9002A8E0C36480F8EE648098506E90D9
:101B9D0002A5E0FD9002A7E0D36480F8ED64809883
:101BAD00503CEDFB3395E0FA90006975F054EB1263
:101BBD002A5BEA75F054A42583F583EEFB3395E09B
:101BCD00FA75F006EB122A5BEA75F006A42583F58B
:101BDD0083E0B40B069002ABE004F00D80B69002EA
:101BED00A5E0FF9002A7E0C39FFF9002ABE014B504
:101BFD000703AF0622E49002ABF00E80849002A69C
:101C0D00E0FEC3EE6480948050030221B39002A5E0
:101C1D00E0FD9002A7E0D36480F8ED648098503C1D
:101C2D00EDFB3395E0FA90006975F054EB122A5BE9
:101C3D00EA75F054A42583F583EEFB3395E0FA7530
:101C4D00F006EB122A5BEA75F006A42583F583E016
:101C5D00B40B069002ABE004F00D80B69002A5E047
:101C6D00FF9002A7E0C39FFF9002ABE014B50703FE
:101C7D00AF0622E49002ABF01E80879002A6E0FF33
:101C8D009002A8E0FCC3EF6480F8EC6480984003F8
:101C9D00021FA5A3E064326003021E20AE04C3EE52
:101CAD0064809480406E9002A5E0FD9002A7E0D381
:101CBD006480F8ED648098503CEDFB3395E0FA902C
:101CCD00006975F054EB122A5BEA75F054A4258374
:101CDD00F583EEFB3395E0FA75F006EB122A5BEA1D
:101CED0075F006A42583F583E0B40B069002ABE0F6
:101CFD0004F00D80B69002A5E0FF9002A7E0C39F0F
:101D0D00FF9002ABE014B50703AF0622E49002ABDF
:101D1D00F01E808A9002A6E0FE9002A8E0D36480B7
:101D2D00F8EE648098406E9002A5E0FD9002A7E069
:101D3D00D36480F8ED648098503CEDFB3395E0FA68
:101D4D0090006975F054EB122A5BEA75F054A425E6
:101D5D0083F583EEFB3395E0FA75F006EB122A5B03
:101D6D00EA75F006A42583F583E0B40B069002AB6B
:101D7D00E004F00D80B69002A5E0FF9002A7E0C34D
:101D8D009FFF9002ABE014B50703AF0622E490026B
:101D9D00ABF01E80849002A6E0FED3EE6480948C9E
:101DAD0040030221B39002A5E0FD9002A7E0D364A9
:101DBD0080F8ED648098503CEDFB3395E0FA90008F
:101DCD006975F054EB122A5BEA75F054A42583F57E
:101DDD0083EEFB3395E0FA75F006EB122A5BEA759C
:101DED00F006A42583F583E0B40B069002ABE00466
:101DFD00F00D80B69002A5E0FF9002A7E0C39FFF13
:101E0D009002ABE014B50703AF0622E49002ABF0ED
:101E1D000E80879002A9E0643360030221B3900223
:101E2D00A6E0FE9002A8E0D36480F8EE64809840AE
:101E3D006E9002A5E0FD9002A7E0D36480F8ED64FA
:101E4D008098503CEDFB3395E0FA90006975F054A5
:101E5D00EB122A5BEA75F054A42583F583EEFB3370
:101E6D0095E0FA75F006EB122A5BEA75F006A425EB
:101E7D0083F583E0B40B069002ABE004F00D80B661
:101E8D009002A5E0FF9002A7E0C39FFF9002ABE098
:101E9D0014B50703AF0622E49002ABF01E808490C8
:101EAD0002A6E0FED3EE6480948C506E9002A5E005
:101EBD00FD9002A7E0D36480F8ED648098503CED6E
:101ECD00FB3395E0FA90006975F054EB122A5BEA4A
:101EDD0075F054A42583F583EEFB3395E0FA75F088
:101EED0006EB122A5BEA75F006A42583F583E0B4B0
:101EFD000B069002ABE004F00D80B69002A5E0FF5A
:101F0D009002A7E0C39FFF9002ABE014B50703AFAB
:101F1D000622E49002ABF00E808A9002A8E0FEC388
:101F2D00EE6480948050030221B39002A5E0FD90F1
:101F3D0002A7E0D36480F8ED648098503CEDFB334C
:101F4D0095E0FA90006975F054EB122A5BEA75F092
:101F5D0054A42583F583EEFB3395E0FA75F006EB7B
:101F6D00122A5BEA75F006A42583F583E0B40B060F
:101F7D009002ABE004F00D80B69002A5E0FF900258
:101F8D00A7E0C39FFF9002ABE014B50703AF062295
:101F9D00E49002ABF01E80879002A9E064326003EA
:101FAD000220A99002A6E0FEC3EE64809480406EEC
:101FBD009002A5E0FD9002A7E0C36480F8ED648077
:101FCD0098403CEDFB3395E0FA90006975F054EBC9
:101FDD00122A5BEA75F054A42583F583EEFB339545
:101FED00E0FA75F006EB122A5BEA75F006A425837C
:101FFD00F583E0B40B069002ABE004F01D80B690C3
:10200D0002A7E0FF9002A5E0C39FFF9002ABE01492
:10201D00B5070302219EE49002ABF01E808A900268
:10202D00A8E0FED3EE6480948C40030221B39002AD
:10203D00A5E0FD9002A7E0C36480F8ED64809840B0
:10204D003CEDFB3395E0FA90006975F054EB122AE4
:10205D005BEA75F054A42583F583EEFB3395E0FA26
:10206D0075F006EB122A5BEA75F006A42583F5835D
:10207D00E0B40B069002ABE004F01D80B69002A711
:10208D00E0FF9002A5E0C39FFF9002ABE014B507FF
:10209D000302219EE49002ABF00E80879002A9E02E
:1020AD00643360030221B39002A8E0FED3EE648096
:1020BD00948C506D9002A5E0FD9002A7E0C3648062
:1020CD00F8ED648098403CEDFB3395E0FA900069A3
:1020DD0075F054EB122A5BEA75F054A42583F58351
:1020ED00EEFB3395E0FA75F006EB122A5BEA75F01C
:1020FD0006A42583F583E0B40B069002ABE004F053
:10210D001D80B69002A7E0FF9002A5E0C39FFF904F
:10211D0002ABE014B507028078E49002ABF00E80BC
:10212D008B9002A6E0FEC3EE64809480407890020E
:10213D00A5E0FD9002A7E0C36480F8ED64809840AF
:10214D003CEDFB3395E0FA90006975F054EB122AE3
:10215D005BEA75F054A42583F583EEFB3395E0FA25
:10216D0075F006EB122A5BEA75F006A42583F5835C
:10217D00E0B40B069002ABE004F01D80B69002A710
:10218D00E0FF9002A5E0C39FFF9002ABE014B507FE
:10219D0005EE2428FF22E49002ABF01E8088900209
:0821AD00A8E02414FF227FFFCB
:0121B5002207
:0C3E6600AC05900353EFF0900355EBF017
:103E7200900359EFF0A3ECF0A3EBF0900356E0FFB0
:103E8200900353E0FEB50714900357E0B5040DA369
:103E9200E0FD900355E06D700302418C900355E004
:103EA20024CD7003023F571470030240B61470030E
:103EB200023FFF240370C4D3EE6480F8EF6480985D
:103EC20040081254867D5B0240F5900353E0FF9058
:103ED2000356E0FEC3EF6480F8EE64809850081247
:103EE20054867D5A02403E900357E0FFD3EC648033
:103EF200F8EF648098400B7D017F6412548A0C02B3
:103F02003E7D900357E0FFC3EC6480F8EF64809835
:103F120050081254867D5D02413B900353E0FF90AE
:103F22000356E06F6003023E7DA3E06C6003023E35
:103F32007D125486900358E024CD600F24FE600762
:103F420004700F7D5A80067D5B80027D5C7F661265
:103F5200548A024181900353E0FF900356E0FED35E
:103F6200EF6480F8EE64809840081254867D5A020D
:103F720040F5900353E0FF900356E0FEC3EF6480E8
:103F8200F8EE64809850081254867D5B02403E90A1
:103F92000357E0FFC3EC6480F8EF648098500B7D18
:103FA200017F6412548A1C023E7D900357E0FFD3C6
:103FB200EC6480F8EF64809840081254867D5D02BC
:103FC2004118900353E0FF900356E06F6003023EF6
:103FD2007DA3E06C6003023E7D125486900358E09C
:103FE20024CE600F24FD600704700F7D5B80067D88
:103FF2005A80027D5C7F6612548A0241819003538B
:10400200E0FF900356E0FED3EF6480F8EE64809800
:1040120040107D017F6412548A900353E004F00241
:104022003E7D900353E0FF900356E0FEC3EF6480B1
:10403200F8EE64809850131254867D5C7F661254A9
:104042008A9003557434F0023E7D900357E0FFD30B
:10405200EC6480F8EF64809840081254867D5A021E
:104062004118900357E0FFC3EC6480F8EF64809836
:1040720050081254867D5B02413B900353E0FF904F
:104082000356E06F6003023E7DA3E06C6003023ED4
:104092007D125486900358E024CE600E14600714FB
:1040A200700F7D5C80067D5B80027D5A7F661254B4
:1040B2008A024181900353E0FF900356E0FEC3EF72
:1040C2006480F8EE64809850107D017F6412548AF7
:1040D200900353E014F0023E7D900353E0FF9003FF
:1040E20056E0FED3EF6480F8EE64809840131254D9
:1040F200867D5C7F6612548A9003557435F0023EC9
:104102007D900357E0FFD3EC6480F8EF6480984021
:10411200131254867D5B7F6612548A900355743263
:10412200F0023E7D900357E0FFC3EC6480F8EF6439
:10413200809850131254867D5A7F6612548A9003D7
:10414200557433F0023E7D900353E0FF900356E036
:104152006F6003023E7DA3E06C6003023E7D125459
:1041620086900358E024CE600F14600824FE700F7E
:104172007D5C80067D5A80027D5B7F6612548A9048
:0A4182000358E0900355F0023E7D63
:01418C002210
:0100070022D6
:062AD9007B327D2D7F38E9
:0B2ADF00900370EFF0A3EDF0A3EBF00C
:102AEA0090004CE0FFA3E0FD900237E0FBA3E090EA
:102AFA0002A8F090023FE09002A9F01210EEAC0793
:102B0A009000407401F0A37400F0A37400F0C3ECC9
:102B1A00648094804007EC648094944015C3EC640C
:102B2A008094A85003022E7BEC648094BC4003027C
:102B3A002E7BC3EC648094A8400BEC648094BC5058
:102B4A000474D82CFC90004DE0FF6C7003022D4FEA
:102B5A00900238E0FED3EF6480F8EE648098500368
:102B6A00022C39900054E064327003022C2E125465
:102B7A0086900054E024CC7003022C2114700302C6
:102B8A002C2524026003022D4F90004CE0FF339560
:102B9A00E0FE90006875F054EF122A5BEE75F0546F
:102BAA00A42583F583C083C08290004DE0FF33954E
:102BBA00E0FED082D08375F006EF122A5BEE75F044
:102BCA0006A42583F583E0B40B047D5D804F900055
:102BDA004CE0FF3395E0FE90006975F054EF122A3D
:102BEA005BEE75F054A42583F583C083C082900000
:102BFA004DE0FF3395E0FED082D08375F006EF12E8
:102C0A002A5BEE75F006A42583F583E0640B600366
:102C1A00022D4F7D5C80067D5B80027D5A7F6612A5
:102C2A00548A800090004DE0FF900238022D4690B1
:102C3A00004DE0FF900238E0FEC3EF6480F8EE64D6
:102C4A0080984003022D4F900054E06433700302D1
:102C5A002D3E125486900054E024CC7003022D1CA1
:102C6A00147003022D2D24036003022D4F90004C93
:102C7A00E0FF3395E0FE90006875F054EF122A5B8E
:102C8A00EE75F054A42583F583C083C08290004D6D
:102C9A00E0FF3395E0FED082D08375F006EF122A6A
:102CAA005BEE75F006A42583F583E0B40B117D5C19
:102CBA007F6612548A900238E0FF90004D807D9022
:102CCA00004CE0FF3395E0FE90006975F054EF1276
:102CDA002A5BEE75F054A42583F583C083C08290E5
:102CEA00004DE0FF3395E0FED082D08375F006EF09
:102CFA00122A5BEE75F006A42583F583E0640B7057
:102D0A00447D5D7F6612548A900238E0FF90004D40
:102D1A00802A7D5A7F6612548A900238E0FF90001A
:102D2A004D80197D5B7F6612548A900238E0FF90CD
:102D3A00004D8008900238E0FF90004DE0C39FFDEF
:102D4A007F6412548A90004CE0FF900237E0FED371
:102D5A00EF6480F8EE64809840161254869000540E
:102D6A00E0B432028034900054E064337033801F40
:102D7A0090004CE0FF900237E0FEC3EF6480F8EE6B
:102D8A00648098501C125486900054E0B432047D3A
:102D9A005A8009900054E0B433077D5B7F66125471
:102DAA008A90004CE0FF900237E0FED3EF6480F88F
:102DBA00EE6480984004EE9F801890004CE0FF90EB
:102DCA000237E0FEC3EF6480F8EE6480985009C3CE
:102DDA00EF9EFD7F6412548A90004DE0FF90023806
:102DEA00E0FED3EF6480F8EE6480984016125486B1
:102DFA00900054E0B434028034900054E06435709A
:102E0A0033801F90004DE0FF900238E0FEC3EF646C
:102E1A0080F8EE648098501C125486900054E0B4F6
:102E2A0034047D5A8009900054E0B435077D5B7FF5
:102E3A006612548A90004DE0FF900238E0FED3EF0C
:102E4A006480F8EE6480984004EE9F801B90004DE9
:102E5A00E0FF900238E0FEC3EF6480F8EE648098E9
:102E6A004003023091C3EF9EFD7F6412548A023000
:102E7A008EC3EC648094945003023091EC64809485
:102E8A00A8400302309174EC2CFC90004DE0FF90B6
:102E9A000238E0FED3EF6480F8EE648098500302B3
:102EAA002F78900054E064327003022F6D1254861A
:102EBA00900054E024CC7003022F60147003022F98
:102ECA00642402600302308E90004CE0FF3395E0E8
:102EDA00FE90006875F054EF122A5BEE75F054A468
:102EEA002583F583C083C08290004DE0FF3395E0CF
:102EFA00FED082D08375F006EF122A5BEE75F006DB
:102F0A00A42583F583E0B40B047D5D804F90004CCB
:102F1A00E0FF3395E0FE90006975F054EF122A5BEA
:102F2A00EE75F054A42583F583C083C08290004DCA
:102F3A00E0FF3395E0FED082D08375F006EF122AC7
:102F4A005BEE75F006A42583F583E0640B6003024B
:102F5A00308E7D5C80067D5B80027D5A7F661254CE
:102F6A008A800090004DE0FF900238023085900080
:102F7A004DE0FF900238E0FEC3EF6480F8EE648013
:102F8A0098400302308E900054E06433700302309C
:102F9A007D125486900054E024CC700302305B14F6
:102FAA00700302306C2403600302308E90004CE000
:102FBA00FF3395E0FE90006875F054EF122A5BEE3D
:102FCA0075F054A42583F583C083C08290004DE038
:102FDA00FF3395E0FED082D08375F006EF122A5BAC
:102FEA00EE75F006A42583F583E0B40B117D5C7FB2
:102FFA006612548A900238E0FF90004D807D90005E
:10300A004CE0FF3395E0FE90006975F054EF122A08
:10301A005BEE75F054A42583F583C083C0829000CB
:10302A004DE0FF3395E0FED082D08375F006EF12B3
:10303A002A5BEE75F006A42583F583E0640B7044E1
:10304A007D5D7F6612548A900238E0FF90004D80C1
:10305A002A7D5A7F6612548A900238E0FF90004D0A
:10306A0080197D5B7F6612548A900238E0FF9000D7
:10307A004D8008900238E0FF90004DE0C39FFD7F2D
:10308A006412548A125486900041E475F00212299F
:10309A0005900040E0FBA3E0FAA3E0F9748212284D
:1030AA00347BFF7A5279C5AF04EF3395E09002AFD3
:1030BA00F0A3EFF01236B4900047740CF090004081
:1030CA007401F0A37400F0A37400F0900370E09010
:1030DA000043F0900371E0900044F0900372E09096
:0730EA000045F0A3740BF098
:0130F10022BC
:10610F00EFC394735057EF2493FF125C0E90023F2E
:10611F00E0B43202800790023FE0B4331C122AD958
:10612F00900237E090004CF0900238E090004DF074
:10613F0090023FE0900054F022122AD9900237E0EB
:10614F00FF700790004C74048008EFB4040FE490C4
:0E615F00004CF0A3740DF09000547433F02245
:10644D00900046E0B40B0B7D157F327E001260A0EC
:05645D0080EE025CB2BC
:1064370012644D78597C007D017B017A00794C7E8E
:06644700007F0D02279505
:06001E00900244122A1EAC
:100024007E007F287D007B017A02794C122AAD7E06
:10003400007F287D007B017A027974122AAD7E004C
:100044007F087D057B017A02799C122AAD7B807A38
:100054009679987800900244E0FCA3E0FDA3E0FECA
:10006400A3E0FF12296DE47B0AFAF9F812296D90D6
:10007400024DEBF07B407A42790F7800900244E025
:10008400FCA3E0FDA3E0FEA3E0FF12296DE47B0ADC
:10009400FAF9F812296D90024EEBF07BA07A86797A
:1000A400017800900244E0FCA3E0FDA3E0FEA3E09D
:1000B400FF12296DE47B0AFAF9F812296D90024FB8
:1000C400EBF0E47B107A27F9F8900244E0FCA3E01B
:1000D400FDA3E0FEA3E0FF12296DE47B0AFAF9F820
:1000E40012296D900250EBF0E47BE87A03F9F89062
:1000F4000244E0FCA3E0FDA3E0FEA3E0FF12296DAF
:10010400E47B0AFAF9F812296D900261EBF0E47BC2
:1001140064FAF9F8900244E0FCA3E0FDA3E0FEA336
:10012400E0FF12296DE47B0AFAF9F812296D9002B6
:1001340062EBF0E47B0AFAF9F8900244E0FCA3E0F5
:10014400FDA3E0FEA3E0FF12296DE47B0AFAF9F8AF
:1001540012296D900263EBF0E47B0AFAF9F890023D
:1001640044E0FCA3E0FDA3E0FEA3E0FF12296D90B0
:100174000264EBF07B807A9679987800900248E0EC
:10018400FCA3E0FDA3E0FEA3E0FF12296DE47B0ADB
:10019400FAF9F812296D90025CEBF07B407A42790F
:1001A4000F7800900248E0FCA3E0FDA3E0FEA3E08A
:1001B400FF12296DE47B0AFAF9F812296D90025DA9
:1001C400EBF07BA07A8679017800900248E0FCA3EA
:1001D400E0FDA3E0FEA3E0FF12296DE47B0AFAF937
:1001E400F812296D90025EEBF0E47B107A27F9F89F
:1001F400900248E0FCA3E0FDA3E0FEA3E0FF122987
:100204006DE47B0AFAF9F812296D90025FEBF0E4D1
:100214007BE87A03F9F8900248E0FCA3E0FDA3E050
:10022400FEA3E0FF12296DE47B0AFAF9F812296DA6
:10023400900270EBF0E47B64FAF9F8900248E0FC79
:10024400A3E0FDA3E0FEA3E0FF12296DE47B0AFA1C
:10025400F9F812296D900271EBF0E47B0AFAF9F8CF
:10026400900248E0FCA3E0FDA3E0FEA3E0FF122916
:100274006DE47B0AFAF9F812296D900272EBF0E44E
:100284007B0AFAF9F8900248E0FCA3E0FDA3E0FE43
:10029400A3E0FF12296D900273EBF09002847401C5
:1002A400F0A304F0A304F0A304F090029804F0A3D4
:1002B40004F0A304F0A304F09002A47401F09002EB
:1002C400A4E0FFD3940440030205BE744C2FF582CE
:1002D400E43402F583E0FF90025CE0FEEFB506250E
:1002E4009002A4E0FF244CF582E43402F583E0603C
:1002F40014900284E0FE74742FF582E43402F583D2
:10030400EEF00204499002A4E0FF244CF582E434A8
:1003140002F583E0FE90025DE0FDEEB50513744C3A
:100324002FF582E43402F583E0600690028502042E
:10033400389002A4E0FF244CF582E43402F583E013
:10034400FE90025EE0FDEEB50513744C2FF582E4D9
:100354003402F583E060069002860204389002A419
:10036400E0FF244CF582E43402F583E0FE90025F62
:10037400E0FDEEB50513744C2FF582E43402F583E9
:10038400E060069002870204389002A4E0FF244C47
:10039400F582E43402F583E0FE900270E0FDEEB5F0
:1003A4000513744C2FF582E43402F583E060069063
:1003B40002980204389002A4E0FF244CF582E4344D
:1003C40002F583E0FE900271E0FDEEB50512744C77
:1003D4002FF582E43402F583E0600590029980549D
:1003E4009002A4E0FF244CF582E43402F583E0FE9D
:1003F400900272E0FDEEB50512744C2FF582E434E0
:1004040002F583E0600590029A80299002A4E0FF3F
:10041400244CF582E43402F583E0FE900273E0FD9F
:10042400EEB50521744C2FF582E43402F583E060C7
:100434001490029BE0FF9002A4E02474F582E4345B
:1004440002F583EFF09002A4E0FF2460F582E43427
:1004540002F583E0FE90025CE0FDEEB505137460E6
:100464002FF582E43402F583E060069002840205ED
:10047400A49002A4E0FF2460F582E43402F583E052
:10048400FE90025DE0FDEEB5051374602FF582E485
:100494003402F583E060069002850205A49002A46C
:1004A400E0FF2460F582E43402F583E0FE90025E0E
:1004B400E0FDEEB5051374602FF582E43402F58394
:1004C400E060069002860205A49002A4E0FF246086
:1004D400F582E43402F583E0FE90025FE0FDEEB5C0
:1004E400051374602FF582E43402F583E06006900E
:1004F40002870205A49002A4E0FF2460F582E4349C
:1005040002F583E0FE900270E0FDEEB50513746021
:100514002FF582E43402F583E06006900298020528
:10052400A49002A4E0FF2460F582E43402F583E0A1
:10053400FE900271E0FDEEB5051274602FF582E4C1
:100544003402F583E0600590029980549002A4E09F
:10055400FF2460F582E43402F583E0FE900272E049
:10056400FDEEB5051274602FF582E43402F583E0E4
:10057400600590029A80299002A4E0FF2460F5822D
:10058400E43402F583E0FE900273E0FDEEB505214C
:1005940074602FF582E43402F583E0601490029BCA
:1005A400E0FF9002A4E02488F582E43402F583EFAE
:1005B400F09002A4E004F00202C27E007F287D00D5
:1005C4007B017A02794C122AAD9002A47401F09056
:1005D40002A4E0FF2474F582E43402F583E0FE749F
:1005E4004C2FF582E43402F583EEF09002A4E0FF90
:1005F4002488F582E43402F583E0FE74602FF582EA
:10060400E43402F583EEF09002A4E004F0E0B405D3
:10061400BE9002A47401F09002A4E0FFD3940450AD
:100624002074742FF582E43402F583E4F074882F87
:10063400F582E43402F583E4F09002A4E004F0804F
:10064400D69002A07401F090029CF0E49002A4F011
:10065400900284E0FF90025CE06F60030206E29087
:100664000285E0FF90025DE06F7073900286E0FF08
:1006740090025EE06F7067900287E0FF90025FE097
:100684006F705B900298E0FF900270E06F704F9083
:100694000299E0FF900271E06F704390029AE0FFCC
:1006A400900272E06F703790029BE0FF900273E05B
:1006B4006F702B900065E0643460030210ED7F518D
:1006C40012625A7F46125DF77D077F2F12530890FE
:1006D40002A3E0FD7F2D1253087F5002625A90005E
:1006E40065E064346003020BDC9002A4E004F0E0F3
:1006F400C39464400B12601F1253037F351261C709
:1007040090029DE0FFC364809485504290029FE074
:10071400FD3395E0FC74822DF58274023CF583E090
:10072400FEEFFD3395E0FC74512DF58274023CF527
:1007340083E0B506199003617401F0A37402F0A379
:10074400744CF07B017A02799C7D03020ACE9002FC
:100754009EE0FFC3648094855040A3E0FD3395E0A0
:10076400FC74822DF58274023CF583E0FEEFFD33C8
:1007740095E0FC74562DF58274023CF583E0B506D1
:10078400199003617401F0A37402F0A3744CF07B1C
:10079400017A02799C7D03020B1F90029CE0FFC347
:1007A40064809485400302083490029FE0FD3395F1
:1007B400E0FC74822DF58274023CF583E0FEEFFDCB
:1007C4003395E0FC744C2DF58274023CF583E0B55E
:1007D40006199003617401F0A37402F0A3744CF041
:1007E4007B017A02799C7D03020A659002A3E0FFF3
:1007F4003395E0FE74962FF58274023EF583E0FF94
:1008040090029CE0FD3395E0FC744C2DF58274025B
:100814003CF583E0B507199003617401F0A37402F9
:10082400F0A3744CF07B017A02799C7D07020A657F
:1008340090029CE0FFC3648094854003020A6AEF3F
:100844003395E0FE744C2FF58274023EF583E0FD8F
:10085400900284E0FCED6C604B744C2FF5827402C2
:100864003EF583E0FF900285E0FEEF6E6036900275
:100874009CE0FF3395E0FE744C2FF58274023EF544
:1008840083E0FD900286E0FCED6C6018744C2FF55B
:100894008274023EF583E0FF900287E0FEEF6E6013
:1008A4000302095490029DE0FF64056029EF33952B
:1008B400E0FE74512FF58274023EF583E0FF90024E
:1008C4009CE0FD3395E0FC744C2DF58274023CF5FC
:1008D40083E0D39F402490029DE0D36480948240BF
:1008E400199003617401F0A37402F0A3744CF07BBB
:1008F400017A02799C7D01020A6590029EE0FF6400
:10090400056029EF3395E0FE74562FF58274023E9C
:10091400F583E0FF90029CE0FD3395E0FC744C2DE0
:10092400F58274023CF583E0D39F402490029EE05C
:10093400D36480948240199003617401F0A374021B
:10094400F0A3744CF07B017A02799C7D02020A6563
:1009540090029CE0FF3395E0FE744C2FF582740204
:100964003EF583E0FD900298E0FCED6C604B744C26
:100974002FF58274023EF583E0FF900299E0FEEFCA
:100984006E603690029CE0FF3395E0FE744C2FF5C8
:100994008274023EF583E0FD90029AE0FCED6C6007
:1009A40018744C2FF58274023EF583E0FF90029B8D
:1009B400E0FEEF6E6003020A6A9002A1E0FF6405A4
:1009C4006029EF3395E0FE74652FF58274023EF5DD
:1009D40083E0FF90029CE0FD3395E0FC744C2DF520
:1009E4008274023CF583E0D39F40239002A1E0D3BC
:1009F4006480948240189003617401F0A37402F03F
:100A0400A3744CF07B017A02799C7D05805390029B
:100A1400A2E0FF64056029EF3395E0FE746A2FF5C8
:100A24008274023EF583E0FF90029CE0FD3395E082
:100A3400FC744C2DF58274023CF583E0D39F402670
:100A44009002A2E0D364809482401B9003617401FD
:100A5400F0A37402F0A3744CF07B017A02799C7DBC
:100A640006E4FF0210E790029DE0FFC364809485D2
:100A74004003020B24A3E0FEC36480948540030278
:100A84000B24EEFD3395E0FC74562DF58274023C84
:100A9400F583E0FEEFFD3395E0FC74512DF582748F
:100AA400023CF583E0D39E402690029EE0D364800E
:100AB4009481401B9003617401F0A37402F0A37449
:100AC4004CF07B017A02799C7D027F010210E79051
:100AD400029DE0FFFD3395E0FC74512DF582740214
:100AE4003CF583E0FE90029EE0FD3395E0FC7456F5
:100AF4002DF58274023CF583E0D39E4023D3EF644A
:100B0400809481401B9003617401F0A37402F0A3EC
:100B1400744CF07B017A02799C7D017F020210E71C
:100B240090029DE0FFC3648094854003020BDCA324
:100B3400E0C3648094854003020BDC90029CE0FED9
:100B4400648094814042EEFD3395E0FC744C2DF5B5
:100B54008274023CF583E0FEEFFD3395E0FC7451B2
:100B64002DF58274023CF583E0D39E401B90036113
:100B74007401F0A37402F0A3744CF07B017A02793F
:100B84009CE4FD7F010210E790029CE0FFD36480A7
:100B940094814044EF3395E0FE744C2FF582740247
:100BA4003EF583E0FF90029EE0FD3395E0FC745631
:100BB4002DF58274023CF583E0D39F401B900361C2
:100BC4007401F0A37402F0A3744CF07B017A0279EF
:100BD4009CE4FD7F020210E7900065E06435600349
:100BE4000206549002A4E004F0E0C39464400B12A3
:100BF400601F1253037F341261C79002A1E0FFC348
:100C04006480948550449002A3E0FD3395E0FC7425
:100C1400962DF58274023CF583E0FEEFFD3395E0FA
:100C2400FC74652DF58274023CF583E0B5061B90D7
:100C340003617401F0A37402F0A3744CF07B017A95
:100C440002799C7D077F050210E79002A2E0FFC3B2
:100C5400648094855042A3E0FD3395E0FC74962DA6
:100C6400F58274023CF583E0FEEFFD3395E0FC74FD
:100C74006A2DF58274023CF583E0B5061B9003618E
:100C84007401F0A37402F0A3744CF07B017A02792E
:100C94009C7D077F060210E79002A0E0FFC36480FA
:100CA40094854003020D369002A3E0FD3395E0FCE9
:100CB40074962DF58274023CF583E0FEEFFD3395C6
:100CC400E0FC74602DF58274023CF583E0B5061BEC
:100CD4009003617401F0A37402F0A3744CF07B01DF
:100CE4007A02799C7D077F040210E790029FE0FF5F
:100CF4003395E0FE74822FF58274023EF583E0FFA3
:100D04009002A0E0FD3395E0FC74602DF58274023E
:100D14003CF583E0B5071B9003617401F0A37402F2
:100D2400F0A3744CF07B017A02799C7D037F04026A
:100D340010E79002A0E0FFC3648094854003020F93
:100D440073EF3395E0FE74602FF58274023EF583F1
:100D5400E0FD900298E0FCED6C604B74602FF5822E
:100D640074023EF583E0FF900299E0FEEF6E603678
:100D74009002A0E0FF3395E0FE74602FF5827402C8
:100D84003EF583E0FD90029AE0FCED6C601874601F
:100D94002FF58274023EF583E0FF90029BE0FEEFA4
:100DA4006E6003020E5A9002A1E0FF64056029EF11
:100DB4003395E0FE74652FF58274023EF583E0FFFF
:100DC4009002A0E0FD3395E0FC74602DF58274027E
:100DD4003CF583E0D39F40269002A1E0D364809445
:100DE40082401B9003617401F0A37402F0A3744C5D
:100DF400F07B017A02799C7D057F040210E7900262
:100E0400A2E0FF64056029EF3395E0FE746A2FF5D4
:100E14008274023EF583E0FF9002A0E0FD3395E08A
:100E2400FC74602DF58274023CF583E0D39F402668
:100E34009002A2E0D364809482401B900361740109
:100E4400F0A37402F0A3744CF07B017A02799C7DC8
:100E5400067F040210E79002A0E0FF3395E0FE74E1
:100E6400602FF58274023EF583E0FD900284E0FC7D
:100E7400ED6C604B74602FF58274023EF583E0FFE5
:100E8400900285E0FEEF6E60369002A0E0FF33959D
:100E9400E0FE74602FF58274023EF583E0FD90025B
:100EA40086E0FCED6C601874602FF58274023EF5E8
:100EB40083E0FF900287E0FEEF6E6003020F739001
:100EC400029DE0FF64056029EF3395E0FE74512F25
:100ED400F58274023EF583E0FF9002A0E0FD3395B5
:100EE400E0FC74602DF58274023CF583E0D39F40EE
:100EF4002690029DE0D364809482401B9003617429
:100F040001F0A37402F0A3744CF07B017A02799C83
:100F14007D017F040210E790029EE0FF64056029D2
:100F2400EF3395E0FE74562FF58274023EF583E0AC
:100F3400FF9002A0E0FD3395E0FC74602DF582740F
:100F4400023CF583E0D39F402690029EE0D3648068
:100F54009482401B9003617401F0A37402F0A374A3
:100F64004CF07B017A02799C7D027F040210E790A9
:100F740002A1E0FFC364809485400302102DA3E026
:100F8400FEC364809485400302102DEEFD3395E08A
:100F9400FC746A2DF58274023CF583E0FEEFFD33A8
:100FA40095E0FC74652DF58274023CF583E0D39ED4
:100FB40040269002A2E0D364809481401B90036198
:100FC4007401F0A37402F0A3744CF07B017A0279EB
:100FD4009C7D067F050210E79002A1E0FFFD33959A
:100FE400E0FC74652DF58274023CF583E0FE90020A
:100FF400A2E0FD3395E0FC746A2DF58274023CF5A1
:1010040083E0D39E4023D3EF64809481401B9003FC
:10101400617401F0A37402F0A3744CF07B017A02B2
:10102400799C7D057F060210E79002A1E0FFC3646E
:101034008094854003020654A3E0C36480948540F1
:10104400030206549002A0E0FE648094814041EEC5
:10105400FD3395E0FC74602DF58274023CF583E069
:10106400FEEFFD3395E0FC74652DF58274023CF5CA
:1010740083E0D39E401A9003617401F0A37402F0DC
:10108400A3744CF07B017A02799C7D047F05805324
:101094009002A0E0FFD3648094815003020654EFD1
:1010A4003395E0FE74602FF58274023EF583E0FF11
:1010B4009002A2E0FD3395E0FC746A2DF58274027F
:1010C4003CF583E0D39F50030206549003617401FE
:1010D400F0A37402F0A3744CF07B017A02799C7D36
:0910E400047F0612585E02065456
:0110ED0022E0
:05530300EF14FD7F2DF9
:10530800900376EDF0900375EFF0642F600302547C
:105318003AA3E0B40800400302548590532AF828C1
:10532800287302534202535F02537C02539802537C
:10533800B40253D60253F802541A900064E0B44001
:1053480009A3E064347003025485900065E0B43525
:10535800031255FB025435900064E0B43F09A3E002
:1053680064347003025485900065E0B43503125527
:10537800FB025416900064E0B43D09A3E064347065
:1053880003025485900065E0B435031255FB805C38
:10539800900064E0B43C09A3E064347003025485CF
:1053A800900065E0B435031255FB801E900064E060
:1053B800B43C09A3E064357003025485900065E0AD
:1053C800B434077D357F3E1255FF7F3C80619000E5
:1053D80064E0B43D09A3E06435700302548590008D
:1053E80065E0B434077D357F3E1255FF7F3D803F31
:1053F800900064E0B43F09A3E0643570030254856B
:10540800900065E0B434077D357F3E1255FF7F3F3D
:10541800801D900064E0B44006A3E06435605E90AF
:105428000065E0B434077D357F3E1255FF7F4002AA
:10543800616D900375E0642D7043A3E014600F1450
:10544800601014601114601224047012801B7F48CD
:1054580080287F4A80247F4C80207F4E801C9003C8
:1054680076E0C36480948050047F46800D90037674
:0E547800E0D36480948540057F4E125DF722DC
:10585E0090035EEBF0A3EAF0A3E9F090035CEFF0A7
:10586E00A3EDF07BFF7A5279C99002AFE4F0A3EF7B
:10587E00F0EDFFA3E4F0A3EFF01236B490035EE078
:10588E00FBA3E0FAA3E0F990035CE0F582758300D8
:10589E001227D4FD3395E0FC90035CE075F005A46F
:1058AE00FF900361E0FBA3E0FAA3E02FF9EA35F0E5
:1058BE00FAE92DF9EA3CFA1227BBFDC00590035E0A
:1058CE00E0FBA3E0FAA3E0F990035DE0F5827583B7
:1058DE00001227D4FF3395E0FEEF24FFFDEE34FFD8
:1058EE00FC90035DE075F005A4FF900361E0FBA35F
:1058FE00E0FAA3E02FF9EA35F0FAE92DF9EA3CFADD
:10590E00D0E012283490035EE0FBA3E0FAA3E0F9A6
:10591E0090035CE0F5827583001227D4FD3395E089
:10592E00FC90035CE075F005A4FF900361E0FBA31F
:10593E00E0FAA3E02FF9EA35F0FAE92DF9EA3CFA9C
:10594E00E412283490035EE0FBA3E0FAA3E0F990A2
:10595E00035CE0F582758300740112280190035DEB
:0B596E00E0F58275830074FF02280141
:105B43007F5112625A7F46125DF77F3C12616D905E
:105B53000065E0643560057F351261C77D3C7F02D7
:105B6300124FBD7D287F5A125FA47D3C7F01124FE7
:105B7300BD7D287F64025C01308415308312208749
:105B83000F20860C20850920820620810330807433
:105B930020870920860620850320831B7DE27F2A38
:105BA3001246987D157F2C7E011260A07DEC7F2923
:105BB3001246987DE28025208209208106208003F9
:105BC3002084377DE27F2A1246987D157F2C7E0143
:105BD3001260A07DE27F291246987DE37F2812465A
:105BE300987D157F2C7E011260A07DE27F2A1246EC
:105BF300987D157F2C7E011260A07D287FC81248F6
:0B5C0300CD025B7BE4FD7F2A02469887
:106295007DE77F2A12469812609A7DD07F291246A3
:1062A500987DEC7F281246987D167F037E0012604C
:1062B500A07DDD7F2A12469812609AE4FD7F2A02AE
:0262C5004698F9
:105979009002A5EFF0A3EDF0A3EBF0E4F597759392
:10598900FFF594F5917592FC7595F075960FD2A176
:10599900D2A3C2DEC297126462D2991264941264CD
:1059A9000B126421D28CD28EE4F51FF51EF51DF57C
:1059B9001CFE7F40FD7B017A007900122AAD7E0131
:1059C9007FA47D0B7B017A007966122AADE49002EF
:1059D9000EF0A37432F09002A5E0900059F0900205
:1059E900A6E090005AF09002A7E0900061F09002C2
:1059F900A8E0900062F09002A9E0900063F09002A4
:105A0900AAE0900064F09002ABE0900065F0E490A9
:105A19000043F0FD7F2B124698E4FD7F2C12469837
:105A2900E4FD7F2D124698E4FD7F2E124698E4FD91
:105A39007F2A1246987D167F037E001260A090028D
:105A4900AF74FFF0A37452F0A374D8F07BFF7A52BD
:055A590079D40236B40F
:10621800C2AFE4900043F0FD7F2B124698E4FD7F67
:106228002C124698E4FD7F2D124698E4FD7F2E122D
:106238004698E4FD7F2A1246989002AF74FFF0A3B7
:106248007452F0A374DFF07BFF7A5279D41236B41B
:0262580080FEC6
:055A5E00900377EFF05A
:105A6300E4A3F0900377E014FFA3E0D39F40030285
:105A73005B427BFF7A5279E4E0FF2400F582E43451
:105A830000F583E0FC3395E09002AFF0A3CCF07413
:105A9300012FF582E43400F583E0FE3395E09002B4
:105AA300B1F0A3CEF0900378E02402F582E4340051
:105AB300F583E0FC3395E09002B3F0A3CCF07403DC
:105AC3002FF582E43400F583E0FE3395E09002B5D0
:105AD300F0A3CEF0900378E02404F582E43400F5DB
:105AE30083E0FC3395E09002B7F0A3CCF074052F6C
:105AF300F582E43400F583E0FE3395E09002B9F0DB
:105B0300A3CEF0900378E02406F582E43400F58315
:105B1300E0FC3395E09002BBF0A3CCF074072FF5C3
:105B230082E43400F583E0FE3395E09002BDF0A3F8
:0F5B3300CEF01236B4900378E02408F0025A66E0
:015B42002240
:1021B600EC4D6011E8497017ED33EC3304600DE423
:1021C600FCFFFEFD22E933E8330470F802236612B1
:1021D600233158046009E4CC2481500628500902B2
:1021E600237028400302236DC0E0EB4A7044B98097
:1021F60006D0E0FB02235CEF4E701CBD8008EBFFAF
:10220600EAFEE9FD80EBE98DF0A4FEE5F002229FEF
:10221600E9CDF9EAFEEBFFEF89F0A4FCE5F0CE8903
:10222600F0A42EFFE435F0CD89F0A42DFEE435F0C0
:102236008067EF4E7005BD80D780C3EF8BF0A4ACEE
:10224600F0EE8BF0A42CFCE435F0F8EF8AF0A42C29
:10225600E5F038FCE433CB8DF0A42CFCE5F03BF83C
:10226600EE8AF0A42CFCE5F038F8E433CF89F0A42C
:102276002CFCE5F038CF3400CE89F0A42FFFE5F032
:102286003EFEE433C98DF0A42EFEE5F039CD8AF08A
:10229600A42FFFE5F03EFEE43DFD33D0E0FB500702
:1022A6000BBB000F022370EC2CFCEF33FFEE33FE6A
:0622B600ED33FD02234898
:1022BC0075F020800E75F010800575F0087D007E9D
:1022CC00007F003392D530D5031229FFEC33401038
:1022DC00EF33FFEE33FEED33FDEC33FCD5F0ED22A6
:0E22EC00E5F0247EA2D513CC92E7CDCEFF22E2
:1022FA00EDD2E7CD33EC3392D524814006E4FFFEDC
:10230A00FDFC22FCE4CFCECDCC24E0501174FF803A
:10231A00EDC3CC13CCCD13CDCE13CECF13CF0470D7
:07232A00F030D5DE0229FFAF
:10364900E51024AFF582E43402F583E005102290F9
:1036590002AC3007039002AFE475F001122A670249
:1036690027BB2000E97F2ED2008018EF540F249049
:10367900D43440D4FF30040BEF24BFB41A005003F4
:103689002461FFE511600215110514E514700205A6
:103699001330070E9002ACE475F001122A67EF02AD
:1036A90028340262F67403D2078003E4C207F510D6
:1036B9009002AC122A7EE4F511F513F514E51160B8
:1036C900077F2012368C80F57512FFC201C200C235
:1036D90002C203C205C206C208123658FF700D3075
:1036E90007057F0012369DAF14AE1322B4255FC2C1
:1036F900D5C204123658FF24D0B40A00501A75F006
:103709000A781130D50508B6FF0106C6A426F620A9
:10371900D5047002D20380D924CFB41A00EF500423
:10372900C2E5D20402398FD20180C6D20080C0D24C
:103739000280BCD2D580BAD20580B47F2012368CE3
:103749002002077401B5110040F1123649FF123603
:103759008C0236C6D208D2068095123649FB12363B
:1037690049FA123649F94A4B7006798D7A3A7BFF44
:1037790020022EE511602A7E008E827583001227B1
:10378900D460060EEE651270F0C2D5EBC0E0EAC057
:10379900E0E9C0E0EE1239F0D0E0F9D0E0FAD0E08B
:1037A900FB1227BBFF60AAEBC0E0EAC0E0E9C0E07A
:1037B90012368CD0E02401F9D0E03400FAD0E0FBD5
:1037C900E5120460DCD512D98087D20280A21239B1
:1037D900D260F7E51270010412237BA912600DE58E
:1037E90012600914F512123A7AEF60F3EA30E7022F
:1037F900F404C3995079EAF425120430E701E4048A
:10380900F512800D1239D260C1EA05122512122370
:103819007BEA9002DBF030E701E4251204D51204BB
:10382900200501141239F0E4C0E0123A7A9002DB63
:10383900E0601320E70714F0123674802204F0D0F8
