:03000000025C653A
:0C5C6500787FE4F6D8FD758122025CAC6B
:105CF1009002A87451F0A37446F0A37440F0A37409
:105D010035F07B32E4FDFF1259C89002A87432F0DD
:105D1100A37435F0A3E4F0A304F0A37408F0A37412
:105D210005F0A37432F0A37434F0A3E4F0A3740477
:105D3100F0A37409F0A37403F0A37432F0A37434D4
:105D4100F0A3E4F0A37402F0A37409F0A37401F0CA
:105D5100A37432F0A37434F0A37404F0A37435F087
:105D61007B027D067F0112439E7D167F027E00121B
:0A5D71005EFA7F03125BD7025FABFE
:03000300020006F2
:0100060032C7
:03000B000260F997
:1060F900C0E0C0F0C083C082C0D075D008126075FE
:0B610900D0D0D082D083D0F0D0E032A4
:03001B000261146B
:10611400C0E0C0F0C083C082C0D075D00812620352
:0B612400D0D0D082D083D0F0D0E03289
:0961F20025730A00456E642100CA
:10601F006027021061A800C8003A03202D02580221
:10602F000D020D021C048304420451041A06C70614
:0E603F0063001404B002BC07D007D0011B00A0
:065EF4007D167F017E0017
:105EFA008E158F16ED24EB601D14603C2402705E33
:105F0A00E5161516AE1570021515D39400EE940019
:105F1A00404C000080EAE5161516AE1570021515FC
:085F2A00D39400EE9400403610
:0E5F3200000075100C7511A8D511FDD510FAE0
:105F400080DEE5161516AE1570021515D39400EE19
:045F50009400401465
:105F540075122E7513997514F5D514FDD513FAD54C
:025F640012F732
:025F660080DADF
:015F68002216
:10617D00438E805389F0438901758A20758CD1C275
:06618D008DD2A9D2AF2261
:10619300538EBF53890F438910758BE0758DB1C240
:0661A3008FD2ABD2AF2247
:10607500758A20758CD1E51F2401F51FE4351EF5C1
:106085001EE4351DF51DE4351CF51C900046E0B4F5
:066095000B03122FEF22A5
:07620300758BE0758DB122DF
:10612F00D2B220B2FD7D157F147E00125EFA30B21E
:0A613F00FD7D157F007E01025EFA6F
:0B61E700E4F5D8F5F9F5E975D90822B8
:10614900EF75F019A4FFAEF07C007D0A1225AF8F20
:0A615900EA8FFA75DA42E4F5F2224B
:10616300EF75F019A4FFAEF07C007D0A1225AF8F06
:0A617300EB8FFB75DB42E4F5F3222D
:09465500900369E0F404FD7F28E4
:10465E009002ACEDF0D3648094E440057464F08075
:10466E000E9002ACE0C36480941C5003749CF0EF77
:10467E0024D8B40700400302489290469675F00382
:10468E00A4C58325F0C583730246AB0246F20247EA
:10469E00300247A50247DE0248170248559002AC89
:1046AE00E0FF90005FE0B507012290005FEFF09011
:1046BE0002ACE0FB700302475BD3EB648094804056
:1046CE0009D2DE9002ACE002475B9002ACE0FFC381
:1046DE00648094804003024892D2DE1261FB126124
:1046EE0063D295229002ACE0FF900060E0B5070126
:1046FE0022900060EFF09002ACE0FB7002806AD373
:10470E00EB648094804008D2DE9002ACE0805A9038
:10471E0002ACE0FFC3648094804003024892D2DE74
:10472E00806C9002ACE0FF90005FE0B50706A3E05E
:10473E00B5070122900060EFF090005FF09002ACA0
:10474E00E0FB7010C2DEFF126149C292E4FF1261FB
:10475E0063C29522D3EB648094804014D2DE900223
:10476E00ACE0FF126163C295E0FF126149C2922272
:10477E009002ACE0FFC3648094804003024892D262
:10478E00DE1261FB126163D2959002ACE0FF126102
:10479E00FB126149D292229002ACE0FF90005BE0E6
:1047AE00B507012290005BEFF09002ACE0FF7004C1
:1047BE00D2978070D3EF648094804005D2970248E0
:1047CE0050C3EF648094804003024892D297806376
:1047DE009002ACE0FF90005CE0B507012290005C17
:1047EE00EFF09002ACE0FF7004D2978075D3EF64C7
:1047FE008094804005D29702488EC3EF64809480E7
:10480E004003024892D29780689002ACE0FF90007D
:10481E005DE0B507012290005DEFF09002ACE0FF85
:10482E007007C297C2A0D2A122D3EF6480948040B9
:10483E0007C297C2A0C2A122C3EF648094805044E5
:10484E00C297D2A0C2A1229002ACE0FF90005EE01F
:10485E00B507012290005EEFF09002ACE0FF70070A
:10486E00C297C2A2D2A322D3EF648094804007C223
:10487E0097C2A2C2A322C3EF648094805006C2974F
:05488E00D2A2C2A3222A
:104C2600900044E0FF3395E0FEC3E49FFDE49EFC64
:024C36007F28D5
:104C38009002D5ECF0A3EDF0D39464EC64809480FA
:104C4800400B9002D5E4F0A37464F08018C390027E
:104C5800D6E0949C9002D5E06480947F500774FF5E
:104C6800F0A3749CF0EF24D7606C147003024D37E6
:104C780024026003024DD390005FE0FF3395E0FE0D
:104C88009002D5E0FCA3E0FDB50705ECB5060122CE
:104C980090005FEDF09002D5E0FAA3E0FB4A7003C4
:104CA800024D80D3EB9400EA64809480400AD2DEFF
:104CB8009002D5A3E0024D809002D5E0FEA3E0FF6C
:104CC800C3EE648094804003024DD3D2DE1261FBB0
:104CD800126163D29522900060E0FF3395E0FE9068
:104CE80002D5E0FCA3E0FDB50705ECB5060122906E
:104CF8000060EDF09002D5E0FAA3E0FB4A700302F1
:104D08004DA4D3EB9400EA64809480400AD2DE90EC
:104D180002D5A3E0024DA49002D5E0FEA3E0FFC3B4
:104D2800EE648094804003024DD3D2DE024DCB90D6
:104D3800005FE0FF3395E0FE9002D5E0FCA3E0FDC4
:104D4800B50716ECB50612900060E0FF3395E0FE5B
:104D5800EDB50705ECB5060122AF05900060EFF050
:104D680090005FF09002D5E0FAA3E0FB4A7010C211
:104D7800DEFF126149C292E4FF126163C29522D339
:104D8800EB9400EA648094804019D2DE9002D5A3A7
:104D9800E0FF126163C2959002D5A3E0FF1261495A
:104DA800C292229002D5E0FEA3E0FFC3EE64809495
:104DB800805018D2DE1261FB126163D2959002D541
:0C4DC800A3E0FF1261FB126149D29222AD
:105F6900900365EFF0900062E06F6035900365E0A3
:105F7900B4510C7D9C7F2B12465E30B30C80FB7DA7
:105F8900647F2B12465E20B4FD7D157F147E0012BE
:105F99005EFAE4FD7F2B12465E900365E090006295
:025FA900F022E4
:1056AA00900366EFF0900064E06F70030257E09099
:1056BA000366E024C36023146069147003025773FD
:1056CA001470030257BB240460030257D17D647F20
:1056DA002C12465E20B5FD0257C5900064E024C234
:1056EA00601A14602414602E240460030257D17DCA
:1056FA009C7F2C12465E9002190257B47D647F2C5F
:10570A0012465E90021B0257B47D647F2C12465EDD
:10571A009002270257B47D647F2C12465E90022BBA
:10572A000257B4900064E024C3601A24FE60221475
:10573A00602B240460030257D17D9C7F2C12465EA5
:10574A0090022180657D9C7F2C12465E90021B8010
:10575A00597D647F2C12465E90021D804D7D647FC8
:10576A002C12465E9002238041900064E024C360BC
:10577A001714602024FE60282404704B7D9C7F2C23
:10578A0012465E90022980227D9C7F2C12465E90F2
:10579A00022580167D9C7F2C12465E90021D800A8F
:1057AA007D647F2C12465E90021FE0FEA3E0FF801C
:1057BA00117D9C7F2C12465E20B6FD900218E0FFF8
:1057CA007E007D15125EFAE4FD7F2C12465E900380
:0757DA0066E0900064F0227C
:10540900900367EFF0900063E06F7003025562C28A
:1054190096900367E024BAB40900400302555390FB
:10542900543675F003A4C58325F0C583730254511E
:1054390002546002547C02549C0254BB0254DA02A6
:1054490054F902551802553A7D647F2D12465EC201
:105459009620A4FD025546900063E0FF900367E0A3
:10546900D39F40057D9C0255307F481254097D64C5
:10547900025530900063E0FF900367E0C39F50043A
:105489007D6480027D9C7F2D12465EC29620A5FD1B
:10549900025546900063E0FF900367E0D39F4009FF
:1054A9007F481254097D9C80077F4A1254097D6404
:1054B9008075900063E0FF900367E0C39F50047D0F
:1054C9006480027D9C7F2D12465EC29620A6FD80D7
:1054D9006C900063E0FF900367E0D39F40097F4A27
:1054E9001254097D9C80077F4C1254097D648037D2
:1054F900900063E0FF900367E0C39F50047D6480E0
:10550900027D9C7F2D12465EC29620A7FD802E90BB
:105519000063E0FF900367E0D39F40097F4C12547A
:10552900097D9C80027D647F2D12465E9002168063
:105539000F7D9C7F2D12465ED29620A4FD90021409
:10554900E0FEA3E0FF7D15125EFAE4FD7F2D124611
:0A5559005E900367E0900063F0220B
:1052AB00900368EFF0900065E0FE6F700302540806
:1052BB00D296900368E024CD6058147003025365B6
:1052CB001470030253AC240360030253F9EE24CC95
:1052DB00602014602D240260030253F97D9C7F2E05
:1052EB0012465E125EF420A5FD30A5FD20A5FD0241
:1052FB0053EC7D647F2E12465E125EF420A5FD02F8
:10530B0053EC7D9C7F2E12465E125EF420A5FD02AF
:10531B0053EC900065E024CC602014602D240360D6
:10532B00030253F97D647F2E12465E125EF420A5B4
:10533B00FD30A5FD20A5FD0253EC7D9C7F2E124672
:10534B005E125EF420A5FD0253EC7D647F2E1246A7
:10535B005E125EF420A5FD0253EC900065E024CDB7
:10536B00601B24FE6026240360030253F97D9C7F9F
:10537B002E12465E125EF420A5FD0253EC7D647F77
:10538B002E12465E125EF420A5FD80557D9C7F2E6D
:10539B0012465E125EF420A5FD30A5FD20A5FD8012
:1053AB0040900065E024CD60161460222402703E0C
:1053BB007D647F2E12465E125EF420A5FD80227D59
:1053CB009C7F2E12465E125EF420A5FD80137D6439
:1053DB007F2E12465E125EF420A5FD30A5FD20A5A2
:1053EB00FD90022DE0FEA3E0FF7D15125EFAE4FDB9
:0E53FB007F2E12465E900368E0900065F0225F
:045563007D347F3ED6
:10556700900361EFF0A3EDF024CE6033146045247F
:10557700FE601804705C900065E024CE600914603A
:105587000824FE704D803C803A803C900065E02402
:10559700CE6008146007147039802C802A8024900C
:1055A7000065E024CD600B24FE600504702480179D
:1055B7008011800F900065E024CE600F24FD600706
:1055C70004700F7D9C80067D6480027D647F2E12AF
:1055D700465E900361E0FF1256AAD296125EF490DF
:1055E7000362E024CD6034146055146077240360AF
:1055F7000302569A900065E024CC601514601724C6
:1056070002600302569A20A5FD30A5FD20A5FD8066
:105617007520A5FD807020A5FD806B900065E024B6
:10562700CC60121460142403706920A5FD30A5FD19
:1056370020A5FD805120A5FD804C20A5FD80479029
:105647000065E024CD600D24FE600E240370442025
:10565700A5FD803220A5FD802D20A5FD30A5FD20CC
:10566700A5FD8022900065E024CD600C14600E2417
:1056770002702020A5FD800E20A5FD800920A5FD34
:1056870030A5FD20A5FD90022DE0FEA3E0FF7D15CE
:10569700125EFAE4FD7F2E12465E900362E09000F0
:0356A70065F02289
:0940DD0090033FEFF0A3EDF0FBAE
:1040E600A312275F0000000090034512275F00001F
:1040F600FFFFE4900349F0A3F0A3F0900065E0FF12
:104106006B70030241A4900340E024CD601C146050
:104116002E1460432403706EEF24CC6009146008EB
:1041260024027062802D803E8040900065E024CCA1
:1041360060091460082403704D803E802D8027900E
:104146000065E024CD600A24FE60082403703780F1
:104156001980137D9C8024900065E024CD600B14AB
:104166006017240270207D6480027D9C7F2E12469B
:104176005E90034A7401F0800D7D647F2E12465EC8
:1041860090034A7402F0E51F24E8FFE51E3403FE9F
:10419600E4351DFDE4351CFC9003451227539000C1
:1041A60063E0FF90033FE0FE6F6016EEC39F50048E
:1041B6007D6480027D9C7F2D12465E9003490243FA
:1041C6006490005EE0700990005DE0700302439D1C
:1041D600900349E0FB640160030242FC90033FE068
:1041E60024BAB4090040030243309041FE75F0033F
:1041F600A4C58325F0C5837302421902422D0242EB
:104206004802425B02427102428402429A0242AD75
:104216000242C8C2967D147F147E00125EFA30A454
:10422600030243300242D6C2967D147F147E0012EA
:104236005EFA900063E06446602F30A503024330C7
:10424600807BC2967D147F147E00125EFA30A50331
:10425600024330807BC2967D147F147E00125EFA84
:1042660030A50630A6030243308052C2967D147FE5
:10427600147E00125EFA30A6030243308052C296C4
:104286007D147F147E00125EFA30A60630A7030264
:1042960043308029C2967D147F147E00125EFA3068
:1042A600A7030243308029C2967D147F147E001234
:1042B6005EFA30A708900063E0644E706D900216B7
:1042C6008011D2967D147F147E00125EFA20A45AC5
:1042D600900214E0FEA3E0FFEF251FFFEE351EFE61
:1042E600E4351DFDE4351CFC900341122753900371
:1042F600497402F08034EBB40230AF1FAE1EAD1D20
:10430600AC1C900341E0F8A3E0F9A3E0FAA3E0FBBC
:10431600D31227425014E4FD7F2D12465EE490032B
:1043260049F090033FE0900063F0AF1FAE1EAD1D55
:10433600AC1C900345E0F8A3E0F9A3E0FAA3E0FB88
:10434600D312274240030241C790034AE0602CD2B1
:10435600967D147F147E00125EFA30A507A37401C1
:10436600F00241C790034BE0640160030241C7902D
:10437600034AE014F0E4A3F00241C7E4FD7F2E12E5
:10438600465E90034512275F0000FFFF900340E062
:07439600900065F00241C731
:01439D0022FD
:0B39C900900331EFF0A3EDF0A3EBF052
:1039D400A312275F0000000090033812275F000045
:1039E400FFFFE490033CF0A3F0A3F0C22290006533
:1039F400E0FF6B7003023A94900333E024CD601C23
:103A040014602E1460432403706EEF24CC600914F8
:103A1400600824027062802D803E8040900065E042
:103A240024CC60091460082403704D803E802D80EE
:103A340027900065E024CD600A24FE60082403700A
:103A440037801980137D9C8024900065E024CD602C
:103A54000B146017240270207D6480027D9C7F2EED
:103A640012465E90033D7401F0800D7D647F2E123A
:103A7400465E90033D7402F0E51F24E8FFE51E3422
:103A840003FEE4351DFDE4351CFC90033812275376
:103A9400900063E0FF900332E0FE6F6016EEC39F78
:103AA40050047D6480027D9C7F2D12465E90033C11
:103AB400023D2990005EE0700F90005DE070099077
:103AC400033CE07003023D6290033CE024FE70037B
:103AD400023C13147003023C4C147003023C6E1439
:103AE4007003023CC524046003023CF5900332E0F9
:103AF40024BAB409004003023CF5903B0C75F00372
:103B0400A4C58325F0C58373023B27023B3B023BDC
:103B140057023B6B023B81023B94023BAA023BBD32
:103B2400023BDBC2967D147F147E00125EFA30A441
:103B340003023CF5023BECC2967D147F147E001216
:103B44005EFA900063E06446603130A503023CF500
:103B5400023BD6C2967D147F147E00125EFA30A515
:103B640003023CF5023BECC2967D147F147E0012E6
:103B74005EFA30A50630A603023CF58055C2967D58
:103B8400147F147E00125EFA30A603023CF58058BE
:103B9400C2967D147F147E00125EFA30A60630A70A
:103BA40003023CF5802CC2967D147F147E00125EC5
:103BB400FA30A703023CF5802FC2967D147F147E51
:103BC40000125EFA30A70B900063E0644E600302BB
:103BD4003CF59002168014D2967D147F147E001258
:103BE4005EFA30A403023CF5900214E0FEA3E0FF69
:103BF400EF251FFFEE351EFEE4351DFDE4351CFCEC
:103C040090033412275390033C7402F0023CF5AF46
:103C14001FAE1EAD1DAC1C900334E0F8A3E0F9A365
:103C2400E0FAA3E0FBD31227424003023CF5E4FD93
:103C34007F2D12465EE490033CF07403F09003324F
:103C4400E0900063F0023CF5900331E0B440047D61
:103C54009C8009900331E0B43C077D647F2C1246BC
:103C64005E90033C7404F0023CF5900331E0FBB435
:103C7400402420B621900218E0FFEF251FFFE43511
:103C84001EFEE4351DFDE4351CFC9003341227535D
:103C940090033C7405F0EB643C705620B5539002DD
:103CA40018E0FFEF251FFFE4351EFEE4351DFDE49B
:103CB400351CFC90033412275390033C7405F080A8
:103CC40030AF1FAE1EAD1DAC1C900334E0F8A3E072
:103CD400F9A3E0FAA3E0FBD31227425014E4FD7FDA
:103CE4002C12465EE490033CF0900331E0900064B3
:103CF400F0AF1FAE1EAD1DAC1C900338E0F8A3E07E
:103D0400F9A3E0FAA3E0FBD31227424003023AB737
:103D140090033DE0602CD2967D147F147E00125EE9
:103D2400FA30A507A37401F0023AB790033EE064A9
:103D3400016003023AB790033DE014F0E4A3F002FB
:103D44003AB7E4FD7F2E12465E90033812275F00D7
:0E3D540000FFFF900333E0900065F0023AB7E5
:013D6200223E
:105B340020872B20862830842530832220811F2033
:105B4400801C3085032082062085132082107D1559
:105B54007F0A7E00125EFAE4FD7F2A02465E2084FC
:105B64000B7D0C7F2812465E7DF4800C20830E7D15
:105B7400F47F2812465E7D0C7F2912465E30820E29
:105B840020850B7D087F2812465E7DF8800F3085C6
:105B94001120820E7DF87F2812465E7D087F29122F
:105BA400465E20860330870B7DF07F2812465E7D9B
:105BB40010800F20810330800E7D107F2812465EF6
:105BC4007DF07F2912465E7D157F647E00125EFAA9
:035BD400025B343D
:102FEF00900040E0FBA3E0FAA3E0F91224F0249C48
:102FFF00603F14700302334814700302325424E408
:10300F006003023545E4FDFC7F2A124C38900046E0
:10301F00740CF07E007F407D007B017A00790012F6
:10302F0027E29000407401F0A37400F0A37400F045
:10303F0022900040E0FBA3E0FAA3E0F99000011218
:10304F002509700302324220870330802330862007
:10305F0030851D30841AA2828283501430811190E2
:10306F000047740BF0900043E0FD3395E002324EC1
:10307F00900047E0B40B16740CF0900040E0FBA3F7
:10308F00E0FAA3E0F990000174FF022536900043A7
:10309F00E0FF3395E0F5198F1AF5178F1830853942
:1030AF00208236E5182415FFE43517FE7C007D0AD3
:1030BF00122604C3E5189FF518E5179EF517C3747C
:1030CF0063951AFFE49519FE7C007D0A122604EF22
:1030DF00251AF51AEE3519F519308239208536C3C0
:1030EF0074639518FFE49517FE7C007D0A12260481
:1030FF00EF2518F518EE3517F517E51A2415FFE427
:10310F003519FE7C007D0A122604C3E51A9FF51AB5
:10311F00E5199EF519308643208140E5182415FFE7
:10312F00E43517FE7C007D0312259D7D0A122604CF
:10313F00C3E5189FF518E5179EF517C37463951A25
:10314F00FFE49519FE7C007D0312259D7D0A122652
:10315F0004EF251AF51AEE3519F51930814320863B
:10316F0040C374639518FFE49517FE7C007D03122E
:10317F00259D7D0A122604EF2518F518EE3517F553
:10318F0017E51A2415FFE43519FE7C007D0312257F
:10319F009D7D0A122604C3E51A9FF51AE5199EF5BF
:1031AF0019308743208040E5182415FFE43517FEBA
:1031BF007C007D0512259D7D0A122604C3E5189F0C
:1031CF00F518E5179EF517C37463951AFFE4951963
:1031DF00FE7C007D0512259D7D0A122604EF251A1F
:1031EF00F51AEE3519F51920800302353320874083
:1031FF00C374639518FFE49517FE7C007D051225B7
:10320F009D7D0A122604EF2518F518EE3517F517D0
:10321F00E51A2415FFE43519FE7C007D0512259D66
:10322F007D0A122604C3E51A9FF51AE5199EF519B2
:10323F00023533900041E475F00212263AE4FDFCAA
:10324F007F2A023542E51B14700302331B147003EF
:10325F0002333D24026003023545900040E0FBA39A
:10326F00E0FAA3E0F990000112250924A6602D24AD
:10327F00FE606714603C2402600302331890004420
:10328F00E0FD3395E0FC7F28124C38900044E0FFBE
:10329F003395E0FEC3E49FFDE49E800B124C269015
:1032AF000044E0FD3395E0FC7F29124C3890023149
:1032BF00803C900044E0FD3395E0FC7F28124C38B1
:1032CF00900044E0FF3395E0FEC3E49FFDE49EFCD5
:1032DF007F29124C389002358014124C26900044EE
:1032EF00E0FD3395E0FC7F29124C38900235E0FE6B
:1032FF00A3E0FFEF251FFFEE351EFEE4351DFDE4B5
:10330F00351CFC900048122753051B22AF1FAE1E21
:10331F00AD1DAC1C900048E0F8A3E0F9A3E0FAA3C0
:10332F00E0FBD31227424003023545051B222085BF
:10333F006B2082030235458063E51B1460420460F5
:10334F0003023545900040E0FBA3E0FAA3E0F990BB
:10335F000001122509FF3395E0FE7C007D0A12253E
:10336F009DEE3395E0FDFCEF251FFFEE351EFEEDC4
:10337F00351DFDEC351CFC900048122753051B2210
:10338F00AF1FAE1EAD1DAC1C900048E0F8A3E0F9D6
:10339F00A3E0FAA3E0FBD31227425020E4FDFC7F09
:1033AF002A124C38900041E475F00212263A900030
:1033BF004812275F00000000E4F51B22900045E053
:1033CF00FF3395E0F5198F1AF5178F1830873620D0
:1033DF008033AC17AD18EC121FF67433FBFAF97883
:1033EF003F121EEB12202F8E178F18AC19AD1AEC4F
:1033FF00121FF67B667A6679A6783F121EEB1220B3
:10340F002F8E198F1A308036208733AC17AD18ECFA
:10341F00121FF67B667A6679A6783F121EEB122092
:10342F002F8E178F18AC19AD1AEC121FF67433FBD1
:10343F00FAF9783F121EEB12202F8E198F1A308651
:10344F0037208134AC17AD18EC121FF67BCD7ACC38
:10345F00794C783F121EEB12202F8E178F18AC1954
:10346F00AD1AEC121FF67B9A7A997999783F121E52
:10347F00EB12202F8E198F1A308137208634AC171C
:10348F00AD18EC121FF67B9A7A997999783F121E34
:10349F00EB12202F8E178F18AC19AD1AEC121FF6E6
:1034AF007BCD7ACC794C783F121EEB12202F8E19E0
:1034BF008F1A308536208233AC17AD18EC121FF6F9
:1034CF007466FBFAF9783F121EEB12202F8E178FBE
:1034DF0018AC19AD1AEC121FF67BCD7ACC798C781B
:1034EF003F121EEB12202F8E198F1A308236208535
:1034FF0033AC17AD18EC121FF67BCD7ACC798C78E4
:10350F003F121EEB12202F8E178F18AC19AD1AEC2D
:10351F00121FF67466FBFAF9783F121EEB12202F7A
:10352F008E198F1AAD1AAC197F29124C38AD18AC01
:06353F00177F28124C3832
:013545002263
:0B5D7B009002D7EFF0A3EDF0A3EBF0D7
:105D8600E4FF90030204F0A37402F0A374DA801314
:105D9600EE64826025AD070F74002DF582E43400B1
:105DA600F583EEF0900302E0FBA3E475F001122602
:105DB60050A9F0FA1224F0FE80D674002FF582E482
:105DC6003400F5837482F0900047740CF090004024
:105DD6007401F0A37400F0A37400F09002D7E09071
:105DE6000043F09002D8E0900044F09002D9E09091
:075DF6000045F0A3740BF05F
:015DFD002283
:054DD400900355EDF015
:104DD900A3EFF0900356E07003024F77208703306A
:104DE900802430862130851E30841BA28282835024
:104DF90015308112900359740BF0900355E0FD7F33
:104E09002A12465E80CD900359E0B40B0B740CF066
:104E1900900356E014F080BB900355E0900358F0DE
:104E2900900357F0308527208224A3E0FF75F00A0C
:104E390084FEC3EF9EF0900357E0FFC374649FFFA5
:104E4900E49400FE7C007D0A1225AFE02FF0308249
:104E590029208526900358E0FFC374649FFFE494DA
:104E690000FE7C007D0A1225AFE02FF0900357E089
:104E7900FF75F00A84FEC3EF9EF03086332081303F
:104E8900900358E0FF75F00A8475F003A4FEC3EFA0
:104E99009EF0900357E0FFC374649FFFE49400FE03
:104EA9007C007D0A1225AFEF75F003A4FFE02FF017
:104EB900308133208630900358E0FFC374649FFF2C
:104EC900E49400FE7C007D0A1225AFEF75F003A47F
:104ED900FFE02FF0900357E0FF75F00A8475F003A7
:104EE900A4FEC3EF9EF0308733208030900358E052
:104EF900FF75F00A8475F005A4FEC3EF9EF09003D8
:104F090057E0FFC374649FFFE49400FE7C007D0AB0
:104F19001225AFEF75F005A4FFE02FF030803320A4
:104F29008730900358E0FFC374649FFFE49400FE48
:104F39007C007D0A1225AFEF75F005A4FFE02FF084
:104F4900900357E0FF75F00A8475F005A4FEC3EFDE
:104F59009EF0900357E0FD7F2912465E900358E0CA
:104F6900FD7F2812465E7D15125EF6024DDC7D2816
:054F79007F28024893AF
:105DFE00900369EDF0EF24A6601D24FE604614604A
:105E0E002824027059900369E0FD7F2812465E90A7
:105E1E000369E0F4048007124655900369E0FD7FA4
:105E2E002912465E90022F802B900369E0FD7F2899
:105E3E0012465E900369E0F404FD7F2912465E90DF
:105E4E0002338010124655900369E0FD7F291246F9
:105E5E005E900233E0FEA3E0FF7D15125EFA208510
:0B5E6E00FD2082FAE4FD7F2A02465E60
:0548930090035EEDF052
:10489800EF75F00AA4FFEF251FFFE5F0351EFEE4D3
:1048A800351DFDE4351CFC900048122753AF1FAEA0
:1048B8001EAD1DAC1C900048E0F8A3E0F9A3E0FA97
:1048C800A3E0FBD31227425003024A6A90035EE03A
:1048D800900360F090035FF0308738208035A3E0C4
:1048E800FCE4121FFB7433FBFAF9783F121EEB123B
:1048F800202F900360EFF090035FE0FCE4121FFBB1
:104908007B667A6679A6783F121EEB12202F9003F9
:104918005FEFF030803A208737900360E0FCE412C4
:104928001FFB7B667A6679A6783F121EEB12202F52
:10493800900360EFF090035FE0FCE4121FFB743318
:10494800FBFAF9783F121EEB12202F90035FEFF06D
:1049580030863B208138900360E0FCE4121FFB7B2B
:10496800CD7ACC794C783F121EEB12202F90036041
:10497800EFF090035FE0FCE4121FFB7B9A7A9979D1
:1049880099783F121EEB12202F90035FEFF03081D1
:104998003B208638900360E0FCE4121FFB7B9A7A88
:1049A800997999783F121EEB12202F900360EFF04F
:1049B80090035FE0FCE4121FFB7BCD7ACC794C7846
:1049C8003F121EEB12202F90035FEFF030853A2044
:1049D8008237900360E0FCE4121FFB7466FBFAF96F
:1049E800783F121EEB12202F900360EFF090035FC8
:1049F800E0FCE4121FFB7BCD7ACC798C783F121E49
:104A0800EB12202F90035FEFF030823A2085379029
:104A18000360E0FCE4121FFB7BCD7ACC798C783FF5
:104A2800121EEB12202F900360EFF090035FE0FC62
:104A3800E4121FFB7466FBFAF9783F121EEB122092
:104A48002F90035FEFF090035FE0FD7F2912465E31
:104A5800900360E0FD7F2812465E7D15125EF60227
:094A680048B5E4FD7F2A02465E18
:0D000E00E4F5C7F5C5F5C675C380F5C4223D
:1060BC0075C78375C5018FC4EEF5C375C65A75C611
:0F60CC00A57D147F0A7E00125EFAAFC212000E8D
:0160DB0022A2
:10609B0075C78375C5028FC4EEF5C3AF058FC27587
:1060AB00C65A75C6A57D147F0A7E00125EFA0200E1
:0160BB000ED6
:1060DC0075C78375C5038FC4EEF5C375C65A75C6EF
:0D60EC00A57D147F0A7E00125EFA02000EF0
:104A71007F3C1256AA7F401256AAAF1FAE1EAD1D33
:104A8100AC1C90035A1227537F3C1256AA7F401246
:104A910056AA90035AE0F8A3E0F9A3E0FAA3E0FBD9
:104AA100C3E51F9BFFE51E9AFEE51D99FDE51C98D8
:104AB100FC90035A12275390035AE0FCA3E0FDA394
:104AC100E0FEA3E0FFE4121FF1E4FBFAF9783F12E4
:104AD1001EEB12202F90035A12275390035AE0FC29
:104AE100A3E0FDA3E0FEA3E0FFE4121FF1E4FBFA63
:104AF100F9783F121EEB12202F900223EEF0A3EF64
:104B0100F0900221EEF0A3EFF090035AE0FCA3E055
:104B1100FDA3E0FEA3E0FFE4121FF1E4FBFA7940FC
:104B2100783F121EEB12202F900229EEF0A3EFF036
:104B310090035AE0FCA3E0FDA3E0FEA3E0FFE41232
:104B41001FF17B4E7A627910783F121EEB12202FF3
:104B510090022BEEF0A3EFF090035AE0FCA3E0FDEE
:104B6100A3E0FEA3E0FFE4121FF17B7B7A1479AE90
:104B7100783E121EEB12202F900219EEF0A3EFF0F7
:104B810090035AE0FCA3E0FDA3E0FEA3E0FFE412E2
:104B91001FF17B8C7A4A798A783E121EEB12202F04
:104BA10090021FEEF0A3EFF090035AE0FCA3E0FDAA
:104BB100A3E0FEA3E0FFE4121FF17B377A8979417C
:104BC100783E121EEB12202F90021BEEF0A3EFF0A5
:104BD10090035AE0FCA3E0FDA3E0FEA3E0FFE41292
:104BE1001FF17BCD7ACC794C783E121EEB12202F2F
:104BF10090021DEEF0A3EFF090035AE0FCA3E0FD5C
:104C0100A3E0FEA3E0FFE4121FF1E4FBFAF9783F11
:104C1100121EEB12202F900225EEF0A3EFF0A3EE6F
:044C2100F0A3EFF01D
:014C2500226C
:1061D400438780759850438E04759CD9438E014340
:0361E4008E1022F8
:1057E1007F50125F69125EF47F51125F69125EF49D
:1057F1007F50125F69125EF47F51125F69125EF48D
:105801009000647440F07F3C1256AA125EF47F400F
:105811001256AA125EF47F3C1256AA125EF47F4021
:105821001256AA125EF47F46125409125EF47F48A2
:10583100125409125EF47F4A125409125EF47F4C2D
:10584100125409125EF47F4E125409125EF47F4C19
:10585100125409125EF47F4A125409125EF47F4811
:10586100125409125EF47F46125409900065E090CB
:105871000058F09000657432F07F351252AB125E21
:10588100F47F321252AB125EF47F351252AB125ECC
:10589100F47F321252AB125EF4900058E090006532
:1058A100F07D3C7F2A12465E125EF4E4FD7F2A12EF
:1058B100465E125EF47DC47F2A12465E125EF4E4F7
:1058C100FD7F2A12465E125EF47D287F2912465E14
:1058D1007DD87F2812465E125EF4E4FD7F2A1246CF
:1058E1005E125EF47DD87F2912465E7D287F2812E4
:0C58F100465E125EF4E4FD7F2A02465E73
:105E7900E4F090029CE0FFA3E0900306F090029EFC
:105E8900E0900307F090029FE0900308F09002A0D1
:105E9900E0900309F09002A1E090030AF09002A2B9
:105EA900E090030BF09002A3E090030CF0A374823E
:015EB900F0F8
:055EBA00900305EFF06C
:105EBF00E0FF90032E7401F0A37403F0A37406F0B7
:105ECF00800CEE6482601DEEC39F5002AF069003FC
:105EDF002EE0FBA3E475F001122650A9F0FA12246C
:045EEF00F0FE80DE63
:015EF300228C
:08439E009002A5EFF0A3EDF081
:1043A60075F054EFA4246AF582E5F03400F58375C0
:1043B600F006ED122790EBF09002ADE0FF9002AA16
:1043C600E0FCA3E090006A75F054122790EC75F0BB
:1043D60054A42583F583C083C0829002ACE0D082CA
:1043E600D08375F006122790EFF09002B3E0FF90AD
:1043F60002B0E0FCA3E090006A75F054122790EC3E
:1044060075F054A42583F583C083C0829002B2E080
:10441600D082D08375F006122790EFF09002B9E0B3
:10442600FF9002B6E0FCA3E090006A75F0541227F4
:1044360090EC75F054A42583F583C083C082900266
:10444600B8E0D082D08375F006122790EFF0900284
:10445600BCE090020EF09002A8E0FF9002A5E07585
:10446600F054A4246BF582E5F03400F583C083C0D4
:10447600829002A6E0D082D08375F006122790EFD4
:10448600F09002AEE0FF9002AAE0FCA3E090006B81
:1044960075F054122790EC75F054A42583F583C06B
:1044A60083C0829002ACE0D082D08375F0061227DA
:1044B60090EFF09002B4E0FF9002B0E0FCA3E09031
:1044C600006B75F054122790EC75F054A42583F513
:1044D60083C083C0829002B2E0D082D08375F0069A
:1044E600122790EFF09002BAE0FF9002B6E0FCA32C
:1044F600E090006B75F054122790EC75F054A425EB
:1045060083F583C083C0829002B8E0D082D08375E1
:10451600F006122790EFF09002BDE090020FF090A7
:1045260002A5E0FFA3E09002A812280E9002AAA31B
:10453600E0FFA3E09002AE12280E9002B0A3E0FFC7
:10454600A3E0FD9002B412280F9002B6A3E0FFA3E9
:10455600E0FD9002BA12280FE4FF75F006EFA424DE
:1045660068F582E5F03400F583740CF075F006EF1B
:10457600A424B9F582E5F03401F583740CF00FEF4D
:10458600B40ED7E4FF75F054EFA42467F582E5F086
:104596003400F583740CF075F054EFA424AEF58264
:1045A600E5F03400F583740CF075F054EFA424B4F0
:1045B600F582E5F03400F583740CF00FEFB405C511
:1045C6009000B7740CF0900206F090010BF0900189
:1045D6000AF0900109F090015FF090015EF0900101
:1045E6005DF09001B3F09001B2F09001B1F090014E
:1045F60059F0900158F0900157F0900105F09001A4
:10460600ACF0900150F09000BDF090016BF090017D
:10461600B8F09001BEF0900114F0A3F0A3F0A3F05F
:1046260090010EF0A3F0A3F0A3F0900168F0A3F0C0
:10463600A3F0A3F0900162F0A3F0A3F0A3F0900121
:0E4646001DF090011BF0900170F090016FF0DC
:014654002243
:09280E00FDE0FBA3E09002C1F023
:10281700EB64336003022BFF9002C1E06434600372
:10282700022A0EEF60030228BD75F054EFA4246955
:10283700F582E5F03400F58375F006ED1227907404
:102847000CF075F054EFA424BCF582E5F03400F5E4
:102857008375F006ED122790740CF075F054EFA411
:102867002410F582E5F03401F58375F006ED1227A3
:1028770090740CF075F054EFA42463F582E5F034FE
:1028870000F58375F006ED122790740CF075F0547F
:10289700EFA424B6F582E5F03400F58375F006ED74
:1028A700122790740CF075F054EFA4240AF582E512
:1028B700F03401022BFCEF640375F0546003022926
:1028C70052EFA42415F582E5F03400F58375F00680
:1028D700ED122790740CF075F054EFA42469F5827B
:1028E700E5F03400F58375F006ED122790740CF0CF
:1028F70075F054EFA424BCF582E5F03400F5837538
:10290700F006ED122790740CF075F054EFA4240F25
:10291700F582E5F03400F58375F006ED1227907423
:102927000CF075F054EFA42463F582E5F03400F55C
:102937008375F006ED122790740CF075F054EFA430
:1029470024B6F582E5F03400022A0BEFA42415F52E
:1029570082E5F03400F58375F006ED122790740CCC
:10296700F075F054EFA42469F582E5F03400F5839F
:1029770075F006ED122790740CF075F054EFA4244F
:10298700BCF582E5F03400F58375F006ED1227906B
:10299700740CF075F054EFA42410F582E5F03401BF
:1029A700F58375F006ED122790740CF075F054EF6F
:1029B700A4240FF582E5F03400F58375F006ED12D7
:1029C7002790740CF075F054EFA42463F582E5F0BA
:1029D7003400F58375F006ED122790740CF075F04E
:1029E70054EFA424B6F582E5F03400F58375F006BC
:1029F700ED122790740CF075F054EFA4240AF582B9
:102A0700E5F03401022BFC9002C1E064356003025B
:102A17002FEEEF64016003022AAE75F054EFA42491
:102A270015F582E5F03400F58375F006ED12279071
:102A3700740CF075F054EFA42468F582E5F03400C7
:102A4700F58375F006ED122790740CF075F054EFCE
:102A5700A424BCF582E5F03400F58375F006ED1289
:102A67002790740CF075F054EFA4240FF582E5F06D
:102A77003400F58375F006ED122790740CF075F0AD
:102A870054EFA42462F582E5F03400F58375F0066F
:102A9700ED122790740CF075F054EFA424B6F5826C
:102AA700E5F03400022DF6EF640475F0546003027C
:102AB7002B43EFA424C1F582E5F034FFF58375F0CD
:102AC70006ED122790740CF075F054EFA42415F559
:102AD70082E5F03400F58375F006ED122790740C4B
:102AE700F075F054EFA42468F582E5F03400F5831F
:102AF70075F006ED122790740CF075F054EFA424CE
:102B0700BBF582E5F034FFF58375F006ED122790EB
:102B1700740CF075F054EFA4240FF582E5F034003F
:102B2700F58375F006ED122790740CF075F054EFED
:102B3700A42462F582E5F03400022BFCEFA424C143
:102B4700F582E5F034FFF58375F006ED12279074F2
:102B57000CF075F054EFA42415F582E5F03400F578
:102B67008375F006ED122790740CF075F054EFA4FE
:102B77002468F582E5F03400F58375F006ED122739
:102B870090740CF075F054EFA424BCF582E5F03492
:102B970000F58375F006ED122790740CF075F0546C
:102BA700EFA424BBF582E5F034FFF58375F006ED5D
:102BB700122790740CF075F054EFA4240FF582E5FA
:102BC700F03400F58375F006ED122790740CF0755C
:102BD700F054EFA42462F582E5F03400F58375F034
:102BE70006ED122790740CF075F054EFA424B6F597
:102BF70082E5F03400022DF6EB64326003022FEE1B
:102C07009002C1E0FE64346003022DF9EF640160B5
:102C170003022CA875F054EFA42415F582E5F034CF
:102C270000F58375F006ED122790740CF075F054DB
:102C3700EFA42468F582E5F03400F58375F006ED1E
:102C4700122790740CF075F054EFA424BCF582E5BC
:102C5700F03400F58375F006ED122790740CF075CB
:102C6700F054EFA4241BF582E5F03400F58375F0EA
:102C770006ED122790740CF075F054EFA4246EF54E
:102C870082E5F03400F58375F006ED122790740C99
:102C9700F075F054EFA424C2F582E5F03400022F5A
:102CA700E2EF640475F0546003022D3DEFA424C1E4
:102CB700F582E5F034FFF58375F006ED1227907481
:102CC7000CF075F054EFA42415F582E5F03400F507
:102CD7008375F006ED122790740CF075F054EFA48D
:102CE7002468F582E5F03400F58375F006ED1227C8
:102CF70090740CF075F054EFA424C7F582E5F03416
:102D0700FFF58375F006ED122790740CF075F054FB
:102D1700EFA4241BF582E5F03400F58375F006ED8A
:102D2700122790740CF075F054EFA4246EF582E529
:102D3700F03400022DF6EFA424C1F582E5F034FF4C
:102D4700F58375F006ED122790740CF075F054EFCB
:102D5700A42415F582E5F03400F58375F006ED122D
:102D67002790740CF075F054EFA42468F582E5F011
:102D77003400F58375F006ED122790740CF075F0AA
:102D870054EFA424BCF582E5F03400F58375F00612
:102D9700ED122790740CF075F054EFA424C7F58258
:102DA700E5F034FFF58375F006ED122790740CF00B
:102DB70075F054EFA4241BF582E5F03400F5837514
:102DC700F006ED122790740CF075F054EFA4246E02
:102DD700F582E5F03400F58375F006ED122790745F
:102DE7000CF075F054EFA424C2F582E5F03400022C
:102DF7002FE2EE64356003022FEEEF6003022E949C
:102E070075F054EFA42469F582E5F03400F5837575
:102E1700F006ED122790740CF075F054EFA424BC63
:102E2700F582E5F03400F58375F006ED122790740E
:102E37000CF075F054EFA42410F582E5F03401F599
:102E47008375F006ED122790740CF075F054EFA41B
:102E5700246FF582E5F03400F58375F006ED12274F
:102E670090740CF075F054EFA424C2F582E5F034A9
:102E770000F58375F006ED122790740CF075F05489
:102E8700EFA42416F582E5F03401022FE2EF640384
:102E970075F0546003022F29EFA42415F582E5F09D
:102EA7003400F58375F006ED122790740CF075F079
:102EB70054EFA42469F582E5F03400F58375F00634
:102EC700ED122790740CF075F054EFA424BCF58232
:102ED700E5F03400F58375F006ED122790740CF0D9
:102EE70075F054EFA4241BF582E5F03400F58375E3
:102EF700F006ED122790740CF075F054EFA4246FD0
:102F0700F582E5F03400F58375F006ED122790742D
:102F17000CF075F054EFA424C2F582E5F0340002FA
:102F27002FE2EFA42415F582E5F03400F58375F060
:102F370006ED122790740CF075F054EFA42469F590
:102F470082E5F03400F58375F006ED122790740CD6
:102F5700F075F054EFA424BCF582E5F03400F58356
:102F670075F006ED122790740CF075F054EFA42459
:102F770010F582E5F03401F58375F006ED12279020
:102F8700740CF075F054EFA4241BF582E5F03400BF
:102F9700F58375F006ED122790740CF075F054EF79
:102FA700A4246FF582E5F03400F58375F006ED1281
:102FB7002790740CF075F054EFA424C2F582E5F065
:102FC7003400F58375F006ED122790740CF075F058
:102FD70054EFA42416F582E5F03401F58375F00665
:082FE700ED122790740CF0229A
:055A90009002A5EFF0FB
:105A9500900059E090004CF090005AE090004DF0D5
:105AA500900061E0900054F090020EE0B5072CA341
:105AB500E0FFB43510E4900237F0A3740CF09002C7
:105AC5003F7435F022EF643470649002377404F04B
:105AD500A3740CF090023F7434F022E4FFE4FE75E9
:105AE500F054EFA4246AF582E5F03400F58375F0EF
:105AF50006EE122790E0FD9002A5E0FCEDB504242A
:105B0500900237EFF0A3EEF075F054EFA4246BF597
:105B150082E5F03400F58375F006EE122790E090EB
:0E5B2500023FF0220EEEB40DB60FEFB405AF46
:015B3300224F
:044F7E007D287F65A6
:104F82009002ABEDF0900040E0FBA3E0FAA3E0F961
:104F92001224F0FE700AEF64657003025127801933
:104FA200EF6E6019900041E475F00212263A90000B
:104FB20040E0FBA3E0FAA3E0F9EF1225699000407C
:104FC200E0FBA3E0FAA3E0F91224F0249B700302B1
:104FD2005110146011240260030251279002ABE0C9
:104FE200900001025124900040E0FBA3E0FAA3E00C
:104FF200F990000112250924A6602014606814703B
:10500200030250B11470030250E0245D60030251A8
:10501200279002ABE090000102510D9002ABE02418
:10502200A4601D14602D24036003025127900040E8
:10503200E0FBA3E0FAA3E0F9900001745C02510DD9
:10504200900040E0FBA3E0FAA3E0F9900001745B5A
:1050520002510D900040E0FBA3E0FAA3E0F99000BA
:1050620001745B02510D9002ABE024A4601D146038
:105072002C24026003025127900040E0FBA3E0FAD7
:10508200A3E0F9900001745D02510D900040E0FB35
:10509200A3E0FAA3E0F9900001745A806E900040F8
:1050A200E0FBA3E0FAA3E0F9900001745A805C905F
:1050B20002ABE024A5601504706B900040E0FBA3F6
:1050C200E0FAA3E0F9900001745B803F900040E0B9
:1050D200FBA3E0FAA3E0F9900001745A802D90023C
:1050E200ABE024A5601504703C900040E0FBA3E017
:1050F200FAA3E0F9900001745B8010900040E0FB9D
:10510200A3E0FAA3E0F9900001745A02257B900211
:10511200ABE0FF900040E0FBA3E0FAA3E0F99000CF
:0651220001EF1225362208
:0100070022D6
:103D63009002A5EFF09002A7EBF0AC059000407431
:103D730001F0A37400F0A37400F09002A5E0FF909B
:103D8300004CE0FEB50714A3E0B5040F9002A7E0D2
:103D9300FD900054E06D7003024088900054E024CD
:103DA300CD7003023E57147003023FB41470030234
:103DB3003EFF240370C4D3EE6480F8EF6480984020
:103DC30008124F7E7D5B023FF390004CE0FF9002B0
:103DD300A5E0FEC3EF6480F8EE6480985008124FAC
:103DE3007E7D5A023F3E90004DE0D36480F8EC6440
:103DF3008098400D7D017F64124F8290004D023FF9
:103E03001E90004DE0C36480F8EC64809850081263
:103E13004F7E7D5D02403590004CE0FF9002A5E0AF
:103E23006F6003023D7D90004DE06C6003023D7DB9
:103E3300124F7E9002A7E024CD600F24FE6007049A
:103E4300700F7D5A80067D5B80027D5C7F66124F1A
:103E53008202407D90004CE0FF9002A5E0FED3EF8C
:103E63006480F8EE6480984008124F7E7D5A023FCA
:103E7300F390004CE0FF9002A5E0FEC3EF6480F8EE
:103E8300EE6480985008124F7E7D5B023F3E9000A7
:103E93004DE0C36480F8EC648098500D7D017F642D
:103EA300124F8290004D023FD390004DE0D36480C7
:103EB300F8EC6480984008124F7E7D5D02401490B8
:103EC300004CE0FF9002A5E06F6003023D7D90008F
:103ED3004DE06C6003023D7D124F7E9002A7E0240B
:103EE300CE600F24FD600704700F7D5B80067D5A52
:103EF30080027D5C7F66124F8202407D90004CE021
:103F0300FF9002A5E0FED3EF6480F8EE6480984052
:103F1300107D017F64124F8290004CE004F0023D5B
:103F23007D90004CE0FF9002A5E0FEC3EF6480F8B3
:103F3300EE6480985013124F7E7D5C7F66124F8231
:103F43009000547434F0023D7D90004DE0D36480C2
:103F5300F8EC6480984008124F7E7D5A024014901A
:103F6300004DE0C36480F8EC6480985008124F7EE3
:103F73007D5B02403590004CE0FF9002A5E06F604E
:103F830003023D7D90004DE06C6003023D7D124FC6
:103F93007E9002A7E024CE600E14600714700F7D9C
:103FA3005C80067D5B80027D5A7F66124F820240F1
:103FB3007D90004CE0FF9002A5E0FEC3EF6480F823
:103FC300EE64809850107D017F64124F8290004C04
:103FD300E014F0023D7D90004CE0FF9002A5E0FE6E
:103FE300D3EF6480F8EE6480984013124F7E7D5CBB
:103FF3007F66124F829000547435F0023D7D90002D
:104003004DE0D36480F8EC6480984013124F7E7DBA
:104013005B7F66124F829000547432F0023D7D90B4
:10402300004DE0C36480F8EC6480985013124F7E17
:104033007D5A7F66124F829000547433F0023D7DA7
:1040430090004CE0FF9002A5E06F6003023D7D907D
:10405300004DE06C6003023D7D124F7E9002A7E0AD
:1040630024CE600F14600824FE700F7D5C80067DF3
:104073005A80027D5B7F66124F829002A7E0900018
:1040830054F0023D7D7D017F64124F82124F7E907A
:104093000041E475F00212263A900040E0FBA3E0F1
:1040A300FAA3E0F97482122569900047740CF0902A
:1040B30000407401F0A37400F0A37400F09002A810
:1040C300E0900043F09002A9E0900044F09002AA2F
:0A40D300E0900045F0A3740BF0220A
:105BD700125A9090023FE0FB6432700A900237E05D
:105BE700FFA3E014801190023FE0FB643370339011
:105BF7000237E0FFA3E004FD9002A87438F0A37415
:105C07002DF0A37432F0123D63900237E090004C00
:105C1700F0900238E090004DF090023FE090005481
:105C2700F022900237E0FFA3E0FD9002A87438F05D
:105C3700A3742DF0A37432F0FB123D63900237E09A
:105C4700FF700790004C74048008EFB4040FE490D1
:0E5C5700004CF0A3740DF09000547433F02252
:1061BF00900046E0B40B0B7D157F327E00125EFA25
:0561CF0080EE025B34CC
:1061A9001261BF78597C007D017B017A00794C7EB0
:0661B900007F0D0224CA64
:06001E009002441227537A
:100024007E007F287D007B017A02794C1227E27ED4
:10003400007F287D007B017A0279741227E27E001A
:100044007F087D057B017A02799C1227E27B807A06
:100054009679987800900244E0FCA3E0FDA3E0FECA
:10006400A3E0FF1226A2E47B0AFAF9F81226A29072
:10007400024DEBF07B407A42790F7800900244E025
:10008400FCA3E0FDA3E0FEA3E0FF1226A2E47B0AAA
:10009400FAF9F81226A290024EEBF07BA07A867948
:1000A400017800900244E0FCA3E0FDA3E0FEA3E09D
:1000B400FF1226A2E47B0AFAF9F81226A290024F54
:1000C400EBF0E47B107A27F9F8900244E0FCA3E01B
:1000D400FDA3E0FEA3E0FF1226A2E47B0AFAF9F8EE
:1000E4001226A2900250EBF0E47BE87A03F9F89030
:1000F4000244E0FCA3E0FDA3E0FEA3E0FF1226A27D
:10010400E47B0AFAF9F81226A2900261EBF0E47B90
:1001140064FAF9F8900244E0FCA3E0FDA3E0FEA336
:10012400E0FF1226A2E47B0AFAF9F81226A2900252
:1001340062EBF0E47B0AFAF9F8900244E0FCA3E0F5
:10014400FDA3E0FEA3E0FF1226A2E47B0AFAF9F87D
:100154001226A2900263EBF0E47B0AFAF9F890020B
:1001640044E0FCA3E0FDA3E0FEA3E0FF1226A2907E
:100174000264EBF07B807A9679987800900248E0EC
:10018400FCA3E0FDA3E0FEA3E0FF1226A2E47B0AA9
:10019400FAF9F81226A290025CEBF07B407A4279DD
:1001A4000F7800900248E0FCA3E0FDA3E0FEA3E08A
:1001B400FF1226A2E47B0AFAF9F81226A290025D45
:1001C400EBF07BA07A8679017800900248E0FCA3EA
:1001D400E0FDA3E0FEA3E0FF1226A2E47B0AFAF905
:1001E400F81226A290025EEBF0E47B107A27F9F86D
:1001F400900248E0FCA3E0FDA3E0FEA3E0FF12268A
:10020400A2E47B0AFAF9F81226A290025FEBF0E46A
:100214007BE87A03F9F8900248E0FCA3E0FDA3E050
:10022400FEA3E0FF1226A2E47B0AFAF9F81226A242
:10023400900270EBF0E47B64FAF9F8900248E0FC79
:10024400A3E0FDA3E0FEA3E0FF1226A2E47B0AFAEA
:10025400F9F81226A2900271EBF0E47B0AFAF9F89D
:10026400900248E0FCA3E0FDA3E0FEA3E0FF122619
:10027400A2E47B0AFAF9F81226A2900272EBF0E4E7
:100284007B0AFAF9F8900248E0FCA3E0FDA3E0FE43
:10029400A3E0FF1226A2900273EBF0900284740193
:1002A400F0A304F0A304F0A304F090029804F0A3D4
:1002B40004F0A304F0A304F09002A47401F09002EB
:1002C400A4E0FFD3940440030205BE744C2FF582CE
:1002D400E43402F583E0FF90025CE0FEEFB506250E
:1002E4009002A4E0FF244CF582E43402F583E0603C
:1002F40014900284E0FE74742FF582E43402F583D2
:10030400EEF00204499002A4E0FF244CF582E434A8
:1003140002F583E0FE90025DE0FDEEB50513744C3A
:100324002FF582E43402F583E0600690028502042E
:10033400389002A4E0FF244CF582E43402F583E013
:10034400FE90025EE0FDEEB50513744C2FF582E4D9
:100354003402F583E060069002860204389002A419
:10036400E0FF244CF582E43402F583E0FE90025F62
:10037400E0FDEEB50513744C2FF582E43402F583E9
:10038400E060069002870204389002A4E0FF244C47
:10039400F582E43402F583E0FE900270E0FDEEB5F0
:1003A4000513744C2FF582E43402F583E060069063
:1003B40002980204389002A4E0FF244CF582E4344D
:1003C40002F583E0FE900271E0FDEEB50512744C77
:1003D4002FF582E43402F583E0600590029980549D
:1003E4009002A4E0FF244CF582E43402F583E0FE9D
:1003F400900272E0FDEEB50512744C2FF582E434E0
:1004040002F583E0600590029A80299002A4E0FF3F
:10041400244CF582E43402F583E0FE900273E0FD9F
:10042400EEB50521744C2FF582E43402F583E060C7
:100434001490029BE0FF9002A4E02474F582E4345B
:1004440002F583EFF09002A4E0FF2460F582E43427
:1004540002F583E0FE90025CE0FDEEB505137460E6
:100464002FF582E43402F583E060069002840205ED
:10047400A49002A4E0FF2460F582E43402F583E052
:10048400FE90025DE0FDEEB5051374602FF582E485
:100494003402F583E060069002850205A49002A46C
:1004A400E0FF2460F582E43402F583E0FE90025E0E
:1004B400E0FDEEB5051374602FF582E43402F58394
:1004C400E060069002860205A49002A4E0FF246086
:1004D400F582E43402F583E0FE90025FE0FDEEB5C0
:1004E400051374602FF582E43402F583E06006900E
:1004F40002870205A49002A4E0FF2460F582E4349C
:1005040002F583E0FE900270E0FDEEB50513746021
:100514002FF582E43402F583E06006900298020528
:10052400A49002A4E0FF2460F582E43402F583E0A1
:10053400FE900271E0FDEEB5051274602FF582E4C1
:100544003402F583E0600590029980549002A4E09F
:10055400FF2460F582E43402F583E0FE900272E049
:10056400FDEEB5051274602FF582E43402F583E0E4
:10057400600590029A80299002A4E0FF2460F5822D
:10058400E43402F583E0FE900273E0FDEEB505214C
:1005940074602FF582E43402F583E0601490029BCA
:1005A400E0FF9002A4E02488F582E43402F583EFAE
:1005B400F09002A4E004F00202C27E007F287D00D5
:1005C4007B017A02794C1227E29002A47401F09024
:1005D40002A4E0FF2474F582E43402F583E0FE749F
:1005E4004C2FF582E43402F583EEF09002A4E0FF90
:1005F4002488F582E43402F583E0FE74602FF582EA
:10060400E43402F583EEF09002A4E004F0E0B405D3
:10061400BE9002A47401F09002A4E0FFD3940450AD
:100624002074742FF582E43402F583E4F074882F87
:10063400F582E43402F583E4F09002A4E004F0804F
:10064400D69002A07401F090029CF0E49002A4F011
:10065400900284E0FF90025CE06F60030206E29087
:100664000285E0FF90025DE06F7073900286E0FF08
:1006740090025EE06F7067900287E0FF90025FE097
:100684006F705B900298E0FF900270E06F704F9083
:100694000299E0FF900271E06F704390029AE0FFCC
:1006A400900272E06F703790029BE0FF900273E05B
:1006B4006F702B900065E0643460030210ED7F518D
:1006C400125F697F461254097D077F2F12512D90C6
:1006D40002A3E0FD7F2D12512D7F50025F6990002F
:1006E40065E064346003020BDC9002A4E004F0E0F3
:1006F400C39464400B125E791251287F351252ABB9
:1007040090029DE0FFC364809485504290029FE074
:10071400FD3395E0FC74822DF58274023CF583E090
:10072400FEEFFD3395E0FC74512DF58274023CF527
:1007340083E0B506199003517401F0A37402F0A389
:10074400744CF07B017A02799C7D03020ACE9002FC
:100754009EE0FFC3648094855040A3E0FD3395E0A0
:10076400FC74822DF58274023CF583E0FEEFFD33C8
:1007740095E0FC74562DF58274023CF583E0B506D1
:10078400199003517401F0A37402F0A3744CF07B2C
:10079400017A02799C7D03020B1F90029CE0FFC347
:1007A40064809485400302083490029FE0FD3395F1
:1007B400E0FC74822DF58274023CF583E0FEEFFDCB
:1007C4003395E0FC744C2DF58274023CF583E0B55E
:1007D40006199003517401F0A37402F0A3744CF051
:1007E4007B017A02799C7D03020A659002A3E0FFF3
:1007F4003395E0FE74962FF58274023EF583E0FF94
:1008040090029CE0FD3395E0FC744C2DF58274025B
:100814003CF583E0B507199003517401F0A3740209
:10082400F0A3744CF07B017A02799C7D07020A657F
:1008340090029CE0FFC3648094854003020A6AEF3F
:100844003395E0FE744C2FF58274023EF583E0FD8F
:10085400900284E0FCED6C604B744C2FF5827402C2
:100864003EF583E0FF900285E0FEEF6E6036900275
:100874009CE0FF3395E0FE744C2FF58274023EF544
:1008840083E0FD900286E0FCED6C6018744C2FF55B
:100894008274023EF583E0FF900287E0FEEF6E6013
:1008A4000302095490029DE0FF64056029EF33952B
:1008B400E0FE74512FF58274023EF583E0FF90024E
:1008C4009CE0FD3395E0FC744C2DF58274023CF5FC
:1008D40083E0D39F402490029DE0D36480948240BF
:1008E400199003517401F0A37402F0A3744CF07BCB
:1008F400017A02799C7D01020A6590029EE0FF6400
:10090400056029EF3395E0FE74562FF58274023E9C
:10091400F583E0FF90029CE0FD3395E0FC744C2DE0
:10092400F58274023CF583E0D39F402490029EE05C
:10093400D36480948240199003517401F0A374022B
:10094400F0A3744CF07B017A02799C7D02020A6563
:1009540090029CE0FF3395E0FE744C2FF582740204
:100964003EF583E0FD900298E0FCED6C604B744C26
:100974002FF58274023EF583E0FF900299E0FEEFCA
:100984006E603690029CE0FF3395E0FE744C2FF5C8
:100994008274023EF583E0FD90029AE0FCED6C6007
:1009A40018744C2FF58274023EF583E0FF90029B8D
:1009B400E0FEEF6E6003020A6A9002A1E0FF6405A4
:1009C4006029EF3395E0FE74652FF58274023EF5DD
:1009D40083E0FF90029CE0FD3395E0FC744C2DF520
:1009E4008274023CF583E0D39F40239002A1E0D3BC
:1009F4006480948240189003517401F0A37402F04F
:100A0400A3744CF07B017A02799C7D05805390029B
:100A1400A2E0FF64056029EF3395E0FE746A2FF5C8
:100A24008274023EF583E0FF90029CE0FD3395E082
:100A3400FC744C2DF58274023CF583E0D39F402670
:100A44009002A2E0D364809482401B90035174010D
:100A5400F0A37402F0A3744CF07B017A02799C7DBC
:100A640006E4FF0210E790029DE0FFC364809485D2
:100A74004003020B24A3E0FEC36480948540030278
:100A84000B24EEFD3395E0FC74562DF58274023C84
:100A9400F583E0FEEFFD3395E0FC74512DF582748F
:100AA400023CF583E0D39E402690029EE0D364800E
:100AB4009481401B9003517401F0A37402F0A37459
:100AC4004CF07B017A02799C7D027F010210E79051
:100AD400029DE0FFFD3395E0FC74512DF582740214
:100AE4003CF583E0FE90029EE0FD3395E0FC7456F5
:100AF4002DF58274023CF583E0D39E4023D3EF644A
:100B0400809481401B9003517401F0A37402F0A3FC
:100B1400744CF07B017A02799C7D017F020210E71C
:100B240090029DE0FFC3648094854003020BDCA324
:100B3400E0C3648094854003020BDC90029CE0FED9
:100B4400648094814042EEFD3395E0FC744C2DF5B5
:100B54008274023CF583E0FEEFFD3395E0FC7451B2
:100B64002DF58274023CF583E0D39E401B90035123
:100B74007401F0A37402F0A3744CF07B017A02793F
:100B84009CE4FD7F010210E790029CE0FFD36480A7
:100B940094814044EF3395E0FE744C2FF582740247
:100BA4003EF583E0FF90029EE0FD3395E0FC745631
:100BB4002DF58274023CF583E0D39F401B900351D2
:100BC4007401F0A37402F0A3744CF07B017A0279EF
:100BD4009CE4FD7F020210E7900065E06435600349
:100BE4000206549002A4E004F0E0C39464400B12A3
:100BF4005E791251287F341252AB9002A1E0FFC3F8
:100C04006480948550449002A3E0FD3395E0FC7425
:100C1400962DF58274023CF583E0FEEFFD3395E0FA
:100C2400FC74652DF58274023CF583E0B5061B90D7
:100C340003517401F0A37402F0A3744CF07B017AA5
:100C440002799C7D077F050210E79002A2E0FFC3B2
:100C5400648094855042A3E0FD3395E0FC74962DA6
:100C6400F58274023CF583E0FEEFFD3395E0FC74FD
:100C74006A2DF58274023CF583E0B5061B9003519E
:100C84007401F0A37402F0A3744CF07B017A02792E
:100C94009C7D077F060210E79002A0E0FFC36480FA
:100CA40094854003020D369002A3E0FD3395E0FCE9
:100CB40074962DF58274023CF583E0FEEFFD3395C6
:100CC400E0FC74602DF58274023CF583E0B5061BEC
:100CD4009003517401F0A37402F0A3744CF07B01EF
:100CE4007A02799C7D077F040210E790029FE0FF5F
:100CF4003395E0FE74822FF58274023EF583E0FFA3
:100D04009002A0E0FD3395E0FC74602DF58274023E
:100D14003CF583E0B5071B9003517401F0A3740202
:100D2400F0A3744CF07B017A02799C7D037F04026A
:100D340010E79002A0E0FFC3648094854003020F93
:100D440073EF3395E0FE74602FF58274023EF583F1
:100D5400E0FD900298E0FCED6C604B74602FF5822E
:100D640074023EF583E0FF900299E0FEEF6E603678
:100D74009002A0E0FF3395E0FE74602FF5827402C8
:100D84003EF583E0FD90029AE0FCED6C601874601F
:100D94002FF58274023EF583E0FF90029BE0FEEFA4
:100DA4006E6003020E5A9002A1E0FF64056029EF11
:100DB4003395E0FE74652FF58274023EF583E0FFFF
:100DC4009002A0E0FD3395E0FC74602DF58274027E
:100DD4003CF583E0D39F40269002A1E0D364809445
:100DE40082401B9003517401F0A37402F0A3744C6D
:100DF400F07B017A02799C7D057F040210E7900262
:100E0400A2E0FF64056029EF3395E0FE746A2FF5D4
:100E14008274023EF583E0FF9002A0E0FD3395E08A
:100E2400FC74602DF58274023CF583E0D39F402668
:100E34009002A2E0D364809482401B900351740119
:100E4400F0A37402F0A3744CF07B017A02799C7DC8
:100E5400067F040210E79002A0E0FF3395E0FE74E1
:100E6400602FF58274023EF583E0FD900284E0FC7D
:100E7400ED6C604B74602FF58274023EF583E0FFE5
:100E8400900285E0FEEF6E60369002A0E0FF33959D
:100E9400E0FE74602FF58274023EF583E0FD90025B
:100EA40086E0FCED6C601874602FF58274023EF5E8
:100EB40083E0FF900287E0FEEF6E6003020F739001
:100EC400029DE0FF64056029EF3395E0FE74512F25
:100ED400F58274023EF583E0FF9002A0E0FD3395B5
:100EE400E0FC74602DF58274023CF583E0D39F40EE
:100EF4002690029DE0D364809482401B9003517439
:100F040001F0A37402F0A3744CF07B017A02799C83
:100F14007D017F040210E790029EE0FF64056029D2
:100F2400EF3395E0FE74562FF58274023EF583E0AC
:100F3400FF9002A0E0FD3395E0FC74602DF582740F
:100F4400023CF583E0D39F402690029EE0D3648068
:100F54009482401B9003517401F0A37402F0A374B3
:100F64004CF07B017A02799C7D027F040210E790A9
:100F740002A1E0FFC364809485400302102DA3E026
:100F8400FEC364809485400302102DEEFD3395E08A
:100F9400FC746A2DF58274023CF583E0FEEFFD33A8
:100FA40095E0FC74652DF58274023CF583E0D39ED4
:100FB40040269002A2E0D364809481401B900351A8
:100FC4007401F0A37402F0A3744CF07B017A0279EB
:100FD4009C7D067F050210E79002A1E0FFFD33959A
:100FE400E0FC74652DF58274023CF583E0FE90020A
:100FF400A2E0FD3395E0FC746A2DF58274023CF5A1
:1010040083E0D39E4023D3EF64809481401B9003FC
:10101400517401F0A37402F0A3744CF07B017A02C2
:10102400799C7D057F060210E79002A1E0FFC3646E
:101034008094854003020654A3E0C36480948540F1
:10104400030206549002A0E0FE648094814041EEC5
:10105400FD3395E0FC74602DF58274023CF583E069
:10106400FEEFFD3395E0FC74652DF58274023CF5CA
:1010740083E0D39E401A9003517401F0A37402F0EC
:10108400A3744CF07B017A02799C7D047F05805324
:101094009002A0E0FFD3648094815003020654EFD1
:1010A4003395E0FE74602FF58274023EF583E0FF11
:1010B4009002A2E0FD3395E0FC746A2DF58274027F
:1010C4003CF583E0D39F500302065490035174010E
:1010D400F0A37402F0A3744CF07B017A02799C7D36
:0910E400047F061210EE0206540E
:0110ED0022E0
:05512800EF14FD7F2DD6
:10512D00900364EDF0900363EFF0642F600302527F
:10513D005FA3E0B4080040030252AA90514FF82833
:10514D0028730251670251840251A10251BD0251CF
:10515D00D90251FB02521D02523F900064E0B4404F
:10516D0009A3E0643470030252AA900065E0B435DF
:10517D000312556302525A900064E0B43F09A3E054
:10518D00643470030252AA900065E0B435031255E1
:10519D006302523B900064E0B43D09A3E0643470B7
:1051AD00030252AA900065E0B43503125563805C8A
:1051BD00900064E0B43C09A3E0643470030252AA89
:1051CD00900065E0B43503125563801E900064E0D5
:1051DD00B43C09A3E0643570030252AA900065E067
:1051ED00B434077D357F3E1255677F3C806190005A
:1051FD0064E0B43D09A3E0643570030252AA900047
:10520D0065E0B434077D357F3E1255677F3D803FA5
:10521D00900064E0B43F09A3E0643570030252AA24
:10522D00900065E0B434077D357F3E1255677F3FB2
:10523D00801D900064E0B44006A3E06435605E908C
:10524D000065E0B434077D357F3E1255677F40021F
:10525D0056AA900363E0642D7043A3E014600F140D
:10526D00601014601114601224047012801B7F48AA
:10527D0080287F4A80247F4C80207F4E801C9003A5
:10528D0064E0C36480948050047F46800D90036475
:0E529D00E0D36480948540057F4E12540922B0
:1010EE0090034CEFF0A3EDF0A3EBF0A3EAF0A3E92D
:0110FE00F001
:1010FF001224F0FF900001122509900306F09000D2
:10110F0002122509900307F090000312250990039E
:10111F0008F0900004122509900309F090000512C1
:10112F00250990030AF090000612250990030BF091
:10113F00900007122509125EB2900354EFF090034E
:10114F004CE0FF600E6401600AEF64026005EF641B
:10115F0003703D900065E06434702890034EE0FB0F
:10116F00A3E0FAA3E0F91224F0FF90000112250981
:10117F00900306F0900002122509900307F09000EB
:10118F00038059900065E064356003021255805C5E
:10119F0090034CE0FF64046012EF6405600DEF6490
:1011AF00066008EF64076003021255900065E06463
:1011BF0035703190034EE0FBA3E0FAA3E0F9900005
:1011CF0004122509FF900005122509900306F090DF
:1011DF000006122509900307F090000712250990C9
:1011EF000308805C900065E06434705A90034EE011
:1011FF00FBA3E0FAA3E0F91224F0FF9000011225FF
:10120F0009900306F0900002122509900307F09051
:10121F000003122509900308F0900004122509908D
:10122F000309F090000512250990030AF0900006BB
:10123F0012250990030BF090000712250990030C5B
:10124F00125EB512512890034CE0FD7F2F12512DE5
:10125F0090034EE0FBA3E0FAA3E0F990034CE0F516
:10126F0082758300122509FD7F2D12512D7F50129B
:10127F005F6990034CE0FEB408004003021DD39059
:10128F001295F82828730212AD0213A7021508024F
:10129F0016450217B5021925021A62021BEA9003BE
:1012AF004DE0FD14B407004003021DD39012C97521
:1012BF00F003A4C58325F0C583730212DE0212F773
:1012CF000212F902132402134F02135102137C90DE
:1012DF000354E02402FFC00790034EE0FBA3E0FAA3
:1012EF00A3E0F98E820213ED8058900354E024029C
:1012FF00FFC00790034EE0FBA3E0FAA3E0F99003D1
:10130F004CE0F58275830012250904900306F090D6
:10131F00000102188A900354E02402FFC0079003D3
:10132F004EE0FBA3E0FAA3E0F990034CE0F58275E1
:10133F00830012250904900306F090000102171D87
:10134F008000900354E02402FFC00790034EE0FB9F
:10135F00A3E0FAA3E0F990034CE0F5827583001245
:10136F00250904900306F0900001021B46900354D8
:10137F00E02402FFC00790034EE0FBA3E0FAA3E0D6
:10138F00F990034CE0F58275830012250904900350
:10139F0006F09000010217A890034DE0FDB408007D
:1013AF004003021DD39013BBF82828730213D302F6
:1013BF001DD30213FD02142B0214560214810214C2
:1013CF00AF0214DD900354E02402FFC00790034ED8
:1013DF00E0FBA3E0FAA3E0F990034CE0F5827583FC
:1013EF000012250904900306F08D82021DB79003A9
:1013FF0054E02402FFC00790034EE0FBA3E0FAA3E2
:10140F00E0F990034CE0F5827583001225090490F2
:10141F000306F090034DE0F582021DB7900354E0F0
:10142F002402FFC00790034EE0FBA3E0FAA3E0F90C
:10143F0090034CE0F5827583001225090490030692
:10144F00F0900002021B46900354E02402FFC007F5
:10145F0090034EE0FBA3E0FAA3E0F990034CE0F514
:10146F008275830012250904900306F0900005028F
:10147F001B46900354E02402FFC00790034EE0FB8D
:10148F00A3E0FAA3E0F990034CE0F5827583001214
:10149F00250904900306F090034DE0F582021DB775
:1014AF00900354E02402FFC00790034EE0FBA3E03B
:1014BF00FAA3E0F990034CE0F58275830012250939
:1014CF0004900306F090034DE0F582021DB79003E0
:1014DF0054E02402FFC00790034EE0FBA3E0FAA301
:1014EF00E0F990034CE0F582758300122509049012
:1014FF000306F0900006021B4690034DE0FDB40872
:10150F00004003021DD390151CF8282873021534D0
:10151F00021537021DD30215650215930215BE027F
:10152F0015EC02161A021A8E900354E02402FFC023
:10153F000790034EE0FBA3E0FAA3E0F990034CE021
:10154F00F58275830012250904900306F090034D70
:10155F00E0F582021DB7900354E02402FFC007900C
:10156F00034EE0FBA3E0FAA3E0F990034CE0F58211
:10157F0075830012250904900306F090034DE0F5E2
:10158F0082021DB7900354E02402FFC00790034E60
:10159F00E0FBA3E0FAA3E0F990034CE0F58275833A
:1015AF000012250904900306F0900005021B4690D7
:1015BF000354E02402FFC00790034EE0FBA3E0FAC0
:1015CF00A3E0F990034CE0F582758300122509041E
:1015DF00900306F090034DE0F582021DB79003547F
:1015EF00E02402FFC00790034EE0FBA3E0FAA3E064
:1015FF00F990034CE0F582758300122509049003DE
:10160F0006F090034DE0F582021DB7900354E024DD
:10161F0002FFC00790034EE0FBA3E0FAA3E0F990AE
:10162F00034CE0F58275830012250904900306F040
:10163F00900006021B4690034DE0FDB408004003E6
:10164F00021DD3901659F828287302167102169CA2
:10165F000216C7021DD30216F502172A02175502EA
:10166F001780900354E02402FFC00790034EE0FB65
:10167F00A3E0FAA3E0F990034CE0F5827583001222
:10168F00250904900306F0900002021C3B900354BE
:10169F00E02402FFC00790034EE0FBA3E0FAA3E0B3
:1016AF00F990034CE0F5827583001225090490032D
:1016BF0006F0900002021B46900354E02402FFC084
:1016CF000790034EE0FBA3E0FAA3E0F990034CE090
:1016DF00F58275830012250904900306F090034DDF
:1016EF00E0F582021DB7900354E02402FFC007907B
:1016FF00034EE0FBA3E0FAA3E0F990034CE0F58280
:10170F0075830012250904900306F090000212253C
:10171F0009900307F0900005021CF3900354E02496
:10172F0002FFC00790034EE0FBA3E0FAA3E0F9909D
:10173F00034CE0F58275830012250904900306F02F
:10174F00900002021B46900354E02402FFC0079052
:10175F00034EE0FBA3E0FAA3E0F990034CE0F5821F
:10176F0075830012250904900306F0900002021BF6
:10177F0046900354E02402FFC00790034EE0FBA302
:10178F00E0FAA3E0F990034CE0F58275830012258F
:10179F000904900306F0900002122509900307F048
:1017AF00900006021CF390034DE0FDB408004003C7
:1017BF00021DD39017C9F82828730217E102180CDD
:1017CF00021837021862021DD30218970218C502B9
:1017DF0018F0900354E02402FFC00790034EE0FB83
:1017EF00A3E0FAA3E0F990034CE0F58275830012B1
:1017FF00250904900306F0900005021C3B9003544A
:10180F00E02402FFC00790034EE0FBA3E0FAA3E041
:10181F00F990034CE0F582758300122509049003BB
:10182F0006F0900005021B46900354E02402FFC00F
:10183F000790034EE0FBA3E0FAA3E0F990034CE01E
:10184F00F58275830012250904900306F0900005B8
:10185F00021B46900354E02402FFC00790034EE0A2
:10186F00FBA3E0FAA3E0F990034CE0F58275830047
:10187F0012250904900306F0900005122509900324
:10188F0007F0900002021CF3900354E02402FFC003
:10189F000790034EE0FBA3E0FAA3E0F990034CE0BE
:1018AF00F58275830012250904900306F090034D0D
:1018BF00E0F582021DB7900354E02402FFC00790A9
:1018CF00034EE0FBA3E0FAA3E0F990034CE0F582AE
:1018DF0075830012250904900306F0900005021B82
:1018EF0046900354E02402FFC00790034EE0FBA391
:1018FF00E0FAA3E0F990034CE0F58275830012251E
:10190F000904900306F0900005122509900307F0D3
:10191F00900006021CF390034DE0FDB40800400355
:10192F00021DD3901939F82828730219510219543E
:10193F000219820219B00219DB021DD3021A090221
:10194F001A37021A8E900354E02402FFC007900347
:10195F004EE0FBA3E0FAA3E0F990034CE0F58275AB
:10196F00830012250904900306F090034DE0F582E1
:10197F00021DB7900354E02402FFC00790034EE00E
:10198F00FBA3E0FAA3E0F990034CE0F58275830026
:10199F0012250904900306F090034DE0F582021D15
:1019AF00B7900354E02402FFC00790034EE0FBA35F
:1019BF00E0FAA3E0F990034CE0F58275830012255D
:1019CF000904900306F0900002021B46900354E0B6
:1019DF002402FFC00790034EE0FBA3E0FAA3E0F957
:1019EF0090034CE0F58275830012250904900306DD
:1019FF00F090034DE0F582021DB7900354E02402EE
:101A0F00FFC00790034EE0FBA3E0FAA3E0F99003B9
:101A1F004CE0F58275830012250904900306F090BF
:101A2F00034DE0F582021DB7900354E02402FFC07E
:101A3F000790034EE0FBA3E0FAA3E0F990034CE01C
:101A4F00F58275830012250904900306F0900006B5
:101A5F00021B4690034DE0FDB408004003021DD366
:101A6F00901A76F8282873021A8E021AC2021AF0F8
:101A7F00021B1E021B56021B8E021DD3021BBC90A3
:101A8F000354E02402FFC00790034EE0FBA3E0FAEB
:101A9F00A3E0F990034CE0F5827583001225090449
:101AAF00900306F0900001122509900307F08D8234
:101ABF00021D81900354E02402FFC00790034EE003
:101ACF00FBA3E0FAA3E0F990034CE0F582758300E5
:101ADF0012250904900306F090034DE0F582021DD4
:101AEF00B7900354E02402FFC00790034EE0FBA31E
:101AFF00E0FAA3E0F990034CE0F58275830012251C
:101B0F000904900306F090034DE0F582021DB79093
:101B1F000354E02402FFC00790034EE0FBA3E0FA5A
:101B2F00A3E0F990034CE0F58275830012250904B8
:101B3F00900306F0900002122509900307F090031E
:101B4F004DE0F582021D81900354E02402FFC0078F
:101B5F0090034EE0FBA3E0FAA3E0F990034CE0F50D
:101B6F008275830012250904900306F09000051278
:101B7F002509900307F090034DE0F582021D819037
:101B8F000354E02402FFC00790034EE0FBA3E0FAEA
:101B9F00A3E0F990034CE0F5827583001225090448
:101BAF00900306F090034DE0F582021DB7900354A9
:101BBF00E02402FFC00790034EE0FBA3E0FAA3E08E
:101BCF00F990034CE0F58275830012250904900308
:101BDF0006F090034DE0F582021DB790034DE0FD36
:101BEF00B407004003021DD3901BFEF82828730290
:101BFF001C13021C51021C89021CC1021D02021D72
:101C0F004C021D8C900354E02402FFC00790034E3A
:101C1F00E0FBA3E0FAA3E0F990034CE0F5827583B3
:101C2F000012250904900306F09000061225099072
:101C3F000307F0900001122509900308F08D82022E
:101C4F001D41900354E02402FFC00790034EE0FBB8
:101C5F00A3E0FAA3E0F990034CE0F582758300123C
:101C6F00250904900306F09000061225099003073A
:101C7F00F090034DE0F582021D81900354E02402A1
:101C8F00FFC00790034EE0FBA3E0FAA3E0F9900337
:101C9F004CE0F58275830012250904900306F0903D
:101CAF000006122509900307F090034DE0F582021C
:101CBF001D81900354E02402FFC00790034EE0FB08
:101CCF00A3E0FAA3E0F990034CE0F58275830012CC
:101CDF00250904900306F0900006122509900307CA
:101CEF00F0900002122509900308F090034DE0F5E3
:101CFF0082803F900354E02402FFC00790034EE020
:101D0F00FBA3E0FAA3E0F990034CE0F582758300A2
:101D1F0012250904900306F090000512250990037F
:101D2F0007F0900006122509900308F090034DE08C
:101D3F00F58275830012250990030980749003546E
:101D4F00E02402FFC00790034EE0FBA3E0FAA3E0FC
:101D5F00F990034CE0F58275830012250904900376
:101D6F0006F0900006122509900307F090034DE04E
:101D7F00F58275830012250990030880349003546F
:101D8F00E02402FFC00790034EE0FBA3E0FAA3E0BC
:101D9F00F990034CE0F58275830012250904900336
:101DAF0006F090034DE0F58275830012250990032C
:101DBF0007F0A37482F0D007125EBAEF24FEFD7F06
:101DCF002D12512D90034DE0FD7F2F12512D9003B9
:101DDF004EE0FBA3E0FAA3E0F990034DE0F5827526
:101DEF0083001225091251297F51125F6990034E0A
:101DFF00E0FBA3E0FAA3E0F990034CE0F5827583D2
:101E0F0000122509FD3395E0FC90034CE075F005B9
:101E1F00A4FF900351E0FBA3E0FAA3E02FF9EA350A
:101E2F00F0FAE92DF9EA3CFA1224F0FCC004900311
:101E3F004EE0FBA3E0FAA3E0F990034DE0F58275C5
:101E4F008300122509FF3395E0FEEF24FFFDEE34EA
:101E5F00FFFC90034DE075F005A4FF900351E0FBEC
:101E6F00A3E0FAA3E02FF9EA35F0FAE92DF9EA3CFD
:101E7F00FAD0E012256990034EE0FBA3E0FAA3E04D
:101E8F00F990034CE0F582758300122509FD339517
:101E9F00E0FC90034CE075F005A4FF900351E0FBCC
:101EAF00A3E0FAA3E02FF9EA35F0FAE92DF9EA3CBD
:101EBF00FAE412256990034EE0FBA3E0FAA3E0F9E0
:101ECF0090034CE0F5827583007401122536900360
:0C1EDF004DE0F58275830074FF0225368B
:1058FD007F51125F697F461254097F3C1256AA9060
:10590D000065E0643560057F351252AB7D3C7F024A
:10591D00124DD47D287F5A125DFE7D3C7F01124DC4
:10592D00D47D287F640259BB3084153083122087C3
:10593D000F20860C2085092082062081033080747B
:10594D0020870920860620850320831B7DE27F2A80
:10595D0012465E7D157F2C7E01125EFA7DEC7F294D
:10596D0012465E7DE280252082092081062080037B
:10597D002084377DE27F2A12465E7D157F2C7E01C5
:10598D00125EFA7DE27F2912465E7DE37F28124684
:10599D005E7D157F2C7E01125EFA7DE27F2A124616
:1059AD005E7D157F2C7E01125EFA7D287FC8124820
:0B59BD0093025935E4FD7F2A02465E8C
:105FED007DE77F2A12465E125EF47DD07F29124630
:105FFD005E7DEC7F2812465E7D167F037E00125E6D
:10600D00FA7DDD7F2A12465E125EF4E4FD7F2A02E0
:02601D00465EDD
:1059C8009002A5EFF0A3EDF0A3EBF0E4F597759343
:1059D800FFF594F5917592FC7595F075960FD2A127
:1059E800D2A3C2DEC2971261D4D2991261E71261C2
:1059F8007D126193D28CD28EE4F51FF51EF51DF54C
:105A08001CFE7F40FD7B017A0079001227E27E01AF
:105A18007FA47D0B7B017A0079661227E2E490026D
:105A28000EF0A37432F09002A5E0900059F09002B5
:105A3800A6E090005AF09002A7E0900061F0900272
:105A4800A8E0900062F09002A9E0900063F0900254
:105A5800AAE0900064F09002ABE0900065F0E4905A
:105A68000043F0FD7F2B12465EE4FD7F2C12465E5C
:105A7800E4FD7F2D12465EE4FD7F2E12465EE4FDB6
:085A88007F2A12465E02612F25
:105FAB00C2AFE4900043F0FD7F2B12465EE4FD7F11
:105FBB002C12465EE4FD7F2D12465EE4FD7F2E1211
:105FCB00465EE4FD7F2A12465E9002A874FFF0A3A2
:105FDB007461F0A374F6F07BFF7A6179F21235B13C
:025FEB0080FE36
:101EEB00EC4D6011E8497017ED33EC3304600DE4F1
:101EFB00FCFFFEFD22E933E8330470F802209B124D
:101F0B00206658046009E4CC24815006285009024D
:101F1B0020A52840030220A2C0E0EB4A7044B98000
:101F2B0006D0E0FB022091EF4E701CBD8008EBFF4A
:101F3B00EAFEE9FD80EBE98DF0A4FEE5F0021FD48B
:101F4B00E9CDF9EAFEEBFFEF89F0A4FCE5F0CE89D1
:101F5B00F0A42EFFE435F0CD89F0A42DFEE435F08E
:101F6B008067EF4E7005BD80D780C3EF8BF0A4ACBC
:101F7B00F0EE8BF0A42CFCE435F0F8EF8AF0A42CF7
:101F8B00E5F038FCE433CB8DF0A42CFCE5F03BF80A
:101F9B00EE8AF0A42CFCE5F038F8E433CF89F0A4FA
:101FAB002CFCE5F038CF3400CE89F0A42FFFE5F000
:101FBB003EFEE433C98DF0A42EFEE5F039CD8AF058
:101FCB00A42FFFE5F03EFEE43DFD33D0E0FB5007D0
:101FDB000BBB000F0220A5EC2CFCEF33FFEE33FE06
:061FEB00ED33FD02207D34
:101FF10075F020800E75F010800575F0087D007E6B
:10200100007F003392D530D503122734EC334010D2
:10201100EF33FFEE33FEED33FDEC33FCD5F0ED2273
:0E202100E5F0247EA2D513CC92E7CDCEFF22AF
:10202F00EDD2E7CD33EC3392D524814006E4FFFEA9
:10203F00FDFC22FCE4CFCECDCC24E0501174FF8008
:10204F00EDC3CC13CCCD13CDCE13CECF13CF0470A5
:07205F00F030D5DE0227344A
:10354600E51024A8F582E43402F583E00510229004
:1035560002A53007039002A8E475F00112279C0229
:1035660024F02000E97F2ED2008018EF540F24901B
:10357600D43440D4FF30040BEF24BFB41A005003F8
:103586002461FFE511600215110514E514700205AA
:103596001330070E9002A5E475F00112279CEF0286
:1035A600256902604E7403D2078003E4C207F51052
:1035B6009002A51227B3E4F511F513F514E5116091
:1035C600077F2012358980F57512FFC201C200C23D
:1035D60002C203C205C206C208123555FF700D307D
:1035E60007057F0012359AAF14AE1322B4255FC2C9
:1035F600D5C204123555FF24D0B40A00501A75F00E
:103606000A781130D50508B6FF0106C6A426F620AD
:10361600D5047002D20380D924CFB41A00EF500427
:10362600C2E5D20402388CD20180C6D20080C0D254
:103636000280BCD2D580BAD20580B47F20123589EB
:103646002002077401B5110040F1123546FF12350C
:10365600890235C3D208D2068095123546FB12354B
:1036660046FA123546F94A4B7006798A7A397BFF53
:1036760020022EE511602A7E008E827583001225B7
:103686000960060EEE651270F0C2D5EBC0E0EAC026
:10369600E0E9C0E0EE1238EDD0E0F9D0E0FAD0E093
:1036A600FB1224F0FF60AAEBC0E0EAC0E0E9C0E04C
:1036B600123589D0E02401F9D0E03400FAD0E0FBDD
:1036C600E5120460DCD512D98087D20280A21238B6
:1036D600CF60F7E5127001041220B0A912600DE563
:1036E60012600914F512123977EF60F3EA30E70237
:1036F600F404C3995079EAF425120430E701E4048E
:10370600F512800D1238CF60C1EA0512251212207B
:10371600B0EA9002D4F030E701E4251204D5120491
:10372600200501141238EDE4C0E01239779002D476
:10373600E0601320E70714F0123571802204F0D000
:10374600E014C0E07F00123571E51260071235689B
:103756001512800B300503123568D0E00235C3D050
:10376600E00480C41238CF609EE512041220B090A7
:1037760002D4EAF0E512200502600104240412389E
:01378600ED55
:1037870074FF04C0E0123977123571E51220050283
:103797006003123568D0E0B512E87F4512357B909B
:1037A70002D4E07F2B30E7047F2DF404C0E012350C
:1037B70089D0E075F00A84C0F0123572D0E0123576
:1037C700720235C3791080027908C206C2088008E0
:1037D700D2D5790A8004790AC2D5E512047002F5B8
:1037E70012E4FAFDFEFF123546FC7B082001131296
:1037F7003546FD7B1030000A123546FE123546FF6E
:103807007B20EC3382D592D55013C3E43000069F5A
:10381700FFE49EFEE42001039DFDE49CFCE4CBF85D
:10382700C201EC700CCFCECDCCE824F8F870F38051
:1038370017C3EF33FFEE33FEED33FDEC33FCEB3311
:10384700FB994002FB0FD8E9EB300105F8D0E0C443
:1038570048B201C0E00AEC4D4E4F78207B0070C2A1
:10386700EAB5120040BCC0E01238EFD0F0D0E0203B
:103877000104C4C0E0C4B201C0F0123572D0F0D563
:10388700F0EB0235C31227BC36605337CB583631BD
:103897004C362D4237CF4F37D74437D74936464373
:1038A70037DD55370A46376A4536D44739AA503681
:1038B700352D36392E365C2B363D23365A20399333
:1038C7002A35F54800003654E512B4FF0375120691
:1038D700123546FC123546FD123546FE123546FFB7
:1038E7009002CD0220ED790AA2D5200314300509F4
:1038F700B910020404B9080104A2D5200602500138
:10390700042002689202B511005034C0E07F2030D5
:1039170003197F30A20272067205500F123946C290
:1039270002C206C205C2087F30800F300503E9C016
:10393700E0123589300503D0E0F9D0E0B511CC307D
:1039470005177F30B9100C1235897F583004077F6F
:10395700788003B908031235893002057F2D0235B7
:10396700897F202008F87F2B2006F322920280CF40
:103977007F00B40700500B24CDF582E43402F583B1
:10398700E0FF22286E756C6C2900D2011235463093
:1039970001F8C201781130D50108F60235F52D502E
:1039A7004349581235462403B405004001E49039D1
:1039B700A59312357A743A12357AD2037511040237
:0239C70037CBFC
:10206600E9D2E7C933E833F892D5EDD2E7CD33ECC0
:0720760033FC5002B2D52239
:10207D00EC30E7100FBF000C0EBE00080DBD0004C4
:10208D000BEB6014A2D5EB13FCED92E7FD2274FF70
