:030000000252D4D5
:0C52D400787FE4F6D8FD75812202531BA0
:1053600090028A7451F0A37446F0A37440F0A374C1
:1053700035F07B32E4FDFF12516990028A7432F0FD
:10538000A37435F0A3E4F0A304F0A37408F0A374AD
:1053900005F0A37432F0A37434F0A3E4F0A3740214
:1053A000F0A37407F0A37403F0A37432F0A3743570
:1053B000F0A3E4F0A37402F0A37409F0A37401F065
:1053C000A37432F0A37434F0A37404F0A37435F022
:1053D0007B027D067F01123EA77D157FD07E0712DE
:0A53E00055697F021256C102567F84
:03000300020006F2
:0100060032C7
:03000B0002580197
:10580100C0E0C0F0C083C082C0D075D00812577DFF
:0B581100D0D0D082D083D0F0D0E032A5
:03001B0002581C6C
:10581C00C0E0C0F0C083C082C0D075D0081258E080
:0B582C00D0D0D082D083D0F0D0E0328A
:0958CF0025730A00456E642100F6
:10572700602701F261A800C8003A03202D02580241
:105737000D020D021C048304420451041A06C70615
:0E57470063001404B004B007D007D0011B00AB
:065563007D167F017E00B1
:105569008E158F16ED24EB601D14603C2402705ECD
:10557900E5161516AE1570021515D39400EE9400B4
:10558900404C000080EAE5161516AE157002151597
:08559900D39400EE94004036AB
:0E55A100000075100C7511A8D511FDD510FA7B
:1055AF0080DEE5161516AE1570021515D39400EEB4
:0455BF009400401400
:1055C30075122E7513997514F5D514FDD513FAD5E7
:0255D30012F7CD
:0255D50080DA7A
:0155D70022B1
:10588500438E805389F0438901758A20758CD1C276
:065895008DD2A9D2AF2262
:10589B00538EBF53890F438910758BE0758DB1C241
:0658AB008FD2ABD2AF2248
:10577D00758A20758CD1E51F2401F51FE4351EF5C2
:10578D001EE4351DF51DE4351CF51C900046E0B4F6
:06579D000B031227182285
:0758E000758BE0758DB1220C
:10583700D2B220B2FD7D157F147E0012556930B2B9
:0A584700FD7D157F007E010255690A
:0B58C400E4F5D8F5F9F5E975D90822E4
:10585100EF75F019A4FFAEF07C007D0A1224B98F18
:0A586100EA8FFA75DA42E4F5F2224C
:10586B00EF75F019A4FFAEF07C007D0A1224B98FFE
:0A587B00EB8FFB75DB42E4F5F3222E
:093A8B0090034BE0F404FD7F28D8
:103A940090028EEDF0D3648094E440057464F08069
:103AA4000E90028EE0C36480941C5003749CF0EF6B
:103AB40024D8B407004003023CC8903ACC75F00304
:103AC400A4C58325F0C58373023AE1023B28023B77
:103AD40066023BDB023C14023C4D023C8B90028E9E
:103AE400E0FF90005FE0B507012290005FEFF090E7
:103AF400028EE0FB7003023B91D3EB648094804020
:103B040009D2DE90028EE0023B9190028EE0FFC368
:103B1400648094804003023CC8D2DE1258D8125804
:103B24006BD2952290028EE0FF900060E0B5070111
:103B340022900060EFF090028EE0FB7002806AD366
:103B4400EB648094804008D2DE90028EE0805A902C
:103B5400028EE0FFC3648094804003023CC8D2DE3E
:103B6400806C90028EE0FF90005FE0B50706A3E052
:103B7400B5070122900060EFF090005FF090028E94
:103B8400E0FB7010C2DEFF125851C292E4FF1258DB
:103B94006BC29522D3EB648094804014D2DE9002F1
:103BA4008EE0FF12586BC295E0FF125851C2922268
:103BB40090028EE0FFC3648094804003023CC8D22C
:103BC400DE1258D812586BD29590028EE0FF12582C
:103BD400D8125851D2922290028EE0FF90005BE0FE
:103BE400B507012290005BEFF090028EE0FF7004B5
:103BF400D2978070D3EF648094804005D297023CC2
:103C040086C3EF648094804003023CC8D2978063EB
:103C140090028EE0FF90005CE0B507012290005C0A
:103C2400EFF090028EE0FF7004D2978075D3EF64BA
:103C34008094804005D297023CC4C3EF6480948092
:103C44004003023CC8D297806890028EE0FF900047
:103C54005DE0B507012290005DEFF090028EE0FF79
:103C64007007C297C2A0D2A122D3EF64809480408F
:103C740007C297C2A0C2A122C3EF648094805044BB
:103C8400C297D2A0C2A12290028EE0FF90005EE013
:103C9400B507012290005EEFF090028EE0FF7007FE
:103CA400C297C2A2D2A322D3EF648094804007C2F9
:103CB40097C2A2C2A322C3EF648094805006C29725
:053CC400D2A2C2A32200
:10422400900044E0FF3395E0FEC3E49FFDE49EFC70
:024234007F28E1
:104236009002B7ECF0A3EDF0D39464EC6480948024
:10424600400B9002B7E4F0A37464F08018C39002A8
:10425600B8E0949C9002B7E06480947F500774FFA6
:10426600F0A3749CF0EF24D7606C147003024335FE
:10427600240260030243D190005FE0FF3395E0FE25
:104286009002B7E0FCA3E0FDB50705ECB5060122F8
:1042960090005FEDF09002B7E0FAA3E0FB4A7003EE
:1042A60002437ED3EB9400EA64809480400AD2DE17
:1042B6009002B7A3E002437E9002B7E0FEA3E0FFC0
:1042C600C3EE6480948040030243D1D2DE1258D8F4
:1042D60012586BD29522900060E0FF3395E0FE9075
:1042E60002B7E0FCA3E0FDB50705ECB50601229098
:1042F6000060EDF09002B7E0FAA3E0FB4A7003021B
:1043060043A2D3EB9400EA64809480400AD2DE9004
:1043160002B7A3E00243A29002B7E0FEA3E0FFC308
:10432600EE6480948040030243D1D2DE0243C990FA
:10433600005FE0FF3395E0FE9002B7E0FCA3E0FDEE
:10434600B50716ECB50612900060E0FF3395E0FE67
:10435600EDB50705ECB5060122AF05900060EFF05C
:1043660090005FF09002B7E0FAA3E0FB4A7010C23B
:10437600DEFF125851C292E4FF12586BC29522D347
:10438600EB9400EA648094804019D2DE9002B7A3D1
:10439600E0FF12586BC2959002B7A3E0FF12585186
:1043A600C292229002B7E0FEA3E0FFC3EE648094BF
:1043B600805018D2DE1258D812586BD2959002B798
:0C43C600A3E0FF1258D8125851D29222E6
:10563D00900347EFF0900062E06F6035900347E014
:10564D00B4510C7D9C7F2B123A9430B30C80FB7DB2
:10565D00647F2B123A9420B4FD7D157F147E0012C9
:10566D005569E4FD7F2B123A94900347E090006258
:02567D00F02219
:104E4B00900348EFF0900064E06F7003024F819085
:104E5B000348E024C36023146069147003024F14E9
:104E6B00147003024F5C24046003024F727D647F55
:104E7B002C123A9420B5FD024F66900064E024C2D8
:104E8B00601A14602414602E24046003024F727D98
:104E9B009C7F2C123A949001FB024F557D647F2C22
:104EAB00123A949001FD024F557D647F2C123A9477
:104EBB00900209024F557D647F2C123A9490020D9B
:104ECB00024F55900064E024C3601A24FE60221444
:104EDB00602B24046003024F727D9C7F2C123A944A
:104EEB0090020380657D9C7F2C123A949001FD808B
:104EFB00597D647F2C123A949001FF804D7D647F25
:104F0B002C123A949002058041900064E024C36017
:104F1B001714602024FE60282404704B7D9C7F2C8A
:104F2B00123A9490020B80227D9C7F2C123A949023
:104F3B00020780167D9C7F2C123A949001FF800A09
:104F4B007D647F2C123A94900201E0FEA3E0FF8077
:104F5B00117D9C7F2C123A9420B6FD9001FAE0FF54
:104F6B007E007D15125569E4FD7F2C123A94900357
:074F7B0048E0900064F02201
:104BAA00900349EFF0900063E06F7003024D03C277
:104BBA0096900349E024BAB409004003024CF490E9
:104BCA004BD775F003A4C58325F0C58373024BF256
:104BDA00024C01024C1D024C3D024C5C024C7B0211
:104BEA004C9A024CB9024CDB7D647F2D123A94C276
:104BFA009620A4FD024CE7900063E0FF900349E091
:104C0A00D39F40057D9C024CD17F48124BAA7D64FC
:104C1A00024CD1900063E0FF900349E0C39F500427
:104C2A007D6480027D9C7F2D123A94C29620A5FD58
:104C3A00024CE7900063E0FF900349E0D39F4009EC
:104C4A007F48124BAA7D9C80077F4A124BAA7D643B
:104C5A008075900063E0FF900349E0C39F50047D94
:104C6A006480027D9C7F2D123A94C29620A6FD8014
:104C7A006C900063E0FF900349E0D39F40097F4AAC
:104C8A00124BAA7D9C80077F4C124BAA7D64803709
:104C9A00900063E0FF900349E0C39F50047D648065
:104CAA00027D9C7F2D123A94C29620A7FD802E90F9
:104CBA000063E0FF900349E0D39F40097F4C124B09
:104CCA00AA7D9C80027D647F2D123A949001F8801F
:104CDA000F7D9C7F2D123A94D29620A4FD9001F666
:104CEA00E0FEA3E0FF7D15125569E4FD7F2D123A1F
:0A4CFA0094900349E0900063F0225B
:104A4C0090034AEFF0900065E0FE6F7003024BA9F3
:104A5C00D29690034AE024CD6058147003024B06A2
:104A6C00147003024B4D24036003024B9AEE24CCCA
:104A7C00602014602D24026003024B9A7D9C7F2ED3
:104A8C00123A9412556320A5FD30A5FD20A5FD0218
:104A9C004B8D7D647F2E123A9412556320A5FD0236
:104AAC004B8D7D9C7F2E123A9412556320A5FD02EE
:104ABC004B8D900065E024CC602014602D240360A5
:104ACC0003024B9A7D647F2E123A9412556320A5F3
:104ADC00FD30A5FD20A5FD024B8D7D9C7F2E123A4D
:104AEC009412556320A5FD024B8D7D647F2E123AE6
:104AFC009412556320A5FD024B8D900065E024CDEA
:104B0C00601B24FE602624036003024B9A7D9C7F6D
:104B1C002E123A9412556320A5FD024B8D7D647FB5
:104B2C002E123A9412556320A5FD80557D9C7F2E44
:104B3C00123A9412556320A5FD30A5FD20A5FD80E9
:104B4C0040900065E024CD60161460222402703E73
:104B5C007D647F2E123A9412556320A5FD80227D30
:104B6C009C7F2E123A9412556320A5FD80137D6410
:104B7C007F2E123A9412556320A5FD30A5FD20A579
:104B8C00FD90020FE0FEA3E0FF7D15125569E4FDD8
:0E4B9C007F2E123A9490034AE0900065F022BA
:044D04007D347F3E3D
:104D0800900343EFF0A3EDF024CE60331460452404
:104D1800FE601804705C900065E024CE60091460A1
:104D28000824FE704D803C803A803C900065E02469
:104D3800CE6008146007147039802C802A80249073
:104D48000065E024CD600B24FE6005047024801704
:104D58008011800F900065E024CE600F24FD60076D
:104D680004700F7D9C80067D6480027D647F2E1216
:104D78003A94900343E0FF124E4BD296125563903B
:104D88000344E024CD603414605514607724036034
:104D980003024E3B900065E024CC60151460172494
:104DA800026003024E3B20A5FD30A5FD20A5FD8035
:104DB8007520A5FD807020A5FD806B900065E0241E
:104DC800CC60121460142403706920A5FD30A5FD81
:104DD80020A5FD805120A5FD804C20A5FD80479091
:104DE8000065E024CD600D24FE600E24037044208D
:104DF800A5FD803220A5FD802D20A5FD30A5FD2034
:104E0800A5FD8022900065E024CD600C14600E247E
:104E180002702020A5FD800E20A5FD800920A5FD9B
:104E280030A5FD20A5FD90020FE0FEA3E0FF7D1553
:104E3800125569E4FD7F2E123A94900344E09000E5
:034E480065F022F0
:0937CA00900321EFF0A3EDF0FBE8
:1037D300A312266900000000900327122669000047
:1037E300FFFFE490032BF0A3F0A3F0900065E0FF4C
:1037F3006B7003023891900322E024CD601C1460A7
:103803002E1460432403706EEF24CC600914600807
:1038130024027062802D803E8040900065E024CCBD
:1038230060091460082403704D803E802D8027902A
:103833000065E024CD600A24FE600824037037800D
:103843001980137D9C8024900065E024CD600B14C7
:103853006017240270207D6480027D9C7F2E123AC3
:103863009490032C7401F0800D7D647F2E123A94A2
:1038730090032C7402F0E51F24E8FFE51E3403FED9
:10388300E4351DFDE4351CFC90032712265D9000F2
:1038930063E0FF900321E0FE6F6016EEC39F5004C8
:1038A3007D6480027D9C7F2D123A9490032B023A13
:1038B3005190005EE0700990005DE07003023A8A67
:1038C30090032BE0FB640160030239E9900321E0DC
:1038D30024BAB409004003023A1D9038EB75F00393
:1038E300A4C58325F0C5837302390602391A023948
:1038F3003502394802395E02397102398702399A31
:103903000239B5C2967D147F147E0012556930A426
:1039130003023A1D0239C3C2967D147F147E00123E
:103923005569900063E06446602F30A503023A1D99
:10393300807BC2967D147F147E0012556930A503E7
:10394300023A1D807BC2967D147F147E0012556956
:1039530030A50630A603023A1D8052C2967D147F1D
:10396300147E0012556930A603023A1D8052C29696
:103973007D147F147E0012556930A60630A703021A
:103983003A1D8029C2967D147F147E00125569303A
:10399300A703023A1D8029C2967D147F147E00126C
:1039A300556930A708900063E0644E706D9001F88C
:1039B3008011D2967D147F147E0012556920A45A7B
:1039C3009001F6E0FEA3E0FFEF251FFFEE351EFE9C
:1039D300E4351DFDE4351CFC90032312265D9003A2
:1039E3002B7402F08034EBB40230AF1FAE1EAD1D5A
:1039F300AC1C900323E0F8A3E0F9A3E0FAA3E0FBF7
:103A0300D312264C5014E4FD7F2D123A94E4900314
:103A13002BF0900321E0900063F0AF1FAE1EAD1DAD
:103A2300AC1C900327E0F8A3E0F9A3E0FAA3E0FBC2
:103A3300D312264C40030238B490032CE0602CD2FE
:103A4300967D147F147E0012556930A507A3740177
:103A5300F00238B490032DE0640160030238B4909F
:103A6300032CE014F0E4A3F00238B4E4FD7F2E123B
:103A73003A949003271226690000FFFF900322E087
:073A8300900065F00238B469
:013A8A002219
:0B30F200900313EFF0A3EDF0A3EBF050
:1030FD00A31226690000000090031A122669000031
:10310D00FFFFE490031EF0A3F0A3F0C22290006530
:10311D00E0FF6B70030231BD900315E024CD601C00
:10312D0014602E1460432403706EEF24CC600914D8
:10313D00600824027062802D803E8040900065E022
:10314D0024CC60091460082403704D803E802D80CE
:10315D0027900065E024CD600A24FE6008240370EA
:10316D0037801980137D9C8024900065E024CD600C
:10317D000B146017240270207D6480027D9C7F2ECD
:10318D00123A9490031F7401F0800D7D647F2E120E
:10319D003A9490031F7402F0E51F24E8FFE51E34F6
:1031AD0003FEE4351DFDE4351CFC90031A12265D6B
:1031BD00900063E0FF900314E0FE6F6016EEC39F76
:1031CD0050047D6480027D9C7F2D123A9490031EE5
:1031DD0002345290005EE0700F90005DE070099037
:1031ED00031EE0700302348B90031EE024FE700377
:1031FD0002333C14700302337514700302339714B9
:10320D0070030233EE2404600302341E900314E0B5
:10321D0024BAB40900400302341E90323575F00310
:10322D00A4C58325F0C58373023250023264023285
:10323D00800232940232AA0232BD0232D30232E649
:10324D00023304C2967D147F147E0012556930A49A
:10325D000302341E023315C2967D147F147E0012B4
:10326D005569900063E06446603130A50302341E59
:10327D000232FFC2967D147F147E0012556930A56F
:10328D000302341E023315C2967D147F147E001284
:10329D00556930A50630A60302341E8055C2967DB1
:1032AD00147F147E0012556930A60302341E805817
:1032BD00C2967D147F147E0012556930A60630A784
:1032CD000302341E802CC2967D147F147E0012558D
:1032DD006930A70302341E802FC2967D147F147EA1
:1032ED000012556930A70B900063E0644E60030235
:1032FD00341E9001F88014D2967D147F147E001236
:10330D00556930A40302341E9001F6E0FEA3E0FFE0
:10331D00EF251FFFEE351EFEE4351DFDE4351CFCCB
:10332D0090031612265D90031E7402F002341EAF38
:10333D001FAE1EAD1DAC1C900316E0F8A3E0F9A363
:10334D00E0FAA3E0FBD312264C400302341EE4FD49
:10335D007F2D123A94E490031EF07403F090031441
:10336D00E0900063F002341E900313E0B440047D3E
:10337D009C8009900313E0B43C077D647F2C123AC6
:10338D009490031E7404F002341E900313E0FBB4FA
:10339D00402420B6219001FAE0FFEF251FFFE43510
:1033AD001EFEE4351DFDE4351CFC90031612265D52
:1033BD0090031E7405F0EB643C705620B5539001DC
:1033CD00FAE0FFEF251FFFE4351EFEE4351DFDE499
:1033DD00351CFC90031612265D90031E7405F080BB
:1033ED0030AF1FAE1EAD1DAC1C900316E0F8A3E070
:1033FD00F9A3E0FAA3E0FBD312264C5014E4FD7FB1
:10340D002C123A94E490031EF0900313E0900064A4
:10341D00F0AF1FAE1EAD1DAC1C90031AE0F8A3E07B
:10342D00F9A3E0FAA3E0FBD312264C40030231E0EE
:10343D0090031FE0602CD2967D147F147E001255F0
:10344D006930A507A37401F00231E0900320E06418
:10345D000160030231E090031FE014F0E4A3F002D9
:10346D0031E0E4FD7F2E123A9490031A1226690082
:0E347D0000FFFF900315E0900065F00231E0C3
:01348B00221E
:1052310020872B20862830842530832220811F203F
:10524100801C3085032082062085132082107D1565
:105251007F0A7E00125569E4FD7F2A023A94208478
:105261000B7D0C7F28123A947DF4800C20830E7DF7
:10527100F47F28123A947D0C7F29123A9430820EE1
:1052810020850B7D087F28123A947DF8800F3085A8
:105291001120820E7DF87F28123A947D087F291211
:1052A1003A9420860330870B7DF07F28123A947D53
:1052B10010800F20810330800E7D107F28123A94D8
:1052C1007DF07F29123A947D157F647E0012556925
:0352D10002523155
:10271800900040E0FBA3E0FAA3E0F91223FA249C1E
:10272800603F147003022A7114700302297D24E4A7
:102738006003022C6EE4FDFC7F2A124236900046AC
:10274800740CF07E007F407D007B017A00790012D6
:1027580026EC9000407401F0A37400F0A37400F01C
:1027680022900040E0FBA3E0FAA3E0F990000112F8
:102778002413700302296B208703308023308620BE
:1027880030851D30841AA2828283501430811190C2
:102798000047740BF0900043E0FD3395E002297781
:1027A800900047E0B40B16740CF0900040E0FBA3D7
:1027B800E0FAA3E0F990000174FF0224409000437E
:1027C800E0FF3395E0F5198F1AF5178F1830853922
:1027D800208236E5182415FFE43517FE7C007D0AB3
:1027E80012250EC3E5189FF518E5179EF517C37453
:1027F80063951AFFE49519FE7C007D0A12250EEFF9
:10280800251AF51AEE3519F519308239208536C39F
:1028180074639518FFE49517FE7C007D0A12250E57
:10282800EF2518F518EE3517F517E51A2415FFE406
:102838003519FE7C007D0A12250EC3E51A9FF51A8C
:10284800E5199EF519308643208140E5182415FFC7
:10285800E43517FE7C007D031224A77D0A12250E9D
:10286800C3E5189FF518E5179EF517C37463951A05
:10287800FFE49519FE7C007D031224A77D0A12252A
:102888000EEF251AF51AEE3519F519308143208611
:1028980040C374639518FFE49517FE7C007D03120E
:1028A80024A77D0A12250EEF2518F518EE3517F521
:1028B80017E51A2415FFE43519FE7C007D03122460
:1028C800A77D0A12250EC3E51A9FF51AE5199EF58C
:1028D80019308743208040E5182415FFE43517FE9A
:1028E8007C007D051224A77D0A12250EC3E5189FDA
:1028F800F518E5179EF517C37463951AFFE4951943
:10290800FE7C007D051224A77D0A12250EEF251AEC
:10291800F51AEE3519F519208003022C5C20874042
:10292800C374639518FFE49517FE7C007D05122497
:10293800A77D0A12250EEF2518F518EE3517F5179D
:10294800E51A2415FFE43519FE7C007D051224A73D
:102958007D0A12250EC3E51A9FF51AE5199EF51989
:10296800022C5C900041E475F002122544E4FDFC61
:102978007F2A022C6BE51B147003022A441470038F
:10298800022A6624026003022C6E900040E0FBA33A
:10299800E0FAA3E0F990000112241324A6602D2484
:1029A800FE606714603C24026003022A41900044E0
:1029B800E0FD3395E0FC7F28124236900044E0FFAA
:1029C8003395E0FEC3E49FFDE49E800B1242249001
:1029D8000044E0FD3395E0FC7F2912423690021353
:1029E800803C900044E0FD3395E0FC7F281242369D
:1029F800900044E0FF3395E0FEC3E49FFDE49EFCB5
:102A08007F29124236900217801412422490004403
:102A1800E0FD3395E0FC7F29124236900217E0FE74
:102A2800A3E0FFEF251FFFEE351EFEE4351DFDE494
:102A3800351CFC90004812265D051B22AF1FAE1EF8
:102A4800AD1DAC1C900048E0F8A3E0F9A3E0FAA3A0
:102A5800E0FBD312264C4003022C6E051B22208576
:102A68006B208203022C6E8063E51B1460420460B5
:102A780003022C6E900040E0FBA3E0FAA3E0F9907B
:102A88000001122413FF3395E0FE7C007D0A122416
:102A9800A7EE3395E0FDFCEF251FFFEE351EFEED9A
:102AA800351DFDEC351CFC90004812265D051B22E7
:102AB800AF1FAE1EAD1DAC1C900048E0F8A3E0F9B6
:102AC800A3E0FAA3E0FBD312264C5020E4FDFC7FE0
:102AD8002A124236900041E475F002122544900013
:102AE8004812266900000000E4F51B22900045E02A
:102AF800FF3395E0F5198F1AF5178F1830873620B0
:102B08008033AC17AD18EC121FF67433FBFAF97862
:102B18003F121EEB12202F8E178F18AC19AD1AEC2E
:102B2800121FF67B667A6679A6783F121EEB122092
:102B38002F8E198F1A308036208733AC17AD18ECDA
:102B4800121FF67B667A6679A6783F121EEB122072
:102B58002F8E178F18AC19AD1AEC121FF67433FBB1
:102B6800FAF9783F121EEB12202F8E198F1A308631
:102B780037208134AC17AD18EC121FF67BCD7ACC18
:102B8800794C783F121EEB12202F8E178F18AC1934
:102B9800AD1AEC121FF67B9A7A997999783F121E32
:102BA800EB12202F8E198F1A308137208634AC17FC
:102BB800AD18EC121FF67B9A7A997999783F121E14
:102BC800EB12202F8E178F18AC19AD1AEC121FF6C6
:102BD8007BCD7ACC794C783F121EEB12202F8E19C0
:102BE8008F1A308536208233AC17AD18EC121FF6D9
:102BF8007466FBFAF9783F121EEB12202F8E178F9E
:102C080018AC19AD1AEC121FF67BCD7ACC798C78FA
:102C18003F121EEB12202F8E198F1A308236208514
:102C280033AC17AD18EC121FF67BCD7ACC798C78C3
:102C38003F121EEB12202F8E178F18AC19AD1AEC0D
:102C4800121FF67466FBFAF9783F121EEB12202F5A
:102C58008E198F1AAD1AAC197F29124236AD18ACED
:062C6800177F281242361E
:012C6E002243
:0B53EA009002B9EFF0A3EDF0A3EBF090
:1053F500E4FF9002E404F0A37402F0A374BC8013EC
:10540500EE64826025AD070F74002DF582E434004B
:10541500F583EEF09002E4E0FBA3E475F0011225BC
:105425005AA9F0FA1223FAFE80D674002FF582E409
:105435003400F5837482F0900047740CF0900040BE
:105445007401F0A37400F0A37400F09002B9E09029
:105455000043F09002BAE0900044F09002BBE09067
:075465000045F0A3740BF0F9
:01546C00221D
:05457D00900337EDF092
:10458200A3EFF0900338E070030247202087033046
:10459200802430862130851E30841BA28282835083
:1045A2001530811290033B740BF0900337E0FD7FCE
:1045B2002A123A9480CD90033BE0B40B0B740CF0BA
:1045C200900338E014F080BB900337E090033AF098
:1045D200900339F0308527208224A3E0FF75F00A8A
:1045E20084FEC3EF9EF0900339E0FFC374649FFF23
:1045F200E49400FE7C007D0A1224B9E02FF03082A0
:104602002920852690033AE0FFC374649FFFE49457
:1046120000FE7C007D0A1224B9E02FF0900339E0FD
:10462200FF75F00A84FEC3EF9EF03086332081309E
:1046320090033AE0FF75F00A8475F003A4FEC3EF1D
:104642009EF0900339E0FFC374649FFFE49400FE80
:104652007C007D0A1224B9EF75F003A4FFE02FF06D
:1046620030813320863090033AE0FFC374649FFFA9
:10467200E49400FE7C007D0A1224B9EF75F003A4D5
:10468200FFE02FF0900339E0FF75F00A8475F00324
:10469200A4FEC3EF9EF030873320803090033AE0CF
:1046A200FF75F00A8475F005A4FEC3EF9EF0900337
:1046B20039E0FFC374649FFFE49400FE7C007D0A2E
:1046C2001224B9EF75F005A4FFE02FF030803320FB
:1046D200873090033AE0FFC374649FFFE49400FEC6
:1046E2007C007D0A1224B9EF75F005A4FFE02FF0DB
:1046F200900339E0FF75F00A8475F005A4FEC3EF5C
:104702009EF0900339E0FD7F29123A9490033AE03B
:10471200FD7F28123A947D151255650245857D2844
:054722007F28023CC9E4
:10546D0090034BEDF0EF24A6601D24FE6046146002
:10547D00282402705990034BE0FD7F28123A949036
:10548D00034BE0F4048007123A8B90034BE0FD7F51
:10549D0029123A94900211802B90034BE0FD7F2846
:1054AD00123A9490034BE0F404FD7F29123A949044
:1054BD0002158010123A8B90034BE0FD7F29123AB2
:1054CD0094900215E0FEA3E0FF7D1512556920852D
:0B54DD00FD2082FAE4FD7F2A023A94D1
:053CC900900340EDF046
:103CCE00EF75F00AA4FFEF251FFFE5F0351EFEE4A9
:103CDE00351DFDE4351CFC90004812265DAF1FAE6D
:103CEE001EAD1DAC1C900048E0F8A3E0F9A3E0FA6D
:103CFE00A3E0FBD312264C5003023EA0900340E0FB
:103D0E00900342F0900341F0308738208035A3E0D5
:103D1E00FCE4121FFB7433FBFAF9783F121EEB1210
:103D2E00202F900342EFF0900341E0FCE4121FFBC2
:103D3E007B667A6679A6783F121EEB12202F9003CF
:103D4E0041EFF030803A208737900342E0FCE412D6
:103D5E001FFB7B667A6679A6783F121EEB12202F28
:103D6E00900342EFF0900341E0FCE4121FFB74332A
:103D7E00FBFAF9783F121EEB12202F900341EFF061
:103D8E0030863B208138900342E0FCE4121FFB7B1F
:103D9E00CD7ACC794C783F121EEB12202F90034235
:103DAE00EFF0900341E0FCE4121FFB7B9A7A9979C5
:103DBE0099783F121EEB12202F900341EFF03081C5
:103DCE003B208638900342E0FCE4121FFB7B9A7A7C
:103DDE00997999783F121EEB12202F900342EFF043
:103DEE00900341E0FCE4121FFB7BCD7ACC794C783A
:103DFE003F121EEB12202F900341EFF030853A2038
:103E0E008237900342E0FCE4121FFB7466FBFAF962
:103E1E00783F121EEB12202F900342EFF0900341D9
:103E2E00E0FCE4121FFB7BCD7ACC798C783F121E1E
:103E3E00EB12202F900341EFF030823A208537901D
:103E4E000342E0FCE4121FFB7BCD7ACC798C783FE9
:103E5E00121EEB12202F900342EFF0900341E0FC74
:103E6E00E4121FFB7466FBFAF9783F121EEB122068
:103E7E002F900341EFF0900341E0FD7F29123A9419
:103E8E00900342E0FD7F28123A947D15125565028B
:093E9E003CEBE4FD7F2A023A949A
:0D000E00E4F5C7F5C5F5C675C380F5C4223D
:1057C40075C78375C5018FC4EEF5C375C65A75C612
:0F57D400A57D147F0A7E00125569AFC212000E28
:0157E30022A3
:1057A30075C78375C5028FC4EEF5C3AF058FC27588
:1057B300C65A75C6A57D147F0A7E0012556902007C
:0157C3000ED7
:1057E40075C78375C5038FC4EEF5C375C65A75C6F0
:0D57F400A57D147F0A7E0012556902000E8B
:10406F007F3C124E4B7F40124E4BAF1FAE1EAD1D0D
:10407F00AC1C90033C12265D7F3C124E4B7F4012CE
:10408F004E4B90033CE0F8A3E0F9A3E0FAA3E0FB6A
:10409F00C3E51F9BFFE51E9AFEE51D99FDE51C98E4
:1040AF00FC90033C12265D90033CE0FCA3E0FDA3D3
:1040BF00E0FEA3E0FFE4121FF1E4FBFAF9783F12F0
:1040CF001EEB12202F90033C12265D90033CE0FC68
:1040DF00A3E0FDA3E0FEA3E0FFE4121FF1E4FBFA6F
:1040EF00F9783F121EEB12202F900205EEF0A3EF8E
:1040FF00F0900203EEF0A3EFF090033CE0FCA3E09E
:10410F00FDA3E0FEA3E0FFE4121FF1E4FBFA794008
:10411F00783F121EEB12202F90020BEEF0A3EFF060
:10412F0090033CE0FCA3E0FDA3E0FEA3E0FFE4125C
:10413F001FF17B4E7A627910783F121EEB12202FFF
:10414F0090020DEEF0A3EFF090033CE0FCA3E0FD36
:10415F00A3E0FEA3E0FFE4121FF17B7B7A1479AE9C
:10416F00783E121EEB12202F9001FBEEF0A3EFF022
:10417F0090033CE0FCA3E0FDA3E0FEA3E0FFE4120C
:10418F001FF17B8C7A4A798A783E121EEB12202F10
:10419F00900201EEF0A3EFF090033CE0FCA3E0FDF2
:1041AF00A3E0FEA3E0FFE4121FF17B377A89794188
:1041BF00783E121EEB12202F9001FDEEF0A3EFF0D0
:1041CF0090033CE0FCA3E0FDA3E0FEA3E0FFE412BC
:1041DF001FF17BCD7ACC794C783E121EEB12202F3B
:1041EF009001FFEEF0A3EFF090033CE0FCA3E0FDA5
:1041FF00A3E0FEA3E0FFE4121FF1E4FBFAF9783F1E
:10420F00121EEB12202F900207EEF0A3EFF0A3EE99
:04421F00F0A3EFF029
:014223002278
:1058B100438780759850438E04759CD9438E01436C
:0358C1008E102224
:104F82007F5012563D1255637F5112563D125563A2
:104F92007F5012563D1255637F5112563D12556392
:104FA2009000647440F07F3C124E4B1255637F4078
:104FB200124E4B1255637F3C124E4B1255637F408B
:104FC200124E4B1255637F46124BAA1255637F480D
:104FD200124BAA1255637F4A124BAA1255637F4C99
:104FE200124BAA1255637F4E124BAA1255637F4C85
:104FF200124BAA1255637F4A124BAA1255637F487D
:10500200124BAA1255637F46124BAA900065E0909C
:105012000058F09000657432F07F35124A4C1255F8
:10502200637F32124A4C1255637F35124A4C125535
:10503200637F32124A4C125563900058E09000652B
:10504200F07D3C7F2A123A94125563E4FD7F2A12C6
:105052003A941255637DC47F2A123A94125563E43E
:10506200FD7F2A123A941255637D287F29123A94C1
:105072007DD87F28123A94125563E4FD7F2A123AB2
:10508200941255637DD87F29123A947D287F281285
:0C5092003A94125563E4FD7F2A023A9420
:1054E800E4F090027EE0FFA3E09002E8F0900280F2
:1054F800E09002E9F0900281E09002EAF0900282E6
:10550800E09002EBF0900283E09002ECF0900284CD
:10551800E09002EDF0900285E09002EEF0A3748234
:01552800F092
:055529009002E7EFF025
:10552E00E0FF9003107401F0A37402F0A374E8F08E
:10553E00800CEE6482601DEEC39F5002AF06900396
:10554E0010E0FBA3E475F00112255AA9F0FA12231C
:04555E00FAFE80DEF3
:015562002226
:103EA700900287EFF0A3EDF075F04EEFA4246AF5CA
:103EB70082E5F03400F58375F006ED12269AEBF0F3
:103EC70090028FE0FF90028CE0FCA3E090006A75FF
:103ED700F04E12269AEC75F04EA42583F583C08325
:103EE700C08290028EE0D082D08375F00612269AA7
:103EF700EFF0900295E0FF900292E0FCA3E09000C3
:103F07006A75F04E12269AEC75F04EA42583F58358
:103F1700C083C082900294E0D082D08375F00612ED
:103F2700269AEFF090029BE0FF900298E0FCA3E056
:103F370090006A75F04E12269AEC75F04EA4258310
:103F4700F583C083C08290029AE0D082D08375F057
:103F57000612269AEFF090029EE09001F0F0900290
:103F67008AE0FF900287E075F04EA4246BF582E5A6
:103F7700F03400F583C083C082900288E0D082D0FD
:103F87008375F00612269AEFF0900290E0FF9002F8
:103F97008CE0FCA3E090006B75F04E12269AEC754E
:103FA700F04EA42583F583C083C08290028EE0D0B3
:103FB70082D08375F00612269AEFF0900296E0FF02
:103FC700900292E0FCA3E090006B75F04E12269AE7
:103FD700EC75F04EA42583F583C083C082900294CC
:103FE700E0D082D08375F00612269AEFF090029CFB
:103FF700E0FF900298E0FCA3E090006B75F04E1292
:10400700269AEC75F04EA42583F583C083C0829071
:10401700029AE0D082D08375F00612269AEFF090CC
:10402700029FE09001F1F0900287E0FFA3E0900289
:104037008A1243D290028CA3E0FFA3E09002901271
:1040470043D2900292A3E0FFA3E0FD9002961243B1
:10405700D3900298A3E0FFA3E0FD90029CE0FBA3AE
:08406700E09002A3F00243DB2C
:0943D200FDE0FBA3E09002A3F062
:1043DB009002A3E0643460030244A9EB6433705B86
:1043EB0075F04EEFA42468F582E5F03400F5837583
:1043FB00F006ED12269A740CF075F04EEFA42462C1
:10440B00F582E5F03400F58375F006ED12269A740B
:10441B000CF075F04EEFA4241BF582E5F03400F59B
:10442B008375F006ED12269A740CF075F04EEFA41E
:10443B002415F582E5F03400024570EB643260031D
:10444B0002457C75F04EEFA42468F582E5F034004C
:10445B00F58375F006ED12269A740CF075F04EEF9D
:10446B00A4246EF582E5F03400F58375F006ED12A9
:10447B00269A740CF075F04EEFA4241BF582E5F030
:10448B003400F58375F006ED12269A740CF075F076
:10449B004EEFA42421F582E5F03400024570900222
:1044AB00A3E06435600302457CEB6433705A75F00E
:1044BB004EEFA42469F582E5F03400F58375F00620
:1044CB00ED12269A740CF075F04EEFA42463F5826E
:1044DB00E5F03400F58375F006ED12269A740CF0B6
:1044EB0075F04EEFA424B6F582E5F03400F5837534
:1044FB00F006ED12269A740CF075F04EEFA424B072
:10450B00F582E5F03400805DEB6432706475F04E3B
:10451B00EFA42469F582E5F03400F58375F006ED20
:10452B0012269A740CF075F04EEFA4246FF582E509
:10453B00F03400F58375F006ED12269A740CF075C5
:10454B00F04EEFA424B6F582E5F03400F58375F058
:10455B0006ED12269A740CF075F04EEFA424BCF500
:10456B0082E5F03400F58375F006ED12269A740C93
:02457B00F0222C
:1055D800E4FEE4FD75F04EEEA4246AF582E5F034AD
:1055E80000F58375F006ED12269AE06F703C900284
:1055F80019EEF0A3EDF075F04EEEA4246BF582E5FC
:10560800F03400F58375F006ED12269AE090022139
:10561800F0900059E090004CF090005AE090004D56
:10562800F0900061E0900054F0220DEDB40DA50E4D
:04563800EEB4059E29
:01563C00224B
:044727007D287F6505
:10472B0090028DEDF0900040E0FBA3E0FAA3E0F9DE
:10473B001223FAFE70028019EF6E6019900041E4AB
:10474B0075F002122544900040E0FBA3E0FAA3E0D1
:10475B00F9EF122473900040E0FBA3E0FAA3E0F919
:10476B001223FA249B70030248B1146011240260D7
:10477B00030248C890028DE09000010248C59000EA
:10478B0040E0FBA3E0FAA3E0F9900001122413240C
:10479B00A660201460681470030248521470030260
:1047AB004881245D60030248C890028DE0900001AF
:1047BB000248AE90028DE024A4601D14602D2403EA
:1047CB0060030248C8900040E0FBA3E0FAA3E0F9C5
:1047DB00900001745C0248AE900040E0FBA3E0FA4D
:1047EB00A3E0F9900001745B0248AE900040E0FB3F
:1047FB00A3E0FAA3E0F9900001745B0248AE9002CB
:10480B008DE024A4601D14602C240260030248C8B0
:10481B00900040E0FBA3E0FAA3E0F9900001745D87
:10482B000248AE900040E0FBA3E0FAA3E0F9900051
:10483B0001745A806E900040E0FBA3E0FAA3E0F90C
:10484B00900001745A805C90028DE024A5601504E1
:10485B00706B900040E0FBA3E0FAA3E0F99000013D
:10486B00745B803F900040E0FBA3E0FAA3E0F9907B
:10487B000001745A802D90028DE024A56015047000
:10488B003C900040E0FBA3E0FAA3E0F99000017438
:10489B005B8010900040E0FBA3E0FAA3E0F99000EE
:1048AB0001745A02248590028DE0FF900040E0FBDA
:0E48BB00A3E0FAA3E0F9900001EF12244022DE
:0100070022D6
:10348C00900287EFF0A3EDF0AC039000407401F0D4
:10349C00A37400F0A37400F0900287E0FF90004C3E
:1034AC00E0B50716900288E0FF90004DE0B5070AE2
:1034BC00900054E06C700302377F900054E024CDF0
:1034CC00700302357B1470030236BC147003023691
:1034DC0015240370C390004DE0FF900288E0FED3EA
:1034EC00EF6480F8EE648098400D7D017F64124794
:1034FC002B90004D02363490004CE0FF900287E098
:10350C00FED3EF6480F8EE64809840081247277D64
:10351C005B02374B90004CE0FF900287E0FEC3EF5C
:10352C006480F8EE64809850081247277D5A023662
:10353C008E90004DE0FF900288E0FEC3EF6480F8AF
:10354C00EE64809850081247277D5D0236FB1247C7
:10355C0027EC24CD600F24FE600704700F7D5A8089
:10356C00067D5B80027D5C7F6612472B023777906D
:10357C00004DE0FF900288E0FEC3EF6480F8EE643B
:10358C008098500D7D017F6412472B90004D0236C0
:10359C00DB90004CE0FF900287E0FED3EF6480F8F4
:1035AC00EE64809840081247277D5A02374B9000F2
:1035BC004CE0FF900287E0FEC3EF6480F8EE64807D
:1035CC009850081247277D5B02368E90004DE0FF25
:1035DC00900288E0FED3EF6480F8EE648098400897
:1035EC001247277D5D023723124727EC24CE600F4C
:1035FC0024FD600704700F7D5B80067D5A80027D80
:10360C005C7F6612472B02377790004CE0FF9002EC
:10361C0087E0FED3EF6480F8EE64809840107D0163
:10362C007F6412472B90004CE004F00234A490000D
:10363C004DE0FF900288E0FEC3EF6480F8EE6480FA
:10364C009850081247277D5B0236FB90004DE0FF37
:10365C00900288E0FED3EF6480F8EE648098400816
:10366C001247277D5A02372390004CE0FF900287C7
:10367C00E0FEC3EF6480F8EE648098501312472785
:10368C007D5C7F6612472B9000547434F00234A496
:10369C00124727EC24CE600E14600714700F7D5C6B
:1036AC0080067D5B80027D5A7F6612472B0237773E
:1036BC0090004CE0FF900287E0FEC3EF6480F8EED0
:1036CC0064809850107D017F6412472B90004CE071
:1036DC0014F00234A490004DE0FF900288E0FEC389
:1036EC00EF6480F8EE64809850131247277D5A7F60
:1036FC006612472B9000547433F00234A490004DA2
:10370C00E0FF900288E0FED3EF6480F8EE648098CE
:10371C0040131247277D5B7F6612472B9000547431
:10372C0032F00234A490004CE0FF900287E0FED30C
:10373C00EF6480F8EE64809840131247277D5C7F1D
:10374C006612472B9000547435F00234A4124727AC
:10375C00EC24CE600F14600824FE700F7D5C800694
:10376C007D5A80027D5B7F6612472B900054ECF0F3
:10377C000234A4900041E475F002122544900040FC
:10378C00E0FBA3E0FAA3E0F97482122473900047E3
:10379C00740CF09000407401F0A37400F0A374005A
:1037AC00F090028AE0900043F090028BE09000448D
:0E37BC00F090028CE0900045F0A3740BF02218
:1056C1001255D8900219E0FFA3E0FD900221E0FB02
:1056D10090028A7438F0A3742DF0A37432F012345E
:1056E1008C900046E0B40B0B7D157F327E00125585
:0456F1006980EE22BC
:06001E0090022612265D8F
:100024007E007F287D007B017A02792E1226EC7EE9
:10003400007F287D007B017A0279561226EC7E002F
:100044007F087D057B017A02797E1226EC7B807A1B
:100054009679987800900226E0FCA3E0FDA3E0FEE8
:10006400A3E0FF1225ACE47B0AFAF9F81225AC9060
:10007400022FEBF07B407A42790F7800900226E061
:10008400FCA3E0FDA3E0FEA3E0FF1225ACE47B0AA1
:10009400FAF9F81225AC900230EBF07BA07A86795D
:1000A400017800900226E0FCA3E0FDA3E0FEA3E0BB
:1000B400FF1225ACE47B0AFAF9F81225AC90023160
:1000C400EBF0E47B107A27F9F8900226E0FCA3E039
:1000D400FDA3E0FEA3E0FF1225ACE47B0AFAF9F8E5
:1000E4001225AC900232EBF0E47BE87A03F9F89045
:1000F4000226E0FCA3E0FDA3E0FEA3E0FF1225AC92
:10010400E47B0AFAF9F81225AC900243EBF0E47BA5
:1001140064FAF9F8900226E0FCA3E0FDA3E0FEA354
:10012400E0FF1225ACE47B0AFAF9F81225AC900240
:1001340044EBF0E47B0AFAF9F8900226E0FCA3E031
:10014400FDA3E0FEA3E0FF1225ACE47B0AFAF9F874
:100154001225AC900245EBF0E47B0AFAF9F8900220
:1001640026E0FCA3E0FDA3E0FEA3E0FF1225AC9093
:100174000246EBF07B807A967998780090022AE028
:10018400FCA3E0FDA3E0FEA3E0FF1225ACE47B0AA0
:10019400FAF9F81225AC90023EEBF07B407A4279F2
:1001A4000F780090022AE0FCA3E0FDA3E0FEA3E0A8
:1001B400FF1225ACE47B0AFAF9F81225AC90023F51
:1001C400EBF07BA07A867901780090022AE0FCA308
:1001D400E0FDA3E0FEA3E0FF1225ACE47B0AFAF9FC
:1001E400F81225AC900240EBF0E47B107A27F9F882
:1001F40090022AE0FCA3E0FDA3E0FEA3E0FF1225A9
:10020400ACE47B0AFAF9F81225AC900241EBF0E475
:100214007BE87A03F9F890022AE0FCA3E0FDA3E06E
:10022400FEA3E0FF1225ACE47B0AFAF9F81225AC30
:10023400900252EBF0E47B64FAF9F890022AE0FCB5
:10024400A3E0FDA3E0FEA3E0FF1225ACE47B0AFAE1
:10025400F9F81225AC900253EBF0E47B0AFAF9F8B2
:1002640090022AE0FCA3E0FDA3E0FEA3E0FF122538
:10027400ACE47B0AFAF9F81225AC900254EBF0E4F2
:100284007B0AFAF9F890022AE0FCA3E0FDA3E0FE61
:10029400A3E0FF1225AC900255EBF09002667401C6
:1002A400F0A304F0A304F0A304F090027A04F0A3F2
:1002B40004F0A304F0A304F09002867401F0900209
:1002C40086E0FFD3940440030205BE742E2FF5820A
:1002D400E43402F583E0FF90023EE0FEEFB506252C
:1002E400900286E0FF242EF582E43402F583E06078
:1002F40014900266E0FE74562FF582E43402F5830E
:10030400EEF0020449900286E0FF242EF582E434E4
:1003140002F583E0FE90023FE0FDEEB50513742E76
:100324002FF582E43402F583E0600690026702044C
:1003340038900286E0FF242EF582E43402F583E04F
:10034400FE900240E0FDEEB50513742E2FF582E415
:100354003402F583E0600690026802043890028655
:10036400E0FF242EF582E43402F583E0FE9002419E
:10037400E0FDEEB50513742E2FF582E43402F58307
:10038400E06006900269020438900286E0FF242EA1
:10039400F582E43402F583E0FE900252E0FDEEB50E
:1003A4000513742E2FF582E43402F583E060069081
:1003B400027A020438900286E0FF242EF582E434A7
:1003C40002F583E0FE900253E0FDEEB50512742EB3
:1003D4002FF582E43402F583E0600590027B8054BB
:1003E400900286E0FF242EF582E43402F583E0FED9
:1003F400900254E0FDEEB50512742E2FF582E4341C
:1004040002F583E0600590027C8029900286E0FF7B
:10041400242EF582E43402F583E0FE900255E0FDDB
:10042400EEB50521742E2FF582E43402F583E060E5
:100434001490027DE0FF900286E02456F582E434B5
:1004440002F583EFF0900286E0FF2442F582E43463
:1004540002F583E0FE90023EE0FDEEB50513744222
:100464002FF582E43402F583E0600690026602050B
:10047400A4900286E0FF2442F582E43402F583E08E
:10048400FE90023FE0FDEEB5051374422FF582E4C1
:100494003402F583E060069002670205A4900286A8
:1004A400E0FF2442F582E43402F583E0FE9002404A
:1004B400E0FDEEB5051374422FF582E43402F583B2
:1004C400E060069002680205A4900286E0FF2442E0
:1004D400F582E43402F583E0FE900241E0FDEEB5DE
:1004E400051374422FF582E43402F583E06006902C
:1004F40002690205A4900286E0FF2442F582E434F6
:1005040002F583E0FE900252E0FDEEB5051374425D
:100514002FF582E43402F583E0600690027A020546
:10052400A4900286E0FF2442F582E43402F583E0DD
:10053400FE900253E0FDEEB5051274422FF582E4FD
:100544003402F583E0600590027B8054900286E0DB
:10055400FF2442F582E43402F583E0FE900254E085
:10056400FDEEB5051274422FF582E43402F583E002
:10057400600590027C8029900286E0FF2442F58287
:10058400E43402F583E0FE900255E0FDEEB505216A
:1005940074422FF582E43402F583E0601490027D06
:1005A400E0FF900286E0246AF582E43402F583EFEA
:1005B400F0900286E004F00202C27E007F287D00F3
:1005C4007B017A02792E1226EC9002867401F09057
:1005D4000286E0FF2456F582E43402F583E0FE74DB
:1005E4002E2FF582E43402F583EEF0900286E0FFCC
:1005F400246AF582E43402F583E0FE74422FF58226
:10060400E43402F583EEF0900286E004F0E0B405F1
:10061400BE9002867401F0900286E0FFD3940450E9
:100624002074562FF582E43402F583E4F0746A2FC3
:10063400F582E43402F583E4F0900286E004F0806D
:10064400D69002827401F090027EF0E4900286F06B
:10065400900266E0FF90023EE06F60030206E290C3
:100664000267E0FF90023FE06F7073900268E0FF62
:10067400900240E06F7067900269E0FF900241E0F1
:100684006F705B90027AE0FF900252E06F704F90BF
:10069400027BE0FF900253E06F704390027CE0FF26
:1006A400900254E06F703790027DE0FF900255E0B5
:1006B4006F702B900065E0643460030210ED7F518D
:1006C40012563D7F46124BAA7D077F2F1248CE90CB
:1006D4000285E0FD7F2D1248CE7F5002563D9000EA
:1006E40065E064346003020BDC900286E004F0E011
:1006F400C39464400B1254E81248C97F35124A4C23
:1007040090027FE0FFC3648094855042900281E0B0
:10071400FD3395E0FC74642DF58274023CF583E0AE
:10072400FEEFFD3395E0FC74332DF58274023CF545
:1007340083E0B506199003337401F0A37402F0A3A7
:10074400742EF07B017A02797E7D03020ACE900238
:1007540080E0FFC3648094855040A3E0FD3395E0BE
:10076400FC74642DF58274023CF583E0FEEFFD33E6
:1007740095E0FC74382DF58274023CF583E0B506EF
:10078400199003337401F0A37402F0A3742EF07B68
:10079400017A02797E7D03020B1F90027EE0FFC383
:1007A400648094854003020834900281E0FD33950F
:1007B400E0FC74642DF58274023CF583E0FEEFFDE9
:1007C4003395E0FC742E2DF58274023CF583E0B57C
:1007D40006199003337401F0A37402F0A3742EF08D
:1007E4007B017A02797E7D03020A65900285E0FF2F
:1007F4003395E0FE74782FF58274023EF583E0FFB2
:1008040090027EE0FD3395E0FC742E2DF582740297
:100814003CF583E0B507199003337401F0A3740227
:10082400F0A3742EF07B017A02797E7D07020A65BB
:1008340090027EE0FFC3648094854003020A6AEF5D
:100844003395E0FE742E2FF58274023EF583E0FDAD
:10085400900266E0FCED6C604B742E2FF5827402FE
:100864003EF583E0FF900267E0FEEF6E6036900293
:100874007EE0FF3395E0FE742E2FF58274023EF580
:1008840083E0FD900268E0FCED6C6018742E2FF597
:100894008274023EF583E0FF900269E0FEEF6E6031
:1008A4000302095490027FE0FF64056029EF339549
:1008B400E0FE74332FF58274023EF583E0FF90026C
:1008C4007EE0FD3395E0FC742E2DF58274023CF538
:1008D40083E0D39F402490027FE0D36480948240DD
:1008E400199003337401F0A37402F0A3742EF07B07
:1008F400017A02797E7D01020A65900280E0FF643C
:10090400056029EF3395E0FE74382FF58274023EBA
:10091400F583E0FF90027EE0FD3395E0FC742E2D1C
:10092400F58274023CF583E0D39F4024900280E07A
:10093400D36480948240199003337401F0A3740249
:10094400F0A3742EF07B017A02797E7D02020A659F
:1009540090027EE0FF3395E0FE742E2FF582740240
:100964003EF583E0FD90027AE0FCED6C604B742E62
:100974002FF58274023EF583E0FF90027BE0FEEFE8
:100984006E603690027EE0FF3395E0FE742E2FF504
:100994008274023EF583E0FD90027CE0FCED6C6025
:1009A40018742E2FF58274023EF583E0FF90027DC9
:1009B400E0FEEF6E6003020A6A900283E0FF6405C2
:1009C4006029EF3395E0FE74472FF58274023EF5FB
:1009D40083E0FF90027EE0FD3395E0FC742E2DF55C
:1009E4008274023CF583E0D39F4023900283E0D3DA
:1009F4006480948240189003337401F0A37402F06D
:100A0400A3742EF07B017A02797E7D0580539002D7
:100A140084E0FF64056029EF3395E0FE744C2FF504
:100A24008274023EF583E0FF90027EE0FD3395E0A0
:100A3400FC742E2DF58274023CF583E0D39F40268E
:100A4400900284E0D364809482401B900333740149
:100A5400F0A37402F0A3742EF07B017A02797E7DF8
:100A640006E4FF0210E790027FE0FFC364809485F0
:100A74004003020B24A3E0FEC36480948540030278
:100A84000B24EEFD3395E0FC74382DF58274023CA2
:100A9400F583E0FEEFFD3395E0FC74332DF58274AD
:100AA400023CF583E0D39E4026900280E0D364802C
:100AB4009481401B9003337401F0A37402F0A37477
:100AC4002EF07B017A02797E7D027F010210E7908D
:100AD400027FE0FFFD3395E0FC74332DF582740250
:100AE4003CF583E0FE900280E0FD3395E0FC743831
:100AF4002DF58274023CF583E0D39E4023D3EF644A
:100B0400809481401B9003337401F0A37402F0A31A
:100B1400742EF07B017A02797E7D017F020210E758
:100B240090027FE0FFC3648094854003020BDCA342
:100B3400E0C3648094854003020BDC90027EE0FEF7
:100B4400648094814042EEFD3395E0FC742E2DF5D3
:100B54008274023CF583E0FEEFFD3395E0FC7433D0
:100B64002DF58274023CF583E0D39E401B90033341
:100B74007401F0A37402F0A3742EF07B017A02795D
:100B84007EE4FD7F010210E790027EE0FFD36480E3
:100B940094814044EF3395E0FE742E2FF582740265
:100BA4003EF583E0FF900280E0FD3395E0FC74386D
:100BB4002DF58274023CF583E0D39F401B900333F0
:100BC4007401F0A37402F0A3742EF07B017A02790D
:100BD4007EE4FD7F020210E7900065E06435600367
:100BE400020654900286E004F0E0C39464400B12C1
:100BF40054E81248C97F34124A4C900283E0FFC380
:100C0400648094855044900285E0FD3395E0FC7443
:100C1400782DF58274023CF583E0FEEFFD3395E018
:100C2400FC74472DF58274023CF583E0B5061B90F5
:100C340003337401F0A37402F0A3742EF07B017AE1
:100C440002797E7D077F050210E7900284E0FFC3EE
:100C5400648094855042A3E0FD3395E0FC74782DC4
:100C6400F58274023CF583E0FEEFFD3395E0FC74FD
:100C74004C2DF58274023CF583E0B5061B900333DA
:100C84007401F0A37402F0A3742EF07B017A02794C
:100C94007E7D077F060210E7900282E0FFC3648036
:100CA40094854003020D36900285E0FD3395E0FC07
:100CB40074782DF58274023CF583E0FEEFFD3395E4
:100CC400E0FC74422DF58274023CF583E0B5061B0A
:100CD4009003337401F0A37402F0A3742EF07B012B
:100CE4007A02797E7D077F040210E7900281E0FF9B
:100CF4003395E0FE74642FF58274023EF583E0FFC1
:100D0400900282E0FD3395E0FC74422DF58274027A
:100D14003CF583E0B5071B9003337401F0A3740220
:100D2400F0A3742EF07B017A02797E7D037F0402A6
:100D340010E7900282E0FFC3648094854003020FB1
:100D440073EF3395E0FE74422FF58274023EF5830F
:100D5400E0FD90027AE0FCED6C604B74422FF5826A
:100D640074023EF583E0FF90027BE0FEEF6E603696
:100D7400900282E0FF3395E0FE74422FF582740204
:100D84003EF583E0FD90027CE0FCED6C601874425B
:100D94002FF58274023EF583E0FF90027DE0FEEFC2
:100DA4006E6003020E5A900283E0FF64056029EF2F
:100DB4003395E0FE74472FF58274023EF583E0FF1D
:100DC400900282E0FD3395E0FC74422DF5827402BA
:100DD4003CF583E0D39F4026900283E0D364809463
:100DE40082401B9003337401F0A37402F0A3742EA9
:100DF400F07B017A02797E7D057F040210E7900280
:100E040084E0FF64056029EF3395E0FE744C2FF510
:100E14008274023EF583E0FF900282E0FD3395E0A8
:100E2400FC74422DF58274023CF583E0D39F402686
:100E3400900284E0D364809482401B900333740155
:100E4400F0A37402F0A3742EF07B017A02797E7D04
:100E5400067F040210E7900282E0FF3395E0FE74FF
:100E6400422FF58274023EF583E0FD900266E0FCB9
:100E7400ED6C604B74422FF58274023EF583E0FF03
:100E8400900267E0FEEF6E6036900282E0FF3395D9
:100E9400E0FE74422FF58274023EF583E0FD900279
:100EA40068E0FCED6C601874422FF58274023EF524
:100EB40083E0FF900269E0FEEF6E6003020F73901F
:100EC400027FE0FF64056029EF3395E0FE74332F61
:100ED400F58274023EF583E0FF900282E0FD3395D3
:100EE400E0FC74422DF58274023CF583E0D39F400C
:100EF4002690027FE0D364809482401B9003337475
:100F040001F0A37402F0A3742EF07B017A02797EBF
:100F14007D017F040210E7900280E0FF64056029F0
:100F2400EF3395E0FE74382FF58274023EF583E0CA
:100F3400FF900282E0FD3395E0FC74422DF582744B
:100F4400023CF583E0D39F4026900280E0D3648086
:100F54009482401B9003337401F0A37402F0A374D1
:100F64002EF07B017A02797E7D027F040210E790E5
:100F74000283E0FFC364809485400302102DA3E044
:100F8400FEC364809485400302102DEEFD3395E08A
:100F9400FC744C2DF58274023CF583E0FEEFFD33C6
:100FA40095E0FC74472DF58274023CF583E0D39EF2
:100FB4004026900284E0D364809481401B900333E4
:100FC4007401F0A37402F0A3742EF07B017A027909
:100FD4007E7D067F050210E7900283E0FFFD3395D6
:100FE400E0FC74472DF58274023CF583E0FE900228
:100FF40084E0FD3395E0FC744C2DF58274023CF5DD
:1010040083E0D39E4023D3EF64809481401B9003FC
:10101400337401F0A37402F0A3742EF07B017A02FE
:10102400797E7D057F060210E7900283E0FFC364AA
:101034008094854003020654A3E0C36480948540F1
:1010440003020654900282E0FE648094814041EEE3
:10105400FD3395E0FC74422DF58274023CF583E087
:10106400FEEFFD3395E0FC74472DF58274023CF5E8
:1010740083E0D39E401A9003337401F0A37402F00A
:10108400A3742EF07B017A02797E7D047F05805360
:10109400900282E0FFD3648094815003020654EFEF
:1010A4003395E0FE74422FF58274023EF583E0FF2F
:1010B400900284E0FD3395E0FC744C2DF5827402BB
:1010C4003CF583E0D39F500302065490033374012C
:1010D400F0A37402F0A3742EF07B017A02797E7D72
:0910E400047F061210EE0206540E
:0110ED0022E0
:0548C900EF14FD7F2D3E
:1048CE00900346EDF0900345EFF0642F6003024A2B
:1048DE0000A3E0B408004003024A4B9048F0F828C9
:1048EE00287302490802492502494202495E0249DB
:1048FE007A02499C0249BE0249E0900064E0B4404D
:10490E0009A3E064347003024A4B900065E0B435AD
:10491E0003124D040249FB900064E0B43F09A3E08A
:10492E0064347003024A4B900065E0B43503124DB7
:10493E00040249DC900064E0B43D09A3E0643470E5
:10494E0003024A4B900065E0B43503124D04805CBF
:10495E00900064E0B43C09A3E064347003024A4B57
:10496E00900065E0B43503124D04801E900064E0A3
:10497E00B43C09A3E064357003024A4B900065E035
:10498E00B434077D357F3E124D087F3C8061900028
:10499E0064E0B43D09A3E064357003024A4B900015
:1049AE0065E0B434077D357F3E124D087F3D803F74
:1049BE00900064E0B43F09A3E064357003024A4BF3
:1049CE00900065E0B434077D357F3E124D087F3F81
:1049DE00801D900064E0B44006A3E06435605E90F4
:1049EE000065E0B434077D357F3E124D087F4002EE
:1049FE004E4B900345E0642D7043A3E014600F14FA
:104A0E00601014601114601224047012801B7F4811
:104A1E0080287F4A80247F4C80207F4E801C90030C
:104A2E0046E0C36480948050047F46800D90034618
:0E4A3E00E0D36480948540057F4E124BAA227F
:1010EE0090032EEFF0A3EDF0A3EBF0A3EAF0A3E94B
:0110FE00F001
:1010FF001223FAFF9000011224139002E8F09000DF
:10110F00021224139002E9F09000031224139002AC
:10111F00EAF09000041224139002EBF090000512F5
:10112F0024139002ECF09000061224139002EDF0BD
:10113F00900007122413125521900336EFF09003FD
:10114F002EE0FF600E6401600AEF64026005EF6439
:10115F0003703D900065E064347028900330E0FB2D
:10116F00A3E0FAA3E0F91223FAFF9000011224136F
:10117F009002E8F09000021224139002E9F0900020
:10118F00038059900065E064356003021255805C5E
:10119F0090032EE0FF64046012EF6405600DEF64AE
:1011AF00066008EF64076003021255900065E06463
:1011BF00357031900330E0FBA3E0FAA3E0F9900023
:1011CF0004122413FF9000051224139002E8F090EC
:1011DF0000061224139002E9F090000712241390D6
:1011EF0002EA805C900065E06434705A900330E04E
:1011FF00FBA3E0FAA3E0F91223FAFF9000011224F7
:10120F00139002E8F09000021224139002E9F0907C
:10121F0000031224139002EAF0900004122413909A
:10122F0002EBF09000051224139002ECF0900006F0
:10123F001224139002EDF09000071224139002EE87
:10124F001255241248C990032EE0FD7F2F1248CE6D
:10125F00900330E0FBA3E0FAA3E0F990032EE0F552
:10126F0082758300122413FD7F2D1248CE7F5012FA
:10127F00563D90032EE0FEB408004003021DD390AC
:10128F001295F82828730212AD0213A7021508024F
:10129F0016450217B5021925021A62021BEA9003BE
:1012AF002FE0FD14B407004003021DD39012C9753F
:1012BF00F003A4C58325F0C583730212DE0212F773
:1012CF000212F902132402134F02135102137C90DE
:1012DF000336E02402FFC007900330E0FBA3E0FADF
:1012EF00A3E0F98E820213ED8058900336E02402BA
:1012FF00FFC007900330E0FBA3E0FAA3E0F99003EF
:10130F002EE0F582758300122413049002E8F0900A
:10131F00000102188A900336E02402FFC0079003F1
:10132F0030E0FBA3E0FAA3E0F990032EE0F582751D
:10133F008300122413049002E8F090000102171D9D
:10134F008000900336E02402FFC007900330E0FBDB
:10135F00A3E0FAA3E0F990032EE0F5827583001263
:10136F002413049002E8F0900001021B469003360C
:10137F00E02402FFC007900330E0FBA3E0FAA3E0F4
:10138F00F990032EE0F58275830012241304900266
:10139F00E8F09000010217A890032FE0FDB40800B9
:1013AF004003021DD39013BBF82828730213D302F6
:1013BF001DD30213FD02142B0214560214810214C2
:1013CF00AF0214DD900336E02402FFC00790033014
:1013DF00E0FBA3E0FAA3E0F990032EE0F58275831A
:1013EF0000122413049002E8F08D82021DB79003BF
:1013FF0036E02402FFC007900330E0FBA3E0FAA31E
:10140F00E0F990032EE0F582758300122413049007
:10141F0002E8F090032FE0F582021DB7900336E04B
:10142F002402FFC007900330E0FBA3E0FAA3E0F92A
:10143F0090032EE0F582758300122413049002E8C6
:10144F00F0900002021B46900336E02402FFC00713
:10145F00900330E0FBA3E0FAA3E0F990032EE0F550
:10146F0082758300122413049002E8F090000502A5
:10147F001B46900336E02402FFC007900330E0FBC9
:10148F00A3E0FAA3E0F990032EE0F5827583001232
:10149F002413049002E8F090032FE0F582021DB7A9
:1014AF00900336E02402FFC007900330E0FBA3E077
:1014BF00FAA3E0F990032EE0F5827583001224134E
:1014CF00049002E8F090032FE0F582021DB790031D
:1014DF0036E02402FFC007900330E0FBA3E0FAA33D
:1014EF00E0F990032EE0F582758300122413049027
:1014FF0002E8F0900006021B4690032FE0FDB408AF
:10150F00004003021DD390151CF8282873021534D0
:10151F00021537021DD30215650215930215BE027F
:10152F0015EC02161A021A8E900336E02402FFC041
:10153F0007900330E0FBA3E0FAA3E0F990032EE05D
:10154F00F582758300122413049002E8F090032FA4
:10155F00E0F582021DB7900336E02402FFC007902A
:10156F000330E0FBA3E0FAA3E0F990032EE0F5824D
:10157F00758300122413049002E8F090032FE0F516
:10158F0082021DB7900336E02402FFC0079003309C
:10159F00E0FBA3E0FAA3E0F990032EE0F582758358
:1015AF0000122413049002E8F0900005021B4690ED
:1015BF000336E02402FFC007900330E0FBA3E0FAFC
:1015CF00A3E0F990032EE0F5827583001224130433
:1015DF009002E8F090032FE0F582021DB7900336DA
:1015EF00E02402FFC007900330E0FBA3E0FAA3E082
:1015FF00F990032EE0F582758300122413049002F4
:10160F00E8F090032FE0F582021DB7900336E02437
:10161F0002FFC007900330E0FBA3E0FAA3E0F990CC
:10162F00032EE0F582758300122413049002E8F074
:10163F00900006021B4690032FE0FDB40800400304
:10164F00021DD3901659F828287302167102169CA2
:10165F000216C7021DD30216F502172A02175502EA
:10166F001780900336E02402FFC007900330E0FBA1
:10167F00A3E0FAA3E0F990032EE0F5827583001240
:10168F002413049002E8F0900002021C3B900336F2
:10169F00E02402FFC007900330E0FBA3E0FAA3E0D1
:1016AF00F990032EE0F58275830012241304900243
:1016BF00E8F0900002021B46900336E02402FFC0C0
:1016CF0007900330E0FBA3E0FAA3E0F990032EE0CC
:1016DF00F582758300122413049002E8F090032F13
:1016EF00E0F582021DB7900336E02402FFC0079099
:1016FF000330E0FBA3E0FAA3E0F990032EE0F582BC
:10170F00758300122413049002E8F0900002122453
:10171F00139002E9F0900005021CF3900336E024C9
:10172F0002FFC007900330E0FBA3E0FAA3E0F990BB
:10173F00032EE0F582758300122413049002E8F063
:10174F00900002021B46900336E02402FFC0079070
:10175F000330E0FBA3E0FAA3E0F990032EE0F5825B
:10176F00758300122413049002E8F0900002021B0C
:10177F0046900336E02402FFC007900330E0FBA33E
:10178F00E0FAA3E0F990032EE0F5827583001224AE
:10179F0013049002E8F09000021224139002E9F073
:1017AF00900006021CF390032FE0FDB408004003E5
:1017BF00021DD39017C9F82828730217E102180CDD
:1017CF00021837021862021DD30218970218C502B9
:1017DF0018F0900336E02402FFC007900330E0FBBF
:1017EF00A3E0FAA3E0F990032EE0F58275830012CF
:1017FF002413049002E8F0900005021C3B9003367E
:10180F00E02402FFC007900330E0FBA3E0FAA3E05F
:10181F00F990032EE0F582758300122413049002D1
:10182F00E8F0900005021B46900336E02402FFC04B
:10183F0007900330E0FBA3E0FAA3E0F990032EE05A
:10184F00F582758300122413049002E8F0900005CE
:10185F00021B46900336E02402FFC007900330E0DE
:10186F00FBA3E0FAA3E0F990032EE0F58275830065
:10187F00122413049002E8F0900005122413900232
:10188F00E9F0900002021CF3900336E02402FFC03F
:10189F0007900330E0FBA3E0FAA3E0F990032EE0FA
:1018AF00F582758300122413049002E8F090032F41
:1018BF00E0F582021DB7900336E02402FFC00790C7
:1018CF000330E0FBA3E0FAA3E0F990032EE0F582EA
:1018DF00758300122413049002E8F0900005021B98
:1018EF0046900336E02402FFC007900330E0FBA3CD
:1018FF00E0FAA3E0F990032EE0F58275830012243D
:10190F0013049002E8F09000051224139002E9F0FE
:10191F00900006021CF390032FE0FDB40800400373
:10192F00021DD3901939F82828730219510219543E
:10193F000219820219B00219DB021DD3021A090221
:10194F001A37021A8E900336E02402FFC007900365
:10195F0030E0FBA3E0FAA3E0F990032EE0F58275E7
:10196F008300122413049002E8F090032FE0F58215
:10197F00021DB7900336E02402FFC007900330E04A
:10198F00FBA3E0FAA3E0F990032EE0F58275830044
:10199F00122413049002E8F090032FE0F582021D49
:1019AF00B7900336E02402FFC007900330E0FBA39B
:1019BF00E0FAA3E0F990032EE0F58275830012247C
:1019CF0013049002E8F0900002021B46900336E0E9
:1019DF002402FFC007900330E0FBA3E0FAA3E0F975
:1019EF0090032EE0F582758300122413049002E811
:1019FF00F090032FE0F582021DB7900336E024022A
:101A0F00FFC007900330E0FBA3E0FAA3E0F99003D7
:101A1F002EE0F582758300122413049002E8F090F3
:101A2F00032FE0F582021DB7900336E02402FFC0BA
:101A3F0007900330E0FBA3E0FAA3E0F990032EE058
:101A4F00F582758300122413049002E8F0900006CB
:101A5F00021B4690032FE0FDB408004003021DD384
:101A6F00901A76F8282873021A8E021AC2021AF0F8
:101A7F00021B1E021B56021B8E021DD3021BBC90A3
:101A8F000336E02402FFC007900330E0FBA3E0FA27
:101A9F00A3E0F990032EE0F582758300122413045E
:101AAF009002E8F09000011224139002E9F08D8269
:101ABF00021D81900336E02402FFC007900330E03F
:101ACF00FBA3E0FAA3E0F990032EE0F58275830003
:101ADF00122413049002E8F090032FE0F582021D08
:101AEF00B7900336E02402FFC007900330E0FBA35A
:101AFF00E0FAA3E0F990032EE0F58275830012243B
:101B0F0013049002E8F090032FE0F582021DB790C6
:101B1F000336E02402FFC007900330E0FBA3E0FA96
:101B2F00A3E0F990032EE0F58275830012241304CD
:101B3F009002E8F09000021224139002E9F0900353
:101B4F002FE0F582021D81900336E02402FFC007CB
:101B5F00900330E0FBA3E0FAA3E0F990032EE0F549
:101B6F0082758300122413049002E8F0900005128E
:101B7F0024139002E9F090032FE0F582021D81906B
:101B8F000336E02402FFC007900330E0FBA3E0FA26
:101B9F00A3E0F990032EE0F582758300122413045D
:101BAF009002E8F090032FE0F582021DB790033604
:101BBF00E02402FFC007900330E0FBA3E0FAA3E0AC
:101BCF00F990032EE0F5827583001224130490021E
:101BDF00E8F090032FE0F582021DB790032FE0FD90
:101BEF00B407004003021DD3901BFEF82828730290
:101BFF001C13021C51021C89021CC1021D02021D72
:101C0F004C021D8C900336E02402FFC00790033076
:101C1F00E0FBA3E0FAA3E0F990032EE0F5827583D1
:101C2F0000122413049002E8F0900006122413907F
:101C3F0002E9F09000011224139002EAF08D820263
:101C4F001D41900336E02402FFC007900330E0FBF4
:101C5F00A3E0FAA3E0F990032EE0F582758300125A
:101C6F002413049002E8F09000061224139002E966
:101C7F00F090032FE0F582021D81900336E02402DD
:101C8F00FFC007900330E0FBA3E0FAA3E0F9900355
:101C9F002EE0F582758300122413049002E8F09071
:101CAF0000061224139002E9F090032FE0F5820250
:101CBF001D81900336E02402FFC007900330E0FB44
:101CCF00A3E0FAA3E0F990032EE0F58275830012EA
:101CDF002413049002E8F09000061224139002E9F6
:101CEF00F09000021224139002EAF090032FE0F517
:101CFF0082803F900336E02402FFC007900330E05C
:101D0F00FBA3E0FAA3E0F990032EE0F582758300C0
:101D1F00122413049002E8F090000512241390028D
:101D2F00E9F09000061224139002EAF090032FE0DE
:101D3F00F5827583001224139002EB8074900336A2
:101D4F00E02402FFC007900330E0FBA3E0FAA3E01A
:101D5F00F990032EE0F5827583001224130490028C
:101D6F00E8F09000061224139002E9F090032FE0A0
:101D7F00F5827583001224139002EA8034900336A3
:101D8F00E02402FFC007900330E0FBA3E0FAA3E0DA
:101D9F00F990032EE0F5827583001224130490024C
:101DAF00E8F090032FE0F582758300122413900260
:101DBF00E9F0A37482F0D007125529EF24FEFD7FBE
:101DCF002D1248CE90032FE0FD7F2F1248CE9003A7
:101DDF0030E0FBA3E0FAA3E0F990032FE0F5827562
:101DEF0083001224131248CA7F5112563D900330BC
:101DFF00E0FBA3E0FAA3E0F990032EE0F5827583F0
:101E0F0000122413FD3395E0FC90032EE075F005CE
:101E1F00A4FF900333E0FBA3E0FAA3E02FF9EA3528
:101E2F00F0FAE92DF9EA3CFA1223FAFCC004900308
:101E3F0030E0FBA3E0FAA3E0F990032FE0F5827501
:101E4F008300122413FF3395E0FEEF24FFFDEE34E1
:101E5F00FFFC90032FE075F005A4FF900333E0FB28
:101E6F00A3E0FAA3E02FF9EA35F0FAE92DF9EA3CFD
:101E7F00FAD0E0122473900330E0FBA3E0FAA3E062
:101E8F00F990032EE0F582758300122413FD33952C
:101E9F00E0FC90032EE075F005A4FF900333E0FB08
:101EAF00A3E0FAA3E02FF9EA35F0FAE92DF9EA3CBD
:101EBF00FAE4122473900330E0FBA3E0FAA3E0F9F5
:101ECF0090032EE0F5827583007401122440900375
:0C1EDF002FE0F58275830074FF022440A0
:10509E007F5112563D7F46124BAA7F3C124E4B90CB
:1050AE000065E0643560057F35124A4C7D3C7F0219
:1050BE0012457D7D287F5A12546D7D3C7F0112452D
:1050CE007D7D287F6402515C3084153083122087E9
:1050DE000F20860C208509208206208103308074E3
:1050EE0020870920860620850320831B7DE27F2AE8
:1050FE00123A947D157F2C7E011255697DEC7F2925
:10510E00123A947DE28025208209208106208003B8
:10511E002084377DE27F2A123A947D157F2C7E0102
:10512E001255697DE27F29123A947DE37F28123A67
:10513E00947D157F2C7E011255697DE27F2A123AED
:10514E00947D157F2C7E011255697D287FC8123CF7
:0B515E00C90250D6E4FD7F2A023A94FB
:1056F5007DE77F2A123A941255637DD07F29123AAD
:10570500947DEC7F28123A947D167F037E00125516
:10571500697DDD7F2A123A94125563E4FD7F2A02E2
:025725003A94B4
:10516900900287EFF0A3EDF0A3EBF0E4F5977593C8
:10517900FFF594F5917592FC7595F075960FD2A18E
:10518900D2A3C2DEC2971258B1D2991258C412588A
:105199008512589BD28CD28EE4F51FF51EF51DF5AC
:1051A9001CFE7F40FD7B017A0079001226EC7E010E
:1051B9007F867D007B017A0079661226ECE49001F6
:1051C900F0F0A37432F0900287E0900059F0900259
:1051D90088E090005AF0900289E0900061F0900216
:1051E9008AE0900062F090028BE0900063F09002F8
:1051F9008CE0900064F090028DE0900065F0E490FE
:105209000043F0FD7F2B123A94E4FD7F2C123A946F
:10521900E4FD7F2D123A94E4FD7F2E123A94E4FDC9
:085229007F2A123A9402583763
:10567F00C2AFE4900043F0FD7F2B123A94E4FD7F1C
:10568F002C123A94E4FD7F2D123A94E4FD7F2E12F2
:10569F003A94E4FD7F2A123A9490028A74FFF0A3A1
:1056AF007458F0A374D3F07BFF7A5879CF122CDAA9
:0256BF0080FE6B
:101EEB00EC4D6011E8497017ED33EC3304600DE4F1
:101EFB00FCFFFEFD22E933E8330470F802209B124D
:101F0B00206658046009E4CC24815006285009024D
:101F1B0020A52840030220A2C0E0EB4A7044B98000
:101F2B0006D0E0FB022091EF4E701CBD8008EBFF4A
:101F3B00EAFEE9FD80EBE98DF0A4FEE5F0021FD48B
:101F4B00E9CDF9EAFEEBFFEF89F0A4FCE5F0CE89D1
:101F5B00F0A42EFFE435F0CD89F0A42DFEE435F08E
:101F6B008067EF4E7005BD80D780C3EF8BF0A4ACBC
:101F7B00F0EE8BF0A42CFCE435F0F8EF8AF0A42CF7
:101F8B00E5F038FCE433CB8DF0A42CFCE5F03BF80A
:101F9B00EE8AF0A42CFCE5F038F8E433CF89F0A4FA
:101FAB002CFCE5F038CF3400CE89F0A42FFFE5F000
:101FBB003EFEE433C98DF0A42EFEE5F039CD8AF058
:101FCB00A42FFFE5F03EFEE43DFD33D0E0FB5007D0
:101FDB000BBB000F0220A5EC2CFCEF33FFEE33FE06
:061FEB00ED33FD02207D34
:101FF10075F020800E75F010800575F0087D007E6B
:10200100007F003392D530D50312263EEC334010C9
:10201100EF33FFEE33FEED33FDEC33FCD5F0ED2273
:0E202100E5F0247EA2D513CC92E7CDCEFF22AF
:10202F00EDD2E7CD33EC3392D524814006E4FFFEA9
:10203F00FDFC22FCE4CFCECDCC24E0501174FF8008
:10204F00EDC3CC13CCCD13CDCE13CECF13CF0470A5
:07205F00F030D5DE02263E41
:102C6F00E510248AF582E43402F583E00510229002
:102C7F00028730070390028AE475F0011226A6023C
:102C8F0023FA2000E97F2ED2008018EF540F2490F2
:102C9F00D43440D4FF30040BEF24BFB41A005003D8
:102CAF002461FFE511600215110514E5147002058A
:102CBF001330070E900287E475F0011226A6EF027B
:102CCF0024730257567403D2078003E4C207F5102A
:102CDF009002871226BDE4F511F513F514E5116086
:102CEF00077F20122CB280F57512FFC201C200C2FD
:102CFF0002C203C205C206C208122C7EFF700D303D
:102D0F0007057F00122CC3AF14AE1322B4255FC288
:102D1F00D5C204122C7EFF24D0B40A00501A75F0CD
:102D2F000A781130D50508B6FF0106C6A426F6208D
:102D3F00D5047002D20380D924CFB41A00EF500407
:102D4F00C2E5D204022FB5D20180C6D20080C0D214
:102D5F000280BCD2D580BAD20580B47F20122CB2AB
:102D6F002002077401B5110040F1122C6FFF122CD5
:102D7F00B2022CECD208D2068095122C6FFB122CCB
:102D8F006FFA122C6FF94A4B700679B37A307BFFCA
:102D9F0020022EE511602A7E008E82758300122498
:102DAF001360060EEE651270F0C2D5EBC0E0EAC0FC
:102DBF00E0E9C0E0EE123016D0E0F9D0E0FAD0E052
:102DCF00FB1223FAFF60AAEBC0E0EAC0E0E9C0E023
:102DDF00122CB2D0E02401F9D0E03400FAD0E0FB9D
:102DEF00E5120460DCD512D98087D20280A2122F9F
:102DFF00F860F7E5127001041220B0A912600DE51A
:102E0F0012600914F5121230A0EF60F3EA30E702F6
:102E1F00F404C3995079EAF425120430E701E4046D
:102E2F00F512800D122FF860C1EA0512251212203B
:102E3F00B0EA9002B6F030E701E4251204D512048F
:102E4F0020050114123016E4C0E01230A09002B633
:102E5F00E0601320E70714F0122C9A802204F0D0C0
:102E6F00E014C0E07F00122C9AE5126007122C913B
:102E7F001512800B300503122C91D0E0022CECD0F0
:102E8F00E00480C4122FF8609EE512041220B09067
:102E9F0002B6EAF0E51220050260010424041230A4
:012EAF00160C
:102EB00074FF04C0E01230A0122C9AE51220050223
:102EC0006003122C91D0E0B512E87F45122CA4903B
:102ED00002B6E07F2B30E7047F2DF404C0E0122C13
:102EE000B2D0E075F00A84C0F0122C9BD0E0122C16
:102EF0009B022CEC791080027908C206C208800877
:102F0000D2D5790A8004790AC2D5E512047002F597
:102F100012E4FAFDFEFF122C6FFC7B082001131255
:102F20002C6FFD7B1030000A122C6FFE122C6FFFED
:102F30007B20EC3382D592D55013C3E43000069F3A
:102F4000FFE49EFEE42001039DFDE49CFCE4CBF83D
:102F5000C201EC700CCFCECDCCE824F8F870F38031
:102F600017C3EF33FFEE33FEED33FDEC33FCEB33F1
:102F7000FB994002FB0FD8E9EB300105F8D0E0C423
:102F800048B201C0E00AEC4D4E4F78207B0070C281
:102F9000EAB5120040BCC0E0123018D0F0D0E020FA
:102FA0000104C4C0E0C4B201C0F0122C9BD0F0D523
:102FB000F0EB022CEC1226C62D89532EF4582D5A14
:102FC0004C2D56422EF84F2F00442F00492D6F43B1
:102FD0002F06552E33462E93452DFD4730D3502DC9
:102FE0005E2D2D622E2D852B2D66232D832030BC4A
:102FF0002A2D1E4800002D7DE512B4FF0375120630
:10300000122C6FFC122C6FFD122C6FFE122C6FFF16
:103010009002AF0220ED790AA2D5200314300509F1
:10302000B910020404B9080104A2D5200602500117
:10303000042002689202B511005034C0E07F2030B5
:1030400003197F30A20272067205500F12306FC250
:1030500002C206C205C2087F30800F300503E9C0F6
:10306000E0122CB2300503D0E0F9D0E0B511CC303D
:1030700005177F30B9100C122CB27F583004077F2F
:10308000788003B90803122CB23002057F2D022C80
:10309000B27F202008F87F2B2006F322920280CFF7
:1030A0007F00B40700500B24AFF582E43402F583AF
:1030B000E0FF22286E756C6C2900D201122C6F3053
:1030C00001F8C201781130D50108F6022D1E2D50ED
:1030D000434958122C6F2403B405004001E490309A
:1030E000CE93122CA3743A122CA3D20375110402AE
:0230F0002EF4BC
:10206600E9D2E7C933E833F892D5EDD2E7CD33ECC0
:0720760033FC5002B2D52239
:10207D00EC30E7100FBF000C0EBE00080DBD0004C4
:10208D000BEB6014A2D5EB13FCED92E7FD2274FF70
:10209D00FCFDFEFF22E480F8A2D574FF13FC7D80C9
:0320AD00E480EFDD
:1020B000F920E73624F950037907E4F42402FBE51C
:1020C00082158270021583DBF6E024FB501BE96069
:1020D00014E4F0E582158270021583E004F0B40A7E
:0D20E00008E4F0D9EE7401F00A22C2D52206
:1020ED00ED33EC3392D5FA602AB4FF33EDC2E77BC2
:1020FD00FF60067A217912E4227A21791B20D5041A
:10210D007A217916224E614E002B494E46002D49FB
:10211D004E4600E47A08F0A3DAFC7B00740722C077
:10212D0083C082ECC0E0EDC0E0EEC0E0EFC0E0EABD
:10213D0075F010A4CAABF075F04DA42BFBE435F08F
:10214D00FCEA2410FAEB34C5FBEC34D9FCEDC2E704
:10215D00FF75F056A4F42411C5F0F434C58FF0A426
:10216D002AE5F03BE43CF020E7141223BAD0E0FF5F
:10217D00D0E0FED0E0FDD0E0FC1222ED8014F4049E
:10218D001223BAD0E0FFD0E0FED0E0FDD0E0FC128B
:10219D001EEBD082D083E0FAEDD2E7CD33EC3324C1
:1021AD0082FBE4C3CF33CFCE33CECD33CD33DBF390
:1021BD007B0775F00A846004F0A31B0AE5F0F0A319
:1021CD008FF0740AA4FFACF08EF0740AA42CFEAC50
:1021DD00F050010C8DF0740AA42CFDE435F0F0A341
:0521ED00DBDE74072297
:1021F20002209BE86480F8E933E83360110460F060
:10220200ED33EC337009E8FCE9FDEAFEEBFF220452
:1022120060DED3EB9FEA9EE99DE8C2E78CF0C2F74D
:1022220095F0400CE8CCF8E9CDF9EACEFAEBCFFB19
:1022320012206685D0F05804700320D5B3E80470EC
:10224200075002B2D50220A592D5EC0460F7E4CC87
:10225200C0E0C398F8603B94186008400DD0E0FBE2
:1022620002207DE4FBFAC9FC8028E830E406E4C9D8
:10227200FBE4CAFCE830E305E4C9CACBFCE8540736
:102282006010F8C3E913F9EA13FAEB13FBEC13FC41
:10229200D8F130F52FC3E49CFCEF9BFFEE9AFEEDE4
:1022A20099FDD0E0FBEF4E4D4C701222DB03022071
:1022B200A2EC2CFCEF33FFEE33FEED33FDED30E705
:1022C200EB02207DEF2BFFEE3AFEED39FDD0E0FB75
:1022D20050130BBB00030220A5ED13FDEE13FEEF1E
:0822E20013FFEC13FC02207D48
:1022EA000220A5EC5D046005E85904700302209BF6
:1022FA00122066580460F6EC4860F2EC7004FDFEA9
:10230A00FF22C860DB2481C85009C39860025006C6
:10231A000220A29850CAF582E9294B4A7005AB827D
:10232A0002209175F0007C1A7880C3EF9BEE9AED3B
:10233A0099400DC3EF9BFFEE9AFEED99FDE842F03E
:10234A00DC23ACF0D0E0FFD0E0FED0E0FDAB822091
:10235A00E7101BEB60BAEC2CFCEF33FFEE33FEED1B
:10236A0033FD02207DE803F830E705C0F075F00080
:10237A00EF2FFFEE33FEED33FD40B830E7C280AAFF
:10238A003F8000004120000042C80000447A00005B
:10239A00461C400047C35000497424004B189680DD
:1023AA004CBEBC205A0E1BCA6753C21C749DC5AED4
:1023BA00FB60065407601C23231223E8EB543860A1
:1023CA00091223D41223E3121EEBECF8EDF9EEFA0C
:1023DA00EFCB22EB1223E380F1543803241C902321
:1023EA008AFE93FC0EEE93FD0EEE930ECE93FF2221
:1052E000025360E493A3F8E493A34003F68001F231
:1052F00008DFF48029E493A3F85407240CC8C333CF
:10530000C4540F4420C8834004F456800146F6DF9D
:10531000E4800B0102040810204080905727E47EAF
:10532000019360BCA3FF543F30E509541FFEE49392
:10533000A360010ECF54C025E060A840B8E493A359
:10534000FAE493A3F8E493A3C8C582C8CAC583CA84
:10535000F0A3C8C582C8CAC583CADFE9DEE780BE3C
:015755000053
:1023FA00BB010689828A83E0225002E722BBFE02E1
:09240A00E32289828A83E4932213
:10241300BB010CE58229F582E5833AF583E022507E
:1024230006E92582F8E622BBFE06E92582F8E222C8
:0D243300E58229F582E5833AF583E49322E2
:10244000BB010FF8E58229F582E5833AF583E028A0
:10245000F0225009C58229F8E58226F622BBFE0942
:10246000C58229F8E22582F222F8EA2583F583E97C
:032470009328228C
:10247300BB010689828A83F0225002F722BBFE0148
:02248300F32242
:10248500F8BB010DE58229F582E5833AF583E8F08D
:10249500225006E92582C8F622BBFE05E92582C839
:0224A500F22221
:1024A700EF8DF0A4A8F0CF8CF0A428CE8DF0A42E49
:0224B700FE2203
:1024B900BC000BBE0029EF8DF084FFADF022E4CC07
:1024C900F875F008EF2FFFEE33FEEC33FCEE9DECD0
:1024D900984005FCEE9DFE0FD5F0E9E4CEFD22ED16
:1024E900F8F5F0EE8420D21CFEADF075F008EF2F60
:1024F900FFED33FD4007985006D5F0F222C398FD51
:052509000FD5F0EA22ED
:10250E00C2D5EC30E709B2D5E4C39DFDE49CFCEEE8
:10251E0030E715B2D5E4C39FFFE49EFE1224B9C383
:10252E00E49DFDE49CFC80031224B930D507C3E47E
:06253E009FFFE49EFE2257
:10254400C5F0F8A3E028F0C5F0F8E5821582700222
:062554001583E038F022BF
:10255A00A3F8E0C5F025F0F0E58215827002158334
:06256A00E0C838F0E82291
:1025700075F008758200EF2FFFEE33FECD33CDCC22
:1025800033CCC58233C5829BED9AEC99E5829840A5
:102590000CF582EE9BFEED9AFDEC99FC0FD5F0D682
:1025A000E4CEFBE4CDFAE4CCF9A88222B800C1B9AC
:1025B0000059BA002DEC8BF084CFCECDFCE5F0CBEA
:1025C000F97818EF2FFFEE33FEED33FDEC33FCEB23
:1025D00033FB10D703994004EB99FB0FD8E5E4F9DE
:1025E000FA227818EF2FFFEE33FEED33FDEC33FCCB
:1025F000C933C910D7059BE99A4007EC9BFCE99ABF
:10260000F90FD8E0E4C9FAE4CCFB2275F010EF2F03
:10261000FFEE33FEED33FDCC33CCC833C810D70703
:102620009BEC9AE899400AED9BFDEC9AFCE899F83E
:0E2630000FD5F0DAE4CDFBE4CCFAE4C8F922D1
:0E263E00C3E49FFFE49EFEE49DFDE49CFC22AD
:10264C00EB9FF5F0EA9E42F0E99D42F0E89C45F0E4
:01265C00225B
:0C265D00ECF0A3EDF0A3EEF0A3EFF022F0
:10266900A8828583F0D083D0821226801226801218
:102679002680122680E473E493A3C583C5F0C5833D
:10268900C8C582C8F0A3C583C5F0C583C8C582C8BB
:01269900221E
:0C269A00A42582F582E5F03583F583224B
:1026A600F8E0FBA3A3E0F925F0F0E58215827002BD
:0726B6001583E0FA38F02261
:0926BD00EBF0A3EAF0A3E9F0221E
:1026C600D083D082F8E4937012740193700DA3A3A3
:1026D60093F8740193F5828883E4737402936860B7
:0626E600EFA3A3A380DFB7
:10575600EFB40A07740D125761740A309811A899AC
:10576600B8130CC2983098FDA899C298B811F630B3
:0757760099FDC299F599228B
:0858D800EF30E703F404FF22A6
:1026EC00EF4E6012EF60010EEDBB010B89828A8305
:1026FC00F0A3DFFCDEFA2289F05007F709DFFCA912
:0C270C00F022BBFEFCF309DFFCA9F02268
:00000001FF
