:03000000026A8B06
:0C6A8B00787FE4F6D8FD758122026AD203
:1063A5009002A87451F0A37446F0A37440F0A3744E
:1063B50035F07B32E4FD7F041268869002A87433C1
:1063C500F0A304F0A3E4F0A304F0A3740AF0A3740B
:1063D50001F0A37432F0A37435F0A3E4F0A37403C1
:1063E500F0A37407F0A37402F0A37432F0A374341D
:1063F500F0A3E4F0A37404F0A3740AF0A37403F00B
:10640500A37432F0A37434F0A37405F0A37435F0CB
:10641500A37433F07B047D057F01124E7B9000430E
:10642500742DF0A37428F0A3F07F6E1250CC126F78
:10643500377D157FC47E09126C967F6F1250CC1282
:106445006F377D157FC47E09126C967F701250CC14
:10645500126F377D157FC47E09126C967F711250BD
:10646500CC126F377D157FC47E09126C967F721230
:1064750050CC126F377D157FC47E09126C967F6EE6
:106485001250CC126F377D157FC47E09126C967F32
:106495006F1250CC126F377D157FC47E09126C9632
:1064A5007F701250CC126F377D157FC47E09126C38
:1064B500967F711250CC126F377D157FC47E0912FD
:1064C5006C967F721250CC126F377D157FC47E0992
:1064D500126C967F751250CC126F377D157FC47E76
:0764E50009126C96026D051F
:03000300020006F2
:0100060032C7
:03000B00026E87FB
:106E8700C0E0C0F0C083C082C0D075D008126DDFEB
:0B6E9700D0D0D082D083D0F0D0E03209
:03001B00026EA2D0
:106EA200C0E0C0F0C083C082C0D075D008126F7C31
:0B6EB200D0D0D082D083D0F0D0E032EE
:096F6B0025730A00456E64210043
:106D89006027021061A800C8003A03202D025802AA
:106D99000D020D021C048304420451041A06C7069D
:0E6DA90063001404B002BC07D007D0011B0029
:066C90007D167F017E006D
:106C96008E158F16ED24EB601D14603C2402705E89
:106CA600E5161516AE1570021515D39400EE940070
:106CB600404C000080EAE5161516AE157002151553
:086CC600D39400EE9400403667
:0E6CCE00000075100C7511A8D511FDD510FA37
:106CDC0080DEE5161516AE1570021515D39400EE70
:046CEC0094004014BC
:106CF00075122E7513997514F5D514FDD513FAD5A3
:026D000012F788
:026D020080DA35
:016D0400226C
:106F4D00438780759850438E04759CD9438E0143B9
:036F5D008E102271
:0B6F6000E4F5D8F5F9F5E975D9082231
:106EBD00EF75F019A4FFAEF07C007D0A1236778FC6
:0A6ECD00EA8FFA75DA42E4F5F222CA
:106ED700EF75F019A4FFAEF07C007D0A1236778FAC
:0A6EE700EB8FFB75DB42E4F5F322AC
:106F0B00438E805389F0438901758A20758CD1C2D9
:066F1B008DD2A9D2AF22C5
:106F2100538EBF53890F438910758BE0758DB1C2A4
:066F31008FD2ABD2AF22AB
:106DDF00758A20758CD1E51F2401F51FE4351EF54A
:106DEF001EE4351DF51DE4351CF51C900046E0B47E
:066DFF000B03123E4622C8
:076F7C00758BE0758DB12259
:0D000E00E4F5C7F5C5F5C675C380F5C4223D
:106E4A0075C78375C5018FC4EEF5C375C65A75C675
:0F6E5A00A57D147F0A7E00126C96AFC212000E47
:016E69002206
:106E290075C78375C5028FC4EEF5C3AF058FC275EB
:106E3900C65A75C6A57D147F0A7E00126C9602009B
:016E49000E3A
:106E6A0075C78375C5038FC4EEF5C375C65A75C653
:0D6E7A00A57D147F0A7E00126C9602000EAA
:106EF100D2B220B2FD7D157F147E00126C9630B2A5
:0A6F0100FD7D157F007E01026C96F5
:106886009002A5EFF0A3EDF0A3EBF0E4F597759376
:10689600FFF594F5917592FC7595F075960FD2A15A
:1068A600D2A3C2DEC297126F4DD299126F60126FD9
:1068B6000B126F21D28CD28EE4F51FF51EF51DF555
:1068C6001CFE7F40FD7B017A0079001238AA7E010A
:1068D6007FA47D0B7B017A0079661238AAE49002C8
:1068E6000EF0A37432F09002A5E0900059F09002E9
:1068F600A6E090005AF09002A7E0900061F09002A6
:10690600A8E0900062F09002A9E0900063F0900287
:10691600AAE0900064F09002ABE0900065F0E4908D
:106926000043F0FD7F2B125326E4FD7F2C125326E5
:10693600E4FD7F2D125326E4FD7F2E125326E4FD3F
:086946007F2A125326026EF1B4
:106D0500C2AFE4900043F0FD7F2B125326E4FD7FD4
:106D15002C125326E4FD7F2D125326E4FD7F2E12FF
:106D25005326E4FD7F2A1253269002A874FFF0A390
:106D3500746FF0A3746FF07BFF7A6F796B12440860
:026D450080FECE
:106D47009002A6EFF0900062E06F60359002A6E037
:106D5700B4510C7D9C7F2B12532630B30C80FB7DE6
:106D6700647F2B12532620B4FD7D157F147E0012FD
:106D77006C96E4FD7F2B1253269002A6E0900062EA
:026D8700F022F8
:106633009002A6EFF0900064E06F70030267699028
:1066430002A6E024C360231460691470030266FC8D
:106653001470030267442404600302675A7D647F55
:106663002C12532620B5FD02674E900064E024C22D
:10667300601A14602414602E2404600302675A7D98
:106683009C7F2C12532690021902673D7D647F2C58
:1066930012532690021B02673D7D647F2C12532602
:1066A30090022702673D7D647F2C12532690022BB4
:1066B30002673D900064E024C3601A24FE60221444
:1066C300602B2404600302675A7D9C7F2C1253269F
:1066D30090022180657D9C7F2C12532690021B80A3
:1066E300597D647F2C12532690021D804D7D647F5B
:1066F3002C1253269002238041900064E024C3604F
:106703001714602024FE60282404704B7D9C7F2C8A
:1067130012532690022980227D9C7F2C12532690AF
:10672300022580167D9C7F2C12532690021D800A21
:106733007D647F2C12532690021FE0FEA3E0FF80AE
:10674300117D9C7F2C12532620B6FD900218E0FF8A
:106753007E007D15126C96E4FD7F2C125326900269
:07676300A6E0900064F022A3
:10624B009002A6EFF0900063E06F70030263A4C2AC
:10625B00969002A6E024BAB409004003026395901D
:10626B00627875F003A4C58325F0C583730262932E
:10627B000262A20262BE0262DE0262FD02631C02C5
:10628B00633B02635A02637C7D647F2D125326C2EB
:10629B009620A4FD026388900063E0FF9002A6E0C5
:1062AB00D39F40057D9C0263727F4812624B7D64D5
:1062BB00026372900063E0FF9002A6E0C39F50045C
:1062CB007D6480027D9C7F2D125326C29620A5FDF6
:1062DB00026388900063E0FF9002A6E0D39F400921
:1062EB007F4812624B7D9C80077F4A12624B7D6414
:1062FB008075900063E0FF9002A6E0C39F50047D81
:10630B006480027D9C7F2D125326C29620A6FD80B1
:10631B006C900063E0FF9002A6E0D39F40097F4A98
:10632B0012624B7D9C80077F4C12624B7D648037E1
:10633B00900063E0FF9002A6E0C39F50047D648051
:10634B00027D9C7F2D125326C29620A7FD802E9096
:10635B000063E0FF9002A6E0D39F40097F4C1262DE
:10636B004B7D9C80027D647F2D12532690021680FC
:10637B000F7D9C7F2D125326D29620A4FD900214E4
:10638B00E0FEA3E0FF7D15126C96E4FD7F2D12530A
:0A639B00269002A6E0900063F022B5
:1060ED009002A6EFF0900065E0FE6F700302624A29
:1060FD00D2969002A6E024CD60581470030261A7D9
:10610D001470030261EE2403600302623BEE24CCA3
:10611D00602014602D2402600302623B7D9C7F2E63
:10612D00125326126C9020A5FD30A5FD20A5FD0271
:10613D00622E7D647F2E125326126C9020A5FD02D7
:10614D00622E7D9C7F2E125326126C9020A5FD028F
:10615D00622E900065E024CC602014602D24036035
:10616D000302623B7D647F2E125326126C9020A594
:10617D00FD30A5FD20A5FD02622E7D9C7F2E1253C4
:10618D0026126C9020A5FD02622E7D647F2E125387
:10619D0026126C9020A5FD02622E900065E024CDA4
:1061AD00601B24FE60262403600302623B7D9C7FFE
:1061BD002E125326126C9020A5FD02622E7D647F57
:1061CD002E125326126C9020A5FD80557D9C7F2E9E
:1061DD00125326126C9020A5FD30A5FD20A5FD8043
:1061ED0040900065E024CD60161460222402703EBC
:1061FD007D647F2E125326126C9020A5FD80227D8A
:10620D009C7F2E125326126C9020A5FD80137D6469
:10621D007F2E125326126C9020A5FD30A5FD20A5D2
:10622D00FD90022DE0FEA3E0FF7D15126C96E4FDBE
:0E623D007F2E1253269002A6E0900065F022FC
:0464EC007D347F3E3E
:1064F000900359EFF0A3EDF024CE603314604524EF
:10650000FE601804705C900065E024CE60091460A1
:106510000824FE704D803C803A803C900065E02469
:10652000CE6008146007147039802C802A80249073
:106530000065E024CD600B24FE6005047024801704
:106540008011800F900065E024CE600F24FD60076D
:1065500004700F7D9C80067D6480027D647F2E1216
:106560005326900359E0FF126633D296126C909036
:10657000035AE024CD60341460551460772403601E
:1065800003026623900065E024CC60151460172494
:1065900002600302662320A5FD30A5FD20A5FD8035
:1065A0007520A5FD807020A5FD806B900065E0241E
:1065B000CC60121460142403706920A5FD30A5FD81
:1065C00020A5FD805120A5FD804C20A5FD80479091
:1065D0000065E024CD600D24FE600E24037044208D
:1065E000A5FD803220A5FD802D20A5FD30A5FD2034
:1065F000A5FD8022900065E024CD600C14600E247F
:1066000002702020A5FD800E20A5FD800920A5FD9B
:1066100030A5FD20A5FD90022DE0FEA3E0FF7D1535
:10662000126C96E4FD7F2E12532690035AE09000E0
:0366300065F022F0
:094BBA0090033FEFF0A3EDF0FBC6
:104BC300A312382700000000900345123827000085
:104BD300FFFFE4900349F0A3F0A3F0900065E0FF2A
:104BE3006B7003024C81900340E024CD601C146081
:104BF3002E1460432403706EEF24CC600914600804
:104C030024027062802D803E8040900065E024CCB9
:104C130060091460082403704D803E802D80279026
:104C23000065E024CD600A24FE6008240370378009
:104C33001980137D9C8024900065E024CD600B14C3
:104C43006017240270207D6480027D9C7F2E1253A6
:104C53002690034A7401F0800D7D647F2E12532643
:104C630090034A7402F0E51F24E8FFE51E3403FEB7
:104C7300E4351DFDE4351CFC90034512381B900000
:104C830063E0FF90033FE0FE6F6016EEC39F5004A6
:104C93007D6480027D9C7F2D125326900349024E32
:104CA3004190005EE0700990005DE07003024E7A6F
:104CB300900349E0FB64016003024DD990033FE098
:104CC30024BAB409004003024E0D904CDB75F00387
:104CD300A4C58325F0C58373024CF6024D0A024D29
:104CE30025024D38024D4E024D61024D77024D8A29
:104CF300024DA5C2967D147F147E00126C9630A4DB
:104D030003024E0D024DB3C2967D147F147E001232
:104D13006C96900063E06446602F30A503024E0D4D
:104D2300807BC2967D147F147E00126C9630A5039F
:104D3300024E0D807BC2967D147F147E00126C960A
:104D430030A50630A603024E0D8052C2967D147F15
:104D5300147E00126C9630A603024E0D8052C2964A
:104D63007D147F147E00126C9630A60630A70302D2
:104D73004E0D8029C2967D147F147E00126C9630EE
:104D8300A703024E0D8029C2967D147F147E001264
:104D93006C9630A708900063E0644E706D90021625
:104DA3008011D2967D147F147E00126C9620A45A33
:104DB300900214E0FEA3E0FFEF251FFFEE351EFE79
:104DC300E4351DFDE4351CFC90034112381B9003B0
:104DD300497402F08034EBB40230AF1FAE1EAD1D38
:104DE300AC1C900341E0F8A3E0F9A3E0FAA3E0FBD5
:104DF300D312380A5014E4FD7F2D125326E4900396
:104E030049F090033FE0900063F0AF1FAE1EAD1D6D
:104E1300AC1C900345E0F8A3E0F9A3E0FAA3E0FBA0
:104E2300D312380A4003024CA490034AE0602CD208
:104E3300967D147F147E00126C9630A507A374012F
:104E4300F0024CA490034BE064016003024CA49075
:104E5300034AE014F0E4A3F0024CA4E4FD7F2E1215
:104E630053269003451238270000FFFF900340E0CC
:074E7300900065F0024CA461
:014E7A002215
:0B482000900331EFF0A3EDF0A3EBF0EC
:10482B00A31238270000000090033812382700002D
:10483B00FFFFE490033CF0A3F0A3F0C222900065CD
:10484B00E0FF6B70030248EB900333E024CD601C58
:10485B0014602E1460432403706EEF24CC60091493
:10486B00600824027062802D803E8040900065E0DD
:10487B0024CC60091460082403704D803E802D8089
:10488B0027900065E024CD600A24FE6008240370A5
:10489B0037801980137D9C8024900065E024CD60C7
:1048AB000B146017240270207D6480027D9C7F2E88
:1048BB0012532690033D7401F0800D7D647F2E1200
:1048CB00532690033D7402F0E51F24E8FFE51E34E8
:1048DB0003FEE4351DFDE4351CFC90033812381B38
:1048EB00900063E0FF900332E0FE6F6016EEC39F13
:1048FB0050047D6480027D9C7F2D12532690033CD7
:10490B00024B8090005EE0700F90005DE0700990AC
:10491B00033CE07003024BB990033CE024FE7003B0
:10492B00024A6A147003024AA3147003024AC514A4
:10493B007003024B1C24046003024B4C900332E0C7
:10494B0024BAB409004003024B4C90496375F00341
:10495B00A4C58325F0C5837302497E02499202499F
:10496B00AE0249C20249D80249EB024A01024A147B
:10497B00024A32C2967D147F147E00126C9630A4CC
:10498B0003024B4C024A43C2967D147F147E0012E5
:10499B006C96900063E06446603130A503024B4C8B
:1049AB00024A2DC2967D147F147E00126C9630A5A0
:1049BB0003024B4C024A43C2967D147F147E0012B5
:1049CB006C9630A50630A603024B4C8055C2967DE3
:1049DB00147F147E00126C9630A603024B4C805849
:1049EB00C2967D147F147E00126C9630A60630A7FB
:1049FB0003024B4C802CC2967D147F147E00126CEC
:104A0B009630A703024B4C802FC2967D147F147EE9
:104A1B0000126C9630A70B900063E0644E600302AB
:104A2B004B4C9002168014D2967D147F147E00128C
:104A3B006C9630A403024B4C900214E0FEA3E0FFF3
:104A4B00EF251FFFEE351EFEE4351DFDE4351CFC86
:104A5B0090033412381B90033C7402F0024B4CAFA2
:104A6B001FAE1EAD1DAC1C900334E0F8A3E0F9A300
:104A7B00E0FAA3E0FBD312380A4003024B4CE4FDEF
:104A8B007F2D125326E490033CF07403F090033215
:104A9B00E0900063F0024B4C900331E0B440047D96
:104AAB009C8009900331E0B43C077D647F2C12534A
:104ABB002690033C7404F0024B4C900331E0FBB4A2
:104ACB00402420B621900218E0FFEF251FFFE435AC
:104ADB001EFEE4351DFDE4351CFC90033412381B1F
:104AEB0090033C7405F0EB643C705620B553900278
:104AFB0018E0FFEF251FFFE4351EFEE4351DFDE436
:104B0B00351CFC90033412381B90033C7405F08069
:104B1B0030AF1FAE1EAD1DAC1C900334E0F8A3E00C
:104B2B00F9A3E0FAA3E0FBD312380A5014E4FD7F9B
:104B3B002C125326E490033CF0900331E090006478
:104B4B00F0AF1FAE1EAD1DAC1C900338E0F8A3E018
:104B5B00F9A3E0FAA3E0FBD312380A400302490E93
:104B6B0090033DE0602CD2967D147F147E00126C76
:104B7B009630A507A37401F002490E90033EE06442
:104B8B0001600302490E90033DE014F0E4A3F00230
:104B9B00490EE4FD7F2E125326900338123827005E
:0E4BAB0000FFFF900333E0900065F002490E1A
:014BB90022D9
:106B9A00E4F090029CE0FFA3E0900306F090029ECE
:106BAA00E0900307F090029FE0900308F09002A0A3
:106BBA00E0900309F09002A1E090030AF09002A28B
:106BCA00E090030BF09002A3E090030CF0A3748210
:016BDA00F0CA
:056BDB00900305EFF03E
:106BE000E0FF90032E7401F0A37403F0A37406F089
:106BF000800CEE6482601DEEC39F5002AF069003CE
:106C00002EE0FBA3E475F001123718A9F0FA123553
:046C1000B8FE80DE6C
:016C1400225D
:055DF500EF14FD7F2DFD
:105DFA0090035CEDF090035BEFF0642F6003025FA9
:105E0A002CA3E0B408004003025F77905E1CF828D8
:105E1A002873025E34025E51025E6E025E8A025E80
:105E2A00A6025EC8025EEA025F0C900064E0B4401B
:105E3A0009A3E064347003025F77900065E0B4352B
:105E4A00031264EC025F27900064E0B43F09A3E008
:105E5A0064347003025F77900065E0B4350312641E
:105E6A00EC025F08900064E0B43D09A3E06434707A
:105E7A0003025F77900065E0B435031264EC805C3E
:105E8A00900064E0B43C09A3E064347003025F77D5
:105E9A00900065E0B435031264EC801E900064E063
:105EAA00B43C09A3E064357003025F77900065E0B3
:105EBA00B434077D357F3E1264F07F3C80619000E8
:105ECA0064E0B43D09A3E064357003025F77900093
:105EDA0065E0B434077D357F3E1264F07F3D803F34
:105EEA00900064E0B43F09A3E064357003025F7771
:105EFA00900065E0B434077D357F3E1264F07F3F41
:105F0A00801D900064E0B44006A3E06435605E90B2
:105F1A000065E0B434077D357F3E1264F07F4002AD
:105F2A00663390035BE0642D7043A3E014600F14A2
:105F3A00601014601114601224047012801B7F48D0
:105F4A0080287F4A80247F4C80207F4E801C9003CB
:105F5A005CE0C36480948050047F46800D90035CAB
:0E5F6A00E0D36480948540057F4E12624B2286
:1021B60090034CEFF0A3EDF0A3EBF0A3EAF0A3E954
:0121C600F028
:1021C7001235B8FF9000011235D1900306F0900048
:1021D700021235D1900307F09000031235D1900316
:1021E70008F09000041235D1900309F09000051211
:1021F70035D190030AF09000061235D190030BF009
:102207009000071235D1126BD3900354EFF090036F
:102217004CE0FF600E6401600AEF64026005EF6442
:1022270003703D900065E06434702890034EE0FB36
:10223700A3E0FAA3E0F91235B8FF9000011235D1F7
:10224700900306F09000021235D1900307F090003A
:10225700038059900065E06435600302231D805CAC
:1022670090034CE0FF64046012EF6405600DEF64B7
:10227700066008EF6407600302231D900065E064B1
:1022870035703190034EE0FBA3E0FAA3E0F990002C
:10229700041235D1FF9000051235D1900306F09056
:1022A70000061235D1900307F09000071235D19040
:1022B7000308805C900065E06434705A90034EE038
:1022C700FBA3E0FAA3E0F91235B8FF90000112353D
:1022D700D1900306F09000021235D1900307F090D9
:1022E70000031235D1900308F09000041235D19005
:1022F7000309F09000051235D190030AF09000060B
:102307001235D190030BF09000071235D190030CD2
:10231700126BD6125DF590034CE0FD7F2F125DFA2C
:1023270090034EE0FBA3E0FAA3E0F990034CE0F53D
:10233700827583001235D1FD7F2D125DFA7F501211
:102347006D4790034CE0FEB408004003022E9B90BB
:10235700235DF828287302237502246F0225D00213
:10236700270D02287D0229ED022B2A022CB29003A9
:102377004DE0FD14B407004003022E9B9023917596
:10238700F003A4C58325F0C583730223A60223BFE8
:102397000223C10223EC02241702241902244490C9
:1023A7000354E02402FFC00790034EE0FBA3E0FACA
:1023B700A3E0F98E820224B58058900354E02402EA
:1023C700FFC00790034EE0FBA3E0FAA3E0F99003F8
:1023D7004CE0F5827583001235D104900306F09026
:1023E7000001022952900354E02402FFC007900322
:1023F7004EE0FBA3E0FAA3E0F990034CE0F5827509
:1024070083001235D104900306F09000010227E5FE
:102417008000900354E02402FFC00790034EE0FBC6
:10242700A3E0FAA3E0F990034CE0F582758300126C
:1024370035D104900306F0900001022C0E9003544E
:10244700E02402FFC00790034EE0FBA3E0FAA3E0FD
:10245700F990034CE0F5827583001235D10490039F
:1024670006F090000102287090034DE0FDB40800CB
:102477004003022E9B902483F828287302249B0292
:102487002E9B0224C50224F302251E02254902259C
:10249700770225A5900354E02402FFC00790034E5E
:1024A700E0FBA3E0FAA3E0F990034CE0F582758323
:1024B700001235D104900306F08D82022E7F90031F
:1024C70054E02402FFC00790034EE0FBA3E0FAA309
:1024D700E0F990034CE0F5827583001235D1049042
:1024E7000306F090034DE0F582022E7F900354E03F
:1024F7002402FFC00790034EE0FBA3E0FAA3E0F934
:1025070090034CE0F5827583001235D104900306E1
:10251700F0900002022C0E900354E02402FFC00743
:1025270090034EE0FBA3E0FAA3E0F990034CE0F53B
:10253700827583001235D104900306F090000502DE
:102547002C0E900354E02402FFC00790034EE0FBDB
:10255700A3E0FAA3E0F990034CE0F582758300123B
:1025670035D104900306F090034DE0F582022E7FEB
:10257700900354E02402FFC00790034EE0FBA3E062
:10258700FAA3E0F990034CE0F5827583001235D188
:1025970004900306F090034DE0F582022E7F90032E
:1025A70054E02402FFC00790034EE0FBA3E0FAA328
:1025B700E0F990034CE0F5827583001235D1049061
:1025C7000306F0900006022C0E90034DE0FDB408C0
:1025D700004003022E9B9025E4F82828730225FC6F
:1025E7000225FF022E9B02262D02265B022686026B
:1025F70026B40226E2022B56900354E02402FFC0C1
:102607000790034EE0FBA3E0FAA3E0F990034CE048
:10261700F5827583001235D104900306F090034DBF
:10262700E0F582022E7F900354E02402FFC007905A
:10263700034EE0FBA3E0FAA3E0F990034CE0F58238
:102647007583001235D104900306F090034DE0F531
:1026570082022E7F900354E02402FFC00790034EAE
:10266700E0FBA3E0FAA3E0F990034CE0F582758361
:10267700001235D104900306F0900005022C0E904D
:102687000354E02402FFC00790034EE0FBA3E0FAE7
:10269700A3E0F990034CE0F5827583001235D1046D
:1026A700900306F090034DE0F582022E7F900354CD
:1026B700E02402FFC00790034EE0FBA3E0FAA3E08B
:1026C700F990034CE0F5827583001235D10490032D
:1026D70006F090034DE0F582022E7F900354E0242C
:1026E70002FFC00790034EE0FBA3E0FAA3E0F990D6
:1026F700034CE0F5827583001235D104900306F090
:10270700900006022C0E90034DE0FDB40800400334
:10271700022E9B902721F828287302273902276465
:1027270002278F022E9B0227BD0227F202281D02D5
:102737002848900354E02402FFC00790034EE0FBB3
:10274700A3E0FAA3E0F990034CE0F5827583001249
:1027570035D104900306F0900002022D0390035434
:10276700E02402FFC00790034EE0FBA3E0FAA3E0DA
:10277700F990034CE0F5827583001235D10490037C
:1027870006F0900002022C0E900354E02402FFC0D2
:102797000790034EE0FBA3E0FAA3E0F990034CE0B7
:1027A700F5827583001235D104900306F090034D2E
:1027B700E0F582022E7F900354E02402FFC00790C9
:1027C700034EE0FBA3E0FAA3E0F990034CE0F582A7
:1027D7007583001235D104900306F090000212357C
:1027E700D1900307F0900005022DBB900354E0241D
:1027F70002FFC00790034EE0FBA3E0FAA3E0F990C5
:10280700034CE0F5827583001235D104900306F07E
:10281700900002022C0E900354E02402FFC00790A0
:10282700034EE0FBA3E0FAA3E0F990034CE0F58246
:102837007583001235D104900306F0900002022C34
:102847000E900354E02402FFC00790034EE0FBA361
:10285700E0FAA3E0F990034CE0F5827583001235A6
:10286700D104900306F09000021235D1900307F0CF
:10287700900006022DBB90034DE0FDB40800400315
:10288700022E9B902891F82828730228A90228D4A1
:102897000228FF02292A022E9B02295F02298D02A4
:1028A70029B8900354E02402FFC00790034EE0FBD1
:1028B700A3E0FAA3E0F990034CE0F58275830012D8
:1028C70035D104900306F0900005022D03900354C0
:1028D700E02402FFC00790034EE0FBA3E0FAA3E069
:1028E700F990034CE0F5827583001235D10490030B
:1028F70006F0900005022C0E900354E02402FFC05E
:102907000790034EE0FBA3E0FAA3E0F990034CE045
:10291700F5827583001235D104900306F090000507
:10292700022C0E900354E02402FFC00790034EE0F0
:10293700FBA3E0FAA3E0F990034CE0F5827583006E
:102947001235D104900306F09000051235D190039B
:1029570007F0900002022DBB900354E02402FFC051
:102967000790034EE0FBA3E0FAA3E0F990034CE0E5
:10297700F5827583001235D104900306F090034D5C
:10298700E0F582022E7F900354E02402FFC00790F7
:10299700034EE0FBA3E0FAA3E0F990034CE0F582D5
:1029A7007583001235D104900306F0900005022CC0
:1029B7000E900354E02402FFC00790034EE0FBA3F0
:1029C700E0FAA3E0F990034CE0F582758300123535
:1029D700D104900306F09000051235D1900307F05B
:1029E700900006022DBB90034DE0FDB408004003A4
:1029F700022E9B902A01F8282873022A19022A1C02
:102A0700022A4A022A78022AA3022E9B022AD1020C
:102A17002AFF022B56900354E02402FFC0079003BD
:102A27004EE0FBA3E0FAA3E0F990034CE0F58275D2
:102A370083001235D104900306F090034DE0F58230
:102A4700022E7F900354E02402FFC00790034EE05C
:102A5700FBA3E0FAA3E0F990034CE0F5827583004D
:102A67001235D104900306F090034DE0F582022E53
:102A77007F900354E02402FFC00790034EE0FBA3BE
:102A8700E0FAA3E0F990034CE0F582758300123574
:102A9700D104900306F0900002022C0E900354E03C
:102AA7002402FFC00790034EE0FBA3E0FAA3E0F97E
:102AB70090034CE0F5827583001235D1049003062C
:102AC700F090034DE0F582022E7F900354E024023C
:102AD700FFC00790034EE0FBA3E0FAA3E0F99003E1
:102AE7004CE0F5827583001235D104900306F0900F
:102AF700034DE0F582022E7F900354E02402FFC0CD
:102B07000790034EE0FBA3E0FAA3E0F990034CE043
:102B1700F5827583001235D104900306F090000604
:102B2700022C0E90034DE0FDB408004003022E9BDB
:102B3700902B3EF8282873022B56022B8A022BB8BB
:102B4700022BE6022C1E022C56022E9B022C84908E
:102B57000354E02402FFC00790034EE0FBA3E0FA12
:102B6700A3E0F990034CE0F5827583001235D10498
:102B7700900306F09000011235D1900307F08D8283
:102B8700022E49900354E02402FFC00790034EE051
:102B9700FBA3E0FAA3E0F990034CE0F5827583000C
:102BA7001235D104900306F090034DE0F582022E12
:102BB7007F900354E02402FFC00790034EE0FBA37D
:102BC700E0FAA3E0F990034CE0F582758300123533
:102BD700D104900306F090034DE0F582022E7F901A
:102BE7000354E02402FFC00790034EE0FBA3E0FA82
:102BF700A3E0F990034CE0F5827583001235D10408
:102C0700900306F09000021235D1900307F090036D
:102C17004DE0F582022E49900354E02402FFC007DD
:102C270090034EE0FBA3E0FAA3E0F990034CE0F534
:102C3700827583001235D104900306F090000512C7
:102C470035D1900307F090034DE0F582022E4990AD
:102C57000354E02402FFC00790034EE0FBA3E0FA11
:102C6700A3E0F990034CE0F5827583001235D10497
:102C7700900306F090034DE0F582022E7F900354F7
:102C8700E02402FFC00790034EE0FBA3E0FAA3E0B5
:102C9700F990034CE0F5827583001235D104900357
:102CA70006F090034DE0F582022E7F90034DE0FD84
:102CB700B407004003022E9B902CC6F82828730205
:102CC7002CDB022D19022D51022D89022DCA022E4D
:102CD70014022E54900354E02402FFC00790034EC1
:102CE700E0FBA3E0FAA3E0F990034CE0F5827583DB
:102CF700001235D104900306F09000061235D190EA
:102D07000307F09000011235D1900308F08D82027D
:102D17002E09900354E02402FFC00790034EE0FB06
:102D2700A3E0FAA3E0F990034CE0F5827583001263
:102D370035D104900306F09000061235D1900307B1
:102D4700F090034DE0F582022E49900354E02402EF
:102D5700FFC00790034EE0FBA3E0FAA3E0F990035E
:102D67004CE0F5827583001235D104900306F0908C
:102D770000061235D1900307F090034DE0F582026B
:102D87002E49900354E02402FFC00790034EE0FB56
:102D9700A3E0FAA3E0F990034CE0F58275830012F3
:102DA70035D104900306F09000061235D190030741
:102DB700F09000021235D1900308F090034DE0F532
:102DC70082803F900354E02402FFC00790034EE047
:102DD700FBA3E0FAA3E0F990034CE0F582758300CA
:102DE7001235D104900306F09000051235D19003F7
:102DF70007F09000061235D1900308F090034DE0DC
:102E0700F5827583001235D19003098074900354BD
:102E1700E02402FFC00790034EE0FBA3E0FAA3E023
:102E2700F990034CE0F5827583001235D1049003C5
:102E370006F09000061235D1900307F090034DE09D
:102E4700F5827583001235D19003088034900354BE
:102E5700E02402FFC00790034EE0FBA3E0FAA3E0E3
:102E6700F990034CE0F5827583001235D104900385
:102E770006F090034DE0F5827583001235D190037B
:102E870007F0A37482F0D007126BDBEF24FEFD7FFF
:102E97002D125DFA90034DE0FD7F2F125DFA90032E
:102EA7004EE0FBA3E0FAA3E0F990034DE0F582754D
:102EB70083001235D1125DF67F51126D4790034E94
:102EC700E0FBA3E0FAA3E0F990034CE0F5827583F9
:102ED700001235D1FD3395E0FC90034CE075F00509
:102EE700A4FF900351E0FBA3E0FAA3E02FF9EA3532
:102EF700F0FAE92DF9EA3CFA1235B8FCC004900360
:102F07004EE0FBA3E0FAA3E0F990034DE0F58275EC
:102F170083001235D1FF3395E0FEEF24FFFDEE3439
:102F2700FFFC90034DE075F005A4FF900351E0FB13
:102F3700A3E0FAA3E02FF9EA35F0FAE92DF9EA3C24
:102F4700FAD0E012363190034EE0FBA3E0FAA3E09B
:102F5700F990034CE0F5827583001235D1FD339566
:102F6700E0FC90034CE075F005A4FF900351E0FBF3
:102F7700A3E0FAA3E02FF9EA35F0FAE92DF9EA3CE4
:102F8700FAE412363190034EE0FBA3E0FAA3E0F92E
:102F970090034CE0F58275830074011235FE9003AF
:0C2FA7004DE0F58275830074FF0235FEDA
:105739007F3C1266337F40126633AF1FAE1EAD1D2C
:10574900AC1C90035512381B7F3C1266337F401204
:105759006633900355E0F8A3E0F9A3E0FAA3E0FB70
:10576900C3E51F9BFFE51E9AFEE51D99FDE51C9803
:10577900FC90035512381B900355E0FCA3E0FDA3F0
:10578900E0FEA3E0FFE41230B9E4FBFAF9783F1236
:105799002FB31230F790035512381B900355E0FCD4
:1057A900A3E0FDA3E0FEA3E0FFE41230B9E4FBFAB5
:1057B900F9783F122FB31230F7900223EEF0A3EFDE
:1057C900F0900221EEF0A3EFF0900355E0FCA3E086
:1057D900FDA3E0FEA3E0FFE41230B9E4FBFA79404F
:1057E900783F122FB31230F7900229EEF0A3EFF0B1
:1057F900900355E0FCA3E0FDA3E0FEA3E0FFE41263
:1058090030B97B4E7A627910783F122FB31230F794
:1058190090022BEEF0A3EFF0900355E0FCA3E0FD1E
:10582900A3E0FEA3E0FFE41230B97B7B7A1479AEE2
:10583900783E122FB31230F7900219EEF0A3EFF071
:10584900900355E0FCA3E0FDA3E0FEA3E0FFE41212
:1058590030B97B8C7A4A798A783E122FB31230F7A5
:1058690090021FEEF0A3EFF0900355E0FCA3E0FDDA
:10587900A3E0FEA3E0FFE41230B97B377A897941CE
:10588900783E122FB31230F790021BEEF0A3EFF01F
:10589900900355E0FCA3E0FDA3E0FEA3E0FFE412C2
:1058A90030B97BCD7ACC794C783E122FB31230F7D0
:1058B90090021DEEF0A3EFF0900355E0FCA3E0FD8C
:1058C900A3E0FEA3E0FFE41230B9E4FBFAF9783F64
:1058D900122FB31230F7900225EEF0A3EFF0A3EEEA
:0458E900F0A3EFF049
:0158ED002298
:06001E0090024412381BA1
:100024007E007F287D007B017A02794C1238AA7EFB
:10003400007F287D007B017A0279741238AA7E0041
:100044007F087D057B017A02799C1238AA7B807A2D
:100054009679987800900244E0FCA3E0FDA3E0FECA
:10006400A3E0FF12376AE47B0AFAF9F812376A90C0
:10007400024DEBF07B407A42790F7800900244E025
:10008400FCA3E0FDA3E0FEA3E0FF12376AE47B0AD1
:10009400FAF9F812376A90024EEBF07BA07A86796F
:1000A400017800900244E0FCA3E0FDA3E0FEA3E09D
:1000B400FF12376AE47B0AFAF9F812376A90024FA2
:1000C400EBF0E47B107A27F9F8900244E0FCA3E01B
:1000D400FDA3E0FEA3E0FF12376AE47B0AFAF9F815
:1000E40012376A900250EBF0E47BE87A03F9F89057
:1000F4000244E0FCA3E0FDA3E0FEA3E0FF12376AA4
:10010400E47B0AFAF9F812376A900261EBF0E47BB7
:1001140064FAF9F8900244E0FCA3E0FDA3E0FEA336
:10012400E0FF12376AE47B0AFAF9F812376A9002A0
:1001340062EBF0E47B0AFAF9F8900244E0FCA3E0F5
:10014400FDA3E0FEA3E0FF12376AE47B0AFAF9F8A4
:1001540012376A900263EBF0E47B0AFAF9F8900232
:1001640044E0FCA3E0FDA3E0FEA3E0FF12376A90A5
:100174000264EBF07B807A9679987800900248E0EC
:10018400FCA3E0FDA3E0FEA3E0FF12376AE47B0AD0
:10019400FAF9F812376A90025CEBF07B407A427904
:1001A4000F7800900248E0FCA3E0FDA3E0FEA3E08A
:1001B400FF12376AE47B0AFAF9F812376A90025D93
:1001C400EBF07BA07A8679017800900248E0FCA3EA
:1001D400E0FDA3E0FEA3E0FF12376AE47B0AFAF92C
:1001E400F812376A90025EEBF0E47B107A27F9F894
:1001F400900248E0FCA3E0FDA3E0FEA3E0FF123779
:100204006AE47B0AFAF9F812376A90025FEBF0E4C9
:100214007BE87A03F9F8900248E0FCA3E0FDA3E050
:10022400FEA3E0FF12376AE47B0AFAF9F812376A90
:10023400900270EBF0E47B64FAF9F8900248E0FC79
:10024400A3E0FDA3E0FEA3E0FF12376AE47B0AFA11
:10025400F9F812376A900271EBF0E47B0AFAF9F8C4
:10026400900248E0FCA3E0FDA3E0FEA3E0FF123708
:100274006AE47B0AFAF9F812376A900272EBF0E446
:100284007B0AFAF9F8900248E0FCA3E0FDA3E0FE43
:10029400A3E0FF12376A900273EBF09002847401BA
:1002A400F0A304F0A304F0A304F090029804F0A3D4
:1002B40004F0A304F0A304F09002A47401F09002EB
:1002C400A4E0FFD3940440030205BE744C2FF582CE
:1002D400E43402F583E0FF90025CE0FEEFB506250E
:1002E4009002A4E0FF244CF582E43402F583E0603C
:1002F40014900284E0FE74742FF582E43402F583D2
:10030400EEF00204499002A4E0FF244CF582E434A8
:1003140002F583E0FE90025DE0FDEEB50513744C3A
:100324002FF582E43402F583E0600690028502042E
:10033400389002A4E0FF244CF582E43402F583E013
:10034400FE90025EE0FDEEB50513744C2FF582E4D9
:100354003402F583E060069002860204389002A419
:10036400E0FF244CF582E43402F583E0FE90025F62
:10037400E0FDEEB50513744C2FF582E43402F583E9
:10038400E060069002870204389002A4E0FF244C47
:10039400F582E43402F583E0FE900270E0FDEEB5F0
:1003A4000513744C2FF582E43402F583E060069063
:1003B40002980204389002A4E0FF244CF582E4344D
:1003C40002F583E0FE900271E0FDEEB50512744C77
:1003D4002FF582E43402F583E0600590029980549D
:1003E4009002A4E0FF244CF582E43402F583E0FE9D
:1003F400900272E0FDEEB50512744C2FF582E434E0
:1004040002F583E0600590029A80299002A4E0FF3F
:10041400244CF582E43402F583E0FE900273E0FD9F
:10042400EEB50521744C2FF582E43402F583E060C7
:100434001490029BE0FF9002A4E02474F582E4345B
:1004440002F583EFF09002A4E0FF2460F582E43427
:1004540002F583E0FE90025CE0FDEEB505137460E6
:100464002FF582E43402F583E060069002840205ED
:10047400A49002A4E0FF2460F582E43402F583E052
:10048400FE90025DE0FDEEB5051374602FF582E485
:100494003402F583E060069002850205A49002A46C
:1004A400E0FF2460F582E43402F583E0FE90025E0E
:1004B400E0FDEEB5051374602FF582E43402F58394
:1004C400E060069002860205A49002A4E0FF246086
:1004D400F582E43402F583E0FE90025FE0FDEEB5C0
:1004E400051374602FF582E43402F583E06006900E
:1004F40002870205A49002A4E0FF2460F582E4349C
:1005040002F583E0FE900270E0FDEEB50513746021
:100514002FF582E43402F583E06006900298020528
:10052400A49002A4E0FF2460F582E43402F583E0A1
:10053400FE900271E0FDEEB5051274602FF582E4C1
:100544003402F583E0600590029980549002A4E09F
:10055400FF2460F582E43402F583E0FE900272E049
:10056400FDEEB5051274602FF582E43402F583E0E4
:10057400600590029A80299002A4E0FF2460F5822D
:10058400E43402F583E0FE900273E0FDEEB505214C
:1005940074602FF582E43402F583E0601490029BCA
:1005A400E0FF9002A4E02488F582E43402F583EFAE
:1005B400F09002A4E004F00202C27E007F287D00D5
:1005C4007B017A02794C1238AA9002A47401F0904B
:1005D40002A4E0FF2474F582E43402F583E0FE749F
:1005E4004C2FF582E43402F583EEF09002A4E0FF90
:1005F4002488F582E43402F583E0FE74602FF582EA
:10060400E43402F583EEF09002A4E004F0E0B405D3
:10061400BE9002A47401F09002A4E0FFD3940450AD
:100624002074742FF582E43402F583E4F074882F87
:10063400F582E43402F583E4F09002A4E004F0804F
:10064400D69002A07401F090029CF0E49002A4F011
:10065400900284E0FF90025CE06F60030206E29087
:100664000285E0FF90025DE06F7073900286E0FF08
:1006740090025EE06F7067900287E0FF90025FE097
:100684006F705B900298E0FF900270E06F704F9083
:100694000299E0FF900271E06F704390029AE0FFCC
:1006A400900272E06F703790029BE0FF900273E05B
:1006B4006F702B900065E0643460030210ED7F518D
:1006C400126D477F4612624B7D077F2F125DFA90B1
:1006D40002A3E0FD7F2D125DFA7F50026D4790006A
:1006E40065E064346003020BDC9002A4E004F0E0F3
:1006F400C39464400B126B9A125DF57F351260ED62
:1007040090029DE0FFC364809485504290029FE074
:10071400FD3395E0FC74822DF58274023CF583E090
:10072400FEEFFD3395E0FC74512DF58274023CF527
:1007340083E0B506199003517401F0A37402F0A389
:10074400744CF07B017A02799C7D03020ACE9002FC
:100754009EE0FFC3648094855040A3E0FD3395E0A0
:10076400FC74822DF58274023CF583E0FEEFFD33C8
:1007740095E0FC74562DF58274023CF583E0B506D1
:10078400199003517401F0A37402F0A3744CF07B2C
:10079400017A02799C7D03020B1F90029CE0FFC347
:1007A40064809485400302083490029FE0FD3395F1
:1007B400E0FC74822DF58274023CF583E0FEEFFDCB
:1007C4003395E0FC744C2DF58274023CF583E0B55E
:1007D40006199003517401F0A37402F0A3744CF051
:1007E4007B017A02799C7D03020A659002A3E0FFF3
:1007F4003395E0FE74962FF58274023EF583E0FF94
:1008040090029CE0FD3395E0FC744C2DF58274025B
:100814003CF583E0B507199003517401F0A3740209
:10082400F0A3744CF07B017A02799C7D07020A657F
:1008340090029CE0FFC3648094854003020A6AEF3F
:100844003395E0FE744C2FF58274023EF583E0FD8F
:10085400900284E0FCED6C604B744C2FF5827402C2
:100864003EF583E0FF900285E0FEEF6E6036900275
:100874009CE0FF3395E0FE744C2FF58274023EF544
:1008840083E0FD900286E0FCED6C6018744C2FF55B
:100894008274023EF583E0FF900287E0FEEF6E6013
:1008A4000302095490029DE0FF64056029EF33952B
:1008B400E0FE74512FF58274023EF583E0FF90024E
:1008C4009CE0FD3395E0FC744C2DF58274023CF5FC
:1008D40083E0D39F402490029DE0D36480948240BF
:1008E400199003517401F0A37402F0A3744CF07BCB
:1008F400017A02799C7D01020A6590029EE0FF6400
:10090400056029EF3395E0FE74562FF58274023E9C
:10091400F583E0FF90029CE0FD3395E0FC744C2DE0
:10092400F58274023CF583E0D39F402490029EE05C
:10093400D36480948240199003517401F0A374022B
:10094400F0A3744CF07B017A02799C7D02020A6563
:1009540090029CE0FF3395E0FE744C2FF582740204
:100964003EF583E0FD900298E0FCED6C604B744C26
:100974002FF58274023EF583E0FF900299E0FEEFCA
:100984006E603690029CE0FF3395E0FE744C2FF5C8
:100994008274023EF583E0FD90029AE0FCED6C6007
:1009A40018744C2FF58274023EF583E0FF90029B8D
:1009B400E0FEEF6E6003020A6A9002A1E0FF6405A4
:1009C4006029EF3395E0FE74652FF58274023EF5DD
:1009D40083E0FF90029CE0FD3395E0FC744C2DF520
:1009E4008274023CF583E0D39F40239002A1E0D3BC
:1009F4006480948240189003517401F0A37402F04F
:100A0400A3744CF07B017A02799C7D05805390029B
:100A1400A2E0FF64056029EF3395E0FE746A2FF5C8
:100A24008274023EF583E0FF90029CE0FD3395E082
:100A3400FC744C2DF58274023CF583E0D39F402670
:100A44009002A2E0D364809482401B90035174010D
:100A5400F0A37402F0A3744CF07B017A02799C7DBC
:100A640006E4FF0210E790029DE0FFC364809485D2
:100A74004003020B24A3E0FEC36480948540030278
:100A84000B24EEFD3395E0FC74562DF58274023C84
:100A9400F583E0FEEFFD3395E0FC74512DF582748F
:100AA400023CF583E0D39E402690029EE0D364800E
:100AB4009481401B9003517401F0A37402F0A37459
:100AC4004CF07B017A02799C7D027F010210E79051
:100AD400029DE0FFFD3395E0FC74512DF582740214
:100AE4003CF583E0FE90029EE0FD3395E0FC7456F5
:100AF4002DF58274023CF583E0D39E4023D3EF644A
:100B0400809481401B9003517401F0A37402F0A3FC
:100B1400744CF07B017A02799C7D017F020210E71C
:100B240090029DE0FFC3648094854003020BDCA324
:100B3400E0C3648094854003020BDC90029CE0FED9
:100B4400648094814042EEFD3395E0FC744C2DF5B5
:100B54008274023CF583E0FEEFFD3395E0FC7451B2
:100B64002DF58274023CF583E0D39E401B90035123
:100B74007401F0A37402F0A3744CF07B017A02793F
:100B84009CE4FD7F010210E790029CE0FFD36480A7
:100B940094814044EF3395E0FE744C2FF582740247
:100BA4003EF583E0FF90029EE0FD3395E0FC745631
:100BB4002DF58274023CF583E0D39F401B900351D2
:100BC4007401F0A37402F0A3744CF07B017A0279EF
:100BD4009CE4FD7F020210E7900065E06435600349
:100BE4000206549002A4E004F0E0C39464400B12A3
:100BF4006B9A125DF57F341260ED9002A1E0FFC3A1
:100C04006480948550449002A3E0FD3395E0FC7425
:100C1400962DF58274023CF583E0FEEFFD3395E0FA
:100C2400FC74652DF58274023CF583E0B5061B90D7
:100C340003517401F0A37402F0A3744CF07B017AA5
:100C440002799C7D077F050210E79002A2E0FFC3B2
:100C5400648094855042A3E0FD3395E0FC74962DA6
:100C6400F58274023CF583E0FEEFFD3395E0FC74FD
:100C74006A2DF58274023CF583E0B5061B9003519E
:100C84007401F0A37402F0A3744CF07B017A02792E
:100C94009C7D077F060210E79002A0E0FFC36480FA
:100CA40094854003020D369002A3E0FD3395E0FCE9
:100CB40074962DF58274023CF583E0FEEFFD3395C6
:100CC400E0FC74602DF58274023CF583E0B5061BEC
:100CD4009003517401F0A37402F0A3744CF07B01EF
:100CE4007A02799C7D077F040210E790029FE0FF5F
:100CF4003395E0FE74822FF58274023EF583E0FFA3
:100D04009002A0E0FD3395E0FC74602DF58274023E
:100D14003CF583E0B5071B9003517401F0A3740202
:100D2400F0A3744CF07B017A02799C7D037F04026A
:100D340010E79002A0E0FFC3648094854003020F93
:100D440073EF3395E0FE74602FF58274023EF583F1
:100D5400E0FD900298E0FCED6C604B74602FF5822E
:100D640074023EF583E0FF900299E0FEEF6E603678
:100D74009002A0E0FF3395E0FE74602FF5827402C8
:100D84003EF583E0FD90029AE0FCED6C601874601F
:100D94002FF58274023EF583E0FF90029BE0FEEFA4
:100DA4006E6003020E5A9002A1E0FF64056029EF11
:100DB4003395E0FE74652FF58274023EF583E0FFFF
:100DC4009002A0E0FD3395E0FC74602DF58274027E
:100DD4003CF583E0D39F40269002A1E0D364809445
:100DE40082401B9003517401F0A37402F0A3744C6D
:100DF400F07B017A02799C7D057F040210E7900262
:100E0400A2E0FF64056029EF3395E0FE746A2FF5D4
:100E14008274023EF583E0FF9002A0E0FD3395E08A
:100E2400FC74602DF58274023CF583E0D39F402668
:100E34009002A2E0D364809482401B900351740119
:100E4400F0A37402F0A3744CF07B017A02799C7DC8
:100E5400067F040210E79002A0E0FF3395E0FE74E1
:100E6400602FF58274023EF583E0FD900284E0FC7D
:100E7400ED6C604B74602FF58274023EF583E0FFE5
:100E8400900285E0FEEF6E60369002A0E0FF33959D
:100E9400E0FE74602FF58274023EF583E0FD90025B
:100EA40086E0FCED6C601874602FF58274023EF5E8
:100EB40083E0FF900287E0FEEF6E6003020F739001
:100EC400029DE0FF64056029EF3395E0FE74512F25
:100ED400F58274023EF583E0FF9002A0E0FD3395B5
:100EE400E0FC74602DF58274023CF583E0D39F40EE
:100EF4002690029DE0D364809482401B9003517439
:100F040001F0A37402F0A3744CF07B017A02799C83
:100F14007D017F040210E790029EE0FF64056029D2
:100F2400EF3395E0FE74562FF58274023EF583E0AC
:100F3400FF9002A0E0FD3395E0FC74602DF582740F
:100F4400023CF583E0D39F402690029EE0D3648068
:100F54009482401B9003517401F0A37402F0A374B3
:100F64004CF07B017A02799C7D027F040210E790A9
:100F740002A1E0FFC364809485400302102DA3E026
:100F8400FEC364809485400302102DEEFD3395E08A
:100F9400FC746A2DF58274023CF583E0FEEFFD33A8
:100FA40095E0FC74652DF58274023CF583E0D39ED4
:100FB40040269002A2E0D364809481401B900351A8
:100FC4007401F0A37402F0A3744CF07B017A0279EB
:100FD4009C7D067F050210E79002A1E0FFFD33959A
:100FE400E0FC74652DF58274023CF583E0FE90020A
:100FF400A2E0FD3395E0FC746A2DF58274023CF5A1
:1010040083E0D39E4023D3EF64809481401B9003FC
:10101400517401F0A37402F0A3744CF07B017A02C2
:10102400799C7D057F060210E79002A1E0FFC3646E
:101034008094854003020654A3E0C36480948540F1
:10104400030206549002A0E0FE648094814041EEC5
:10105400FD3395E0FC74602DF58274023CF583E069
:10106400FEEFFD3395E0FC74652DF58274023CF5CA
:1010740083E0D39E401A9003517401F0A37402F0EC
:10108400A3744CF07B017A02799C7D047F05805324
:101094009002A0E0FFD3648094815003020654EFD1
:1010A4003395E0FE74602FF58274023EF583E0FF11
:1010B4009002A2E0FD3395E0FC746A2DF58274027F
:1010C4003CF583E0D39F500302065490035174010E
:1010D400F0A37402F0A3744CF07B017A02799C7D36
:0910E400047F061221B602065435
:0110ED0022E0
:09531D009002A6E0F404FD7F28D3
:105326009002AEEDF0D3648094E440057464F0809E
:105336000E9002AEE0C36480941C5003749CF0EFA0
:1053460024D8B40700400302555A90535E75F00303
:10535600A4C58325F0C583730253730253BA02535F
:10536600F802546D0254A60254DF02551D9002AE97
:10537600E0FF90005FE0B507012290005FEFF0903C
:1053860002AEE0FB7003025423D3EB6480948040AA
:1053960009D2DE9002AEE00254239002AEE0FFC3D3
:1053A60064809480400302555AD2DE126F74126EE6
:1053B600D7D295229002AEE0FF900060E0B50701DB
:1053C60022900060EFF09002AEE0FB7002806AD39C
:1053D600EB648094804008D2DE9002AEE0805A9062
:1053E60002AEE0FFC364809480400302555AD2DEC9
:1053F600806C9002AEE0FF90005FE0B50706A3E088
:10540600B5070122900060EFF090005FF09002AEC9
:10541600E0FB7010C2DEFF126EBDC292E4FF126E98
:10542600D7C29522D3EB648094804014D2DE9002DA
:10543600AEE0FF126ED7C295E0FF126EBDC2922299
:105446009002AEE0FFC364809480400302555AD2B6
:10545600DE126F74126ED7D2959002AEE0FF126F15
:1054660074126EBDD292229002AEE0FF90005BE015
:10547600B507012290005BEFF09002AEE0FF7004EA
:10548600D2978070D3EF648094804005D2970255FE
:1054960018C3EF64809480400302555AD297806304
:1054A6009002AEE0FF90005CE0B507012290005C40
:1054B600EFF09002AEE0FF7004D2978075D3EF64F0
:1054C6008094804005D297025556C3EF648094803D
:1054D600400302555AD29780689002AEE0FF9000D2
:1054E6005DE0B507012290005DEFF09002AEE0FFAF
:1054F6007007C297C2A0D2A122D3EF6480948040E5
:1055060007C297C2A0C2A122C3EF64809480504410
:10551600C297D2A0C2A1229002AEE0FF90005EE048
:10552600B507012290005EEFF09002AEE0FF700733
:10553600C297C2A2D2A322D3EF648094804007C24E
:1055460097C2A2C2A322C3EF648094805006C2977A
:05555600D2A2C2A32255
:055C4B009002A6EDF03F
:105C5000A3EFF09002A7E07003025DEE208703300F
:105C6000802430862130851E30841BA2828283509E
:105C7000153081129002AA740BF09002A6E0FD7F0D
:105C80002A12532680CD9002AAE0B40B0B740CF0BC
:105C90009002A7E014F080BB9002A6E09002A9F069
:105CA0009002A8F0308527208224A3E0FF75F00A37
:105CB00084FEC3EF9EF09002A8E0FFC374649FFFD0
:105CC000E49400FE7C007D0A123677E02FF03082EB
:105CD000292085269002A9E0FFC374649FFFE49405
:105CE00000FE7C007D0A123677E02FF09002A8E0DB
:105CF000FF75F00A84FEC3EF9EF0308633208130BA
:105D00009002A9E0FF75F00A8475F003A4FEC3EFCA
:105D10009EF09002A8E0FFC374649FFFE49400FE2D
:105D20007C007D0A123677EF75F003A4FFE02FF0B8
:105D30003081332086309002A9E0FFC374649FFF56
:105D4000E49400FE7C007D0A123677EF75F003A420
:105D5000FFE02FF09002A8E0FF75F00A8475F003D1
:105D6000A4FEC3EF9EF03087332080309002A9E07C
:105D7000FF75F00A8475F005A4FEC3EF9EF0900253
:105D8000A8E0FFC374649FFFE49400FE7C007D0ADA
:105D9000123677EF75F005A4FFE02FF03080332046
:105DA00087309002A9E0FFC374649FFFE49400FE73
:105DB0007C007D0A123677EF75F005A4FFE02FF026
:105DC0009002A8E0FF75F00A8475F005A4FEC3EF09
:105DD0009EF09002A8E0FD7F291253269002A9E0D0
:105DE000FD7F281253267D15126C92025C537D288C
:055DF0007F2802555B55
:106C15009002A6EDF0EF24A6601D24FE60461460E8
:106C250028240270599002A6E0FD7F281253269071
:106C350002A6E0F404800712531D9002A6E0FD7F32
:106C45002912532690022F802B9002A6E0FD7F2863
:106C55001253269002A6E0F404FD7F2912532690D4
:106C65000233801012531D9002A6E0FD7F291253B6
:106C750026900233E0FEA3E0FF7D15126C96208579
:0B6C8500FD2082FAE4FD7F2A02532666
:05555B009002ABEDF031
:10556000EF75F00AA4FFEF251FFFE5F0351EFEE4FE
:10557000351DFDE4351CFC90004812381BAF1FAEF2
:105580001EAD1DAC1C900048E0F8A3E0F9A3E0FAC2
:10559000A3E0FBD312380A50030257329002ABE06B
:1055A0009002ADF09002ACF0308738208035A3E057
:1055B000FCE41230C37433FBFAF9783F122FB312B4
:1055C00030F79002ADEFF09002ACE0FCE41230C393
:1055D0007B667A6679A6783F122FB31230F7900275
:1055E000ACEFF030803A2087379002ADE0FCE41257
:1055F00030C37B667A6679A6783F122FB31230F7F4
:105600009002ADEFF09002ACE0FCE41230C37433D2
:10561000FBFAF9783F122FB31230F79002ACEFF09B
:1056200030863B2081389002ADE0FCE41230C37B31
:10563000CD7ACC794C783F122FB31230F79002AD6F
:10564000EFF09002ACE0FCE41230C37B9A7A9979D7
:1056500099783F122FB31230F79002ACEFF03081FF
:105660003B2086389002ADE0FCE41230C37B9A7A8E
:10567000997999783F122FB31230F79002ADEFF07D
:105680009002ACE0FCE41230C37BCD7ACC794C784C
:105690003F122FB31230F79002ACEFF030853A2072
:1056A00082379002ADE0FCE41230C37466FBFAF975
:1056B000783F122FB31230F79002ADEFF09002ACAA
:1056C000E0FCE41230C37BCD7ACC798C783F122F8A
:1056D000B31230F79002ACEFF030823A2085379069
:1056E00002ADE0FCE41230C37BCD7ACC798C783FFC
:1056F000122FB31230F79002ADEFF09002ACE0FC45
:10570000E41230C37466FBFAF9783F122FB31230FB
:10571000F79002ACEFF09002ACE0FD7F2912532627
:105720009002ADE0FD7F281253267D15126C920287
:09573000557DE4FD7F2A02532699
:10694E0020872B20862830842530832220811F200B
:10695E00801C3085032082062085132082107D1531
:10696E007F0A7E00126C96E4FD7F2A025326208455
:10697E000B7D0C7F281253267DF4800C20830E7D18
:10698E00F47F281253267D0C7F2912532630820E57
:10699E0020850B7D087F281253267DF8800F3085C9
:1069AE001120820E7DF87F281253267D087F291232
:1069BE00532620860330870B7DF07F281253267DC9
:1069CE0010800F20810330800E7D107F28125326F9
:1069DE007DF07F291253267D157F647E00126C9602
:0369EE0002694EED
:105A9D00900044E0FF3395E0FEC3E49FFDE49EFCDF
:025AAD007F2850
:105AAF009002D5ECF0A3EDF0D39464EC6480948075
:105ABF00400B9002D5E4F0A37464F08018C39002F9
:105ACF00D6E0949C9002D5E06480947F500774FFD9
:105ADF00F0A3749CF0EF24D7606C147003025BAEDC
:105AEF0024026003025C4A90005FE0FF3395E0FE02
:105AFF009002D5E0FCA3E0FDB50705ECB506012249
:105B0F0090005FEDF09002D5E0FAA3E0FB4A70033E
:105B1F00025BF7D3EB9400EA64809480400AD2DEF4
:105B2F009002D5A3E0025BF79002D5E0FEA3E0FF61
:105B3F00C3EE648094804003025C4AD2DE126F741D
:105B4F00126ED7D29522900060E0FF3395E0FE9061
:105B5F0002D5E0FCA3E0FDB50705ECB506012290E8
:105B6F000060EDF09002D5E0FAA3E0FB4A7003026B
:105B7F005C1BD3EB9400EA64809480400AD2DE90E1
:105B8F0002D5A3E0025C1B9002D5E0FEA3E0FFC3A9
:105B9F00EE648094804003025C4AD2DE025C429045
:105BAF00005FE0FF3395E0FE9002D5E0FCA3E0FD3F
:105BBF00B50716ECB50612900060E0FF3395E0FED6
:105BCF00EDB50705ECB5060122AF05900060EFF0CB
:105BDF0090005FF09002D5E0FAA3E0FB4A7010C28C
:105BEF00DEFF126EBDC292E4FF126ED7C29522D3B2
:105BFF00EB9400EA648094804019D2DE9002D5A322
:105C0F00E0FF126ED7C2959002D5A3E0FF126EBDD2
:105C1F00C292229002D5E0FEA3E0FFC3EE6480940F
:105C2F00805018D2DE126F74126ED7D2959002D5B3
:0C5C3F00A3E0FF126F74126EBDD292221F
:103E4600900040E0FBA3E0FAA3E0F91235B8249C09
:103E5600603F14700302419F1470030240AB24E4D8
:103E6600600302439CE4FDFC7F2A125AAF90004691
:103E7600740CF07E007F407D007B017A0079001291
:103E860038AA9000407401F0A37400F0A37400F007
:103E960022900040E0FBA3E0FAA3E0F990000112B3
:103EA60035D1700302409920870330802330862065
:103EB60030851D30841AA28282835014308111907D
:103EC6000047740BF0900043E0FD3395E00240A5F7
:103ED600900047E0B40B16740CF0900040E0FBA392
:103EE600E0FAA3E0F990000174FF0235FE9000436A
:103EF600E0FF3395E0F5198F1AF5178F18308539DD
:103F0600208236E5182415FFE43517FE7C007D0A6D
:103F16001236CCC3E5189FF518E5179EF517C3743E
:103F260063951AFFE49519FE7C007D0A1236CCEFE4
:103F3600251AF51AEE3519F519308239208536C35A
:103F460074639518FFE49517FE7C007D0A1236CC43
:103F5600EF2518F518EE3517F517E51A2415FFE4C1
:103F66003519FE7C007D0A1236CCC3E51A9FF51A78
:103F7600E5199EF519308643208140E5182415FF82
:103F8600E43517FE7C007D031236657D0A1236CCB9
:103F9600C3E5189FF518E5179EF517C37463951AC0
:103FA600FFE49519FE7C007D031236657D0A123604
:103FB600CCEF251AF51AEE3519F51930814320860E
:103FC60040C374639518FFE49517FE7C007D0312C9
:103FD60036657D0A1236CCEF2518F518EE3517F53D
:103FE60017E51A2415FFE43519FE7C007D03123609
:103FF600657D0A1236CCC3E51A9FF51AE5199EF5BA
:1040060019308743208040E5182415FFE43517FE54
:104016007C007D051236657D0A1236CCC3E5189FF5
:10402600F518E5179EF517C37463951AFFE49519FD
:10403600FE7C007D051236657D0A1236CCEF251A08
:10404600F51AEE3519F51920800302438A208740B8
:10405600C374639518FFE49517FE7C007D05123640
:10406600657D0A1236CCEF2518F518EE3517F517CB
:10407600E51A2415FFE43519FE7C007D0512366528
:104086007D0A1236CCC3E51A9FF51AE5199EF51975
:1040960002438A900041E475F002123702E4FDFC07
:1040A6007F2A024399E51B147003024172147003C0
:1040B6000241942402600302439C900040E0FBA36B
:1040C600E0FAA3E0F99000011235D124A6602D2470
:1040D600FE606714603C2402600302416F90004456
:1040E600E0FD3395E0FC7F28125AAF900044E0FFD4
:1040F6003395E0FEC3E49FFDE49E800B125A9D902B
:104106000044E0FD3395E0FC7F29125AAF9002315E
:10411600803C900044E0FD3395E0FC7F28125AAFC6
:10412600900044E0FF3395E0FEC3E49FFDE49EFC6F
:104136007F29125AAF9002358014125A9D9000447E
:10414600E0FD3395E0FC7F29125AAF900235E0FE80
:10415600A3E0FFEF251FFFEE351EFEE4351DFDE44F
:10416600351CFC90004812381B051B22AF1FAE1EE3
:10417600AD1DAC1C900048E0F8A3E0F9A3E0FAA35B
:10418600E0FBD312380A400302439C051B2220851C
:104196006B20820302439C8063E51B14604204602B
:1041A6000302439C900040E0FBA3E0FAA3E0F990F1
:1041B60000011235D1FF3395E0FE7C007D0A1236F0
:1041C60065EE3395E0FDFCEF251FFFEE351EFEED97
:1041D600351DFDEC351CFC90004812381B051B22D2
:1041E600AF1FAE1EAD1DAC1C900048E0F8A3E0F971
:1041F600A3E0FAA3E0FBD312380A5020E4FDFC7FCB
:104206002A125AAF900041E475F00212370290006C
:104216004812382700000000E4F51B22900045E014
:10422600FF3395E0F5198F1AF5178F18308736206A
:104236008033AC17AD18EC1230BE7433FBFAF97844
:104246003F122FB31230F78E178F18AC19AD1AEC38
:104256001230BE7B667A6679A6783F122FB312308B
:10426600F78E198F1A308036208733AC17AD18ECCD
:104276001230BE7B667A6679A6783F122FB312306B
:10428600F78E178F18AC19AD1AEC1230BE7433FBCB
:10429600FAF9783F122FB31230F78E198F1A30863B
:1042A60037208134AC17AD18EC1230BE7BCD7ACCFA
:1042B600794C783F122FB31230F78E178F18AC193E
:1042C600AD1AEC1230BE7B9A7A997999783F122F03
:1042D600B31230F78E198F1A308137208634AC1717
:1042E600AD18EC1230BE7B9A7A997999783F122FE5
:1042F600B31230F78E178F18AC19AD1AEC1230BE08
:104306007BCD7ACC794C783F122FB31230F78E19C9
:104316008F1A308536208233AC17AD18EC1230BEBA
:104326007466FBFAF9783F122FB31230F78E178FA7
:1043360018AC19AD1AEC1230BE7BCD7ACC798C78DC
:104346003F122FB31230F78E198F1A30823620851E
:1043560033AC17AD18EC1230BE7BCD7ACC798C78A5
:104366003F122FB31230F78E178F18AC19AD1AEC17
:104376001230BE7466FBFAF9783F122FB31230F78B
:104386008E198F1AAD1AAC197F29125AAFAD18AC17
:06439600177F28125AAF48
:01439C0022FE
:0B6B17009002D7EFF0A3EDF0A3EBF02D
:106B2200E4FF90030204F0A37402F0A374DA80136A
:106B3200EE64826025AD070F74002DF582E4340007
:106B4200F583EEF0900302E0FBA3E475F001123747
:106B520018A9F0FA1235B8FE80D674002FF582E437
:106B62003400F5837482F0900047740CF09000407A
:106B72007401F0A37400F0A37400F09002D7E090C7
:106B82000043F09002D8E0900044F09002D9E090E7
:076B92000045F0A3740BF0B5
:016B990022D9
:106E0500900046E0B40B0B7D157F327E00126C9628
:106E150080EE7E007F407D007B017A00790012388C
:046E2500AA02694E06
:104E7B009002A5EFF0A3EDF075F054EFA4246AF5C2
:104E8B0082E5F03400F58375F006ED123858EBF03F
:104E9B009002ADE0FF9002AAE0FCA3E090006A75DF
:104EAB00F054123858EC75F054A42583F583C08365
:104EBB00C0829002ACE0D082D08375F006123858D5
:104ECB00EFF09002B3E0FF9002B0E0FCA3E09000A3
:104EDB006A75F054123858EC75F054A42583F58399
:104EEB00C083C0829002B2E0D082D08375F00612EC
:104EFB003858EFF09002B9E0FF9002B6E0FCA3E067
:104F0B0090006A75F054123858EC75F054A4258350
:104F1B00F583C083C0829002B8E0D082D08375F055
:104F2B0006123858EFF09002BCE090020EF090029F
:104F3B00A8E0FF9002A5E075F054A4246BF582E580
:104F4B00F03400F583C083C0829002A6E0D082D0FB
:104F5B008375F006123858EFF09002AEE0FF900226
:104F6B00AAE0FCA3E090006B75F054123858EC7576
:104F7B00F054A42583F583C083C0829002ACE0D0AB
:104F8B0082D08375F006123858EFF09002B4E0FF30
:104F9B009002B0E0FCA3E090006B75F0541238580F
:104FAB00EC75F054A42583F583C083C0829002B2C4
:104FBB00E0D082D08375F006123858EFF09002BA29
:104FCB00E0FF9002B6E0FCA3E090006B75F054128A
:104FDB003858EC75F054A42583F583C083C08290B8
:104FEB0002B8E0D082D08375F006123858EFF090FB
:104FFB0002BDE090020FF0900108740CF090010BD1
:10500B00F090010AF0900109F090015CF090015FC3
:10501B00F090015EF090015DF09001B0F09001B363
:10502B00F09001B2F09001B1F09002BEE0FFB4320B
:10503B000C9000B6740CF0900207F0800EEFB433B6
:10504B000A9000B7740CF0900206F0900156740CA5
:10505B00F0900159F0900158F0900157F09002A593
:10506B00E0FFA3E09002A81258EE9002AAA3E0FF83
:10507B00A3E09002AE1258EE9002B0A3E0FFA3E0C3
:10508B00FD9002B41258EF9002B6A3E0FFA3E0FD2F
:10509B009002BA1258EF900111740CF0900117F0B6
:1050AB0090011DF0900164F090016AF0900170F096
:1050BB0090011BF090016FF090010EF0900162F0E7
:0150CB0022C2
:0958EE00FDE0FBA3E09002C2F012
:1058F700EB643360030259C89002C2E06434705B02
:1059070075F054EFA42469F582E5F03400F583754A
:10591700F006ED123858740CF075F054EFA424BC5F
:10592700F582E5F03400F58375F006ED123858740A
:105937000CF075F054EFA42463F582E5F03400F51C
:105947008375F006ED123858740CF075F054EFA417
:1059570024B6F582E5F03400025A909002C2E06462
:10596700356003025A9C75F054EFA42469F582E56B
:10597700F03400F58375F006ED123858740CF075A5
:10598700F054EFA42414F582E5F03400F58375F0A4
:1059970006ED123858740CF075F054EFA42463F533
:1059A70082E5F03400F58375F006ED123858740C73
:1059B700F075F054EFA4240EF582E5F03400025A96
:1059C70090EB64326003025A9C9002C2E0FE64349A
:1059D700705A75F054EFA42468F582E5F03400F5A9
:1059E7008375F006ED123858740CF075F054EFA477
:1059F7002415F582E5F03400F58375F006ED1238CD
:105A070058740CF075F054EFA4246EF582E5F03469
:105A170000F58375F006ED123858740CF075F054E4
:105A2700EFA4241BF582E5F03400805DEE64357049
:105A37006475F054EFA42469F582E5F03400F5832A
:105A470075F006ED123858740CF075F054EFA42475
:105A5700BCF582E5F03400F58375F006ED12385891
:105A6700740CF075F054EFA4246FF582E5F0340060
:105A7700F58375F006ED123858740CF075F054EF95
:105A8700A424C2F582E5F03400F58375F006ED1223
:065A97003858740CF022E7
:0569F1009002A6EFF08A
:1069F600900059E090004CF090005AE090004DF065
:106A0600900061E0900054F090020EE0B50722A3DA
:106A1600E0FFB43506E4900237800AEF6434706410
:106A26009002377404F0A3740DF090023F7432F0B4
:106A360022E4FFE4FE75F054EFA4246AF582E5F043
:106A46003400F58375F006EE123858E0FD9002A684
:106A5600E0FCEDB50424900237EFF0A3EEF075F0FC
:106A660054EFA4246BF582E5F03400F58375F00647
:106A7600EE123858E090023FF0220EEEB40DB60F3B
:046A8600EFB405AFB5
:016A8A0022E9
:045F78007D287F659C
:105F7C009002A6EDF0900040E0FBA3E0FAA3E0F95C
:105F8C001235B8FE700AEF646570030260EC80197C
:105F9C00EF6E6019900041E475F002123702900028
:105FAC0040E0FBA3E0FAA3E0F9EF12363190004099
:105FBC00E0FBA3E0FAA3E0F91235B8249B700302CE
:105FCC0060D514605C240260030260EC9002A6E0D1
:105FDC00FF9000011235FE900054E024CD601214A5
:105FEC006021146030240360030260EC90004D804B
:105FFC002C90004DE0FF9002A6E0FEC3EF9E9000B7
:10600C004DF02290004CE0FF9002A6E0FEC3EF9E04
:10601C0090004CF0229002A6E0FF90004CE02FF094
:10602C00229002A6E0FF900040E0FBA3E0FAA3E080
:10603C00F9900001EF123643900054E024CD602714
:10604C0014603E14605F240360030260ECEF24A52F
:10605C00600F14600E14600D240360030260EC806A
:10606C0061803B802E802C9002A6E024A5600C144D
:10607C00600B14600A24037067802380458038808D
:10608C00369002A6E024A5601114601014600F2451
:10609C0003704D9000547433F022801B80009000EC
:1060AC00547435F0229002A6E024A56011146010FF
:1060BC0014600F240370299000547432F022800273
:1060CC0080009000547434F0229002A6E0FF9000FF
:1060DC0040E0FBA3E0FAA3E0F9900001EF1235FEDB
:0160EC002291
:0F10EE009002A7EDF09002A6EFF09002A8EBF0B1
:1010FD00E49002ABF0A3F0C3EF6480F8EB6480984A
:10110D0040030219539002A7E0FF9002A9E0FCEF03
:10111D006480F8EC648098500302142EA3E06432CE
:10112D0060030212A9AE079002A9E0C36480F8EE35
:10113D00648098506E9002A6E0FD9002A8E0C36412
:10114D0080F8ED648098403CEDFB3395E0FA90001B
:10115D006875F054EB123858EA75F054A42583F5F0
:10116D0083EEFB3395E0FA75F006EB123858EA750D
:10117D00F006A42583F583E0B40B069002ACE004E1
:10118D00F01D80B69002A8E0FF9002A6E0C39FFF7D
:10119D009002ACE014B50703AF0622E49002ACF068
:1011AD000E80849002A7E0FEC3EE64809480406EB2
:1011BD009002A6E0FD9002A8E0C36480F8ED648083
:1011CD0098403CEDFB3395E0FA90006875F054EBD8
:1011DD00123858EA75F054A42583F583EEFB339548
:1011ED00E0FA75F006EB123858EA75F006A425837F
:1011FD00F583E0B40B069002ACE004F01D80B690D0
:10120D0002A8E0FF9002A6E0C39FFF9002ACE0149D
:10121D00B50703AF0622E49002ACF01E808A90025F
:10122D00A9E0FED3EE6480948C40030221B39002BA
:10123D00A6E0FD9002A8E0C36480F8ED64809840BC
:10124D003CEDFB3395E0FA90006875F054EB1238E5
:10125D0058EA75F054A42583F583EEFB3395E0FA37
:10126D0075F006EB123858EA75F006A42583F58360
:10127D00E0B40B069002ACE004F01D80B69002A81D
:10128D00E0FF9002A6E0C39FFF9002ACE014B5070B
:10129D0003AF0622E49002ACF00E80879002AAE024
:1012AD00643360030221B39002A9E0FED3EE6480A3
:1012BD00948C506E9002A6E0FD9002A8E0C364806D
:1012CD00F8ED648098403CEDFB3395E0FA900068B2
:1012DD0075F054EB123858EA75F054A42583F58354
:1012ED00EEFB3395E0FA75F006EB123858EA75F01F
:1012FD0006A42583F583E0B40B069002ACE004F060
:10130D001D80B69002A8E0FF9002A6E0C39FFF905B
:10131D0002ACE014B50703AF0622E49002ACF00E68
:10132D00808A9002A7E0FE9002A9E0C36480F8EEE7
:10133D00648098506E9002A6E0FD9002A8E0C36410
:10134D0080F8ED648098403CEDFB3395E0FA900019
:10135D006875F054EB123858EA75F054A42583F5EE
:10136D0083EEFB3395E0FA75F006EB123858EA750B
:10137D00F006A42583F583E0B40B069002ACE004DF
:10138D00F01D80B69002A8E0FF9002A6E0C39FFF7B
:10139D009002ACE014B50703AF0622E49002ACF066
:1013AD000E80849002A7E0FEC3EE6480948050030B
:1013BD000221B39002A6E0FD9002A8E0C36480F87C
:1013CD00ED648098403CEDFB3395E0FA9000687534
:1013DD00F054EB123858EA75F054A42583F583EEDA
:1013ED00FB3395E0FA75F006EB123858EA75F00606
:1013FD00A42583F583E0B40B069002ACE004F01D48
:10140D0080B69002A8E0FF9002A6E0C39FFF900275
:10141D00ACE014B50703AF0622E49002ACF01E80D9
:10142D00879002A7E0FF9002A9E0FCC3EF6480F86B
:10143D00EC648098400302174BA3E0643260030212
:10144D0015C6AE04C3EE64809480406E9002A6E093
:10145D00FD9002A8E0C36480F8ED648098403CEDF7
:10146D00FB3395E0FA90006875F054EB123858EAAA
:10147D0075F054A42583F583EEFB3395E0FA75F0F2
:10148D0006EB123858EA75F006A42583F583E0B40F
:10149D000B069002ACE004F01D80B69002A8E0FFB0
:1014AD009002A6E0C39FFF9002ACE014B50703AF16
:1014BD000622E49002ACF01E808A9002A7E0FE9016
:1014CD0002A9E0D36480F8EE648098406E9002A685
:1014DD00E0FD9002A8E0C36480F8ED648098403C84
:1014ED00EDFB3395E0FA90006875F054EB12385827
:1014FD00EA75F054A42583F583EEFB3395E0FA7578
:10150D00F006EB123858EA75F006A42583F583E052
:10151D00B40B069002ACE004F01D80B69002A8E07A
:10152D00FF9002A6E0C39FFF9002ACE014B5070345
:10153D00AF0622E49002ACF01E80849002A7E0FE7C
:10154D00D3EE6480948C40030221B39002A6E0FD9B
:10155D009002A8E0C36480F8ED648098403CEDFBF8
:10156D003395E0FA90006875F054EB123858EA752F
:10157D00F054A42583F583EEFB3395E0FA75F00660
:10158D00EB123858EA75F006A42583F583E0B40B09
:10159D00069002ACE004F01D80B69002A8E0FF902A
:1015AD0002A6E0C39FFF9002ACE014B50703AF069F
:1015BD0022E49002ACF00E80879002AAE0643360C2
:1015CD00030221B39002A7E0FE9002A9E0D364804C
:1015DD00F8EE648098406E9002A6E0FD9002A8E0BF
:1015ED00C36480F8ED648098403CEDFB3395E0FAE0
:1015FD0090006875F054EB123858EA75F054A42534
:10160D0083F583EEFB3395E0FA75F006EB1238584F
:10161D00EA75F006A42583F583E0B40B069002ACC1
:10162D00E004F01D80B69002A8E0FF9002A6E0C392
:10163D009FFF9002ACE014B50703AF0622E49002C1
:10164D00ACF01E80849002A7E0FED3EE6480948CF3
:10165D00506E9002A6E0FD9002A8E0C36480F8ED04
:10166D00648098403CEDFB3395E0FA90006875F08E
:10167D0054EB123858EA75F054A42583F583EEFB2C
:10168D003395E0FA75F006EB123858EA75F006A4BA
:10169D002583F583E0B40B069002ACE004F01D80C9
:1016AD00B69002A8E0FF9002A6E0C39FFF9002ACA7
:1016BD00E014B50703AF0622E49002ACF00E808A69
:1016CD009002A9E0FEC3EE6480948050030221B322
:1016DD009002A6E0FD9002A8E0C36480F8ED64805E
:1016ED0098403CEDFB3395E0FA90006875F054EBB3
:1016FD00123858EA75F054A42583F583EEFB339523
:10170D00E0FA75F006EB123858EA75F006A4258359
:10171D00F583E0B40B069002ACE004F01D80B690AA
:10172D0002A8E0FF9002A6E0C39FFF9002ACE01478
:10173D00B50703AF0622E49002ACF01E808790023D
:10174D00AAE06432600302184F9002A7E0FEC3EED8
:10175D0064809480406E9002A6E0FD9002A8E0C3E4
:10176D006480F8ED648098403CEDFB3395E0FA9091
:10177D00006875F054EB123858EA75F054A42583BF
:10178D00F583EEFB3395E0FA75F006EB123858EA67
:10179D0075F006A42583F583E0B40B069002ACE04A
:1017AD0004F01D80B69002A8E0FF9002A6E0C39F52
:1017BD00FF9002ACE014B5070302219EE49002AC49
:1017CD00F01E808A9002A9E0FED3EE6480948C40D6
:1017DD00030221B39002A6E0FD9002A8E0C364804D
:1017ED00F8ED648098403CEDFB3395E0FA9000688D
:1017FD0075F054EB123858EA75F054A42583F5832F
:10180D00EEFB3395E0FA75F006EB123858EA75F0F9
:10181D0006A42583F583E0B40B069002ACE004F03A
:10182D001D80B69002A8E0FF9002A6E0C39FFF9036
:10183D0002ACE014B5070302219EE49002ACF00E59
:10184D0080879002AAE0643360030221B39002A95D
:10185D00E0FED3EE6480948C506E9002A6E0FD9075
:10186D0002A8E0C36480F8ED648098403CEDFB3342
:10187D0095E0FA90006875F054EB123858EA75F05F
:10188D0054A42583F583EEFB3395E0FA75F006EB52
:10189D00123858EA75F006A42583F583E0B40B06DB
:1018AD009002ACE004F01D80B69002A8E0FF90021B
:1018BD00A6E0C39FFF9002ACE014B5070302219E82
:1018CD00E49002ACF00E808A9002A7E0FEC3EE64B5
:1018DD0080948050030221B39002A6E0FD9002A8EF
:1018ED00E0C36480F8ED648098403CEDFB3395E0F7
:1018FD00FA90006875F054EB123858EA75F054A45C
:10190D002583F583EEFB3395E0FA75F006EB12387F
:10191D0058EA75F006A42583F583E0B40B06900212
:10192D00ACE004F01D80B69002A8E0FF9002A6E0A6
:10193D00C39FFF9002ACE014B5070302219EE49013
:10194D0002ACF01E80879002A6E0FF9002A8E0FC9A
:10195D00D3EF6480F8EC64809850030221AB9002C1
:10196D00A7E0FF9002A9E0FCD3EF6480F8EC64805F
:10197D00985003021C88A3E064326003021B03AE7F
:10198D00079002A9E0C36480F8EE648098506E90D1
:10199D0002A6E0FD9002A8E0D36480F8ED64809883
:1019AD00503CEDFB3395E0FA90006975F054EB1265
:1019BD003858EA75F054A42583F583EEFB3395E092
:1019CD00FA75F006EB123858EA75F006A42583F582
:1019DD0083E0B40B069002ACE004F00D80B69002EB
:1019ED00A6E0FF9002A8E0C39FFF9002ACE014B503
:1019FD000703AF0622E49002ACF00E80849002A79C
:101A0D00E0FEC3EE64809480406E9002A6E0FD90EF
:101A1D0002A8E0D36480F8ED648098503CEDFB3370
:101A2D0095E0FA90006975F054EB123858EA75F0AC
:101A3D0054A42583F583EEFB3395E0FA75F006EBA0
:101A4D00123858EA75F006A42583F583E0B40B0629
:101A5D009002ACE004F00D80B69002A6E0FF90027B
:101A6D00A8E0C39FFF9002ACE014B50703AF0622B8
:101A7D00E49002ACF01E808A9002A9E0FED3EE64E1
:101A8D0080948C40030221B39002A6E0FD9002A841
:101A9D00E0D36480F8ED648098503CEDFB3395E025
:101AAD00FA90006975F054EB123858EA75F054A4A9
:101ABD002583F583EEFB3395E0FA75F006EB1238CE
:101ACD0058EA75F006A42583F583E0B40B06900261
:101ADD00ACE004F00D80B69002A6E0FF9002A8E005
:101AED00C39FFF9002ACE014B50703AF0622E4904C
:101AFD0002ACF00E80879002AAE0643360030221ED
:101B0D00B39002A9E0FED3EE6480948C506E9002E7
:101B1D00A6E0FD9002A8E0D36480F8ED64809850B3
:101B2D003CEDFB3395E0FA90006975F054EB1238FB
:101B3D0058EA75F054A42583F583EEFB3395E0FA4E
:101B4D0075F006EB123858EA75F006A42583F58377
:101B5D00E0B40B069002ACE004F00D80B69002A646
:101B6D00E0FF9002A8E0C39FFF9002ACE014B50720
:101B7D0003AF0622E49002ACF00E808A9002A7E03B
:101B8D00FE9002A9E0C36480F8EE648098506E90D8
:101B9D0002A6E0FD9002A8E0D36480F8ED64809881
:101BAD00503CEDFB3395E0FA90006975F054EB1263
:101BBD003858EA75F054A42583F583EEFB3395E090
:101BCD00FA75F006EB123858EA75F006A42583F580
:101BDD0083E0B40B069002ACE004F00D80B69002E9
:101BED00A6E0FF9002A8E0C39FFF9002ACE014B501
:101BFD000703AF0622E49002ACF00E80849002A79A
:101C0D00E0FEC3EE6480948050030221B39002A6DF
:101C1D00E0FD9002A8E0D36480F8ED648098503C1C
:101C2D00EDFB3395E0FA90006975F054EB123858DE
:101C3D00EA75F054A42583F583EEFB3395E0FA7530
:101C4D00F006EB123858EA75F006A42583F583E00B
:101C5D00B40B069002ACE004F00D80B69002A6E045
:101C6D00FF9002A8E0C39FFF9002ACE014B50703FC
:101C7D00AF0622E49002ACF01E80879002A7E0FF31
:101C8D009002A9E0FCC3EF6480F8EC6480984003F7
:101C9D00021FA5A3E064326003021E20AE04C3EE52
:101CAD0064809480406E9002A6E0FD9002A8E0D37F
:101CBD006480F8ED648098503CEDFB3395E0FA902C
:101CCD00006975F054EB123858EA75F054A4258369
:101CDD00F583EEFB3395E0FA75F006EB123858EA12
:101CED0075F006A42583F583E0B40B069002ACE0F5
:101CFD0004F00D80B69002A6E0FF9002A8E0C39F0D
:101D0D00FF9002ACE014B50703AF0622E49002ACDD
:101D1D00F01E808A9002A7E0FE9002A9E0D36480B5
:101D2D00F8EE648098406E9002A6E0FD9002A8E067
:101D3D00D36480F8ED648098503CEDFB3395E0FA68
:101D4D0090006975F054EB123858EA75F054A425DB
:101D5D0083F583EEFB3395E0FA75F006EB123858F8
:101D6D00EA75F006A42583F583E0B40B069002AC6A
:101D7D00E004F00D80B69002A6E0FF9002A8E0C34B
:101D8D009FFF9002ACE014B50703AF0622E490026A
:101D9D00ACF01E80849002A7E0FED3EE6480948C9C
:101DAD0040030221B39002A6E0FD9002A8E0D364A7
:101DBD0080F8ED648098503CEDFB3395E0FA90008F
:101DCD006975F054EB123858EA75F054A42583F573
:101DDD0083EEFB3395E0FA75F006EB123858EA7591
:101DED00F006A42583F583E0B40B069002ACE00465
:101DFD00F00D80B69002A6E0FF9002A8E0C39FFF11
:101E0D009002ACE014B50703AF0622E49002ACF0EB
:101E1D000E80879002AAE0643360030221B3900222
:101E2D00A7E0FE9002A9E0D36480F8EE64809840AC
:101E3D006E9002A6E0FD9002A8E0D36480F8ED64F8
:101E4D008098503CEDFB3395E0FA90006975F054A5
:101E5D00EB123858EA75F054A42583F583EEFB3365
:101E6D0095E0FA75F006EB123858EA75F006A425E0
:101E7D0083F583E0B40B069002ACE004F00D80B660
:101E8D009002A6E0FF9002A8E0C39FFF9002ACE095
:101E9D0014B50703AF0622E49002ACF01E808490C7
:101EAD0002A7E0FED3EE6480948C506E9002A6E003
:101EBD00FD9002A8E0D36480F8ED648098503CED6D
:101ECD00FB3395E0FA90006975F054EB123858EA3F
:101EDD0075F054A42583F583EEFB3395E0FA75F088
:101EED0006EB123858EA75F006A42583F583E0B4A5
:101EFD000B069002ACE004F00D80B69002A6E0FF58
:101F0D009002A8E0C39FFF9002ACE014B50703AFA9
:101F1D000622E49002ACF00E808A9002A9E0FEC386
:101F2D00EE6480948050030221B39002A6E0FD90F0
:101F3D0002A8E0D36480F8ED648098503CEDFB334B
:101F4D0095E0FA90006975F054EB123858EA75F087
:101F5D0054A42583F583EEFB3395E0FA75F006EB7B
:101F6D00123858EA75F006A42583F583E0B40B0604
:101F7D009002ACE004F00D80B69002A6E0FF900256
:101F8D00A8E0C39FFF9002ACE014B50703AF062293
:101F9D00E49002ACF01E80879002AAE064326003E8
:101FAD000220A99002A7E0FEC3EE64809480406EEB
:101FBD009002A6E0FD9002A8E0C36480F8ED648075
:101FCD0098403CEDFB3395E0FA90006975F054EBC9
:101FDD00123858EA75F054A42583F583EEFB33953A
:101FED00E0FA75F006EB123858EA75F006A4258371
:101FFD00F583E0B40B069002ACE004F01D80B690C2
:10200D0002A8E0FF9002A6E0C39FFF9002ACE0148F
:10201D00B5070302219EE49002ACF01E808A900267
:10202D00A9E0FED3EE6480948C40030221B39002AC
:10203D00A6E0FD9002A8E0C36480F8ED64809840AE
:10204D003CEDFB3395E0FA90006975F054EB1238D6
:10205D0058EA75F054A42583F583EEFB3395E0FA29
:10206D0075F006EB123858EA75F006A42583F58352
:10207D00E0B40B069002ACE004F01D80B69002A80F
:10208D00E0FF9002A6E0C39FFF9002ACE014B507FD
:10209D000302219EE49002ACF00E80879002AAE02C
:1020AD00643360030221B39002A9E0FED3EE648095
:1020BD00948C506D9002A6E0FD9002A8E0C3648060
:1020CD00F8ED648098403CEDFB3395E0FA900069A3
:1020DD0075F054EB123858EA75F054A42583F58346
:1020ED00EEFB3395E0FA75F006EB123858EA75F011
:1020FD0006A42583F583E0B40B069002ACE004F052
:10210D001D80B69002A8E0FF9002A6E0C39FFF904D
:10211D0002ACE014B507028078E49002ACF00E80BA
:10212D008B9002A7E0FEC3EE64809480407890020D
:10213D00A6E0FD9002A8E0C36480F8ED64809840AD
:10214D003CEDFB3395E0FA90006975F054EB1238D5
:10215D0058EA75F054A42583F583EEFB3395E0FA28
:10216D0075F006EB123858EA75F006A42583F58351
:10217D00E0B40B069002ACE004F01D80B69002A80E
:10218D00E0FF9002A6E0C39FFF9002ACE014B507FC
:10219D0005EE2428FF22E49002ACF01E8088900208
:0821AD00A9E02414FF227FFFCA
:0121B5002207
:1038D60090004CE0FFA3E0FD900237E0FBA3E090F0
:1038E60002A9F090023FE09002AAF01210EEAC0797
:1038F600C3EC648094804007EC648094944015C3C4
:10390600EC648094A85003023C3DEC648094BC4077
:1039160003023C3DC3EC648094A8400BEC648094A5
:10392600BC500474D82CFC90004DE0FF6C70030270
:103936003B14D3EF6480F8EC6480985003023A128B
:10394600900054E064327003023A07125F789000E8
:1039560054E024CC70030239FA1470030239FE24B1
:10396600026003023B1490004CE0FF3395E0FE90AA
:10397600006875F054EF123858EE75F054A425839C
:10398600F583C083C08290004DE0FF3395E0FED002
:1039960082D08375F006EF123858EE75F006A4252E
:1039A60083F583E0B40B047D5D804F90004CE0FF0F
:1039B6003395E0FE90006975F054EF123858EE75B5
:1039C600F054A42583F583C083C08290004DE0FFA8
:1039D6003395E0FED082D08375F006EF123858EEAC
:1039E60075F006A42583F583E0640B6003023B149F
:1039F6007D5C80067D5B80027D5A7F66125F7C80DF
:103A06000090004DE0FFC3EC9F023B0E90004DE09E
:103A1600C36480F8EC6480984003023B1490005421
:103A2600E064337003023B08125F78900054E02490
:103A3600CC7003023AEA147003023AF924036003D5
:103A4600023B1490004CE0FF3395E0FE9000687551
:103A5600F054EF123858EE75F054A42583F583C060
:103A660083C08290004DE0FF3395E0FED082D08384
:103A760075F006EF123858EE75F006A42583F58327
:103A8600E0B40B0F7D5C7F66125F7C90004DE0C357
