:03000000020A559C
:0C0A5500787FE4F6D8FD758120020A9C31
:100BE600120C6BE4900009F0A3F0A3F0A3F0A3F0BD
:100BF600A3F0A304F07B027D467F03120003E4FB0F
:100C06007D467F011200037F03120B4D7F04120BFA
:100C16004D7F05120B4D7F06120B4D7F02120B4DB9
:040C2600C2AF80FEDB
:0A0D120042001001F4420000012C21
:0B0AE100E4FF120D067F327D017E0055
:100AEC00ED14601A14603624027055EF1FAC0670BA
:100AFC00011ED39400EC94004046000080EDEF1FE3
:0D0B0C00AC0670011ED39400EC9400403341
:0E0B1900000075100C7511A8D511FDD510FA4D
:100B270080E1EF1FAC0670011ED39400EC940040E7
:010B370014A9
:100B380075102E7511997512F5D512FDD511FAD5C6
:020B480010F7A4
:020B4A0080DD4C
:010B4C002286
:100CE200538E7F5389F0438901758AB0758C3CC25B
:020CF2008D2251
:100CF400538EBF53890F438910758BE0758DB1C234
:020D04008F223C
:080D2700758AB0758C3C0022B6
:080D2F00758BE0758DB1002207
:100CCE0020B2FD7F14120AE830B2FD7D017F007E56
:040CDE0001020AEC19
:0C0D0600EF7003C29622BF0102D29622B9
:100C6B00E4F5977593FFF594F5917592FC7595F0F6
:100C7B0075960FD2A1D2A3C297120D1D120CE212C0
:070C8B000CF4D2B2020CCE02
:0A0D1D00E4F5D8F5F9F5E9F5D9225F
:100C9200AC07E4120705E4FBFA792078401205F567
:0E0CA2001207398FEA8FFA75DA42E4F5F22272
:100CB000AC07E4120705E4FBFA792078401205F549
:0E0CC0001207398FEB8FFB75DB42E4F5F32250
:04081D007D9C7F0639
:100821008D10E510700122D3E510648094E4400539
:10083100751064800CC3E5106480941C500375101E
:100841009CEFB40700400302095A900852F8282887
:10085100730208670208910208AC0208E702090462
:1008610002092102093ED2DED3E510648094804062
:1008710008AF10120CB0C29522C3E51064809480B9
:10088100400302095AAF10120D37120CB0D2952253
:10089100D2DED3E5106480948040028020C3E5104D
:1008A10064809480400302095A8030D2DED3E5107F
:1008B10064809480400FAF10120CB0C295AF10123B
:1008C1000C92C29222C3E510648094804003020915
:1008D1005AAF10120D37120CB0D295AF10120D375E
:1008E100120C92D29222D297D3E510648094804068
:1008F10004D2A0800BC3E510648094805002C2A092
:10090100C2A122D297D3E510648094804004D2A280
:10091100800BC3E510648094805002C2A2C2A3225E
:10092100C297D3E510648094804004C2A0800BC3B9
:10093100E510648094805002D2A0C2A122C297D354
:10094100E510648094804004C2A2800BC3E510646A
:0A0951008094805002D2A2C2A322BB
:100B4D00EFB40700504C900B5AF8282873020B6F26
:100B5D00020B71020B79020B8A020B8E020B9202B1
:100B6D000B998011E4FF120C92C29222C2DEE4FFB7
:100B7D00120C92C292E4FF120CB0C29522D2978051
:100B8D0006D2978009C297C2A0D2A122C297C2A253
:030B9D00D2A322BE
:100C2A008F13E513B401187D9C7F0312082120B3AA
:100C3A00FD7D017F147E00120AEC20B3EA80167D46
:100C4A00647F0312082120B4FD7D017F147E001207
:100C5A000AEC20B4EA7F03120B4D90000CE513F066
:010C6A002267
:10095B008F14E51424FE602F24FE606224FE7003C6
:10096B000209FF24FE7003020A3424086003020A02
:10097B00497D647F05120821120AE120A4FD120AA9
:10098B00E620A4ED020A4990000DE0FFE514D39F89
:10099B0040167D9C7F05120821120AE120A5FD124D
:1009AB000AE620A5ED020A497D647F051208211293
:1009BB000AE120A5FD120AE620A5ED020A499000E6
:1009CB000DE0FFE514D39F40167D9C7F0512082197
:1009DB00120AE120A6FD120AE620A6ED020A497DC5
:1009EB00647F05120821120AE120A6FD120AE620F7
:1009FB00A6ED804A90000DE0FFE514D39F40157DD6
:100A0B009C7F05120821120AE120A7FD120AE6209D
:100A1B00A7ED802A7D647F05120821120AE120A729
:100A2B00FD120AE620A7ED80157D9C7F051208219B
:100A3B007F01120AE320A4FD120AE620A4EB7F0536
:0A0A4B00120B4D90000DE514F0228F
:100BA0008F15E51524FC601C2404702E7D647F04E1
:100BB00012082120B5FD7D017F147E00120AEC2071
:100BC000B5EA80167D9C7F0412082120B6FD7D01C8
:100BD0007F147E00120AEC20B6EA7F04120B4D90BF
:060BE000000EE515F022F5
:10036E008F16E5161470030204221470030204BDE6
:10037E00147003020554240360030205E990000F74
:10038E00E024FE604914606B240260030205E9124A
:10039E00081D7F01120D067D027E00120AEC20A5BB
:1003AE00FD7D017F197E00120AEC20A5F130A5FD1E
:1003BE007D017F197E00120AEC30A5F120A5FD7D8E
:1003CE00017F197E00120AEC20A5F10205E97D6479
:1003DE007F061208217F01120D067D027E00120A91
:1003EE00EC20A5FD7D017F197E00120AEC20A5F1FF
:1003FE000205E912081D7F01120D067D027E001214
:10040E000AEC20A5FD7D017F197E00120AEC20A5C5
:10041E00F10205E990000FE024FE604D14606B249C
:10042E000360030205E97D647F061208217F011235
:10043E000D067D027E00120AEC20A5FD7D017F19BE
:10044E007E00120AEC20A5F130A5FD7D017F197EFC
:10045E0000120AEC30A5F120A5FD7D017F197E006A
:10046E00120AEC20A5F10205E912081D7F01120DFA
:10047E00067D027E00120AEC20A5FD7D017F197E0D
:10048E0000120AEC20A5F10205E97D647F06120830
:10049E00217F01120D067D027E00120AEC20A5FDC1
:1004AE007D017F197E00120AEC20A5F10205E9906C
:1004BE00000FE014602C24FE604D2403600302053F
:1004CE00E912081D7F01120D067D027E00120AEC54
:1004DE0020A5FD7D017F197E00120AEC20A5F102F8
:1004EE0005E97D647F061208217F01120D067D024B
:1004FE007E00120AEC20A5FD7D017F197E00120AF6
:10050E00EC20A5F10205E912081D7F01120D067DF2
:10051E00027E00120AEC20A5FD7D017F197E0012DD
:10052E000AEC20A5F130A5FD7D017F197E00120A8F
:10053E00EC30A5F120A5FD7D017F197E00120AEC9D
:10054E0020A5F10205E990000FE014602E14604B17
:10055E00240260030205E97D647F061208217F01F3
:10056E00120D067D027E00120AEC20A5FD7D017F94
:10057E00197E00120AEC20A5F1806012081D7F0181
:10058E00120D067D027E00120AEC20A5FD7D017F74
:10059E00197E00120AEC20A5F180407D647F0612C0
:1005AE0008217F01120D067D027E00120AEC20A5A5
:1005BE00FD7D017F197E00120AEC20A5F130A5FD0C
:1005CE007D017F197E00120AEC30A5F120A5FD7D7C
:1005DE00017F197E00120AEC20A5F17F06120B4D49
:0705EE0090000FE516F0225A
:060003008F088D098B0A35
:10000900C200E4F50D85090E85090FF50B750C0283
:10001900E509FD7C00C3E50C9DE50B9C5021900092
:1000290010E0FEA3E0FF1207BA7D01120AEC050CED
:10003900E50C7002050B14FD7F0212082180D185A1
:10004900090E85090F30870320810630866B3080C1
:1000590068D200E50DC395085003020247E50A641A
:100069000270267DECFF1208217D017FF47E0112CA
:100079000AEC3084FD3083FAE4FD7F64FE120AEC59
:100089003084EF3083EC020240E50A640360030226
:1000990002477DEC7F011208217D017FF47E011268
:1000A9000AEC3084FD3083FAE4FD7F64FE120AEC29
:1000B9003084EF3083EC020240200003020247053E
:1000C9000DE50DC395085003020245E50A600302D8
:1000D9000245F50BF50CD3900001E0950C9000005A
:1000E900E0950B5003020240AC09E4120705743392
:1000F900FBFAF9783F1205F51207398F0E8F0F3089
:10010900852BAC0EE41207057466FBFAF9783F12E9
:1001190005F51207398F0EAC0FE41207057BCD7A6E
:10012900CC798C783F1205F51207398F0F30822B65
:10013900AC0EE41207057BCD7ACC798C783F120599
:10014900F51207398F0EAC0FE41207057466FBFA36
:10015900F9783F1205F51207398F0F30862CAC0E4E
:10016900E41207057BCD7ACC794C783F1205F5125C
:1001790007398F0EAC0FE41207057B9A7A997999A2
:10018900783F1205F51207398F0F30812CAC0EE438
:100199001207057B9A7A997999783F1205F5120722
:1001A900398F0EAC0FE41207057BCD7ACC794C78E8
:1001B9003F1205F51207398F0F30872BAC0EE41269
:1001C90007057433FBFAF9783F1205F51207398FE1
:1001D9000EAC0FE41207057B667A6679A6783F12A2
:1001E90005F51207398F0F30802BAC0EE412070585
:1001F9007B667A6679A6783F1205F51207398F0E64
:10020900AC0FE41207057433FBFAF9783F1205F5D0
:100219001207398F0FAD0EE4FF120821AD0F7F01D0
:100229001208217D017F017E00120AEC050CE50C04
:100239007002050B0200DF7F02020B4DC200308500
:100249002BAC0EE41207057466FBFAF9783F120528
:10025900F51207398F0EAC0FE41207057BCD7ACC66
:10026900798C783F1205F51207398F0F30822BAC44
:100279000EE41207057BCD7ACC798C783F1205F50F
:100289001207398F0EAC0FE41207057466FBFAF9F1
:10029900783F1205F51207398F0F30862CAC0EE422
:1002A9001207057BCD7ACC794C783F1205F51207F8
:1002B900398F0EAC0FE41207057B9A7A99799978F0
:1002C9003F1205F51207398F0F30812CAC0EE4125D
:1002D90007057B9A7A997999783F1205F5120739BA
:1002E9008F0EAC0FE41207057BCD7ACC794C783FA1
:1002F9001205F51207398F0F30872BAC0EE4120760
:10030900057433FBFAF9783F1205F51207398F0E98
:10031900AC0FE41207057B667A6679A6783F120569
:10032900F51207398F0F30802BAC0EE41207057BCD
:10033900667A6679A6783F1205F51207398F0EACF1
:100349000FE41207057433FBFAF9783F1205F51229
:1003590007398F0FAD0EE4FF120821AD0F7F01128F
:0503690008210200481C
:1005F500EC4D6011E8497017ED33EC3304600DE400
:10060500FCFFFEFD22E933E8330470F80207A5126A
:10061500077058046009E4CC24815006285009026B
:1006250007AF2840030207ACC0E0EB4A7044B9802D
:1006350006D0E0FB02079BEF4E701CBD8008EBFF68
:10064500EAFEE9FD80EBE98DF0A4FEE5F00206DEA9
:10065500E9CDF9EAFEEBFFEF89F0A4FCE5F0CE89E0
:10066500F0A42EFFE435F0CD89F0A42DFEE435F09D
:100675008067EF4E7005BD80D780C3EF8BF0A4ACCB
:10068500F0EE8BF0A42CFCE435F0F8EF8AF0A42C06
:10069500E5F038FCE433CB8DF0A42CFCE5F03BF819
:1006A500EE8AF0A42CFCE5F038F8E433CF89F0A409
:1006B5002CFCE5F038CF3400CE89F0A42FFFE5F00F
:1006C5003EFEE433C98DF0A42EFEE5F039CD8AF067
:1006D500A42FFFE5F03EFEE43DFD33D0E0FB5007DF
:1006E5000BBB000F0207AFEC2CFCEF33FFEE33FE24
:0606F500ED33FD02078752
:1006FB0075F020800E75F010800575F0087D007E7A
:10070B00007F003392D530D50312080FEC33401025
:10071B00EF33FFEE33FEED33FDEC33FCD5F0ED2282
:0E072B00E5F0247EA2D513CC92E7CDCEFF22BE
:10073900EDD2E7CD33EC3392D524814006E4FFFEB8
:10074900FDFC22FCE4CFCECDCC24E0501174FF8017
:10075900EDC3CC13CCCD13CDCE13CECF13CF0470B4
:07076900F030D5DE02080F9D
:10077000E9D2E7C933E833F892D5EDD2E7CD33ECCF
:0707800033FC5002B2D52248
:10078700EC30E7100FBF000C0EBE00080DBD0004D3
:100797000BEB6014A2D5EB13FCED92E7FD2274FF7F
:1007A700FCFDFEFF22E480F8A2D574FF13FC7D80D8
:0307B700E480EFEC
:100A6100020BE6E493A3F8E493A34003F68001F2BA
:100A710008DFF48029E493A3F85407240CC8C33396
:100A8100C4540F4420C8834004F456800146F6DF65
:100A9100E4800B0102040810204080900D12E47ED6
:100AA100019360BCA3FF543F30E509541FFEE4935A
:100AB100A360010ECF54C025E060A840B8E493A321
:100AC100FAE493A3F8E493A3C8C582C8CAC583CA4C
:100AD100F0A3C8C582C8CAC583CADFE9DEE780BE04
:010D1C0000D6
:1007BA00BC000BBE0029EF8DF084FFADF022E4CC23
:1007CA00F875F008EF2FFFEE33FEEC33FCEE9DECEC
:1007DA00984005FCEE9DFE0FD5F0E9E4CEFD22ED32
:1007EA00F8F5F0EE8420D21CFEADF075F008EF2F7C
:1007FA00FFED33FD4007985006D5F0F222C398FD6D
:05080A000FD5F0EA2209
:0E080F00C3E49FFFE49EFEE49DFDE49CFC22FA
:080D3700EF30E703F404FF2292
:00000001FF
