:030000000238269D
:0C382600787FE4F6D8FD75814502386D0E
:103C8F002573200A005265616479210053544F5007
:013C9F000024
:043B4C000218000556
:1038B200123AFBE4900062F0A3F0A3F0A3F0A37429
:1038C20004F0A3F0A314F0752DFF752E3C752F9410
:1038D2007BFF7A3C798F122A417F02122E4E1236DA
:1038E200907529AC75289D7527147526057FD37EA2
:1038F200E47DB97C0312001E752DFF752E3C752FD9
:103902009B7BFF7A3C798F122A417F031239E57F34
:10391200041239E57F051239E57F061239E57F0287
:073922001239E5C2AF80FE7F
:03000300020006F2
:0100060032C7
:03000B00023BE9CC
:103BE900C0E0C0F0C083C082C0D075D008123CA02C
:0B3BF900D0D0D082D083D0F0D0E032DA
:03001B00023C04A0
:103C0400C0E0C0F0C083C082C0D075D008123CC6EA
:0B3C1400D0D0D082D083D0F0D0E032BE
:103761002573200A0030202D2D3E20330030202DDE
:103771002D3E20370032202D2D3E20330031202DCB
:103781002D3E20330030202D2D3E20310030202DC4
:103791002D3E20320030202D2D3E20350030202DB1
:1037A1002D3E20360032202D2D3E20310032202D9D
:1037B1002D3E20300031202D2D3E20320031202D94
:1037C1002D3E20300034202D2D3E20370034202D79
:1037D1002D3E20330036202D2D3E20370035202D63
:1037E1002D3E20370034202D2D3E20350034202D54
:1037F1002D3E20360034202D2D3E20310034202D49
:103801002D3E20320036202D2D3E20350036202D34
:103811002D3E20340035202D2D3E20360035202D23
:053821002D3E203400E3
:103B50005A006961A800C8003A0320029A02AC0228
:103B6000AC029A01F401F405C8084A084A021A0096
:013B70000054
:063929007F197D017E0004
:10392F00ED14601A14603624027055EF1FAC067048
:10393F00011ED39400EC94004046000080EDEF1F71
:0D394F00AC0670011ED39400EC94004033D0
:0E395C000000752D0C752EA8D52EFDD52DFA68
:10396A0080E1EF1FAC0670011ED39400EC94004076
:01397A001438
:10397B00752D2E752E99752FF5D52FFDD52EFAD5C4
:02398B002DF716
:02398D0080DDDB
:01398F002215
:103C3A00438E805389F0438901758A20758CD1C2DD
:063C4A008DD2A9D2AF22C9
:103C5000538EBF53890F438910758BE0758DB1C2A8
:063C60008FD2ABD2AF22AF
:103CA000758A20758CD100051BE51B7002051A2250
:083CC600758BE0758DB1002241
:103C7B0020B2FD7F1412392B30B2FD7D017F007E07
:043C8B000102392FCA
:0C3CB000EF7003C29622BF0102D29622E0
:103AFB00E4F5977593FFF594F5917592FC7595F038
:103B0B0075960FD2A1D2A3C297123CBC123C3A12AB
:0A3B1B003C50123C66D2B2023C7B23
:0A3CBC00E4F5D8F5F9F5E9F5D92291
:103B7200AC07E4122050E4FBFA79207840121EA030
:0E3B82001220848FEA8FFA75DA42E4F5F222FF
:103B9000AC07E4122050E4FBFA79207840121EA012
:0E3BA0001220848FEB8FFB75DB42E4F5F322DD
:04342D007D647F0437
:103431008D2DE52D700122D3E52D648094E44005A6
:10344100752D64800CC3E52D6480941C5003752D8B
:103451009CEFB40700400302356A903462F82828D3
:10346100730234770234A10234BC0234F7023514FA
:1034710002353102354ED2DED3E52D648094804091
:1034810008AF2D123B90C29522C3E52D6480948034
:10349100400302356AAF2D123CCE123B90D29522E9
:1034A100D2DED3E52D6480948040028020C3E52DD7
:1034B10064809480400302356A8030D2DED3E52DEA
:1034C10064809480400FAF2D123B90C295AF2D12B6
:1034D1003B72C29222C3E52D648094804003023581
:1034E1006AAF2D123CCE123B90D295AF2D123CCE3D
:1034F100123B72D29222D297D3E52D648094804000
:1035010004D2A0800BC3E52D648094805002C2A038
:10351100C2A122D297D3E52D648094804004D2A227
:10352100800BC3E52D648094805002C2A2C2A32205
:10353100C297D3E52D648094804004C2A0800BC360
:10354100E52D648094805002D2A0C2A122C297D3FB
:10355100E52D648094804004C2A2800BC3E52D64F4
:0A3561008094805002D2A2C2A3227F
:1039E500EFB40700504C9039F2F8282873023A07D3
:1039F500023A09023A11023A22023A26023A2A0208
:103A05003A318011E4FF123B72C29222C2DEE4FF1A
:103A1500123B72C292E4FF123B90C29522D297806C
:103A250006D2978009C297C2A0D2A122C297C2A28C
:033A3500D2A322F7
:103A87008F2A900065E0652A603EE52AB401187D1B
:103A97009C7F0312343120B3FD7D017F147E001219
:103AA700392F20B3EA80167D647F0312343120B4A6
:103AB700FD7D017F147E0012392F20B4EA7F0312A7
:093AC70039E5900065E52AF022C2
:103053008F2A900066E0652A700302324BE52AB49A
:1030630009004003023240903071F828287302307F
:103073008C0230B70230DF02311D02314A02318443
:103083000231B10231EA0232117D647F051234311B
:10309300E4FF123CB07D017F327E0012392F20A461
:1030A300FD7D017F147E0012392F20A4F17F147E51
:1030B3000002323D900066E0FFE52AD39F40047D85
:1030C3009C80077F021230537D647F051234319058
:1030D300006FE0FEA3E0FF7D0102323D900066E059
:1030E300FFE52AD39F40047D9C80027D647F051207
:1030F3003431E4FF123CB07D017F327E0012392F60
:1031030020A5FD7D017F147E0012392F20A5F190AB
:10311300006DE0FEA3E0FF02323D900066E0FFE5B4
:103123002AD39F40097F021230537D9C80077F047E
:103133001230537D647F0512343190006FE0FEA39B
:10314300E0FF7D0102323D900066E0FFE52AD39F58
:1031530040047D9C80027D647F05123431E4FF12BC
:103163003CB07D017F327E0012392F20A6FD9000F6
:103173006DE0FEA3E0FF7D0112392F20A6ED0232A0
:1031830040900066E0FFE52AD39F40097F04123098
:10319300537D9C80077F061230537D647F05123474
:1031A3003190006FE0FEA3E0FF7D0102323D90000D
:1031B30066E0FFE52AD39F40047D9C80027D647F07
:1031C30005123431E4FF123CB07D017F327E0012E0
:1031D300392F20A7FD90006DE0FEA3E0FF7D0112D3
:1031E300392F20A7ED8056900066E0FFE52AD39F94
:1031F30040097F061230537D9C80027D647F051257
:10320300343190006FE0FEA3E0FF7D01802C7D9CB4
:103213007F051234317F01123CB07D017F327E0085
:1032230012392F20A4FD7D017F147E0012392F2037
:10323300A4F190006DE0FEA3E0FF12392F7F051289
:0932430039E5900066E52AF0224D
:10356B008F2C900067E0652C700302368FE52C14CE
:10357B00602B14606514700302362214700302363C
:10358B00672404600302368412342D20B5FD7D01BF
:10359B007F147E0012392F20B5EE02367D90006726
:1035AB00E024FE601A1460201460262404600302D9
:1035BB0036847D9C7F0412343190007102365E128A
:1035CB00342D90007302365E12342D90007D02363E
:1035DB005E12342D90008102365E900067E014601D
:1035EB001A24FE6022146027240460030236847DB3
:1035FB009C7F0412343190007980587D9C7F04129B
:10360B003431900073804C12342D9000758044122D
:10361B00342D90007B803C900067E01460171460A1
:10362B002024FE6028240470507D9C7F04123431CA
:10363B0090007F801E7D9C7F0412343190007D8032
:10364B00127D9C7F04123431900075800612342D4C
:10365B00900077E0FEA3E0FF7D01801A7D9C7F0444
:10366B0012343120B6FD7D017F147E0012392F20DC
:10367B00B6EA7F147E0012392F7F041239E59000D1
:05368B0067E52CF022B0
:102E4E008F2A7F01123CB0E52A147003022EE8147B
:102E5E007003022F60147003022FD8240360030244
:102E6E003047900068E024FE603814605124026000
:102E7E00030230477D9C7F061234317D027F017E36
:102E8E000012392F20A5FD12392920A5F730A5FDF6
:102E9E0012392930A5F720A5FD12392920A5F702F0
:102EAE0030477D647F061234317D027F017E001231
:102EBE00392F20A5FD12392920A5F70230477D9C18
:102ECE007F061234317D027F017E0012392F20A53C
:102EDE00FD12392920A5F7023047900068E024FE44
:102EEE006038146051240360030230477D647F060E
:102EFE001234317D027F017E0012392F20A5FD1282
:102F0E00392920A5F730A5FD12392930A5F720A5BE
:102F1E00FD12392920A5F70230477D9C7F06123419
:102F2E00317D027F017E0012392F20A5FD12392935
:102F3E0020A5F70230477D647F061234317D027F73
:102F4E00017E0012392F20A5FD12392920A5F70286
:102F5E003047900068E014602724FE603F24036031
:102F6E00030230477D9C7F061234317D027F017E45
:102F7E000012392F20A5FD12392920A5F70230475E
:102F8E007D647F061234317D027F017E0012392F5F
:102F9E0020A5FD12392920A5F70230477D9C7F061A
:102FAE001234317D027F017E0012392F20A5FD12D1
:102FBE00392920A5F730A5FD12392930A5F720A50E
:102FCE00FD12392920A5F7023047900068E0146001
:102FDE002214603A240270617D647F061234317DC2
:102FEE00027F017E0012392F20A5FD12392920A55E
:102FFE00F780467D9C7F061234317D027F017E0074
:10300E0012392F20A5FD12392920A5F7802B7D64BA
:10301E007F061234317D027F017E0012392F20A5EA
:10302E00FD12392920A5F730A5FD12392930A5F753
:10303E0020A5FD12392920A5F77F061239E590004B
:05304E0068E52AF022F4
:063AD000900050E004FF2D
:103AD600EF24FE600E14600F146010240370107F34
:103AE60002800E7F04800A7F0680067F088002E43B
:053AF600FF1230532215
:10324C008F2A8D2B900068E0FF652B7003023427CA
:10325C00E52B14601C14602E14604024037057EF8F
:10326C0024FE60091460082402704B803E8040806C
:10327C003A900068E024FE6009146008240370365C
:10328C00802D80278029900068E014600A24FE605D
:10329C000824037021801480168010900068E014BC
:1032AC00600914600A2402700D80047D9C80027DEC
:1032BC00647F061234317D027F017E0012392FAFFC
:1032CC002A12356B7F01123CB0E52B14606114702F
:1032DC00030233891470030233D6240360030234CF
:1032EC001B900068E024FE602E14603724026003FB
:1032FC0002341B20A5FD12392920A5F730A5FD7D30
:10330C00027F017E0012392F30A5F120A5FD123964
:10331C002920A5F702341B20A5FD12392920A5F779
:10332C0002341B20A5FD12392920A5F702341B906D
:10333C000068E024FE602E1460372403600302341E
:10334C001B20A5FD12392920A5F730A5FD7D027F94
:10335C00017E0012392F30A5F120A5FD123929204C
:10336C00A5F702341B20A5FD12392920A5F702343C
:10337C001B20A5FD12392920A5F702341B900068EB
:10338C00E014601724FE601F2403600302341B202A
:10339C00A5FD12392920A5F702341B20A5FD1239F1
:1033AC002920A5F702341B20A5FD12392920A5F7E9
:1033BC0030A5FD7D027F017E0012392F30A5F12052
:1033CC00A5FD12392920A5F78045900068E014600E
:1033DC001214601A2402703720A5FD12392920A579
:1033EC00F7802C20A5FD12392920A5F7802120A5D6
:1033FC00FD12392920A5F730A5FD7D027F017E0045
:10340C0012392F30A5F120A5FD12392920A5F77FFF
:10341C00061239E5900068E52BF022AF2A12356BC5
:01342C00227D
:103A3800EFB408005048903A45F8282873023A5DD8
:103A4800023A61023A65023A69023A6D023A730231
:103A58003A79023A7F7D0280207D0280167D0280BD
:103A68000C7D0280027D03E4FF80107D037F0180CE
:0F3A78000A7D037F0380047D037F0412324C22FA
:062541008F108D118B12BA
:10254700C209E511F5F0A47C002DFDEC35F0FCE4A3
:1025570012204BE4FBFAF9783F121EA0C004C00515
:10256700C006C007900069E0FCA3E0FDE412204B21
:10257700D003D002D001D000121FA91220848E13DD
:102587008F14851116851117751501E515C395115A
:1025970040030226D4AF1505158F168F1730852BEC
:1025A700AC16E41220507466FBFAF9783F121EA0AD
:1025B7001220848F16AC17E41220507BCD7ACC7989
:1025C7008C783F121EA01220848F1730822BAC16F6
:1025D700E41220507BCD7ACC798C783F121EA01262
:1025E70020848F16AC17E41220507466FBFAF97832
:1025F7003F121EA01220848F1730862CAC16E412CF
:1026070020507BCD7ACC794C783F121EA0122084C3
:102617008F16AC17E41220507B9A7A997999783FF4
:10262700121EA01220848F1730812CAC16E41220C2
:10263700507B9A7A997999783F121EA01220848F3D
:1026470016AC17E41220507BCD7ACC794C783F1228
:102657001EA01220848F1730872BAC16E41220504F
:102667007433FBFAF9783F121EA01220848F16AC40
:1026770017E41220507B667A6679A6783F121EA06F
:102687001220848F1730802BAC16E41220507B6603
:102697007A6679A6783F121EA01220848F16AC178F
:1026A700E41220507433FBFAF9783F121EA012206F
:1026B700848F17AD177F01123431AD16E4FF123442
:1026C700317D01AF14AE1312392F022592E4F515AF
:1026D700308703208106308608308005D20902281A
:1026E700B22009030228B20515C209E515C39510E2
:1026F70050030228B2E51260686402702EAD117FA4
:10270700011234317DF6E4FF1234317D017FF47E0E
:102717000112392F3084FD3083FAE4FD7F64FE1205
:10272700392F3084EF3083EC0228ADE51264036063
:10273700030228B2AD11FF1234317DF67F01123446
:10274700317D017FF47E0112392F3084FD3083FA09
:10275700E4FD7F64FE12392F3084EF3083EC0228CA
:10276700AD851115E515D3940050030228ADAF15BB
:1027770015158F168F1730852BAC16E41220507461
:1027870066FBFAF9783F121EA01220848F16AC1749
:10279700E41220507BCD7ACC798C783F121EA012A0
:1027A70020848F1730822BAC16E41220507BCD7A11
:1027B700CC798C783F121EA01220848F16AC17E4B8
:1027C7001220507466FBFAF9783F121EA01220847B
:1027D7008F1730862CAC16E41220507BCD7ACC793B
:1027E7004C783F121EA01220848F16AC17E41220DB
:1027F700507B9A7A997999783F121EA01220848F7C
:102807001730812CAC16E41220507B9A7A9979996B
:10281700783F121EA01220848F16AC17E4122050A6
:102827007BCD7ACC794C783F121EA01220848F176B
:1028370030872BAC16E41220507433FBFAF9783F3B
:10284700121EA01220848F16AC17E41220507B664C
:102857007A6679A6783F121EA01220848F173080DF
:102867002BAC16E41220507B667A6679A6783F1265
:102877001EA01220848F16AC17E41220507433FB6D
:10288700FAF9783F121EA01220848F17AD177F0127
:10289700123431AD16E4FF1234317D01AF14AE139B
:1028A70012392F02276B7F020239E5AF118F168F7E
:1028B7001730852BAC16E41220507466FBFAF978B2
:1028C7003F121EA01220848F16AC17E41220507BF3
:1028D700CD7ACC798C783F121EA01220848F1730C6
:1028E700822BAC16E41220507BCD7ACC798C783FC2
:1028F700121EA01220848F16AC17E41220507466A3
:10290700FBFAF9783F121EA01220848F1730862C0D
:10291700AC16E41220507BCD7ACC794C783F121E4E
:10292700A01220848F16AC17E41220507B9A7A9954
:102937007999783F121EA01220848F1730812CAC12
:1029470016E41220507B9A7A997999783F121EA043
:102957001220848F16AC17E41220507BCD7ACC79E5
:102967004C783F121EA01220848F1730872BAC168D
:10297700E41220507433FBFAF9783F121EA012209C
:10298700848F16AC17E41220507B667A6679A67896
:102997003F121EA01220848F1730802BAC16E41232
:1029A70020507B667A6679A6783F121EA012208493
:1029B7008F16AC17E41220507433FBFAF9783F12E4
:1029C7001EA01220848F17AD16E4FF123431AD1705
:0829D7007F011234310226D702
:0D000E00E4F5C7F5C5F5C675C380F5C4223D
:103BAE0075C78375C5018FC48EC375C65A75C6A5F4
:0D3BBE00E4FD7F0AFE12392FAFC212000E87
:013BCB0022D7
:103BCC0075C78375C5028FC48EC38DC275C65A75F1
:0D3BDC00C6A5E4FD7F0AFE12392F02000E7F
:103C1F0075C78375C5038FC48EC375C65A75C6A580
:0B3C2F00E4FD7F0AFE12392F02000E98
:10369000E4FF12356B7F0412356BD28CE4FF1235D8
:1036A0006B7F0412356BC28CAC1AAD1BE412204B3D
:1036B0007B147AAE79C7783E121EA01220848E1A2F
:1036C0008F1BAC1AAD1BE412204BE4FBFAF9783FD8
:1036D000121EA0122084900079EEF0A3EFF0A3EE6A
:1036E000F0A3EFF0AC1AAD1BE412204BE4FBFA7927
:1036F00040783F121EA0122084900081EEF0A3EFCC
:10370000F090007FEEF0A3EFF0AC1AAD1BE41220B6
:103710004BE4FBFA7980783E121EA01220849000C0
:1037200077EEF0FDA3EFF0900071CDF0A3EDF090F7
:103730000075EEF0A3EFF0900073EEF0A3EFF0ACA5
:103740001AAD1BE412204BE4FBFAF9783F121EA0DD
:1037500012208490007DEEF0A3EFF0E4F51AF51B43
:013760002246
:103C6600438780759850438E04759CD9438E0143D3
:053C76008E10D299221E
:08001E008F258E248D238C2216
:10002600E4900058F0A3F0A3F0FE7F50FD7B017A28
:100036000079001225157E007F087D007B017A007D
:1000460079501225157B807A9679987800AF25AE7F
:1000560024AD23AC22122433E47B0AFAF9F81224E5
:1000660033900002EBF07B407A42790F7800AF259F
:10007600AE24AD23AC22122433E47B0AFAF9F8123B
:100086002433900004EBF07BA07A8679017800AFE8
:1000960025AE24AD23AC22122433E47B0AFAF9F808
:1000A600122433900006EBF0E47B107A27F9F8AFC0
:1000B60025AE24AD23AC22122433E47B0AFAF9F8E8
:1000C600122433900008EBF0E47BE87A03F9F8AFEA
:1000D60025AE24AD23AC22122433E47B0AFAF9F8C8
:1000E60012243390002AEBF0E47B64FAF9F8AF258A
:1000F600AE24AD23AC22122433E47B0AFAF9F812BB
:10010600243390002CEBF0E47B0AFAF9F8AF25AE25
:1001160024AD23AC22122433E47B0AFAF9F8122424
:100126003390002EEBF0E47B0AFAF9F8AF25AE2403
:10013600AD23AC22122433900030EBF07B807A960C
:1001460079987800AF29AE28AD27AC26122433E47F
:100156007B0AFAF9F8122433900020EBF07B407A00
:1001660042790F7800AF29AE28AD27AC261224338A
:10017600E47B0AFAF9F8122433900022EBF07BA014
:100186007A8679017800AF29AE28AD27AC261224ED
:1001960033E47B0AFAF9F8122433900024EBF0E4F6
:1001A6007B107A27F9F8AF29AE28AD27AC261224A2
:1001B60033E47B0AFAF9F8122433900026EBF0E4D4
:1001C6007BE87A03F9F8AF29AE28AD27AC261224CE
:1001D60033E47B0AFAF9F8122433900048EBF0E492
:1001E6007B64FAF9F8AF29AE28AD27AC2612243382
:1001F600E47B0AFAF9F812243390004AEBF0E47B28
:100206000AFAF9F8AF29AE28AD27AC26122433E452
:100216007B0AFAF9F812243390004CEBF0E47B0ADF
:10022600FAF9F8AF29AE28AD27AC26122433900090
:100236004EEBF09000217401F090002304F0900042
:100246002504F090002704F090004904F090004B3C
:1002560004F090004D04F090004F04F090005874A4
:1002660004F0900058E0FFD3940050030205AAEF73
:1002760025E02400F582E43400F583E0FF900020B9
:10028600E0FEEFB50629900058E0FF25E02400F5D2
:1002960082E43400F583E06016900021E0FEEF254D
:1002A600E02401F582E43400F583EEF002041390B5
:1002B6000058E0FF25E02400F582E43400F583E0F1
:1002C600FE900022E0FDEEB50515EF25E02400F5D1
:1002D60082E43400F583E060069000230204009077
:1002E6000058E0FF25E02400F582E43400F583E0C1
:1002F600FE900024E0FDEEB50515EF25E02400F59F
:1003060082E43400F583E060069000250204009044
:100316000058E0FF25E02400F582E43400F583E090
:10032600FE900026E0FDEEB50515EF25E02400F56C
:1003360082E43400F583E060069000270204009012
:100346000058E0FF25E02400F582E43400F583E060
:10035600FE900048E0FDEEB50515EF25E02400F51A
:1003660082E43400F583E0600690004902040090C0
:100376000058E0FF25E02400F582E43400F583E030
:10038600FE90004AE0FDEEB50514EF25E02400F5E9
:1003960082E43400F583E0600590004B805C9000B9
:1003A60058E0FF25E02400F582E43400F583E0FE02
:1003B60090004CE0FDEEB50514EF25E02400F58233
:1003C600E43400F583E0600590004D802D900058E0
:1003D600E0FF25E02400F582E43400F583E0FE909A
:1003E600004EE0FDEEB50525EF25E02400F582E49C
:1003F6003400F583E0601690004FE0FF900058E06F
:1004060025E02401F582E43400F583EFF0900058EE
:10041600E0FF25E02428F582E43400F583E0FE9031
:100426000020E0FDEEB50515EF25E02428F582E471
:100436003400F583E0600690002102058E90005896
:10044600E0FF25E02428F582E43400F583E0FE9001
:100456000022E0FDEEB50515EF25E02428F582E43F
:100466003400F583E0600690002302058E90005864
:10047600E0FF25E02428F582E43400F583E0FE90D1
:100486000024E0FDEEB50515EF25E02428F582E40D
:100496003400F583E0600690002502058E90005832
:1004A600E0FF25E02428F582E43400F583E0FE90A1
:1004B6000026E0FDEEB50515EF25E02428F582E4DB
:1004C6003400F583E0600690002702058E90005800
:1004D600E0FF25E02428F582E43400F583E0FE9071
:1004E6000048E0FDEEB50515EF25E02428F582E489
:1004F6003400F583E0600690004902058E900058AE
:10050600E0FF25E02428F582E43400F583E0FE9040
:10051600004AE0FDEEB50514EF25E02428F582E457
:100526003400F583E0600590004B805C900058E055
:10053600FF25E02428F582E43400F583E0FE9000F0
:100546004CE0FDEEB50514EF25E02428F582E434F1
:1005560000F583E0600590004D802D900058E0FF87
:1005660025E02428F582E43400F583E0FE90004E71
:10057600E0FDEEB50525EF25E02428F582E43400FC
:10058600F583E0601690004FE0FF900058E025E00C
:100596002429F582E43400F583EFF0900058E01446
:1005A600F0020268E4900058F0E4900059F09000E0
:1005B60059E0FFD394045022900058E075F00AA445
:1005C6002400F582E43400F58375F002EF1224D39B
:1005D600E4F0900059E004F080D4900058E004F074
:1005E600E0B408C5E4900058F0900058E0FF25E01C
:1005F6002401F582E43400F583E0FEEF25E02400D3
:10060600F582E43400F583EEF0900058E0FF25E033
:100616002429F582E43400F583E0FEEF25E0242862
:10062600F582E43400F583EEF0900058E004F0E043
:10063600B405B6E4900058F0900058E0FFD3940457
:10064600505CEF25E02401F582E43400F583E4F004
:10065600EF25E0240BF582E43400F583E4F0EF2582
:10066600E02415F582E43400F583E4F0EF25E02478
:1006760029F582E43400F583E4F0EF25E02433F530
:1006860082E43400F583E4F0EF25E0243DF582E4CE
:100696003400F583E4F0900058E004F0809AE4908A
:1006A6000058F0900058E0FFD39407505C74502F28
:1006B600F582E43400F5837404F0E4900059F09078
:1006C6000059E0FFD394045038900058E0FE75F0CE
:1006D6000AA42400F582E43400F58375F002EF12D3
:1006E60024D3E06014900059E014FF74502EF58274
:1006F600E43400F583EFF08008900059E004F080C0
:10070600BE900058E004F0809AE4FF1230537F0157
:10071600123A87900068E06003B40105E4FF123ADC
:1007260038900068E0640260030212B1900053E062
:1007360025E0241FF582E43400F583E0FF900050A5
:10074600E0FE25E02402F582E43400F583E06F60E4
:100756000302080DEEC39404400302080D752DFF35
:10076600752E37752F667BFF7A377961122A41120B
:100776003990123AD6E4FF123A38123AD0E4FF1210
:100786003A87900051E0F52BA3E0F52CA3E0F52D78
:100796007F031239A4EF14FF900050E0FEC39F5070
:1007A60004AF068016900051E0F52BA3E0F52CA3CC
:1007B600E0F52D7F031239A4EF14FF123AD67F031A
:1007C600123A38900053E0FF123AD67F01123A8768
:1007D600900050E0FF25E02402F582E43400F58322
:1007E600E0FE900053E025E0241EF582E43400F597
:1007F60083EEF0EF25E02402F582E43400F583E48D
:10080600F0900050020A87900057E025E02447F553
:1008160082E43400F583E0FF900050E0FE25E024FA
:1008260002F582E43400F583E06F60030208F2EE1D
:10083600C3940440030208F2752DFF752E37752FF9
:100846006E7BFF7A377961122A41123990123AD6B5
:10085600E4FF123A38123AD0E4FF123A8790005178
:10086600E0F52B900056E0F52CA3E0F52D7F031262
:1008760039A4EF14FF900050E0FEC39F5004AF066A
:100886008018900051E0F52B900056E0F52CA3E07F
:10089600F52D7F031239A4EF14FF123AD67F071203
:1008A6003A38900057E0FF123AD67F01123A879005
:1008B6000050E0FF25E02402F582E43400F583E0F1
:1008C600FE900057E025E02446F582E43400F583E7
:1008D600EEF0EF25E02402F582E43400F583E4F03F
:1008E600900050E004F09000570211D7900053E0BA
:1008F60025E0241FF582E43400F583E0FF900052E2
:10090600E0FE25E02416F582E43400F583E06F600E
:10091600030209B1EEC3940440030209B1752DFF29
:10092600752E37752F767BFF7A377961122A411239
:100936003990123AD67F02123A38900052E004FFFC
:10094600123AD6E4FF123A87900053E014FF900063
:1009560052E0FEC39F5004AF068000123AD67F03D2
:10096600123A38900053E0FF123AD67F01123A87C6
:10097600900052E0FF25E02416F582E43400F5836A
:10098600E0FE900053E025E0241EF582E43400F5F5
:1009960083EEF0EF25E02416F582E43400F583E4D7
:1009A600F0900052E004F0A30211D7900053E02526
:1009B600E0241FF582E43400F583E0FF900051E067
:1009C600FE25E0240CF582E43400F583E06F600335
:1009D600020A90EEC394044003020A90752DFF7537
:1009E6002E37752F7E7BFF7A377961122A411239AD
:1009F60090123AD67F01123A38900051E004FF1265
:100A06003AD6E4FF123A87900052E0F52BA3E0F5C0
:100A16002C7F021239A4EF14FF900051E0FEC39F11
:100A26005004AF068012900052E0F52BA3E0F52C9F
:100A36007F021239A4EF14FF123AD67F03123A3816
:100A4600900053E0FF123AD67F01123A8790005188
:100A5600E0FF25E0240CF582E43400F583E0FE9007
:100A66000053E025E0241EF582E43400F583EEF021
:100A7600EF25E0240CF582E43400F583E4F09000E1
:100A860051E004F09000530211D7900050E0FFC3EC
:100A960094034003020EDEEF25E02402F582E434DF
:100AA60000F583E0FF900021E0FEEF6E604F9000BE
:100AB60050E0FF25E02402F582E43400F583E0FEF1
:100AC600900023E0FDEE6D6034EF25E02402F58210
:100AD600E43400F583E0FF900025E0FEEF6E601D34
:100AE600900050E025E02402F582E43400F583E02E
:100AF600FF900027E0FEEF6E6003020CA990005104
:100B0600E0FFC394045025EF25E0240AF582E4347F
:100B160000F583E0FF900050E025E02402F582E432
:100B26003400F583E0D39F5003020BC6900051E0DA
:100B3600D394025003020BC6752DFF752E37752F01
:100B4600867BFF7A377961122A41123990123AD69A
:100B5600E4FF123A38123AD0E4FF123A8790005175
:100B6600E014FF900050E0FEC39F5004AF068000E3
:100B7600123AD67F01123A38900051E0FF123AD667
:100B86007F01123A87900050E0FF25E02402F582AB
:100B9600E43400F583E0FE900051E025E0240AF5F8
:100BA60082E43400F583EEF0EF25E02402F582E4DA
:100BB6003400F583E4F0900050E004F0A30211D76E
:100BC600900052E0FFC394045025EF25E02414F56D
:100BD60082E43400F583E0FF900050E025E0240233
:100BE600F582E43400F583E0D39F50030211DA90D6
:100BF6000052E0D3940250030211DA752DFF752ED0
:100C060037752F8E7BFF7A377961122A4112399018
:100C1600123AD6E4FF123A38123AD0E4FF123A8773
:100C2600900051E0F52BA3E0F52C7F021239A4EFDA
:100C360014FF900050E0FEC39F5004AF0680129050
:100C46000051E0F52BA3E0F52C7F021239A4EF1436
:100C5600FF123AD67F02123A38900052E0FF123A5B
:100C6600D67F01123A87900050E0FF25E02402F576
:100C760082E43400F583E0FE900052E025E024147F
:100C8600F582E43400F583EEF0EF25E02402F582E8
:100C9600E43400F583E4F0900050E004F090005254
:100CA6000211D7900050E0FF25E02402F582E434DB
:100CB60000F583E0FE900049E0FDEE6D604CEF2507
:100CC600E02402F582E43400F583E0FF90004BE077
:100CD600FEEF6E6035900050E0FF25E02402F582BD
:100CE600E43400F583E0FE90004DE0FDEE6D601A01
:100CF600EF25E02402F582E43400F583E0FF90005E
:100D06004FE0FEEF6E60030211DA900055E0FFC37C
:100D160094045025EF25E02432F582E43400F5836F
:100D2600E0FF900050E025E02402F582E43400F56F
:100D360083E0D39F5003020DF7900055E0D3940251
:100D46005003020DF7752DFF752E37752F967BFF15
:100D56007A377961122A41123990123AD6E4FF1293
:100D66003A38123AD0E4FF123A87900051E0F52B58
:100D7600900055E0F52C7F021239A4EF14FF900085
:100D860050E0FEC39F5004AF068014900051E0F57A
:100D96002B900055E0F52C7F021239A4EF14FF12B8
:100DA6003AD67F05123A38900055E0FF123AD67FC0
:100DB60001123A87900050E0FF25E02402F582E414
:100DC6003400F583E0FE900055E025E02432F582FC
:100DD600E43400F583EEF0EF25E02402F582E434F6
:100DE60000F583E4F0900050E004F0900055021105
:100DF600D7900056E0FFC394045025EF25E0243C2D
:100E0600F582E43400F583E0FF900050E025E0240D
:100E160002F582E43400F583E0D39F50030211DA31
:100E2600900056E0D3940250030211DA752DFF7537
:100E36002E37752F9E7BFF7A377961122A41123938
:100E460090123AD6E4FF123A38123AD0E4FF123A38
:100E560087900051E0F52B900056E0F52C7F0212AA
:100E660039A4EF14FF900050E0FEC39F5004AF0674
:100E76008014900051E0F52B900056E0F52C7F028F
:100E86001239A4EF14FF123AD67F06123A389000B0
:100E960056E0FF123AD67F01123A87900050E0FFE3
:100EA60025E02402F582E43400F583E0FE90005646
:100EB600E025E0243CF582E43400F583EEF0EF25EE
:100EC600E02402F582E43400F583E4F0900050E07B
:100ED60004F09000560211D7900052E0FFC394032D
:100EE600400302106F900051E0FEC394045022EEBE
:100EF60025E0240AF582E43400F583E0FEEF25E0E0
:100F06002416F582E43400F583E0D39E5003020FE5
:100F1600B1900051E0D394025003020FB1752DFF3A
:100F2600752E37752FA67BFF7A377961122A411203
:100F36003990123AD67F02123A38900052E004FFF6
:100F4600123AD6E4FF123A87900051E014FFA3E06C
:100F5600FEC39F5004AF068000123AD67F01123AB4
:100F660038900051E0FF123AD67F01123A8790007E
:100F760052E0FF25E02416F582E43400F583E0FE16
:100F8600900051E025E0240AF582E43400F583EE72
:100F9600F0EF25E02416F582E43400F583E4F090C2
:100FA6000052E004F09000510211D7900050E0C3C7
:100FB600940450030211DA752DFF752E37752FAE86
:100FC6007BFF7A377961122A41123990123AD67F1D
:100FD60002123A38900052E004FF123AD6E4FF12A9
:100FE6003A87900051E0F52B900050E0F52C7F02F7
:100FF6001239A4EF14FF900052E0FEC39F5004AFD5
:10100600068014900051E0F52B900050E0F52C7FFF
:10101600021239A4EF14FF123AD6E4FF123A3890BE
:101026000050E0FF123AD67F01123A87900052E054
:10103600FF25E02416F582E43400F583E0FE9000F7
:1010460050E025E02400F582E43400F583EEF0EF6D
:1010560025E02416F582E43400F583E4F09000528E
:10106600E004F09000500211D7900051E0FFC394C5
:101076000340030211DAA3E0FEC394045022EE25D6
:10108600E02414F582E43400F583E0FEEF25E02445
:101096000CF582E43400F583E0D39E500302114040
:1010A600900052E0D394025003021140752DFF7553
:1010B6002E37752FB67BFF7A377961122A4112399E
:1010C60090123AD67F01123A38900051E004FF128E
:1010D6003AD6E4FF123A87900052E014FF9000518E
:1010E600E0FEC39F5004AF068000123AD67F02127C
:1010F6003A38900052E0FF123AD67F01123A8790B2
:101106000051E0FF25E0240CF582E43400F583E08D
:10111600FE900052E025E02414F582E43400F583C5
:10112600EEF0EF25E0240CF582E43400F583E4F0DC
:10113600900051E004F0A30211D7900050E0C39450
:101146000450030211DA752DFF752E37752FBE7BFD
:10115600FF7A377961122A41123990123AD67F0105
:10116600123A38900051E004FF123AD6E4FF123AE0
:1011760087900050E014FFA3E0FEC39F5004AF0623
:101186008000123AD6E4FF123A38900050E0FF127F
:101196003AD67F01123A87900051E0FF25E0240CF1
:1011A600F582E43400F583E0FE900050E025E0246B
:1011B60000F582E43400F583EEF0EF25E0240CF52B
:1011C60082E43400F583E4F0900051E004F09000EE
:1011D60050E014F0900027E0FF900026E06F703C8E
:1011E600900025E0FF900024E06F7030900023E02F
:1011F600FF900022E06F7024900021E0FF90002015
:10120600E0B50718900008E07012900006E0700C38
:10121600900004E07006900002E0601090005AE032
:10122600FF04F0EFD394C8500302072790004FE065
:10123600FF90004EE06F703F90004DE0FF90004C35
:10124600E06F703390004BE0FF90004AE06F70272C
:10125600900049E0FF900048E06F701B900030E07E
:10126600701590002EE0700F90002CE07009900031
:101276002AE07003021E85E490005AF0900050E0C8
:10128600F52BA3E0F52CA3E0F52DA3E0F52EA3E0C6
:10129600F52FA3E0F530A3E0F531A3E0F5327F08A2
:1012A6001239A41230537F03021E7F900068E06457
:1012B600036003020727900057E025E02447F582E4
:1012C600E43400F583E0FF900054E0FE25E0242A94
:1012D600F582E43400F583E06F60030213A0EEC3E9
:1012E600940440030213A0752DFF752E37752FC683
:1012F6007BFF7A377961122A419000541239931292
:101306003AD67F04123A38900054E004FF123AD6D7
:10131600E4FF123A87900055E0F52BA3E0F52CA3E5
:10132600E0F52D7F031239A4EF14FF900054E0FE80
:10133600C39F5004AF068016900055E0F52BA3E03E
:10134600F52CA3E0F52D7F031239A4EF14FF123A12
:10135600D67F07123A38900057E0FF123AD67F013F
:10136600123A87900054E0FF25E0242AF582E434FF
:1013760000F583E0FE900057E025E02446F582E480
:101386003400F583EEF0EF25E0242AF582E43400FC
:10139600F583E4F0900054021629900053E025E00E
:1013A600241FF582E43400F583E0FF900054E0FE4C
:1013B60025E0242AF582E43400F583E06F60030219
:1013C600148EEEC39404400302148E752DFF752E01
:1013D60037752FCE7BFF7A377961122A41900054F8
:1013E600123993123AD67F04123A38900054E00428
:1013F600FF123AD6E4FF123A87900055E0F52B909B
:101406000052E0F52CA3E0F52D7F031239A4EF146A
:10141600FF900054E0FEC39F5004AF068018900072
:1014260055E0F52B900052E0F52CA3E0F52D7F0357
:101436001239A4EF14FF123AD67F03123A389000FD
:1014460053E0FF123AD67F01123A87900054E0FF2C
:1014560025E0242AF582E43400F583E0FE9000536B
:10146600E025E0241EF582E43400F583EEF0EF2556
:10147600E0242AF582E43400F583E4F0900054E099
:1014860004F0900053021DA9900057E025E0244780
:10149600F582E43400F583E0FF900056E0FE25E097
:1014A600243EF582E43400F583E06F6003021550B4
:1014B600EEC394044003021550752DFF752E377543
:1014C6002FD67BFF7A377961122A41900054123960
:1014D60093123AD67F06123A38900056E004FF126D
:1014E6003AD6E4FF123A87900057E014FF90005670
:1014F600E0FEC39F5004AF068000123AD67F071263
:101506003A38900057E0FF123AD67F01123A879098
:101516000056E0FF25E0243EF582E43400F583E042
:10152600FE900057E025E02446F582E43400F5837A
:10153600EEF0EF25E0243EF582E43400F583E4F096
:10154600900056E004F0A3021DA9900057E025E0A4
:101556002447F582E43400F583E0FF900055E0FE71
:1015660025E02434F582E43400F583E06F6003025D
:101576001632EEC394044003021632752DFF752E03
:1015860037752FDE7BFF7A377961122A4190005436
:10159600123993123AD67F05123A38900055E00474
:1015A600FF123AD6E4FF123A87900056E0F52BA3D5
:1015B600E0F52C7F021239A4EF14FF900055E0FEEF
:1015C600C39F5004AF068012900056E0F52BA3E0AF
:1015D600F52C7F021239A4EF14FF123AD67F0712B8
:1015E6003A38900057E0FF123AD67F01123A8790B8
:1015F6000055E0FF25E02434F582E43400F583E06D
:10160600FE900057E025E02446F582E43400F58399
:10161600EEF0EF25E02434F582E43400F583E4F0BF
:10162600900055E004F0900057021DA9900054E088
:10163600FFC394034003021AA4EF25E0242AF5828F
:10164600E43400F583E0FF900049E0FEEF6E604F62
:10165600900054E0FF25E0242AF582E43400F58367
:10166600E0FE90004BE0FDEE6D6034EF25E0242AAD
:10167600F582E43400F583E0FF90004DE0FEEF6E66
:10168600601D900054E025E0242AF582E43400F53C
:1016960083E0FF90004FE0FEEF6E600302185D905E
:1016A6000055E0FFC394045025EF25E02432F5826F
:1016B600E43400F583E0FF900054E025E0242AF5A9
:1016C60082E43400F583E0D39F5003021771900043
:1016D60055E0D394025003021771752DFF752E370E
:1016E600752FE67BFF7A377961122A4190005412F2
:1016F6003993123AD67F04123A38900054E004FF28
:10170600123AD6E4FF123A87900055E014FF900093
:1017160054E0FEC39F5004AF068000123AD67F0500
:10172600123A38900055E0FF123AD67F01123A87F6
:10173600900054E0FF25E0242AF582E43400F58386
:10174600E0FE900055E025E02432F582E43400F511
:1017560083EEF0EF25E0242AF582E43400F583E4F5
:10176600F0900054E004F0A3021DA9900056E0FF9B
:10177600C394045025EF25E0243CF582E43400F5BB
:1017860083E0FF900054E025E0242AF582E434004B
:10179600F583E0D39F5003021DAC900056E0D3942E
:1017A600025003021DAC752DFF752E37752FEE7B8B
:1017B600FF7A377961122A41900054123993123A0E
:1017C600D67F04123A38900054E004FF123AD6E469
:1017D600FF123A87900055E0F52BA3E0F52C7F0227
:1017E6001239A4EF14FF900054E0FEC39F5004AFDB
:1017F600068012900055E0F52BA3E0F52C7F02122F
:1018060039A4EF14FF123AD67F06123A38900056E2
:10181600E0FF123AD67F01123A87900054E0FF2586
:10182600E0242AF582E43400F583E0FE900056E0D9
:1018360025E0243CF582E43400F583EEF0EF25E064
:10184600242AF582E43400F583E4F0900054E004A1
:10185600F0900056021DA9900054E0FF25E0242ACE
:10186600F582E43400F583E0FE900021E0FDEE6DA4
:10187600604CEF25E0242AF582E43400F583E0FF8E
:10188600900023E0FEEF6E6035900054E0FF25E007
:10189600242AF582E43400F583E0FE900025E0FD7D
:1018A600EE6D601AEF25E0242AF582E43400F58314
:1018B600E0FF900027E0FEEF6E6003021DAC900093
:1018C60051E0FFC394045025EF25E0240AF582E495
:1018D6003400F583E0FF900054E025E0242AF582E9
:1018E600E43400F583E0D39F50030219B49000510D
:1018F600E0D3940250030219B4752DFF752E377587
:101906002FF67BFF7A377961122A419000541239FB
:1019160093123AD67F04123A38900054E004FF122C
:101926003AD6E4FF123A87900055E0F52B90005125
:10193600E0F52C7F021239A4EF14FF900054E0FE6C
:10194600C39F5004AF068014900055E0F52B90001D
:1019560051E0F52C7F021239A4EF14FF123AD67F1C
:1019660001123A38900051E0FF123AD67F01123A3E
:1019760087900054E0FF25E0242AF582E43400F540
:1019860083E0FE900051E025E0240AF582E434006D
:10199600F583EEF0EF25E0242AF582E43400F583A2
:1019A600E4F0900054E004F0900051021DA990006C
:1019B60052E0FFC394045025EF25E02414F582E499
:1019C6003400F583E0FF900054E025E0242AF582F8
:1019D600E43400F583E0D39F5003021DAC9000521F
:1019E600E0D394025003021DAC752DFF752E37759A
:1019F6002FFE7BFF7A377961122A41900054123903
:101A060093123AD67F04123A38900054E004FF123B
:101A16003AD6E4FF123A87900055E0F52B90005233
:101A2600E0F52C7F021239A4EF14FF900054E0FE7B
:101A3600C39F5004AF068014900055E0F52B90002C
:101A460052E0F52C7F021239A4EF14FF123AD67F2A
:101A560002123A38900052E0FF123AD67F01123A4B
:101A660087900054E0FF25E0242AF582E43400F54F
:101A760083E0FE900052E025E02414F582E4340071
:101A8600F583EEF0EF25E0242AF582E43400F583B1
:101A9600E4F0900054E004F0900052021DA990007A
:101AA60056E0FFC394034003021C3B900055E0FE42
:101AB600C394045022EE25E02432F582E43400F586
:101AC60083E0FEEF25E0243EF582E43400F583E072
:101AD600D39E5003021B7A900055E0D39402500324
:101AE600021B7A752DFF752E38752F067BFF7A3708
:101AF6007961122A41900054123993123AD67F0620
:101B0600123A38900056E004FF123AD6E4FF123A31
:101B160087900055E014FFA3E0FEC39F5004AF0674
:101B26008000123AD67F05123A38900055E0FF122F
:101B36003AD67F01123A87900056E0FF25E0243E10
:101B4600F582E43400F583E0FE900055E025E024BC
:101B560032F582E43400F583EEF0EF25E0243EF51D
:101B660082E43400F583E4F0900056E004F090003F
:101B760055021DA9900054E0C394045003021DAC05
:101B8600752DFF752E38752F0E7BFF7A377961120A
:101B96002A41900054123993123AD67F06123A38E7
:101BA600900056E004FF123AD6E4FF123A879000FE
:101BB60055E0F52B900054E0F52C7F021239A4EF86
:101BC60014FF900056E0FEC39F5004AF06801490A9
:101BD6000055E0F52B900054E0F52C7F021239A455
:101BE600EF14FF123AD67F04123A38900054E0FF01
:101BF600123AD67F01123A87900056E0FF25E0247C
:101C06003EF582E43400F583E0FE900054E025E0E2
:101C16002428F582E43400F583EEF0EF25E0243E37
:101C2600F582E43400F583E4F0900056E004F09089
:101C36000054021DA9900055E0FFC394034003021F
:101C46001DACA3E0FEC394045022EE25E0243CF52F
:101C560082E43400F583E0FEEF25E02434F582E4E7
:101C66003400F583E0D39E5003021D0F900056E02A
:101C7600D394025003021D0F752DFF752E38752F54
:101C8600167BFF7A377961122A41900054123993F4
:101C9600123AD67F05123A38900055E004FF123A00
:101CA600D6E4FF123A87900056E014FF900055E004
:101CB600FEC39F5004AF068000123AD67F06123A42
:101CC60038900056E0FF123AD67F01123A8790000C
:101CD60055E0FF25E02434F582E43400F583E0FE88
:101CE600900056E025E0243CF582E43400F583EECE
:101CF600F0EF25E02434F582E43400F583E4F09037
:101D06000055E004F0A3021DA9900054E0C394041A
:101D16005003021DAC752DFF752E38752F1E7BFFE7
:101D26007A377961122A41900054123993123AD6C1
:101D36007F05123A38900055E004FF123AD6E4FFC8
:101D4600123A87900054E014FFA3E0FEC39F5004AC
:101D5600AF068000123AD67F04123A38900054E05B
:101D6600FF123AD67F01123A87900055E0FF25E030
:101D76002434F582E43400F583E0FE900054E02537
:101D8600E02428F582E43400F583EEF0EF25E02424
:101D960034F582E43400F583E4F0900055E004F075
:101DA600900054E014F090004FE0FF90004EE06F7A
:101DB600703C90004DE0FF90004CE06F703090005A
:101DC6004BE0FF90004AE06F7024900049E0FF90DE
:101DD6000048E0B50718900030E0701290002EE041
:101DE600700C90002CE0700690002AE060109000C5
:101DF6005AE0FF04F0EFD394C8500302072790007F
:101E060027E0FF900026E06F703E900025E0FF90EF
:101E16000024E06F7032900023E0FF900022E06F14
:101E26007026900021E0FF900020E06F701A90006D
:101E360008E07014900006E0700E900004E0700850
:101E4600900002E070028037E490005AF090005053
:101E5600E0F52BA3E0F52CA3E0F52DA3E0F52EA3EA
:101E6600E0F52FA3E0F530A3E0F531A3E0F5327FEE
:101E7600081239A41230537F02122E4E0207279001
:101E86000068E0B4020FE4FF1230537F07123A38BD
:0A1E96007F01123053E4FF023A8787
:10399000900050E0F52BA3E0F52CA3E0F52DA3E07B
:0439A000F52E7F047D
:0239A4008F2A68
:1039A600753A00753B00753C2BAB3A053CE53CAAE5
:1039B6003B7002053B14F912239FFF7E01EEC3956F
:1039C6002A501BAB3A053CE53CAA3B7002053B146A
:0E39D600F912239FFDC39F5002AF050E80DF44
:0139E40022C0
:101EA000EC4D6011E8497017ED33EC3304600DE43C
:101EB000FCFFFEFD22E933E8330470F80220F01243
:101EC00020BB58046009E4CC248150062850090244
:101ED00020FA2840030220F7C0E0EB4A7044B980A2
:101EE00006D0E0FB0220E6EF4E701CBD8008EBFF41
:101EF000EAFEE9FD80EBE98DF0A4FEE5F0021F8922
:101F0000E9CDF9EAFEEBFFEF89F0A4FCE5F0CE891C
:101F1000F0A42EFFE435F0CD89F0A42DFEE435F0D9
:101F20008067EF4E7005BD80D780C3EF8BF0A4AC07
:101F3000F0EE8BF0A42CFCE435F0F8EF8AF0A42C42
:101F4000E5F038FCE433CB8DF0A42CFCE5F03BF855
:101F5000EE8AF0A42CFCE5F038F8E433CF89F0A445
:101F60002CFCE5F038CF3400CE89F0A42FFFE5F04B
:101F70003EFEE433C98DF0A42EFEE5F039CD8AF0A3
:101F8000A42FFFE5F03EFEE43DFD33D0E0FB50071B
:101F90000BBB000F0220FAEC2CFCEF33FFEE33FEFC
:061FA000ED33FD0220D22A
:101FA6000220FAEC5D046005E8590470030220F093
:101FB6001220BB580460F6EC4860F2EC7004FDFE9B
:101FC600FF22C860DB2481C85009C398600250060E
:101FD6000220F79850CAF582E9294B4A7005AB8270
:101FE6000220E675F0007C1A7880C3EF9BEE9AED2E
:101FF60099400DC3EF9BFFEE9AFEED99FDE842F086
:10200600DC23ACF0D0E0FFD0E0FED0E0FDAB8220D8
:10201600E7101BEB60BAEC2CFCEF33FFEE33FEED62
:1020260033FD0220D2E803F830E705C0F075F00072
:10203600EF2FFFEE33FEED33FD40B830E7C280AA46
:1020460075F020800E75F010800575F0087D007E15
:10205600007F003392D530D5031224C5EC334010EF
:10206600EF33FFEE33FEED33FDEC33FCD5F0ED221E
:0E207600E5F0247EA2D513CC92E7CDCEFF225A
:10208400EDD2E7CD33EC3392D524814006E4FFFE54
:10209400FDFC22FCE4CFCECDCC24E0501174FF80B3
:1020A400EDC3CC13CCCD13CDCE13CECF13CF047050
:0720B400F030D5DE0224C567
:1029DF00E541242DF8E6054122782A300702782DAB
:1029EF00E475F0011224DF02239F2000EB7F2ED22B
:1029FF00008018EF540F2490D43440D4FF30040BD0
:102A0F00EF24BFB41A0050032461FFE542600215A2
:102A1F00420545E5457002054430070D782AE475F7
:102A2F00F0011224DFEF0223E5023B257403D207E6
:102A3F008003E4C207F5418B2A8A2B892CE4F542E7
:102A4F00F544F545E54260077F20122A1A80F57597
:102A5F0043FFC201C200C202C203C205C206C208BE
:102A6F001229E8FF700D3007057F00122A2BAF45A2
:102A7F00AE4422B4255FC2D5C2041229E8FF24D088
:102A8F00B40A00501A75F00A784230D50508B6FF1F
:102A9F000106C6A426F620D5047002D20380D924DD
:102AAF00CFB41A00EF5004C2E5D204022D18D201A0
:102ABF0080C6D20080C0D20280BCD2D580BAD205E7
:102ACF0080B47F20122A1A2002077401B5420040F9
:102ADF00F11229DFFF122A1A022A53D208D20680D6
:102AEF00951229DFFB1229DFFA1229DFF94A4B7001
:102AFF0006790F7A2E7BFF20022EE542602A7E0098
:102B0F008E827583001223B860060EEE654370F057
:102B1F00C2D5EBC0E0EAC0E0E9C0E0EE122D78D0FC
:102B2F00E0F9D0E0FAD0E0FB12239FFF60AAEBC0E0
:102B3F00E0EAC0E0E9C0E0122A1AD0E02401F9D09F
:102B4F00E03400FAD0E0FBE5430460DCD543D980E4
:102B5F0087D20280A2122D5B60F7E5437001041249
:102B6F002105A943600DE543600914F543122E02B8
:102B7F00EF60F3EA30E702F404C3995077EAF425E3
:102B8F00430430E701E404F543800D122D5B60C16F
:102B9F00EA05432543122105EA7840F630E701E4C0
:102BAF00254304D5430420050114122D78E4C0E019
:102BBF00122E027840E6601320E70714F6122A025D
:102BCF00802204F6D0E014C0E07F00122A02E54311
:102BDF0060071229F91543800B3005031229F9D02C
:102BEF00E0022A53D0E00480C5122D5B60A0E543BC
:102BFF00041221057840EAF6E5432005026001043E
:052C0F002404122D78E1
:102C140074FF04C0E0122E02122A02E543200502CA
:102C240060031229F9D0E0B543E87F45122A0C78F5
:102C340040E67F2B30E7047F2DF404C0E0122A1A0B
:102C4400D0E075F00A84C0F0122A03D0E0122A03FF
:102C5400022A53791080027908C206C2088008D279
:102C6400D5790A8004790AC2D5E543047002F54394
:102C7400E4FAFDFEFF1229DFFC7B08200113122970
:102C8400DFFD7B1030000A1229DFFE1229DFFF7BF3
:102C940020EC3382D592D55013C3E43000069FFF55
:102CA400E49EFEE42001039DFDE49CFCE4CBF8C219
:102CB40001EC700CCFCECDCCE824F8F870F380177B
:102CC400C3EF33FFEE33FEED33FDEC33FCEB33FBAC
:102CD400994002FB0FD8E9EB300105F8D0E0C44875
:102CE400B201C0E00AEC4D4E4F78207B0070C2EA7E
:102CF400B5430040BCC0E0122D7AD0F0D0E02001F2
:102D040004C4C0E0C4B201C0F0122A03D0F0D5F06C
:102D1400EB022A531224EF2AF0532C57582AC14CA1
:102D24002ABD422C5B4F2C63442C63492AD6432C86
:102D340069552B9A462BF8452B64472E2F502AC5EC
:102D44002D2AC92E2AEC2B2ACD232AEA202E182A32
:102D54002A854800002AE4E543B4FF0375430612BC
:102D640029DFFC1229DFFD1229DFFE1229DFFF789B
:102D740039022134790AA2D5200314300509B91087
:102D8400020404B9080104A2D5200602500104205B
:102D940002689202B542005034C0E07F203003192B
:102DA4007F30A20272067205500F122DD1C202C2E8
:102DB40006C205C2087F30800F300503E9C0E01267
:102DC4002A1A300503D0E0F9D0E0B542CC3005171B
:102DD4007F30B9100C122A1A7F583004077F78808C
:102DE40003B90803122A1A3002057F2D022A1A7F1A
:102DF400202008F87F2B2006F322920280CF7F0048
:102E0400B4070050052439F8E6FF22286E756C6C6F
:102E14002900D2011229DF3001F8C201784230D5ED
:102E24000108F6022A852D504349581229DF24034C
:102E3400B405004001E4902E2A93122A0B743A122E
:0A2E44002A0BD203754204022C573A
:1020BB00E9D2E7C933E833F892D5EDD2E7CD33EC6B
:0720CB0033FC5002B2D522E4
:1020D200EC30E7100FBF000C0EBE00080DBD00046F
:1020E2000BEB6014A2D5EB13FCED92E7FD2274FF1B
:1020F200FCFDFEFF22E480F8A2D574FF13FC7D8074
:03210200E480EF87
:10210500F920E72824F950037907E4F42402FB18A1
:10211500DBFDE624FB5014E9600DE4F618E604F651
:0F212500B40A08E4F6D9F57401F60A22C2D522ED
:10213400ED33EC3392D5FA602AB4FF33EDC2E77B7A
:10214400FF60067A217959E4227A21796220D50444
:102154007A21795D224E614E002B494E46002D496D
:102164004E4600E47A08F608DAFC7B00740722E89D
:10217400C0E0ECC0E0EDC0E0EEC0E0EFC0E0EA7526
:10218400F010A4CAABF075F04DA42BFBE435F0FCC1
:10219400EA2410FAEB34C5FBEC34D9FCEDC2E7FFBA
:1021A40075F056A4F42411C5F0F434C58FF0A42AB4
:1021B400E5F03BE43CF620E71412235FD0E0FFD0C7
:1021C400E0FED0E0FDD0E0FC121FA98014F404125C
:1021D400235FD0E0FFD0E0FED0E0FDD0E0FC121E93
:1021E400A0D0E0F8E6FAEDD2E7CD33EC332482FB5D
:1021F400E4C3CF33CFCE33CECD33CD33DBF37B0744
:1022040075F00A846004F6081B0AE5F0F6088FF0FE
:10221400740AA4FFACF08EF0740AA42CFEACF05047
:10222400010C8DF0740AA42CFDE435F0F608DBDE15
:032234007407220A
:102237000220F0E86480F8E933E83360110460F0C5
:10224700ED33EC337009E8FCE9FDEAFEEBFF22040D
:1022570060DED3EB9FEA9EE99DE8C2E78CF0C2F708
:1022670095F0400CE8CCF8E9CDF9EACEFAEBCFFBD4
:102277001220BB85D0F05804700320D5B3E8047052
:10228700075002B2D50220FA92D5EC0460F7E4CCED
:10229700C0E0C398F8603B94186008400DD0E0FB9D
:1022A7000220D2E4FBFAC9FC8028E830E406E4C93E
:1022B700FBE4CAFCE830E305E4C9CACBFCE85407F1
:1022C7006010F8C3E913F9EA13FAEB13FBEC13FCFC
:1022D700D8F130F52FC3E49CFCEF9BFFEE9AFEED9F
:1022E70099FDD0E0FBEF4E4D4C701222DB0302202C
:1022F700F7EC2CFCEF33FFEE33FEED33FDED30E76B
:10230700EB0220D2EF2BFFEE3AFEED39FDD0E0FBDA
:1023170050130BBB00030220FAED13FDEE13FEEF83
:0823270013FFEC13FC0220D2AD
:10232F003F8000004120000042C80000447A0000B6
:10233F00461C400047C35000497424004B18968038
:10234F004CBEBC205A0E1BCA6753C21C749DC5AE2F
:10235F00FB60065407601C232312238DEB54386057
:10236F0009122379122388121EA0ECF8EDF9EEFA68
:10237F00EFCB22EB12238880F1543803241C9023D7
:10238F002FFE93FC0EEE93FD0EEE930ECE93FF22D7
:103832000238B2E493A3F8E493A34003F68001F2C2
:1038420008DFF48029E493A3F85407240CC8C33397
:10385200C4540F4420C8834004F456800146F6DF66
:10386200E4800B0102040810204080903B4CE47E6F
:10387200019360BCA3FF543F30E509541FFEE4935B
:10388200A360010ECF54C025E060A840B8E493A322
:10389200FAE493A3F8E493A3C8C582C8CAC583CA4D
:1038A200F0A3C8C582C8CAC583CADFE9DEE780BE05
:013B71000053
:10239F00BB010689828A83E0225002E722BBFE023C
:0923AF00E32289828A83E493226F
:1023B800BB010CE58229F582E5833AF583E02250DA
:1023C80006E92582F8E622BBFE06E92582F8E22224
:0D23D800E58229F582E5833AF583E493223E
:1023E500BB010689828A83F0225002F722BBFE01D7
:0223F500F322D1
:1023F70075F008758200EF2FFFEE33FECD33CDCC9D
:1024070033CCC58233C5829BED9AEC99E58298401F
:102417000CF582EE9BFEED9AFDEC99FC0FD5F0D6FC
:10242700E4CEFBE4CDFAE4CCF9A88222B800C1B926
:102437000059BA002DEC8BF084CFCECDFCE5F0CB64
:10244700F97818EF2FFFEE33FEED33FDEC33FCEB9D
:1024570033FB10D703994004EB99FB0FD8E5E4F958
:10246700FA227818EF2FFFEE33FEED33FDEC33FC45
:10247700C933C910D7059BE99A4007EC9BFCE99A39
:10248700F90FD8E0E4C9FAE4CCFB2275F010EF2F7E
:10249700FFEE33FEED33FDCC33CCC833C810D7077E
:1024A7009BEC9AE899400AED9BFDEC9AFCE899F8B9
:0E24B7000FD5F0DAE4CDFBE4CCFAE4C8F9224C
:0E24C500C3E49FFFE49EFEE49DFDE49CFC2228
:0C24D300A42582F582E5F03583F5832214
:1024DF00FAE6FB0808E6F925F0F618E6CA3AF622FE
:1024EF00D083D082F8E4937012740193700DA3A37C
:1024FF0093F8740193F5828883E473740293686090
:06250F00EFA3A3A380DF8F
:103B2500EFB40A07740D123B30740A309811A89946
:103B3500B8130CC2983098FDA899C298B811F63000
:073B450099FDC299F59922D8
:083CCE00EF30E703F404FF22CC
:10251500EF4E6012EF60010EEDBB010B89828A83DD
:10252500F0A3DFFCDEFA2289F05007F709DFFCA9EA
:0C253500F022BBFEFCF309DFFCA9F02241
:00000001FF
